{
  "contractName": "CrossContractMan",
  "abi": [
    {
      "inputs": [],
      "stateMutability": "nonpayable",
      "type": "constructor"
    },
    {
      "anonymous": false,
      "inputs": [
        {
          "indexed": false,
          "internalType": "bytes32",
          "name": "h_name",
          "type": "bytes32"
        },
        {
          "indexed": false,
          "internalType": "address",
          "name": "contract_addr",
          "type": "address"
        }
      ],
      "name": "ContractAdded",
      "type": "event"
    },
    {
      "anonymous": false,
      "inputs": [
        {
          "indexed": false,
          "internalType": "bytes32",
          "name": "h_name",
          "type": "bytes32"
        },
        {
          "indexed": false,
          "internalType": "address",
          "name": "contract_addr",
          "type": "address"
        }
      ],
      "name": "ContractReplaced",
      "type": "event"
    },
    {
      "anonymous": false,
      "inputs": [
        {
          "indexed": false,
          "internalType": "address",
          "name": "oldManager",
          "type": "address"
        }
      ],
      "name": "ManagerUpdatedFrom",
      "type": "event"
    },
    {
      "anonymous": false,
      "inputs": [
        {
          "indexed": false,
          "internalType": "address",
          "name": "newManager",
          "type": "address"
        }
      ],
      "name": "ManagerUpdatedTo",
      "type": "event"
    },
    {
      "anonymous": false,
      "inputs": [
        {
          "indexed": true,
          "internalType": "address",
          "name": "previousOwner",
          "type": "address"
        },
        {
          "indexed": true,
          "internalType": "address",
          "name": "newOwner",
          "type": "address"
        }
      ],
      "name": "OwnershipTransferred",
      "type": "event"
    },
    {
      "anonymous": false,
      "inputs": [
        {
          "indexed": true,
          "internalType": "bytes32",
          "name": "role",
          "type": "bytes32"
        },
        {
          "indexed": true,
          "internalType": "bytes32",
          "name": "previousAdminRole",
          "type": "bytes32"
        },
        {
          "indexed": true,
          "internalType": "bytes32",
          "name": "newAdminRole",
          "type": "bytes32"
        }
      ],
      "name": "RoleAdminChanged",
      "type": "event"
    },
    {
      "anonymous": false,
      "inputs": [
        {
          "indexed": true,
          "internalType": "bytes32",
          "name": "role",
          "type": "bytes32"
        },
        {
          "indexed": true,
          "internalType": "address",
          "name": "account",
          "type": "address"
        },
        {
          "indexed": true,
          "internalType": "address",
          "name": "sender",
          "type": "address"
        }
      ],
      "name": "RoleGranted",
      "type": "event"
    },
    {
      "anonymous": false,
      "inputs": [
        {
          "indexed": true,
          "internalType": "bytes32",
          "name": "role",
          "type": "bytes32"
        },
        {
          "indexed": true,
          "internalType": "address",
          "name": "account",
          "type": "address"
        },
        {
          "indexed": true,
          "internalType": "address",
          "name": "sender",
          "type": "address"
        }
      ],
      "name": "RoleRevoked",
      "type": "event"
    },
    {
      "inputs": [],
      "name": "DEFAULT_ADMIN_ROLE",
      "outputs": [
        {
          "internalType": "bytes32",
          "name": "",
          "type": "bytes32"
        }
      ],
      "stateMutability": "view",
      "type": "function"
    },
    {
      "inputs": [],
      "name": "RETIRING_MANAGER_ROLE",
      "outputs": [
        {
          "internalType": "bytes32",
          "name": "",
          "type": "bytes32"
        }
      ],
      "stateMutability": "view",
      "type": "function"
    },
    {
      "inputs": [
        {
          "internalType": "bytes32",
          "name": "",
          "type": "bytes32"
        }
      ],
      "name": "contracts",
      "outputs": [
        {
          "internalType": "address",
          "name": "",
          "type": "address"
        }
      ],
      "stateMutability": "view",
      "type": "function"
    },
    {
      "inputs": [
        {
          "internalType": "bytes32",
          "name": "role",
          "type": "bytes32"
        }
      ],
      "name": "getRoleAdmin",
      "outputs": [
        {
          "internalType": "bytes32",
          "name": "",
          "type": "bytes32"
        }
      ],
      "stateMutability": "view",
      "type": "function"
    },
    {
      "inputs": [
        {
          "internalType": "bytes32",
          "name": "role",
          "type": "bytes32"
        },
        {
          "internalType": "uint256",
          "name": "index",
          "type": "uint256"
        }
      ],
      "name": "getRoleMember",
      "outputs": [
        {
          "internalType": "address",
          "name": "",
          "type": "address"
        }
      ],
      "stateMutability": "view",
      "type": "function"
    },
    {
      "inputs": [
        {
          "internalType": "bytes32",
          "name": "role",
          "type": "bytes32"
        }
      ],
      "name": "getRoleMemberCount",
      "outputs": [
        {
          "internalType": "uint256",
          "name": "",
          "type": "uint256"
        }
      ],
      "stateMutability": "view",
      "type": "function"
    },
    {
      "inputs": [
        {
          "internalType": "bytes32",
          "name": "role",
          "type": "bytes32"
        },
        {
          "internalType": "address",
          "name": "account",
          "type": "address"
        }
      ],
      "name": "grantRole",
      "outputs": [],
      "stateMutability": "nonpayable",
      "type": "function"
    },
    {
      "inputs": [
        {
          "internalType": "bytes32",
          "name": "role",
          "type": "bytes32"
        },
        {
          "internalType": "address",
          "name": "account",
          "type": "address"
        }
      ],
      "name": "hasRole",
      "outputs": [
        {
          "internalType": "bool",
          "name": "",
          "type": "bool"
        }
      ],
      "stateMutability": "view",
      "type": "function"
    },
    {
      "inputs": [
        {
          "internalType": "uint256",
          "name": "",
          "type": "uint256"
        }
      ],
      "name": "hnames",
      "outputs": [
        {
          "internalType": "bytes32",
          "name": "",
          "type": "bytes32"
        }
      ],
      "stateMutability": "view",
      "type": "function"
    },
    {
      "inputs": [],
      "name": "owner",
      "outputs": [
        {
          "internalType": "address",
          "name": "",
          "type": "address"
        }
      ],
      "stateMutability": "view",
      "type": "function"
    },
    {
      "inputs": [],
      "name": "renounceOwnership",
      "outputs": [],
      "stateMutability": "nonpayable",
      "type": "function"
    },
    {
      "inputs": [
        {
          "internalType": "bytes32",
          "name": "role",
          "type": "bytes32"
        },
        {
          "internalType": "address",
          "name": "account",
          "type": "address"
        }
      ],
      "name": "renounceRole",
      "outputs": [],
      "stateMutability": "nonpayable",
      "type": "function"
    },
    {
      "inputs": [
        {
          "internalType": "bytes32",
          "name": "role",
          "type": "bytes32"
        },
        {
          "internalType": "address",
          "name": "account",
          "type": "address"
        }
      ],
      "name": "revokeRole",
      "outputs": [],
      "stateMutability": "nonpayable",
      "type": "function"
    },
    {
      "inputs": [
        {
          "internalType": "bytes4",
          "name": "interfaceId",
          "type": "bytes4"
        }
      ],
      "name": "supportsInterface",
      "outputs": [
        {
          "internalType": "bool",
          "name": "",
          "type": "bool"
        }
      ],
      "stateMutability": "view",
      "type": "function"
    },
    {
      "inputs": [
        {
          "internalType": "address",
          "name": "newOwner",
          "type": "address"
        }
      ],
      "name": "transferOwnership",
      "outputs": [],
      "stateMutability": "nonpayable",
      "type": "function"
    },
    {
      "inputs": [
        {
          "internalType": "address",
          "name": "oldManager",
          "type": "address"
        }
      ],
      "name": "onSwitchManager",
      "outputs": [],
      "stateMutability": "nonpayable",
      "type": "function"
    },
    {
      "inputs": [
        {
          "internalType": "string",
          "name": "name",
          "type": "string"
        },
        {
          "internalType": "address",
          "name": "contract_addr",
          "type": "address"
        }
      ],
      "name": "addContract",
      "outputs": [],
      "stateMutability": "nonpayable",
      "type": "function"
    },
    {
      "inputs": [
        {
          "internalType": "string",
          "name": "name",
          "type": "string"
        }
      ],
      "name": "removeContract",
      "outputs": [],
      "stateMutability": "nonpayable",
      "type": "function"
    },
    {
      "inputs": [
        {
          "internalType": "address",
          "name": "newOwner",
          "type": "address"
        }
      ],
      "name": "updateOwnership",
      "outputs": [],
      "stateMutability": "nonpayable",
      "type": "function"
    },
    {
      "inputs": [
        {
          "internalType": "address",
          "name": "newManager",
          "type": "address"
        }
      ],
      "name": "switchManager",
      "outputs": [],
      "stateMutability": "nonpayable",
      "type": "function"
    },
    {
      "inputs": [
        {
          "internalType": "string",
          "name": "name",
          "type": "string"
        }
      ],
      "name": "getContract",
      "outputs": [
        {
          "internalType": "address",
          "name": "",
          "type": "address"
        }
      ],
      "stateMutability": "view",
      "type": "function"
    },
    {
      "inputs": [],
      "name": "getContractsCount",
      "outputs": [
        {
          "internalType": "uint256",
          "name": "",
          "type": "uint256"
        }
      ],
      "stateMutability": "view",
      "type": "function"
    }
  ],
  "bytecode": "0x60806040523480156200001157600080fd5b506200001d3362000030565b6200002a60003362000080565b620001be565b600080546001600160a01b038381166001600160a01b0319831681178455604051919092169283917f8be0079c531659141344cd1fd0a4f28419497f9722a3daafe3b4186f6b6457e09190a35050565b620000978282620000c360201b620014161760201c565b6000828152600260209081526040909120620000be918390620014816200014c821b17901c565b505050565b60008281526001602090815260408083206001600160a01b038516845290915290205460ff16620001485760008281526001602081815260408084206001600160a01b0386168086529252808420805460ff19169093179092559051339285917f2f8788117e7eff1d82e926ec794901d17c78024a50270940304540a733656f0d9190a45b5050565b600062000163836001600160a01b0384166200016c565b90505b92915050565b6000818152600183016020526040812054620001b55750815460018181018455600084815260208082209093018490558454848252828601909352604090209190915562000166565b50600062000166565b611e2e80620001ce6000396000f3fe608060405234801561001057600080fd5b50600436106101425760003560e01c80638da5cb5b116100b8578063a217fddf1161007c578063a217fddf146102c1578063bf5b6016146102c9578063ca15c873146102dc578063d547741f146102ef578063ec56a37314610302578063f2fde38b1461032b57600080fd5b80638da5cb5b1461026f5780639010d07c1461028057806391d14854146102935780639683584f146102a657806397623b58146102ae57600080fd5b806336568abe1161010a57806336568abe146102085780634bde91d11461021b57806356aadd141461022e5780635df11291146102415780636b2bf27f14610254578063715018a61461026757600080fd5b806301ffc9a71461014757806303816af31461016f578063248a9ca3146101a45780632f2ff15d146101c857806335817773146101dd575b600080fd5b61015a610155366004611a02565b61033e565b60405190151581526020015b60405180910390f35b6101967f33d7a8e7a62219cc6b885a43d7b1700892672340c88d0ceaba27d80a26492bc281565b604051908152602001610166565b6101966101b2366004611a2c565b6000908152600160208190526040909120015490565b6101db6101d6366004611a5a565b610369565b005b6101f06101eb366004611ad3565b610395565b6040516001600160a01b039091168152602001610166565b6101db610216366004611a5a565b6103e1565b610196610229366004611a2c565b610464565b6101db61023c366004611b15565b610485565b6101db61024f366004611b15565b610743565b6101db610262366004611b15565b610937565b6101db610a20565b6000546001600160a01b03166101f0565b6101f061028e366004611b32565b610a56565b61015a6102a1366004611a5a565b610a75565b600454610196565b6101db6102bc366004611ad3565b610aa0565b610196600081565b6101db6102d7366004611b54565b610dca565b6101966102ea366004611a2c565b611340565b6101db6102fd366004611a5a565b611357565b6101f0610310366004611a2c565b6003602052600090815260409020546001600160a01b031681565b6101db610339366004611b15565b61137e565b60006001600160e01b03198216635a05180f60e01b1480610363575061036382611496565b92915050565b6000828152600160208190526040909120015461038681336114cb565b610390838361152f565b505050565b60008083836040516020016103ab929190611bab565b60408051808303601f190181529181528151602092830120600090815260039092529020546001600160a01b0316949350505050565b6001600160a01b03811633146104565760405162461bcd60e51b815260206004820152602f60248201527f416363657373436f6e74726f6c3a2063616e206f6e6c792072656e6f756e636560448201526e103937b632b9903337b91039b2b63360891b60648201526084015b60405180910390fd5b6104608282611551565b5050565b6004818154811061047457600080fd5b600091825260209091200154905081565b6104af7f33d7a8e7a62219cc6b885a43d7b1700892672340c88d0ceaba27d80a26492bc233610a75565b6105215760405162461bcd60e51b815260206004820152603c60248201527f43726f7373436f6e74726163744d616e3a207468652063616c6c6572206d757360448201527f742068617665205245544952494e475f4d414e414745525f524f4c4500000000606482015260840161044d565b60005b816001600160a01b0316639683584f6040518163ffffffff1660e01b815260040160206040518083038186803b15801561055d57600080fd5b505afa158015610571573d6000803e3d6000fd5b505050506040513d601f19601f820116820180604052508101906105959190611bbb565b81101561070357604051634bde91d160e01b8152600481018290526000906001600160a01b03841690634bde91d19060240160206040518083038186803b1580156105df57600080fd5b505afa1580156105f3573d6000803e3d6000fd5b505050506040513d601f19601f820116820180604052508101906106179190611bbb565b6004805460018101825560008290527f8a35acfbc15ff81a39ae7d344fd709f28e8600b4aa8c65c6b64bfe7fe36bd19b0182905560405163ec56a37360e01b81529081018290529091506001600160a01b0384169063ec56a3739060240160206040518083038186803b15801561068d57600080fd5b505afa1580156106a1573d6000803e3d6000fd5b505050506040513d601f19601f820116820180604052508101906106c59190611bd4565b60009182526003602052604090912080546001600160a01b0319166001600160a01b03909216919091179055806106fb81611c07565b915050610524565b506040516001600160a01b03821681527fe94e1e625d72b8d4750cfe76c8c924aa5450a2243364cd03830d66db68a063ef9060200160405180910390a150565b6000546001600160a01b0316331461076d5760405162461bcd60e51b815260040161044d90611c22565b60005b60045481101561081f57600360006004838154811061079157610791611c57565b60009182526020808320919091015483528201929092526040908101909120549051635df1129160e01b81526001600160a01b03848116600483015290911690635df1129190602401600060405180830381600087803b1580156107f457600080fd5b505af1158015610808573d6000803e3d6000fd5b50505050808061081790611c07565b915050610770565b506040516001600160a01b03821681527fbc680cd5d51f93aff6e2d1e94b77b489c4478e6458f795f44a92c037678d99649060200160405180910390a16040516315aab74560e21b81523060048201526001600160a01b038216906356aadd1490602401600060405180830381600087803b15801561089d57600080fd5b505af11580156108b1573d6000803e3d6000fd5b5050604051631b2b455f60e11b81527f33d7a8e7a62219cc6b885a43d7b1700892672340c88d0ceaba27d80a26492bc260048201523060248201526001600160a01b03841692506336568abe9150604401600060405180830381600087803b15801561091c57600080fd5b505af1158015610930573d6000803e3d6000fd5b5050505050565b6000546001600160a01b031633146109615760405162461bcd60e51b815260040161044d90611c22565b60005b600454811015610a1357600360006004838154811061098557610985611c57565b60009182526020808320919091015483528201929092526040908101909120549051636b2bf27f60e01b81526001600160a01b03848116600483015290911690636b2bf27f90602401600060405180830381600087803b1580156109e857600080fd5b505af11580156109fc573d6000803e3d6000fd5b505050508080610a0b90611c07565b915050610964565b50610a1d8161137e565b50565b6000546001600160a01b03163314610a4a5760405162461bcd60e51b815260040161044d90611c22565b610a546000611573565b565b6000828152600260205260408120610a6e90836115c3565b9392505050565b60009182526001602090815260408084206001600160a01b0393909316845291905290205460ff1690565b6000546001600160a01b03163314610aca5760405162461bcd60e51b815260040161044d90611c22565b60008282604051602001610adf929190611bab565b60408051601f198184030181529181528151602092830120600081815260039093529120549091506001600160a01b0316610b1957505050565b600081815260036020526040812054610b3a906001600160a01b03166115cf565b600083815260036020526040902054909150610b5e906001600160a01b03166115cf565b15610bc857600082815260036020526040808220548151631a6f04f360e01b815291516001600160a01b0390911692631a6f04f3926004808201939182900301818387803b158015610baf57600080fd5b505af1158015610bc3573d6000803e3d6000fd5b505050505b60005b600454811015610da85760006001600160a01b03166003600060048481548110610bf757610bf7611c57565b600091825260208083209091015483528201929092526040019020546001600160a01b03161415610c2757610da8565b610c6b6003600060048481548110610c4157610c41611c57565b600091825260208083209091015483528201929092526040019020546001600160a01b03166115cf565b610c7457610da8565b6003600060048381548110610c8b57610c8b611c57565b6000918252602080832091909101548352820192909252604090810190912054905163d4697a4760e01b8152600481018590526001600160a01b039091169063d4697a4790602401600060405180830381600087803b158015610ced57600080fd5b505af1158015610d01573d6000803e3d6000fd5b505050600084815260036020526040902054600480546001600160a01b03909216925063d4697a479184908110610d3a57610d3a611c57565b90600052602060002001546040518263ffffffff1660e01b8152600401610d6391815260200190565b600060405180830381600087803b158015610d7d57600080fd5b505af1158015610d91573d6000803e3d6000fd5b505050508080610da090611c07565b915050610bcb565b5050600090815260036020526040902080546001600160a01b03191690555050565b6000546001600160a01b03163314610df45760405162461bcd60e51b815260040161044d90611c22565b60008383604051602001610e09929190611bab565b6040516020818303038152906040528051906020012090506000610e2c836115cf565b600083815260036020526040812054919250906001600160a01b031615610f9f578115610ec65760008381526003602052604090819020549051630447a2cd60e01b81526001600160a01b03918216600482015230602482015290851690630447a2cd90604401600060405180830381600087803b158015610ead57600080fd5b505af1158015610ec1573d6000803e3d6000fd5b505050505b600083815260036020526040902054610ee7906001600160a01b03166115cf565b15610f59576000838152600360205260409081902054905163c69c957960e01b81526001600160a01b0386811660048301529091169063c69c957990602401600060405180830381600087803b158015610f4057600080fd5b505af1158015610f54573d6000803e3d6000fd5b505050505b604080518481526001600160a01b03861660208201527fa53e31dacd071738355ef18fc82af270693bb05b1e7be9026b41d76d98d9c75f910160405180910390a1611079565b506001811561100257604051634420448f60e11b81523060048201526001600160a01b03851690638840891e90602401600060405180830381600087803b158015610fe957600080fd5b505af1158015610ffd573d6000803e3d6000fd5b505050505b600480546001810182556000919091527f8a35acfbc15ff81a39ae7d344fd709f28e8600b4aa8c65c6b64bfe7fe36bd19b01839055604080518481526001600160a01b03861660208201527f643cefa5894755d9e02f78cb384977d4ee3a06c8394b062a290e19176e9c69de910160405180910390a15b60005b60045481101561130d5760006001600160a01b031660036000600484815481106110a8576110a8611c57565b600091825260208083209091015483528201929092526040019020546001600160a01b031614156110d85761130d565b6110f26003600060048481548110610c4157610c41611c57565b6110fb5761130d565b600360006004838154811061111257611112611c57565b600091825260208083209190910154835282019290925260409081019091205490516305bca34960e21b8152600481018690526001600160a01b0387811660248301528415156044830152909116906316f28d2490606401600060405180830381600087803b15801561118457600080fd5b505af1158015611198573d6000803e3d6000fd5b50505050846001600160a01b03166316f28d24600483815481106111be576111be611c57565b906000526020600020015460036000600486815481106111e0576111e0611c57565b6000918252602080832090910154835282019290925260409081019091205490516001600160e01b031960e085901b16815260048101929092526001600160a01b0316602482015260016044820152606401600060405180830381600087803b15801561124c57600080fd5b505af1158015611260573d6000803e3d6000fd5b50505050816112fb57600084815260036020526040902054600480546001600160a01b039092169163d4697a4791908490811061129f5761129f611c57565b90600052602060002001546040518263ffffffff1660e01b81526004016112c891815260200190565b600060405180830381600087803b1580156112e257600080fd5b505af11580156112f6573d6000803e3d6000fd5b505050505b8061130581611c07565b91505061107c565b505050600090815260036020526040902080546001600160a01b0319166001600160a01b03929092169190911790555050565b600081815260026020526040812061036390611674565b6000828152600160208190526040909120015461137481336114cb565b6103908383611551565b6000546001600160a01b031633146113a85760405162461bcd60e51b815260040161044d90611c22565b6001600160a01b03811661140d5760405162461bcd60e51b815260206004820152602660248201527f4f776e61626c653a206e6577206f776e657220697320746865207a65726f206160448201526564647265737360d01b606482015260840161044d565b610a1d81611573565b6114208282610a75565b6104605760008281526001602081815260408084206001600160a01b0386168086529252808420805460ff19169093179092559051339285917f2f8788117e7eff1d82e926ec794901d17c78024a50270940304540a733656f0d9190a45050565b6000610a6e836001600160a01b03841661167e565b60006001600160e01b03198216637965db0b60e01b148061036357506301ffc9a760e01b6001600160e01b0319831614610363565b6114d58282610a75565b610460576114ed816001600160a01b031660146116cd565b6114f88360206116cd565b604051602001611509929190611c9d565b60408051601f198184030181529082905262461bcd60e51b825261044d91600401611d12565b6115398282611416565b60008281526002602052604090206103909082611481565b61155b8282611869565b600082815260026020526040902061039090826118d0565b600080546001600160a01b038381166001600160a01b0319831681178455604051919092169283917f8be0079c531659141344cd1fd0a4f28419497f9722a3daafe3b4186f6b6457e09190a35050565b6000610a6e83836118e5565b60006001600160a01b0382163b1561166c576040516301ffc9a760e01b815263292d6b7560e21b60048201526001600160a01b038316906301ffc9a79060240160206040518083038186803b15801561162757600080fd5b505afa15801561163b573d6000803e3d6000fd5b505050506040513d601f19601f8201168201806040525081019061165f9190611d45565b1561166c57506001919050565b506000919050565b6000610363825490565b60008181526001830160205260408120546116c557508154600181810184556000848152602080822090930184905584548482528286019093526040902091909155610363565b506000610363565b606060006116dc836002611d67565b6116e7906002611d86565b67ffffffffffffffff8111156116ff576116ff611d9e565b6040519080825280601f01601f191660200182016040528015611729576020820181803683370190505b509050600360fc1b8160008151811061174457611744611c57565b60200101906001600160f81b031916908160001a905350600f60fb1b8160018151811061177357611773611c57565b60200101906001600160f81b031916908160001a9053506000611797846002611d67565b6117a2906001611d86565b90505b600181111561181a576f181899199a1a9b1b9c1cb0b131b232b360811b85600f16601081106117d6576117d6611c57565b1a60f81b8282815181106117ec576117ec611c57565b60200101906001600160f81b031916908160001a90535060049490941c9361181381611db4565b90506117a5565b508315610a6e5760405162461bcd60e51b815260206004820181905260248201527f537472696e67733a20686578206c656e67746820696e73756666696369656e74604482015260640161044d565b6118738282610a75565b156104605760008281526001602090815260408083206001600160a01b0385168085529252808320805460ff1916905551339285917ff6391f5c32d9c69d2a47ea670b442974b53935d1edc7fd64eb21e047a839171b9190a45050565b6000610a6e836001600160a01b03841661190f565b60008260000182815481106118fc576118fc611c57565b9060005260206000200154905092915050565b600081815260018301602052604081205480156119f8576000611933600183611dcb565b855490915060009061194790600190611dcb565b90508181146119ac57600086600001828154811061196757611967611c57565b906000526020600020015490508087600001848154811061198a5761198a611c57565b6000918252602080832090910192909255918252600188019052604090208390555b85548690806119bd576119bd611de2565b600190038181906000526020600020016000905590558560010160008681526020019081526020016000206000905560019350505050610363565b6000915050610363565b600060208284031215611a1457600080fd5b81356001600160e01b031981168114610a6e57600080fd5b600060208284031215611a3e57600080fd5b5035919050565b6001600160a01b0381168114610a1d57600080fd5b60008060408385031215611a6d57600080fd5b823591506020830135611a7f81611a45565b809150509250929050565b60008083601f840112611a9c57600080fd5b50813567ffffffffffffffff811115611ab457600080fd5b602083019150836020828501011115611acc57600080fd5b9250929050565b60008060208385031215611ae657600080fd5b823567ffffffffffffffff811115611afd57600080fd5b611b0985828601611a8a565b90969095509350505050565b600060208284031215611b2757600080fd5b8135610a6e81611a45565b60008060408385031215611b4557600080fd5b50508035926020909101359150565b600080600060408486031215611b6957600080fd5b833567ffffffffffffffff811115611b8057600080fd5b611b8c86828701611a8a565b9094509250506020840135611ba081611a45565b809150509250925092565b8183823760009101908152919050565b600060208284031215611bcd57600080fd5b5051919050565b600060208284031215611be657600080fd5b8151610a6e81611a45565b634e487b7160e01b600052601160045260246000fd5b6000600019821415611c1b57611c1b611bf1565b5060010190565b6020808252818101527f4f776e61626c653a2063616c6c6572206973206e6f7420746865206f776e6572604082015260600190565b634e487b7160e01b600052603260045260246000fd5b60005b83811015611c88578181015183820152602001611c70565b83811115611c97576000848401525b50505050565b7f416363657373436f6e74726f6c3a206163636f756e7420000000000000000000815260008351611cd5816017850160208801611c6d565b7001034b99036b4b9b9b4b733903937b6329607d1b6017918401918201528351611d06816028840160208801611c6d565b01602801949350505050565b6020815260008251806020840152611d31816040850160208701611c6d565b601f01601f19169190910160400192915050565b600060208284031215611d5757600080fd5b81518015158114610a6e57600080fd5b6000816000190483118215151615611d8157611d81611bf1565b500290565b60008219821115611d9957611d99611bf1565b500190565b634e487b7160e01b600052604160045260246000fd5b600081611dc357611dc3611bf1565b506000190190565b600082821015611ddd57611ddd611bf1565b500390565b634e487b7160e01b600052603160045260246000fdfea26469706673582212207e4d52bc7e191ad692336cdf6006c4cb9317a177dccd67a725a7f0678859572c64736f6c63430008090033",
  "immutableReferences": {},
  "source": "\npragma solidity ^0.8;\n\nimport \"@openzeppelin/contracts/utils/introspection/ERC165.sol\";\nimport \"@openzeppelin/contracts/access/Ownable.sol\";\nimport \"@openzeppelin/contracts/utils/Address.sol\";\nimport \"@openzeppelin/contracts/access/AccessControlEnumerable.sol\";\n\nimport \"./ICrossContractManListener.sol\";\n\ncontract CrossContractMan is Ownable, AccessControlEnumerable {\n    using Address for address;\n    bytes32 public constant RETIRING_MANAGER_ROLE = keccak256('RETIRING_MANAGER_ROLE');\n\n    mapping(bytes32 => address) public contracts;\n\n    bytes32[] public hnames;\n\n    event ContractReplaced(bytes32 h_name, address contract_addr);\n\n    event ContractAdded(bytes32 h_name, address contract_addr);\n\n    event ManagerUpdatedFrom(address oldManager);\n\n    event ManagerUpdatedTo(address newManager);\n\n    modifier isRetiringManager() {\n\trequire(hasRole(RETIRING_MANAGER_ROLE, msg.sender),\"CrossContractMan: the caller must have RETIRING_MANAGER_ROLE\");\n\t_;\n    }\n\n    constructor() Ownable() {\n\t_grantRole(DEFAULT_ADMIN_ROLE, msg.sender);\n    }\n\n    function onSwitchManager(address oldManager) public virtual isRetiringManager {\n\tfor(uint i=0;i<CrossContractMan(oldManager).getContractsCount();i++){\n\t    bytes32 hname = CrossContractMan(oldManager).hnames(i);\n\t    hnames.push(hname);\n\t    contracts[hname] = CrossContractMan(oldManager).contracts(hname);\n\t}\n\temit ManagerUpdatedFrom(oldManager);\n    }\n\n    function addContract(string calldata name, address contract_addr) public virtual onlyOwner {\n\tbytes32 h_name = keccak256(abi.encodePacked(name));\n\tbool is_listener = isListener(contract_addr);\n\tbool is_new = false;\n\tif(contracts[h_name] != address(0)){\n\t    if(is_listener)\n\t\tICrossContractManListener(contract_addr).onUpdate(contracts[h_name], address(this));\n\t    if(isListener(contracts[h_name]))\n\t\tICrossContractManListener(contracts[h_name]).onReplaced(contract_addr);\n\t    emit ContractReplaced(h_name, contract_addr);\n\t}else{\n\t    is_new = true;\n\t    if(is_listener)\n\t\tICrossContractManListener(contract_addr).onAdd(address(this));\n\t    hnames.push(h_name);\n\t    emit ContractAdded(h_name, contract_addr);\n\t}\n\tfor(uint i=0;i<hnames.length;i++){\n\t    if(contracts[hnames[i]] == address(0))break;\n\t    if(!isListener(contracts[hnames[i]]))break;\n\t    ICrossContractManListener(contracts[hnames[i]]).onListenAdded(h_name,contract_addr,is_new);\n\t    ICrossContractManListener(contract_addr).onListenAdded(hnames[i],contracts[hnames[i]],true);\n\t    if(!is_new)\n\t\tICrossContractManListener(contracts[h_name]).onListenRemoved(hnames[i]);\n\t}\n\tcontracts[h_name] = contract_addr;\n    }\n\n    function removeContract(string calldata name) public virtual onlyOwner {\n\tbytes32 h_name = keccak256(abi.encodePacked(name));\n\tif(contracts[h_name] == address(0))return;\n\tbool is_listener = isListener(contracts[h_name]);\n\tif(isListener(contracts[h_name])){\n\t    ICrossContractManListener(contracts[h_name]).onRemoved();\n\t}\n\tfor(uint i=0;i<hnames.length;i++){\n\t    if(contracts[hnames[i]] == address(0))break;\n\t    if(!isListener(contracts[hnames[i]]))break;\n\t    ICrossContractManListener(contracts[hnames[i]]).onListenRemoved(h_name);\n\t    ICrossContractManListener(contracts[h_name]).onListenRemoved(hnames[i]);\n\t}\n\tdelete contracts[h_name];\n    }\n\n    function isListener(address instance) internal view returns(bool) {\n\tif(instance.isContract()){\n\t    if(ERC165(instance).supportsInterface(type(ICrossContractManListener).interfaceId))\n\t\treturn true;\n\t}\n\treturn false;\n    }\n\n    function updateOwnership(address newOwner) public virtual onlyOwner {\n\tfor(uint i=0;i<hnames.length;i++){\n\t    ICrossContractManListener(contracts[hnames[i]]).updateOwnership(newOwner);\n\t}\n\ttransferOwnership(newOwner);\n    }\n\n    function switchManager(address newManager) public virtual onlyOwner {\n\tfor(uint i=0;i<hnames.length;i++){\n\t    ICrossContractManListener(contracts[hnames[i]]).switchManager(newManager);\n\t}\n\temit ManagerUpdatedTo(newManager);\n\tCrossContractMan(newManager).onSwitchManager(address(this));\n\tCrossContractMan(newManager).renounceRole(RETIRING_MANAGER_ROLE, address(this));\n    }\n\n    function getContract(string calldata name) public view returns(address) {\n\tbytes32 h_name = keccak256(abi.encodePacked(name));\n\treturn contracts[h_name];\n    }\n\n    function getContractsCount() public view returns(uint256) {\n\treturn hnames.length;\n    }\n}\n",
  "sourcePath": "/home/vrogojin/Projects/FireZard/nft/contracts/CrossContractMan.sol",
  "compiler": {
    "name": "solc",
    "version": "0.8.9+commit.e5eed63a.Emscripten.clang"
  },
  "schemaVersion": "3.4.3",
  "updatedAt": "2022-02-02T10:58:59.306Z",
  "devdoc": {
    "kind": "dev",
    "methods": {
      "getRoleAdmin(bytes32)": {
        "details": "Returns the admin role that controls `role`. See {grantRole} and {revokeRole}. To change a role's admin, use {_setRoleAdmin}."
      },
      "getRoleMember(bytes32,uint256)": {
        "details": "Returns one of the accounts that have `role`. `index` must be a value between 0 and {getRoleMemberCount}, non-inclusive. Role bearers are not sorted in any particular way, and their ordering may change at any point. WARNING: When using {getRoleMember} and {getRoleMemberCount}, make sure you perform all queries on the same block. See the following https://forum.openzeppelin.com/t/iterating-over-elements-on-enumerableset-in-openzeppelin-contracts/2296[forum post] for more information."
      },
      "getRoleMemberCount(bytes32)": {
        "details": "Returns the number of accounts that have `role`. Can be used together with {getRoleMember} to enumerate all bearers of a role."
      },
      "grantRole(bytes32,address)": {
        "details": "Grants `role` to `account`. If `account` had not been already granted `role`, emits a {RoleGranted} event. Requirements: - the caller must have ``role``'s admin role."
      },
      "hasRole(bytes32,address)": {
        "details": "Returns `true` if `account` has been granted `role`."
      },
      "owner()": {
        "details": "Returns the address of the current owner."
      },
      "renounceOwnership()": {
        "details": "Leaves the contract without owner. It will not be possible to call `onlyOwner` functions anymore. Can only be called by the current owner. NOTE: Renouncing ownership will leave the contract without an owner, thereby removing any functionality that is only available to the owner."
      },
      "renounceRole(bytes32,address)": {
        "details": "Revokes `role` from the calling account. Roles are often managed via {grantRole} and {revokeRole}: this function's purpose is to provide a mechanism for accounts to lose their privileges if they are compromised (such as when a trusted device is misplaced). If the calling account had been revoked `role`, emits a {RoleRevoked} event. Requirements: - the caller must be `account`."
      },
      "revokeRole(bytes32,address)": {
        "details": "Revokes `role` from `account`. If `account` had been granted `role`, emits a {RoleRevoked} event. Requirements: - the caller must have ``role``'s admin role."
      },
      "supportsInterface(bytes4)": {
        "details": "See {IERC165-supportsInterface}."
      },
      "transferOwnership(address)": {
        "details": "Transfers ownership of the contract to a new account (`newOwner`). Can only be called by the current owner."
      }
    },
    "version": 1
  },
  "userdoc": {
    "kind": "user",
    "methods": {},
    "version": 1
  }
}