{
  "contractName": "DragonCardView",
  "abi": [
    {
      "anonymous": false,
      "inputs": [
        {
          "indexed": false,
          "internalType": "address",
          "name": "_manager",
          "type": "address"
        }
      ],
      "name": "ContractAdded",
      "type": "event"
    },
    {
      "anonymous": false,
      "inputs": [
        {
          "indexed": false,
          "internalType": "address",
          "name": "newManager",
          "type": "address"
        }
      ],
      "name": "ContractManagerSwitch",
      "type": "event"
    },
    {
      "anonymous": false,
      "inputs": [
        {
          "indexed": false,
          "internalType": "address",
          "name": "newOwner",
          "type": "address"
        }
      ],
      "name": "ContractOwnershipUpdate",
      "type": "event"
    },
    {
      "anonymous": false,
      "inputs": [],
      "name": "ContractRemoved",
      "type": "event"
    },
    {
      "anonymous": false,
      "inputs": [
        {
          "indexed": false,
          "internalType": "address",
          "name": "contractInstance",
          "type": "address"
        }
      ],
      "name": "ContractReplaced",
      "type": "event"
    },
    {
      "anonymous": false,
      "inputs": [
        {
          "indexed": false,
          "internalType": "address",
          "name": "oldInstance",
          "type": "address"
        },
        {
          "indexed": false,
          "internalType": "address",
          "name": "_manager",
          "type": "address"
        }
      ],
      "name": "ContractUpdated",
      "type": "event"
    },
    {
      "anonymous": false,
      "inputs": [
        {
          "indexed": false,
          "internalType": "address",
          "name": "nft_addr",
          "type": "address"
        }
      ],
      "name": "NFTLink",
      "type": "event"
    },
    {
      "anonymous": false,
      "inputs": [
        {
          "indexed": true,
          "internalType": "address",
          "name": "previousOwner",
          "type": "address"
        },
        {
          "indexed": true,
          "internalType": "address",
          "name": "newOwner",
          "type": "address"
        }
      ],
      "name": "OwnershipTransferred",
      "type": "event"
    },
    {
      "anonymous": false,
      "inputs": [
        {
          "indexed": true,
          "internalType": "bytes32",
          "name": "role",
          "type": "bytes32"
        },
        {
          "indexed": true,
          "internalType": "bytes32",
          "name": "previousAdminRole",
          "type": "bytes32"
        },
        {
          "indexed": true,
          "internalType": "bytes32",
          "name": "newAdminRole",
          "type": "bytes32"
        }
      ],
      "name": "RoleAdminChanged",
      "type": "event"
    },
    {
      "anonymous": false,
      "inputs": [
        {
          "indexed": true,
          "internalType": "bytes32",
          "name": "role",
          "type": "bytes32"
        },
        {
          "indexed": true,
          "internalType": "address",
          "name": "account",
          "type": "address"
        },
        {
          "indexed": true,
          "internalType": "address",
          "name": "sender",
          "type": "address"
        }
      ],
      "name": "RoleGranted",
      "type": "event"
    },
    {
      "anonymous": false,
      "inputs": [
        {
          "indexed": true,
          "internalType": "bytes32",
          "name": "role",
          "type": "bytes32"
        },
        {
          "indexed": true,
          "internalType": "address",
          "name": "account",
          "type": "address"
        },
        {
          "indexed": true,
          "internalType": "address",
          "name": "sender",
          "type": "address"
        }
      ],
      "name": "RoleRevoked",
      "type": "event"
    },
    {
      "anonymous": false,
      "inputs": [
        {
          "indexed": false,
          "internalType": "address",
          "name": "dragon_stats",
          "type": "address"
        }
      ],
      "name": "StatsLibLink",
      "type": "event"
    },
    {
      "anonymous": false,
      "inputs": [
        {
          "indexed": false,
          "internalType": "address",
          "name": "tag_addr",
          "type": "address"
        }
      ],
      "name": "ViewLink",
      "type": "event"
    },
    {
      "inputs": [],
      "name": "DEFAULT_ADMIN_ROLE",
      "outputs": [
        {
          "internalType": "bytes32",
          "name": "",
          "type": "bytes32"
        }
      ],
      "stateMutability": "view",
      "type": "function"
    },
    {
      "inputs": [],
      "name": "MANAGER_ROLE",
      "outputs": [
        {
          "internalType": "bytes32",
          "name": "",
          "type": "bytes32"
        }
      ],
      "stateMutability": "view",
      "type": "function"
    },
    {
      "inputs": [],
      "name": "NFT_addr",
      "outputs": [
        {
          "internalType": "address",
          "name": "",
          "type": "address"
        }
      ],
      "stateMutability": "view",
      "type": "function"
    },
    {
      "inputs": [],
      "name": "VERSION",
      "outputs": [
        {
          "internalType": "bytes32",
          "name": "",
          "type": "bytes32"
        }
      ],
      "stateMutability": "view",
      "type": "function"
    },
    {
      "inputs": [],
      "name": "contract_id",
      "outputs": [
        {
          "internalType": "bytes32",
          "name": "",
          "type": "bytes32"
        }
      ],
      "stateMutability": "view",
      "type": "function"
    },
    {
      "inputs": [],
      "name": "contract_name",
      "outputs": [
        {
          "internalType": "string",
          "name": "",
          "type": "string"
        }
      ],
      "stateMutability": "view",
      "type": "function"
    },
    {
      "inputs": [],
      "name": "dragon_stats_addr",
      "outputs": [
        {
          "internalType": "address",
          "name": "",
          "type": "address"
        }
      ],
      "stateMutability": "view",
      "type": "function"
    },
    {
      "inputs": [
        {
          "internalType": "bytes32",
          "name": "role",
          "type": "bytes32"
        }
      ],
      "name": "getRoleAdmin",
      "outputs": [
        {
          "internalType": "bytes32",
          "name": "",
          "type": "bytes32"
        }
      ],
      "stateMutability": "view",
      "type": "function"
    },
    {
      "inputs": [
        {
          "internalType": "bytes32",
          "name": "role",
          "type": "bytes32"
        },
        {
          "internalType": "uint256",
          "name": "index",
          "type": "uint256"
        }
      ],
      "name": "getRoleMember",
      "outputs": [
        {
          "internalType": "address",
          "name": "",
          "type": "address"
        }
      ],
      "stateMutability": "view",
      "type": "function"
    },
    {
      "inputs": [
        {
          "internalType": "bytes32",
          "name": "role",
          "type": "bytes32"
        }
      ],
      "name": "getRoleMemberCount",
      "outputs": [
        {
          "internalType": "uint256",
          "name": "",
          "type": "uint256"
        }
      ],
      "stateMutability": "view",
      "type": "function"
    },
    {
      "inputs": [
        {
          "internalType": "bytes32",
          "name": "role",
          "type": "bytes32"
        },
        {
          "internalType": "address",
          "name": "account",
          "type": "address"
        }
      ],
      "name": "grantRole",
      "outputs": [],
      "stateMutability": "nonpayable",
      "type": "function"
    },
    {
      "inputs": [
        {
          "internalType": "bytes32",
          "name": "role",
          "type": "bytes32"
        },
        {
          "internalType": "address",
          "name": "account",
          "type": "address"
        }
      ],
      "name": "hasRole",
      "outputs": [
        {
          "internalType": "bool",
          "name": "",
          "type": "bool"
        }
      ],
      "stateMutability": "view",
      "type": "function"
    },
    {
      "inputs": [],
      "name": "manager",
      "outputs": [
        {
          "internalType": "address",
          "name": "",
          "type": "address"
        }
      ],
      "stateMutability": "view",
      "type": "function"
    },
    {
      "inputs": [
        {
          "internalType": "address",
          "name": "_manager",
          "type": "address"
        }
      ],
      "name": "onAdd",
      "outputs": [],
      "stateMutability": "nonpayable",
      "type": "function"
    },
    {
      "inputs": [],
      "name": "onRemoved",
      "outputs": [],
      "stateMutability": "nonpayable",
      "type": "function"
    },
    {
      "inputs": [
        {
          "internalType": "address",
          "name": "newInstance",
          "type": "address"
        }
      ],
      "name": "onReplaced",
      "outputs": [],
      "stateMutability": "nonpayable",
      "type": "function"
    },
    {
      "inputs": [
        {
          "internalType": "address",
          "name": "oldInstance",
          "type": "address"
        },
        {
          "internalType": "address",
          "name": "_manager",
          "type": "address"
        }
      ],
      "name": "onUpdate",
      "outputs": [],
      "stateMutability": "nonpayable",
      "type": "function"
    },
    {
      "inputs": [],
      "name": "owner",
      "outputs": [
        {
          "internalType": "address",
          "name": "",
          "type": "address"
        }
      ],
      "stateMutability": "view",
      "type": "function"
    },
    {
      "inputs": [],
      "name": "renounceOwnership",
      "outputs": [],
      "stateMutability": "nonpayable",
      "type": "function"
    },
    {
      "inputs": [
        {
          "internalType": "bytes32",
          "name": "role",
          "type": "bytes32"
        },
        {
          "internalType": "address",
          "name": "account",
          "type": "address"
        }
      ],
      "name": "renounceRole",
      "outputs": [],
      "stateMutability": "nonpayable",
      "type": "function"
    },
    {
      "inputs": [
        {
          "internalType": "bytes32",
          "name": "role",
          "type": "bytes32"
        },
        {
          "internalType": "address",
          "name": "account",
          "type": "address"
        }
      ],
      "name": "revokeRole",
      "outputs": [],
      "stateMutability": "nonpayable",
      "type": "function"
    },
    {
      "inputs": [
        {
          "internalType": "bytes4",
          "name": "interfaceId",
          "type": "bytes4"
        }
      ],
      "name": "supportsInterface",
      "outputs": [
        {
          "internalType": "bool",
          "name": "",
          "type": "bool"
        }
      ],
      "stateMutability": "view",
      "type": "function"
    },
    {
      "inputs": [
        {
          "internalType": "address",
          "name": "newManager",
          "type": "address"
        }
      ],
      "name": "switchManager",
      "outputs": [],
      "stateMutability": "nonpayable",
      "type": "function"
    },
    {
      "inputs": [
        {
          "internalType": "address",
          "name": "newOwner",
          "type": "address"
        }
      ],
      "name": "transferOwnership",
      "outputs": [],
      "stateMutability": "nonpayable",
      "type": "function"
    },
    {
      "inputs": [
        {
          "internalType": "address",
          "name": "newOwner",
          "type": "address"
        }
      ],
      "name": "updateOwnership",
      "outputs": [],
      "stateMutability": "nonpayable",
      "type": "function"
    },
    {
      "inputs": [],
      "name": "viewer_addr",
      "outputs": [
        {
          "internalType": "address",
          "name": "",
          "type": "address"
        }
      ],
      "stateMutability": "view",
      "type": "function"
    },
    {
      "inputs": [],
      "name": "getName",
      "outputs": [
        {
          "internalType": "string",
          "name": "",
          "type": "string"
        }
      ],
      "stateMutability": "view",
      "type": "function"
    },
    {
      "inputs": [],
      "name": "getId",
      "outputs": [
        {
          "internalType": "bytes32",
          "name": "",
          "type": "bytes32"
        }
      ],
      "stateMutability": "view",
      "type": "function"
    },
    {
      "inputs": [
        {
          "internalType": "bytes32",
          "name": "hname",
          "type": "bytes32"
        },
        {
          "internalType": "address",
          "name": "contractInstance",
          "type": "address"
        },
        {
          "internalType": "bool",
          "name": "isNew",
          "type": "bool"
        }
      ],
      "name": "onListenAdded",
      "outputs": [],
      "stateMutability": "nonpayable",
      "type": "function"
    },
    {
      "inputs": [
        {
          "internalType": "bytes32",
          "name": "hname",
          "type": "bytes32"
        }
      ],
      "name": "onListenRemoved",
      "outputs": [],
      "stateMutability": "nonpayable",
      "type": "function"
    },
    {
      "inputs": [
        {
          "internalType": "address",
          "name": "viewer",
          "type": "address"
        }
      ],
      "name": "linkViewer",
      "outputs": [],
      "stateMutability": "nonpayable",
      "type": "function"
    },
    {
      "inputs": [
        {
          "internalType": "address",
          "name": "nft_container",
          "type": "address"
        }
      ],
      "name": "linkNFT",
      "outputs": [],
      "stateMutability": "nonpayable",
      "type": "function"
    },
    {
      "inputs": [
        {
          "internalType": "address",
          "name": "dragon_stats",
          "type": "address"
        }
      ],
      "name": "linkStatsLib",
      "outputs": [],
      "stateMutability": "nonpayable",
      "type": "function"
    },
    {
      "inputs": [
        {
          "internalType": "address",
          "name": "user",
          "type": "address"
        }
      ],
      "name": "getInventorySize",
      "outputs": [
        {
          "internalType": "uint256",
          "name": "",
          "type": "uint256"
        }
      ],
      "stateMutability": "view",
      "type": "function"
    },
    {
      "inputs": [
        {
          "internalType": "address",
          "name": "user",
          "type": "address"
        },
        {
          "internalType": "uint256",
          "name": "startIndex",
          "type": "uint256"
        },
        {
          "internalType": "uint256",
          "name": "count",
          "type": "uint256"
        }
      ],
      "name": "getInventorySlots",
      "outputs": [
        {
          "internalType": "uint256[]",
          "name": "",
          "type": "uint256[]"
        }
      ],
      "stateMutability": "view",
      "type": "function"
    },
    {
      "inputs": [
        {
          "internalType": "uint256",
          "name": "id",
          "type": "uint256"
        }
      ],
      "name": "getView",
      "outputs": [
        {
          "components": [
            {
              "internalType": "address",
              "name": "owner",
              "type": "address"
            },
            {
              "internalType": "uint256",
              "name": "stacked",
              "type": "uint256"
            },
            {
              "internalType": "bytes32",
              "name": "nft_type",
              "type": "bytes32"
            },
            {
              "internalType": "bytes32",
              "name": "version",
              "type": "bytes32"
            },
            {
              "internalType": "uint256",
              "name": "rarity",
              "type": "uint256"
            },
            {
              "internalType": "uint256",
              "name": "health",
              "type": "uint256"
            },
            {
              "internalType": "enum Util.CardType",
              "name": "card_type",
              "type": "uint8"
            },
            {
              "internalType": "uint256",
              "name": "attack",
              "type": "uint256"
            },
            {
              "internalType": "uint256",
              "name": "defense",
              "type": "uint256"
            },
            {
              "internalType": "uint256",
              "name": "character",
              "type": "uint256"
            },
            {
              "internalType": "string",
              "name": "character_name",
              "type": "string"
            }
          ],
          "internalType": "struct DragonCardView.DragonStatsView",
          "name": "",
          "type": "tuple"
        }
      ],
      "stateMutability": "view",
      "type": "function"
    }
  ],
  "bytecode": "0x60c0604052600e60808190526d447261676f6e436172645669657760901b60a09081526200003191600491906200023e565b506040518060400160405280600e81526020016d447261676f6e436172645669657760901b8152506040516020016200006b9190620002e4565b604051602081830303815290604052805190602001206005553480156200009157600080fd5b506200009d33620000b0565b620000aa60003362000100565b6200035f565b600080546001600160a01b038381166001600160a01b0319831681178455604051919092169283917f8be0079c531659141344cd1fd0a4f28419497f9722a3daafe3b4186f6b6457e09190a35050565b6200011782826200014360201b620017aa1760201c565b60008281526002602090815260409091206200013e91839062001815620001cc821b17901c565b505050565b60008281526001602090815260408083206001600160a01b038516845290915290205460ff16620001c85760008281526001602081815260408084206001600160a01b0386168086529252808420805460ff19169093179092559051339285917f2f8788117e7eff1d82e926ec794901d17c78024a50270940304540a733656f0d9190a45b5050565b6000620001e3836001600160a01b038416620001ec565b90505b92915050565b60008181526001830160205260408120546200023557508154600181810184556000848152602080822090930184905584548482528286019093526040902091909155620001e6565b506000620001e6565b8280546200024c9062000322565b90600052602060002090601f016020900481019282620002705760008555620002bb565b82601f106200028b57805160ff1916838001178555620002bb565b82800160010185558215620002bb579182015b82811115620002bb5782518255916020019190600101906200029e565b50620002c9929150620002cd565b5090565b5b80821115620002c95760008155600101620002ce565b6000825160005b81811015620003075760208186018101518583015201620002eb565b8181111562000317576000828501525b509190910192915050565b600181811c908216806200033757607f821691505b602082108114156200035957634e487b7160e01b600052602260045260246000fd5b50919050565b6128fa806200036f6000396000f3fe608060405234801561001057600080fd5b506004361061021c5760003560e01c80638840891e11610125578063c69c9579116100ad578063d94796921161007c578063d9479692146104a0578063ec87621c146104a8578063ecc1d93b146104bd578063f2fde38b146104d0578063ffa1ad74146104e357600080fd5b8063c69c957914610454578063ca15c87314610467578063d4697a471461047a578063d547741f1461048d57600080fd5b806391d14854116100f457806391d14854146103f357806397ffa316146104065780639f2e5d5214610419578063a217fddf14610439578063aadd04881461044157600080fd5b80638840891e146103a957806388971bf5146103bc5780638da5cb5b146103cf5780639010d07c146103e057600080fd5b806336568abe116101a85780635d1ca631116101775780635d1ca631146103605780635df11291146103685780636b2bf27f1461037b578063715018a61461038e57806385f131101461039657600080fd5b806336568abe1461031e5780633ad32d1614610331578063481c6a751461033a57806350b978a81461034d57600080fd5b806317d7de7c116101ef57806317d7de7c1461029c5780631a6f04f3146102b1578063248a9ca3146102b95780632f2ff15d146102eb578063337bfccc146102fe57600080fd5b806301ffc9a7146102215780630447a2cd146102495780630b0c573c1461025e57806316f28d2414610289575b600080fd5b61023461022f366004612136565b61051d565b60405190151581526020015b60405180910390f35b61025c610257366004612175565b610548565b005b600854610271906001600160a01b031681565b6040516001600160a01b039091168152602001610240565b61025c6102973660046121bc565b610556565b6102a461067b565b604051610240919061225a565b61025c61070d565b6102dd6102c736600461226d565b6000908152600160208190526040909120015490565b604051908152602001610240565b61025c6102f9366004612286565b610717565b61031161030c36600461226d565b61073e565b60405161024091906122ec565b61025c61032c366004612286565b6111cf565b6102dd60055481565b600354610271906001600160a01b031681565b600754610271906001600160a01b031681565b6005546102dd565b61025c610376366004612396565b611249565b61025c610389366004612396565b611255565b61025c61125e565b6102dd6103a4366004612396565b611292565b61025c6103b7366004612396565b611310565b61025c6103ca366004612396565b611319565b6000546001600160a01b0316610271565b6102716103ee3660046123b3565b61134c565b610234610401366004612286565b61136b565b600654610271906001600160a01b031681565b61042c6104273660046123d5565b611396565b604051610240919061240a565b6102dd600081565b61025c61044f366004612396565b6114bd565b61025c610462366004612396565b6114f0565b6102dd61047536600461226d565b6114f9565b61025c61048836600461226d565b611510565b61025c61049b366004612286565b61162a565b6102a4611651565b6102dd6000805160206128a583398151915281565b61025c6104cb366004612396565b6116df565b61025c6104de366004612396565b611712565b6102dd6040516e447261676f6e436172642d76312e3160881b6020820152602f016040516020818303038152906040528051906020012081565b60006001600160e01b0319821663ee7ed59960e01b148061054257506105428261182a565b92915050565b610552828261184f565b5050565b61056e6000805160206128a58339815191523361136b565b6105935760405162461bcd60e51b815260040161058a9061244e565b60405180910390fd5b6040518060400160405280600981526020016853746174735669657760b81b8152506040516020016105c591906124ab565b604051602081830303815290604052805190602001208314156105f0576105eb826118e2565b505050565b7fc227f98e618597415dca1f5035d597d1e75936952bfd5d741271dd85ba110d90831415610621576105eb82611937565b6040518060400160405280600b81526020016a447261676f6e537461747360a81b81525060405160200161065591906124ab565b604051602081830303815290604052805190602001208314156105eb576105eb82611985565b60606004805461068a906124c7565b80601f01602080910402602001604051908101604052809291908181526020018280546106b6906124c7565b80156107035780601f106106d857610100808354040283529160200191610703565b820191906000526020600020905b8154815290600101906020018083116106e657829003601f168201915b5050505050905090565b6107156119d3565b565b600082815260016020819052604090912001546107348133611a42565b6105eb8383611aa6565b61079b6040805161016081018252600080825260208201819052918101829052606081018290526080810182905260a081018290529060c08201908152602001600081526020016000815260200160008152602001606081525090565b60075460405163c588ff8b60e01b8152600481018490526000916001600160a01b03169063c588ff8b9060240160206040518083038186803b1580156107e057600080fd5b505afa1580156107f4573d6000803e3d6000fd5b505050506040513d601f19601f820116820180604052508101906108189190612502565b90506000600860009054906101000a90046001600160a01b03166001600160a01b031663c7a6ffc96040518163ffffffff1660e01b815260040160006040518083038186803b15801561086a57600080fd5b505afa15801561087e573d6000803e3d6000fd5b505050506040513d6000823e601f3d908101601f191682016040526108a691908101906125e2565b600654600854604080516319cd4c3d60e01b815290519394506000936001600160a01b039384169363846235739388938b9391909216916319cd4c3d916004808301928a929190829003018186803b15801561090157600080fd5b505afa158015610915573d6000803e3d6000fd5b505050506040513d6000823e601f3d908101601f1916820160405261093d91908101906125e2565b6040518463ffffffff1660e01b815260040161095b93929190612617565b60006040518083038186803b15801561097357600080fd5b505afa158015610987573d6000803e3d6000fd5b505050506040513d6000823e601f3d908101601f191682016040526109af919081019061263f565b60800151156109c057506003610adc565b6006546008546040805163091a7f8b60e41b815290516001600160a01b039384169363846235739388938b9391909216916391a7f8b0916004808301926000929190829003018186803b158015610a1657600080fd5b505afa158015610a2a573d6000803e3d6000fd5b505050506040513d6000823e601f3d908101601f19168201604052610a5291908101906125e2565b6040518463ffffffff1660e01b8152600401610a7093929190612617565b60006040518083038186803b158015610a8857600080fd5b505afa158015610a9c573d6000803e3d6000fd5b505050506040513d6000823e601f3d908101601f19168201604052610ac4919081019061263f565b602001516004811115610ad957610ad96122ab565b90505b6006546008546040805163367eca3f60e21b815290516000936001600160a01b039081169363846235739389938c939092169163d9fb28fc916004808201928a92909190829003018186803b158015610b3457600080fd5b505afa158015610b48573d6000803e3d6000fd5b505050506040513d6000823e601f3d908101601f19168201604052610b7091908101906125e2565b6040518463ffffffff1660e01b8152600401610b8e93929190612617565b60006040518083038186803b158015610ba657600080fd5b505afa158015610bba573d6000803e3d6000fd5b505050506040513d6000823e601f3d908101601f19168201604052610be2919081019061263f565b602001516004811115610bf757610bf76122ab565b6008546040516357c3b5bd60e11b81529192506000916001600160a01b039091169063af876b7a90610c31908a90879087906004016126ee565b60206040518083038186803b158015610c4957600080fd5b505afa158015610c5d573d6000803e3d6000fd5b505050506040513d601f19601f82011682018060405250810190610c819190612502565b604080516101608101918290526007546331a9108f60e11b90925261016481018a905291925081906001600160a01b0316636352211e610184830160206040518083038186803b158015610cd457600080fd5b505afa158015610ce8573d6000803e3d6000fd5b505050506040513d601f19601f82011682018060405250810190610d0c919061271b565b6001600160a01b03908116825260075460405163bd85b03960e01b8152600481018c905260209093019291169063bd85b0399060240160206040518083038186803b158015610d5a57600080fd5b505afa158015610d6e573d6000803e3d6000fd5b505050506040513d601f19601f82011682018060405250810190610d929190612502565b8152602001868152602001604051602001610dc2906e447261676f6e436172642d76312e3160881b8152600f0190565b604051602081830303815290604052805190602001208152602001846004811115610def57610def6122ab565b815260065460085460408051630fa97af960e41b815290516020909401936001600160a01b03938416936384623573938c938f93919092169163fa97af90916004808301926000929190829003018186803b158015610e4d57600080fd5b505afa158015610e61573d6000803e3d6000fd5b505050506040513d6000823e601f3d908101601f19168201604052610e8991908101906125e2565b6040518463ffffffff1660e01b8152600401610ea793929190612617565b60006040518083038186803b158015610ebf57600080fd5b505afa158015610ed3573d6000803e3d6000fd5b505050506040513d6000823e601f3d908101601f19168201604052610efb919081019061263f565b602001518152602001836004811115610f1657610f166122ab565b81526006546008546040805163b51e6dc760e01b815290516020909401936001600160a01b03938416936384623573938c938f93919092169163b51e6dc7916004808301926000929190829003018186803b158015610f7457600080fd5b505afa158015610f88573d6000803e3d6000fd5b505050506040513d6000823e601f3d908101601f19168201604052610fb091908101906125e2565b6040518463ffffffff1660e01b8152600401610fce93929190612617565b60006040518083038186803b158015610fe657600080fd5b505afa158015610ffa573d6000803e3d6000fd5b505050506040513d6000823e601f3d908101601f19168201604052611022919081019061263f565b60209081015182526006546008546040805163c7a6ffc960e01b8152905194909301936001600160a01b03928316936384623573938c938f9391169163c7a6ffc9916004808301926000929190829003018186803b15801561108357600080fd5b505afa158015611097573d6000803e3d6000fd5b505050506040513d6000823e601f3d908101601f191682016040526110bf91908101906125e2565b6040518463ffffffff1660e01b81526004016110dd93929190612617565b60006040518083038186803b1580156110f557600080fd5b505afa158015611109573d6000803e3d6000fd5b505050506040513d6000823e601f3d908101601f19168201604052611131919081019061263f565b6020908101518252810183905260085460408051631329cc0360e21b8152600481018690529201916001600160a01b0390911690634ca7300c9060240160006040518083038186803b15801561118657600080fd5b505afa15801561119a573d6000803e3d6000fd5b505050506040513d6000823e601f3d908101601f191682016040526111c291908101906125e2565b9052979650505050505050565b6001600160a01b038116331461123f5760405162461bcd60e51b815260206004820152602f60248201527f416363657373436f6e74726f6c3a2063616e206f6e6c792072656e6f756e636560448201526e103937b632b9903337b91039b2b63360891b606482015260840161058a565b6105528282611ac8565b61125281611aea565b50565b61125281611ba2565b6000546001600160a01b031633146112885760405162461bcd60e51b815260040161058a90612738565b6107156000611c18565b6007546040516370a0823160e01b81526001600160a01b03838116600483015260009216906370a082319060240160206040518083038186803b1580156112d857600080fd5b505afa1580156112ec573d6000803e3d6000fd5b505050506040513d601f19601f820116820180604052508101906105429190612502565b61125281611c68565b6000546001600160a01b031633146113435760405162461bcd60e51b815260040161058a90612738565b61125281611985565b60008281526002602052604081206113649083611cea565b9392505050565b60009182526001602090815260408084206001600160a01b0393909316845291905290205460ff1690565b606060008267ffffffffffffffff8111156113b3576113b361251b565b6040519080825280602002602001820160405280156113dc578160200160208202803683370190505b5090506000845b6113ed8587612783565b8110156114b257600754604051632f745c5960e01b81526001600160a01b0389811660048301526024820184905290911690632f745c599060440160206040518083038186803b15801561144057600080fd5b505afa158015611454573d6000803e3d6000fd5b505050506040513d601f19601f820116820180604052508101906114789190612502565b83836114838161279b565b945081518110611495576114956127b6565b6020908102919091010152806114aa8161279b565b9150506113e3565b509095945050505050565b6000546001600160a01b031633146114e75760405162461bcd60e51b815260040161058a90612738565b61125281611937565b61125281611cf6565b600081815260026020526040812061054290611d73565b6115286000805160206128a58339815191523361136b565b6115445760405162461bcd60e51b815260040161058a9061244e565b6040518060400160405280600981526020016853746174735669657760b81b81525060405160200161157691906124ab565b6040516020818303038152906040528051906020012081141561159d5761125260006118e2565b7fc227f98e618597415dca1f5035d597d1e75936952bfd5d741271dd85ba110d908114156115cf576112526000611937565b6040518060400160405280600b81526020016a447261676f6e537461747360a81b81525060405160200161160391906124ab565b60405160208183030381529060405280519060200120811415611252576112526000611985565b600082815260016020819052604090912001546116478133611a42565b6105eb8383611ac8565b6004805461165e906124c7565b80601f016020809104026020016040519081016040528092919081815260200182805461168a906124c7565b80156116d75780601f106116ac576101008083540402835291602001916116d7565b820191906000526020600020905b8154815290600101906020018083116116ba57829003601f168201915b505050505081565b6000546001600160a01b031633146117095760405162461bcd60e51b815260040161058a90612738565b611252816118e2565b6000546001600160a01b0316331461173c5760405162461bcd60e51b815260040161058a90612738565b6001600160a01b0381166117a15760405162461bcd60e51b815260206004820152602660248201527f4f776e61626c653a206e6577206f776e657220697320746865207a65726f206160448201526564647265737360d01b606482015260840161058a565b61125281611c18565b6117b4828261136b565b6105525760008281526001602081815260408084206001600160a01b0386168086529252808420805460ff19169093179092559051339285917f2f8788117e7eff1d82e926ec794901d17c78024a50270940304540a733656f0d9190a45050565b6000611364836001600160a01b038416611d7d565b60006001600160e01b03198216635a05180f60e01b1480610542575061054282611dcc565b6118676000805160206128a58339815191523361136b565b6118835760405162461bcd60e51b815260040161058a9061244e565b600380546001600160a01b0319166001600160a01b0383811691821790925560408051928516835260208301919091527ff6515f2a6d531f16723c1e578303b7d74152bf8c0fa3bee828700a3d4706da8d910160405180910390a15050565b600680546001600160a01b0319166001600160a01b0383169081179091556040519081527f6a18b90af8b2ae0add67d0ae89a6972d279fd5888cd58c820f581fa70f2d54bd906020015b60405180910390a150565b600780546001600160a01b0319166001600160a01b0383169081179091556040519081527f7869e3c19f5ec29481a8433791a06441db7b22cd85336da47df97fd7b686ba2a9060200161192c565b600880546001600160a01b0319166001600160a01b0383169081179091556040519081527f8eabd18158736228e0bcd01444e967ae9262cdb0e8a88fb154542a13f701bf7b9060200161192c565b6119eb6000805160206128a58339815191523361136b565b611a075760405162461bcd60e51b815260040161058a9061244e565b600380546001600160a01b03191690556040517f9a9a74cf290a994f69a718e8557deb1dd65135268f40e660cecddf675f5dd51490600090a1565b611a4c828261136b565b61055257611a64816001600160a01b03166014611e01565b611a6f836020611e01565b604051602001611a809291906127cc565b60408051601f198184030181529082905262461bcd60e51b825261058a9160040161225a565b611ab082826117aa565b60008281526002602052604090206105eb9082611815565b611ad28282611f9d565b60008281526002602052604090206105eb9082612004565b611b026000805160206128a58339815191523361136b565b611b1e5760405162461bcd60e51b815260040161058a9061244e565b600380546001600160a01b0319166001600160a01b038316179055611b516000805160206128a583398151915282610717565b611b696000805160206128a58339815191523361162a565b6040516001600160a01b03821681527f8eb47098f9568be754f51d21a870c8091ee0242cf97418db00927326d0e6ffcf9060200161192c565b611bba6000805160206128a58339815191523361136b565b611bd65760405162461bcd60e51b815260040161058a9061244e565b611bdf81611712565b6040516001600160a01b03821681527ff2addf7f813887cf0fdd82b58fcc379ab2301e95c90b41a8cf2e5401914689c99060200161192c565b600080546001600160a01b038381166001600160a01b0319831681178455604051919092169283917f8be0079c531659141344cd1fd0a4f28419497f9722a3daafe3b4186f6b6457e09190a35050565b611c806000805160206128a58339815191523361136b565b611c9c5760405162461bcd60e51b815260040161058a9061244e565b600380546001600160a01b0319166001600160a01b0383169081179091556040519081527f89c66952b48f3e96bf1d8ba1b63189520fd988a6979b8b740bd5c5d8dc53e2059060200161192c565b60006113648383612019565b611d0e6000805160206128a58339815191523361136b565b611d2a5760405162461bcd60e51b815260040161058a9061244e565b600380546001600160a01b03191690556040516001600160a01b03821681527f85a56ff958486f55dd742819603a46ba6233d3b24e6715f9cd5fd2ef6425d6809060200161192c565b6000610542825490565b6000818152600183016020526040812054611dc457508154600181810184556000848152602080822090930184905584548482528286019093526040902091909155610542565b506000610542565b60006001600160e01b03198216637965db0b60e01b148061054257506301ffc9a760e01b6001600160e01b0319831614610542565b60606000611e10836002612841565b611e1b906002612783565b67ffffffffffffffff811115611e3357611e3361251b565b6040519080825280601f01601f191660200182016040528015611e5d576020820181803683370190505b509050600360fc1b81600081518110611e7857611e786127b6565b60200101906001600160f81b031916908160001a905350600f60fb1b81600181518110611ea757611ea76127b6565b60200101906001600160f81b031916908160001a9053506000611ecb846002612841565b611ed6906001612783565b90505b6001811115611f4e576f181899199a1a9b1b9c1cb0b131b232b360811b85600f1660108110611f0a57611f0a6127b6565b1a60f81b828281518110611f2057611f206127b6565b60200101906001600160f81b031916908160001a90535060049490941c93611f4781612860565b9050611ed9565b5083156113645760405162461bcd60e51b815260206004820181905260248201527f537472696e67733a20686578206c656e67746820696e73756666696369656e74604482015260640161058a565b611fa7828261136b565b156105525760008281526001602090815260408083206001600160a01b0385168085529252808320805460ff1916905551339285917ff6391f5c32d9c69d2a47ea670b442974b53935d1edc7fd64eb21e047a839171b9190a45050565b6000611364836001600160a01b038416612043565b6000826000018281548110612030576120306127b6565b9060005260206000200154905092915050565b6000818152600183016020526040812054801561212c576000612067600183612877565b855490915060009061207b90600190612877565b90508181146120e057600086600001828154811061209b5761209b6127b6565b90600052602060002001549050808760000184815481106120be576120be6127b6565b6000918252602080832090910192909255918252600188019052604090208390555b85548690806120f1576120f161288e565b600190038181906000526020600020016000905590558560010160008681526020019081526020016000206000905560019350505050610542565b6000915050610542565b60006020828403121561214857600080fd5b81356001600160e01b03198116811461136457600080fd5b6001600160a01b038116811461125257600080fd5b6000806040838503121561218857600080fd5b823561219381612160565b915060208301356121a381612160565b809150509250929050565b801515811461125257600080fd5b6000806000606084860312156121d157600080fd5b8335925060208401356121e381612160565b915060408401356121f3816121ae565b809150509250925092565b60005b83811015612219578181015183820152602001612201565b83811115612228576000848401525b50505050565b600081518084526122468160208601602086016121fe565b601f01601f19169290920160200192915050565b602081526000611364602083018461222e565b60006020828403121561227f57600080fd5b5035919050565b6000806040838503121561229957600080fd5b8235915060208301356121a381612160565b634e487b7160e01b600052602160045260246000fd5b6005811061125257634e487b7160e01b600052602160045260246000fd5b6122e8816122c1565b9052565b602081526123066020820183516001600160a01b03169052565b602082015160408201526040820151606082015260608201516080820152608082015160a082015260a082015160c0820152600060c083015161234c60e08401826122df565b5060e08301516101008381019190915283015161012080840191909152830151610140808401919091528301516101608084015261238e61018084018261222e565b949350505050565b6000602082840312156123a857600080fd5b813561136481612160565b600080604083850312156123c657600080fd5b50508035926020909101359150565b6000806000606084860312156123ea57600080fd5b83356123f581612160565b95602085013595506040909401359392505050565b6020808252825182820181905260009190848201906040850190845b8181101561244257835183529284019291840191600101612426565b50909695505050505050565b6020808252603b908201527f43726f7373436f6e74726163744d616e4c697374656e65723a2074686520636160408201527f6c6c6572206d7573742068617665204d414e414745525f524f4c450000000000606082015260800190565b600082516124bd8184602087016121fe565b9190910192915050565b600181811c908216806124db57607f821691505b602082108114156124fc57634e487b7160e01b600052602260045260246000fd5b50919050565b60006020828403121561251457600080fd5b5051919050565b634e487b7160e01b600052604160045260246000fd5b60405160a0810167ffffffffffffffff811182821017156125545761255461251b565b60405290565b600082601f83011261256b57600080fd5b815167ffffffffffffffff808211156125865761258661251b565b604051601f8301601f19908116603f011681019082821181831017156125ae576125ae61251b565b816040528381528660208588010111156125c757600080fd5b6125d88460208301602089016121fe565b9695505050505050565b6000602082840312156125f457600080fd5b815167ffffffffffffffff81111561260b57600080fd5b61238e8482850161255a565b838152826020820152606060408201526000612636606083018461222e565b95945050505050565b60006020828403121561265157600080fd5b815167ffffffffffffffff8082111561266957600080fd5b9083019060a0828603121561267d57600080fd5b612685612531565b82516004811061269457600080fd5b8152602083810151908201526040830151828111156126b257600080fd5b6126be8782860161255a565b60408301525060608301516060820152608083015192506126de836121ae565b6080810192909252509392505050565b838152606081016126fe846122c1565b83602083015261270d836122c1565b826040830152949350505050565b60006020828403121561272d57600080fd5b815161136481612160565b6020808252818101527f4f776e61626c653a2063616c6c6572206973206e6f7420746865206f776e6572604082015260600190565b634e487b7160e01b600052601160045260246000fd5b600082198211156127965761279661276d565b500190565b60006000198214156127af576127af61276d565b5060010190565b634e487b7160e01b600052603260045260246000fd5b7f416363657373436f6e74726f6c3a206163636f756e74200000000000000000008152600083516128048160178501602088016121fe565b7001034b99036b4b9b9b4b733903937b6329607d1b60179184019182015283516128358160288401602088016121fe565b01602801949350505050565b600081600019048311821515161561285b5761285b61276d565b500290565b60008161286f5761286f61276d565b506000190190565b6000828210156128895761288961276d565b500390565b634e487b7160e01b600052603160045260246000fdfe241ecf16d79d0f8dbfb92cbc07fe17840425976cf0667f022fe9877caa831b08a26469706673582212209beefc083d32b25428215792b7d86997f0b6230dc5ee965eec7b9fb23d950b9364736f6c63430008090033",
  "immutableReferences": {},
  "source": "// SPDX-License-Identifier: MIT\npragma solidity ^0.8;\n\nimport \"@openzeppelin/contracts/access/Ownable.sol\";\nimport \"./FireZardNFT.sol\";\nimport \"./StatsView.sol\";\nimport \"./DragonStats.sol\";\nimport \"./CrossContractManListener.sol\";\nimport {Util} from \"./Util.sol\";\n\ncontract DragonCardView is CrossContractManListener{\n    string  public contract_name = Util.DRAGON_CARD_VIEW_CONTRACT_NAME;\n    bytes32 public contract_id = Util.DRAGON_CARD_VIEW_CONTRACT_ID;\n\n    address public\tviewer_addr;\n    address public\tNFT_addr;\n    address public\tdragon_stats_addr;\n\n    bytes32 public constant VERSION=keccak256(abi.encodePacked('DragonCard-v1.1'));\n\n    struct DragonStatsView{\n\taddress owner;\n\tuint256 stacked;\n\n\tbytes32 nft_type;\n\tbytes32 version;\n\n\tuint256 rarity;\n\tuint256 health;\n\tUtil.CardType card_type;\n\tuint256 attack;\n\tuint256 defense;\n\tuint256 character;\n\tstring  character_name;\n    }\n\n/*    constructor(address viewer, address nft_container, address dragon_stats){\n\tviewer_addr = viewer;\n\tNFT_addr = nft_container;\n\tdragon_stats_addr = dragon_stats;\n    }*/\n\n    function getName() view external returns(string memory) {\n\treturn contract_name;\n    }\n\n    function getId() view external returns(bytes32) {\n\treturn contract_id;\n    }\n\n    function onListenAdded(bytes32 hname, address contractInstance, bool isNew) external onlyManager {\n\tif(hname == Util.STATS_VIEW_CONTRACT_ID){\n\t    _linkViewer(contractInstance);\n\t    return;\n\t}\n\tif(hname == Util.NFT_CONTRACT_ID){\n\t    _linkNFT(contractInstance);\n\t    return;\n\t}\n\tif(hname == Util.DRAGON_STATS_CONTRACT_ID){\n\t    _linkStatsLib(contractInstance);\n\t    return;\n\t}\n    }\n\n    function onListenRemoved(bytes32 hname) external onlyManager {\n\tif(hname == Util.STATS_VIEW_CONTRACT_ID){\n\t    _linkViewer(address(0));\n\t    return;\n\t}\n\tif(hname == Util.NFT_CONTRACT_ID){\n\t    _linkNFT(address(0));\n\t    return;\n\t}\n\tif(hname == Util.DRAGON_STATS_CONTRACT_ID){\n\t    _linkStatsLib(address(0));\n\t    return;\n\t}\n    }\n\n    function _linkViewer(address viewer) internal {\n        viewer_addr = viewer;\n        emit ViewLink(viewer);\n    }\n\n    function _linkNFT(address nft_container) internal {\n        NFT_addr = nft_container;\n        emit NFTLink(nft_container);\n    }\n\n    function _linkStatsLib(address dragon_stats) internal {\n        dragon_stats_addr = dragon_stats;\n        emit StatsLibLink(dragon_stats);\n    }\n\n\n    /**\n     * @notice Sets link to Tag Storage smart contract\n    **/\n    function linkViewer(address viewer) public virtual onlyOwner {\n\t_linkViewer(viewer);\n    }\n\n    /**\n     * @notice Sets link to ERC1155 NFT smart contract\n    **/\n    function linkNFT(address nft_container) public virtual onlyOwner {\n\t_linkNFT(nft_container);\n    }\n\n    /**\n     * @notice Sets link to the Stats deriving library\n    **/\n    function linkStatsLib(address dragon_stats) public virtual onlyOwner {\n\t_linkStatsLib(dragon_stats);\n    }\n\n    function getInventorySize(address user) public view returns(uint256){\n\treturn FireZardNFT(NFT_addr).balanceOf(user);\n    }\n\n    function getInventorySlots(address user, uint256 startIndex, uint256 count) public view returns(uint256[] memory){\n\tuint256[] memory slots = new uint256[](count);\n\tuint j=0;\n\tfor(uint i=startIndex;i<startIndex+count;i++)\n\t    slots[j++]=FireZardNFT(NFT_addr).tokenOfOwnerByIndex(user,i);\n\treturn slots;\n    }\n\n    function getView(uint256 id) public view returns (DragonStatsView memory) {\n\tbytes32 nft_type = FireZardNFT(NFT_addr).typeOf(id);\n//\tstring memory\trarity\t\t= DragonStats(dragon_stats_addr).RARITY_STR();\n//\tstring memory\trarity_override = DragonStats(dragon_stats_addr).RARITY_OVERRIDE_STR();\n//\tstring memory\thealth  = DragonStats(dragon_stats_addr).HEALTH_STR();\n//\tstring memory\ttype_s  = DragonStats(dragon_stats_addr).TYPE_STR();\n//\tstring memory\tattack  = DragonStats(dragon_stats_addr).ATTACK_STR();\n\tstring memory\tdefense = DragonStats(dragon_stats_addr).DEFENSE_STR();\n\tUtil.CardRarity rarity_val;\n\tif(StatsView(viewer_addr).getStat(nft_type, id, DragonStats(dragon_stats_addr).RARITY_OVERRIDE_STR()).bool_val)\n\t    rarity_val = Util.CardRarity.Uncommon;\n\telse\n\t    rarity_val = Util.CardRarity(StatsView(viewer_addr).getStat(nft_type, id, DragonStats(dragon_stats_addr).RARITY_STR()).int_val);\n\tUtil.CardType card_type = Util.CardType(StatsView(viewer_addr).getStat(nft_type, id, DragonStats(dragon_stats_addr).TYPE_STR()).int_val);\n\tuint256 character = DragonStats(dragon_stats_addr).deriveCharacter(id, rarity_val, card_type);\n//\tstring memory character_name = DragonStats(dragon_stats_addr).deriveCharacterName(character);\n\treturn DragonStatsView(\n\t    FireZardNFT(NFT_addr).ownerOf(id),\n\t    FireZardNFT(NFT_addr).totalSupply(id),\n\t    nft_type,\n\t    VERSION,\n\t    uint256(rarity_val),\n\t    StatsView(viewer_addr).getStat(nft_type, id, DragonStats(dragon_stats_addr).HEALTH_STR()).int_val,\n\t    card_type,\n\t    StatsView(viewer_addr).getStat(nft_type, id, DragonStats(dragon_stats_addr).ATTACK_STR()).int_val,\n\t    StatsView(viewer_addr).getStat(nft_type, id, DragonStats(dragon_stats_addr).DEFENSE_STR()).int_val,\n\t    character,\n\t    DragonStats(dragon_stats_addr).deriveCharacterName(character)\n\t);\n    }\n\n    event\tViewLink(address tag_addr);\n    event\tNFTLink(address nft_addr);\n    event\tStatsLibLink(address dragon_stats);\n}\n",
  "sourcePath": "/home/vrogojin/Projects/FireZard/nft/contracts/DragonCardView.sol",
  "compiler": {
    "name": "solc",
    "version": "0.8.9+commit.e5eed63a.Emscripten.clang"
  },
  "schemaVersion": "3.4.3",
  "updatedAt": "2022-02-09T20:17:10.820Z",
  "devdoc": {
    "kind": "dev",
    "methods": {
      "getRoleAdmin(bytes32)": {
        "details": "Returns the admin role that controls `role`. See {grantRole} and {revokeRole}. To change a role's admin, use {_setRoleAdmin}."
      },
      "getRoleMember(bytes32,uint256)": {
        "details": "Returns one of the accounts that have `role`. `index` must be a value between 0 and {getRoleMemberCount}, non-inclusive. Role bearers are not sorted in any particular way, and their ordering may change at any point. WARNING: When using {getRoleMember} and {getRoleMemberCount}, make sure you perform all queries on the same block. See the following https://forum.openzeppelin.com/t/iterating-over-elements-on-enumerableset-in-openzeppelin-contracts/2296[forum post] for more information."
      },
      "getRoleMemberCount(bytes32)": {
        "details": "Returns the number of accounts that have `role`. Can be used together with {getRoleMember} to enumerate all bearers of a role."
      },
      "grantRole(bytes32,address)": {
        "details": "Grants `role` to `account`. If `account` had not been already granted `role`, emits a {RoleGranted} event. Requirements: - the caller must have ``role``'s admin role."
      },
      "hasRole(bytes32,address)": {
        "details": "Returns `true` if `account` has been granted `role`."
      },
      "owner()": {
        "details": "Returns the address of the current owner."
      },
      "renounceOwnership()": {
        "details": "Leaves the contract without owner. It will not be possible to call `onlyOwner` functions anymore. Can only be called by the current owner. NOTE: Renouncing ownership will leave the contract without an owner, thereby removing any functionality that is only available to the owner."
      },
      "renounceRole(bytes32,address)": {
        "details": "Revokes `role` from the calling account. Roles are often managed via {grantRole} and {revokeRole}: this function's purpose is to provide a mechanism for accounts to lose their privileges if they are compromised (such as when a trusted device is misplaced). If the calling account had been revoked `role`, emits a {RoleRevoked} event. Requirements: - the caller must be `account`."
      },
      "revokeRole(bytes32,address)": {
        "details": "Revokes `role` from `account`. If `account` had been granted `role`, emits a {RoleRevoked} event. Requirements: - the caller must have ``role``'s admin role."
      },
      "supportsInterface(bytes4)": {
        "details": "See {IERC165-supportsInterface}."
      },
      "transferOwnership(address)": {
        "details": "Transfers ownership of the contract to a new account (`newOwner`). Can only be called by the current owner."
      }
    },
    "version": 1
  },
  "userdoc": {
    "kind": "user",
    "methods": {
      "linkNFT(address)": {
        "notice": "Sets link to ERC1155 NFT smart contract*"
      },
      "linkStatsLib(address)": {
        "notice": "Sets link to the Stats deriving library*"
      },
      "linkViewer(address)": {
        "notice": "Sets link to Tag Storage smart contract*"
      }
    },
    "version": 1
  }
}