{
  "contractName": "DragonCardView",
  "abi": [
    {
      "anonymous": false,
      "inputs": [
        {
          "indexed": false,
          "internalType": "address",
          "name": "_manager",
          "type": "address"
        }
      ],
      "name": "ContractAdded",
      "type": "event"
    },
    {
      "anonymous": false,
      "inputs": [
        {
          "indexed": false,
          "internalType": "address",
          "name": "newManager",
          "type": "address"
        }
      ],
      "name": "ContractManagerSwitch",
      "type": "event"
    },
    {
      "anonymous": false,
      "inputs": [
        {
          "indexed": false,
          "internalType": "address",
          "name": "newOwner",
          "type": "address"
        }
      ],
      "name": "ContractOwnershipUpdate",
      "type": "event"
    },
    {
      "anonymous": false,
      "inputs": [],
      "name": "ContractRemoved",
      "type": "event"
    },
    {
      "anonymous": false,
      "inputs": [
        {
          "indexed": false,
          "internalType": "address",
          "name": "contractInstance",
          "type": "address"
        }
      ],
      "name": "ContractReplaced",
      "type": "event"
    },
    {
      "anonymous": false,
      "inputs": [
        {
          "indexed": false,
          "internalType": "address",
          "name": "oldInstance",
          "type": "address"
        },
        {
          "indexed": false,
          "internalType": "address",
          "name": "_manager",
          "type": "address"
        }
      ],
      "name": "ContractUpdated",
      "type": "event"
    },
    {
      "anonymous": false,
      "inputs": [
        {
          "indexed": false,
          "internalType": "address",
          "name": "nft_addr",
          "type": "address"
        }
      ],
      "name": "NFTLink",
      "type": "event"
    },
    {
      "anonymous": false,
      "inputs": [
        {
          "indexed": true,
          "internalType": "address",
          "name": "previousOwner",
          "type": "address"
        },
        {
          "indexed": true,
          "internalType": "address",
          "name": "newOwner",
          "type": "address"
        }
      ],
      "name": "OwnershipTransferred",
      "type": "event"
    },
    {
      "anonymous": false,
      "inputs": [
        {
          "indexed": true,
          "internalType": "bytes32",
          "name": "role",
          "type": "bytes32"
        },
        {
          "indexed": true,
          "internalType": "bytes32",
          "name": "previousAdminRole",
          "type": "bytes32"
        },
        {
          "indexed": true,
          "internalType": "bytes32",
          "name": "newAdminRole",
          "type": "bytes32"
        }
      ],
      "name": "RoleAdminChanged",
      "type": "event"
    },
    {
      "anonymous": false,
      "inputs": [
        {
          "indexed": true,
          "internalType": "bytes32",
          "name": "role",
          "type": "bytes32"
        },
        {
          "indexed": true,
          "internalType": "address",
          "name": "account",
          "type": "address"
        },
        {
          "indexed": true,
          "internalType": "address",
          "name": "sender",
          "type": "address"
        }
      ],
      "name": "RoleGranted",
      "type": "event"
    },
    {
      "anonymous": false,
      "inputs": [
        {
          "indexed": true,
          "internalType": "bytes32",
          "name": "role",
          "type": "bytes32"
        },
        {
          "indexed": true,
          "internalType": "address",
          "name": "account",
          "type": "address"
        },
        {
          "indexed": true,
          "internalType": "address",
          "name": "sender",
          "type": "address"
        }
      ],
      "name": "RoleRevoked",
      "type": "event"
    },
    {
      "anonymous": false,
      "inputs": [
        {
          "indexed": false,
          "internalType": "address",
          "name": "dragon_stats",
          "type": "address"
        }
      ],
      "name": "StatsLibLink",
      "type": "event"
    },
    {
      "anonymous": false,
      "inputs": [
        {
          "indexed": false,
          "internalType": "address",
          "name": "tag_addr",
          "type": "address"
        }
      ],
      "name": "ViewLink",
      "type": "event"
    },
    {
      "inputs": [],
      "name": "DEFAULT_ADMIN_ROLE",
      "outputs": [
        {
          "internalType": "bytes32",
          "name": "",
          "type": "bytes32"
        }
      ],
      "stateMutability": "view",
      "type": "function"
    },
    {
      "inputs": [],
      "name": "MANAGER_ROLE",
      "outputs": [
        {
          "internalType": "bytes32",
          "name": "",
          "type": "bytes32"
        }
      ],
      "stateMutability": "view",
      "type": "function"
    },
    {
      "inputs": [],
      "name": "NFT_addr",
      "outputs": [
        {
          "internalType": "address",
          "name": "",
          "type": "address"
        }
      ],
      "stateMutability": "view",
      "type": "function"
    },
    {
      "inputs": [],
      "name": "VERSION",
      "outputs": [
        {
          "internalType": "bytes32",
          "name": "",
          "type": "bytes32"
        }
      ],
      "stateMutability": "view",
      "type": "function"
    },
    {
      "inputs": [],
      "name": "contract_id",
      "outputs": [
        {
          "internalType": "bytes32",
          "name": "",
          "type": "bytes32"
        }
      ],
      "stateMutability": "view",
      "type": "function"
    },
    {
      "inputs": [],
      "name": "contract_name",
      "outputs": [
        {
          "internalType": "string",
          "name": "",
          "type": "string"
        }
      ],
      "stateMutability": "view",
      "type": "function"
    },
    {
      "inputs": [],
      "name": "dragon_stats_addr",
      "outputs": [
        {
          "internalType": "address",
          "name": "",
          "type": "address"
        }
      ],
      "stateMutability": "view",
      "type": "function"
    },
    {
      "inputs": [
        {
          "internalType": "bytes32",
          "name": "role",
          "type": "bytes32"
        }
      ],
      "name": "getRoleAdmin",
      "outputs": [
        {
          "internalType": "bytes32",
          "name": "",
          "type": "bytes32"
        }
      ],
      "stateMutability": "view",
      "type": "function"
    },
    {
      "inputs": [
        {
          "internalType": "bytes32",
          "name": "role",
          "type": "bytes32"
        },
        {
          "internalType": "uint256",
          "name": "index",
          "type": "uint256"
        }
      ],
      "name": "getRoleMember",
      "outputs": [
        {
          "internalType": "address",
          "name": "",
          "type": "address"
        }
      ],
      "stateMutability": "view",
      "type": "function"
    },
    {
      "inputs": [
        {
          "internalType": "bytes32",
          "name": "role",
          "type": "bytes32"
        }
      ],
      "name": "getRoleMemberCount",
      "outputs": [
        {
          "internalType": "uint256",
          "name": "",
          "type": "uint256"
        }
      ],
      "stateMutability": "view",
      "type": "function"
    },
    {
      "inputs": [
        {
          "internalType": "bytes32",
          "name": "role",
          "type": "bytes32"
        },
        {
          "internalType": "address",
          "name": "account",
          "type": "address"
        }
      ],
      "name": "grantRole",
      "outputs": [],
      "stateMutability": "nonpayable",
      "type": "function"
    },
    {
      "inputs": [
        {
          "internalType": "bytes32",
          "name": "role",
          "type": "bytes32"
        },
        {
          "internalType": "address",
          "name": "account",
          "type": "address"
        }
      ],
      "name": "hasRole",
      "outputs": [
        {
          "internalType": "bool",
          "name": "",
          "type": "bool"
        }
      ],
      "stateMutability": "view",
      "type": "function"
    },
    {
      "inputs": [],
      "name": "manager",
      "outputs": [
        {
          "internalType": "address",
          "name": "",
          "type": "address"
        }
      ],
      "stateMutability": "view",
      "type": "function"
    },
    {
      "inputs": [
        {
          "internalType": "address",
          "name": "_manager",
          "type": "address"
        }
      ],
      "name": "onAdd",
      "outputs": [],
      "stateMutability": "nonpayable",
      "type": "function"
    },
    {
      "inputs": [],
      "name": "onRemoved",
      "outputs": [],
      "stateMutability": "nonpayable",
      "type": "function"
    },
    {
      "inputs": [
        {
          "internalType": "address",
          "name": "newInstance",
          "type": "address"
        }
      ],
      "name": "onReplaced",
      "outputs": [],
      "stateMutability": "nonpayable",
      "type": "function"
    },
    {
      "inputs": [
        {
          "internalType": "address",
          "name": "oldInstance",
          "type": "address"
        },
        {
          "internalType": "address",
          "name": "_manager",
          "type": "address"
        }
      ],
      "name": "onUpdate",
      "outputs": [],
      "stateMutability": "nonpayable",
      "type": "function"
    },
    {
      "inputs": [],
      "name": "owner",
      "outputs": [
        {
          "internalType": "address",
          "name": "",
          "type": "address"
        }
      ],
      "stateMutability": "view",
      "type": "function"
    },
    {
      "inputs": [],
      "name": "renounceOwnership",
      "outputs": [],
      "stateMutability": "nonpayable",
      "type": "function"
    },
    {
      "inputs": [
        {
          "internalType": "bytes32",
          "name": "role",
          "type": "bytes32"
        },
        {
          "internalType": "address",
          "name": "account",
          "type": "address"
        }
      ],
      "name": "renounceRole",
      "outputs": [],
      "stateMutability": "nonpayable",
      "type": "function"
    },
    {
      "inputs": [
        {
          "internalType": "bytes32",
          "name": "role",
          "type": "bytes32"
        },
        {
          "internalType": "address",
          "name": "account",
          "type": "address"
        }
      ],
      "name": "revokeRole",
      "outputs": [],
      "stateMutability": "nonpayable",
      "type": "function"
    },
    {
      "inputs": [
        {
          "internalType": "bytes4",
          "name": "interfaceId",
          "type": "bytes4"
        }
      ],
      "name": "supportsInterface",
      "outputs": [
        {
          "internalType": "bool",
          "name": "",
          "type": "bool"
        }
      ],
      "stateMutability": "view",
      "type": "function"
    },
    {
      "inputs": [
        {
          "internalType": "address",
          "name": "newManager",
          "type": "address"
        }
      ],
      "name": "switchManager",
      "outputs": [],
      "stateMutability": "nonpayable",
      "type": "function"
    },
    {
      "inputs": [
        {
          "internalType": "address",
          "name": "newOwner",
          "type": "address"
        }
      ],
      "name": "transferOwnership",
      "outputs": [],
      "stateMutability": "nonpayable",
      "type": "function"
    },
    {
      "inputs": [
        {
          "internalType": "address",
          "name": "newOwner",
          "type": "address"
        }
      ],
      "name": "updateOwnership",
      "outputs": [],
      "stateMutability": "nonpayable",
      "type": "function"
    },
    {
      "inputs": [],
      "name": "viewer_addr",
      "outputs": [
        {
          "internalType": "address",
          "name": "",
          "type": "address"
        }
      ],
      "stateMutability": "view",
      "type": "function"
    },
    {
      "inputs": [],
      "name": "getName",
      "outputs": [
        {
          "internalType": "string",
          "name": "",
          "type": "string"
        }
      ],
      "stateMutability": "view",
      "type": "function"
    },
    {
      "inputs": [],
      "name": "getId",
      "outputs": [
        {
          "internalType": "bytes32",
          "name": "",
          "type": "bytes32"
        }
      ],
      "stateMutability": "view",
      "type": "function"
    },
    {
      "inputs": [
        {
          "internalType": "bytes32",
          "name": "hname",
          "type": "bytes32"
        },
        {
          "internalType": "address",
          "name": "contractInstance",
          "type": "address"
        },
        {
          "internalType": "bool",
          "name": "isNew",
          "type": "bool"
        }
      ],
      "name": "onListenAdded",
      "outputs": [],
      "stateMutability": "nonpayable",
      "type": "function"
    },
    {
      "inputs": [
        {
          "internalType": "bytes32",
          "name": "hname",
          "type": "bytes32"
        }
      ],
      "name": "onListenRemoved",
      "outputs": [],
      "stateMutability": "nonpayable",
      "type": "function"
    },
    {
      "inputs": [
        {
          "internalType": "address",
          "name": "viewer",
          "type": "address"
        }
      ],
      "name": "linkViewer",
      "outputs": [],
      "stateMutability": "nonpayable",
      "type": "function"
    },
    {
      "inputs": [
        {
          "internalType": "address",
          "name": "nft_container",
          "type": "address"
        }
      ],
      "name": "linkNFT",
      "outputs": [],
      "stateMutability": "nonpayable",
      "type": "function"
    },
    {
      "inputs": [
        {
          "internalType": "address",
          "name": "dragon_stats",
          "type": "address"
        }
      ],
      "name": "linkStatsLib",
      "outputs": [],
      "stateMutability": "nonpayable",
      "type": "function"
    },
    {
      "inputs": [
        {
          "internalType": "uint256",
          "name": "id",
          "type": "uint256"
        }
      ],
      "name": "getView",
      "outputs": [
        {
          "components": [
            {
              "internalType": "address",
              "name": "owner",
              "type": "address"
            },
            {
              "internalType": "uint256",
              "name": "stacked",
              "type": "uint256"
            },
            {
              "internalType": "bytes32",
              "name": "nft_type",
              "type": "bytes32"
            },
            {
              "internalType": "bytes32",
              "name": "version",
              "type": "bytes32"
            },
            {
              "internalType": "uint256",
              "name": "rarity",
              "type": "uint256"
            },
            {
              "internalType": "uint256",
              "name": "health",
              "type": "uint256"
            },
            {
              "internalType": "enum Util.CardType",
              "name": "card_type",
              "type": "uint8"
            },
            {
              "internalType": "uint256",
              "name": "attack",
              "type": "uint256"
            },
            {
              "internalType": "uint256",
              "name": "defense",
              "type": "uint256"
            },
            {
              "internalType": "uint256",
              "name": "character",
              "type": "uint256"
            },
            {
              "internalType": "string",
              "name": "character_name",
              "type": "string"
            }
          ],
          "internalType": "struct DragonCardView.DragonStatsView",
          "name": "",
          "type": "tuple"
        }
      ],
      "stateMutability": "view",
      "type": "function"
    }
  ],
  "bytecode": "0x60c0604052600e60808190526d447261676f6e436172645669657760901b60a09081526200003191600491906200023e565b506040518060400160405280600e81526020016d447261676f6e436172645669657760901b8152506040516020016200006b9190620002e4565b604051602081830303815290604052805190602001206005553480156200009157600080fd5b506200009d33620000b0565b620000aa60003362000100565b6200035f565b600080546001600160a01b038381166001600160a01b0319831681178455604051919092169283917f8be0079c531659141344cd1fd0a4f28419497f9722a3daafe3b4186f6b6457e09190a35050565b6200011782826200014360201b620015bc1760201c565b60008281526002602090815260409091206200013e91839062001627620001cc821b17901c565b505050565b60008281526001602090815260408083206001600160a01b038516845290915290205460ff16620001c85760008281526001602081815260408084206001600160a01b0386168086529252808420805460ff19169093179092559051339285917f2f8788117e7eff1d82e926ec794901d17c78024a50270940304540a733656f0d9190a45b5050565b6000620001e3836001600160a01b038416620001ec565b90505b92915050565b60008181526001830160205260408120546200023557508154600181810184556000848152602080822090930184905584548482528286019093526040902091909155620001e6565b506000620001e6565b8280546200024c9062000322565b90600052602060002090601f016020900481019282620002705760008555620002bb565b82601f106200028b57805160ff1916838001178555620002bb565b82800160010185558215620002bb579182015b82811115620002bb5782518255916020019190600101906200029e565b50620002c9929150620002cd565b5090565b5b80821115620002c95760008155600101620002ce565b6000825160005b81811015620003075760208186018101518583015201620002eb565b8181111562000317576000828501525b509190910192915050565b600181811c908216806200033757607f821691505b602082108114156200035957634e487b7160e01b600052602260045260246000fd5b50919050565b612678806200036f6000396000f3fe608060405234801561001057600080fd5b50600436106102065760003560e01c80638840891e1161011a578063c69c9579116100ad578063d94796921161007c578063d947969214610457578063ec87621c1461045f578063ecc1d93b14610474578063f2fde38b14610487578063ffa1ad741461049a57600080fd5b8063c69c95791461040b578063ca15c8731461041e578063d4697a4714610431578063d547741f1461044457600080fd5b806391d14854116100e957806391d14854146103ca57806397ffa316146103dd578063a217fddf146103f0578063aadd0488146103f857600080fd5b80638840891e1461038057806388971bf5146103935780638da5cb5b146103a65780639010d07c146103b757600080fd5b8063337bfccc1161019d57806350b978a81161016c57806350b978a8146103375780635d1ca6311461034a5780635df11291146103525780636b2bf27f14610365578063715018a61461037857600080fd5b8063337bfccc146102e857806336568abe146103085780633ad32d161461031b578063481c6a751461032457600080fd5b806317d7de7c116101d957806317d7de7c146102865780631a6f04f31461029b578063248a9ca3146102a35780632f2ff15d146102d557600080fd5b806301ffc9a71461020b5780630447a2cd146102335780630b0c573c1461024857806316f28d2414610273575b600080fd5b61021e610219366004611f48565b6104d4565b60405190151581526020015b60405180910390f35b610246610241366004611f87565b6104ff565b005b60085461025b906001600160a01b031681565b6040516001600160a01b03909116815260200161022a565b610246610281366004611fce565b61050d565b61028e610632565b60405161022a919061206c565b6102466106c4565b6102c76102b136600461207f565b6000908152600160208190526040909120015490565b60405190815260200161022a565b6102466102e3366004612098565b6106ce565b6102fb6102f636600461207f565b6106f5565b60405161022a91906120fe565b610246610316366004612098565b611186565b6102c760055481565b60035461025b906001600160a01b031681565b60075461025b906001600160a01b031681565b6005546102c7565b6102466103603660046121a8565b611200565b6102466103733660046121a8565b61120c565b610246611215565b61024661038e3660046121a8565b611249565b6102466103a13660046121a8565b611252565b6000546001600160a01b031661025b565b61025b6103c53660046121c5565b611285565b61021e6103d8366004612098565b6112a4565b60065461025b906001600160a01b031681565b6102c7600081565b6102466104063660046121a8565b6112cf565b6102466104193660046121a8565b611302565b6102c761042c36600461207f565b61130b565b61024661043f36600461207f565b611322565b610246610452366004612098565b61143c565b61028e611463565b6102c760008051602061262383398151915281565b6102466104823660046121a8565b6114f1565b6102466104953660046121a8565b611524565b6102c76040516e447261676f6e436172642d76312e3160881b6020820152602f016040516020818303038152906040528051906020012081565b60006001600160e01b0319821663ee7ed59960e01b14806104f957506104f98261163c565b92915050565b6105098282611661565b5050565b610525600080516020612623833981519152336112a4565b61054a5760405162461bcd60e51b8152600401610541906121e7565b60405180910390fd5b6040518060400160405280600981526020016853746174735669657760b81b81525060405160200161057c9190612244565b604051602081830303815290604052805190602001208314156105a7576105a2826116f4565b505050565b7fc227f98e618597415dca1f5035d597d1e75936952bfd5d741271dd85ba110d908314156105d8576105a282611749565b6040518060400160405280600b81526020016a447261676f6e537461747360a81b81525060405160200161060c9190612244565b604051602081830303815290604052805190602001208314156105a2576105a282611797565b60606004805461064190612260565b80601f016020809104026020016040519081016040528092919081815260200182805461066d90612260565b80156106ba5780601f1061068f576101008083540402835291602001916106ba565b820191906000526020600020905b81548152906001019060200180831161069d57829003601f168201915b5050505050905090565b6106cc6117e5565b565b600082815260016020819052604090912001546106eb8133611854565b6105a283836118b8565b6107526040805161016081018252600080825260208201819052918101829052606081018290526080810182905260a081018290529060c08201908152602001600081526020016000815260200160008152602001606081525090565b60075460405163c588ff8b60e01b8152600481018490526000916001600160a01b03169063c588ff8b9060240160206040518083038186803b15801561079757600080fd5b505afa1580156107ab573d6000803e3d6000fd5b505050506040513d601f19601f820116820180604052508101906107cf919061229b565b90506000600860009054906101000a90046001600160a01b03166001600160a01b031663c7a6ffc96040518163ffffffff1660e01b815260040160006040518083038186803b15801561082157600080fd5b505afa158015610835573d6000803e3d6000fd5b505050506040513d6000823e601f3d908101601f1916820160405261085d919081019061237b565b600654600854604080516319cd4c3d60e01b815290519394506000936001600160a01b039384169363846235739388938b9391909216916319cd4c3d916004808301928a929190829003018186803b1580156108b857600080fd5b505afa1580156108cc573d6000803e3d6000fd5b505050506040513d6000823e601f3d908101601f191682016040526108f4919081019061237b565b6040518463ffffffff1660e01b8152600401610912939291906123b0565b60006040518083038186803b15801561092a57600080fd5b505afa15801561093e573d6000803e3d6000fd5b505050506040513d6000823e601f3d908101601f1916820160405261096691908101906123d8565b608001511561097757506003610a93565b6006546008546040805163091a7f8b60e41b815290516001600160a01b039384169363846235739388938b9391909216916391a7f8b0916004808301926000929190829003018186803b1580156109cd57600080fd5b505afa1580156109e1573d6000803e3d6000fd5b505050506040513d6000823e601f3d908101601f19168201604052610a09919081019061237b565b6040518463ffffffff1660e01b8152600401610a27939291906123b0565b60006040518083038186803b158015610a3f57600080fd5b505afa158015610a53573d6000803e3d6000fd5b505050506040513d6000823e601f3d908101601f19168201604052610a7b91908101906123d8565b602001516004811115610a9057610a906120bd565b90505b6006546008546040805163367eca3f60e21b815290516000936001600160a01b039081169363846235739389938c939092169163d9fb28fc916004808201928a92909190829003018186803b158015610aeb57600080fd5b505afa158015610aff573d6000803e3d6000fd5b505050506040513d6000823e601f3d908101601f19168201604052610b27919081019061237b565b6040518463ffffffff1660e01b8152600401610b45939291906123b0565b60006040518083038186803b158015610b5d57600080fd5b505afa158015610b71573d6000803e3d6000fd5b505050506040513d6000823e601f3d908101601f19168201604052610b9991908101906123d8565b602001516004811115610bae57610bae6120bd565b6008546040516357c3b5bd60e11b81529192506000916001600160a01b039091169063af876b7a90610be8908a9087908790600401612487565b60206040518083038186803b158015610c0057600080fd5b505afa158015610c14573d6000803e3d6000fd5b505050506040513d601f19601f82011682018060405250810190610c38919061229b565b604080516101608101918290526007546331a9108f60e11b90925261016481018a905291925081906001600160a01b0316636352211e610184830160206040518083038186803b158015610c8b57600080fd5b505afa158015610c9f573d6000803e3d6000fd5b505050506040513d601f19601f82011682018060405250810190610cc391906124b4565b6001600160a01b03908116825260075460405163bd85b03960e01b8152600481018c905260209093019291169063bd85b0399060240160206040518083038186803b158015610d1157600080fd5b505afa158015610d25573d6000803e3d6000fd5b505050506040513d601f19601f82011682018060405250810190610d49919061229b565b8152602001868152602001604051602001610d79906e447261676f6e436172642d76312e3160881b8152600f0190565b604051602081830303815290604052805190602001208152602001846004811115610da657610da66120bd565b815260065460085460408051630fa97af960e41b815290516020909401936001600160a01b03938416936384623573938c938f93919092169163fa97af90916004808301926000929190829003018186803b158015610e0457600080fd5b505afa158015610e18573d6000803e3d6000fd5b505050506040513d6000823e601f3d908101601f19168201604052610e40919081019061237b565b6040518463ffffffff1660e01b8152600401610e5e939291906123b0565b60006040518083038186803b158015610e7657600080fd5b505afa158015610e8a573d6000803e3d6000fd5b505050506040513d6000823e601f3d908101601f19168201604052610eb291908101906123d8565b602001518152602001836004811115610ecd57610ecd6120bd565b81526006546008546040805163b51e6dc760e01b815290516020909401936001600160a01b03938416936384623573938c938f93919092169163b51e6dc7916004808301926000929190829003018186803b158015610f2b57600080fd5b505afa158015610f3f573d6000803e3d6000fd5b505050506040513d6000823e601f3d908101601f19168201604052610f67919081019061237b565b6040518463ffffffff1660e01b8152600401610f85939291906123b0565b60006040518083038186803b158015610f9d57600080fd5b505afa158015610fb1573d6000803e3d6000fd5b505050506040513d6000823e601f3d908101601f19168201604052610fd991908101906123d8565b60209081015182526006546008546040805163c7a6ffc960e01b8152905194909301936001600160a01b03928316936384623573938c938f9391169163c7a6ffc9916004808301926000929190829003018186803b15801561103a57600080fd5b505afa15801561104e573d6000803e3d6000fd5b505050506040513d6000823e601f3d908101601f19168201604052611076919081019061237b565b6040518463ffffffff1660e01b8152600401611094939291906123b0565b60006040518083038186803b1580156110ac57600080fd5b505afa1580156110c0573d6000803e3d6000fd5b505050506040513d6000823e601f3d908101601f191682016040526110e891908101906123d8565b6020908101518252810183905260085460408051631329cc0360e21b8152600481018690529201916001600160a01b0390911690634ca7300c9060240160006040518083038186803b15801561113d57600080fd5b505afa158015611151573d6000803e3d6000fd5b505050506040513d6000823e601f3d908101601f19168201604052611179919081019061237b565b9052979650505050505050565b6001600160a01b03811633146111f65760405162461bcd60e51b815260206004820152602f60248201527f416363657373436f6e74726f6c3a2063616e206f6e6c792072656e6f756e636560448201526e103937b632b9903337b91039b2b63360891b6064820152608401610541565b61050982826118da565b611209816118fc565b50565b611209816119b4565b6000546001600160a01b0316331461123f5760405162461bcd60e51b8152600401610541906124d1565b6106cc6000611a2a565b61120981611a7a565b6000546001600160a01b0316331461127c5760405162461bcd60e51b8152600401610541906124d1565b61120981611797565b600082815260026020526040812061129d9083611afc565b9392505050565b60009182526001602090815260408084206001600160a01b0393909316845291905290205460ff1690565b6000546001600160a01b031633146112f95760405162461bcd60e51b8152600401610541906124d1565b61120981611749565b61120981611b08565b60008181526002602052604081206104f990611b85565b61133a600080516020612623833981519152336112a4565b6113565760405162461bcd60e51b8152600401610541906121e7565b6040518060400160405280600981526020016853746174735669657760b81b8152506040516020016113889190612244565b604051602081830303815290604052805190602001208114156113af5761120960006116f4565b7fc227f98e618597415dca1f5035d597d1e75936952bfd5d741271dd85ba110d908114156113e1576112096000611749565b6040518060400160405280600b81526020016a447261676f6e537461747360a81b8152506040516020016114159190612244565b60405160208183030381529060405280519060200120811415611209576112096000611797565b600082815260016020819052604090912001546114598133611854565b6105a283836118da565b6004805461147090612260565b80601f016020809104026020016040519081016040528092919081815260200182805461149c90612260565b80156114e95780601f106114be576101008083540402835291602001916114e9565b820191906000526020600020905b8154815290600101906020018083116114cc57829003601f168201915b505050505081565b6000546001600160a01b0316331461151b5760405162461bcd60e51b8152600401610541906124d1565b611209816116f4565b6000546001600160a01b0316331461154e5760405162461bcd60e51b8152600401610541906124d1565b6001600160a01b0381166115b35760405162461bcd60e51b815260206004820152602660248201527f4f776e61626c653a206e6577206f776e657220697320746865207a65726f206160448201526564647265737360d01b6064820152608401610541565b61120981611a2a565b6115c682826112a4565b6105095760008281526001602081815260408084206001600160a01b0386168086529252808420805460ff19169093179092559051339285917f2f8788117e7eff1d82e926ec794901d17c78024a50270940304540a733656f0d9190a45050565b600061129d836001600160a01b038416611b8f565b60006001600160e01b03198216635a05180f60e01b14806104f957506104f982611bde565b611679600080516020612623833981519152336112a4565b6116955760405162461bcd60e51b8152600401610541906121e7565b600380546001600160a01b0319166001600160a01b0383811691821790925560408051928516835260208301919091527ff6515f2a6d531f16723c1e578303b7d74152bf8c0fa3bee828700a3d4706da8d910160405180910390a15050565b600680546001600160a01b0319166001600160a01b0383169081179091556040519081527f6a18b90af8b2ae0add67d0ae89a6972d279fd5888cd58c820f581fa70f2d54bd906020015b60405180910390a150565b600780546001600160a01b0319166001600160a01b0383169081179091556040519081527f7869e3c19f5ec29481a8433791a06441db7b22cd85336da47df97fd7b686ba2a9060200161173e565b600880546001600160a01b0319166001600160a01b0383169081179091556040519081527f8eabd18158736228e0bcd01444e967ae9262cdb0e8a88fb154542a13f701bf7b9060200161173e565b6117fd600080516020612623833981519152336112a4565b6118195760405162461bcd60e51b8152600401610541906121e7565b600380546001600160a01b03191690556040517f9a9a74cf290a994f69a718e8557deb1dd65135268f40e660cecddf675f5dd51490600090a1565b61185e82826112a4565b61050957611876816001600160a01b03166014611c13565b611881836020611c13565b604051602001611892929190612506565b60408051601f198184030181529082905262461bcd60e51b82526105419160040161206c565b6118c282826115bc565b60008281526002602052604090206105a29082611627565b6118e48282611daf565b60008281526002602052604090206105a29082611e16565b611914600080516020612623833981519152336112a4565b6119305760405162461bcd60e51b8152600401610541906121e7565b600380546001600160a01b0319166001600160a01b038316179055611963600080516020612623833981519152826106ce565b61197b6000805160206126238339815191523361143c565b6040516001600160a01b03821681527f8eb47098f9568be754f51d21a870c8091ee0242cf97418db00927326d0e6ffcf9060200161173e565b6119cc600080516020612623833981519152336112a4565b6119e85760405162461bcd60e51b8152600401610541906121e7565b6119f181611524565b6040516001600160a01b03821681527ff2addf7f813887cf0fdd82b58fcc379ab2301e95c90b41a8cf2e5401914689c99060200161173e565b600080546001600160a01b038381166001600160a01b0319831681178455604051919092169283917f8be0079c531659141344cd1fd0a4f28419497f9722a3daafe3b4186f6b6457e09190a35050565b611a92600080516020612623833981519152336112a4565b611aae5760405162461bcd60e51b8152600401610541906121e7565b600380546001600160a01b0319166001600160a01b0383169081179091556040519081527f89c66952b48f3e96bf1d8ba1b63189520fd988a6979b8b740bd5c5d8dc53e2059060200161173e565b600061129d8383611e2b565b611b20600080516020612623833981519152336112a4565b611b3c5760405162461bcd60e51b8152600401610541906121e7565b600380546001600160a01b03191690556040516001600160a01b03821681527f85a56ff958486f55dd742819603a46ba6233d3b24e6715f9cd5fd2ef6425d6809060200161173e565b60006104f9825490565b6000818152600183016020526040812054611bd6575081546001818101845560008481526020808220909301849055845484825282860190935260409020919091556104f9565b5060006104f9565b60006001600160e01b03198216637965db0b60e01b14806104f957506301ffc9a760e01b6001600160e01b03198316146104f9565b60606000611c22836002612591565b611c2d9060026125b0565b67ffffffffffffffff811115611c4557611c456122b4565b6040519080825280601f01601f191660200182016040528015611c6f576020820181803683370190505b509050600360fc1b81600081518110611c8a57611c8a6125c8565b60200101906001600160f81b031916908160001a905350600f60fb1b81600181518110611cb957611cb96125c8565b60200101906001600160f81b031916908160001a9053506000611cdd846002612591565b611ce89060016125b0565b90505b6001811115611d60576f181899199a1a9b1b9c1cb0b131b232b360811b85600f1660108110611d1c57611d1c6125c8565b1a60f81b828281518110611d3257611d326125c8565b60200101906001600160f81b031916908160001a90535060049490941c93611d59816125de565b9050611ceb565b50831561129d5760405162461bcd60e51b815260206004820181905260248201527f537472696e67733a20686578206c656e67746820696e73756666696369656e746044820152606401610541565b611db982826112a4565b156105095760008281526001602090815260408083206001600160a01b0385168085529252808320805460ff1916905551339285917ff6391f5c32d9c69d2a47ea670b442974b53935d1edc7fd64eb21e047a839171b9190a45050565b600061129d836001600160a01b038416611e55565b6000826000018281548110611e4257611e426125c8565b9060005260206000200154905092915050565b60008181526001830160205260408120548015611f3e576000611e796001836125f5565b8554909150600090611e8d906001906125f5565b9050818114611ef2576000866000018281548110611ead57611ead6125c8565b9060005260206000200154905080876000018481548110611ed057611ed06125c8565b6000918252602080832090910192909255918252600188019052604090208390555b8554869080611f0357611f0361260c565b6001900381819060005260206000200160009055905585600101600086815260200190815260200160002060009055600193505050506104f9565b60009150506104f9565b600060208284031215611f5a57600080fd5b81356001600160e01b03198116811461129d57600080fd5b6001600160a01b038116811461120957600080fd5b60008060408385031215611f9a57600080fd5b8235611fa581611f72565b91506020830135611fb581611f72565b809150509250929050565b801515811461120957600080fd5b600080600060608486031215611fe357600080fd5b833592506020840135611ff581611f72565b9150604084013561200581611fc0565b809150509250925092565b60005b8381101561202b578181015183820152602001612013565b8381111561203a576000848401525b50505050565b60008151808452612058816020860160208601612010565b601f01601f19169290920160200192915050565b60208152600061129d6020830184612040565b60006020828403121561209157600080fd5b5035919050565b600080604083850312156120ab57600080fd5b823591506020830135611fb581611f72565b634e487b7160e01b600052602160045260246000fd5b6005811061120957634e487b7160e01b600052602160045260246000fd5b6120fa816120d3565b9052565b602081526121186020820183516001600160a01b03169052565b602082015160408201526040820151606082015260608201516080820152608082015160a082015260a082015160c0820152600060c083015161215e60e08401826120f1565b5060e0830151610100838101919091528301516101208084019190915283015161014080840191909152830151610160808401526121a0610180840182612040565b949350505050565b6000602082840312156121ba57600080fd5b813561129d81611f72565b600080604083850312156121d857600080fd5b50508035926020909101359150565b6020808252603b908201527f43726f7373436f6e74726163744d616e4c697374656e65723a2074686520636160408201527f6c6c6572206d7573742068617665204d414e414745525f524f4c450000000000606082015260800190565b60008251612256818460208701612010565b9190910192915050565b600181811c9082168061227457607f821691505b6020821081141561229557634e487b7160e01b600052602260045260246000fd5b50919050565b6000602082840312156122ad57600080fd5b5051919050565b634e487b7160e01b600052604160045260246000fd5b60405160a0810167ffffffffffffffff811182821017156122ed576122ed6122b4565b60405290565b600082601f83011261230457600080fd5b815167ffffffffffffffff8082111561231f5761231f6122b4565b604051601f8301601f19908116603f01168101908282118183101715612347576123476122b4565b8160405283815286602085880101111561236057600080fd5b612371846020830160208901612010565b9695505050505050565b60006020828403121561238d57600080fd5b815167ffffffffffffffff8111156123a457600080fd5b6121a0848285016122f3565b8381528260208201526060604082015260006123cf6060830184612040565b95945050505050565b6000602082840312156123ea57600080fd5b815167ffffffffffffffff8082111561240257600080fd5b9083019060a0828603121561241657600080fd5b61241e6122ca565b82516004811061242d57600080fd5b81526020838101519082015260408301518281111561244b57600080fd5b612457878286016122f3565b604083015250606083015160608201526080830151925061247783611fc0565b6080810192909252509392505050565b83815260608101612497846120d3565b8360208301526124a6836120d3565b826040830152949350505050565b6000602082840312156124c657600080fd5b815161129d81611f72565b6020808252818101527f4f776e61626c653a2063616c6c6572206973206e6f7420746865206f776e6572604082015260600190565b7f416363657373436f6e74726f6c3a206163636f756e742000000000000000000081526000835161253e816017850160208801612010565b7001034b99036b4b9b9b4b733903937b6329607d1b601791840191820152835161256f816028840160208801612010565b01602801949350505050565b634e487b7160e01b600052601160045260246000fd5b60008160001904831182151516156125ab576125ab61257b565b500290565b600082198211156125c3576125c361257b565b500190565b634e487b7160e01b600052603260045260246000fd5b6000816125ed576125ed61257b565b506000190190565b6000828210156126075761260761257b565b500390565b634e487b7160e01b600052603160045260246000fdfe241ecf16d79d0f8dbfb92cbc07fe17840425976cf0667f022fe9877caa831b08a2646970667358221220986b6581e5a5a79b18504039f4473ad26c48ca63344c29fd6b0efcd5c96cb51064736f6c63430008090033",
  "immutableReferences": {},
  "source": "// SPDX-License-Identifier: MIT\npragma solidity ^0.8;\n\nimport \"@openzeppelin/contracts/access/Ownable.sol\";\nimport \"./FireZardNFT.sol\";\nimport \"./StatsView.sol\";\nimport \"./DragonStats.sol\";\nimport \"./CrossContractManListener.sol\";\nimport {Util} from \"./Util.sol\";\n\ncontract DragonCardView is CrossContractManListener{\n    string  public contract_name = Util.DRAGON_CARD_VIEW_CONTRACT_NAME;\n    bytes32 public contract_id = Util.DRAGON_CARD_VIEW_CONTRACT_ID;\n\n    address public\tviewer_addr;\n    address public\tNFT_addr;\n    address public\tdragon_stats_addr;\n\n    bytes32 public constant VERSION=keccak256(abi.encodePacked('DragonCard-v1.1'));\n\n    struct DragonStatsView{\n\taddress owner;\n\tuint256 stacked;\n\n\tbytes32 nft_type;\n\tbytes32 version;\n\n\tuint256 rarity;\n\tuint256 health;\n\tUtil.CardType card_type;\n\tuint256 attack;\n\tuint256 defense;\n\tuint256 character;\n\tstring  character_name;\n    }\n\n/*    constructor(address viewer, address nft_container, address dragon_stats){\n\tviewer_addr = viewer;\n\tNFT_addr = nft_container;\n\tdragon_stats_addr = dragon_stats;\n    }*/\n\n    function getName() view external returns(string memory) {\n\treturn contract_name;\n    }\n\n    function getId() view external returns(bytes32) {\n\treturn contract_id;\n    }\n\n    function onListenAdded(bytes32 hname, address contractInstance, bool isNew) external onlyManager {\n\tif(hname == Util.STATS_VIEW_CONTRACT_ID){\n\t    _linkViewer(contractInstance);\n\t    return;\n\t}\n\tif(hname == Util.NFT_CONTRACT_ID){\n\t    _linkNFT(contractInstance);\n\t    return;\n\t}\n\tif(hname == Util.DRAGON_STATS_CONTRACT_ID){\n\t    _linkStatsLib(contractInstance);\n\t    return;\n\t}\n    }\n\n    function onListenRemoved(bytes32 hname) external onlyManager {\n\tif(hname == Util.STATS_VIEW_CONTRACT_ID){\n\t    _linkViewer(address(0));\n\t    return;\n\t}\n\tif(hname == Util.NFT_CONTRACT_ID){\n\t    _linkNFT(address(0));\n\t    return;\n\t}\n\tif(hname == Util.DRAGON_STATS_CONTRACT_ID){\n\t    _linkStatsLib(address(0));\n\t    return;\n\t}\n    }\n\n    function _linkViewer(address viewer) internal {\n        viewer_addr = viewer;\n        emit ViewLink(viewer);\n    }\n\n    function _linkNFT(address nft_container) internal {\n        NFT_addr = nft_container;\n        emit NFTLink(nft_container);\n    }\n\n    function _linkStatsLib(address dragon_stats) internal {\n        dragon_stats_addr = dragon_stats;\n        emit StatsLibLink(dragon_stats);\n    }\n\n\n    /**\n     * @notice Sets link to Tag Storage smart contract\n    **/\n    function linkViewer(address viewer) public virtual onlyOwner {\n\t_linkViewer(viewer);\n    }\n\n    /**\n     * @notice Sets link to ERC1155 NFT smart contract\n    **/\n    function linkNFT(address nft_container) public virtual onlyOwner {\n\t_linkNFT(nft_container);\n    }\n\n    /**\n     * @notice Sets link to the Stats deriving library\n    **/\n    function linkStatsLib(address dragon_stats) public virtual onlyOwner {\n\t_linkStatsLib(dragon_stats);\n    }\n\n    function getView(uint256 id) public view returns (DragonStatsView memory) {\n\tbytes32 nft_type = FireZardNFT(NFT_addr).typeOf(id);\n//\tstring memory\trarity\t\t= DragonStats(dragon_stats_addr).RARITY_STR();\n//\tstring memory\trarity_override = DragonStats(dragon_stats_addr).RARITY_OVERRIDE_STR();\n//\tstring memory\thealth  = DragonStats(dragon_stats_addr).HEALTH_STR();\n//\tstring memory\ttype_s  = DragonStats(dragon_stats_addr).TYPE_STR();\n//\tstring memory\tattack  = DragonStats(dragon_stats_addr).ATTACK_STR();\n\tstring memory\tdefense = DragonStats(dragon_stats_addr).DEFENSE_STR();\n\tUtil.CardRarity rarity_val;\n\tif(StatsView(viewer_addr).getStat(nft_type, id, DragonStats(dragon_stats_addr).RARITY_OVERRIDE_STR()).bool_val)\n\t    rarity_val = Util.CardRarity.Uncommon;\n\telse\n\t    rarity_val = Util.CardRarity(StatsView(viewer_addr).getStat(nft_type, id, DragonStats(dragon_stats_addr).RARITY_STR()).int_val);\n\tUtil.CardType card_type = Util.CardType(StatsView(viewer_addr).getStat(nft_type, id, DragonStats(dragon_stats_addr).TYPE_STR()).int_val);\n\tuint256 character = DragonStats(dragon_stats_addr).deriveCharacter(id, rarity_val, card_type);\n//\tstring memory character_name = DragonStats(dragon_stats_addr).deriveCharacterName(character);\n\treturn DragonStatsView(\n\t    FireZardNFT(NFT_addr).ownerOf(id),\n\t    FireZardNFT(NFT_addr).totalSupply(id),\n\t    nft_type,\n\t    VERSION,\n\t    uint256(rarity_val),\n\t    StatsView(viewer_addr).getStat(nft_type, id, DragonStats(dragon_stats_addr).HEALTH_STR()).int_val,\n\t    card_type,\n\t    StatsView(viewer_addr).getStat(nft_type, id, DragonStats(dragon_stats_addr).ATTACK_STR()).int_val,\n\t    StatsView(viewer_addr).getStat(nft_type, id, DragonStats(dragon_stats_addr).DEFENSE_STR()).int_val,\n\t    character,\n\t    DragonStats(dragon_stats_addr).deriveCharacterName(character)\n\t);\n    }\n\n    event\tViewLink(address tag_addr);\n    event\tNFTLink(address nft_addr);\n    event\tStatsLibLink(address dragon_stats);\n}\n",
  "sourcePath": "/home/vrogojin/Projects/FireZard/nft/contracts/DragonCardView.sol",
  "compiler": {
    "name": "solc",
    "version": "0.8.9+commit.e5eed63a.Emscripten.clang"
  },
  "schemaVersion": "3.4.3",
  "updatedAt": "2022-02-08T19:54:43.417Z",
  "devdoc": {
    "kind": "dev",
    "methods": {
      "getRoleAdmin(bytes32)": {
        "details": "Returns the admin role that controls `role`. See {grantRole} and {revokeRole}. To change a role's admin, use {_setRoleAdmin}."
      },
      "getRoleMember(bytes32,uint256)": {
        "details": "Returns one of the accounts that have `role`. `index` must be a value between 0 and {getRoleMemberCount}, non-inclusive. Role bearers are not sorted in any particular way, and their ordering may change at any point. WARNING: When using {getRoleMember} and {getRoleMemberCount}, make sure you perform all queries on the same block. See the following https://forum.openzeppelin.com/t/iterating-over-elements-on-enumerableset-in-openzeppelin-contracts/2296[forum post] for more information."
      },
      "getRoleMemberCount(bytes32)": {
        "details": "Returns the number of accounts that have `role`. Can be used together with {getRoleMember} to enumerate all bearers of a role."
      },
      "grantRole(bytes32,address)": {
        "details": "Grants `role` to `account`. If `account` had not been already granted `role`, emits a {RoleGranted} event. Requirements: - the caller must have ``role``'s admin role."
      },
      "hasRole(bytes32,address)": {
        "details": "Returns `true` if `account` has been granted `role`."
      },
      "owner()": {
        "details": "Returns the address of the current owner."
      },
      "renounceOwnership()": {
        "details": "Leaves the contract without owner. It will not be possible to call `onlyOwner` functions anymore. Can only be called by the current owner. NOTE: Renouncing ownership will leave the contract without an owner, thereby removing any functionality that is only available to the owner."
      },
      "renounceRole(bytes32,address)": {
        "details": "Revokes `role` from the calling account. Roles are often managed via {grantRole} and {revokeRole}: this function's purpose is to provide a mechanism for accounts to lose their privileges if they are compromised (such as when a trusted device is misplaced). If the calling account had been revoked `role`, emits a {RoleRevoked} event. Requirements: - the caller must be `account`."
      },
      "revokeRole(bytes32,address)": {
        "details": "Revokes `role` from `account`. If `account` had been granted `role`, emits a {RoleRevoked} event. Requirements: - the caller must have ``role``'s admin role."
      },
      "supportsInterface(bytes4)": {
        "details": "See {IERC165-supportsInterface}."
      },
      "transferOwnership(address)": {
        "details": "Transfers ownership of the contract to a new account (`newOwner`). Can only be called by the current owner."
      }
    },
    "version": 1
  },
  "userdoc": {
    "kind": "user",
    "methods": {
      "linkNFT(address)": {
        "notice": "Sets link to ERC1155 NFT smart contract*"
      },
      "linkStatsLib(address)": {
        "notice": "Sets link to the Stats deriving library*"
      },
      "linkViewer(address)": {
        "notice": "Sets link to Tag Storage smart contract*"
      }
    },
    "version": 1
  }
}