{
  "contractName": "DragonMinter",
  "abi": [
    {
      "anonymous": false,
      "inputs": [
        {
          "indexed": false,
          "internalType": "address",
          "name": "_manager",
          "type": "address"
        }
      ],
      "name": "ContractAdded",
      "type": "event"
    },
    {
      "anonymous": false,
      "inputs": [
        {
          "indexed": false,
          "internalType": "address",
          "name": "newManager",
          "type": "address"
        }
      ],
      "name": "ContractManagerSwitch",
      "type": "event"
    },
    {
      "anonymous": false,
      "inputs": [
        {
          "indexed": false,
          "internalType": "address",
          "name": "newOwner",
          "type": "address"
        }
      ],
      "name": "ContractOwnershipUpdate",
      "type": "event"
    },
    {
      "anonymous": false,
      "inputs": [],
      "name": "ContractRemoved",
      "type": "event"
    },
    {
      "anonymous": false,
      "inputs": [
        {
          "indexed": false,
          "internalType": "address",
          "name": "contractInstance",
          "type": "address"
        }
      ],
      "name": "ContractReplaced",
      "type": "event"
    },
    {
      "anonymous": false,
      "inputs": [
        {
          "indexed": false,
          "internalType": "address",
          "name": "oldInstance",
          "type": "address"
        },
        {
          "indexed": false,
          "internalType": "address",
          "name": "_manager",
          "type": "address"
        }
      ],
      "name": "ContractUpdated",
      "type": "event"
    },
    {
      "anonymous": false,
      "inputs": [],
      "name": "DisableMintFee",
      "type": "event"
    },
    {
      "anonymous": false,
      "inputs": [],
      "name": "EnableMintFee",
      "type": "event"
    },
    {
      "anonymous": false,
      "inputs": [
        {
          "indexed": false,
          "internalType": "address",
          "name": "_flame",
          "type": "address"
        }
      ],
      "name": "FLAMELink",
      "type": "event"
    },
    {
      "anonymous": false,
      "inputs": [
        {
          "indexed": false,
          "internalType": "address",
          "name": "nft_container",
          "type": "address"
        }
      ],
      "name": "NFTLink",
      "type": "event"
    },
    {
      "anonymous": false,
      "inputs": [
        {
          "indexed": true,
          "internalType": "address",
          "name": "previousOwner",
          "type": "address"
        },
        {
          "indexed": true,
          "internalType": "address",
          "name": "newOwner",
          "type": "address"
        }
      ],
      "name": "OwnershipTransferred",
      "type": "event"
    },
    {
      "anonymous": false,
      "inputs": [
        {
          "indexed": false,
          "internalType": "address",
          "name": "rng_contract",
          "type": "address"
        }
      ],
      "name": "RNGLink",
      "type": "event"
    },
    {
      "anonymous": false,
      "inputs": [
        {
          "indexed": true,
          "internalType": "bytes32",
          "name": "role",
          "type": "bytes32"
        },
        {
          "indexed": true,
          "internalType": "bytes32",
          "name": "previousAdminRole",
          "type": "bytes32"
        },
        {
          "indexed": true,
          "internalType": "bytes32",
          "name": "newAdminRole",
          "type": "bytes32"
        }
      ],
      "name": "RoleAdminChanged",
      "type": "event"
    },
    {
      "anonymous": false,
      "inputs": [
        {
          "indexed": true,
          "internalType": "bytes32",
          "name": "role",
          "type": "bytes32"
        },
        {
          "indexed": true,
          "internalType": "address",
          "name": "account",
          "type": "address"
        },
        {
          "indexed": true,
          "internalType": "address",
          "name": "sender",
          "type": "address"
        }
      ],
      "name": "RoleGranted",
      "type": "event"
    },
    {
      "anonymous": false,
      "inputs": [
        {
          "indexed": true,
          "internalType": "bytes32",
          "name": "role",
          "type": "bytes32"
        },
        {
          "indexed": true,
          "internalType": "address",
          "name": "account",
          "type": "address"
        },
        {
          "indexed": true,
          "internalType": "address",
          "name": "sender",
          "type": "address"
        }
      ],
      "name": "RoleRevoked",
      "type": "event"
    },
    {
      "anonymous": false,
      "inputs": [
        {
          "indexed": false,
          "internalType": "uint256",
          "name": "size",
          "type": "uint256"
        },
        {
          "indexed": false,
          "internalType": "uint256",
          "name": "price",
          "type": "uint256"
        }
      ],
      "name": "SetPrice",
      "type": "event"
    },
    {
      "anonymous": false,
      "inputs": [
        {
          "indexed": false,
          "internalType": "address",
          "name": "stats_lib",
          "type": "address"
        }
      ],
      "name": "StatsLibLink",
      "type": "event"
    },
    {
      "anonymous": false,
      "inputs": [
        {
          "indexed": false,
          "internalType": "uint8",
          "name": "group_id",
          "type": "uint8"
        }
      ],
      "name": "TAGGroupID",
      "type": "event"
    },
    {
      "anonymous": false,
      "inputs": [
        {
          "indexed": false,
          "internalType": "address",
          "name": "tag_storage",
          "type": "address"
        }
      ],
      "name": "TAGLink",
      "type": "event"
    },
    {
      "inputs": [],
      "name": "DEFAULT_ADMIN_ROLE",
      "outputs": [
        {
          "internalType": "bytes32",
          "name": "",
          "type": "bytes32"
        }
      ],
      "stateMutability": "view",
      "type": "function",
      "constant": true
    },
    {
      "inputs": [],
      "name": "FLAME_addr",
      "outputs": [
        {
          "internalType": "address",
          "name": "",
          "type": "address"
        }
      ],
      "stateMutability": "view",
      "type": "function",
      "constant": true
    },
    {
      "inputs": [],
      "name": "MANAGER_ROLE",
      "outputs": [
        {
          "internalType": "bytes32",
          "name": "",
          "type": "bytes32"
        }
      ],
      "stateMutability": "view",
      "type": "function",
      "constant": true
    },
    {
      "inputs": [],
      "name": "MINTER_ROLE",
      "outputs": [
        {
          "internalType": "bytes32",
          "name": "",
          "type": "bytes32"
        }
      ],
      "stateMutability": "view",
      "type": "function",
      "constant": true
    },
    {
      "inputs": [],
      "name": "NFT_addr",
      "outputs": [
        {
          "internalType": "address",
          "name": "",
          "type": "address"
        }
      ],
      "stateMutability": "view",
      "type": "function",
      "constant": true
    },
    {
      "inputs": [],
      "name": "RNG_addr",
      "outputs": [
        {
          "internalType": "address",
          "name": "",
          "type": "address"
        }
      ],
      "stateMutability": "view",
      "type": "function",
      "constant": true
    },
    {
      "inputs": [],
      "name": "TAG_addr",
      "outputs": [
        {
          "internalType": "address",
          "name": "",
          "type": "address"
        }
      ],
      "stateMutability": "view",
      "type": "function",
      "constant": true
    },
    {
      "inputs": [],
      "name": "contract_id",
      "outputs": [
        {
          "internalType": "bytes32",
          "name": "",
          "type": "bytes32"
        }
      ],
      "stateMutability": "view",
      "type": "function",
      "constant": true
    },
    {
      "inputs": [],
      "name": "contract_name",
      "outputs": [
        {
          "internalType": "string",
          "name": "",
          "type": "string"
        }
      ],
      "stateMutability": "view",
      "type": "function",
      "constant": true
    },
    {
      "inputs": [
        {
          "internalType": "bytes32",
          "name": "role",
          "type": "bytes32"
        }
      ],
      "name": "getRoleAdmin",
      "outputs": [
        {
          "internalType": "bytes32",
          "name": "",
          "type": "bytes32"
        }
      ],
      "stateMutability": "view",
      "type": "function",
      "constant": true
    },
    {
      "inputs": [
        {
          "internalType": "bytes32",
          "name": "role",
          "type": "bytes32"
        },
        {
          "internalType": "uint256",
          "name": "index",
          "type": "uint256"
        }
      ],
      "name": "getRoleMember",
      "outputs": [
        {
          "internalType": "address",
          "name": "",
          "type": "address"
        }
      ],
      "stateMutability": "view",
      "type": "function",
      "constant": true
    },
    {
      "inputs": [
        {
          "internalType": "bytes32",
          "name": "role",
          "type": "bytes32"
        }
      ],
      "name": "getRoleMemberCount",
      "outputs": [
        {
          "internalType": "uint256",
          "name": "",
          "type": "uint256"
        }
      ],
      "stateMutability": "view",
      "type": "function",
      "constant": true
    },
    {
      "inputs": [
        {
          "internalType": "bytes32",
          "name": "role",
          "type": "bytes32"
        },
        {
          "internalType": "address",
          "name": "account",
          "type": "address"
        }
      ],
      "name": "grantRole",
      "outputs": [],
      "stateMutability": "nonpayable",
      "type": "function"
    },
    {
      "inputs": [],
      "name": "group_id",
      "outputs": [
        {
          "internalType": "uint8",
          "name": "",
          "type": "uint8"
        }
      ],
      "stateMutability": "view",
      "type": "function",
      "constant": true
    },
    {
      "inputs": [
        {
          "internalType": "bytes32",
          "name": "role",
          "type": "bytes32"
        },
        {
          "internalType": "address",
          "name": "account",
          "type": "address"
        }
      ],
      "name": "hasRole",
      "outputs": [
        {
          "internalType": "bool",
          "name": "",
          "type": "bool"
        }
      ],
      "stateMutability": "view",
      "type": "function",
      "constant": true
    },
    {
      "inputs": [],
      "name": "manager",
      "outputs": [
        {
          "internalType": "address",
          "name": "",
          "type": "address"
        }
      ],
      "stateMutability": "view",
      "type": "function",
      "constant": true
    },
    {
      "inputs": [
        {
          "internalType": "address",
          "name": "_manager",
          "type": "address"
        }
      ],
      "name": "onAdd",
      "outputs": [],
      "stateMutability": "nonpayable",
      "type": "function"
    },
    {
      "inputs": [],
      "name": "onRemoved",
      "outputs": [],
      "stateMutability": "nonpayable",
      "type": "function"
    },
    {
      "inputs": [
        {
          "internalType": "address",
          "name": "newInstance",
          "type": "address"
        }
      ],
      "name": "onReplaced",
      "outputs": [],
      "stateMutability": "nonpayable",
      "type": "function"
    },
    {
      "inputs": [],
      "name": "owner",
      "outputs": [
        {
          "internalType": "address",
          "name": "",
          "type": "address"
        }
      ],
      "stateMutability": "view",
      "type": "function",
      "constant": true
    },
    {
      "inputs": [
        {
          "internalType": "uint256",
          "name": "",
          "type": "uint256"
        }
      ],
      "name": "price_list",
      "outputs": [
        {
          "internalType": "uint256",
          "name": "",
          "type": "uint256"
        }
      ],
      "stateMutability": "view",
      "type": "function",
      "constant": true
    },
    {
      "inputs": [],
      "name": "renounceOwnership",
      "outputs": [],
      "stateMutability": "nonpayable",
      "type": "function"
    },
    {
      "inputs": [
        {
          "internalType": "bytes32",
          "name": "role",
          "type": "bytes32"
        },
        {
          "internalType": "address",
          "name": "account",
          "type": "address"
        }
      ],
      "name": "renounceRole",
      "outputs": [],
      "stateMutability": "nonpayable",
      "type": "function"
    },
    {
      "inputs": [
        {
          "internalType": "bytes32",
          "name": "role",
          "type": "bytes32"
        },
        {
          "internalType": "address",
          "name": "account",
          "type": "address"
        }
      ],
      "name": "revokeRole",
      "outputs": [],
      "stateMutability": "nonpayable",
      "type": "function"
    },
    {
      "inputs": [
        {
          "internalType": "uint256",
          "name": "",
          "type": "uint256"
        }
      ],
      "name": "stats",
      "outputs": [
        {
          "internalType": "string",
          "name": "name",
          "type": "string"
        },
        {
          "internalType": "enum Util.StatType",
          "name": "statType",
          "type": "uint8"
        },
        {
          "internalType": "bool",
          "name": "is_mutable",
          "type": "bool"
        }
      ],
      "stateMutability": "view",
      "type": "function",
      "constant": true
    },
    {
      "inputs": [],
      "name": "stats_length",
      "outputs": [
        {
          "internalType": "uint256",
          "name": "",
          "type": "uint256"
        }
      ],
      "stateMutability": "view",
      "type": "function",
      "constant": true
    },
    {
      "inputs": [],
      "name": "stats_lib_addr",
      "outputs": [
        {
          "internalType": "address",
          "name": "",
          "type": "address"
        }
      ],
      "stateMutability": "view",
      "type": "function",
      "constant": true
    },
    {
      "inputs": [
        {
          "internalType": "bytes4",
          "name": "interfaceId",
          "type": "bytes4"
        }
      ],
      "name": "supportsInterface",
      "outputs": [
        {
          "internalType": "bool",
          "name": "",
          "type": "bool"
        }
      ],
      "stateMutability": "view",
      "type": "function",
      "constant": true
    },
    {
      "inputs": [
        {
          "internalType": "address",
          "name": "newManager",
          "type": "address"
        }
      ],
      "name": "switchManager",
      "outputs": [],
      "stateMutability": "nonpayable",
      "type": "function"
    },
    {
      "inputs": [],
      "name": "testMode",
      "outputs": [
        {
          "internalType": "bool",
          "name": "",
          "type": "bool"
        }
      ],
      "stateMutability": "view",
      "type": "function",
      "constant": true
    },
    {
      "inputs": [
        {
          "internalType": "address",
          "name": "newOwner",
          "type": "address"
        }
      ],
      "name": "transferOwnership",
      "outputs": [],
      "stateMutability": "nonpayable",
      "type": "function"
    },
    {
      "inputs": [
        {
          "internalType": "address",
          "name": "newOwner",
          "type": "address"
        }
      ],
      "name": "updateOwnership",
      "outputs": [],
      "stateMutability": "nonpayable",
      "type": "function"
    },
    {
      "inputs": [],
      "name": "getName",
      "outputs": [
        {
          "internalType": "string",
          "name": "",
          "type": "string"
        }
      ],
      "stateMutability": "view",
      "type": "function",
      "constant": true
    },
    {
      "inputs": [],
      "name": "getId",
      "outputs": [
        {
          "internalType": "bytes32",
          "name": "",
          "type": "bytes32"
        }
      ],
      "stateMutability": "view",
      "type": "function",
      "constant": true
    },
    {
      "inputs": [
        {
          "internalType": "bytes32",
          "name": "hname",
          "type": "bytes32"
        },
        {
          "internalType": "address",
          "name": "contractInstance",
          "type": "address"
        },
        {
          "internalType": "bool",
          "name": "isNew",
          "type": "bool"
        }
      ],
      "name": "onListenAdded",
      "outputs": [],
      "stateMutability": "nonpayable",
      "type": "function"
    },
    {
      "inputs": [
        {
          "internalType": "bytes32",
          "name": "hname",
          "type": "bytes32"
        }
      ],
      "name": "onListenRemoved",
      "outputs": [],
      "stateMutability": "nonpayable",
      "type": "function"
    },
    {
      "inputs": [
        {
          "internalType": "address",
          "name": "oldInstance",
          "type": "address"
        },
        {
          "internalType": "address",
          "name": "_manager",
          "type": "address"
        }
      ],
      "name": "onUpdate",
      "outputs": [],
      "stateMutability": "nonpayable",
      "type": "function"
    },
    {
      "inputs": [
        {
          "internalType": "address",
          "name": "rng_contract",
          "type": "address"
        }
      ],
      "name": "linkRNG",
      "outputs": [],
      "stateMutability": "nonpayable",
      "type": "function"
    },
    {
      "inputs": [
        {
          "internalType": "address",
          "name": "tag_storage",
          "type": "address"
        }
      ],
      "name": "linkTAG",
      "outputs": [],
      "stateMutability": "nonpayable",
      "type": "function"
    },
    {
      "inputs": [
        {
          "internalType": "address",
          "name": "nft_container",
          "type": "address"
        }
      ],
      "name": "linkNFT",
      "outputs": [],
      "stateMutability": "nonpayable",
      "type": "function"
    },
    {
      "inputs": [
        {
          "internalType": "address",
          "name": "_flame",
          "type": "address"
        }
      ],
      "name": "linkFLAME",
      "outputs": [],
      "stateMutability": "nonpayable",
      "type": "function"
    },
    {
      "inputs": [
        {
          "internalType": "address",
          "name": "stats_lib",
          "type": "address"
        }
      ],
      "name": "linkStatsLib",
      "outputs": [],
      "stateMutability": "nonpayable",
      "type": "function"
    },
    {
      "inputs": [
        {
          "internalType": "uint8",
          "name": "_group_id",
          "type": "uint8"
        }
      ],
      "name": "setTagGroupId",
      "outputs": [],
      "stateMutability": "nonpayable",
      "type": "function"
    },
    {
      "inputs": [
        {
          "internalType": "address",
          "name": "entity",
          "type": "address"
        }
      ],
      "name": "addMinter",
      "outputs": [],
      "stateMutability": "nonpayable",
      "type": "function"
    },
    {
      "inputs": [
        {
          "internalType": "address",
          "name": "entity",
          "type": "address"
        }
      ],
      "name": "removeMinter",
      "outputs": [],
      "stateMutability": "nonpayable",
      "type": "function"
    },
    {
      "inputs": [],
      "name": "enableMintFee",
      "outputs": [],
      "stateMutability": "nonpayable",
      "type": "function"
    },
    {
      "inputs": [],
      "name": "disableMintFee",
      "outputs": [],
      "stateMutability": "nonpayable",
      "type": "function"
    },
    {
      "inputs": [
        {
          "internalType": "uint256",
          "name": "size",
          "type": "uint256"
        },
        {
          "internalType": "uint256",
          "name": "price",
          "type": "uint256"
        }
      ],
      "name": "setPrice",
      "outputs": [],
      "stateMutability": "nonpayable",
      "type": "function"
    },
    {
      "inputs": [
        {
          "internalType": "uint256",
          "name": "size",
          "type": "uint256"
        }
      ],
      "name": "getPrice",
      "outputs": [
        {
          "internalType": "uint256",
          "name": "",
          "type": "uint256"
        }
      ],
      "stateMutability": "view",
      "type": "function",
      "constant": true
    },
    {
      "inputs": [
        {
          "internalType": "bytes32[]",
          "name": "commitment",
          "type": "bytes32[]"
        }
      ],
      "name": "initPackage",
      "outputs": [],
      "stateMutability": "nonpayable",
      "type": "function"
    },
    {
      "inputs": [
        {
          "internalType": "bytes32[]",
          "name": "entropy",
          "type": "bytes32[]"
        }
      ],
      "name": "lockPackage",
      "outputs": [],
      "stateMutability": "nonpayable",
      "type": "function"
    },
    {
      "inputs": [
        {
          "internalType": "address",
          "name": "recipient",
          "type": "address"
        },
        {
          "internalType": "bytes32[]",
          "name": "commitment",
          "type": "bytes32[]"
        }
      ],
      "name": "openPackage",
      "outputs": [],
      "stateMutability": "nonpayable",
      "type": "function"
    },
    {
      "inputs": [
        {
          "internalType": "bytes32[]",
          "name": "commitment",
          "type": "bytes32[]"
        }
      ],
      "name": "readPackage",
      "outputs": [
        {
          "internalType": "uint256[]",
          "name": "",
          "type": "uint256[]"
        }
      ],
      "stateMutability": "view",
      "type": "function",
      "constant": true
    },
    {
      "inputs": [],
      "name": "getBlockConfirmationCap",
      "outputs": [
        {
          "internalType": "uint256",
          "name": "",
          "type": "uint256"
        }
      ],
      "stateMutability": "view",
      "type": "function",
      "constant": true
    }
  ],
  "bytecode": "0x60c0604052600c60808190526b223930b3b7b726b4b73a32b960a11b60a09081526200002f916004919062000249565b506040518060400160405280600c81526020016b223930b3b7b726b4b73a32b960a11b815250604051602001620000679190620002ef565b60408051601f198184030181529190528051602090910120600555600d805460ff191660011790553480156200009c57600080fd5b50620000a833620000bb565b620000b56000336200010b565b6200036a565b600080546001600160a01b038381166001600160a01b0319831681178455604051919092169283917f8be0079c531659141344cd1fd0a4f28419497f9722a3daafe3b4186f6b6457e09190a35050565b6200012282826200014e60201b620022b01760201c565b6000828152600260209081526040909120620001499183906200231b620001d7821b17901c565b505050565b60008281526001602090815260408083206001600160a01b038516845290915290205460ff16620001d35760008281526001602081815260408084206001600160a01b0386168086529252808420805460ff19169093179092559051339285917f2f8788117e7eff1d82e926ec794901d17c78024a50270940304540a733656f0d9190a45b5050565b6000620001ee836001600160a01b038416620001f7565b90505b92915050565b60008181526001830160205260408120546200024057508154600181810184556000848152602080822090930184905584548482528286019093526040902091909155620001f1565b506000620001f1565b82805462000257906200032d565b90600052602060002090601f0160209004810192826200027b5760008555620002c6565b82601f106200029657805160ff1916838001178555620002c6565b82800160010185558215620002c6579182015b82811115620002c6578251825591602001919060010190620002a9565b50620002d4929150620002d8565b5090565b5b80821115620002d45760008155600101620002d9565b6000825160005b81811015620003125760208186018101518583015201620002f6565b8181111562000322576000828501525b509190910192915050565b600181811c908216806200034257607f821691505b602082108114156200036457634e487b7160e01b600052602260045260246000fd5b50919050565b613aba806200037a6000396000f3fe608060405234801561001057600080fd5b50600436106103425760003560e01c80638913f8cf116101b8578063ca15c87311610104578063d9479692116100a2578063ec87621c1161007c578063ec87621c14610736578063f2fde38b1461074b578063f7d975771461075e578063fc4f93671461077157600080fd5b8063d947969214610706578063e75722301461070e578063e76608261461072e57600080fd5b8063d5391393116100de578063d5391393146106a4578063d547741f146106cb578063d5cb313f146106de578063d839f230146106e657600080fd5b8063ca15c87314610671578063cd9ea34214610684578063d4697a471461069157600080fd5b8063a217fddf11610171578063aadd04881161014b578063aadd048814610616578063ad217ae514610629578063c17f0cb11461064b578063c69c95791461065e57600080fd5b8063a217fddf146105f2578063a83993b7146105fa578063aa5a51351461060d57600080fd5b80638913f8cf146105825780638da5cb5b146105955780638e0f500b146105a65780639010d07c146105b957806391d14854146105cc578063983b2d56146105df57600080fd5b80633ad32d1611610292578063715018a6116102305780637e9c8aaa1161020a5780637e9c8aaa1461052e57806382bad2ca146105365780638840891e1461055c57806388971bf51461056f57600080fd5b8063715018a6146104f35780637827e06b146104fb5780637a78891f1461050e57600080fd5b80635d1ca6311161026c5780635d1ca631146104b25780635df11291146104ba5780636025e1f1146104cd5780636b2bf27f146104e057600080fd5b80633ad32d1614610483578063481c6a751461048c57806350b978a81461049f57600080fd5b8063248a9ca3116102ff5780633092afd5116102d95780633092afd51461041f57806332b40c361461043257806336568abe1461044557806339b7de651461045857600080fd5b8063248a9ca3146103c75780632b021dce146103f95780632f2ff15d1461040c57600080fd5b806301ffc9a7146103475780630447a2cd1461036f57806316f28d241461038457806317d7de7c146103975780631a6f04f3146103ac5780632418e9e8146103b4575b600080fd5b61035a6103553660046130ca565b610784565b60405190151581526020015b60405180910390f35b61038261037d366004613110565b6107af565b005b610382610392366004613151565b610978565b61039f610af9565b60405161036691906131ed565b610382610b8b565b6103826103c236600461320f565b610b95565b6103eb6103d536600461322c565b6000908152600160208190526040909120015490565b604051908152602001610366565b610382610407366004613291565b610bcb565b61038261041a3660046132d3565b610c63565b61038261042d3660046132f6565b610c8a565b6103826104403660046132f6565b610cde565b6103826104533660046132d3565b610d11565b600a5461046b906001600160a01b031681565b6040516001600160a01b039091168152602001610366565b6103eb60055481565b60035461046b906001600160a01b031681565b60085461046b906001600160a01b031681565b6005546103eb565b6103826104c83660046132f6565b610d8b565b6103826104db3660046132f6565b610d94565b6103826104ee3660046132f6565b610dc7565b610382610dd0565b610382610509366004613311565b610e04565b6103eb61051c36600461322c565b600e6020526000908152604090205481565b6103eb6119ed565b600a5461054a90600160a01b900460ff1681565b60405160ff9091168152602001610366565b61038261056a3660046132f6565b611a6f565b61038261057d3660046132f6565b611a78565b60095461046b906001600160a01b031681565b6000546001600160a01b031661046b565b6103826105b43660046132f6565b611aab565b61046b6105c7366004613364565b611ade565b61035a6105da3660046132d3565b611afd565b6103826105ed3660046132f6565b611b28565b6103eb600081565b60075461046b906001600160a01b031681565b6103eb600c5481565b6103826106243660046132f6565b611b7c565b61063c61063736600461322c565b611baf565b6040516103669392919061339c565b60065461046b906001600160a01b031681565b61038261066c3660046132f6565b611c77565b6103eb61067f36600461322c565b611c80565b600d5461035a9060ff1681565b61038261069f36600461322c565b611c97565b6103eb7f9f2df0fed2c77648de5860a4cc508cd0818c85b8b8a1ab4ceeef8d981c8956a681565b6103826106d93660046132d3565b611e0f565b610382611e36565b6106f96106f4366004613291565b611e68565b60405161036691906133e5565b61039f611f8b565b6103eb61071c36600461322c565b6000908152600e602052604090205490565b610382612019565b6103eb600080516020613a6583398151915281565b6103826107593660046132f6565b61204b565b61038261076c366004613364565b6120e3565b61038261077f366004613291565b612117565b60006001600160e01b0319821663ee7ed59960e01b14806107a957506107a982612330565b92915050565b6107b98282612355565b610832826001600160a01b03166382bad2ca6040518163ffffffff1660e01b815260040160206040518083038186803b1580156107f557600080fd5b505afa158015610809573d6000803e3d6000fd5b505050506040513d601f19601f8201168201806040525081019061082d9190613429565b6123e9565b816001600160a01b031663cd9ea3426040518163ffffffff1660e01b815260040160206040518083038186803b15801561086b57600080fd5b505afa15801561087f573d6000803e3d6000fd5b505050506040513d601f19601f820116820180604052508101906108a39190613446565b156108b5576108b061243e565b6108bd565b6108bd612476565b604051630e75722360e41b8152600160048201819052610941916001600160a01b0385169063e7572230906024015b60206040518083038186803b15801561090457600080fd5b505afa158015610918573d6000803e3d6000fd5b505050506040513d601f19601f8201168201806040525081019061093c9190613463565b6124ab565b604051630e75722360e41b8152600a60048201819052610974916001600160a01b0385169063e7572230906024016108ec565b5050565b610990600080516020613a6583398151915233611afd565b6109b55760405162461bcd60e51b81526004016109ac9061347c565b60405180910390fd5b60405180604001604052806003815260200162524e4760e81b8152506040516020016109e191906134d9565b60405160208183030381529060405280519060200120831415610a0c57610a07826124f3565b505050565b7fdfa926e49ecb76ef0407533073c674d3e6a6fb4a00d7941099f34757f314c42e831415610a3d57610a0782612541565b7fc227f98e618597415dca1f5035d597d1e75936952bfd5d741271dd85ba110d90831415610a6e57610a078261258f565b6040518060400160405280600b81526020016a447261676f6e537461747360a81b815250604051602001610aa291906134d9565b60405160208183030381529060405280519060200120831415610ac857610a07826125dd565b7feb9cbd77d805ba9b0c4bf1b12c07e59c028821bd6b4866e90c098f77c69821e5831415610a0757610a0782612724565b606060048054610b08906134f5565b80601f0160208091040260200160405190810160405280929190818152602001828054610b34906134f5565b8015610b815780601f10610b5657610100808354040283529160200191610b81565b820191906000526020600020905b815481529060010190602001808311610b6457829003601f168201915b5050505050905090565b610b93612772565b565b6000546001600160a01b03163314610bbf5760405162461bcd60e51b81526004016109ac90613530565b610bc8816123e9565b50565b60005b81811015610a07576006546001600160a01b03166301670ba9848484818110610bf957610bf9613565565b905060200201356040518263ffffffff1660e01b8152600401610c1e91815260200190565b600060405180830381600087803b158015610c3857600080fd5b505af1158015610c4c573d6000803e3d6000fd5b505050508080610c5b90613591565b915050610bce565b60008281526001602081905260409091200154610c8081336127e1565b610a078383612845565b6000546001600160a01b03163314610cb45760405162461bcd60e51b81526004016109ac90613530565b610bc87f9f2df0fed2c77648de5860a4cc508cd0818c85b8b8a1ab4ceeef8d981c8956a682611e0f565b6000546001600160a01b03163314610d085760405162461bcd60e51b81526004016109ac90613530565b610bc881612724565b6001600160a01b0381163314610d815760405162461bcd60e51b815260206004820152602f60248201527f416363657373436f6e74726f6c3a2063616e206f6e6c792072656e6f756e636560448201526e103937b632b9903337b91039b2b63360891b60648201526084016109ac565b6109748282612867565b610bc881612889565b6000546001600160a01b03163314610dbe5760405162461bcd60e51b81526004016109ac90613530565b610bc881612541565b610bc881612941565b6000546001600160a01b03163314610dfa5760405162461bcd60e51b81526004016109ac90613530565b610b9360006129b7565b600080600a60009054906101000a90046001600160a01b03166001600160a01b03166391a7f8b06040518163ffffffff1660e01b815260040160006040518083038186803b158015610e5557600080fd5b505afa158015610e69573d6000803e3d6000fd5b505050506040513d6000823e601f3d908101601f19168201604052610e919190810190613688565b905060005b838110156117a4576006546000906001600160a01b03166361da1439878785818110610ec457610ec4613565565b905060200201356040518263ffffffff1660e01b8152600401610ee991815260200190565b60206040518083038186803b158015610f0157600080fd5b505afa158015610f15573d6000803e3d6000fd5b505050506040513d601f19601f82011682018060405250810190610f399190613463565b60085460405163bd85b03960e01b8152600481018390529192506001600160a01b03169063bd85b0399060240160206040518083038186803b158015610f7e57600080fd5b505afa158015610f92573d6000803e3d6000fd5b505050506040513d601f19601f82011682018060405250810190610fb69190613463565b156110185760405162461bcd60e51b815260206004820152602c60248201527f53616d6520647261676f6e20636172642063616e206265206f70656e6e65642060448201526b6174206d6f7374206f6e636560a01b60648201526084016109ac565b60085460408051600080516020613a4583398151915260208201526001600160a01b039092169163731133e9918a918591600191016040516020818303038152906040526040518563ffffffff1660e01b815260040161107b94939291906136bd565b600060405180830381600087803b15801561109557600080fd5b505af11580156110a9573d6000803e3d6000fd5b5050600a5460405163180226a160e11b8152600093506001600160a01b0390911691506330044d42906110f290600080516020613a4583398151915290869089906004016136f4565b60206040518083038186803b15801561110a57600080fd5b505afa15801561111e573d6000803e3d6000fd5b505050506040513d601f19601f820116820180604052508101906111429190613463565b600481111561115357611153613386565b9050600481600481111561116957611169613386565b1461117357600194505b60005b600c5481101561178e57600b818154811061119357611193613565565b906000526020600020906002020160010160019054906101000a900460ff166111bb5761177c565b600073__Util__________________________________63dfbd4a0585600b85815481106111eb576111eb613565565b90600052602060002090600202016000016040518363ffffffff1660e01b81526004016112199291906137bd565b60206040518083038186803b15801561123157600080fd5b505af4158015611245573d6000803e3d6000fd5b505050506040513d601f19601f820116820180604052508101906112699190613463565b90506000600b838154811061128057611280613565565b6000918252602082206001600290920201015460ff1691508160038111156112aa576112aa613386565b14156113eb57600a54600b80546000926001600160a01b0316916330044d4291600080516020613a45833981519152918a91899081106112ec576112ec613565565b90600052602060002090600202016000016040518463ffffffff1660e01b815260040161131b939291906137d6565b60206040518083038186803b15801561133357600080fd5b505afa158015611347573d6000803e3d6000fd5b505050506040513d601f19601f8201168201806040525081019061136b9190613463565b600754600a54604051636cc09e7160e01b8152600160a01b90910460ff16600482015260248101869052604481018390529192506001600160a01b031690636cc09e71906064015b600060405180830381600087803b1580156113cd57600080fd5b505af11580156113e1573d6000803e3d6000fd5b5050505050611779565b60018160038111156113ff576113ff613386565b141561150757600a54600b80546000926001600160a01b031691635f560e8391600080516020613a45833981519152918a918990811061144157611441613565565b90600052602060002090600202016000016040518463ffffffff1660e01b8152600401611470939291906137d6565b60006040518083038186803b15801561148857600080fd5b505afa15801561149c573d6000803e3d6000fd5b505050506040513d6000823e601f3d908101601f191682016040526114c49190810190613688565b600754600a5460405162c9fed560e21b81529293506001600160a01b0390911691630327fb54916113b391600160a01b90910460ff1690879086906004016137f5565b600281600381111561151b5761151b613386565b141561162857600a54600b80546000926001600160a01b0316916382913d8291600080516020613a45833981519152918a918990811061155d5761155d613565565b90600052602060002090600202016000016040518463ffffffff1660e01b815260040161158c939291906137d6565b60206040518083038186803b1580156115a457600080fd5b505afa1580156115b8573d6000803e3d6000fd5b505050506040513d601f19601f820116820180604052508101906115dc9190613463565b600754600a54604051636609288f60e01b8152600160a01b90910460ff16600482015260248101869052604481018390529192506001600160a01b031690636609288f906064016113b3565b600381600381111561163c5761163c613386565b141561177957600a54600b80546000926001600160a01b03169163450a52d091600080516020613a45833981519152918a918990811061167e5761167e613565565b90600052602060002090600202016000016040518463ffffffff1660e01b81526004016116ad939291906137d6565b60206040518083038186803b1580156116c557600080fd5b505afa1580156116d9573d6000803e3d6000fd5b505050506040513d601f19601f820116820180604052508101906116fd9190613446565b600754600a5460405163d713085b60e01b8152600160a01b90910460ff1660048201526024810186905282151560448201529192506001600160a01b03169063d713085b90606401600060405180830381600087803b15801561175f57600080fd5b505af1158015611773573d6000803e3d6000fd5b50505050505b50505b8061178681613591565b915050611176565b505050808061179c90613591565b915050610e96565b50600a831480156117b3575081155b156119e6576006546000906001600160a01b03166361da1439868660048181106117df576117df613565565b905060200201356040518263ffffffff1660e01b815260040161180491815260200190565b60206040518083038186803b15801561181c57600080fd5b505afa158015611830573d6000803e3d6000fd5b505050506040513d601f19601f820116820180604052508101906118549190613463565b9050600073__Util__________________________________63dfbd4a0583600a60009054906101000a90046001600160a01b03166001600160a01b03166319cd4c3d6040518163ffffffff1660e01b815260040160006040518083038186803b1580156118c157600080fd5b505afa1580156118d5573d6000803e3d6000fd5b505050506040513d6000823e601f3d908101601f191682016040526118fd9190810190613688565b6040518363ffffffff1660e01b815260040161191a929190613817565b60206040518083038186803b15801561193257600080fd5b505af4158015611946573d6000803e3d6000fd5b505050506040513d601f19601f8201168201806040525081019061196a9190613463565b600754600a5460405163d713085b60e01b8152600160a01b90910460ff16600482015260248101839052600160448201529192506001600160a01b03169063d713085b90606401600060405180830381600087803b1580156119cb57600080fd5b505af11580156119df573d6000803e3d6000fd5b5050505050505b5050505050565b60065460408051633f4e455560e11b815290516000926001600160a01b031691637e9c8aaa916004808301926020929190829003018186803b158015611a3257600080fd5b505afa158015611a46573d6000803e3d6000fd5b505050506040513d601f19601f82011682018060405250810190611a6a9190613463565b905090565b610bc881612a07565b6000546001600160a01b03163314611aa25760405162461bcd60e51b81526004016109ac90613530565b610bc8816125dd565b6000546001600160a01b03163314611ad55760405162461bcd60e51b81526004016109ac90613530565b610bc8816124f3565b6000828152600260205260408120611af69083612a89565b9392505050565b60009182526001602090815260408084206001600160a01b0393909316845291905290205460ff1690565b6000546001600160a01b03163314611b525760405162461bcd60e51b81526004016109ac90613530565b610bc87f9f2df0fed2c77648de5860a4cc508cd0818c85b8b8a1ab4ceeef8d981c8956a682612a95565b6000546001600160a01b03163314611ba65760405162461bcd60e51b81526004016109ac90613530565b610bc88161258f565b600b8181548110611bbf57600080fd5b9060005260206000209060020201600091509050806000018054611be2906134f5565b80601f0160208091040260200160405190810160405280929190818152602001828054611c0e906134f5565b8015611c5b5780601f10611c3057610100808354040283529160200191611c5b565b820191906000526020600020905b815481529060010190602001808311611c3e57829003601f168201915b5050506001909301549192505060ff8082169161010090041683565b610bc881612a9f565b60008181526002602052604081206107a990612b1c565b611caf600080516020613a6583398151915233611afd565b611ccb5760405162461bcd60e51b81526004016109ac9061347c565b60405180604001604052806003815260200162524e4760e81b815250604051602001611cf791906134d9565b60405160208183030381529060405280519060200120811415611d1e57610bc860006124f3565b7fdfa926e49ecb76ef0407533073c674d3e6a6fb4a00d7941099f34757f314c42e811415611d5057610bc86000612541565b7fc227f98e618597415dca1f5035d597d1e75936952bfd5d741271dd85ba110d90811415611d8257610bc8600061258f565b6040518060400160405280600b81526020016a447261676f6e537461747360a81b815250604051602001611db691906134d9565b60405160208183030381529060405280519060200120811415611ddd57610bc860006125dd565b7feb9cbd77d805ba9b0c4bf1b12c07e59c028821bd6b4866e90c098f77c69821e5811415610bc857610bc86000612724565b60008281526001602081905260409091200154611e2c81336127e1565b610a078383612867565b6000546001600160a01b03163314611e605760405162461bcd60e51b81526004016109ac90613530565b610b9361243e565b606060008267ffffffffffffffff811115611e8557611e856135ac565b604051908082528060200260200182016040528015611eae578160200160208202803683370190505b50905060005b83811015611f83576006546001600160a01b03166361da1439868684818110611edf57611edf613565565b905060200201356040518263ffffffff1660e01b8152600401611f0491815260200190565b60206040518083038186803b158015611f1c57600080fd5b505afa158015611f30573d6000803e3d6000fd5b505050506040513d601f19601f82011682018060405250810190611f549190613463565b828281518110611f6657611f66613565565b602090810291909101015280611f7b81613591565b915050611eb4565b509392505050565b60048054611f98906134f5565b80601f0160208091040260200160405190810160405280929190818152602001828054611fc4906134f5565b80156120115780601f10611fe657610100808354040283529160200191612011565b820191906000526020600020905b815481529060010190602001808311611ff457829003601f168201915b505050505081565b6000546001600160a01b031633146120435760405162461bcd60e51b81526004016109ac90613530565b610b93612476565b6000546001600160a01b031633146120755760405162461bcd60e51b81526004016109ac90613530565b6001600160a01b0381166120da5760405162461bcd60e51b815260206004820152602660248201527f4f776e61626c653a206e6577206f776e657220697320746865207a65726f206160448201526564647265737360d01b60648201526084016109ac565b610bc8816129b7565b6000546001600160a01b0316331461210d5760405162461bcd60e51b81526004016109ac90613530565b61097482826124ab565b600d5460ff16612218576000818152600e60205260409020548061217d5760405162461bcd60e51b815260206004820152601e60248201527f556e61636365707461626c652063617264207061636b6167652073697a65000060448201526064016109ac565b6009546001600160a01b03166323b872dd336040516001600160e01b031960e084901b1681526001600160a01b03909116600482015230602482015260448101849052606401602060405180830381600087803b1580156121dd57600080fd5b505af11580156121f1573d6000803e3d6000fd5b505050506040513d601f19601f820116820180604052508101906122159190613446565b50505b60005b81811015610a07576006546001600160a01b031663f14fcbc884848481811061224657612246613565565b905060200201356040518263ffffffff1660e01b815260040161226b91815260200190565b600060405180830381600087803b15801561228557600080fd5b505af1158015612299573d6000803e3d6000fd5b5050505080806122a890613591565b91505061221b565b6122ba8282611afd565b6109745760008281526001602081815260408084206001600160a01b0386168086529252808420805460ff19169093179092559051339285917f2f8788117e7eff1d82e926ec794901d17c78024a50270940304540a733656f0d9190a45050565b6000611af6836001600160a01b038416612b26565b60006001600160e01b03198216635a05180f60e01b14806107a957506107a982612b75565b61236d600080516020613a6583398151915233611afd565b6123895760405162461bcd60e51b81526004016109ac9061347c565b600380546001600160a01b0319166001600160a01b0383811691821790925560408051928516835260208301919091527ff6515f2a6d531f16723c1e578303b7d74152bf8c0fa3bee828700a3d4706da8d91015b60405180910390a15050565b600a805460ff60a01b1916600160a01b60ff8416908102919091179091556040519081527f41782dd890df0a3491b1bc75084dd76333411510ccf98930ead07069649bf2a9906020015b60405180910390a150565b600d805460ff191660011790556040517fc36fa5b2c65cc16b04fc2a4e8622ec78390fff9f6d31982fa5e86f965f7bb44090600090a1565b600d805460ff191690556040517f34215299ad73e5b22bebc5f9f87bc797f4871a6cefaefaced769b9509e45072990600090a1565b6000828152600e602090815260409182902083905581518481529081018390527ff9317dc3bc6dda0e00e43855c2c30847aeafb8dcea9d2ce86e9ce7a83d549f0191016123dd565b600680546001600160a01b0319166001600160a01b0383169081179091556040519081527fdbc0b62a2eda1281b7091c1fc7f8105f99775c93b143930dd077ba6d4b32c87e90602001612433565b600780546001600160a01b0319166001600160a01b0383169081179091556040519081527fd6bd8455a554480b643ff6104fea79e1a7c1b27d210a7e7911a3b6a3c64b707990602001612433565b600880546001600160a01b0319166001600160a01b0383169081179091556040519081527f7869e3c19f5ec29481a8433791a06441db7b22cd85336da47df97fd7b686ba2a90602001612433565b600a80546001600160a01b0319166001600160a01b0383169081179091551561269f57600a54604051632ba5d5a360e21b8152600080516020613a4583398151915260048201526000916001600160a01b03169063ae97568c9060240160006040518083038186803b15801561265257600080fd5b505afa158015612666573d6000803e3d6000fd5b505050506040513d6000823e601f3d908101601f1916820160405261268e9190810190613830565b905061269981612baa565b506126eb565b604080516000808252602082019092526126eb916126e5565b60408051606080820183528152600060208083018290529282015282526000199092019101816126b85790505b50612baa565b6040516001600160a01b03821681527f8eabd18158736228e0bcd01444e967ae9262cdb0e8a88fb154542a13f701bf7b90602001612433565b600980546001600160a01b0319166001600160a01b0383169081179091556040519081527f9f64ee8849dd676d56ded45da7c528779e17232f6a237fbe4fcdb3be2c0b60a090602001612433565b61278a600080516020613a6583398151915233611afd565b6127a65760405162461bcd60e51b81526004016109ac9061347c565b600380546001600160a01b03191690556040517f9a9a74cf290a994f69a718e8557deb1dd65135268f40e660cecddf675f5dd51490600090a1565b6127eb8282611afd565b61097457612803816001600160a01b03166014612c77565b61280e836020612c77565b60405160200161281f929190613954565b60408051601f198184030181529082905262461bcd60e51b82526109ac916004016131ed565b61284f82826122b0565b6000828152600260205260409020610a07908261231b565b6128718282612e13565b6000828152600260205260409020610a079082612e7a565b6128a1600080516020613a6583398151915233611afd565b6128bd5760405162461bcd60e51b81526004016109ac9061347c565b600380546001600160a01b0319166001600160a01b0383161790556128f0600080516020613a6583398151915282610c63565b612908600080516020613a6583398151915233611e0f565b6040516001600160a01b03821681527f8eb47098f9568be754f51d21a870c8091ee0242cf97418db00927326d0e6ffcf90602001612433565b612959600080516020613a6583398151915233611afd565b6129755760405162461bcd60e51b81526004016109ac9061347c565b61297e8161204b565b6040516001600160a01b03821681527ff2addf7f813887cf0fdd82b58fcc379ab2301e95c90b41a8cf2e5401914689c990602001612433565b600080546001600160a01b038381166001600160a01b0319831681178455604051919092169283917f8be0079c531659141344cd1fd0a4f28419497f9722a3daafe3b4186f6b6457e09190a35050565b612a1f600080516020613a6583398151915233611afd565b612a3b5760405162461bcd60e51b81526004016109ac9061347c565b600380546001600160a01b0319166001600160a01b0383169081179091556040519081527f89c66952b48f3e96bf1d8ba1b63189520fd988a6979b8b740bd5c5d8dc53e20590602001612433565b6000611af68383612e8f565b6109748282612845565b612ab7600080516020613a6583398151915233611afd565b612ad35760405162461bcd60e51b81526004016109ac9061347c565b600380546001600160a01b03191690556040516001600160a01b03821681527f85a56ff958486f55dd742819603a46ba6233d3b24e6715f9cd5fd2ef6425d68090602001612433565b60006107a9825490565b6000818152600183016020526040812054612b6d575081546001818101845560008481526020808220909301849055845484825282860190935260409020919091556107a9565b5060006107a9565b60006001600160e01b03198216637965db0b60e01b14806107a957506301ffc9a760e01b6001600160e01b03198316146107a9565b612bb6600b6000612fac565b60005b8151811015612c7057600b828281518110612bd657612bd6613565565b602090810291909101810151825460018101845560009384529282902081518051929460020290910192612c0f92849290910190612fcd565b50602082015160018083018054909160ff1990911690836003811115612c3757612c37613386565b021790555060409190910151600190910180549115156101000261ff001990921691909117905580612c6881613591565b915050612bb9565b5051600c55565b60606000612c868360026139c9565b612c919060026139e8565b67ffffffffffffffff811115612ca957612ca96135ac565b6040519080825280601f01601f191660200182016040528015612cd3576020820181803683370190505b509050600360fc1b81600081518110612cee57612cee613565565b60200101906001600160f81b031916908160001a905350600f60fb1b81600181518110612d1d57612d1d613565565b60200101906001600160f81b031916908160001a9053506000612d418460026139c9565b612d4c9060016139e8565b90505b6001811115612dc4576f181899199a1a9b1b9c1cb0b131b232b360811b85600f1660108110612d8057612d80613565565b1a60f81b828281518110612d9657612d96613565565b60200101906001600160f81b031916908160001a90535060049490941c93612dbd81613a00565b9050612d4f565b508315611af65760405162461bcd60e51b815260206004820181905260248201527f537472696e67733a20686578206c656e67746820696e73756666696369656e7460448201526064016109ac565b612e1d8282611afd565b156109745760008281526001602090815260408083206001600160a01b0385168085529252808320805460ff1916905551339285917ff6391f5c32d9c69d2a47ea670b442974b53935d1edc7fd64eb21e047a839171b9190a45050565b6000611af6836001600160a01b038416612eb9565b6000826000018281548110612ea657612ea6613565565b9060005260206000200154905092915050565b60008181526001830160205260408120548015612fa2576000612edd600183613a17565b8554909150600090612ef190600190613a17565b9050818114612f56576000866000018281548110612f1157612f11613565565b9060005260206000200154905080876000018481548110612f3457612f34613565565b6000918252602080832090910192909255918252600188019052604090208390555b8554869080612f6757612f67613a2e565b6001900381819060005260206000200160009055905585600101600086815260200190815260200160002060009055600193505050506107a9565b60009150506107a9565b5080546000825560020290600052602060002090810190610bc89190613051565b828054612fd9906134f5565b90600052602060002090601f016020900481019282612ffb5760008555613041565b82601f1061301457805160ff1916838001178555613041565b82800160010185558215613041579182015b82811115613041578251825591602001919060010190613026565b5061304d92915061307b565b5090565b8082111561304d5760006130658282613090565b5060018101805461ffff19169055600201613051565b5b8082111561304d576000815560010161307c565b50805461309c906134f5565b6000825580601f106130ac575050565b601f016020900490600052602060002090810190610bc8919061307b565b6000602082840312156130dc57600080fd5b81356001600160e01b031981168114611af657600080fd5b80356001600160a01b038116811461310b57600080fd5b919050565b6000806040838503121561312357600080fd5b61312c836130f4565b915061313a602084016130f4565b90509250929050565b8015158114610bc857600080fd5b60008060006060848603121561316657600080fd5b83359250613176602085016130f4565b9150604084013561318681613143565b809150509250925092565b60005b838110156131ac578181015183820152602001613194565b838111156131bb576000848401525b50505050565b600081518084526131d9816020860160208601613191565b601f01601f19169290920160200192915050565b602081526000611af660208301846131c1565b60ff81168114610bc857600080fd5b60006020828403121561322157600080fd5b8135611af681613200565b60006020828403121561323e57600080fd5b5035919050565b60008083601f84011261325757600080fd5b50813567ffffffffffffffff81111561326f57600080fd5b6020830191508360208260051b850101111561328a57600080fd5b9250929050565b600080602083850312156132a457600080fd5b823567ffffffffffffffff8111156132bb57600080fd5b6132c785828601613245565b90969095509350505050565b600080604083850312156132e657600080fd5b8235915061313a602084016130f4565b60006020828403121561330857600080fd5b611af6826130f4565b60008060006040848603121561332657600080fd5b61332f846130f4565b9250602084013567ffffffffffffffff81111561334b57600080fd5b61335786828701613245565b9497909650939450505050565b6000806040838503121561337757600080fd5b50508035926020909101359150565b634e487b7160e01b600052602160045260246000fd5b6060815260006133af60608301866131c1565b9050600484106133cf57634e487b7160e01b600052602160045260246000fd5b8360208301528215156040830152949350505050565b6020808252825182820181905260009190848201906040850190845b8181101561341d57835183529284019291840191600101613401565b50909695505050505050565b60006020828403121561343b57600080fd5b8151611af681613200565b60006020828403121561345857600080fd5b8151611af681613143565b60006020828403121561347557600080fd5b5051919050565b6020808252603b908201527f43726f7373436f6e74726163744d616e4c697374656e65723a2074686520636160408201527f6c6c6572206d7573742068617665204d414e414745525f524f4c450000000000606082015260800190565b600082516134eb818460208701613191565b9190910192915050565b600181811c9082168061350957607f821691505b6020821081141561352a57634e487b7160e01b600052602260045260246000fd5b50919050565b6020808252818101527f4f776e61626c653a2063616c6c6572206973206e6f7420746865206f776e6572604082015260600190565b634e487b7160e01b600052603260045260246000fd5b634e487b7160e01b600052601160045260246000fd5b60006000198214156135a5576135a561357b565b5060010190565b634e487b7160e01b600052604160045260246000fd5b6040516060810167ffffffffffffffff811182821017156135e5576135e56135ac565b60405290565b604051601f8201601f1916810167ffffffffffffffff81118282101715613614576136146135ac565b604052919050565b600082601f83011261362d57600080fd5b815167ffffffffffffffff811115613647576136476135ac565b61365a601f8201601f19166020016135eb565b81815284602083860101111561366f57600080fd5b613680826020830160208701613191565b949350505050565b60006020828403121561369a57600080fd5b815167ffffffffffffffff8111156136b157600080fd5b6136808482850161361c565b60018060a01b03851681528360208201528260408201526080606082015260006136ea60808301846131c1565b9695505050505050565b83815282602082015260606040820152600061371360608301846131c1565b95945050505050565b8054600090600181811c908083168061373657607f831692505b602080841082141561375857634e487b7160e01b600052602260045260246000fd5b83885281801561376f5760018114613783576137b1565b60ff198616898301526040890196506137b1565b876000528160002060005b868110156137a95781548b820185015290850190830161378e565b8a0183019750505b50505050505092915050565b828152604060208201526000613680604083018461371c565b838152826020820152606060408201526000613713606083018461371c565b60ff8416815282602082015260606040820152600061371360608301846131c1565b82815260406020820152600061368060408301846131c1565b6000602080838503121561384357600080fd5b825167ffffffffffffffff8082111561385b57600080fd5b818501915085601f83011261386f57600080fd5b815181811115613881576138816135ac565b8060051b6138908582016135eb565b91825283810185019185810190898411156138aa57600080fd5b86860192505b83831015613947578251858111156138c85760008081fd5b86016060818c03601f19018113156138e05760008081fd5b6138e86135c2565b89830151888111156138fa5760008081fd5b6139088e8c8387010161361c565b8252506040808401516004811061391f5760008081fd5b828c0152928201519261393184613143565b81019290925250825291860191908601906138b0565b9998505050505050505050565b7f416363657373436f6e74726f6c3a206163636f756e742000000000000000000081526000835161398c816017850160208801613191565b7001034b99036b4b9b9b4b733903937b6329607d1b60179184019182015283516139bd816028840160208801613191565b01602801949350505050565b60008160001904831182151516156139e3576139e361357b565b500290565b600082198211156139fb576139fb61357b565b500190565b600081613a0f57613a0f61357b565b506000190190565b600082821015613a2957613a2961357b565b500390565b634e487b7160e01b600052603160045260246000fdfe37a3c4a2a635dedf6a4912ec5757511a1f2fa87cb349543d4751fc18c65e4273241ecf16d79d0f8dbfb92cbc07fe17840425976cf0667f022fe9877caa831b08a264697066735822122038b8f54ac36d14f541d543ef839b25cfa5de458728c0b03aae490daebef5706e64736f6c63430008090033",
  "immutableReferences": {},
  "source": "/**\n * Dragon card minter logic. Creates Unique dragon NFTs with unique IDs and all necessary data tags\n * SPDX-License-Identifier: MIT\n * @title Dragon Cards Minter\n * @author CryptoHog\n * @notice This smart contract implements core dragon cards minting logic.\n * @dev The smart contract performs the following functions\n *  - accepts orders to create a given number of new dragon cards\n *  - talks to RNG to generate unique card IDs\n *  - derives from card ID its static and iniotial dynamic stats\n *  - talks to the NFT1155 to create card's NFT\n *  - talks to the Tag Storage to store the dynamic stats\n**/\n\npragma solidity ^0.8.0;\n\nimport \"@openzeppelin/contracts/access/AccessControlEnumerable.sol\";\nimport \"@openzeppelin/contracts/utils/Context.sol\";\nimport \"@openzeppelin/contracts/access/Ownable.sol\";\nimport \"./dependencies/IBEP20.sol\";\nimport \"./FireZardNFT.sol\";\nimport \"./IRNG.sol\";\nimport \"./RNG.sol\";\nimport \"./IStatsDerive.sol\";\nimport \"./DragonStats.sol\";\nimport \"./StatsView.sol\";\nimport \"./TagStorage.sol\";\nimport \"./CrossContractManListener.sol\";\nimport {Util} from \"./Util.sol\";\n\ncontract DragonMinter is CrossContractManListener {\n    string  public contract_name = Util.DRAGON_MINTER_CONTRACT_NAME;\n    bytes32 public contract_id = Util.DRAGON_MINTER_CONTRACT_ID;\n    bytes32 public constant MINTER_ROLE = keccak256('MINTER_ROLE');\n\n    address public      RNG_addr;\n    address public\tTAG_addr;\n    address public\tNFT_addr;\n    address public\tFLAME_addr;\n    address public\tstats_lib_addr;\n\n    uint8 public \tgroup_id;\n    Util.Stat[] public stats;\n    uint256 public\tstats_length;\n\n    bool public\t\ttestMode=true;\n\n    mapping(uint256 => uint256) public\tprice_list;\n\n    modifier isMinter() {\n\t_;\n    }\n\n    function getName() view external returns(string memory) {\n\treturn contract_name;\n    }\n\n    function getId() view external returns(bytes32) {\n\treturn contract_id;\n    }\n\n    function onListenAdded(bytes32 hname, address contractInstance, bool isNew) external onlyManager {\n\tif(hname == Util.RNG_CONTRACT_ID){\n    \t    _linkRNG(contractInstance);\n    \t    return;\n\t}\n\tif(hname == Util.TAG_STORAGE_CONTRACT_ID){\n    \t    _linkTAG(contractInstance);\n    \t    return;\n\t}\n\tif(hname == Util.NFT_CONTRACT_ID){\n    \t    _linkNFT(contractInstance);\n    \t    return;\n\t}\n\tif(hname == Util.DRAGON_STATS_CONTRACT_ID){\n    \t    _linkStatsLib(contractInstance);\n    \t    return;\n\t}\n\tif(hname == Util.FLAME_CONTRACT_ID){\n    \t    _linkFLAME(contractInstance);\n    \t    return;\n\t}\n    }\n\n    function onListenRemoved(bytes32 hname) external onlyManager {\n\tif(hname == Util.RNG_CONTRACT_ID){\n    \t    _linkRNG(address(0));\n    \t    return;\n\t}\n\tif(hname == Util.TAG_STORAGE_CONTRACT_ID){\n    \t    _linkTAG(address(0));\n    \t    return;\n\t}\n\tif(hname == Util.NFT_CONTRACT_ID){\n    \t    _linkNFT(address(0));\n    \t    return;\n\t}\n\tif(hname == Util.DRAGON_STATS_CONTRACT_ID){\n    \t    _linkStatsLib(address(0));\n    \t    return;\n\t}\n\tif(hname == Util.FLAME_CONTRACT_ID){\n    \t    _linkFLAME(address(0));\n    \t    return;\n\t}\n    }\n\n    function onUpdate(address oldInstance, address _manager) external override {\n\tsuper._onUpdate(oldInstance, _manager);\n\t_setTagGroupId(DragonMinter(oldInstance).group_id());\n\tif(DragonMinter(oldInstance).testMode())\n\t    _disableMintFee();\n\telse\n\t    _enableMintFee();\n\t_setPrice(1,  DragonMinter(oldInstance).getPrice(1));\n\t_setPrice(10, DragonMinter(oldInstance).getPrice(10));\n    }\n\n    function _linkRNG(address rng_contract) internal {\n\tRNG_addr = rng_contract;\n\temit RNGLink(rng_contract);\n    }\n\n    function _linkTAG(address tag_storage) internal {\n\tTAG_addr = tag_storage;\n\temit TAGLink(tag_storage);\n    }\n\n    function _linkNFT(address nft_container) internal {\n\tNFT_addr = nft_container;\n\temit NFTLink(nft_container);\n    }\n\n    function _linkFLAME(address _flame) internal {\n\tFLAME_addr = _flame;\n\temit FLAMELink(_flame);\n    }\n\n    function _linkStatsLib(address stats_lib) internal {\n\tstats_lib_addr = stats_lib;\n\tif(stats_lib != address(0)){\n\t    Util.Stat[] memory _stats = IStatsDerive(stats_lib_addr).stats(Util.DRAGON_CARD_TYPE_CODE);\n\t    saveStats(_stats);\n\t}else\n\t    saveStats(new Util.Stat[](0));\n\temit StatsLibLink(stats_lib);\n    }\n\n    function saveStats(Util.Stat[] memory _stats) internal {\n\tdelete stats;\n\tfor(uint256 i=0;i<_stats.length;i++){\n\t    stats.push(_stats[i]);\n\t}\n\tstats_length = _stats.length;\n    }\n\n    /**\n     * @notice Sets link to RNG smart contract\n    **/\n    function linkRNG(address rng_contract) public virtual onlyOwner {\n\t_linkRNG(rng_contract);\n    }\n\n    /**\n     * @notice Sets link to Tag Storage smart contract\n    **/\n    function linkTAG(address tag_storage) public virtual onlyOwner {\n\t_linkTAG(tag_storage);\n    }\n\n    /**\n     * @notice Sets link to ERC1155 NFT smart contract\n    **/\n    function linkNFT(address nft_container) public virtual onlyOwner {\n\t_linkNFT(nft_container);\n    }\n\n    /**\n     * @notice Sets link to BEP20 FLAME smart contract\n    **/\n    function linkFLAME(address _flame) public virtual onlyOwner {\n\t_linkFLAME(_flame);\n    }\n\n    /**\n     * @notice Sets link to the Stats deriving library\n    **/\n    function linkStatsLib(address stats_lib) public virtual onlyOwner {\n\t_linkStatsLib(stats_lib);\n    }\n\n    /**\n     * @notice Sets group ID for the Dragon card minter within Tag Storage\n    **/\n    function setTagGroupId(uint8 _group_id) public virtual onlyOwner {\n\t_setTagGroupId(_group_id);\n    }\n\n    function _setTagGroupId(uint8 _group_id) internal {\n\tgroup_id = _group_id;\n\temit TAGGroupID(_group_id);\n    }\n\n\n    /**\n     * @notice Adds minter's role\n     * \n     * @param entity An address of a contract or external\n    **/\n    function addMinter(address entity) public virtual onlyOwner {\n\t_setupRole(MINTER_ROLE, entity);\n    }\n\n    /**\n     * @notice Removes minter's role\n     * \n     * @param entity An address of a contract or external\n    **/\n    function removeMinter(address entity) public virtual onlyOwner {\n\trevokeRole(MINTER_ROLE, entity);\n    }\n\n    function enableMintFee() public virtual onlyOwner {\n\t_enableMintFee();\n    }\n\n    function _enableMintFee() internal {\n\ttestMode = false;\n\temit EnableMintFee();\n    }\n\n    function disableMintFee() public virtual onlyOwner {\n\t_disableMintFee();\n    }\n\n    function _disableMintFee() internal {\n\ttestMode = true;\n\temit DisableMintFee();\n    }\n\n    function setPrice(uint256 size, uint256 price) public virtual onlyOwner {\n\t_setPrice(size, price);\n    }\n\n    function _setPrice(uint256 size, uint256 price) internal {\n\tprice_list[size] = price;\n\temit SetPrice(size, price);\n    }\n\n\n    function getPrice(uint256 size) public virtual view returns (uint256) {\n\treturn price_list[size];\n    }\n\n    /**\n     * @notice Initializes RNG with an array of entropy's commitments from user's side.\n     * This should be called before revealing the cards.\n     * The size of the array equals the number of cards to create. Cards are not revealed so far.\n     * At this point the cards are hidden. It is only known how many cards will be revealed/created.\n     * The cards can be revealed after certain amount of time specific to the RNG.\n     * @dev    Calls RNG's init procedure for every card. Read more about generating randomness in IRNG.sol\n     *\n     * @param commitment Array of commitments of user's entropy for all new cards to create.\n    **/\n    function initPackage(bytes32[] calldata commitment) external virtual {\n\tif(!testMode){\n\t    uint256 price = getPrice(commitment.length);\n\t    require(price > 0, \"Unacceptable card package size\");\n\t    IBEP20(FLAME_addr).transferFrom(_msgSender(),address(this),price);\n\t}\n\tfor(uint i=0;i<commitment.length;i++)\n\t    IRNG(RNG_addr).commit(commitment[i]);\n    }\n\n    /**\n     * @notice Lock an array of client's entropies that have been commited earlier\n     *\n     * @param entropy The array of client's entropies\n    **/\n    function lockPackage(bytes32[] calldata entropy) external virtual {\n\tfor(uint i=0;i<entropy.length;i++){\n\t    IRNG(RNG_addr).lock(entropy[i]);\n\t}\n    }\n\n    /**\n     * @notice Reveales new dragon cards unique IDs basing on the entropy's commitments from user's side.\n     * Mints respective NFT ERC1155 tokens, derives the cards' stats and stores them into the Tag Storage\n     * @dev See IRNG.sol for details on how random unique IDs are generated from the user's entropy commitments\n     *\n     * @param commitment Array of commitments of user's entropy for all new cards to create.\n    **/\n    function openPackage(address recipient, bytes32[] calldata commitment) external virtual {\n\tbool non_common_found = false;\n\tstring memory rarity = DragonStats(stats_lib_addr).RARITY_STR();\n\tfor(uint i=0;i<commitment.length;i++){\n\t    uint256 nft_id=IRNG(RNG_addr).read(commitment[i]);\n\t    require(FireZardNFT(NFT_addr).totalSupply(nft_id) == 0, \"Same dragon card can be openned at most once\");\n\t    FireZardNFT(NFT_addr).mint(\n\t\trecipient,\n\t\tnft_id,\n\t\t1,\n\t\tabi.encodePacked(Util.DRAGON_CARD_TYPE_CODE)\n\t    );\n\t    Util.CardRarity rarity_val = Util.CardRarity(IStatsDerive(stats_lib_addr).getStatInt(Util.DRAGON_CARD_TYPE_CODE, nft_id, rarity));\n\t    if(rarity_val != Util.CardRarity.Common)\n\t\tnon_common_found = true;\n\t    for(uint j=0;j<stats_length;j++){\n\t\tif(!stats[j].is_mutable)continue;\n\t\tbytes32 tag_key = Util.getTagKey(nft_id,stats[j].name);\n\t\tUtil.StatType statType = stats[j].statType;\n\t\tif(statType == Util.StatType.Integer){\n\t\t    uint256 tag_value = IStatsDerive(stats_lib_addr).getStatInt(Util.DRAGON_CARD_TYPE_CODE, nft_id, stats[j].name);\n\t\t    TagStorage(TAG_addr).setTag(group_id, tag_key, tag_value);\n\t\t}else if(statType == Util.StatType.String){\n\t\t    string memory tag_value = IStatsDerive(stats_lib_addr).getStatString(Util.DRAGON_CARD_TYPE_CODE, nft_id, stats[j].name);\n\t\t    TagStorage(TAG_addr).setTag(group_id, tag_key, tag_value);\n\t\t}else if(statType == Util.StatType.ByteArray){\n\t\t    bytes32 tag_value = IStatsDerive(stats_lib_addr).getStatByte32(Util.DRAGON_CARD_TYPE_CODE, nft_id, stats[j].name);\n\t\t    TagStorage(TAG_addr).setTag(group_id, tag_key, tag_value);\n\t\t}else if(statType == Util.StatType.Boolean){\n\t\t    bool tag_value = IStatsDerive(stats_lib_addr).getStatBool(Util.DRAGON_CARD_TYPE_CODE, nft_id, stats[j].name);\n\t\t    TagStorage(TAG_addr).setTag(group_id, tag_key, tag_value);\n\t\t}\n\t    }\n\t}\n\tif((commitment.length == 10)&&(!non_common_found)){\n\t    uint256 nft_id=IRNG(RNG_addr).read(commitment[4]);\n\t    bytes32 tag_key = Util.getTagKey(nft_id, DragonStats(stats_lib_addr).RARITY_OVERRIDE_STR());\n\t    TagStorage(TAG_addr).setTag(group_id, tag_key, true);\n\t}\n    }\n\n    function readPackage(bytes32[] calldata commitment) external virtual view returns (uint256[] memory) {\n\tuint256[] memory\tids = new uint256[](commitment.length);\n\tfor(uint i=0;i<commitment.length;i++)\n\t    ids[i] = IRNG(RNG_addr).read(commitment[i]);\n\treturn ids;\n    }\n\n    function getBlockConfirmationCap() external view returns (uint256){\n\treturn RNG(RNG_addr).getBlockConfirmationCap();\n    }\n\n    event RNGLink(address rng_contract);\n    event StatsLibLink(address stats_lib);\n    event TAGGroupID(uint8 group_id);\n    event TAGLink(address tag_storage);\n    event NFTLink(address nft_container);\n    event FLAMELink(address _flame);\n    event EnableMintFee();\n    event DisableMintFee();\n    event SetPrice(uint256 size, uint256 price);\n}\n",
  "sourcePath": "/home/vrogojin/Projects/FireZard/nft/contracts/DragonMinter.sol",
  "compiler": {
    "name": "solc",
    "version": "0.8.9+commit.e5eed63a.Emscripten.clang"
  },
  "schemaVersion": "3.4.3",
  "updatedAt": "2022-02-10T15:18:19.038Z",
  "networkType": "ethereum",
  "devdoc": {
    "kind": "dev",
    "methods": {
      "addMinter(address)": {
        "params": {
          "entity": "An address of a contract or external*"
        }
      },
      "getRoleAdmin(bytes32)": {
        "details": "Returns the admin role that controls `role`. See {grantRole} and {revokeRole}. To change a role's admin, use {_setRoleAdmin}."
      },
      "getRoleMember(bytes32,uint256)": {
        "details": "Returns one of the accounts that have `role`. `index` must be a value between 0 and {getRoleMemberCount}, non-inclusive. Role bearers are not sorted in any particular way, and their ordering may change at any point. WARNING: When using {getRoleMember} and {getRoleMemberCount}, make sure you perform all queries on the same block. See the following https://forum.openzeppelin.com/t/iterating-over-elements-on-enumerableset-in-openzeppelin-contracts/2296[forum post] for more information."
      },
      "getRoleMemberCount(bytes32)": {
        "details": "Returns the number of accounts that have `role`. Can be used together with {getRoleMember} to enumerate all bearers of a role."
      },
      "grantRole(bytes32,address)": {
        "details": "Grants `role` to `account`. If `account` had not been already granted `role`, emits a {RoleGranted} event. Requirements: - the caller must have ``role``'s admin role."
      },
      "hasRole(bytes32,address)": {
        "details": "Returns `true` if `account` has been granted `role`."
      },
      "initPackage(bytes32[])": {
        "details": "Calls RNG's init procedure for every card. Read more about generating randomness in IRNG.sol",
        "params": {
          "commitment": "Array of commitments of user's entropy for all new cards to create.*"
        }
      },
      "lockPackage(bytes32[])": {
        "params": {
          "entropy": "The array of client's entropies*"
        }
      },
      "openPackage(address,bytes32[])": {
        "details": "See IRNG.sol for details on how random unique IDs are generated from the user's entropy commitments",
        "params": {
          "commitment": "Array of commitments of user's entropy for all new cards to create.*"
        }
      },
      "owner()": {
        "details": "Returns the address of the current owner."
      },
      "removeMinter(address)": {
        "params": {
          "entity": "An address of a contract or external*"
        }
      },
      "renounceOwnership()": {
        "details": "Leaves the contract without owner. It will not be possible to call `onlyOwner` functions anymore. Can only be called by the current owner. NOTE: Renouncing ownership will leave the contract without an owner, thereby removing any functionality that is only available to the owner."
      },
      "renounceRole(bytes32,address)": {
        "details": "Revokes `role` from the calling account. Roles are often managed via {grantRole} and {revokeRole}: this function's purpose is to provide a mechanism for accounts to lose their privileges if they are compromised (such as when a trusted device is misplaced). If the calling account had been revoked `role`, emits a {RoleRevoked} event. Requirements: - the caller must be `account`."
      },
      "revokeRole(bytes32,address)": {
        "details": "Revokes `role` from `account`. If `account` had been granted `role`, emits a {RoleRevoked} event. Requirements: - the caller must have ``role``'s admin role."
      },
      "supportsInterface(bytes4)": {
        "details": "See {IERC165-supportsInterface}."
      },
      "transferOwnership(address)": {
        "details": "Transfers ownership of the contract to a new account (`newOwner`). Can only be called by the current owner."
      }
    },
    "version": 1
  },
  "userdoc": {
    "kind": "user",
    "methods": {
      "addMinter(address)": {
        "notice": "Adds minter's role "
      },
      "initPackage(bytes32[])": {
        "notice": "Initializes RNG with an array of entropy's commitments from user's side. This should be called before revealing the cards. The size of the array equals the number of cards to create. Cards are not revealed so far. At this point the cards are hidden. It is only known how many cards will be revealed/created. The cards can be revealed after certain amount of time specific to the RNG."
      },
      "linkFLAME(address)": {
        "notice": "Sets link to BEP20 FLAME smart contract*"
      },
      "linkNFT(address)": {
        "notice": "Sets link to ERC1155 NFT smart contract*"
      },
      "linkRNG(address)": {
        "notice": "Sets link to RNG smart contract*"
      },
      "linkStatsLib(address)": {
        "notice": "Sets link to the Stats deriving library*"
      },
      "linkTAG(address)": {
        "notice": "Sets link to Tag Storage smart contract*"
      },
      "lockPackage(bytes32[])": {
        "notice": "Lock an array of client's entropies that have been commited earlier"
      },
      "openPackage(address,bytes32[])": {
        "notice": "Reveales new dragon cards unique IDs basing on the entropy's commitments from user's side. Mints respective NFT ERC1155 tokens, derives the cards' stats and stores them into the Tag Storage"
      },
      "removeMinter(address)": {
        "notice": "Removes minter's role "
      },
      "setTagGroupId(uint8)": {
        "notice": "Sets group ID for the Dragon card minter within Tag Storage*"
      }
    },
    "version": 1
  }
}