{
  "contractName": "DragonCardView",
  "abi": [
    {
      "anonymous": false,
      "inputs": [
        {
          "indexed": false,
          "internalType": "address",
          "name": "_manager",
          "type": "address"
        }
      ],
      "name": "ContractAdded",
      "type": "event"
    },
    {
      "anonymous": false,
      "inputs": [
        {
          "indexed": false,
          "internalType": "address",
          "name": "newManager",
          "type": "address"
        }
      ],
      "name": "ContractManagerSwitch",
      "type": "event"
    },
    {
      "anonymous": false,
      "inputs": [
        {
          "indexed": false,
          "internalType": "address",
          "name": "newOwner",
          "type": "address"
        }
      ],
      "name": "ContractOwnershipUpdate",
      "type": "event"
    },
    {
      "anonymous": false,
      "inputs": [],
      "name": "ContractRemoved",
      "type": "event"
    },
    {
      "anonymous": false,
      "inputs": [
        {
          "indexed": false,
          "internalType": "address",
          "name": "contractInstance",
          "type": "address"
        }
      ],
      "name": "ContractReplaced",
      "type": "event"
    },
    {
      "anonymous": false,
      "inputs": [
        {
          "indexed": false,
          "internalType": "address",
          "name": "oldInstance",
          "type": "address"
        },
        {
          "indexed": false,
          "internalType": "address",
          "name": "_manager",
          "type": "address"
        }
      ],
      "name": "ContractUpdated",
      "type": "event"
    },
    {
      "anonymous": false,
      "inputs": [
        {
          "indexed": false,
          "internalType": "address",
          "name": "nft_addr",
          "type": "address"
        }
      ],
      "name": "NFTLink",
      "type": "event"
    },
    {
      "anonymous": false,
      "inputs": [
        {
          "indexed": true,
          "internalType": "address",
          "name": "previousOwner",
          "type": "address"
        },
        {
          "indexed": true,
          "internalType": "address",
          "name": "newOwner",
          "type": "address"
        }
      ],
      "name": "OwnershipTransferred",
      "type": "event"
    },
    {
      "anonymous": false,
      "inputs": [
        {
          "indexed": true,
          "internalType": "bytes32",
          "name": "role",
          "type": "bytes32"
        },
        {
          "indexed": true,
          "internalType": "bytes32",
          "name": "previousAdminRole",
          "type": "bytes32"
        },
        {
          "indexed": true,
          "internalType": "bytes32",
          "name": "newAdminRole",
          "type": "bytes32"
        }
      ],
      "name": "RoleAdminChanged",
      "type": "event"
    },
    {
      "anonymous": false,
      "inputs": [
        {
          "indexed": true,
          "internalType": "bytes32",
          "name": "role",
          "type": "bytes32"
        },
        {
          "indexed": true,
          "internalType": "address",
          "name": "account",
          "type": "address"
        },
        {
          "indexed": true,
          "internalType": "address",
          "name": "sender",
          "type": "address"
        }
      ],
      "name": "RoleGranted",
      "type": "event"
    },
    {
      "anonymous": false,
      "inputs": [
        {
          "indexed": true,
          "internalType": "bytes32",
          "name": "role",
          "type": "bytes32"
        },
        {
          "indexed": true,
          "internalType": "address",
          "name": "account",
          "type": "address"
        },
        {
          "indexed": true,
          "internalType": "address",
          "name": "sender",
          "type": "address"
        }
      ],
      "name": "RoleRevoked",
      "type": "event"
    },
    {
      "anonymous": false,
      "inputs": [
        {
          "indexed": false,
          "internalType": "address",
          "name": "dragon_stats",
          "type": "address"
        }
      ],
      "name": "StatsLibLink",
      "type": "event"
    },
    {
      "anonymous": false,
      "inputs": [
        {
          "indexed": false,
          "internalType": "address",
          "name": "tag_addr",
          "type": "address"
        }
      ],
      "name": "ViewLink",
      "type": "event"
    },
    {
      "inputs": [],
      "name": "DEFAULT_ADMIN_ROLE",
      "outputs": [
        {
          "internalType": "bytes32",
          "name": "",
          "type": "bytes32"
        }
      ],
      "stateMutability": "view",
      "type": "function"
    },
    {
      "inputs": [],
      "name": "MANAGER_ROLE",
      "outputs": [
        {
          "internalType": "bytes32",
          "name": "",
          "type": "bytes32"
        }
      ],
      "stateMutability": "view",
      "type": "function"
    },
    {
      "inputs": [],
      "name": "NFT_addr",
      "outputs": [
        {
          "internalType": "address",
          "name": "",
          "type": "address"
        }
      ],
      "stateMutability": "view",
      "type": "function"
    },
    {
      "inputs": [],
      "name": "VERSION",
      "outputs": [
        {
          "internalType": "bytes32",
          "name": "",
          "type": "bytes32"
        }
      ],
      "stateMutability": "view",
      "type": "function"
    },
    {
      "inputs": [],
      "name": "contract_id",
      "outputs": [
        {
          "internalType": "bytes32",
          "name": "",
          "type": "bytes32"
        }
      ],
      "stateMutability": "view",
      "type": "function"
    },
    {
      "inputs": [],
      "name": "contract_name",
      "outputs": [
        {
          "internalType": "string",
          "name": "",
          "type": "string"
        }
      ],
      "stateMutability": "view",
      "type": "function"
    },
    {
      "inputs": [],
      "name": "dragon_stats_addr",
      "outputs": [
        {
          "internalType": "address",
          "name": "",
          "type": "address"
        }
      ],
      "stateMutability": "view",
      "type": "function"
    },
    {
      "inputs": [
        {
          "internalType": "bytes32",
          "name": "role",
          "type": "bytes32"
        }
      ],
      "name": "getRoleAdmin",
      "outputs": [
        {
          "internalType": "bytes32",
          "name": "",
          "type": "bytes32"
        }
      ],
      "stateMutability": "view",
      "type": "function"
    },
    {
      "inputs": [
        {
          "internalType": "bytes32",
          "name": "role",
          "type": "bytes32"
        },
        {
          "internalType": "uint256",
          "name": "index",
          "type": "uint256"
        }
      ],
      "name": "getRoleMember",
      "outputs": [
        {
          "internalType": "address",
          "name": "",
          "type": "address"
        }
      ],
      "stateMutability": "view",
      "type": "function"
    },
    {
      "inputs": [
        {
          "internalType": "bytes32",
          "name": "role",
          "type": "bytes32"
        }
      ],
      "name": "getRoleMemberCount",
      "outputs": [
        {
          "internalType": "uint256",
          "name": "",
          "type": "uint256"
        }
      ],
      "stateMutability": "view",
      "type": "function"
    },
    {
      "inputs": [
        {
          "internalType": "bytes32",
          "name": "role",
          "type": "bytes32"
        },
        {
          "internalType": "address",
          "name": "account",
          "type": "address"
        }
      ],
      "name": "grantRole",
      "outputs": [],
      "stateMutability": "nonpayable",
      "type": "function"
    },
    {
      "inputs": [
        {
          "internalType": "bytes32",
          "name": "role",
          "type": "bytes32"
        },
        {
          "internalType": "address",
          "name": "account",
          "type": "address"
        }
      ],
      "name": "hasRole",
      "outputs": [
        {
          "internalType": "bool",
          "name": "",
          "type": "bool"
        }
      ],
      "stateMutability": "view",
      "type": "function"
    },
    {
      "inputs": [],
      "name": "manager",
      "outputs": [
        {
          "internalType": "address",
          "name": "",
          "type": "address"
        }
      ],
      "stateMutability": "view",
      "type": "function"
    },
    {
      "inputs": [
        {
          "internalType": "address",
          "name": "_manager",
          "type": "address"
        }
      ],
      "name": "onAdd",
      "outputs": [],
      "stateMutability": "nonpayable",
      "type": "function"
    },
    {
      "inputs": [],
      "name": "onRemoved",
      "outputs": [],
      "stateMutability": "nonpayable",
      "type": "function"
    },
    {
      "inputs": [
        {
          "internalType": "address",
          "name": "newInstance",
          "type": "address"
        }
      ],
      "name": "onReplaced",
      "outputs": [],
      "stateMutability": "nonpayable",
      "type": "function"
    },
    {
      "inputs": [
        {
          "internalType": "address",
          "name": "oldInstance",
          "type": "address"
        },
        {
          "internalType": "address",
          "name": "_manager",
          "type": "address"
        }
      ],
      "name": "onUpdate",
      "outputs": [],
      "stateMutability": "nonpayable",
      "type": "function"
    },
    {
      "inputs": [],
      "name": "owner",
      "outputs": [
        {
          "internalType": "address",
          "name": "",
          "type": "address"
        }
      ],
      "stateMutability": "view",
      "type": "function"
    },
    {
      "inputs": [],
      "name": "renounceOwnership",
      "outputs": [],
      "stateMutability": "nonpayable",
      "type": "function"
    },
    {
      "inputs": [
        {
          "internalType": "bytes32",
          "name": "role",
          "type": "bytes32"
        },
        {
          "internalType": "address",
          "name": "account",
          "type": "address"
        }
      ],
      "name": "renounceRole",
      "outputs": [],
      "stateMutability": "nonpayable",
      "type": "function"
    },
    {
      "inputs": [
        {
          "internalType": "bytes32",
          "name": "role",
          "type": "bytes32"
        },
        {
          "internalType": "address",
          "name": "account",
          "type": "address"
        }
      ],
      "name": "revokeRole",
      "outputs": [],
      "stateMutability": "nonpayable",
      "type": "function"
    },
    {
      "inputs": [
        {
          "internalType": "bytes4",
          "name": "interfaceId",
          "type": "bytes4"
        }
      ],
      "name": "supportsInterface",
      "outputs": [
        {
          "internalType": "bool",
          "name": "",
          "type": "bool"
        }
      ],
      "stateMutability": "view",
      "type": "function"
    },
    {
      "inputs": [
        {
          "internalType": "address",
          "name": "newManager",
          "type": "address"
        }
      ],
      "name": "switchManager",
      "outputs": [],
      "stateMutability": "nonpayable",
      "type": "function"
    },
    {
      "inputs": [
        {
          "internalType": "address",
          "name": "newOwner",
          "type": "address"
        }
      ],
      "name": "transferOwnership",
      "outputs": [],
      "stateMutability": "nonpayable",
      "type": "function"
    },
    {
      "inputs": [
        {
          "internalType": "address",
          "name": "newOwner",
          "type": "address"
        }
      ],
      "name": "updateOwnership",
      "outputs": [],
      "stateMutability": "nonpayable",
      "type": "function"
    },
    {
      "inputs": [],
      "name": "viewer_addr",
      "outputs": [
        {
          "internalType": "address",
          "name": "",
          "type": "address"
        }
      ],
      "stateMutability": "view",
      "type": "function"
    },
    {
      "inputs": [],
      "name": "getName",
      "outputs": [
        {
          "internalType": "string",
          "name": "",
          "type": "string"
        }
      ],
      "stateMutability": "pure",
      "type": "function"
    },
    {
      "inputs": [],
      "name": "getId",
      "outputs": [
        {
          "internalType": "bytes32",
          "name": "",
          "type": "bytes32"
        }
      ],
      "stateMutability": "pure",
      "type": "function"
    },
    {
      "inputs": [
        {
          "internalType": "bytes32",
          "name": "hname",
          "type": "bytes32"
        },
        {
          "internalType": "address",
          "name": "contractInstance",
          "type": "address"
        },
        {
          "internalType": "bool",
          "name": "isNew",
          "type": "bool"
        }
      ],
      "name": "onListenAdded",
      "outputs": [],
      "stateMutability": "nonpayable",
      "type": "function"
    },
    {
      "inputs": [
        {
          "internalType": "bytes32",
          "name": "hname",
          "type": "bytes32"
        }
      ],
      "name": "onListenRemoved",
      "outputs": [],
      "stateMutability": "nonpayable",
      "type": "function"
    },
    {
      "inputs": [
        {
          "internalType": "address",
          "name": "viewer",
          "type": "address"
        }
      ],
      "name": "linkViewer",
      "outputs": [],
      "stateMutability": "nonpayable",
      "type": "function"
    },
    {
      "inputs": [
        {
          "internalType": "address",
          "name": "nft_container",
          "type": "address"
        }
      ],
      "name": "linkNFT",
      "outputs": [],
      "stateMutability": "nonpayable",
      "type": "function"
    },
    {
      "inputs": [
        {
          "internalType": "address",
          "name": "dragon_stats",
          "type": "address"
        }
      ],
      "name": "linkStatsLib",
      "outputs": [],
      "stateMutability": "nonpayable",
      "type": "function"
    },
    {
      "inputs": [
        {
          "internalType": "uint256",
          "name": "id",
          "type": "uint256"
        }
      ],
      "name": "getView",
      "outputs": [
        {
          "components": [
            {
              "internalType": "address",
              "name": "owner",
              "type": "address"
            },
            {
              "internalType": "uint256",
              "name": "stacked",
              "type": "uint256"
            },
            {
              "internalType": "bytes32",
              "name": "nft_type",
              "type": "bytes32"
            },
            {
              "internalType": "bytes32",
              "name": "version",
              "type": "bytes32"
            },
            {
              "internalType": "uint256",
              "name": "rarity",
              "type": "uint256"
            },
            {
              "internalType": "uint256",
              "name": "health",
              "type": "uint256"
            },
            {
              "internalType": "enum Util.CardType",
              "name": "card_type",
              "type": "uint8"
            },
            {
              "internalType": "uint256",
              "name": "attack",
              "type": "uint256"
            },
            {
              "internalType": "uint256",
              "name": "defense",
              "type": "uint256"
            },
            {
              "internalType": "uint256",
              "name": "character",
              "type": "uint256"
            },
            {
              "internalType": "string",
              "name": "character_name",
              "type": "string"
            }
          ],
          "internalType": "struct DragonCardView.DragonStatsView",
          "name": "",
          "type": "tuple"
        }
      ],
      "stateMutability": "view",
      "type": "function"
    }
  ],
  "bytecode": "0x60806040523480156200001157600080fd5b506200001d3362000030565b6200002a60003362000080565b620001be565b600080546001600160a01b038381166001600160a01b0319831681178455604051919092169283917f8be0079c531659141344cd1fd0a4f28419497f9722a3daafe3b4186f6b6457e09190a35050565b620000978282620000c360201b6200167b1760201c565b6000828152600260209081526040909120620000be918390620016e66200014c821b17901c565b505050565b60008281526001602090815260408083206001600160a01b038516845290915290205460ff16620001485760008281526001602081815260408084206001600160a01b0386168086529252808420805460ff19169093179092559051339285917f2f8788117e7eff1d82e926ec794901d17c78024a50270940304540a733656f0d9190a45b5050565b600062000163836001600160a01b0384166200016c565b90505b92915050565b6000818152600183016020526040812054620001b55750815460018181018455600084815260208082209093018490558454848252828601909352604090209190915562000166565b50600062000166565b6126fc80620001ce6000396000f3fe608060405234801561001057600080fd5b50600436106102065760003560e01c80638840891e1161011a578063c69c9579116100ad578063d94796921161007c578063d947969214610474578063ec87621c146104a1578063ecc1d93b146104b6578063f2fde38b146104c9578063ffa1ad74146104dc57600080fd5b8063c69c957914610428578063ca15c8731461043b578063d4697a471461044e578063d547741f1461046157600080fd5b806391d14854116100e957806391d14854146103e757806397ffa316146103fa578063a217fddf1461040d578063aadd04881461041557600080fd5b80638840891e1461039d57806388971bf5146103b05780638da5cb5b146103c35780639010d07c146103d457600080fd5b8063337bfccc1161019d57806350b978a81161016c57806350b978a8146103545780635d1ca631146103675780635df112911461036f5780636b2bf27f14610382578063715018a61461039557600080fd5b8063337bfccc1461030657806336568abe146103265780633ad32d1614610339578063481c6a751461034157600080fd5b806317d7de7c116101d957806317d7de7c146102865780631a6f04f3146102b9578063248a9ca3146102c15780632f2ff15d146102f357600080fd5b806301ffc9a71461020b5780630447a2cd146102335780630b0c573c1461024857806316f28d2414610273575b600080fd5b61021e610219366004612007565b6104e4565b60405190151581526020015b60405180910390f35b610246610241366004612046565b61050f565b005b60065461025b906001600160a01b031681565b6040516001600160a01b03909116815260200161022a565b61024661028136600461208d565b61051d565b60408051808201909152600e81526d447261676f6e436172645669657760901b60208201525b60405161022a919061212b565b610246610692565b6102e56102cf36600461213e565b6000908152600160208190526040909120015490565b60405190815260200161022a565b610246610301366004612157565b61069c565b61031961031436600461213e565b6106c3565b60405161022a91906121bd565b610246610334366004612157565b61119e565b6102e5611218565b60035461025b906001600160a01b031681565b60055461025b906001600160a01b031681565b6102e5611268565b61024661037d366004612267565b6112bc565b610246610390366004612267565b6112c8565b6102466112d1565b6102466103ab366004612267565b611305565b6102466103be366004612267565b61130e565b6000546001600160a01b031661025b565b61025b6103e2366004612284565b611341565b61021e6103f5366004612157565b611360565b60045461025b906001600160a01b031681565b6102e5600081565b610246610423366004612267565b61138b565b610246610436366004612267565b6113be565b6102e561044936600461213e565b6113c7565b61024661045c36600461213e565b6113de565b61024661046f366004612157565b611566565b6102ac6040518060400160405280600e81526020016d447261676f6e436172645669657760901b81525081565b6102e56000805160206126a783398151915281565b6102466104c4366004612267565b61158d565b6102466104d7366004612267565b6115c0565b6102e5611658565b60006001600160e01b0319821663ee7ed59960e01b14806105095750610509826116fb565b92915050565b6105198282611720565b5050565b6105356000805160206126a783398151915233611360565b61055a5760405162461bcd60e51b8152600401610551906122a6565b60405180910390fd5b816001600160a01b0316633ad32d166040518163ffffffff1660e01b815260040160206040518083038186803b15801561059357600080fd5b505afa1580156105a7573d6000803e3d6000fd5b505050506040513d601f19601f820116820180604052508101906105cb9190612303565b8314156105e0576105db826117b3565b505050565b7fc227f98e618597415dca1f5035d597d1e75936952bfd5d741271dd85ba110d90831415610611576105db82611808565b816001600160a01b0316633ad32d166040518163ffffffff1660e01b815260040160206040518083038186803b15801561064a57600080fd5b505afa15801561065e573d6000803e3d6000fd5b505050506040513d601f19601f820116820180604052508101906106829190612303565b8314156105db576105db82611856565b61069a6118a4565b565b600082815260016020819052604090912001546106b98133611913565b6105db8383611977565b6107206040805161016081018252600080825260208201819052918101829052606081018290526080810182905260a081018290529060c08201908152602001600081526020016000815260200160008152602001606081525090565b60055460405163c588ff8b60e01b8152600481018490526000916001600160a01b03169063c588ff8b9060240160206040518083038186803b15801561076557600080fd5b505afa158015610779573d6000803e3d6000fd5b505050506040513d601f19601f8201168201806040525081019061079d9190612303565b90506000600660009054906101000a90046001600160a01b03166001600160a01b031663c7a6ffc96040518163ffffffff1660e01b815260040160006040518083038186803b1580156107ef57600080fd5b505afa158015610803573d6000803e3d6000fd5b505050506040513d6000823e601f3d908101601f1916820160405261082b91908101906123e3565b60048054600654604080516319cd4c3d60e01b815290519495506000946001600160a01b039384169463846235739489948c949116926319cd4c3d92828101928a929190829003018186803b15801561088357600080fd5b505afa158015610897573d6000803e3d6000fd5b505050506040513d6000823e601f3d908101601f191682016040526108bf91908101906123e3565b6040518463ffffffff1660e01b81526004016108dd93929190612418565b60006040518083038186803b1580156108f557600080fd5b505afa158015610909573d6000803e3d6000fd5b505050506040513d6000823e601f3d908101601f191682016040526109319190810190612440565b608001511561094257506003610a5b565b600480546006546040805163091a7f8b60e41b815290516001600160a01b039384169463846235739489948c949116926391a7f8b092828101926000929190829003018186803b15801561099557600080fd5b505afa1580156109a9573d6000803e3d6000fd5b505050506040513d6000823e601f3d908101601f191682016040526109d191908101906123e3565b6040518463ffffffff1660e01b81526004016109ef93929190612418565b60006040518083038186803b158015610a0757600080fd5b505afa158015610a1b573d6000803e3d6000fd5b505050506040513d6000823e601f3d908101601f19168201604052610a439190810190612440565b602001516004811115610a5857610a5861217c565b90505b600480546006546040805163367eca3f60e21b815290516000946001600160a01b03948516946384623573948a948d94929091169263d9fb28fc92828201928a9290829003018186803b158015610ab157600080fd5b505afa158015610ac5573d6000803e3d6000fd5b505050506040513d6000823e601f3d908101601f19168201604052610aed91908101906123e3565b6040518463ffffffff1660e01b8152600401610b0b93929190612418565b60006040518083038186803b158015610b2357600080fd5b505afa158015610b37573d6000803e3d6000fd5b505050506040513d6000823e601f3d908101601f19168201604052610b5f9190810190612440565b602001516004811115610b7457610b7461217c565b6006546040516357c3b5bd60e11b81529192506000916001600160a01b039091169063af876b7a90610bae908a90879087906004016124ef565b60206040518083038186803b158015610bc657600080fd5b505afa158015610bda573d6000803e3d6000fd5b505050506040513d601f19601f82011682018060405250810190610bfe9190612303565b604080516101608101918290526005546331a9108f60e11b90925261016481018a905291925081906001600160a01b0316636352211e610184830160206040518083038186803b158015610c5157600080fd5b505afa158015610c65573d6000803e3d6000fd5b505050506040513d601f19601f82011682018060405250810190610c89919061251c565b6001600160a01b03908116825260055460405163bd85b03960e01b8152600481018c905260209093019291169063bd85b0399060240160206040518083038186803b158015610cd757600080fd5b505afa158015610ceb573d6000803e3d6000fd5b505050506040513d601f19601f82011682018060405250810190610d0f9190612303565b8152602001868152602001604051602001610d3f906e447261676f6e436172642d76312e3160881b8152600f0190565b604051602081830303815290604052805190602001208152602001846004811115610d6c57610d6c61217c565b8152602001600460009054906101000a90046001600160a01b03166001600160a01b03166384623573888b600660009054906101000a90046001600160a01b03166001600160a01b031663fa97af906040518163ffffffff1660e01b815260040160006040518083038186803b158015610de557600080fd5b505afa158015610df9573d6000803e3d6000fd5b505050506040513d6000823e601f3d908101601f19168201604052610e2191908101906123e3565b6040518463ffffffff1660e01b8152600401610e3f93929190612418565b60006040518083038186803b158015610e5757600080fd5b505afa158015610e6b573d6000803e3d6000fd5b505050506040513d6000823e601f3d908101601f19168201604052610e939190810190612440565b602001518152602001836004811115610eae57610eae61217c565b8152602001600460009054906101000a90046001600160a01b03166001600160a01b03166384623573888b600660009054906101000a90046001600160a01b03166001600160a01b031663b51e6dc76040518163ffffffff1660e01b815260040160006040518083038186803b158015610f2757600080fd5b505afa158015610f3b573d6000803e3d6000fd5b505050506040513d6000823e601f3d908101601f19168201604052610f6391908101906123e3565b6040518463ffffffff1660e01b8152600401610f8193929190612418565b60006040518083038186803b158015610f9957600080fd5b505afa158015610fad573d6000803e3d6000fd5b505050506040513d6000823e601f3d908101601f19168201604052610fd59190810190612440565b602001518152602001600460009054906101000a90046001600160a01b03166001600160a01b03166384623573888b600660009054906101000a90046001600160a01b03166001600160a01b031663c7a6ffc96040518163ffffffff1660e01b815260040160006040518083038186803b15801561105257600080fd5b505afa158015611066573d6000803e3d6000fd5b505050506040513d6000823e601f3d908101601f1916820160405261108e91908101906123e3565b6040518463ffffffff1660e01b81526004016110ac93929190612418565b60006040518083038186803b1580156110c457600080fd5b505afa1580156110d8573d6000803e3d6000fd5b505050506040513d6000823e601f3d908101601f191682016040526111009190810190612440565b6020908101518252810183905260065460408051631329cc0360e21b8152600481018690529201916001600160a01b0390911690634ca7300c9060240160006040518083038186803b15801561115557600080fd5b505afa158015611169573d6000803e3d6000fd5b505050506040513d6000823e601f3d908101601f1916820160405261119191908101906123e3565b9052979650505050505050565b6001600160a01b038116331461120e5760405162461bcd60e51b815260206004820152602f60248201527f416363657373436f6e74726f6c3a2063616e206f6e6c792072656e6f756e636560448201526e103937b632b9903337b91039b2b63360891b6064820152608401610551565b6105198282611999565b6040518060400160405280600e81526020016d447261676f6e436172645669657760901b81525060405160200161124f9190612539565b6040516020818303038152906040528051906020012081565b60006040518060400160405280600e81526020016d447261676f6e436172645669657760901b8152506040516020016112a19190612539565b60405160208183030381529060405280519060200120905090565b6112c5816119bb565b50565b6112c581611a73565b6000546001600160a01b031633146112fb5760405162461bcd60e51b815260040161055190612555565b61069a6000611ae9565b6112c581611b39565b6000546001600160a01b031633146113385760405162461bcd60e51b815260040161055190612555565b6112c581611856565b60008281526002602052604081206113599083611bbb565b9392505050565b60009182526001602090815260408084206001600160a01b0393909316845291905290205460ff1690565b6000546001600160a01b031633146113b55760405162461bcd60e51b815260040161055190612555565b6112c581611808565b6112c581611bc7565b600081815260026020526040812061050990611c44565b6113f66000805160206126a783398151915233611360565b6114125760405162461bcd60e51b8152600401610551906122a6565b6004805460408051631d69968b60e11b815290516001600160a01b0390921692633ad32d16928282019260209290829003018186803b15801561145457600080fd5b505afa158015611468573d6000803e3d6000fd5b505050506040513d601f19601f8201168201806040525081019061148c9190612303565b81141561149d576112c560006117b3565b7fc227f98e618597415dca1f5035d597d1e75936952bfd5d741271dd85ba110d908114156114cf576112c56000611808565b600660009054906101000a90046001600160a01b03166001600160a01b0316633ad32d166040518163ffffffff1660e01b815260040160206040518083038186803b15801561151d57600080fd5b505afa158015611531573d6000803e3d6000fd5b505050506040513d601f19601f820116820180604052508101906115559190612303565b8114156112c5576112c56000611856565b600082815260016020819052604090912001546115838133611913565b6105db8383611999565b6000546001600160a01b031633146115b75760405162461bcd60e51b815260040161055190612555565b6112c5816117b3565b6000546001600160a01b031633146115ea5760405162461bcd60e51b815260040161055190612555565b6001600160a01b03811661164f5760405162461bcd60e51b815260206004820152602660248201527f4f776e61626c653a206e6577206f776e657220697320746865207a65726f206160448201526564647265737360d01b6064820152608401610551565b6112c581611ae9565b6040516e447261676f6e436172642d76312e3160881b6020820152602f0161124f565b6116858282611360565b6105195760008281526001602081815260408084206001600160a01b0386168086529252808420805460ff19169093179092559051339285917f2f8788117e7eff1d82e926ec794901d17c78024a50270940304540a733656f0d9190a45050565b6000611359836001600160a01b038416611c4e565b60006001600160e01b03198216635a05180f60e01b1480610509575061050982611c9d565b6117386000805160206126a783398151915233611360565b6117545760405162461bcd60e51b8152600401610551906122a6565b600380546001600160a01b0319166001600160a01b0383811691821790925560408051928516835260208301919091527ff6515f2a6d531f16723c1e578303b7d74152bf8c0fa3bee828700a3d4706da8d910160405180910390a15050565b600480546001600160a01b0319166001600160a01b0383169081179091556040519081527f6a18b90af8b2ae0add67d0ae89a6972d279fd5888cd58c820f581fa70f2d54bd906020015b60405180910390a150565b600580546001600160a01b0319166001600160a01b0383169081179091556040519081527f7869e3c19f5ec29481a8433791a06441db7b22cd85336da47df97fd7b686ba2a906020016117fd565b600680546001600160a01b0319166001600160a01b0383169081179091556040519081527f8eabd18158736228e0bcd01444e967ae9262cdb0e8a88fb154542a13f701bf7b906020016117fd565b6118bc6000805160206126a783398151915233611360565b6118d85760405162461bcd60e51b8152600401610551906122a6565b600380546001600160a01b03191690556040517f9a9a74cf290a994f69a718e8557deb1dd65135268f40e660cecddf675f5dd51490600090a1565b61191d8282611360565b61051957611935816001600160a01b03166014611cd2565b611940836020611cd2565b60405160200161195192919061258a565b60408051601f198184030181529082905262461bcd60e51b82526105519160040161212b565b611981828261167b565b60008281526002602052604090206105db90826116e6565b6119a38282611e6e565b60008281526002602052604090206105db9082611ed5565b6119d36000805160206126a783398151915233611360565b6119ef5760405162461bcd60e51b8152600401610551906122a6565b600380546001600160a01b0319166001600160a01b038316179055611a226000805160206126a78339815191528261069c565b611a3a6000805160206126a783398151915233611566565b6040516001600160a01b03821681527f8eb47098f9568be754f51d21a870c8091ee0242cf97418db00927326d0e6ffcf906020016117fd565b611a8b6000805160206126a783398151915233611360565b611aa75760405162461bcd60e51b8152600401610551906122a6565b611ab0816115c0565b6040516001600160a01b03821681527ff2addf7f813887cf0fdd82b58fcc379ab2301e95c90b41a8cf2e5401914689c9906020016117fd565b600080546001600160a01b038381166001600160a01b0319831681178455604051919092169283917f8be0079c531659141344cd1fd0a4f28419497f9722a3daafe3b4186f6b6457e09190a35050565b611b516000805160206126a783398151915233611360565b611b6d5760405162461bcd60e51b8152600401610551906122a6565b600380546001600160a01b0319166001600160a01b0383169081179091556040519081527f89c66952b48f3e96bf1d8ba1b63189520fd988a6979b8b740bd5c5d8dc53e205906020016117fd565b60006113598383611eea565b611bdf6000805160206126a783398151915233611360565b611bfb5760405162461bcd60e51b8152600401610551906122a6565b600380546001600160a01b03191690556040516001600160a01b03821681527f85a56ff958486f55dd742819603a46ba6233d3b24e6715f9cd5fd2ef6425d680906020016117fd565b6000610509825490565b6000818152600183016020526040812054611c9557508154600181810184556000848152602080822090930184905584548482528286019093526040902091909155610509565b506000610509565b60006001600160e01b03198216637965db0b60e01b148061050957506301ffc9a760e01b6001600160e01b0319831614610509565b60606000611ce1836002612615565b611cec906002612634565b67ffffffffffffffff811115611d0457611d0461231c565b6040519080825280601f01601f191660200182016040528015611d2e576020820181803683370190505b509050600360fc1b81600081518110611d4957611d4961264c565b60200101906001600160f81b031916908160001a905350600f60fb1b81600181518110611d7857611d7861264c565b60200101906001600160f81b031916908160001a9053506000611d9c846002612615565b611da7906001612634565b90505b6001811115611e1f576f181899199a1a9b1b9c1cb0b131b232b360811b85600f1660108110611ddb57611ddb61264c565b1a60f81b828281518110611df157611df161264c565b60200101906001600160f81b031916908160001a90535060049490941c93611e1881612662565b9050611daa565b5083156113595760405162461bcd60e51b815260206004820181905260248201527f537472696e67733a20686578206c656e67746820696e73756666696369656e746044820152606401610551565b611e788282611360565b156105195760008281526001602090815260408083206001600160a01b0385168085529252808320805460ff1916905551339285917ff6391f5c32d9c69d2a47ea670b442974b53935d1edc7fd64eb21e047a839171b9190a45050565b6000611359836001600160a01b038416611f14565b6000826000018281548110611f0157611f0161264c565b9060005260206000200154905092915050565b60008181526001830160205260408120548015611ffd576000611f38600183612679565b8554909150600090611f4c90600190612679565b9050818114611fb1576000866000018281548110611f6c57611f6c61264c565b9060005260206000200154905080876000018481548110611f8f57611f8f61264c565b6000918252602080832090910192909255918252600188019052604090208390555b8554869080611fc257611fc2612690565b600190038181906000526020600020016000905590558560010160008681526020019081526020016000206000905560019350505050610509565b6000915050610509565b60006020828403121561201957600080fd5b81356001600160e01b03198116811461135957600080fd5b6001600160a01b03811681146112c557600080fd5b6000806040838503121561205957600080fd5b823561206481612031565b9150602083013561207481612031565b809150509250929050565b80151581146112c557600080fd5b6000806000606084860312156120a257600080fd5b8335925060208401356120b481612031565b915060408401356120c48161207f565b809150509250925092565b60005b838110156120ea5781810151838201526020016120d2565b838111156120f9576000848401525b50505050565b600081518084526121178160208601602086016120cf565b601f01601f19169290920160200192915050565b60208152600061135960208301846120ff565b60006020828403121561215057600080fd5b5035919050565b6000806040838503121561216a57600080fd5b82359150602083013561207481612031565b634e487b7160e01b600052602160045260246000fd5b600581106112c557634e487b7160e01b600052602160045260246000fd5b6121b981612192565b9052565b602081526121d76020820183516001600160a01b03169052565b602082015160408201526040820151606082015260608201516080820152608082015160a082015260a082015160c0820152600060c083015161221d60e08401826121b0565b5060e08301516101008381019190915283015161012080840191909152830151610140808401919091528301516101608084015261225f6101808401826120ff565b949350505050565b60006020828403121561227957600080fd5b813561135981612031565b6000806040838503121561229757600080fd5b50508035926020909101359150565b6020808252603b908201527f43726f7373436f6e74726163744d616e4c697374656e65723a2074686520636160408201527f6c6c6572206d7573742068617665204d414e414745525f524f4c450000000000606082015260800190565b60006020828403121561231557600080fd5b5051919050565b634e487b7160e01b600052604160045260246000fd5b60405160a0810167ffffffffffffffff811182821017156123555761235561231c565b60405290565b600082601f83011261236c57600080fd5b815167ffffffffffffffff808211156123875761238761231c565b604051601f8301601f19908116603f011681019082821181831017156123af576123af61231c565b816040528381528660208588010111156123c857600080fd5b6123d98460208301602089016120cf565b9695505050505050565b6000602082840312156123f557600080fd5b815167ffffffffffffffff81111561240c57600080fd5b61225f8482850161235b565b83815282602082015260606040820152600061243760608301846120ff565b95945050505050565b60006020828403121561245257600080fd5b815167ffffffffffffffff8082111561246a57600080fd5b9083019060a0828603121561247e57600080fd5b612486612332565b82516004811061249557600080fd5b8152602083810151908201526040830151828111156124b357600080fd5b6124bf8782860161235b565b60408301525060608301516060820152608083015192506124df8361207f565b6080810192909252509392505050565b838152606081016124ff84612192565b83602083015261250e83612192565b826040830152949350505050565b60006020828403121561252e57600080fd5b815161135981612031565b6000825161254b8184602087016120cf565b9190910192915050565b6020808252818101527f4f776e61626c653a2063616c6c6572206973206e6f7420746865206f776e6572604082015260600190565b7f416363657373436f6e74726f6c3a206163636f756e74200000000000000000008152600083516125c28160178501602088016120cf565b7001034b99036b4b9b9b4b733903937b6329607d1b60179184019182015283516125f38160288401602088016120cf565b01602801949350505050565b634e487b7160e01b600052601160045260246000fd5b600081600019048311821515161561262f5761262f6125ff565b500290565b60008219821115612647576126476125ff565b500190565b634e487b7160e01b600052603260045260246000fd5b600081612671576126716125ff565b506000190190565b60008282101561268b5761268b6125ff565b500390565b634e487b7160e01b600052603160045260246000fdfe241ecf16d79d0f8dbfb92cbc07fe17840425976cf0667f022fe9877caa831b08a2646970667358221220a3d4bf50d9a3087bc6c51f9338d10218ca639cbe028b9527c86bb7f07f6da53964736f6c63430008090033",
  "immutableReferences": {},
  "source": "// SPDX-License-Identifier: MIT\npragma solidity ^0.8;\n\nimport \"@openzeppelin/contracts/access/Ownable.sol\";\nimport \"./FireZardNFT.sol\";\nimport \"./StatsView.sol\";\nimport \"./DragonStats.sol\";\nimport \"./CrossContractManListener.sol\";\nimport {Util} from \"./Util.sol\";\n\ncontract DragonCardView is CrossContractManListener{\n    string  public constant contract_name = 'DragonCardView';\n    bytes32 public constant contract_id = keccak256(abi.encodePacked(contract_name));\n\n    address public\tviewer_addr;\n    address public\tNFT_addr;\n    address public\tdragon_stats_addr;\n\n    bytes32 public constant VERSION=keccak256(abi.encodePacked('DragonCard-v1.1'));\n\n    struct DragonStatsView{\n\taddress owner;\n\tuint256 stacked;\n\n\tbytes32 nft_type;\n\tbytes32 version;\n\n\tuint256 rarity;\n\tuint256 health;\n\tUtil.CardType card_type;\n\tuint256 attack;\n\tuint256 defense;\n\tuint256 character;\n\tstring  character_name;\n    }\n\n/*    constructor(address viewer, address nft_container, address dragon_stats){\n\tviewer_addr = viewer;\n\tNFT_addr = nft_container;\n\tdragon_stats_addr = dragon_stats;\n    }*/\n\n    function getName() pure external returns(string memory) {\n\treturn contract_name;\n    }\n\n    function getId() pure external returns(bytes32) {\n\treturn contract_id;\n    }\n\n    function onListenAdded(bytes32 hname, address contractInstance, bool isNew) external onlyManager {\n\tif(hname == StatsView(contractInstance).contract_id()){\n\t    _linkViewer(contractInstance);\n\t    return;\n\t}\n\tif(hname == Util.NFT_CONTRACT_ID){\n\t    _linkNFT(contractInstance);\n\t    return;\n\t}\n\tif(hname == DragonStats(contractInstance).contract_id()){\n\t    _linkStatsLib(contractInstance);\n\t    return;\n\t}\n    }\n\n    function onListenRemoved(bytes32 hname) external onlyManager {\n\tif(hname == StatsView(viewer_addr).contract_id()){\n\t    _linkViewer(address(0));\n\t    return;\n\t}\n\tif(hname == Util.NFT_CONTRACT_ID){\n\t    _linkNFT(address(0));\n\t    return;\n\t}\n\tif(hname == DragonStats(dragon_stats_addr).contract_id()){\n\t    _linkStatsLib(address(0));\n\t    return;\n\t}\n    }\n\n    function _linkViewer(address viewer) internal {\n        viewer_addr = viewer;\n        emit ViewLink(viewer);\n    }\n\n    function _linkNFT(address nft_container) internal {\n        NFT_addr = nft_container;\n        emit NFTLink(nft_container);\n    }\n\n    function _linkStatsLib(address dragon_stats) internal {\n        dragon_stats_addr = dragon_stats;\n        emit StatsLibLink(dragon_stats);\n    }\n\n\n    /**\n     * @notice Sets link to Tag Storage smart contract\n    **/\n    function linkViewer(address viewer) public virtual onlyOwner {\n\t_linkViewer(viewer);\n    }\n\n    /**\n     * @notice Sets link to ERC1155 NFT smart contract\n    **/\n    function linkNFT(address nft_container) public virtual onlyOwner {\n\t_linkNFT(nft_container);\n    }\n\n    /**\n     * @notice Sets link to the Stats deriving library\n    **/\n    function linkStatsLib(address dragon_stats) public virtual onlyOwner {\n\t_linkStatsLib(dragon_stats);\n    }\n\n    function getView(uint256 id) public view returns (DragonStatsView memory) {\n\tbytes32 nft_type = FireZardNFT(NFT_addr).typeOf(id);\n//\tstring memory\trarity\t\t= DragonStats(dragon_stats_addr).RARITY_STR();\n//\tstring memory\trarity_override = DragonStats(dragon_stats_addr).RARITY_OVERRIDE_STR();\n//\tstring memory\thealth  = DragonStats(dragon_stats_addr).HEALTH_STR();\n//\tstring memory\ttype_s  = DragonStats(dragon_stats_addr).TYPE_STR();\n//\tstring memory\tattack  = DragonStats(dragon_stats_addr).ATTACK_STR();\n\tstring memory\tdefense = DragonStats(dragon_stats_addr).DEFENSE_STR();\n\tUtil.CardRarity rarity_val;\n\tif(StatsView(viewer_addr).getStat(nft_type, id, DragonStats(dragon_stats_addr).RARITY_OVERRIDE_STR()).bool_val)\n\t    rarity_val = Util.CardRarity.Uncommon;\n\telse\n\t    rarity_val = Util.CardRarity(StatsView(viewer_addr).getStat(nft_type, id, DragonStats(dragon_stats_addr).RARITY_STR()).int_val);\n\tUtil.CardType card_type = Util.CardType(StatsView(viewer_addr).getStat(nft_type, id, DragonStats(dragon_stats_addr).TYPE_STR()).int_val);\n\tuint256 character = DragonStats(dragon_stats_addr).deriveCharacter(id, rarity_val, card_type);\n//\tstring memory character_name = DragonStats(dragon_stats_addr).deriveCharacterName(character);\n\treturn DragonStatsView(\n\t    FireZardNFT(NFT_addr).ownerOf(id),\n\t    FireZardNFT(NFT_addr).totalSupply(id),\n\t    nft_type,\n\t    VERSION,\n\t    uint256(rarity_val),\n\t    StatsView(viewer_addr).getStat(nft_type, id, DragonStats(dragon_stats_addr).HEALTH_STR()).int_val,\n\t    card_type,\n\t    StatsView(viewer_addr).getStat(nft_type, id, DragonStats(dragon_stats_addr).ATTACK_STR()).int_val,\n\t    StatsView(viewer_addr).getStat(nft_type, id, DragonStats(dragon_stats_addr).DEFENSE_STR()).int_val,\n\t    character,\n\t    DragonStats(dragon_stats_addr).deriveCharacterName(character)\n\t);\n    }\n\n    event\tViewLink(address tag_addr);\n    event\tNFTLink(address nft_addr);\n    event\tStatsLibLink(address dragon_stats);\n}\n",
  "sourcePath": "/home/vrogojin/Projects/FireZard/nft/contracts/DragonCardView.sol",
  "compiler": {
    "name": "solc",
    "version": "0.8.9+commit.e5eed63a.Emscripten.clang"
  },
  "schemaVersion": "3.4.3",
  "updatedAt": "2022-02-07T18:32:07.837Z",
  "devdoc": {
    "kind": "dev",
    "methods": {
      "getRoleAdmin(bytes32)": {
        "details": "Returns the admin role that controls `role`. See {grantRole} and {revokeRole}. To change a role's admin, use {_setRoleAdmin}."
      },
      "getRoleMember(bytes32,uint256)": {
        "details": "Returns one of the accounts that have `role`. `index` must be a value between 0 and {getRoleMemberCount}, non-inclusive. Role bearers are not sorted in any particular way, and their ordering may change at any point. WARNING: When using {getRoleMember} and {getRoleMemberCount}, make sure you perform all queries on the same block. See the following https://forum.openzeppelin.com/t/iterating-over-elements-on-enumerableset-in-openzeppelin-contracts/2296[forum post] for more information."
      },
      "getRoleMemberCount(bytes32)": {
        "details": "Returns the number of accounts that have `role`. Can be used together with {getRoleMember} to enumerate all bearers of a role."
      },
      "grantRole(bytes32,address)": {
        "details": "Grants `role` to `account`. If `account` had not been already granted `role`, emits a {RoleGranted} event. Requirements: - the caller must have ``role``'s admin role."
      },
      "hasRole(bytes32,address)": {
        "details": "Returns `true` if `account` has been granted `role`."
      },
      "owner()": {
        "details": "Returns the address of the current owner."
      },
      "renounceOwnership()": {
        "details": "Leaves the contract without owner. It will not be possible to call `onlyOwner` functions anymore. Can only be called by the current owner. NOTE: Renouncing ownership will leave the contract without an owner, thereby removing any functionality that is only available to the owner."
      },
      "renounceRole(bytes32,address)": {
        "details": "Revokes `role` from the calling account. Roles are often managed via {grantRole} and {revokeRole}: this function's purpose is to provide a mechanism for accounts to lose their privileges if they are compromised (such as when a trusted device is misplaced). If the calling account had been revoked `role`, emits a {RoleRevoked} event. Requirements: - the caller must be `account`."
      },
      "revokeRole(bytes32,address)": {
        "details": "Revokes `role` from `account`. If `account` had been granted `role`, emits a {RoleRevoked} event. Requirements: - the caller must have ``role``'s admin role."
      },
      "supportsInterface(bytes4)": {
        "details": "See {IERC165-supportsInterface}."
      },
      "transferOwnership(address)": {
        "details": "Transfers ownership of the contract to a new account (`newOwner`). Can only be called by the current owner."
      }
    },
    "version": 1
  },
  "userdoc": {
    "kind": "user",
    "methods": {
      "linkNFT(address)": {
        "notice": "Sets link to ERC1155 NFT smart contract*"
      },
      "linkStatsLib(address)": {
        "notice": "Sets link to the Stats deriving library*"
      },
      "linkViewer(address)": {
        "notice": "Sets link to Tag Storage smart contract*"
      }
    },
    "version": 1
  }
}