{
  "contractName": "DragonCardView",
  "abi": [
    {
      "inputs": [
        {
          "internalType": "address",
          "name": "viewer",
          "type": "address"
        },
        {
          "internalType": "address",
          "name": "nft_container",
          "type": "address"
        },
        {
          "internalType": "address",
          "name": "dragon_stats",
          "type": "address"
        }
      ],
      "stateMutability": "nonpayable",
      "type": "constructor"
    },
    {
      "anonymous": false,
      "inputs": [
        {
          "indexed": false,
          "internalType": "address",
          "name": "nft_addr",
          "type": "address"
        }
      ],
      "name": "NFTLink",
      "type": "event"
    },
    {
      "anonymous": false,
      "inputs": [
        {
          "indexed": true,
          "internalType": "address",
          "name": "previousOwner",
          "type": "address"
        },
        {
          "indexed": true,
          "internalType": "address",
          "name": "newOwner",
          "type": "address"
        }
      ],
      "name": "OwnershipTransferred",
      "type": "event"
    },
    {
      "anonymous": false,
      "inputs": [
        {
          "indexed": false,
          "internalType": "address",
          "name": "dragon_stats",
          "type": "address"
        }
      ],
      "name": "StatsLibLink",
      "type": "event"
    },
    {
      "anonymous": false,
      "inputs": [
        {
          "indexed": false,
          "internalType": "address",
          "name": "tag_addr",
          "type": "address"
        }
      ],
      "name": "ViewLink",
      "type": "event"
    },
    {
      "inputs": [],
      "name": "NFT_addr",
      "outputs": [
        {
          "internalType": "address",
          "name": "",
          "type": "address"
        }
      ],
      "stateMutability": "view",
      "type": "function"
    },
    {
      "inputs": [],
      "name": "VERSION",
      "outputs": [
        {
          "internalType": "bytes32",
          "name": "",
          "type": "bytes32"
        }
      ],
      "stateMutability": "view",
      "type": "function"
    },
    {
      "inputs": [],
      "name": "dragon_stats_addr",
      "outputs": [
        {
          "internalType": "address",
          "name": "",
          "type": "address"
        }
      ],
      "stateMutability": "view",
      "type": "function"
    },
    {
      "inputs": [],
      "name": "owner",
      "outputs": [
        {
          "internalType": "address",
          "name": "",
          "type": "address"
        }
      ],
      "stateMutability": "view",
      "type": "function"
    },
    {
      "inputs": [],
      "name": "renounceOwnership",
      "outputs": [],
      "stateMutability": "nonpayable",
      "type": "function"
    },
    {
      "inputs": [
        {
          "internalType": "address",
          "name": "newOwner",
          "type": "address"
        }
      ],
      "name": "transferOwnership",
      "outputs": [],
      "stateMutability": "nonpayable",
      "type": "function"
    },
    {
      "inputs": [],
      "name": "viewer_addr",
      "outputs": [
        {
          "internalType": "address",
          "name": "",
          "type": "address"
        }
      ],
      "stateMutability": "view",
      "type": "function"
    },
    {
      "inputs": [
        {
          "internalType": "address",
          "name": "viewer",
          "type": "address"
        }
      ],
      "name": "linkViewer",
      "outputs": [],
      "stateMutability": "nonpayable",
      "type": "function"
    },
    {
      "inputs": [
        {
          "internalType": "address",
          "name": "nft_container",
          "type": "address"
        }
      ],
      "name": "linkNFT",
      "outputs": [],
      "stateMutability": "nonpayable",
      "type": "function"
    },
    {
      "inputs": [
        {
          "internalType": "address",
          "name": "dragon_stats",
          "type": "address"
        }
      ],
      "name": "linkStatsLib",
      "outputs": [],
      "stateMutability": "nonpayable",
      "type": "function"
    },
    {
      "inputs": [
        {
          "internalType": "uint256",
          "name": "id",
          "type": "uint256"
        }
      ],
      "name": "getView",
      "outputs": [
        {
          "components": [
            {
              "internalType": "address",
              "name": "owner",
              "type": "address"
            },
            {
              "internalType": "uint256",
              "name": "stacked",
              "type": "uint256"
            },
            {
              "internalType": "bytes32",
              "name": "nft_type",
              "type": "bytes32"
            },
            {
              "internalType": "bytes32",
              "name": "version",
              "type": "bytes32"
            },
            {
              "internalType": "uint256",
              "name": "rarity",
              "type": "uint256"
            },
            {
              "internalType": "uint256",
              "name": "health",
              "type": "uint256"
            },
            {
              "internalType": "enum Util.CardType",
              "name": "card_type",
              "type": "uint8"
            },
            {
              "internalType": "uint256",
              "name": "attack",
              "type": "uint256"
            },
            {
              "internalType": "uint256",
              "name": "defense",
              "type": "uint256"
            }
          ],
          "internalType": "struct DragonCardView.DragonStatsView",
          "name": "",
          "type": "tuple"
        }
      ],
      "stateMutability": "view",
      "type": "function"
    }
  ],
  "bytecode": "0x60806040523480156200001157600080fd5b50604051620012f1380380620012f18339810160408190526200003491620000ef565b6200003f3362000082565b600180546001600160a01b039485166001600160a01b03199182161790915560028054938516938216939093179092556003805491909316911617905562000139565b600080546001600160a01b038381166001600160a01b0319831681178455604051919092169283917f8be0079c531659141344cd1fd0a4f28419497f9722a3daafe3b4186f6b6457e09190a35050565b80516001600160a01b0381168114620000ea57600080fd5b919050565b6000806000606084860312156200010557600080fd5b6200011084620000d2565b92506200012060208501620000d2565b91506200013060408501620000d2565b90509250925092565b6111a880620001496000396000f3fe608060405234801561001057600080fd5b50600436106100a95760003560e01c80638da5cb5b116100715780638da5cb5b1461012e57806397ffa3161461013f578063aadd048814610152578063ecc1d93b14610165578063f2fde38b14610178578063ffa1ad741461018b57600080fd5b80630b0c573c146100ae578063337bfccc146100de57806350b978a8146100fe578063715018a61461011157806388971bf51461011b575b600080fd5b6003546100c1906001600160a01b031681565b6040516001600160a01b0390911681526020015b60405180910390f35b6100f16100ec366004610ded565b6101d1565b6040516100d59190610e1c565b6002546100c1906001600160a01b031681565b610119610b54565b005b610119610129366004610eba565b610b93565b6000546001600160a01b03166100c1565b6001546100c1906001600160a01b031681565b610119610160366004610eba565b610c12565b610119610173366004610eba565b610c8a565b610119610186366004610eba565b610d02565b6101c36040516c447261676f6e436172642d763160981b6020820152602d016040516020818303038152906040528051906020012081565b6040519081526020016100d5565b6102206040805161012081018252600080825260208201819052918101829052606081018290526080810182905260a081018290529060c0820190815260200160008152602001600081525090565b60025460405163c588ff8b60e01b8152600481018490526000916001600160a01b03169063c588ff8b9060240160206040518083038186803b15801561026557600080fd5b505afa158015610279573d6000803e3d6000fd5b505050506040513d601f19601f8201168201806040525081019061029d9190610ede565b90506000600360009054906101000a90046001600160a01b03166001600160a01b03166391a7f8b06040518163ffffffff1660e01b815260040160006040518083038186803b1580156102ef57600080fd5b505afa158015610303573d6000803e3d6000fd5b505050506040513d6000823e601f3d908101601f1916820160405261032b9190810190610fee565b90506000600360009054906101000a90046001600160a01b03166001600160a01b03166319cd4c3d6040518163ffffffff1660e01b815260040160006040518083038186803b15801561037d57600080fd5b505afa158015610391573d6000803e3d6000fd5b505050506040513d6000823e601f3d908101601f191682016040526103b99190810190610fee565b90506000600360009054906101000a90046001600160a01b03166001600160a01b031663fa97af906040518163ffffffff1660e01b815260040160006040518083038186803b15801561040b57600080fd5b505afa15801561041f573d6000803e3d6000fd5b505050506040513d6000823e601f3d908101601f191682016040526104479190810190610fee565b90506000600360009054906101000a90046001600160a01b03166001600160a01b031663d9fb28fc6040518163ffffffff1660e01b815260040160006040518083038186803b15801561049957600080fd5b505afa1580156104ad573d6000803e3d6000fd5b505050506040513d6000823e601f3d908101601f191682016040526104d59190810190610fee565b90506000600360009054906101000a90046001600160a01b03166001600160a01b031663b51e6dc76040518163ffffffff1660e01b815260040160006040518083038186803b15801561052757600080fd5b505afa15801561053b573d6000803e3d6000fd5b505050506040513d6000823e601f3d908101601f191682016040526105639190810190610fee565b90506000600360009054906101000a90046001600160a01b03166001600160a01b031663c7a6ffc96040518163ffffffff1660e01b815260040160006040518083038186803b1580156105b557600080fd5b505afa1580156105c9573d6000803e3d6000fd5b505050506040513d6000823e601f3d908101601f191682016040526105f19190810190610fee565b600154604051638462357360e01b81529192506000916001600160a01b039091169063846235739061062b908b908e908b9060040161102b565b60006040518083038186803b15801561064357600080fd5b505afa158015610657573d6000803e3d6000fd5b505050506040513d6000823e601f3d908101601f1916820160405261067f919081019061106c565b608001511561069057506003610730565b600154604051638462357360e01b81526001600160a01b03909116906384623573906106c4908b908e908c9060040161102b565b60006040518083038186803b1580156106dc57600080fd5b505afa1580156106f0573d6000803e3d6000fd5b505050506040513d6000823e601f3d908101601f19168201604052610718919081019061106c565b60200151600481111561072d5761072d610e06565b90505b604080516101208101918290526002546331a9108f60e11b90925261012481018c90529081906001600160a01b0316636352211e610144830160206040518083038186803b15801561078157600080fd5b505afa158015610795573d6000803e3d6000fd5b505050506040513d601f19601f820116820180604052508101906107b99190611120565b6001600160a01b03908116825260025460405163bd85b03960e01b8152600481018f905260209093019291169063bd85b0399060240160206040518083038186803b15801561080757600080fd5b505afa15801561081b573d6000803e3d6000fd5b505050506040513d601f19601f8201168201806040525081019061083f9190610ede565b815260200189815260200160405160200161086d906c447261676f6e436172642d763160981b8152600d0190565b60405160208183030381529060405280519060200120815260200182600481111561089a5761089a610e06565b8152602001600160009054906101000a90046001600160a01b03166001600160a01b031663846235738b8e8a6040518463ffffffff1660e01b81526004016108e49392919061102b565b60006040518083038186803b1580156108fc57600080fd5b505afa158015610910573d6000803e3d6000fd5b505050506040513d6000823e601f3d908101601f19168201604052610938919081019061106c565b602001518152602001600160009054906101000a90046001600160a01b03166001600160a01b031663846235738b8e896040518463ffffffff1660e01b81526004016109869392919061102b565b60006040518083038186803b15801561099e57600080fd5b505afa1580156109b2573d6000803e3d6000fd5b505050506040513d6000823e601f3d908101601f191682016040526109da919081019061106c565b6020015160048111156109ef576109ef610e06565b6004811115610a0057610a00610e06565b8152602001600160009054906101000a90046001600160a01b03166001600160a01b031663846235738b8e886040518463ffffffff1660e01b8152600401610a4a9392919061102b565b60006040518083038186803b158015610a6257600080fd5b505afa158015610a76573d6000803e3d6000fd5b505050506040513d6000823e601f3d908101601f19168201604052610a9e919081019061106c565b602001518152602001600160009054906101000a90046001600160a01b03166001600160a01b031663846235738b8e876040518463ffffffff1660e01b8152600401610aec9392919061102b565b60006040518083038186803b158015610b0457600080fd5b505afa158015610b18573d6000803e3d6000fd5b505050506040513d6000823e601f3d908101601f19168201604052610b40919081019061106c565b6020015190529a9950505050505050505050565b6000546001600160a01b03163314610b875760405162461bcd60e51b8152600401610b7e9061113d565b60405180910390fd5b610b916000610d9d565b565b6000546001600160a01b03163314610bbd5760405162461bcd60e51b8152600401610b7e9061113d565b600380546001600160a01b0319166001600160a01b0383169081179091556040519081527f8eabd18158736228e0bcd01444e967ae9262cdb0e8a88fb154542a13f701bf7b906020015b60405180910390a150565b6000546001600160a01b03163314610c3c5760405162461bcd60e51b8152600401610b7e9061113d565b600280546001600160a01b0319166001600160a01b0383169081179091556040519081527f7869e3c19f5ec29481a8433791a06441db7b22cd85336da47df97fd7b686ba2a90602001610c07565b6000546001600160a01b03163314610cb45760405162461bcd60e51b8152600401610b7e9061113d565b600180546001600160a01b0319166001600160a01b0383169081179091556040519081527f6a18b90af8b2ae0add67d0ae89a6972d279fd5888cd58c820f581fa70f2d54bd90602001610c07565b6000546001600160a01b03163314610d2c5760405162461bcd60e51b8152600401610b7e9061113d565b6001600160a01b038116610d915760405162461bcd60e51b815260206004820152602660248201527f4f776e61626c653a206e6577206f776e657220697320746865207a65726f206160448201526564647265737360d01b6064820152608401610b7e565b610d9a81610d9d565b50565b600080546001600160a01b038381166001600160a01b0319831681178455604051919092169283917f8be0079c531659141344cd1fd0a4f28419497f9722a3daafe3b4186f6b6457e09190a35050565b600060208284031215610dff57600080fd5b5035919050565b634e487b7160e01b600052602160045260246000fd5b81516001600160a01b031681526020808301519082015260408083015190820152606080830151908201526080808301519082015260a0828101519082015260c082015161012082019060058110610e8457634e487b7160e01b600052602160045260246000fd5b60c083015260e0838101519083015261010092830151929091019190915290565b6001600160a01b0381168114610d9a57600080fd5b600060208284031215610ecc57600080fd5b8135610ed781610ea5565b9392505050565b600060208284031215610ef057600080fd5b5051919050565b634e487b7160e01b600052604160045260246000fd5b60405160a0810167ffffffffffffffff81118282101715610f3057610f30610ef7565b60405290565b60005b83811015610f51578181015183820152602001610f39565b83811115610f60576000848401525b50505050565b600082601f830112610f7757600080fd5b815167ffffffffffffffff80821115610f9257610f92610ef7565b604051601f8301601f19908116603f01168101908282118183101715610fba57610fba610ef7565b81604052838152866020858801011115610fd357600080fd5b610fe4846020830160208901610f36565b9695505050505050565b60006020828403121561100057600080fd5b815167ffffffffffffffff81111561101757600080fd5b61102384828501610f66565b949350505050565b8381528260208201526060604082015260008251806060840152611056816080850160208701610f36565b601f01601f191691909101608001949350505050565b60006020828403121561107e57600080fd5b815167ffffffffffffffff8082111561109657600080fd5b9083019060a082860312156110aa57600080fd5b6110b2610f0d565b8251600481106110c157600080fd5b8152602083810151908201526040830151828111156110df57600080fd5b6110eb87828601610f66565b6040830152506060830151606082015260808301519250821515831461111057600080fd5b6080810192909252509392505050565b60006020828403121561113257600080fd5b8151610ed781610ea5565b6020808252818101527f4f776e61626c653a2063616c6c6572206973206e6f7420746865206f776e657260408201526060019056fea26469706673582212207ddd8bcfcaf5dd3b0fe0f92e43d49efe515523d70e932c504e0e791a6967541564736f6c63430008090033",
  "immutableReferences": {},
  "source": "\npragma solidity ^0.8;\n\nimport \"@openzeppelin/contracts/access/Ownable.sol\";\nimport \"./FireZardNFT.sol\";\nimport \"./StatsView.sol\";\nimport \"./DragonStats.sol\";\nimport {Util} from \"./Util.sol\";\n\ncontract DragonCardView is Ownable{\n\n    address public\tviewer_addr;\n    address public\tNFT_addr;\n    address public\tdragon_stats_addr;\n\n    bytes32 public constant VERSION=keccak256(abi.encodePacked('DragonCard-v1'));\n\n    struct DragonStatsView{\n\taddress owner;\n\tuint256 stacked;\n\n\tbytes32 nft_type;\n\tbytes32 version;\n\n\tuint256 rarity;\n\tuint256 health;\n\tUtil.CardType card_type;\n\tuint256 attack;\n\tuint256 defense;\n    }\n\n    constructor(address viewer, address nft_container, address dragon_stats){\n\tviewer_addr = viewer;\n\tNFT_addr = nft_container;\n\tdragon_stats_addr = dragon_stats;\n    }\n\n    /**\n     * @notice Sets link to Tag Storage smart contract\n    **/\n    function linkViewer(address viewer) public virtual onlyOwner {\n        viewer_addr = viewer;\n        emit ViewLink(viewer);\n    }\n\n    /**\n     * @notice Sets link to ERC1155 NFT smart contract\n    **/\n    function linkNFT(address nft_container) public virtual onlyOwner {\n        NFT_addr = nft_container;\n        emit NFTLink(nft_container);\n    }\n\n    /**\n     * @notice Sets link to the Stats deriving library\n    **/\n    function linkStatsLib(address dragon_stats) public virtual onlyOwner {\n        dragon_stats_addr = dragon_stats;\n        emit StatsLibLink(dragon_stats);\n    }\n\n    function getView(uint256 id) public view returns (DragonStatsView memory) {\n\tbytes32 nft_type = FireZardNFT(NFT_addr).typeOf(id);\n\tstring memory\trarity\t\t= DragonStats(dragon_stats_addr).RARITY_STR();\n\tstring memory\trarity_override = DragonStats(dragon_stats_addr).RARITY_OVERRIDE_STR();\n\tstring memory\thealth  = DragonStats(dragon_stats_addr).HEALTH_STR();\n\tstring memory\ttype_s  = DragonStats(dragon_stats_addr).TYPE_STR();\n\tstring memory\tattack  = DragonStats(dragon_stats_addr).ATTACK_STR();\n\tstring memory\tdefense = DragonStats(dragon_stats_addr).DEFENSE_STR();\n\tUtil.CardRarity rarity_val;\n\tif(StatsView(viewer_addr).getStat(nft_type, id, rarity_override).bool_val)\n\t    rarity_val = Util.CardRarity.Uncommon;\n\telse\n\t    rarity_val = Util.CardRarity(StatsView(viewer_addr).getStat(nft_type, id, rarity).int_val);\n\treturn DragonStatsView(\n\t    FireZardNFT(NFT_addr).ownerOf(id),\n\t    FireZardNFT(NFT_addr).totalSupply(id),\n\t    nft_type,\n\t    VERSION,\n\t    uint256(rarity_val),\n\t    StatsView(viewer_addr).getStat(nft_type, id, health).int_val,\n\t    Util.CardType(StatsView(viewer_addr).getStat(nft_type, id, type_s).int_val),\n\t    StatsView(viewer_addr).getStat(nft_type, id, attack).int_val,\n\t    StatsView(viewer_addr).getStat(nft_type, id, defense).int_val\n\t);\n    }\n\n    event\tViewLink(address tag_addr);\n    event\tNFTLink(address nft_addr);\n    event\tStatsLibLink(address dragon_stats);\n}\n",
  "sourcePath": "/home/vrogojin/Projects/temp/FireZard/nft/contracts/DragonCardView.sol",
  "compiler": {
    "name": "solc",
    "version": "0.8.9+commit.e5eed63a.Emscripten.clang"
  },
  "schemaVersion": "3.4.4",
  "updatedAt": "2022-01-17T12:34:05.242Z",
  "devdoc": {
    "kind": "dev",
    "methods": {
      "owner()": {
        "details": "Returns the address of the current owner."
      },
      "renounceOwnership()": {
        "details": "Leaves the contract without owner. It will not be possible to call `onlyOwner` functions anymore. Can only be called by the current owner. NOTE: Renouncing ownership will leave the contract without an owner, thereby removing any functionality that is only available to the owner."
      },
      "transferOwnership(address)": {
        "details": "Transfers ownership of the contract to a new account (`newOwner`). Can only be called by the current owner."
      }
    },
    "version": 1
  },
  "userdoc": {
    "kind": "user",
    "methods": {
      "linkNFT(address)": {
        "notice": "Sets link to ERC1155 NFT smart contract*"
      },
      "linkStatsLib(address)": {
        "notice": "Sets link to the Stats deriving library*"
      },
      "linkViewer(address)": {
        "notice": "Sets link to Tag Storage smart contract*"
      }
    },
    "version": 1
  }
}