{
  "contractName": "DragonStats",
  "abi": [
    {
      "inputs": [
        {
          "internalType": "address",
          "name": "_statsDistrib",
          "type": "address"
        }
      ],
      "stateMutability": "nonpayable",
      "type": "constructor"
    },
    {
      "anonymous": false,
      "inputs": [
        {
          "indexed": false,
          "internalType": "address",
          "name": "_statsDistrib",
          "type": "address"
        }
      ],
      "name": "StatsDistribLink",
      "type": "event"
    },
    {
      "inputs": [],
      "name": "ATTACK_STR",
      "outputs": [
        {
          "internalType": "string",
          "name": "",
          "type": "string"
        }
      ],
      "stateMutability": "view",
      "type": "function"
    },
    {
      "inputs": [],
      "name": "DEFENSE_STR",
      "outputs": [
        {
          "internalType": "string",
          "name": "",
          "type": "string"
        }
      ],
      "stateMutability": "view",
      "type": "function"
    },
    {
      "inputs": [],
      "name": "HEALTH_STR",
      "outputs": [
        {
          "internalType": "string",
          "name": "",
          "type": "string"
        }
      ],
      "stateMutability": "view",
      "type": "function"
    },
    {
      "inputs": [],
      "name": "H_ATTACK_STR",
      "outputs": [
        {
          "internalType": "bytes32",
          "name": "",
          "type": "bytes32"
        }
      ],
      "stateMutability": "view",
      "type": "function"
    },
    {
      "inputs": [],
      "name": "H_DEFENSE_STR",
      "outputs": [
        {
          "internalType": "bytes32",
          "name": "",
          "type": "bytes32"
        }
      ],
      "stateMutability": "view",
      "type": "function"
    },
    {
      "inputs": [],
      "name": "H_HEALTH_STR",
      "outputs": [
        {
          "internalType": "bytes32",
          "name": "",
          "type": "bytes32"
        }
      ],
      "stateMutability": "view",
      "type": "function"
    },
    {
      "inputs": [],
      "name": "H_RARITY_STR",
      "outputs": [
        {
          "internalType": "bytes32",
          "name": "",
          "type": "bytes32"
        }
      ],
      "stateMutability": "view",
      "type": "function"
    },
    {
      "inputs": [],
      "name": "H_TYPE_STR",
      "outputs": [
        {
          "internalType": "bytes32",
          "name": "",
          "type": "bytes32"
        }
      ],
      "stateMutability": "view",
      "type": "function"
    },
    {
      "inputs": [],
      "name": "RARITY_STR",
      "outputs": [
        {
          "internalType": "string",
          "name": "",
          "type": "string"
        }
      ],
      "stateMutability": "view",
      "type": "function"
    },
    {
      "inputs": [],
      "name": "TYPE_STR",
      "outputs": [
        {
          "internalType": "string",
          "name": "",
          "type": "string"
        }
      ],
      "stateMutability": "view",
      "type": "function"
    },
    {
      "inputs": [],
      "name": "VERSION",
      "outputs": [
        {
          "internalType": "bytes32",
          "name": "",
          "type": "bytes32"
        }
      ],
      "stateMutability": "view",
      "type": "function"
    },
    {
      "inputs": [],
      "name": "statsDistrib",
      "outputs": [
        {
          "internalType": "address",
          "name": "",
          "type": "address"
        }
      ],
      "stateMutability": "view",
      "type": "function"
    },
    {
      "inputs": [
        {
          "internalType": "address",
          "name": "_statsDistrib",
          "type": "address"
        }
      ],
      "name": "linkStatsDistrib",
      "outputs": [],
      "stateMutability": "nonpayable",
      "type": "function"
    },
    {
      "inputs": [
        {
          "internalType": "bytes32",
          "name": "nft_type",
          "type": "bytes32"
        },
        {
          "internalType": "uint256",
          "name": "id",
          "type": "uint256"
        },
        {
          "internalType": "string",
          "name": "name",
          "type": "string"
        }
      ],
      "name": "getStatInt",
      "outputs": [
        {
          "internalType": "uint256",
          "name": "",
          "type": "uint256"
        }
      ],
      "stateMutability": "view",
      "type": "function"
    },
    {
      "inputs": [
        {
          "internalType": "bytes32",
          "name": "nft_type",
          "type": "bytes32"
        },
        {
          "internalType": "uint256",
          "name": "id",
          "type": "uint256"
        },
        {
          "internalType": "string",
          "name": "name",
          "type": "string"
        }
      ],
      "name": "getStatString",
      "outputs": [
        {
          "internalType": "string",
          "name": "",
          "type": "string"
        }
      ],
      "stateMutability": "view",
      "type": "function"
    },
    {
      "inputs": [
        {
          "internalType": "bytes32",
          "name": "nft_type",
          "type": "bytes32"
        },
        {
          "internalType": "uint256",
          "name": "id",
          "type": "uint256"
        },
        {
          "internalType": "string",
          "name": "name",
          "type": "string"
        }
      ],
      "name": "getStatByte32",
      "outputs": [
        {
          "internalType": "bytes32",
          "name": "",
          "type": "bytes32"
        }
      ],
      "stateMutability": "view",
      "type": "function"
    },
    {
      "inputs": [
        {
          "internalType": "bytes32",
          "name": "nft_type",
          "type": "bytes32"
        },
        {
          "internalType": "uint256",
          "name": "id",
          "type": "uint256"
        },
        {
          "internalType": "string",
          "name": "name",
          "type": "string"
        }
      ],
      "name": "getStatBool",
      "outputs": [
        {
          "internalType": "bool",
          "name": "",
          "type": "bool"
        }
      ],
      "stateMutability": "view",
      "type": "function"
    },
    {
      "inputs": [
        {
          "internalType": "bytes32",
          "name": "nft_type",
          "type": "bytes32"
        }
      ],
      "name": "stats",
      "outputs": [
        {
          "components": [
            {
              "internalType": "string",
              "name": "name",
              "type": "string"
            },
            {
              "internalType": "enum Util.StatType",
              "name": "statType",
              "type": "uint8"
            },
            {
              "internalType": "bool",
              "name": "is_mutable",
              "type": "bool"
            }
          ],
          "internalType": "struct Util.Stat[]",
          "name": "",
          "type": "tuple[]"
        }
      ],
      "stateMutability": "pure",
      "type": "function"
    }
  ],
  "bytecode": "0x608060405234801561001057600080fd5b5060405161116538038061116583398101604081905261002f91610092565b6100388161003e565b506100c2565b600080546001600160a01b0319166001600160a01b0383169081179091556040519081527fd6ebeed44b8b1f3dea0f0065729e759c6e0a54fff5e3457d639ab0cb4b1643079060200160405180910390a150565b6000602082840312156100a457600080fd5b81516001600160a01b03811681146100bb57600080fd5b9392505050565b611094806100d16000396000f3fe608060405234801561001057600080fd5b50600436106101165760003560e01c806392040706116100a2578063c7a6ffc911610071578063c7a6ffc91461026a578063d9fb28fc14610290578063f170b6c0146102b3578063fa97af90146102bb578063ffa1ad74146102e057600080fd5b80639204070614610215578063a1b05aa21461021d578063ae97568c14610225578063b51e6dc71461024557600080fd5b8063519f7843116100e9578063519f7843146101975780635f560e831461019f5780637ec4483b146101c057806382913d82146101d557806391a7f8b0146101e357600080fd5b806329b88a4a1461011b5780632d3e50301461013657806330044d4214610161578063450a52d014610174575b600080fd5b6101236102e8565b6040519081526020015b60405180910390f35b600054610149906001600160a01b031681565b6040516001600160a01b03909116815260200161012d565b61012361016f366004610c2b565b610330565b610187610182366004610c2b565b610587565b604051901515815260200161012d565b6101236105b6565b6101b26101ad366004610c2b565b6105e6565b60405161012d929190610cab565b6101d36101ce366004610cda565b610616565b005b610123610182366004610c2b565b6102086040518060400160405280600681526020016572617269747960d01b81525081565b60405161012d9190610d5f565b61012361066a565b610123610697565b610238610233366004610d72565b6106c6565b60405161012d9190610da1565b6102086040518060400160405280600681526020016561747461636b60d01b81525081565b61020860405180604001604052806007815260200166646566656e736560c81b81525081565b610208604051806040016040528060048152602001637479706560e01b81525081565b6101236108f1565b610208604051806040016040528060068152602001650d0cac2d8e8d60d31b81525081565b610123610920565b6040518060400160405280600681526020016561747461636b60d01b8152506040516020016103179190610e43565b6040516020818303038152906040528051906020012081565b600060008051602061103f83398151915285146103685760405162461bcd60e51b815260040161035f90610e5f565b60405180910390fd5b6000838360405160200161037d929190610e96565b60408051601f1981840301815282825280516020918201208383018352600684526572617269747960d01b8483015291519193506103bc929101610e43565b604051602081830303815290604052805190602001208114156103fb576103e285610942565b60048111156103f3576103f3610d8b565b91505061057f565b604051806040016040528060048152602001637479706560e01b8152506040516020016104289190610e43565b6040516020818303038152906040528051906020012081141561044e576103e285610b05565b604051806040016040528060068152602001650d0cac2d8e8d60d31b81525060405160200161047d9190610e43565b604051602081830303815290604052805190602001208114806104e357506040518060400160405280600681526020016561747461636b60d01b8152506040516020016104ca9190610e43565b6040516020818303038152906040528051906020012081145b80610532575060405180604001604052806007815260200166646566656e736560c81b8152506040516020016105199190610e43565b6040516020818303038152906040528051906020012081145b15610544576103f36001600019610ea6565b60405162461bcd60e51b815260206004820152601060248201526f155b9cdd5c1c1bdc9d1959081cdd185d60821b604482015260640161035f565b949350505050565b600060008051602061103f83398151915285146105445760405162461bcd60e51b815260040161035f90610e5f565b60405180604001604052806007815260200166646566656e736560c81b8152506040516020016103179190610e43565b36600060008051602061103f83398151915286146105445760405162461bcd60e51b815260040161035f90610e5f565b600080546001600160a01b0319166001600160a01b0383169081179091556040519081527fd6ebeed44b8b1f3dea0f0065729e759c6e0a54fff5e3457d639ab0cb4b1643079060200160405180910390a150565b604051806040016040528060048152602001637479706560e01b8152506040516020016103179190610e43565b604051806040016040528060068152602001650d0cac2d8e8d60d31b8152506040516020016103179190610e43565b606060008051602061103f83398151915282146106f55760405162461bcd60e51b815260040161035f90610e5f565b60408051600580825260c08201909252600091816020015b604080516060808201835281526000602080830182905292820152825260001990920191018161070d5750506040805160a0810182526006606082019081526572617269747960d01b6080830152815260006020820181905291810182905282519293509183919061078157610781610ee1565b6020908102919091018101919091526040805160a08101909152600660608201908152650d0cac2d8e8d60d31b608083015281529081016000815260200160011515815250816001815181106107d9576107d9610ee1565b6020908102919091018101919091526040805160a08101909152600460608201908152637479706560e01b6080830152815290810160008152602001600015158152508160028151811061082f5761082f610ee1565b6020908102919091018101919091526040805160a081019091526006606082019081526561747461636b60d01b6080830152815290810160008152602001600115158152508160038151811061088757610887610ee1565b6020908102919091018101919091526040805160a0810190915260076060820190815266646566656e736560c81b608083015281529081016000815260200160011515815250816004815181106108e0576108e0610ee1565b602090810291909101015292915050565b6040518060400160405280600681526020016572617269747960d01b8152506040516020016103179190610e43565b6040516d447261676f6e53746174732d763160901b6020820152602e01610317565b600080826040518060400160405280600681526020016572617269747960d01b815250604051602001610976929190610ef7565b60408051601f1981840301815282825280516020909101206000805463153cf21960e31b8552925191945073__Util__________________________________936375233c279386936001600160a01b039091169263a9e790c892600480820193918290030181865afa1580156109f1573d6000803e3d6000fd5b505050506040513d6000823e601f3d908101601f19168201604052610a199190810190610f10565b60008054906101000a90046001600160a01b03166001600160a01b0316639f1349ed6040518163ffffffff1660e01b8152600401602060405180830381865afa158015610a6a573d6000803e3d6000fd5b505050506040513d601f19601f82011682018060405250810190610a8e9190610fce565b6040518463ffffffff1660e01b8152600401610aac93929190610fe7565b602060405180830381865af4158015610ac9573d6000803e3d6000fd5b505050506040513d601f19601f82011682018060405250810190610aed9190610fce565b6004811115610afe57610afe610d8b565b9392505050565b60008082604051806040016040528060048152602001637479706560e01b815250604051602001610b37929190610ef7565b60408051601f198184030181528282528051602090910120600080546304439f1f60e31b8552925191945073__Util__________________________________936375233c279386936001600160a01b039091169263221cf8f892600480820193918290030181865afa158015610bb2573d6000803e3d6000fd5b505050506040513d6000823e601f3d908101601f19168201604052610bda9190810190610f10565b60008054906101000a90046001600160a01b03166001600160a01b031663d710216e6040518163ffffffff1660e01b8152600401602060405180830381865afa158015610a6a573d6000803e3d6000fd5b60008060008060608587031215610c4157600080fd5b8435935060208501359250604085013567ffffffffffffffff80821115610c6757600080fd5b818701915087601f830112610c7b57600080fd5b813581811115610c8a57600080fd5b886020828501011115610c9c57600080fd5b95989497505060200194505050565b60208152816020820152818360408301376000818301604090810191909152601f909201601f19160101919050565b600060208284031215610cec57600080fd5b81356001600160a01b0381168114610afe57600080fd5b60005b83811015610d1e578181015183820152602001610d06565b83811115610d2d576000848401525b50505050565b60008151808452610d4b816020860160208601610d03565b601f01601f19169290920160200192915050565b602081526000610afe6020830184610d33565b600060208284031215610d8457600080fd5b5035919050565b634e487b7160e01b600052602160045260246000fd5b60006020808301818452808551808352604092508286019150828160051b8701018488016000805b84811015610e3457603f198a8503018652825160608151818752610def82880182610d33565b915050898201516004808210610e1257634e487b7160e01b865260218152602486fd5b50868b0152908801511515948801949094529487019491870191600101610dc9565b50919998505050505050505050565b60008251610e55818460208701610d03565b9190910192915050565b6020808252601f908201527f4e4654206d757374206265206f6620447261676f6e2043617264207479706500604082015260600190565b8183823760009101908152919050565b600082821015610ec657634e487b7160e01b600052601160045260246000fd5b500390565b634e487b7160e01b600052604160045260246000fd5b634e487b7160e01b600052603260045260246000fd5b82815260406020820152600061057f6040830184610d33565b60006020808385031215610f2357600080fd5b825167ffffffffffffffff80821115610f3b57600080fd5b818501915085601f830112610f4f57600080fd5b815181811115610f6157610f61610ecb565b8060051b604051601f19603f83011681018181108582111715610f8657610f86610ecb565b604052918252848201925083810185019188831115610fa457600080fd5b938501935b82851015610fc257845184529385019392850192610fa9565b98975050505050505050565b600060208284031215610fe057600080fd5b5051919050565b6000606082018583526020606081850152818651808452608086019150828801935060005b818110156110285784518352938301939183019160010161100c565b505080935050505082604083015294935050505056fe37a3c4a2a635dedf6a4912ec5757511a1f2fa87cb349543d4751fc18c65e4273a2646970667358221220375039a1a004db189521977ac92e4c9188f71cdf11b38e4f53fc90e884afea1564736f6c634300080b0033",
  "immutableReferences": {},
  "source": "/**\n * Derives dragon card stats from card ID\n * @title  Deriving dragon card stats from its ID\n * @author CryptoHog\n * @notice Defines an interface for a contract deriving the stats from a randomly generated ID\n */\n\npragma solidity ^0.8.0;\n\nimport \"./Util.sol\";\nimport \"./IStatsDerive.sol\";\nimport \"./StatsDistrib.sol\";\n\ncontract DragonStats is IStatsDerive {\n    bytes32 public constant VERSION = keccak256(abi.encodePacked('DragonStats-v1'));\n    string public constant RARITY_STR = 'rarity';\n    string public constant HEALTH_STR = 'health';\n    string public constant TYPE_STR   = 'type';\n    string public constant ATTACK_STR = 'attack';\n    string public constant DEFENSE_STR= 'defense';\n    bytes32 public constant H_RARITY_STR = keccak256(abi.encodePacked(RARITY_STR));\n    bytes32 public constant H_HEALTH_STR = keccak256(abi.encodePacked(HEALTH_STR));\n    bytes32 public constant H_TYPE_STR = keccak256(abi.encodePacked(TYPE_STR));\n    bytes32 public constant H_ATTACK_STR = keccak256(abi.encodePacked(ATTACK_STR));\n    bytes32 public constant H_DEFENSE_STR = keccak256(abi.encodePacked(DEFENSE_STR));\n\n\n    address public\tstatsDistrib;\n\n    constructor(address _statsDistrib){\n\tlinkStatsDistrib(_statsDistrib);\n    }\n\n    function linkStatsDistrib(address _statsDistrib) public {\n\tstatsDistrib = _statsDistrib;\n\temit StatsDistribLink(statsDistrib);\n    }\n\n    function deriveRarity(uint256 id) internal view returns (Util.CardRarity) {\n\tuint256 rvalue = uint256(keccak256(abi.encode(id,RARITY_STR)));\n\treturn Util.CardRarity(Util.getRandomItem(rvalue, StatsDistrib(statsDistrib).getDragonCardRarities(), StatsDistrib(statsDistrib).dragonCardRarityPopulationSize()));\n    }\n\n    function deriveType(uint256 id) internal view returns (Util.CardType) {\n\tuint256 rvalue = uint256(keccak256(abi.encode(id,TYPE_STR)));\n\treturn Util.CardType(Util.getRandomItem(rvalue, StatsDistrib(statsDistrib).getDragonCardTypes(), StatsDistrib(statsDistrib).dragonCardTypePopulationSize()));\n    }\n\n    /**\n     * @notice Derive an integer stat from the card's ID by the stats' name\n     *\n     * @param id An id generated by an RNG\n     * @param name The stats' name\n     * @return The stats' value\n    **/\n    function getStatInt(bytes32 nft_type, uint256 id, string calldata name) external view returns (uint256){\n\trequire(nft_type == Util.DRAGON_CARD_TYPE_CODE, \"NFT must be of Dragon Card type\");\n\tbytes32 h_name = keccak256(abi.encodePacked(name));\n\tif(h_name == H_RARITY_STR)\n\t    return uint256(deriveRarity(id));\n\tif(h_name == H_TYPE_STR)\n\t    return uint256(deriveType(id));\n\tif((h_name == H_HEALTH_STR)||(h_name == H_ATTACK_STR)||(h_name == H_DEFENSE_STR))\n\t    return Util.MAX_UINT;\n\trevert(\"Unsupported stat\");\n    }\n\n    /**\n     * @notice Derive a string stat from the card's ID by the stats' name\n     *\n     * @param id An id generated by an RNG\n     * @param name The stats' name\n     * @return The stats' value\n    **/\n    function getStatString(bytes32 nft_type, uint256 id, string calldata name) external view returns (string calldata){\n\trequire(nft_type == Util.DRAGON_CARD_TYPE_CODE, \"NFT must be of Dragon Card type\");\n\trevert(\"Unsupported stat\");\n    }\n\n    /**\n     * @notice Derive a 32 byte array stat from the card's ID by the stats' name\n     *\n     * @param id An id generated by an RNG\n     * @param name The stats' name\n     * @return The stats' value\n    **/\n    function getStatByte32(bytes32 nft_type, uint256 id, string calldata name) external view returns (bytes32){\n\trequire(nft_type == Util.DRAGON_CARD_TYPE_CODE, \"NFT must be of Dragon Card type\");\n\trevert(\"Unsupported stat\");\n    }\n\n    /**\n     * @notice Derive a boolean stat from the card's ID by the stats' name\n     *\n     * @param id An id generated by an RNG\n     * @param name The stats' name\n     * @return The stats' value\n    **/\n    function getStatBool(bytes32 nft_type, uint256 id, string calldata name) external view returns (bool){\n\trequire(nft_type == Util.DRAGON_CARD_TYPE_CODE, \"NFT must be of Dragon Card type\");\n\trevert(\"Unsupported stat\");\n    }\n\n    /**\n     * @notice Defines a set of stats that can be derived\n     *\n     * @return An enumerable set (actually, an array) of stats that can be derived by the interface implementation\n    **/\n    function stats(bytes32 nft_type) external pure returns (Util.Stat[] memory) {\n\trequire(nft_type == Util.DRAGON_CARD_TYPE_CODE, \"NFT must be of Dragon Card type\");\n\tUtil.Stat[] memory stats_list = new Util.Stat[](5);\n\tstats_list[0] = Util.Stat(RARITY_STR, Util.StatType.Integer, false);\n\tstats_list[1] = Util.Stat(HEALTH_STR, Util.StatType.Integer, true);\n\tstats_list[2] = Util.Stat(TYPE_STR, Util.StatType.Integer, false);\n\tstats_list[3] = Util.Stat(ATTACK_STR, Util.StatType.Integer, true);\n\tstats_list[4] = Util.Stat(DEFENSE_STR, Util.StatType.Integer, true);\n\treturn stats_list;\n    }\n\n    event StatsDistribLink(address _statsDistrib);\n}\n",
  "sourcePath": "/home/vrogojin/Projects/temp/FireZard/nft/contracts/DragonStats.sol",
  "compiler": {
    "name": "solc",
    "version": "0.8.11+commit.d7f03943.Emscripten.clang"
  },
  "schemaVersion": "3.4.4",
  "updatedAt": "2022-01-08T20:56:24.750Z",
  "devdoc": {
    "kind": "dev",
    "methods": {
      "getStatBool(bytes32,uint256,string)": {
        "params": {
          "id": "An id generated by an RNG",
          "name": "The stats' name"
        },
        "returns": {
          "_0": "The stats' value*"
        }
      },
      "getStatByte32(bytes32,uint256,string)": {
        "params": {
          "id": "An id generated by an RNG",
          "name": "The stats' name"
        },
        "returns": {
          "_0": "The stats' value*"
        }
      },
      "getStatInt(bytes32,uint256,string)": {
        "params": {
          "id": "An id generated by an RNG",
          "name": "The stats' name"
        },
        "returns": {
          "_0": "The stats' value*"
        }
      },
      "getStatString(bytes32,uint256,string)": {
        "params": {
          "id": "An id generated by an RNG",
          "name": "The stats' name"
        },
        "returns": {
          "_0": "The stats' value*"
        }
      },
      "stats(bytes32)": {
        "returns": {
          "_0": "An enumerable set (actually, an array) of stats that can be derived by the interface implementation*"
        }
      }
    },
    "version": 1
  },
  "userdoc": {
    "kind": "user",
    "methods": {
      "getStatBool(bytes32,uint256,string)": {
        "notice": "Derive a boolean stat from the card's ID by the stats' name"
      },
      "getStatByte32(bytes32,uint256,string)": {
        "notice": "Derive a 32 byte array stat from the card's ID by the stats' name"
      },
      "getStatInt(bytes32,uint256,string)": {
        "notice": "Derive an integer stat from the card's ID by the stats' name"
      },
      "getStatString(bytes32,uint256,string)": {
        "notice": "Derive a string stat from the card's ID by the stats' name"
      },
      "stats(bytes32)": {
        "notice": "Defines a set of stats that can be derived"
      }
    },
    "version": 1
  }
}