{
  "contractName": "DragonStats",
  "abi": [
    {
      "anonymous": false,
      "inputs": [
        {
          "indexed": false,
          "internalType": "address",
          "name": "_manager",
          "type": "address"
        }
      ],
      "name": "ContractAdded",
      "type": "event"
    },
    {
      "anonymous": false,
      "inputs": [
        {
          "indexed": false,
          "internalType": "address",
          "name": "newManager",
          "type": "address"
        }
      ],
      "name": "ContractManagerSwitch",
      "type": "event"
    },
    {
      "anonymous": false,
      "inputs": [
        {
          "indexed": false,
          "internalType": "address",
          "name": "newOwner",
          "type": "address"
        }
      ],
      "name": "ContractOwnershipUpdate",
      "type": "event"
    },
    {
      "anonymous": false,
      "inputs": [],
      "name": "ContractRemoved",
      "type": "event"
    },
    {
      "anonymous": false,
      "inputs": [
        {
          "indexed": false,
          "internalType": "address",
          "name": "contractInstance",
          "type": "address"
        }
      ],
      "name": "ContractReplaced",
      "type": "event"
    },
    {
      "anonymous": false,
      "inputs": [
        {
          "indexed": false,
          "internalType": "address",
          "name": "oldInstance",
          "type": "address"
        },
        {
          "indexed": false,
          "internalType": "address",
          "name": "_manager",
          "type": "address"
        }
      ],
      "name": "ContractUpdated",
      "type": "event"
    },
    {
      "anonymous": false,
      "inputs": [
        {
          "indexed": true,
          "internalType": "address",
          "name": "previousOwner",
          "type": "address"
        },
        {
          "indexed": true,
          "internalType": "address",
          "name": "newOwner",
          "type": "address"
        }
      ],
      "name": "OwnershipTransferred",
      "type": "event"
    },
    {
      "anonymous": false,
      "inputs": [
        {
          "indexed": true,
          "internalType": "bytes32",
          "name": "role",
          "type": "bytes32"
        },
        {
          "indexed": true,
          "internalType": "bytes32",
          "name": "previousAdminRole",
          "type": "bytes32"
        },
        {
          "indexed": true,
          "internalType": "bytes32",
          "name": "newAdminRole",
          "type": "bytes32"
        }
      ],
      "name": "RoleAdminChanged",
      "type": "event"
    },
    {
      "anonymous": false,
      "inputs": [
        {
          "indexed": true,
          "internalType": "bytes32",
          "name": "role",
          "type": "bytes32"
        },
        {
          "indexed": true,
          "internalType": "address",
          "name": "account",
          "type": "address"
        },
        {
          "indexed": true,
          "internalType": "address",
          "name": "sender",
          "type": "address"
        }
      ],
      "name": "RoleGranted",
      "type": "event"
    },
    {
      "anonymous": false,
      "inputs": [
        {
          "indexed": true,
          "internalType": "bytes32",
          "name": "role",
          "type": "bytes32"
        },
        {
          "indexed": true,
          "internalType": "address",
          "name": "account",
          "type": "address"
        },
        {
          "indexed": true,
          "internalType": "address",
          "name": "sender",
          "type": "address"
        }
      ],
      "name": "RoleRevoked",
      "type": "event"
    },
    {
      "anonymous": false,
      "inputs": [
        {
          "indexed": false,
          "internalType": "address",
          "name": "_statsDistrib",
          "type": "address"
        }
      ],
      "name": "StatsDistribLink",
      "type": "event"
    },
    {
      "inputs": [],
      "name": "ATTACK_STR",
      "outputs": [
        {
          "internalType": "string",
          "name": "",
          "type": "string"
        }
      ],
      "stateMutability": "view",
      "type": "function"
    },
    {
      "inputs": [],
      "name": "CHARACTER_AQAZARD_STR",
      "outputs": [
        {
          "internalType": "string",
          "name": "",
          "type": "string"
        }
      ],
      "stateMutability": "view",
      "type": "function"
    },
    {
      "inputs": [],
      "name": "CHARACTER_BLIZARD_STR",
      "outputs": [
        {
          "internalType": "string",
          "name": "",
          "type": "string"
        }
      ],
      "stateMutability": "view",
      "type": "function"
    },
    {
      "inputs": [],
      "name": "CHARACTER_BLOSZARD_STR",
      "outputs": [
        {
          "internalType": "string",
          "name": "",
          "type": "string"
        }
      ],
      "stateMutability": "view",
      "type": "function"
    },
    {
      "inputs": [],
      "name": "CHARACTER_CHILLAZARD_STR",
      "outputs": [
        {
          "internalType": "string",
          "name": "",
          "type": "string"
        }
      ],
      "stateMutability": "view",
      "type": "function"
    },
    {
      "inputs": [],
      "name": "CHARACTER_COOLBRYO_STR",
      "outputs": [
        {
          "internalType": "string",
          "name": "",
          "type": "string"
        }
      ],
      "stateMutability": "view",
      "type": "function"
    },
    {
      "inputs": [],
      "name": "CHARACTER_DRIPLAZARD_STR",
      "outputs": [
        {
          "internalType": "string",
          "name": "",
          "type": "string"
        }
      ],
      "stateMutability": "view",
      "type": "function"
    },
    {
      "inputs": [],
      "name": "CHARACTER_EMBERZARD_STR",
      "outputs": [
        {
          "internalType": "string",
          "name": "",
          "type": "string"
        }
      ],
      "stateMutability": "view",
      "type": "function"
    },
    {
      "inputs": [],
      "name": "CHARACTER_FIREZARD_STR",
      "outputs": [
        {
          "internalType": "string",
          "name": "",
          "type": "string"
        }
      ],
      "stateMutability": "view",
      "type": "function"
    },
    {
      "inputs": [],
      "name": "CHARACTER_FLAMEBRYO_STR",
      "outputs": [
        {
          "internalType": "string",
          "name": "",
          "type": "string"
        }
      ],
      "stateMutability": "view",
      "type": "function"
    },
    {
      "inputs": [],
      "name": "CHARACTER_FLAROZARD_STR",
      "outputs": [
        {
          "internalType": "string",
          "name": "",
          "type": "string"
        }
      ],
      "stateMutability": "view",
      "type": "function"
    },
    {
      "inputs": [],
      "name": "CHARACTER_FLORAZARD_STR",
      "outputs": [
        {
          "internalType": "string",
          "name": "",
          "type": "string"
        }
      ],
      "stateMutability": "view",
      "type": "function"
    },
    {
      "inputs": [],
      "name": "CHARACTER_FROZARD_STR",
      "outputs": [
        {
          "internalType": "string",
          "name": "",
          "type": "string"
        }
      ],
      "stateMutability": "view",
      "type": "function"
    },
    {
      "inputs": [],
      "name": "CHARACTER_HYDRAZARD_STR",
      "outputs": [
        {
          "internalType": "string",
          "name": "",
          "type": "string"
        }
      ],
      "stateMutability": "view",
      "type": "function"
    },
    {
      "inputs": [],
      "name": "CHARACTER_LECTRAZARD_STR",
      "outputs": [
        {
          "internalType": "string",
          "name": "",
          "type": "string"
        }
      ],
      "stateMutability": "view",
      "type": "function"
    },
    {
      "inputs": [
        {
          "internalType": "uint256",
          "name": "",
          "type": "uint256"
        }
      ],
      "name": "CHARACTER_NAMES",
      "outputs": [
        {
          "internalType": "string",
          "name": "",
          "type": "string"
        }
      ],
      "stateMutability": "view",
      "type": "function"
    },
    {
      "inputs": [],
      "name": "CHARACTER_NAME_STR",
      "outputs": [
        {
          "internalType": "string",
          "name": "",
          "type": "string"
        }
      ],
      "stateMutability": "view",
      "type": "function"
    },
    {
      "inputs": [],
      "name": "CHARACTER_SEEDBRYO_STR",
      "outputs": [
        {
          "internalType": "string",
          "name": "",
          "type": "string"
        }
      ],
      "stateMutability": "view",
      "type": "function"
    },
    {
      "inputs": [],
      "name": "CHARACTER_SPARKYZARD_STR",
      "outputs": [
        {
          "internalType": "string",
          "name": "",
          "type": "string"
        }
      ],
      "stateMutability": "view",
      "type": "function"
    },
    {
      "inputs": [],
      "name": "CHARACTER_SPLASH_STR",
      "outputs": [
        {
          "internalType": "string",
          "name": "",
          "type": "string"
        }
      ],
      "stateMutability": "view",
      "type": "function"
    },
    {
      "inputs": [],
      "name": "CHARACTER_SPROUTYZARD_STR",
      "outputs": [
        {
          "internalType": "string",
          "name": "",
          "type": "string"
        }
      ],
      "stateMutability": "view",
      "type": "function"
    },
    {
      "inputs": [],
      "name": "CHARACTER_STR",
      "outputs": [
        {
          "internalType": "string",
          "name": "",
          "type": "string"
        }
      ],
      "stateMutability": "view",
      "type": "function"
    },
    {
      "inputs": [],
      "name": "CHARACTER_VOLZARD_STR",
      "outputs": [
        {
          "internalType": "string",
          "name": "",
          "type": "string"
        }
      ],
      "stateMutability": "view",
      "type": "function"
    },
    {
      "inputs": [],
      "name": "CHARACTER_ZAPBRYO_STR",
      "outputs": [
        {
          "internalType": "string",
          "name": "",
          "type": "string"
        }
      ],
      "stateMutability": "view",
      "type": "function"
    },
    {
      "inputs": [],
      "name": "DEFAULT_ADMIN_ROLE",
      "outputs": [
        {
          "internalType": "bytes32",
          "name": "",
          "type": "bytes32"
        }
      ],
      "stateMutability": "view",
      "type": "function"
    },
    {
      "inputs": [],
      "name": "DEFENSE_STR",
      "outputs": [
        {
          "internalType": "string",
          "name": "",
          "type": "string"
        }
      ],
      "stateMutability": "view",
      "type": "function"
    },
    {
      "inputs": [],
      "name": "HEALTH_STR",
      "outputs": [
        {
          "internalType": "string",
          "name": "",
          "type": "string"
        }
      ],
      "stateMutability": "view",
      "type": "function"
    },
    {
      "inputs": [],
      "name": "H_ATTACK_STR",
      "outputs": [
        {
          "internalType": "bytes32",
          "name": "",
          "type": "bytes32"
        }
      ],
      "stateMutability": "view",
      "type": "function"
    },
    {
      "inputs": [],
      "name": "H_CHARACTER_NAME_STR",
      "outputs": [
        {
          "internalType": "bytes32",
          "name": "",
          "type": "bytes32"
        }
      ],
      "stateMutability": "view",
      "type": "function"
    },
    {
      "inputs": [],
      "name": "H_CHARACTER_STR",
      "outputs": [
        {
          "internalType": "bytes32",
          "name": "",
          "type": "bytes32"
        }
      ],
      "stateMutability": "view",
      "type": "function"
    },
    {
      "inputs": [],
      "name": "H_DEFENSE_STR",
      "outputs": [
        {
          "internalType": "bytes32",
          "name": "",
          "type": "bytes32"
        }
      ],
      "stateMutability": "view",
      "type": "function"
    },
    {
      "inputs": [],
      "name": "H_HEALTH_STR",
      "outputs": [
        {
          "internalType": "bytes32",
          "name": "",
          "type": "bytes32"
        }
      ],
      "stateMutability": "view",
      "type": "function"
    },
    {
      "inputs": [],
      "name": "H_RARITY_OVERRIDE_STR",
      "outputs": [
        {
          "internalType": "bytes32",
          "name": "",
          "type": "bytes32"
        }
      ],
      "stateMutability": "view",
      "type": "function"
    },
    {
      "inputs": [],
      "name": "H_RARITY_STR",
      "outputs": [
        {
          "internalType": "bytes32",
          "name": "",
          "type": "bytes32"
        }
      ],
      "stateMutability": "view",
      "type": "function"
    },
    {
      "inputs": [],
      "name": "H_TYPE_STR",
      "outputs": [
        {
          "internalType": "bytes32",
          "name": "",
          "type": "bytes32"
        }
      ],
      "stateMutability": "view",
      "type": "function"
    },
    {
      "inputs": [],
      "name": "MANAGER_ROLE",
      "outputs": [
        {
          "internalType": "bytes32",
          "name": "",
          "type": "bytes32"
        }
      ],
      "stateMutability": "view",
      "type": "function"
    },
    {
      "inputs": [],
      "name": "RARITY_OVERRIDE_STR",
      "outputs": [
        {
          "internalType": "string",
          "name": "",
          "type": "string"
        }
      ],
      "stateMutability": "view",
      "type": "function"
    },
    {
      "inputs": [],
      "name": "RARITY_STR",
      "outputs": [
        {
          "internalType": "string",
          "name": "",
          "type": "string"
        }
      ],
      "stateMutability": "view",
      "type": "function"
    },
    {
      "inputs": [],
      "name": "TYPE_STR",
      "outputs": [
        {
          "internalType": "string",
          "name": "",
          "type": "string"
        }
      ],
      "stateMutability": "view",
      "type": "function"
    },
    {
      "inputs": [],
      "name": "VERSION",
      "outputs": [
        {
          "internalType": "bytes32",
          "name": "",
          "type": "bytes32"
        }
      ],
      "stateMutability": "view",
      "type": "function"
    },
    {
      "inputs": [],
      "name": "contract_id",
      "outputs": [
        {
          "internalType": "bytes32",
          "name": "",
          "type": "bytes32"
        }
      ],
      "stateMutability": "view",
      "type": "function"
    },
    {
      "inputs": [],
      "name": "contract_name",
      "outputs": [
        {
          "internalType": "string",
          "name": "",
          "type": "string"
        }
      ],
      "stateMutability": "view",
      "type": "function"
    },
    {
      "inputs": [
        {
          "internalType": "bytes32",
          "name": "role",
          "type": "bytes32"
        }
      ],
      "name": "getRoleAdmin",
      "outputs": [
        {
          "internalType": "bytes32",
          "name": "",
          "type": "bytes32"
        }
      ],
      "stateMutability": "view",
      "type": "function"
    },
    {
      "inputs": [
        {
          "internalType": "bytes32",
          "name": "role",
          "type": "bytes32"
        },
        {
          "internalType": "uint256",
          "name": "index",
          "type": "uint256"
        }
      ],
      "name": "getRoleMember",
      "outputs": [
        {
          "internalType": "address",
          "name": "",
          "type": "address"
        }
      ],
      "stateMutability": "view",
      "type": "function"
    },
    {
      "inputs": [
        {
          "internalType": "bytes32",
          "name": "role",
          "type": "bytes32"
        }
      ],
      "name": "getRoleMemberCount",
      "outputs": [
        {
          "internalType": "uint256",
          "name": "",
          "type": "uint256"
        }
      ],
      "stateMutability": "view",
      "type": "function"
    },
    {
      "inputs": [
        {
          "internalType": "bytes32",
          "name": "role",
          "type": "bytes32"
        },
        {
          "internalType": "address",
          "name": "account",
          "type": "address"
        }
      ],
      "name": "grantRole",
      "outputs": [],
      "stateMutability": "nonpayable",
      "type": "function"
    },
    {
      "inputs": [
        {
          "internalType": "bytes32",
          "name": "role",
          "type": "bytes32"
        },
        {
          "internalType": "address",
          "name": "account",
          "type": "address"
        }
      ],
      "name": "hasRole",
      "outputs": [
        {
          "internalType": "bool",
          "name": "",
          "type": "bool"
        }
      ],
      "stateMutability": "view",
      "type": "function"
    },
    {
      "inputs": [],
      "name": "manager",
      "outputs": [
        {
          "internalType": "address",
          "name": "",
          "type": "address"
        }
      ],
      "stateMutability": "view",
      "type": "function"
    },
    {
      "inputs": [
        {
          "internalType": "address",
          "name": "_manager",
          "type": "address"
        }
      ],
      "name": "onAdd",
      "outputs": [],
      "stateMutability": "nonpayable",
      "type": "function"
    },
    {
      "inputs": [],
      "name": "onRemoved",
      "outputs": [],
      "stateMutability": "nonpayable",
      "type": "function"
    },
    {
      "inputs": [
        {
          "internalType": "address",
          "name": "newInstance",
          "type": "address"
        }
      ],
      "name": "onReplaced",
      "outputs": [],
      "stateMutability": "nonpayable",
      "type": "function"
    },
    {
      "inputs": [
        {
          "internalType": "address",
          "name": "oldInstance",
          "type": "address"
        },
        {
          "internalType": "address",
          "name": "_manager",
          "type": "address"
        }
      ],
      "name": "onUpdate",
      "outputs": [],
      "stateMutability": "nonpayable",
      "type": "function"
    },
    {
      "inputs": [],
      "name": "owner",
      "outputs": [
        {
          "internalType": "address",
          "name": "",
          "type": "address"
        }
      ],
      "stateMutability": "view",
      "type": "function"
    },
    {
      "inputs": [],
      "name": "renounceOwnership",
      "outputs": [],
      "stateMutability": "nonpayable",
      "type": "function"
    },
    {
      "inputs": [
        {
          "internalType": "bytes32",
          "name": "role",
          "type": "bytes32"
        },
        {
          "internalType": "address",
          "name": "account",
          "type": "address"
        }
      ],
      "name": "renounceRole",
      "outputs": [],
      "stateMutability": "nonpayable",
      "type": "function"
    },
    {
      "inputs": [
        {
          "internalType": "bytes32",
          "name": "role",
          "type": "bytes32"
        },
        {
          "internalType": "address",
          "name": "account",
          "type": "address"
        }
      ],
      "name": "revokeRole",
      "outputs": [],
      "stateMutability": "nonpayable",
      "type": "function"
    },
    {
      "inputs": [],
      "name": "statsDistrib",
      "outputs": [
        {
          "internalType": "address",
          "name": "",
          "type": "address"
        }
      ],
      "stateMutability": "view",
      "type": "function"
    },
    {
      "inputs": [
        {
          "internalType": "bytes4",
          "name": "interfaceId",
          "type": "bytes4"
        }
      ],
      "name": "supportsInterface",
      "outputs": [
        {
          "internalType": "bool",
          "name": "",
          "type": "bool"
        }
      ],
      "stateMutability": "view",
      "type": "function"
    },
    {
      "inputs": [
        {
          "internalType": "address",
          "name": "newManager",
          "type": "address"
        }
      ],
      "name": "switchManager",
      "outputs": [],
      "stateMutability": "nonpayable",
      "type": "function"
    },
    {
      "inputs": [
        {
          "internalType": "address",
          "name": "newOwner",
          "type": "address"
        }
      ],
      "name": "transferOwnership",
      "outputs": [],
      "stateMutability": "nonpayable",
      "type": "function"
    },
    {
      "inputs": [
        {
          "internalType": "address",
          "name": "newOwner",
          "type": "address"
        }
      ],
      "name": "updateOwnership",
      "outputs": [],
      "stateMutability": "nonpayable",
      "type": "function"
    },
    {
      "inputs": [],
      "name": "getName",
      "outputs": [
        {
          "internalType": "string",
          "name": "",
          "type": "string"
        }
      ],
      "stateMutability": "pure",
      "type": "function"
    },
    {
      "inputs": [],
      "name": "getId",
      "outputs": [
        {
          "internalType": "bytes32",
          "name": "",
          "type": "bytes32"
        }
      ],
      "stateMutability": "pure",
      "type": "function"
    },
    {
      "inputs": [],
      "name": "tokenTypeCode",
      "outputs": [
        {
          "internalType": "bytes32",
          "name": "",
          "type": "bytes32"
        }
      ],
      "stateMutability": "pure",
      "type": "function"
    },
    {
      "inputs": [
        {
          "internalType": "bytes32",
          "name": "hname",
          "type": "bytes32"
        },
        {
          "internalType": "address",
          "name": "contractInstance",
          "type": "address"
        },
        {
          "internalType": "bool",
          "name": "isNew",
          "type": "bool"
        }
      ],
      "name": "onListenAdded",
      "outputs": [],
      "stateMutability": "nonpayable",
      "type": "function"
    },
    {
      "inputs": [
        {
          "internalType": "bytes32",
          "name": "hname",
          "type": "bytes32"
        }
      ],
      "name": "onListenRemoved",
      "outputs": [],
      "stateMutability": "nonpayable",
      "type": "function"
    },
    {
      "inputs": [
        {
          "internalType": "address",
          "name": "_statsDistrib",
          "type": "address"
        }
      ],
      "name": "linkStatsDistrib",
      "outputs": [],
      "stateMutability": "nonpayable",
      "type": "function"
    },
    {
      "inputs": [
        {
          "internalType": "uint256",
          "name": "id",
          "type": "uint256"
        },
        {
          "internalType": "enum Util.CardRarity",
          "name": "rarity",
          "type": "uint8"
        },
        {
          "internalType": "enum Util.CardType",
          "name": "c_type",
          "type": "uint8"
        }
      ],
      "name": "deriveCharacter",
      "outputs": [
        {
          "internalType": "uint256",
          "name": "",
          "type": "uint256"
        }
      ],
      "stateMutability": "view",
      "type": "function"
    },
    {
      "inputs": [
        {
          "internalType": "uint256",
          "name": "character",
          "type": "uint256"
        }
      ],
      "name": "deriveCharacterName",
      "outputs": [
        {
          "internalType": "string",
          "name": "",
          "type": "string"
        }
      ],
      "stateMutability": "view",
      "type": "function"
    },
    {
      "inputs": [
        {
          "internalType": "bytes32",
          "name": "nft_type",
          "type": "bytes32"
        },
        {
          "internalType": "uint256",
          "name": "id",
          "type": "uint256"
        },
        {
          "internalType": "string",
          "name": "name",
          "type": "string"
        }
      ],
      "name": "getStatInt",
      "outputs": [
        {
          "internalType": "uint256",
          "name": "",
          "type": "uint256"
        }
      ],
      "stateMutability": "view",
      "type": "function"
    },
    {
      "inputs": [
        {
          "internalType": "bytes32",
          "name": "nft_type",
          "type": "bytes32"
        },
        {
          "internalType": "uint256",
          "name": "id",
          "type": "uint256"
        },
        {
          "internalType": "string",
          "name": "name",
          "type": "string"
        }
      ],
      "name": "getStatString",
      "outputs": [
        {
          "internalType": "string",
          "name": "",
          "type": "string"
        }
      ],
      "stateMutability": "view",
      "type": "function"
    },
    {
      "inputs": [
        {
          "internalType": "bytes32",
          "name": "nft_type",
          "type": "bytes32"
        },
        {
          "internalType": "uint256",
          "name": "id",
          "type": "uint256"
        },
        {
          "internalType": "string",
          "name": "name",
          "type": "string"
        }
      ],
      "name": "getStatByte32",
      "outputs": [
        {
          "internalType": "bytes32",
          "name": "",
          "type": "bytes32"
        }
      ],
      "stateMutability": "view",
      "type": "function"
    },
    {
      "inputs": [
        {
          "internalType": "bytes32",
          "name": "nft_type",
          "type": "bytes32"
        },
        {
          "internalType": "uint256",
          "name": "id",
          "type": "uint256"
        },
        {
          "internalType": "string",
          "name": "name",
          "type": "string"
        }
      ],
      "name": "getStatBool",
      "outputs": [
        {
          "internalType": "bool",
          "name": "",
          "type": "bool"
        }
      ],
      "stateMutability": "view",
      "type": "function"
    },
    {
      "inputs": [
        {
          "internalType": "bytes32",
          "name": "nft_type",
          "type": "bytes32"
        }
      ],
      "name": "stats",
      "outputs": [
        {
          "components": [
            {
              "internalType": "string",
              "name": "name",
              "type": "string"
            },
            {
              "internalType": "enum Util.StatType",
              "name": "statType",
              "type": "uint8"
            },
            {
              "internalType": "bool",
              "name": "is_mutable",
              "type": "bool"
            }
          ],
          "internalType": "struct Util.Stat[]",
          "name": "",
          "type": "tuple[]"
        }
      ],
      "stateMutability": "pure",
      "type": "function"
    }
  ],
  "bytecode": "0x60086108a081815267119a5c9956985c9960c21b6108c081905260809182526108e08381526109009190915260a052600961092081815268119b185c9bd6985c9960ba1b61094081905260c09190915261096082815261098082905260e0526109a08281526109c091909152610100526109e081815268115b58995c96985c9960ba1b610a0081905261012091909152610a20828152610a4082905261014052610a60828152610a809190915261016052610aa081815268466c616d656272796f60b81b610ac081905261018091909152610ae0828152610b008290526101a052610b20828152610b408290526101c052610b60828152610b808290526101e052610ba0828152610bc091909152610200526007610be081815266109b1a56985c9960ca1b610c0081905261022091909152610c20828152610c409190915261024052610c6081815266119c9bd6985c9960ca1b610c8081905261026091909152610ca0828152610cc082905261028052610ce0828152610d00919091526102a052600a610d208181526910da1a5b1b1856985c9960b21b610d408190526102c091909152610d60828152610d808290526102e052610da0828152610dc09190915261030052610de085815267436f6f6c6272796f60c01b610e0081905261032091909152610e20868152610e4082905261034052610e60868152610e8082905261036052610ea0868152610ec082905261038052610ee0868152610f00919091526103a052610f2083815268119b1bdc9856985c9960ba1b610f408190526103c091909152610f60848152610f80919091526103e052610fa085815267109b1bdcd6985c9960c21b610fc081905261040091909152610fe0868152611000829052610420526110208681526110409190915261044052600b6110608181526a14dc1c9bdd5d1e56985c9960aa1b611080819052610460919091526110a08281526110c0829052610480526110e0918252611100526104a05261112085815267536565646272796f60c01b6111408190526104c0919091526111608681526111808290526104e0526111a08681526111c0829052610500526111e086815261120082905261052052611220958652611240526105409490945261126084815269131958dd1c9856985c9960b21b611280819052610560919091526112a08581526112c091909152610580526112e081815266159bdb16985c9960ca1b6113008190526105a0919091526113208281526113408290526105c052611360828152611380919091526105e0526113a08481526914dc185c9ade56985c9960b21b6113c0819052610600919091526113e0858152611400829052610620526114208581526114409190915261064052611460818152665a61706272796f60c81b611480819052610660919091526114a08281526114c0829052610680526114e08281526115008290526106a0526115208281526115408290526106c052611560828152611580919091526106e0526115a082815268121e591c9856985c9960ba1b6115c0819052610700919091526115e0928352611600526107209190915261162081815266105c5856985c9960ca1b61164081905261074091909152611660828152611680829052610760526116a09182526116c052610780526116e082815269111c9a5c1b1856985c9960b21b6117008190526107a0919091526117208381526117408290526107c052611760838152611780919091526107e0526117a08281526953706c6173686272796f60b01b6117c0819052610800919091526117e08381526118008290526108205261182083815261184082905261084052611860838152611880829052610860526118e06040526118a09283526118c0526108809190915262000571906004906041620007ab565b506040805180820190915260018082526020820152620005969060059060026200080f565b506040805180820190915260018082526020820152620005bb9060069060026200080f565b50604080516080810182526001808252602082018190529181018290526060810191909152620005f09060079060046200080f565b50348015620005fe57600080fd5b506200060a336200061d565b620006176000336200066d565b62000994565b600080546001600160a01b038381166001600160a01b0319831681178455604051919092169283917f8be0079c531659141344cd1fd0a4f28419497f9722a3daafe3b4186f6b6457e09190a35050565b620006848282620006b060201b62001fc11760201c565b6000828152600260209081526040909120620006ab9183906200202c62000739821b17901c565b505050565b60008281526001602090815260408083206001600160a01b038516845290915290205460ff16620007355760008281526001602081815260408084206001600160a01b0386168086529252808420805460ff19169093179092559051339285917f2f8788117e7eff1d82e926ec794901d17c78024a50270940304540a733656f0d9190a45b5050565b600062000750836001600160a01b03841662000759565b90505b92915050565b6000818152600183016020526040812054620007a25750815460018181018455600084815260208082209093018490558454848252828601909352604090209190915562000753565b50600062000753565b828054828255906000526020600020908101928215620007fd579160200282015b82811115620007fd5782518051620007ec91849160209091019062000860565b5091602001919060010190620007cc565b506200080b929150620008dd565b5090565b82805482825590600052602060002090810192821562000852579160200282015b8281111562000852578251829060ff1690559160200191906001019062000830565b506200080b929150620008fe565b8280546200086e9062000957565b90600052602060002090601f01602090048101928262000892576000855562000852565b82601f10620008ad57805160ff191683800117855562000852565b8280016001018555821562000852579182015b8281111562000852578251825591602001919060010190620008c0565b808211156200080b576000620008f4828262000915565b50600101620008dd565b5b808211156200080b5760008155600101620008ff565b508054620009239062000957565b6000825580601f1062000934575050565b601f016020900490600052602060002090810190620009549190620008fe565b50565b600181811c908216806200096c57607f821691505b602082108114156200098e57634e487b7160e01b600052602260045260246000fd5b50919050565b6133c580620009a46000396000f3fe608060405234801561001057600080fd5b506004361061043e5760003560e01c80638840891e11610236578063af876b7a1161013b578063d547741f116100c3578063ec87621c11610087578063ec87621c14610bac578063f170b6c014610bc1578063f2fde38b14610bc9578063fa97af9014610bdc578063ffa1ad7414610c0157600080fd5b8063d547741f14610aff578063d947969214610b12578063d9fb28fc14610b3c578063dc358f9614610b5f578063e0195c0b14610b8557600080fd5b8063c69c95791161010a578063c69c957914610a78578063c7a6ffc914610a8b578063ca15c87314610ab1578063d1be5e9b14610ac4578063d4697a4714610aec57600080fd5b8063af876b7a146109f0578063b2c5be7314610a03578063b51e6dc714610a2c578063b92654e114610a5157600080fd5b8063a1b05aa2116101be578063a9e68c941161018d578063a9e68c9414610950578063abc26faf14610979578063ade1ca7e14610981578063ae177706146109aa578063ae97568c146109d057600080fd5b8063a1b05aa2146108f0578063a217fddf146108f8578063a4c87caf14610900578063a7ae92401461092657600080fd5b806391a7f8b01161020557806391a7f8b01461086057806391d148541461088557806392040706146108985780639463e045146108a0578063967dfc01146108c857600080fd5b80638840891e1461080357806388fee7c2146108165780638da5cb5b1461083c5780639010d07c1461084d57600080fd5b80633ad32d16116103475780635f560e83116102cf5780637d325d27116102935780637d325d271461075f5780637ec4483b1461078857806380c30bd91461079b5780638179b906146107c857806382913d82146107f057600080fd5b80635f560e83146106f25780636b2bf27f146107135780636f57cb6214610726578063715018a61461072e57806376eaa7881461073657600080fd5b80634cb1f92b116103165780634cb1f92b146106a8578063519f7843146106bb57806354b10da1146106c35780635d1ca631146106d75780635df11291146106df57600080fd5b80633ad32d1614610667578063450a52d01461066f578063481c6a75146106825780634ca7300c1461069557600080fd5b8063247a2f05116103ca5780632d3e5030116103995780632d3e5030146105db5780632f2ff15d146106065780632f34f36f1461061957806330044d421461064157806336568abe1461065457600080fd5b8063247a2f0514610562578063248a9ca31461058857806327eb14c6146105ac57806329b88a4a146105d357600080fd5b806316f28d241161041157806316f28d24146104dc57806317d7de7c146104ef57806319cd4c3d146105165780631a6f04f3146105445780631d0b1fbb1461054c57600080fd5b806301ffc9a7146104435780630447a2cd1461046b5780630dd5b17814610480578063129a3182146104b5575b600080fd5b610456610451366004612bea565b610c09565b60405190151581526020015b60405180910390f35b61047e610479366004612c30565b610c34565b005b6104a860405180604001604052806009815260200168119b185c9bd6985c9960ba1b81525081565b6040516104629190612cbf565b6104a860405180604001604052806008815260200167536565646272796f60c01b81525081565b61047e6104ea366004612cd2565b610c42565b60408051808201909152600b81526a447261676f6e537461747360a81b60208201526104a8565b6104a86040518060400160405280600f81526020016e7261726974795f6f7665727269646560881b81525081565b61047e610d05565b610554610d0f565b604051908152602001610462565b6104a860405180604001604052806007815260200166119c9bd6985c9960ca1b81525081565b610554610596366004612d17565b6000908152600160208190526040909120015490565b6104a860405180604001604052806008815260200167109b1bdcd6985c9960c21b81525081565b610554610d5a565b6008546105ee906001600160a01b031681565b6040516001600160a01b039091168152602001610462565b61047e610614366004612d30565b610d89565b6104a860405180604001604052806009815260200168119b1bdc9856985c9960ba1b81525081565b61055461064f366004612d53565b610db0565b61047e610662366004612d30565b6110aa565b610554611124565b61045661067d366004612d53565b611158565b6003546105ee906001600160a01b031681565b6104a86106a3366004612d17565b61120b565b6104a86106b6366004612d17565b6112ba565b610554611366565b600080516020613350833981519152610554565b610554611396565b61047e6106ed366004612dd3565b6113e7565b610705610700366004612d53565b6113f3565b604051610462929190612dee565b61047e610721366004612dd3565b6114fd565b610554611506565b61047e61153d565b6104a86040518060400160405280600a815260200169131958dd1c9856985c9960b21b81525081565b6104a86040518060400160405280600a81526020016910da1a5b1b1856985c9960b21b81525081565b61047e610796366004612dd3565b611571565b6104a86040518060400160405280600e81526020016d6368617261637465725f6e616d6560901b81525081565b6104a860405180604001604052806009815260200168466c616d656272796f60b81b81525081565b6105546107fe366004612d53565b6115a4565b61047e610811366004612dd3565b6115d3565b6104a8604051806040016040528060078152602001665a61706272796f60c81b81525081565b6000546001600160a01b03166105ee565b6105ee61085b366004612e1d565b6115dc565b6104a86040518060400160405280600681526020016572617269747960d01b81525081565b610456610893366004612d30565b6115fb565b610554611626565b6104a86040518060400160405280600981526020016831b430b930b1ba32b960b91b81525081565b6104a860405180604001604052806009815260200168115b58995c96985c9960ba1b81525081565b610554611653565b610554600081565b6104a860405180604001604052806007815260200166109b1a56985c9960ca1b81525081565b6104a86040518060400160405280600b81526020016a14dc1c9bdd5d1e56985c9960aa1b81525081565b6104a86040518060400160405280600a81526020016953706c6173686272796f60b01b81525081565b610554611682565b6104a86040518060400160405280600a81526020016914dc185c9ade56985c9960b21b81525081565b6104a860405180604001604052806007815260200166105c5856985c9960ca1b81525081565b6109e36109de366004612d17565b6116ba565b6040516104629190612e55565b6105546109fe366004612f04565b611a02565b6104a86040518060400160405280600a815260200169111c9a5c1b1856985c9960b21b81525081565b6104a86040518060400160405280600681526020016561747461636b60d01b81525081565b6104a860405180604001604052806008815260200167119a5c9956985c9960c21b81525081565b61047e610a86366004612dd3565b611dc6565b6104a860405180604001604052806007815260200166646566656e736560c81b81525081565b610554610abf366004612d17565b611dcf565b6104a860405180604001604052806009815260200168121e591c9856985c9960ba1b81525081565b61047e610afa366004612d17565b611de6565b61047e610b0d366004612d30565b611eb1565b6104a86040518060400160405280600b81526020016a447261676f6e537461747360a81b81525081565b6104a8604051806040016040528060048152602001637479706560e01b81525081565b6104a860405180604001604052806007815260200166159bdb16985c9960ca1b81525081565b6104a860405180604001604052806008815260200167436f6f6c6272796f60c01b81525081565b61055460008051602061337083398151915281565b610554611ed8565b61047e610bd7366004612dd3565b611f07565b6104a8604051806040016040528060068152602001650d0cac2d8e8d60d31b81525081565b610554611f9f565b60006001600160e01b0319821663ee7ed59960e01b1480610c2e5750610c2e82612041565b92915050565b610c3e8282612066565b5050565b610c5a600080516020613370833981519152336115fb565b610c7f5760405162461bcd60e51b8152600401610c7690612f3b565b60405180910390fd5b816001600160a01b0316633ad32d166040518163ffffffff1660e01b815260040160206040518083038186803b158015610cb857600080fd5b505afa158015610ccc573d6000803e3d6000fd5b505050506040513d601f19601f82011682018060405250810190610cf09190612f98565b831415610d0057610d00826120f9565b505050565b610d0d61214e565b565b6040518060400160405280600981526020016831b430b930b1ba32b960b91b815250604051602001610d419190612fb1565b6040516020818303038152906040528051906020012081565b6040518060400160405280600681526020016561747461636b60d01b815250604051602001610d419190612fb1565b60008281526001602081905260409091200154610da681336121bd565b610d008383612221565b60006000805160206133508339815191528514610ddf5760405162461bcd60e51b8152600401610c7690612fcd565b60008383604051602001610df4929190613004565b60408051601f1981840301815282825280516020918201208383018352600684526572617269747960d01b848301529151919350610e33929101612fb1565b60405160208183030381529060405280519060200120811415610e7257610e5985612243565b6004811115610e6a57610e6a612e3f565b9150506110a2565b604051806040016040528060048152602001637479706560e01b815250604051602001610e9f9190612fb1565b60405160208183030381529060405280519060200120811415610ec557610e598561243c565b6040518060400160405280600981526020016831b430b930b1ba32b960b91b815250604051602001610ef79190612fb1565b60405160208183030381529060405280519060200120811415610f715760405162461bcd60e51b815260206004820152602c60248201527f447261676f6e53746174733a2063616c6c20646572697665436861726163746560448201526b72206578706c696369746c7960a01b6064820152608401610c76565b604051806040016040528060068152602001650d0cac2d8e8d60d31b815250604051602001610fa09190612fb1565b6040516020818303038152906040528051906020012081148061100657506040518060400160405280600681526020016561747461636b60d01b815250604051602001610fed9190612fb1565b6040516020818303038152906040528051906020012081145b80611055575060405180604001604052806007815260200166646566656e736560c81b81525060405160200161103c9190612fb1565b6040516020818303038152906040528051906020012081145b1561106757610e6a600160001961302a565b60405162461bcd60e51b815260206004820152601060248201526f155b9cdd5c1c1bdc9d1959081cdd185d60821b6044820152606401610c76565b949350505050565b6001600160a01b038116331461111a5760405162461bcd60e51b815260206004820152602f60248201527f416363657373436f6e74726f6c3a2063616e206f6e6c792072656e6f756e636560448201526e103937b632b9903337b91039b2b63360891b6064820152608401610c76565b610c3e828261257c565b6040518060400160405280600b81526020016a447261676f6e537461747360a81b815250604051602001610d419190612fb1565b600060008051602061335083398151915285146111875760405162461bcd60e51b8152600401610c7690612fcd565b6000838360405160200161119c929190613004565b60408051601f1981840301815282825280516020918201208383018352600f84526e7261726974795f6f7665727269646560881b8483015291519193506111e4929101612fb1565b604051602081830303815290604052805190602001208114156110675760009150506110a2565b60606004828154811061122057611220613041565b90600052602060002001805461123590613057565b80601f016020809104026020016040519081016040528092919081815260200182805461126190613057565b80156112ae5780601f10611283576101008083540402835291602001916112ae565b820191906000526020600020905b81548152906001019060200180831161129157829003601f168201915b50505050509050919050565b600481815481106112ca57600080fd5b9060005260206000200160009150905080546112e590613057565b80601f016020809104026020016040519081016040528092919081815260200182805461131190613057565b801561135e5780601f106113335761010080835404028352916020019161135e565b820191906000526020600020905b81548152906001019060200180831161134157829003601f168201915b505050505081565b60405180604001604052806007815260200166646566656e736560c81b815250604051602001610d419190612fb1565b60006040518060400160405280600b81526020016a447261676f6e537461747360a81b8152506040516020016113cc9190612fb1565b60405160208183030381529060405280519060200120905090565b6113f08161259e565b50565b36600060008051602061335083398151915286146114235760405162461bcd60e51b8152600401610c7690612fcd565b60008484604051602001611438929190613004565b60408051601f1981840301815282825280516020918201208383018352600e84526d6368617261637465725f6e616d6560901b84830152915191935061147f929101612fb1565b604051602081830303815290604052805190602001208114156110675760405162461bcd60e51b815260206004820152603060248201527f447261676f6e53746174733a2063616c6c20646572697665436861726163746560448201526f724e616d65206578706c696369746c7960801b6064820152608401610c76565b6113f081612656565b6040518060400160405280600e81526020016d6368617261637465725f6e616d6560901b815250604051602001610d419190612fb1565b6000546001600160a01b031633146115675760405162461bcd60e51b8152600401610c7690613092565b610d0d60006126cc565b6000546001600160a01b0316331461159b5760405162461bcd60e51b8152600401610c7690613092565b6113f0816120f9565b600060008051602061335083398151915285146110675760405162461bcd60e51b8152600401610c7690612fcd565b6113f08161271c565b60008281526002602052604081206115f4908361279e565b9392505050565b60009182526001602090815260408084206001600160a01b0393909316845291905290205460ff1690565b604051806040016040528060048152602001637479706560e01b815250604051602001610d419190612fb1565b604051806040016040528060068152602001650d0cac2d8e8d60d31b815250604051602001610d419190612fb1565b6040518060400160405280600f81526020016e7261726974795f6f7665727269646560881b815250604051602001610d419190612fb1565b606060008051602061335083398151915282146116e95760405162461bcd60e51b8152600401610c7690612fcd565b6040805160088082526101208201909252600091816020015b60408051606080820183528152600060208083018290529282015282526000199092019101816117025750506040805160a0810182526006606082019081526572617269747960d01b6080830152815260006020820181905291810182905282519293509183919061177657611776613041565b6020908102919091018101919091526040805160a08101909152600660608201908152650d0cac2d8e8d60d31b608083015281529081016000815260200160011515815250816001815181106117ce576117ce613041565b6020908102919091018101919091526040805160a08101909152600460608201908152637479706560e01b6080830152815290810160008152602001600015158152508160028151811061182457611824613041565b6020908102919091018101919091526040805160a081019091526006606082019081526561747461636b60d01b6080830152815290810160008152602001600115158152508160038151811061187c5761187c613041565b6020908102919091018101919091526040805160a0810190915260076060820190815266646566656e736560c81b608083015281529081016000815260200160011515815250816004815181106118d5576118d5613041565b6020908102919091018101919091526040805160a08101909152600f606082019081526e7261726974795f6f7665727269646560881b6080830152815290810160038152602001600115158152508160058151811061193657611936613041565b6020908102919091018101919091526040805160a081019091526009606082019081526831b430b930b1ba32b960b91b6080830152815290810160008152602001600015158152508160068151811061199157611991613041565b6020908102919091018101919091526040805160a08101909152600e606082019081526d6368617261637465725f6e616d6560901b608083015281529081016001815260200160001515815250816007815181106119f1576119f1613041565b602090810291909101015292915050565b60008080836004811115611a1857611a18612e3f565b1415611a22575060005b6001836004811115611a3657611a36612e3f565b1415611a405750600d5b6002836004811115611a5457611a54612e3f565b1415611a5e5750601a5b6003836004811115611a7257611a72612e3f565b1415611a7c575060275b6004836004811115611a9057611a90612e3f565b1415611a9a575060345b6000846004811115611aae57611aae612e3f565b1415611abe5760ff1690506115f4565b6001846004811115611ad257611ad2612e3f565b1415611aee57611ae38160016130dd565b60ff169150506115f4565b6000856040518060400160405280600981526020016831b430b930b1ba32b960b91b815250604051602001611b24929190613102565b60408051601f19818403018152919052805160209091012090506002856004811115611b5257611b52612e3f565b1415611c06576040516375233c2760e01b815273__Util__________________________________906375233c2790611b9590849060059060039060040161311b565b60206040518083038186803b158015611bad57600080fd5b505af4158015611bc1573d6000803e3d6000fd5b505050506040513d601f19601f82011682018060405250810190611be59190612f98565b611bf08360026130dd565b60ff16611bfd9190613177565b925050506115f4565b6003856004811115611c1a57611c1a612e3f565b1415611cb8576040516375233c2760e01b815273__Util__________________________________906375233c2790611c5d90849060069060039060040161311b565b60206040518083038186803b158015611c7557600080fd5b505af4158015611c89573d6000803e3d6000fd5b505050506040513d601f19601f82011682018060405250810190611cad9190612f98565b611bf08360056130dd565b6004856004811115611ccc57611ccc612e3f565b1415611d6a576040516375233c2760e01b815273__Util__________________________________906375233c2790611d0f90849060079060059060040161311b565b60206040518083038186803b158015611d2757600080fd5b505af4158015611d3b573d6000803e3d6000fd5b505050506040513d601f19601f82011682018060405250810190611d5f9190612f98565b611bf08360086130dd565b60405162461bcd60e51b815260206004820152602b60248201527f447261676f6e53746174733a204661696c656420746f2064657269766520746860448201526a329031b430b930b1ba32b960a91b6064820152608401610c76565b6113f0816127aa565b6000818152600260205260408120610c2e90612827565b611dfe600080516020613370833981519152336115fb565b611e1a5760405162461bcd60e51b8152600401610c7690612f3b565b600860009054906101000a90046001600160a01b03166001600160a01b0316633ad32d166040518163ffffffff1660e01b815260040160206040518083038186803b158015611e6857600080fd5b505afa158015611e7c573d6000803e3d6000fd5b505050506040513d601f19601f82011682018060405250810190611ea09190612f98565b8114156113f0576113f060006120f9565b60008281526001602081905260409091200154611ece81336121bd565b610d00838361257c565b6040518060400160405280600681526020016572617269747960d01b815250604051602001610d419190612fb1565b6000546001600160a01b03163314611f315760405162461bcd60e51b8152600401610c7690613092565b6001600160a01b038116611f965760405162461bcd60e51b815260206004820152602660248201527f4f776e61626c653a206e6577206f776e657220697320746865207a65726f206160448201526564647265737360d01b6064820152608401610c76565b6113f0816126cc565b6040516d447261676f6e53746174732d763160901b6020820152602e01610d41565b611fcb82826115fb565b610c3e5760008281526001602081815260408084206001600160a01b0386168086529252808420805460ff19169093179092559051339285917f2f8788117e7eff1d82e926ec794901d17c78024a50270940304540a733656f0d9190a45050565b60006115f4836001600160a01b038416612831565b60006001600160e01b03198216635a05180f60e01b1480610c2e5750610c2e82612880565b61207e600080516020613370833981519152336115fb565b61209a5760405162461bcd60e51b8152600401610c7690612f3b565b600380546001600160a01b0319166001600160a01b0383811691821790925560408051928516835260208301919091527ff6515f2a6d531f16723c1e578303b7d74152bf8c0fa3bee828700a3d4706da8d910160405180910390a15050565b600880546001600160a01b0319166001600160a01b0383169081179091556040519081527fd6ebeed44b8b1f3dea0f0065729e759c6e0a54fff5e3457d639ab0cb4b164307906020015b60405180910390a150565b612166600080516020613370833981519152336115fb565b6121825760405162461bcd60e51b8152600401610c7690612f3b565b600380546001600160a01b03191690556040517f9a9a74cf290a994f69a718e8557deb1dd65135268f40e660cecddf675f5dd51490600090a1565b6121c782826115fb565b610c3e576121df816001600160a01b031660146128b5565b6121ea8360206128b5565b6040516020016121fb92919061318f565b60408051601f198184030181529082905262461bcd60e51b8252610c7691600401612cbf565b61222b8282611fc1565b6000828152600260205260409020610d00908261202c565b600080826040518060400160405280600681526020016572617269747960d01b815250604051602001612277929190613102565b6040516020818303038152906040528051906020012060001c905073__Util__________________________________6375233c2782600860009054906101000a90046001600160a01b03166001600160a01b031663a9e790c86040518163ffffffff1660e01b815260040160006040518083038186803b1580156122fb57600080fd5b505afa15801561230f573d6000803e3d6000fd5b505050506040513d6000823e601f3d908101601f191682016040526123379190810190613204565b600860009054906101000a90046001600160a01b03166001600160a01b0316639f1349ed6040518163ffffffff1660e01b815260040160206040518083038186803b15801561238557600080fd5b505afa158015612399573d6000803e3d6000fd5b505050506040513d601f19601f820116820180604052508101906123bd9190612f98565b6040518463ffffffff1660e01b81526004016123db939291906132c2565b60206040518083038186803b1580156123f357600080fd5b505af4158015612407573d6000803e3d6000fd5b505050506040513d601f19601f8201168201806040525081019061242b9190612f98565b60048111156115f4576115f4612e3f565b60008082604051806040016040528060048152602001637479706560e01b81525060405160200161246e929190613102565b6040516020818303038152906040528051906020012060001c905073__Util__________________________________6375233c2782600860009054906101000a90046001600160a01b03166001600160a01b031663221cf8f86040518163ffffffff1660e01b815260040160006040518083038186803b1580156124f257600080fd5b505afa158015612506573d6000803e3d6000fd5b505050506040513d6000823e601f3d908101601f1916820160405261252e9190810190613204565b600860009054906101000a90046001600160a01b03166001600160a01b031663d710216e6040518163ffffffff1660e01b815260040160206040518083038186803b15801561238557600080fd5b6125868282612a51565b6000828152600260205260409020610d009082612ab8565b6125b6600080516020613370833981519152336115fb565b6125d25760405162461bcd60e51b8152600401610c7690612f3b565b600380546001600160a01b0319166001600160a01b03831617905561260560008051602061337083398151915282610d89565b61261d60008051602061337083398151915233611eb1565b6040516001600160a01b03821681527f8eb47098f9568be754f51d21a870c8091ee0242cf97418db00927326d0e6ffcf90602001612143565b61266e600080516020613370833981519152336115fb565b61268a5760405162461bcd60e51b8152600401610c7690612f3b565b61269381611f07565b6040516001600160a01b03821681527ff2addf7f813887cf0fdd82b58fcc379ab2301e95c90b41a8cf2e5401914689c990602001612143565b600080546001600160a01b038381166001600160a01b0319831681178455604051919092169283917f8be0079c531659141344cd1fd0a4f28419497f9722a3daafe3b4186f6b6457e09190a35050565b612734600080516020613370833981519152336115fb565b6127505760405162461bcd60e51b8152600401610c7690612f3b565b600380546001600160a01b0319166001600160a01b0383169081179091556040519081527f89c66952b48f3e96bf1d8ba1b63189520fd988a6979b8b740bd5c5d8dc53e20590602001612143565b60006115f48383612acd565b6127c2600080516020613370833981519152336115fb565b6127de5760405162461bcd60e51b8152600401610c7690612f3b565b600380546001600160a01b03191690556040516001600160a01b03821681527f85a56ff958486f55dd742819603a46ba6233d3b24e6715f9cd5fd2ef6425d68090602001612143565b6000610c2e825490565b600081815260018301602052604081205461287857508154600181810184556000848152602080822090930184905584548482528286019093526040902091909155610c2e565b506000610c2e565b60006001600160e01b03198216637965db0b60e01b1480610c2e57506301ffc9a760e01b6001600160e01b0319831614610c2e565b606060006128c4836002613303565b6128cf906002613177565b67ffffffffffffffff8111156128e7576128e76130c7565b6040519080825280601f01601f191660200182016040528015612911576020820181803683370190505b509050600360fc1b8160008151811061292c5761292c613041565b60200101906001600160f81b031916908160001a905350600f60fb1b8160018151811061295b5761295b613041565b60200101906001600160f81b031916908160001a905350600061297f846002613303565b61298a906001613177565b90505b6001811115612a02576f181899199a1a9b1b9c1cb0b131b232b360811b85600f16601081106129be576129be613041565b1a60f81b8282815181106129d4576129d4613041565b60200101906001600160f81b031916908160001a90535060049490941c936129fb81613322565b905061298d565b5083156115f45760405162461bcd60e51b815260206004820181905260248201527f537472696e67733a20686578206c656e67746820696e73756666696369656e746044820152606401610c76565b612a5b82826115fb565b15610c3e5760008281526001602090815260408083206001600160a01b0385168085529252808320805460ff1916905551339285917ff6391f5c32d9c69d2a47ea670b442974b53935d1edc7fd64eb21e047a839171b9190a45050565b60006115f4836001600160a01b038416612af7565b6000826000018281548110612ae457612ae4613041565b9060005260206000200154905092915050565b60008181526001830160205260408120548015612be0576000612b1b60018361302a565b8554909150600090612b2f9060019061302a565b9050818114612b94576000866000018281548110612b4f57612b4f613041565b9060005260206000200154905080876000018481548110612b7257612b72613041565b6000918252602080832090910192909255918252600188019052604090208390555b8554869080612ba557612ba5613339565b600190038181906000526020600020016000905590558560010160008681526020019081526020016000206000905560019350505050610c2e565b6000915050610c2e565b600060208284031215612bfc57600080fd5b81356001600160e01b0319811681146115f457600080fd5b80356001600160a01b0381168114612c2b57600080fd5b919050565b60008060408385031215612c4357600080fd5b612c4c83612c14565b9150612c5a60208401612c14565b90509250929050565b60005b83811015612c7e578181015183820152602001612c66565b83811115612c8d576000848401525b50505050565b60008151808452612cab816020860160208601612c63565b601f01601f19169290920160200192915050565b6020815260006115f46020830184612c93565b600080600060608486031215612ce757600080fd5b83359250612cf760208501612c14565b915060408401358015158114612d0c57600080fd5b809150509250925092565b600060208284031215612d2957600080fd5b5035919050565b60008060408385031215612d4357600080fd5b82359150612c5a60208401612c14565b60008060008060608587031215612d6957600080fd5b8435935060208501359250604085013567ffffffffffffffff80821115612d8f57600080fd5b818701915087601f830112612da357600080fd5b813581811115612db257600080fd5b886020828501011115612dc457600080fd5b95989497505060200194505050565b600060208284031215612de557600080fd5b6115f482612c14565b60208152816020820152818360408301376000818301604090810191909152601f909201601f19160101919050565b60008060408385031215612e3057600080fd5b50508035926020909101359150565b634e487b7160e01b600052602160045260246000fd5b60006020808301818452808551808352604092508286019150828160051b8701018488016000805b84811015612ee857603f198a8503018652825160608151818752612ea382880182612c93565b915050898201516004808210612ec657634e487b7160e01b865260218152602486fd5b50868b0152908801511515948801949094529487019491870191600101612e7d565b50919998505050505050505050565b600581106113f057600080fd5b600080600060608486031215612f1957600080fd5b833592506020840135612f2b81612ef7565b91506040840135612d0c81612ef7565b6020808252603b908201527f43726f7373436f6e74726163744d616e4c697374656e65723a2074686520636160408201527f6c6c6572206d7573742068617665204d414e414745525f524f4c450000000000606082015260800190565b600060208284031215612faa57600080fd5b5051919050565b60008251612fc3818460208701612c63565b9190910192915050565b6020808252601f908201527f4e4654206d757374206265206f6620447261676f6e2043617264207479706500604082015260600190565b8183823760009101908152919050565b634e487b7160e01b600052601160045260246000fd5b60008282101561303c5761303c613014565b500390565b634e487b7160e01b600052603260045260246000fd5b600181811c9082168061306b57607f821691505b6020821081141561308c57634e487b7160e01b600052602260045260246000fd5b50919050565b6020808252818101527f4f776e61626c653a2063616c6c6572206973206e6f7420746865206f776e6572604082015260600190565b634e487b7160e01b600052604160045260246000fd5b600060ff821660ff84168060ff038211156130fa576130fa613014565b019392505050565b8281526040602082015260006110a26040830184612c93565b60006060820185835260206060818501528186548084526080860191508760005282600020935060005b8181101561316157845483526001948501949284019201613145565b5050809350505050826040830152949350505050565b6000821982111561318a5761318a613014565b500190565b7f416363657373436f6e74726f6c3a206163636f756e74200000000000000000008152600083516131c7816017850160208801612c63565b7001034b99036b4b9b9b4b733903937b6329607d1b60179184019182015283516131f8816028840160208801612c63565b01602801949350505050565b6000602080838503121561321757600080fd5b825167ffffffffffffffff8082111561322f57600080fd5b818501915085601f83011261324357600080fd5b815181811115613255576132556130c7565b8060051b604051601f19603f8301168101818110858211171561327a5761327a6130c7565b60405291825284820192508381018501918883111561329857600080fd5b938501935b828510156132b65784518452938501939285019261329d565b98975050505050505050565b6000606082018583526020606081850152818651808452608086019150828801935060005b81811015613161578451835293830193918301916001016132e7565b600081600019048311821515161561331d5761331d613014565b500290565b60008161333157613331613014565b506000190190565b634e487b7160e01b600052603160045260246000fdfe37a3c4a2a635dedf6a4912ec5757511a1f2fa87cb349543d4751fc18c65e4273241ecf16d79d0f8dbfb92cbc07fe17840425976cf0667f022fe9877caa831b08a264697066735822122041752bc7263d9f3d7782a79b5f5536e48bc2b754b5e6b0deef3c89a491dc296264736f6c63430008090033",
  "immutableReferences": {},
  "source": "// SPDX-License-Identifier: MIT\n/**\n * Derives dragon card stats from card ID\n * @title  Deriving dragon card stats from its ID\n * @author CryptoHog\n * @notice Defines an interface for a contract deriving the stats from a randomly generated ID\n */\n\npragma solidity ^0.8.0;\n\nimport \"./Util.sol\";\nimport \"./IStatsDerive.sol\";\nimport \"./StatsDistrib.sol\";\nimport \"./CrossContractManListener.sol\";\n\ncontract DragonStats is CrossContractManListener, IStatsDerive {\n    string  public constant contract_name = 'DragonStats';\n    bytes32 public constant contract_id = keccak256(abi.encodePacked(contract_name));\n\n    bytes32 public constant VERSION = keccak256(abi.encodePacked('DragonStats-v1'));\n    string public constant RARITY_STR = 'rarity';\n    string public constant RARITY_OVERRIDE_STR = 'rarity_override';\n    string public constant HEALTH_STR = 'health';\n    string public constant TYPE_STR   = 'type';\n    string public constant ATTACK_STR = 'attack';\n    string public constant DEFENSE_STR= 'defense';\n    string public constant CHARACTER_STR= 'character';\n    string public constant CHARACTER_NAME_STR= 'character_name';\n    bytes32 public constant H_RARITY_STR = keccak256(abi.encodePacked(RARITY_STR));\n    bytes32 public constant H_RARITY_OVERRIDE_STR = keccak256(abi.encodePacked(RARITY_OVERRIDE_STR));\n    bytes32 public constant H_HEALTH_STR = keccak256(abi.encodePacked(HEALTH_STR));\n    bytes32 public constant H_TYPE_STR = keccak256(abi.encodePacked(TYPE_STR));\n    bytes32 public constant H_ATTACK_STR = keccak256(abi.encodePacked(ATTACK_STR));\n    bytes32 public constant H_DEFENSE_STR = keccak256(abi.encodePacked(DEFENSE_STR));\n    bytes32 public constant H_CHARACTER_STR = keccak256(abi.encodePacked(CHARACTER_STR));\n    bytes32 public constant H_CHARACTER_NAME_STR = keccak256(abi.encodePacked(CHARACTER_NAME_STR));\n\n    string public constant CHARACTER_FIREZARD_STR = 'FireZard';\n    string public constant CHARACTER_FLAROZARD_STR = 'FlaroZard';\n    string public constant CHARACTER_EMBERZARD_STR = 'EmberZard';\n    string public constant CHARACTER_FLAMEBRYO_STR = 'Flamebryo';\n    string public constant CHARACTER_BLIZARD_STR = 'BliZard';\n    string public constant CHARACTER_FROZARD_STR = 'FroZard';\n    string public constant CHARACTER_CHILLAZARD_STR = 'ChillaZard';\n    string public constant CHARACTER_COOLBRYO_STR = 'Coolbryo';\n    string public constant CHARACTER_FLORAZARD_STR = 'FloraZard';\n    string public constant CHARACTER_BLOSZARD_STR = 'BlosZard';\n    string public constant CHARACTER_SPROUTYZARD_STR = 'SproutyZard';\n    string public constant CHARACTER_SEEDBRYO_STR = 'Seedbryo';\n    string public constant CHARACTER_LECTRAZARD_STR = 'LectraZard';\n    string public constant CHARACTER_VOLZARD_STR = 'VolZard';\n    string public constant CHARACTER_SPARKYZARD_STR = 'SparkyZard';\n    string public constant CHARACTER_ZAPBRYO_STR = 'Zapbryo';\n    string public constant CHARACTER_HYDRAZARD_STR = 'HydraZard';\n    string public constant CHARACTER_AQAZARD_STR = 'AqaZard';\n    string public constant CHARACTER_DRIPLAZARD_STR = 'DriplaZard';\n    string public constant CHARACTER_SPLASH_STR = 'Splashbryo';\n\n    string[] public CHARACTER_NAMES = [\n\tCHARACTER_FIREZARD_STR,   // 000\n\tCHARACTER_FIREZARD_STR,   // 001\n\tCHARACTER_FLAROZARD_STR,  // 002\n\tCHARACTER_FLAROZARD_STR,  // 003\n\tCHARACTER_FLAROZARD_STR,  // 004\n\tCHARACTER_EMBERZARD_STR,  // 005\n\tCHARACTER_EMBERZARD_STR,  // 006\n\tCHARACTER_EMBERZARD_STR,  // 007\n\tCHARACTER_FLAMEBRYO_STR,  // 008\n\tCHARACTER_FLAMEBRYO_STR,  // 009\n\tCHARACTER_FLAMEBRYO_STR,  // 010\n\tCHARACTER_FLAMEBRYO_STR,  // 011\n\tCHARACTER_FLAMEBRYO_STR,  // 012\n\tCHARACTER_BLIZARD_STR,    // 013\n\tCHARACTER_BLIZARD_STR,    // 014\n\tCHARACTER_FROZARD_STR,    // 015\n\tCHARACTER_FROZARD_STR,    // 016\n\tCHARACTER_FROZARD_STR,    // 017\n\tCHARACTER_CHILLAZARD_STR, // 018\n\tCHARACTER_CHILLAZARD_STR, // 019\n\tCHARACTER_CHILLAZARD_STR, // 020\n\tCHARACTER_COOLBRYO_STR,   // 021\n\tCHARACTER_COOLBRYO_STR,   // 022\n\tCHARACTER_COOLBRYO_STR,   // 023\n\tCHARACTER_COOLBRYO_STR,   // 024\n\tCHARACTER_COOLBRYO_STR,   // 025\n\tCHARACTER_FLORAZARD_STR,  // 026\n\tCHARACTER_FLORAZARD_STR,  // 027\n\tCHARACTER_BLOSZARD_STR,   // 028\n\tCHARACTER_BLOSZARD_STR,   // 029\n\tCHARACTER_BLOSZARD_STR,   // 030\n\tCHARACTER_SPROUTYZARD_STR,// 031\n\tCHARACTER_SPROUTYZARD_STR,// 032\n\tCHARACTER_SPROUTYZARD_STR,// 033\n\tCHARACTER_SEEDBRYO_STR,   // 034\n\tCHARACTER_SEEDBRYO_STR,   // 035\n\tCHARACTER_SEEDBRYO_STR,   // 036\n\tCHARACTER_SEEDBRYO_STR,   // 037\n\tCHARACTER_SEEDBRYO_STR,   // 038\n\tCHARACTER_LECTRAZARD_STR, // 039\n\tCHARACTER_LECTRAZARD_STR, // 040\n\tCHARACTER_VOLZARD_STR,    // 041\n\tCHARACTER_VOLZARD_STR,    // 042\n\tCHARACTER_VOLZARD_STR,    // 043\n\tCHARACTER_SPARKYZARD_STR, // 044\n\tCHARACTER_SPARKYZARD_STR, // 045\n\tCHARACTER_SPARKYZARD_STR, // 046\n\tCHARACTER_ZAPBRYO_STR,    // 047\n\tCHARACTER_ZAPBRYO_STR,    // 048\n\tCHARACTER_ZAPBRYO_STR,    // 049\n\tCHARACTER_ZAPBRYO_STR,    // 050\n\tCHARACTER_ZAPBRYO_STR,    // 051\n\tCHARACTER_HYDRAZARD_STR,  // 052\n\tCHARACTER_HYDRAZARD_STR,  // 053\n\tCHARACTER_AQAZARD_STR,    // 054\n\tCHARACTER_AQAZARD_STR,    // 055\n\tCHARACTER_AQAZARD_STR,    // 056\n\tCHARACTER_DRIPLAZARD_STR, // 057\n\tCHARACTER_DRIPLAZARD_STR, // 058\n\tCHARACTER_DRIPLAZARD_STR, // 059\n\tCHARACTER_SPLASH_STR,\t  // 060\n\tCHARACTER_SPLASH_STR,\t  // 061\n\tCHARACTER_SPLASH_STR,\t  // 062\n\tCHARACTER_SPLASH_STR,\t  // 063\n\tCHARACTER_SPLASH_STR\t  // 064\n    ];\n\n    uint256[] private  RARE_CHARACTER_DISTRIB = [1,1];\n    uint256   private constant RARE_CHARACTER_DISTRIB_SIZE = 3;\n    uint256[] private  UNCOMMON_CHARACTER_DISTRIB = [1,1];\n    uint256   private constant UNCOMMON_CHARACTER_DISTRIB_SIZE = 3;\n    uint256[] private  COMMON_CHARACTER_DISTRIB = [1,1,1,1];\n    uint256   private constant COMMON_CHARACTER_DISTRIB_SIZE = 5;\n\n    address public\tstatsDistrib;\n\n/*    constructor(address _statsDistrib){\n\tlinkStatsDistrib(_statsDistrib);\n    }*/\n\n    function getName() pure external returns(string memory) {\n\treturn contract_name;\n    }\n\n    function getId() pure external returns(bytes32) {\n\treturn contract_id;\n    }\n\n    function tokenTypeCode() external pure returns (bytes32){\n\treturn Util.DRAGON_CARD_TYPE_CODE;\n    }\n\n    function onListenAdded(bytes32 hname, address contractInstance, bool isNew) external onlyManager {\n\tif(hname == StatsDistrib(contractInstance).contract_id()){\n    \t    _linkStatsDistrib(contractInstance);\n    \t    return;\n\t}\n    }\n\n    function onListenRemoved(bytes32 hname) external onlyManager {\n\tif(hname == StatsDistrib(statsDistrib).contract_id()){\n    \t    _linkStatsDistrib(address(0));\n    \t    return;\n\t}\n    }\n\n    function _linkStatsDistrib(address _statsDistrib) internal {\n\tstatsDistrib = _statsDistrib;\n\temit StatsDistribLink(statsDistrib);\n    }\n\n    function linkStatsDistrib(address _statsDistrib) public virtual onlyOwner {\n\t_linkStatsDistrib(_statsDistrib);\n    }\n\n    function deriveRarity(uint256 id) internal view returns (Util.CardRarity) {\n\tuint256 rvalue = uint256(keccak256(abi.encode(id,RARITY_STR)));\n\treturn Util.CardRarity(Util.getRandomItem(rvalue, StatsDistrib(statsDistrib).getDragonCardRarities(), StatsDistrib(statsDistrib).dragonCardRarityPopulationSize()));\n    }\n\n    function deriveType(uint256 id) internal view returns (Util.CardType) {\n\tuint256 rvalue = uint256(keccak256(abi.encode(id,TYPE_STR)));\n\treturn Util.CardType(Util.getRandomItem(rvalue, StatsDistrib(statsDistrib).getDragonCardTypes(), StatsDistrib(statsDistrib).dragonCardTypePopulationSize()));\n    }\n\n    function deriveCharacter(uint256 id, Util.CardRarity rarity, Util.CardType c_type) public view returns (uint256) {\n\tuint8 offset;\n\tif(c_type == Util.CardType.Fire)     offset = 0;\n\tif(c_type == Util.CardType.Ice)      offset = 13;\n\tif(c_type == Util.CardType.Plant)    offset = 26;\n\tif(c_type == Util.CardType.Electric) offset = 39;\n\tif(c_type == Util.CardType.Water)    offset = 52;\n\n\tif(rarity == Util.CardRarity.Ultra_Rare)\n\t    return offset;\n\tif(rarity == Util.CardRarity.Super_Rare)\n\t    return offset+1;\n\n\tuint256 rvalue = uint256(keccak256(abi.encode(id,CHARACTER_STR)));\n\n\tif(rarity == Util.CardRarity.Rare)\n\t    return offset+2+Util.getRandomItem(rvalue, RARE_CHARACTER_DISTRIB, RARE_CHARACTER_DISTRIB_SIZE);\n\n\tif(rarity == Util.CardRarity.Uncommon)\n\t    return offset+5+Util.getRandomItem(rvalue, UNCOMMON_CHARACTER_DISTRIB, UNCOMMON_CHARACTER_DISTRIB_SIZE);\n\n\tif(rarity == Util.CardRarity.Common)\n\t    return offset+8+Util.getRandomItem(rvalue, COMMON_CHARACTER_DISTRIB, COMMON_CHARACTER_DISTRIB_SIZE);\n\n\trevert(\"DragonStats: Failed to derive the character\");\n    }\n\n    function deriveCharacterName(uint256 character) public view returns (string memory) {\n\treturn CHARACTER_NAMES[character];\n    }\n\n    /**\n     * @notice Derive an integer stat from the card's ID by the stats' name\n     *\n     * @param id An id generated by an RNG\n     * @param name The stats' name\n     * @return The stats' value\n    **/\n    function getStatInt(bytes32 nft_type, uint256 id, string calldata name) external view returns (uint256){\n\trequire(nft_type == Util.DRAGON_CARD_TYPE_CODE, \"NFT must be of Dragon Card type\");\n\tbytes32 h_name = keccak256(abi.encodePacked(name));\n\tif(h_name == H_RARITY_STR)\n\t    return uint256(deriveRarity(id));\n\tif(h_name == H_TYPE_STR)\n\t    return uint256(deriveType(id));\n\tif(h_name == H_CHARACTER_STR){\n\t    revert(\"DragonStats: call deriveCharacter explicitly\");\n/*\t    Util.CardRarity rarity = deriveRarity(id);\n\t    Util.CardType   type   = deriveType(id);\n\t    uint256 character = deriveCharacter(id,rarity,type);\n\t    require(character <= 64, \"DragonStats: chartacter number out of bounds (64)\");\n\t    return character;*/\n\t}\n\tif((h_name == H_HEALTH_STR)||(h_name == H_ATTACK_STR)||(h_name == H_DEFENSE_STR))\n\t    return Util.MAX_UINT;\n\trevert(\"Unsupported stat\");\n    }\n\n    /**\n     * @notice Derive a string stat from the card's ID by the stats' name\n     *\n     * @param id An id generated by an RNG\n     * @param name The stats' name\n     * @return The stats' value\n    **/\n    function getStatString(bytes32 nft_type, uint256 id, string calldata name) external view returns (string calldata){\n\trequire(nft_type == Util.DRAGON_CARD_TYPE_CODE, \"NFT must be of Dragon Card type\");\n\tbytes32 h_name = keccak256(abi.encodePacked(name));\n\tif(h_name == H_CHARACTER_NAME_STR){\n\t    revert(\"DragonStats: call deriveCharacterName explicitly\");\n\t}\n\t\n\trevert(\"Unsupported stat\");\n    }\n\n    /**\n     * @notice Derive a 32 byte array stat from the card's ID by the stats' name\n     *\n     * @param id An id generated by an RNG\n     * @param name The stats' name\n     * @return The stats' value\n    **/\n    function getStatByte32(bytes32 nft_type, uint256 id, string calldata name) external view returns (bytes32){\n\trequire(nft_type == Util.DRAGON_CARD_TYPE_CODE, \"NFT must be of Dragon Card type\");\n\trevert(\"Unsupported stat\");\n    }\n\n    /**\n     * @notice Derive a boolean stat from the card's ID by the stats' name\n     *\n     * @param id An id generated by an RNG\n     * @param name The stats' name\n     * @return The stats' value\n    **/\n    function getStatBool(bytes32 nft_type, uint256 id, string calldata name) external view returns (bool){\n\trequire(nft_type == Util.DRAGON_CARD_TYPE_CODE, \"NFT must be of Dragon Card type\");\n\tbytes32 h_name = keccak256(abi.encodePacked(name));\n\tif(h_name == H_RARITY_OVERRIDE_STR)\n\t    return false;\n\trevert(\"Unsupported stat\");\n    }\n\n    /**\n     * @notice Defines a set of stats that can be derived\n     *\n     * @return An enumerable set (actually, an array) of stats that can be derived by the interface implementation\n    **/\n    function stats(bytes32 nft_type) external pure returns (Util.Stat[] memory) {\n\trequire(nft_type == Util.DRAGON_CARD_TYPE_CODE, \"NFT must be of Dragon Card type\");\n\tUtil.Stat[] memory stats_list = new Util.Stat[](8);\n\tstats_list[0] = Util.Stat(RARITY_STR, Util.StatType.Integer, false);\n\tstats_list[1] = Util.Stat(HEALTH_STR, Util.StatType.Integer, true);\n\tstats_list[2] = Util.Stat(TYPE_STR, Util.StatType.Integer, false);\n\tstats_list[3] = Util.Stat(ATTACK_STR, Util.StatType.Integer, true);\n\tstats_list[4] = Util.Stat(DEFENSE_STR, Util.StatType.Integer, true);\n\tstats_list[5] = Util.Stat(RARITY_OVERRIDE_STR, Util.StatType.Boolean, true);\n\tstats_list[6] = Util.Stat(CHARACTER_STR, Util.StatType.Integer, false);\n\tstats_list[7] = Util.Stat(CHARACTER_NAME_STR, Util.StatType.String, false);\n\treturn stats_list;\n    }\n\n    event StatsDistribLink(address _statsDistrib);\n}\n",
  "sourcePath": "/home/vrogojin/Projects/FireZard/nft/contracts/DragonStats.sol",
  "compiler": {
    "name": "solc",
    "version": "0.8.9+commit.e5eed63a.Emscripten.clang"
  },
  "schemaVersion": "3.4.3",
  "updatedAt": "2022-02-07T18:32:07.906Z",
  "devdoc": {
    "kind": "dev",
    "methods": {
      "getRoleAdmin(bytes32)": {
        "details": "Returns the admin role that controls `role`. See {grantRole} and {revokeRole}. To change a role's admin, use {_setRoleAdmin}."
      },
      "getRoleMember(bytes32,uint256)": {
        "details": "Returns one of the accounts that have `role`. `index` must be a value between 0 and {getRoleMemberCount}, non-inclusive. Role bearers are not sorted in any particular way, and their ordering may change at any point. WARNING: When using {getRoleMember} and {getRoleMemberCount}, make sure you perform all queries on the same block. See the following https://forum.openzeppelin.com/t/iterating-over-elements-on-enumerableset-in-openzeppelin-contracts/2296[forum post] for more information."
      },
      "getRoleMemberCount(bytes32)": {
        "details": "Returns the number of accounts that have `role`. Can be used together with {getRoleMember} to enumerate all bearers of a role."
      },
      "getStatBool(bytes32,uint256,string)": {
        "params": {
          "id": "An id generated by an RNG",
          "name": "The stats' name"
        },
        "returns": {
          "_0": "The stats' value*"
        }
      },
      "getStatByte32(bytes32,uint256,string)": {
        "params": {
          "id": "An id generated by an RNG",
          "name": "The stats' name"
        },
        "returns": {
          "_0": "The stats' value*"
        }
      },
      "getStatInt(bytes32,uint256,string)": {
        "params": {
          "id": "An id generated by an RNG",
          "name": "The stats' name"
        },
        "returns": {
          "_0": "The stats' value*"
        }
      },
      "getStatString(bytes32,uint256,string)": {
        "params": {
          "id": "An id generated by an RNG",
          "name": "The stats' name"
        },
        "returns": {
          "_0": "The stats' value*"
        }
      },
      "grantRole(bytes32,address)": {
        "details": "Grants `role` to `account`. If `account` had not been already granted `role`, emits a {RoleGranted} event. Requirements: - the caller must have ``role``'s admin role."
      },
      "hasRole(bytes32,address)": {
        "details": "Returns `true` if `account` has been granted `role`."
      },
      "owner()": {
        "details": "Returns the address of the current owner."
      },
      "renounceOwnership()": {
        "details": "Leaves the contract without owner. It will not be possible to call `onlyOwner` functions anymore. Can only be called by the current owner. NOTE: Renouncing ownership will leave the contract without an owner, thereby removing any functionality that is only available to the owner."
      },
      "renounceRole(bytes32,address)": {
        "details": "Revokes `role` from the calling account. Roles are often managed via {grantRole} and {revokeRole}: this function's purpose is to provide a mechanism for accounts to lose their privileges if they are compromised (such as when a trusted device is misplaced). If the calling account had been revoked `role`, emits a {RoleRevoked} event. Requirements: - the caller must be `account`."
      },
      "revokeRole(bytes32,address)": {
        "details": "Revokes `role` from `account`. If `account` had been granted `role`, emits a {RoleRevoked} event. Requirements: - the caller must have ``role``'s admin role."
      },
      "stats(bytes32)": {
        "returns": {
          "_0": "An enumerable set (actually, an array) of stats that can be derived by the interface implementation*"
        }
      },
      "supportsInterface(bytes4)": {
        "details": "See {IERC165-supportsInterface}."
      },
      "tokenTypeCode()": {
        "returns": {
          "_0": "Token type code*"
        }
      },
      "transferOwnership(address)": {
        "details": "Transfers ownership of the contract to a new account (`newOwner`). Can only be called by the current owner."
      }
    },
    "version": 1
  },
  "userdoc": {
    "kind": "user",
    "methods": {
      "getStatBool(bytes32,uint256,string)": {
        "notice": "Derive a boolean stat from the card's ID by the stats' name"
      },
      "getStatByte32(bytes32,uint256,string)": {
        "notice": "Derive a 32 byte array stat from the card's ID by the stats' name"
      },
      "getStatInt(bytes32,uint256,string)": {
        "notice": "Derive an integer stat from the card's ID by the stats' name"
      },
      "getStatString(bytes32,uint256,string)": {
        "notice": "Derive a string stat from the card's ID by the stats' name"
      },
      "stats(bytes32)": {
        "notice": "Defines a set of stats that can be derived"
      },
      "tokenTypeCode()": {
        "notice": "Token type code"
      }
    },
    "version": 1
  }
}