{
  "contractName": "DragonStats",
  "abi": [
    {
      "inputs": [
        {
          "internalType": "address",
          "name": "_statsDistrib",
          "type": "address"
        }
      ],
      "stateMutability": "nonpayable",
      "type": "constructor"
    },
    {
      "anonymous": false,
      "inputs": [
        {
          "indexed": false,
          "internalType": "address",
          "name": "_statsDistrib",
          "type": "address"
        }
      ],
      "name": "StatsDistribLink",
      "type": "event"
    },
    {
      "inputs": [],
      "name": "ATTACK_STR",
      "outputs": [
        {
          "internalType": "string",
          "name": "",
          "type": "string"
        }
      ],
      "stateMutability": "view",
      "type": "function"
    },
    {
      "inputs": [],
      "name": "DEFENSE_STR",
      "outputs": [
        {
          "internalType": "string",
          "name": "",
          "type": "string"
        }
      ],
      "stateMutability": "view",
      "type": "function"
    },
    {
      "inputs": [],
      "name": "HEALTH_STR",
      "outputs": [
        {
          "internalType": "string",
          "name": "",
          "type": "string"
        }
      ],
      "stateMutability": "view",
      "type": "function"
    },
    {
      "inputs": [],
      "name": "H_ATTACK_STR",
      "outputs": [
        {
          "internalType": "bytes32",
          "name": "",
          "type": "bytes32"
        }
      ],
      "stateMutability": "view",
      "type": "function"
    },
    {
      "inputs": [],
      "name": "H_DEFENSE_STR",
      "outputs": [
        {
          "internalType": "bytes32",
          "name": "",
          "type": "bytes32"
        }
      ],
      "stateMutability": "view",
      "type": "function"
    },
    {
      "inputs": [],
      "name": "H_HEALTH_STR",
      "outputs": [
        {
          "internalType": "bytes32",
          "name": "",
          "type": "bytes32"
        }
      ],
      "stateMutability": "view",
      "type": "function"
    },
    {
      "inputs": [],
      "name": "H_RARITY_OVERRIDE_STR",
      "outputs": [
        {
          "internalType": "bytes32",
          "name": "",
          "type": "bytes32"
        }
      ],
      "stateMutability": "view",
      "type": "function"
    },
    {
      "inputs": [],
      "name": "H_RARITY_STR",
      "outputs": [
        {
          "internalType": "bytes32",
          "name": "",
          "type": "bytes32"
        }
      ],
      "stateMutability": "view",
      "type": "function"
    },
    {
      "inputs": [],
      "name": "H_TYPE_STR",
      "outputs": [
        {
          "internalType": "bytes32",
          "name": "",
          "type": "bytes32"
        }
      ],
      "stateMutability": "view",
      "type": "function"
    },
    {
      "inputs": [],
      "name": "RARITY_OVERRIDE_STR",
      "outputs": [
        {
          "internalType": "string",
          "name": "",
          "type": "string"
        }
      ],
      "stateMutability": "view",
      "type": "function"
    },
    {
      "inputs": [],
      "name": "RARITY_STR",
      "outputs": [
        {
          "internalType": "string",
          "name": "",
          "type": "string"
        }
      ],
      "stateMutability": "view",
      "type": "function"
    },
    {
      "inputs": [],
      "name": "TYPE_STR",
      "outputs": [
        {
          "internalType": "string",
          "name": "",
          "type": "string"
        }
      ],
      "stateMutability": "view",
      "type": "function"
    },
    {
      "inputs": [],
      "name": "VERSION",
      "outputs": [
        {
          "internalType": "bytes32",
          "name": "",
          "type": "bytes32"
        }
      ],
      "stateMutability": "view",
      "type": "function"
    },
    {
      "inputs": [],
      "name": "statsDistrib",
      "outputs": [
        {
          "internalType": "address",
          "name": "",
          "type": "address"
        }
      ],
      "stateMutability": "view",
      "type": "function"
    },
    {
      "inputs": [
        {
          "internalType": "address",
          "name": "_statsDistrib",
          "type": "address"
        }
      ],
      "name": "linkStatsDistrib",
      "outputs": [],
      "stateMutability": "nonpayable",
      "type": "function"
    },
    {
      "inputs": [
        {
          "internalType": "bytes32",
          "name": "nft_type",
          "type": "bytes32"
        },
        {
          "internalType": "uint256",
          "name": "id",
          "type": "uint256"
        },
        {
          "internalType": "string",
          "name": "name",
          "type": "string"
        }
      ],
      "name": "getStatInt",
      "outputs": [
        {
          "internalType": "uint256",
          "name": "",
          "type": "uint256"
        }
      ],
      "stateMutability": "view",
      "type": "function"
    },
    {
      "inputs": [
        {
          "internalType": "bytes32",
          "name": "nft_type",
          "type": "bytes32"
        },
        {
          "internalType": "uint256",
          "name": "id",
          "type": "uint256"
        },
        {
          "internalType": "string",
          "name": "name",
          "type": "string"
        }
      ],
      "name": "getStatString",
      "outputs": [
        {
          "internalType": "string",
          "name": "",
          "type": "string"
        }
      ],
      "stateMutability": "view",
      "type": "function"
    },
    {
      "inputs": [
        {
          "internalType": "bytes32",
          "name": "nft_type",
          "type": "bytes32"
        },
        {
          "internalType": "uint256",
          "name": "id",
          "type": "uint256"
        },
        {
          "internalType": "string",
          "name": "name",
          "type": "string"
        }
      ],
      "name": "getStatByte32",
      "outputs": [
        {
          "internalType": "bytes32",
          "name": "",
          "type": "bytes32"
        }
      ],
      "stateMutability": "view",
      "type": "function"
    },
    {
      "inputs": [
        {
          "internalType": "bytes32",
          "name": "nft_type",
          "type": "bytes32"
        },
        {
          "internalType": "uint256",
          "name": "id",
          "type": "uint256"
        },
        {
          "internalType": "string",
          "name": "name",
          "type": "string"
        }
      ],
      "name": "getStatBool",
      "outputs": [
        {
          "internalType": "bool",
          "name": "",
          "type": "bool"
        }
      ],
      "stateMutability": "view",
      "type": "function"
    },
    {
      "inputs": [
        {
          "internalType": "bytes32",
          "name": "nft_type",
          "type": "bytes32"
        }
      ],
      "name": "stats",
      "outputs": [
        {
          "components": [
            {
              "internalType": "string",
              "name": "name",
              "type": "string"
            },
            {
              "internalType": "enum Util.StatType",
              "name": "statType",
              "type": "uint8"
            },
            {
              "internalType": "bool",
              "name": "is_mutable",
              "type": "bool"
            }
          ],
          "internalType": "struct Util.Stat[]",
          "name": "",
          "type": "tuple[]"
        }
      ],
      "stateMutability": "pure",
      "type": "function"
    }
  ],
  "bytecode": "0x608060405234801561001057600080fd5b5060405161133d38038061133d83398101604081905261002f91610092565b6100388161003e565b506100c2565b600080546001600160a01b0319166001600160a01b0383169081179091556040519081527fd6ebeed44b8b1f3dea0f0065729e759c6e0a54fff5e3457d639ab0cb4b1643079060200160405180910390a150565b6000602082840312156100a457600080fd5b81516001600160a01b03811681146100bb57600080fd5b9392505050565b61126c806100d16000396000f3fe608060405234801561001057600080fd5b506004361061012c5760003560e01c806392040706116100ad578063c7a6ffc911610071578063c7a6ffc9146102bf578063d9fb28fc146102e5578063f170b6c014610308578063fa97af9014610310578063ffa1ad741461033557600080fd5b80639204070614610262578063a1b05aa21461026a578063abc26faf14610272578063ae97568c1461027a578063b51e6dc71461029a57600080fd5b8063519f7843116100f4578063519f7843146101ec5780635f560e83146101f45780637ec4483b1461021557806382913d821461022a57806391a7f8b01461023d57600080fd5b806319cd4c3d1461013157806329b88a4a146101755780632d3e50301461018b57806330044d42146101b6578063450a52d0146101c9575b600080fd5b61015f6040518060400160405280600f81526020016e7261726974795f6f7665727269646560881b81525081565b60405161016c9190610e5f565b60405180910390f35b61017d61033d565b60405190815260200161016c565b60005461019e906001600160a01b031681565b6040516001600160a01b03909116815260200161016c565b61017d6101c4366004610e72565b610385565b6101dc6101d7366004610e72565b6105dc565b604051901515815260200161016c565b61017d61068f565b610207610202366004610e72565b6106bf565b60405161016c929190610ef2565b610228610223366004610f21565b6106ef565b005b61017d610238366004610e72565b610743565b61015f6040518060400160405280600681526020016572617269747960d01b81525081565b61017d610772565b61017d61079f565b61017d6107ce565b61028d610288366004610f4a565b610806565b60405161016c9190610f79565b61015f6040518060400160405280600681526020016561747461636b60d01b81525081565b61015f60405180604001604052806007815260200166646566656e736560c81b81525081565b61015f604051806040016040528060048152602001637479706560e01b81525081565b61017d610a92565b61015f604051806040016040528060068152602001650d0cac2d8e8d60d31b81525081565b61017d610ac1565b6040518060400160405280600681526020016561747461636b60d01b81525060405160200161036c919061101b565b6040516020818303038152906040528051906020012081565b600060008051602061121783398151915285146103bd5760405162461bcd60e51b81526004016103b490611037565b60405180910390fd5b600083836040516020016103d292919061106e565b60408051601f1981840301815282825280516020918201208383018352600684526572617269747960d01b84830152915191935061041192910161101b565b604051602081830303815290604052805190602001208114156104505761043785610ae3565b600481111561044857610448610f63565b9150506105d4565b604051806040016040528060048152602001637479706560e01b81525060405160200161047d919061101b565b604051602081830303815290604052805190602001208114156104a35761043785610cd3565b604051806040016040528060068152602001650d0cac2d8e8d60d31b8152506040516020016104d2919061101b565b6040516020818303038152906040528051906020012081148061053857506040518060400160405280600681526020016561747461636b60d01b81525060405160200161051f919061101b565b6040516020818303038152906040528051906020012081145b80610587575060405180604001604052806007815260200166646566656e736560c81b81525060405160200161056e919061101b565b6040516020818303038152906040528051906020012081145b1561059957610448600160001961107e565b60405162461bcd60e51b815260206004820152601060248201526f155b9cdd5c1c1bdc9d1959081cdd185d60821b60448201526064016103b4565b949350505050565b6000600080516020611217833981519152851461060b5760405162461bcd60e51b81526004016103b490611037565b6000838360405160200161062092919061106e565b60408051601f1981840301815282825280516020918201208383018352600f84526e7261726974795f6f7665727269646560881b84830152915191935061066892910161101b565b604051602081830303815290604052805190602001208114156105995760009150506105d4565b60405180604001604052806007815260200166646566656e736560c81b81525060405160200161036c919061101b565b36600060008051602061121783398151915286146105995760405162461bcd60e51b81526004016103b490611037565b600080546001600160a01b0319166001600160a01b0383169081179091556040519081527fd6ebeed44b8b1f3dea0f0065729e759c6e0a54fff5e3457d639ab0cb4b1643079060200160405180910390a150565b600060008051602061121783398151915285146105995760405162461bcd60e51b81526004016103b490611037565b604051806040016040528060048152602001637479706560e01b81525060405160200161036c919061101b565b604051806040016040528060068152602001650d0cac2d8e8d60d31b81525060405160200161036c919061101b565b6040518060400160405280600f81526020016e7261726974795f6f7665727269646560881b81525060405160200161036c919061101b565b606060008051602061121783398151915282146108355760405162461bcd60e51b81526004016103b490611037565b60408051600680825260e08201909252600091816020015b604080516060808201835281526000602080830182905292820152825260001990920191018161084d5750506040805160a0810182526006606082019081526572617269747960d01b608083015281526000602082018190529181018290528251929350918391906108c1576108c16110b9565b6020908102919091018101919091526040805160a08101909152600660608201908152650d0cac2d8e8d60d31b60808301528152908101600081526020016001151581525081600181518110610919576109196110b9565b6020908102919091018101919091526040805160a08101909152600460608201908152637479706560e01b6080830152815290810160008152602001600015158152508160028151811061096f5761096f6110b9565b6020908102919091018101919091526040805160a081019091526006606082019081526561747461636b60d01b608083015281529081016000815260200160011515815250816003815181106109c7576109c76110b9565b6020908102919091018101919091526040805160a0810190915260076060820190815266646566656e736560c81b60808301528152908101600081526020016001151581525081600481518110610a2057610a206110b9565b6020908102919091018101919091526040805160a08101909152600f606082019081526e7261726974795f6f7665727269646560881b60808301528152908101600381526020016001151581525081600581518110610a8157610a816110b9565b602090810291909101015292915050565b6040518060400160405280600681526020016572617269747960d01b81525060405160200161036c919061101b565b6040516d447261676f6e53746174732d763160901b6020820152602e0161036c565b600080826040518060400160405280600681526020016572617269747960d01b815250604051602001610b179291906110cf565b60408051601f1981840301815282825280516020909101206000805463153cf21960e31b8552925191945073__Util__________________________________936375233c279386936001600160a01b039091169263a9e790c89260048082019391829003018186803b158015610b8d57600080fd5b505afa158015610ba1573d6000803e3d6000fd5b505050506040513d6000823e601f3d908101601f19168201604052610bc991908101906110e8565b60008054906101000a90046001600160a01b03166001600160a01b0316639f1349ed6040518163ffffffff1660e01b815260040160206040518083038186803b158015610c1557600080fd5b505afa158015610c29573d6000803e3d6000fd5b505050506040513d601f19601f82011682018060405250810190610c4d91906111a6565b6040518463ffffffff1660e01b8152600401610c6b939291906111bf565b60206040518083038186803b158015610c8357600080fd5b505af4158015610c97573d6000803e3d6000fd5b505050506040513d601f19601f82011682018060405250810190610cbb91906111a6565b6004811115610ccc57610ccc610f63565b9392505050565b60008082604051806040016040528060048152602001637479706560e01b815250604051602001610d059291906110cf565b60408051601f198184030181528282528051602090910120600080546304439f1f60e31b8552925191945073__Util__________________________________936375233c279386936001600160a01b039091169263221cf8f89260048082019391829003018186803b158015610d7b57600080fd5b505afa158015610d8f573d6000803e3d6000fd5b505050506040513d6000823e601f3d908101601f19168201604052610db791908101906110e8565b60008054906101000a90046001600160a01b03166001600160a01b031663d710216e6040518163ffffffff1660e01b815260040160206040518083038186803b158015610c1557600080fd5b60005b83811015610e1e578181015183820152602001610e06565b83811115610e2d576000848401525b50505050565b60008151808452610e4b816020860160208601610e03565b601f01601f19169290920160200192915050565b602081526000610ccc6020830184610e33565b60008060008060608587031215610e8857600080fd5b8435935060208501359250604085013567ffffffffffffffff80821115610eae57600080fd5b818701915087601f830112610ec257600080fd5b813581811115610ed157600080fd5b886020828501011115610ee357600080fd5b95989497505060200194505050565b60208152816020820152818360408301376000818301604090810191909152601f909201601f19160101919050565b600060208284031215610f3357600080fd5b81356001600160a01b0381168114610ccc57600080fd5b600060208284031215610f5c57600080fd5b5035919050565b634e487b7160e01b600052602160045260246000fd5b60006020808301818452808551808352604092508286019150828160051b8701018488016000805b8481101561100c57603f198a8503018652825160608151818752610fc782880182610e33565b915050898201516004808210610fea57634e487b7160e01b865260218152602486fd5b50868b0152908801511515948801949094529487019491870191600101610fa1565b50919998505050505050505050565b6000825161102d818460208701610e03565b9190910192915050565b6020808252601f908201527f4e4654206d757374206265206f6620447261676f6e2043617264207479706500604082015260600190565b8183823760009101908152919050565b60008282101561109e57634e487b7160e01b600052601160045260246000fd5b500390565b634e487b7160e01b600052604160045260246000fd5b634e487b7160e01b600052603260045260246000fd5b8281526040602082015260006105d46040830184610e33565b600060208083850312156110fb57600080fd5b825167ffffffffffffffff8082111561111357600080fd5b818501915085601f83011261112757600080fd5b815181811115611139576111396110a3565b8060051b604051601f19603f8301168101818110858211171561115e5761115e6110a3565b60405291825284820192508381018501918883111561117c57600080fd5b938501935b8285101561119a57845184529385019392850192611181565b98975050505050505050565b6000602082840312156111b857600080fd5b5051919050565b6000606082018583526020606081850152818651808452608086019150828801935060005b81811015611200578451835293830193918301916001016111e4565b505080935050505082604083015294935050505056fe37a3c4a2a635dedf6a4912ec5757511a1f2fa87cb349543d4751fc18c65e4273a26469706673582212204dc7e43c55c1fde6490a583a1f6ab7f199418bfb88255aec8f82bb9158fc8a6b64736f6c63430008090033",
  "immutableReferences": {},
  "source": "/**\n * Derives dragon card stats from card ID\n * @title  Deriving dragon card stats from its ID\n * @author CryptoHog\n * @notice Defines an interface for a contract deriving the stats from a randomly generated ID\n */\n\npragma solidity ^0.8.0;\n\nimport \"./Util.sol\";\nimport \"./IStatsDerive.sol\";\nimport \"./StatsDistrib.sol\";\n\ncontract DragonStats is IStatsDerive {\n    bytes32 public constant VERSION = keccak256(abi.encodePacked('DragonStats-v1'));\n    string public constant RARITY_STR = 'rarity';\n    string public constant RARITY_OVERRIDE_STR = 'rarity_override';\n    string public constant HEALTH_STR = 'health';\n    string public constant TYPE_STR   = 'type';\n    string public constant ATTACK_STR = 'attack';\n    string public constant DEFENSE_STR= 'defense';\n    bytes32 public constant H_RARITY_STR = keccak256(abi.encodePacked(RARITY_STR));\n    bytes32 public constant H_RARITY_OVERRIDE_STR = keccak256(abi.encodePacked(RARITY_OVERRIDE_STR));\n    bytes32 public constant H_HEALTH_STR = keccak256(abi.encodePacked(HEALTH_STR));\n    bytes32 public constant H_TYPE_STR = keccak256(abi.encodePacked(TYPE_STR));\n    bytes32 public constant H_ATTACK_STR = keccak256(abi.encodePacked(ATTACK_STR));\n    bytes32 public constant H_DEFENSE_STR = keccak256(abi.encodePacked(DEFENSE_STR));\n\n\n    address public\tstatsDistrib;\n\n    constructor(address _statsDistrib){\n\tlinkStatsDistrib(_statsDistrib);\n    }\n\n    function linkStatsDistrib(address _statsDistrib) public {\n\tstatsDistrib = _statsDistrib;\n\temit StatsDistribLink(statsDistrib);\n    }\n\n    function deriveRarity(uint256 id) internal view returns (Util.CardRarity) {\n\tuint256 rvalue = uint256(keccak256(abi.encode(id,RARITY_STR)));\n\treturn Util.CardRarity(Util.getRandomItem(rvalue, StatsDistrib(statsDistrib).getDragonCardRarities(), StatsDistrib(statsDistrib).dragonCardRarityPopulationSize()));\n    }\n\n    function deriveType(uint256 id) internal view returns (Util.CardType) {\n\tuint256 rvalue = uint256(keccak256(abi.encode(id,TYPE_STR)));\n\treturn Util.CardType(Util.getRandomItem(rvalue, StatsDistrib(statsDistrib).getDragonCardTypes(), StatsDistrib(statsDistrib).dragonCardTypePopulationSize()));\n    }\n\n    /**\n     * @notice Derive an integer stat from the card's ID by the stats' name\n     *\n     * @param id An id generated by an RNG\n     * @param name The stats' name\n     * @return The stats' value\n    **/\n    function getStatInt(bytes32 nft_type, uint256 id, string calldata name) external view returns (uint256){\n\trequire(nft_type == Util.DRAGON_CARD_TYPE_CODE, \"NFT must be of Dragon Card type\");\n\tbytes32 h_name = keccak256(abi.encodePacked(name));\n\tif(h_name == H_RARITY_STR)\n\t    return uint256(deriveRarity(id));\n\tif(h_name == H_TYPE_STR)\n\t    return uint256(deriveType(id));\n\tif((h_name == H_HEALTH_STR)||(h_name == H_ATTACK_STR)||(h_name == H_DEFENSE_STR))\n\t    return Util.MAX_UINT;\n\trevert(\"Unsupported stat\");\n    }\n\n    /**\n     * @notice Derive a string stat from the card's ID by the stats' name\n     *\n     * @param id An id generated by an RNG\n     * @param name The stats' name\n     * @return The stats' value\n    **/\n    function getStatString(bytes32 nft_type, uint256 id, string calldata name) external view returns (string calldata){\n\trequire(nft_type == Util.DRAGON_CARD_TYPE_CODE, \"NFT must be of Dragon Card type\");\n\trevert(\"Unsupported stat\");\n    }\n\n    /**\n     * @notice Derive a 32 byte array stat from the card's ID by the stats' name\n     *\n     * @param id An id generated by an RNG\n     * @param name The stats' name\n     * @return The stats' value\n    **/\n    function getStatByte32(bytes32 nft_type, uint256 id, string calldata name) external view returns (bytes32){\n\trequire(nft_type == Util.DRAGON_CARD_TYPE_CODE, \"NFT must be of Dragon Card type\");\n\trevert(\"Unsupported stat\");\n    }\n\n    /**\n     * @notice Derive a boolean stat from the card's ID by the stats' name\n     *\n     * @param id An id generated by an RNG\n     * @param name The stats' name\n     * @return The stats' value\n    **/\n    function getStatBool(bytes32 nft_type, uint256 id, string calldata name) external view returns (bool){\n\trequire(nft_type == Util.DRAGON_CARD_TYPE_CODE, \"NFT must be of Dragon Card type\");\n\tbytes32 h_name = keccak256(abi.encodePacked(name));\n\tif(h_name == H_RARITY_OVERRIDE_STR)\n\t    return false;\n\trevert(\"Unsupported stat\");\n    }\n\n    /**\n     * @notice Defines a set of stats that can be derived\n     *\n     * @return An enumerable set (actually, an array) of stats that can be derived by the interface implementation\n    **/\n    function stats(bytes32 nft_type) external pure returns (Util.Stat[] memory) {\n\trequire(nft_type == Util.DRAGON_CARD_TYPE_CODE, \"NFT must be of Dragon Card type\");\n\tUtil.Stat[] memory stats_list = new Util.Stat[](6);\n\tstats_list[0] = Util.Stat(RARITY_STR, Util.StatType.Integer, false);\n\tstats_list[1] = Util.Stat(HEALTH_STR, Util.StatType.Integer, true);\n\tstats_list[2] = Util.Stat(TYPE_STR, Util.StatType.Integer, false);\n\tstats_list[3] = Util.Stat(ATTACK_STR, Util.StatType.Integer, true);\n\tstats_list[4] = Util.Stat(DEFENSE_STR, Util.StatType.Integer, true);\n\tstats_list[5] = Util.Stat(RARITY_OVERRIDE_STR, Util.StatType.Boolean, true);\n\treturn stats_list;\n    }\n\n    event StatsDistribLink(address _statsDistrib);\n}\n",
  "sourcePath": "/home/vrogojin/Projects/temp/FireZard/nft/contracts/DragonStats.sol",
  "compiler": {
    "name": "solc",
    "version": "0.8.9+commit.e5eed63a.Emscripten.clang"
  },
  "schemaVersion": "3.4.4",
  "updatedAt": "2022-01-17T12:34:05.273Z",
  "devdoc": {
    "kind": "dev",
    "methods": {
      "getStatBool(bytes32,uint256,string)": {
        "params": {
          "id": "An id generated by an RNG",
          "name": "The stats' name"
        },
        "returns": {
          "_0": "The stats' value*"
        }
      },
      "getStatByte32(bytes32,uint256,string)": {
        "params": {
          "id": "An id generated by an RNG",
          "name": "The stats' name"
        },
        "returns": {
          "_0": "The stats' value*"
        }
      },
      "getStatInt(bytes32,uint256,string)": {
        "params": {
          "id": "An id generated by an RNG",
          "name": "The stats' name"
        },
        "returns": {
          "_0": "The stats' value*"
        }
      },
      "getStatString(bytes32,uint256,string)": {
        "params": {
          "id": "An id generated by an RNG",
          "name": "The stats' name"
        },
        "returns": {
          "_0": "The stats' value*"
        }
      },
      "stats(bytes32)": {
        "returns": {
          "_0": "An enumerable set (actually, an array) of stats that can be derived by the interface implementation*"
        }
      }
    },
    "version": 1
  },
  "userdoc": {
    "kind": "user",
    "methods": {
      "getStatBool(bytes32,uint256,string)": {
        "notice": "Derive a boolean stat from the card's ID by the stats' name"
      },
      "getStatByte32(bytes32,uint256,string)": {
        "notice": "Derive a 32 byte array stat from the card's ID by the stats' name"
      },
      "getStatInt(bytes32,uint256,string)": {
        "notice": "Derive an integer stat from the card's ID by the stats' name"
      },
      "getStatString(bytes32,uint256,string)": {
        "notice": "Derive a string stat from the card's ID by the stats' name"
      },
      "stats(bytes32)": {
        "notice": "Defines a set of stats that can be derived"
      }
    },
    "version": 1
  }
}