{
  "contractName": "DragonMinter",
  "abi": [
    {
      "inputs": [
        {
          "internalType": "address",
          "name": "rng_contract",
          "type": "address"
        },
        {
          "internalType": "address",
          "name": "tag_storage",
          "type": "address"
        },
        {
          "internalType": "address",
          "name": "nft_container",
          "type": "address"
        },
        {
          "internalType": "address",
          "name": "stats_lib",
          "type": "address"
        }
      ],
      "stateMutability": "nonpayable",
      "type": "constructor"
    },
    {
      "anonymous": false,
      "inputs": [],
      "name": "DisableMintFee",
      "type": "event"
    },
    {
      "anonymous": false,
      "inputs": [],
      "name": "EnableMintFee",
      "type": "event"
    },
    {
      "anonymous": false,
      "inputs": [
        {
          "indexed": false,
          "internalType": "address",
          "name": "_flame",
          "type": "address"
        }
      ],
      "name": "FLAMELink",
      "type": "event"
    },
    {
      "anonymous": false,
      "inputs": [
        {
          "indexed": false,
          "internalType": "address",
          "name": "nft_container",
          "type": "address"
        }
      ],
      "name": "NFTLink",
      "type": "event"
    },
    {
      "anonymous": false,
      "inputs": [
        {
          "indexed": true,
          "internalType": "address",
          "name": "previousOwner",
          "type": "address"
        },
        {
          "indexed": true,
          "internalType": "address",
          "name": "newOwner",
          "type": "address"
        }
      ],
      "name": "OwnershipTransferred",
      "type": "event"
    },
    {
      "anonymous": false,
      "inputs": [
        {
          "indexed": false,
          "internalType": "address",
          "name": "rng_contract",
          "type": "address"
        }
      ],
      "name": "RNGLink",
      "type": "event"
    },
    {
      "anonymous": false,
      "inputs": [
        {
          "indexed": true,
          "internalType": "bytes32",
          "name": "role",
          "type": "bytes32"
        },
        {
          "indexed": true,
          "internalType": "bytes32",
          "name": "previousAdminRole",
          "type": "bytes32"
        },
        {
          "indexed": true,
          "internalType": "bytes32",
          "name": "newAdminRole",
          "type": "bytes32"
        }
      ],
      "name": "RoleAdminChanged",
      "type": "event"
    },
    {
      "anonymous": false,
      "inputs": [
        {
          "indexed": true,
          "internalType": "bytes32",
          "name": "role",
          "type": "bytes32"
        },
        {
          "indexed": true,
          "internalType": "address",
          "name": "account",
          "type": "address"
        },
        {
          "indexed": true,
          "internalType": "address",
          "name": "sender",
          "type": "address"
        }
      ],
      "name": "RoleGranted",
      "type": "event"
    },
    {
      "anonymous": false,
      "inputs": [
        {
          "indexed": true,
          "internalType": "bytes32",
          "name": "role",
          "type": "bytes32"
        },
        {
          "indexed": true,
          "internalType": "address",
          "name": "account",
          "type": "address"
        },
        {
          "indexed": true,
          "internalType": "address",
          "name": "sender",
          "type": "address"
        }
      ],
      "name": "RoleRevoked",
      "type": "event"
    },
    {
      "anonymous": false,
      "inputs": [
        {
          "indexed": false,
          "internalType": "uint256",
          "name": "size",
          "type": "uint256"
        },
        {
          "indexed": false,
          "internalType": "uint256",
          "name": "price",
          "type": "uint256"
        }
      ],
      "name": "SetPrice",
      "type": "event"
    },
    {
      "anonymous": false,
      "inputs": [
        {
          "indexed": false,
          "internalType": "address",
          "name": "stats_lib",
          "type": "address"
        }
      ],
      "name": "StatsLibLink",
      "type": "event"
    },
    {
      "anonymous": false,
      "inputs": [
        {
          "indexed": false,
          "internalType": "uint8",
          "name": "group_id",
          "type": "uint8"
        }
      ],
      "name": "TAGGroupID",
      "type": "event"
    },
    {
      "anonymous": false,
      "inputs": [
        {
          "indexed": false,
          "internalType": "address",
          "name": "tag_storage",
          "type": "address"
        }
      ],
      "name": "TAGLink",
      "type": "event"
    },
    {
      "inputs": [],
      "name": "DEFAULT_ADMIN_ROLE",
      "outputs": [
        {
          "internalType": "bytes32",
          "name": "",
          "type": "bytes32"
        }
      ],
      "stateMutability": "view",
      "type": "function"
    },
    {
      "inputs": [],
      "name": "FLAME_addr",
      "outputs": [
        {
          "internalType": "address",
          "name": "",
          "type": "address"
        }
      ],
      "stateMutability": "view",
      "type": "function"
    },
    {
      "inputs": [],
      "name": "MINTER_ROLE",
      "outputs": [
        {
          "internalType": "bytes32",
          "name": "",
          "type": "bytes32"
        }
      ],
      "stateMutability": "view",
      "type": "function"
    },
    {
      "inputs": [],
      "name": "NFT_addr",
      "outputs": [
        {
          "internalType": "address",
          "name": "",
          "type": "address"
        }
      ],
      "stateMutability": "view",
      "type": "function"
    },
    {
      "inputs": [],
      "name": "RNG_addr",
      "outputs": [
        {
          "internalType": "address",
          "name": "",
          "type": "address"
        }
      ],
      "stateMutability": "view",
      "type": "function"
    },
    {
      "inputs": [],
      "name": "TAG_addr",
      "outputs": [
        {
          "internalType": "address",
          "name": "",
          "type": "address"
        }
      ],
      "stateMutability": "view",
      "type": "function"
    },
    {
      "inputs": [
        {
          "internalType": "bytes32",
          "name": "role",
          "type": "bytes32"
        }
      ],
      "name": "getRoleAdmin",
      "outputs": [
        {
          "internalType": "bytes32",
          "name": "",
          "type": "bytes32"
        }
      ],
      "stateMutability": "view",
      "type": "function"
    },
    {
      "inputs": [
        {
          "internalType": "bytes32",
          "name": "role",
          "type": "bytes32"
        },
        {
          "internalType": "uint256",
          "name": "index",
          "type": "uint256"
        }
      ],
      "name": "getRoleMember",
      "outputs": [
        {
          "internalType": "address",
          "name": "",
          "type": "address"
        }
      ],
      "stateMutability": "view",
      "type": "function"
    },
    {
      "inputs": [
        {
          "internalType": "bytes32",
          "name": "role",
          "type": "bytes32"
        }
      ],
      "name": "getRoleMemberCount",
      "outputs": [
        {
          "internalType": "uint256",
          "name": "",
          "type": "uint256"
        }
      ],
      "stateMutability": "view",
      "type": "function"
    },
    {
      "inputs": [
        {
          "internalType": "bytes32",
          "name": "role",
          "type": "bytes32"
        },
        {
          "internalType": "address",
          "name": "account",
          "type": "address"
        }
      ],
      "name": "grantRole",
      "outputs": [],
      "stateMutability": "nonpayable",
      "type": "function"
    },
    {
      "inputs": [],
      "name": "group_id",
      "outputs": [
        {
          "internalType": "uint8",
          "name": "",
          "type": "uint8"
        }
      ],
      "stateMutability": "view",
      "type": "function"
    },
    {
      "inputs": [
        {
          "internalType": "bytes32",
          "name": "role",
          "type": "bytes32"
        },
        {
          "internalType": "address",
          "name": "account",
          "type": "address"
        }
      ],
      "name": "hasRole",
      "outputs": [
        {
          "internalType": "bool",
          "name": "",
          "type": "bool"
        }
      ],
      "stateMutability": "view",
      "type": "function"
    },
    {
      "inputs": [],
      "name": "owner",
      "outputs": [
        {
          "internalType": "address",
          "name": "",
          "type": "address"
        }
      ],
      "stateMutability": "view",
      "type": "function"
    },
    {
      "inputs": [
        {
          "internalType": "uint256",
          "name": "",
          "type": "uint256"
        }
      ],
      "name": "price_list",
      "outputs": [
        {
          "internalType": "uint256",
          "name": "",
          "type": "uint256"
        }
      ],
      "stateMutability": "view",
      "type": "function"
    },
    {
      "inputs": [],
      "name": "renounceOwnership",
      "outputs": [],
      "stateMutability": "nonpayable",
      "type": "function"
    },
    {
      "inputs": [
        {
          "internalType": "bytes32",
          "name": "role",
          "type": "bytes32"
        },
        {
          "internalType": "address",
          "name": "account",
          "type": "address"
        }
      ],
      "name": "renounceRole",
      "outputs": [],
      "stateMutability": "nonpayable",
      "type": "function"
    },
    {
      "inputs": [
        {
          "internalType": "bytes32",
          "name": "role",
          "type": "bytes32"
        },
        {
          "internalType": "address",
          "name": "account",
          "type": "address"
        }
      ],
      "name": "revokeRole",
      "outputs": [],
      "stateMutability": "nonpayable",
      "type": "function"
    },
    {
      "inputs": [
        {
          "internalType": "uint256",
          "name": "",
          "type": "uint256"
        }
      ],
      "name": "stats",
      "outputs": [
        {
          "internalType": "string",
          "name": "name",
          "type": "string"
        },
        {
          "internalType": "enum Util.StatType",
          "name": "statType",
          "type": "uint8"
        },
        {
          "internalType": "bool",
          "name": "is_mutable",
          "type": "bool"
        }
      ],
      "stateMutability": "view",
      "type": "function"
    },
    {
      "inputs": [],
      "name": "stats_length",
      "outputs": [
        {
          "internalType": "uint256",
          "name": "",
          "type": "uint256"
        }
      ],
      "stateMutability": "view",
      "type": "function"
    },
    {
      "inputs": [],
      "name": "stats_lib_addr",
      "outputs": [
        {
          "internalType": "address",
          "name": "",
          "type": "address"
        }
      ],
      "stateMutability": "view",
      "type": "function"
    },
    {
      "inputs": [
        {
          "internalType": "bytes4",
          "name": "interfaceId",
          "type": "bytes4"
        }
      ],
      "name": "supportsInterface",
      "outputs": [
        {
          "internalType": "bool",
          "name": "",
          "type": "bool"
        }
      ],
      "stateMutability": "view",
      "type": "function"
    },
    {
      "inputs": [],
      "name": "testMode",
      "outputs": [
        {
          "internalType": "bool",
          "name": "",
          "type": "bool"
        }
      ],
      "stateMutability": "view",
      "type": "function"
    },
    {
      "inputs": [
        {
          "internalType": "address",
          "name": "newOwner",
          "type": "address"
        }
      ],
      "name": "transferOwnership",
      "outputs": [],
      "stateMutability": "nonpayable",
      "type": "function"
    },
    {
      "inputs": [
        {
          "internalType": "address",
          "name": "rng_contract",
          "type": "address"
        }
      ],
      "name": "linkRNG",
      "outputs": [],
      "stateMutability": "nonpayable",
      "type": "function"
    },
    {
      "inputs": [
        {
          "internalType": "address",
          "name": "tag_storage",
          "type": "address"
        }
      ],
      "name": "linkTAG",
      "outputs": [],
      "stateMutability": "nonpayable",
      "type": "function"
    },
    {
      "inputs": [
        {
          "internalType": "address",
          "name": "nft_container",
          "type": "address"
        }
      ],
      "name": "linkNFT",
      "outputs": [],
      "stateMutability": "nonpayable",
      "type": "function"
    },
    {
      "inputs": [
        {
          "internalType": "address",
          "name": "_flame",
          "type": "address"
        }
      ],
      "name": "linkFLAME",
      "outputs": [],
      "stateMutability": "nonpayable",
      "type": "function"
    },
    {
      "inputs": [
        {
          "internalType": "address",
          "name": "stats_lib",
          "type": "address"
        }
      ],
      "name": "linkStatsLib",
      "outputs": [],
      "stateMutability": "nonpayable",
      "type": "function"
    },
    {
      "inputs": [
        {
          "internalType": "uint8",
          "name": "_group_id",
          "type": "uint8"
        }
      ],
      "name": "setTagGroupId",
      "outputs": [],
      "stateMutability": "nonpayable",
      "type": "function"
    },
    {
      "inputs": [
        {
          "internalType": "address",
          "name": "entity",
          "type": "address"
        }
      ],
      "name": "addMinter",
      "outputs": [],
      "stateMutability": "nonpayable",
      "type": "function"
    },
    {
      "inputs": [
        {
          "internalType": "address",
          "name": "entity",
          "type": "address"
        }
      ],
      "name": "removeMinter",
      "outputs": [],
      "stateMutability": "nonpayable",
      "type": "function"
    },
    {
      "inputs": [],
      "name": "enableMintFee",
      "outputs": [],
      "stateMutability": "nonpayable",
      "type": "function"
    },
    {
      "inputs": [],
      "name": "disableMintFee",
      "outputs": [],
      "stateMutability": "nonpayable",
      "type": "function"
    },
    {
      "inputs": [
        {
          "internalType": "uint256",
          "name": "size",
          "type": "uint256"
        },
        {
          "internalType": "uint256",
          "name": "price",
          "type": "uint256"
        }
      ],
      "name": "setPrice",
      "outputs": [],
      "stateMutability": "nonpayable",
      "type": "function"
    },
    {
      "inputs": [
        {
          "internalType": "uint256",
          "name": "size",
          "type": "uint256"
        }
      ],
      "name": "getPrice",
      "outputs": [
        {
          "internalType": "uint256",
          "name": "",
          "type": "uint256"
        }
      ],
      "stateMutability": "view",
      "type": "function"
    },
    {
      "inputs": [
        {
          "internalType": "bytes32[]",
          "name": "commitment",
          "type": "bytes32[]"
        }
      ],
      "name": "initPackage",
      "outputs": [],
      "stateMutability": "nonpayable",
      "type": "function"
    },
    {
      "inputs": [
        {
          "internalType": "bytes32[]",
          "name": "entropy",
          "type": "bytes32[]"
        }
      ],
      "name": "lockPackage",
      "outputs": [],
      "stateMutability": "nonpayable",
      "type": "function"
    },
    {
      "inputs": [
        {
          "internalType": "address",
          "name": "recipient",
          "type": "address"
        },
        {
          "internalType": "bytes32[]",
          "name": "commitment",
          "type": "bytes32[]"
        }
      ],
      "name": "openPackage",
      "outputs": [],
      "stateMutability": "nonpayable",
      "type": "function"
    },
    {
      "inputs": [
        {
          "internalType": "bytes32[]",
          "name": "commitment",
          "type": "bytes32[]"
        }
      ],
      "name": "readPackage",
      "outputs": [
        {
          "internalType": "uint256[]",
          "name": "",
          "type": "uint256[]"
        }
      ],
      "stateMutability": "view",
      "type": "function"
    },
    {
      "inputs": [],
      "name": "getBlockConfirmationCap",
      "outputs": [
        {
          "internalType": "uint256",
          "name": "",
          "type": "uint256"
        }
      ],
      "stateMutability": "view",
      "type": "function"
    }
  ],
  "bytecode": "0x6080604052600a805460ff191660011790553480156200001e57600080fd5b506040516200339e3803806200339e83398101604081905262000041916200032d565b6200004c336200014d565b600380546001600160a01b038087166001600160a01b031992831617909255600480548684169083161781556005805486851690841617905560078054938516939092168317909155604051632ba5d5a360e21b81526000929163ae97568c91620000dd917f37a3c4a2a635dedf6a4912ec5757511a1f2fa87cb349543d4751fc18c65e4273910190815260200190565b60006040518083038186803b158015620000f657600080fd5b505afa1580156200010b573d6000803e3d6000fd5b505050506040513d6000823e601f3d908101601f191682016040526200013591908101906200041f565b905062000142816200019d565b505050505062000659565b600080546001600160a01b038381166001600160a01b0319831681178455604051919092169283917f8be0079c531659141344cd1fd0a4f28419497f9722a3daafe3b4186f6b6457e09190a35050565b60005b815181101562000263576008828281518110620001c157620001c1620005c6565b602090810291909101810151825460018101845560009384529282902081518051929460020290910192620001fc928492909101906200026a565b50602082015160018083018054909160ff1990911690836003811115620002275762000227620005dc565b021790555060409190910151600190910180549115156101000261ff0019909216919091179055806200025a81620005f2565b915050620001a0565b5051600955565b82805462000278906200061c565b90600052602060002090601f0160209004810192826200029c5760008555620002e7565b82601f10620002b757805160ff1916838001178555620002e7565b82800160010185558215620002e7579182015b82811115620002e7578251825591602001919060010190620002ca565b50620002f5929150620002f9565b5090565b5b80821115620002f55760008155600101620002fa565b80516001600160a01b03811681146200032857600080fd5b919050565b600080600080608085870312156200034457600080fd5b6200034f8562000310565b93506200035f6020860162000310565b92506200036f6040860162000310565b91506200037f6060860162000310565b905092959194509250565b634e487b7160e01b600052604160045260246000fd5b604051606081016001600160401b0381118282101715620003c557620003c56200038a565b60405290565b604051601f8201601f191681016001600160401b0381118282101715620003f657620003f66200038a565b604052919050565b8051600481106200032857600080fd5b805180151581146200032857600080fd5b600060208083850312156200043357600080fd5b82516001600160401b03808211156200044b57600080fd5b818501915085601f8301126200046057600080fd5b8151818111156200047557620004756200038a565b8060051b62000486858201620003cb565b9182528381018501918581019089841115620004a157600080fd5b86860192505b83831015620005b957825185811115620004c057600080fd5b8601601f196060828d0382011215620004d95760008081fd5b620004e3620003a0565b8983015188811115620004f65760008081fd5b8301603f81018e13620005095760008081fd5b8a810151898111156200052057620005206200038a565b620005328c85601f84011601620003cb565b935080845260408f818385010111156200054c5760008081fd5b60005b828110156200056c578381018201518682018f01528d016200054f565b828111156200057e5760008e84880101525b508484526200058f818701620003fe565b8d850152620005a1606087016200040e565b908401525050845250509186019190860190620004a7565b9998505050505050505050565b634e487b7160e01b600052603260045260246000fd5b634e487b7160e01b600052602160045260246000fd5b60006000198214156200061557634e487b7160e01b600052601160045260246000fd5b5060010190565b600181811c908216806200063157607f821691505b602082108114156200065357634e487b7160e01b600052602260045260246000fd5b50919050565b612d3580620006696000396000f3fe608060405234801561001057600080fd5b50600436106102485760003560e01c80639010d07c1161013b578063cd9ea342116100b8578063e75722301161007c578063e757223014610546578063e766082614610566578063f2fde38b1461056e578063f7d9757714610581578063fc4f93671461059457600080fd5b8063cd9ea342146104d7578063d5391393146104e4578063d547741f1461050b578063d5cb313f1461051e578063d839f2301461052657600080fd5b8063aa5a5135116100ff578063aa5a513514610473578063aadd04881461047c578063ad217ae51461048f578063c17f0cb1146104b1578063ca15c873146104c457600080fd5b80639010d07c1461041f57806391d1485414610432578063983b2d5614610445578063a217fddf14610458578063a83993b71461046057600080fd5b80636025e1f1116101c957806382bad2ca1161018d57806382bad2ca146103af57806388971bf5146103d55780638913f8cf146103e85780638da5cb5b146103fb5780638e0f500b1461040c57600080fd5b80636025e1f114610359578063715018a61461036c5780637827e06b146103745780637a78891f146103875780637e9c8aaa146103a757600080fd5b80633092afd5116102105780633092afd5146102e257806332b40c36146102f557806336568abe1461030857806339b7de651461031b57806350b978a81461034657600080fd5b806301ffc9a71461024d5780632418e9e814610275578063248a9ca31461028a5780632b021dce146102bc5780632f2ff15d146102cf575b600080fd5b61026061025b366004612472565b6105a7565b60405190151581526020015b60405180910390f35b61028861028336600461249c565b6105d2565b005b6102ae6102983660046124bf565b6000908152600160208190526040909120015490565b60405190815260200161026c565b6102886102ca366004612524565b61065a565b6102886102dd366004612582565b6106f7565b6102886102f03660046125ae565b61071e565b6102886103033660046125ae565b610775565b610288610316366004612582565b6107ed565b60075461032e906001600160a01b031681565b6040516001600160a01b03909116815260200161026c565b60055461032e906001600160a01b031681565b6102886103673660046125ae565b61086b565b6102886108e3565b6102886103823660046125c9565b610919565b6102ae6103953660046124bf565b600b6020526000908152604090205481565b6102ae611514565b6007546103c390600160a01b900460ff1681565b60405160ff909116815260200161026c565b6102886103e33660046125ae565b611596565b60065461032e906001600160a01b031681565b6000546001600160a01b031661032e565b61028861041a3660046125ae565b6116ac565b61032e61042d36600461261c565b611724565b610260610440366004612582565b611743565b6102886104533660046125ae565b61176e565b6102ae600081565b60045461032e906001600160a01b031681565b6102ae60095481565b61028861048a3660046125ae565b6117c2565b6104a261049d3660046124bf565b61183a565b60405161026c939291906126b0565b60035461032e906001600160a01b031681565b6102ae6104d23660046124bf565b611902565b600a546102609060ff1681565b6102ae7f9f2df0fed2c77648de5860a4cc508cd0818c85b8b8a1ab4ceeef8d981c8956a681565b610288610519366004612582565b611919565b610288611940565b610539610534366004612524565b6119a2565b60405161026c91906126f9565b6102ae6105543660046124bf565b6000908152600b602052604090205490565b610288611ac5565b61028861057c3660046125ae565b611b24565b61028861058f36600461261c565b611bbc565b6102886105a2366004612524565b611c2e565b60006001600160e01b03198216635a05180f60e01b14806105cc57506105cc82611dc7565b92915050565b6000546001600160a01b031633146106055760405162461bcd60e51b81526004016105fc9061273d565b60405180910390fd5b6007805460ff60a01b1916600160a01b60ff8416908102919091179091556040519081527f41782dd890df0a3491b1bc75084dd76333411510ccf98930ead07069649bf2a9906020015b60405180910390a150565b60005b818110156106f2576003546001600160a01b03166301670ba984848481811061068857610688612772565b905060200201356040518263ffffffff1660e01b81526004016106ad91815260200190565b600060405180830381600087803b1580156106c757600080fd5b505af11580156106db573d6000803e3d6000fd5b5050505080806106ea9061279e565b91505061065d565b505050565b600082815260016020819052604090912001546107148133611dfc565b6106f28383611e60565b6000546001600160a01b031633146107485760405162461bcd60e51b81526004016105fc9061273d565b6107727f9f2df0fed2c77648de5860a4cc508cd0818c85b8b8a1ab4ceeef8d981c8956a682611919565b50565b6000546001600160a01b0316331461079f5760405162461bcd60e51b81526004016105fc9061273d565b600680546001600160a01b0319166001600160a01b0383169081179091556040519081527f9f64ee8849dd676d56ded45da7c528779e17232f6a237fbe4fcdb3be2c0b60a09060200161064f565b6001600160a01b038116331461085d5760405162461bcd60e51b815260206004820152602f60248201527f416363657373436f6e74726f6c3a2063616e206f6e6c792072656e6f756e636560448201526e103937b632b9903337b91039b2b63360891b60648201526084016105fc565b6108678282611e82565b5050565b6000546001600160a01b031633146108955760405162461bcd60e51b81526004016105fc9061273d565b600480546001600160a01b0319166001600160a01b0383169081179091556040519081527fd6bd8455a554480b643ff6104fea79e1a7c1b27d210a7e7911a3b6a3c64b70799060200161064f565b6000546001600160a01b0316331461090d5760405162461bcd60e51b81526004016105fc9061273d565b6109176000611ea4565b565b600080600760009054906101000a90046001600160a01b03166001600160a01b03166391a7f8b06040518163ffffffff1660e01b815260040160006040518083038186803b15801561096a57600080fd5b505afa15801561097e573d6000803e3d6000fd5b505050506040513d6000823e601f3d908101601f191682016040526109a69190810190612895565b905060005b838110156112c6576003546000906001600160a01b03166361da14398787858181106109d9576109d9612772565b905060200201356040518263ffffffff1660e01b81526004016109fe91815260200190565b60206040518083038186803b158015610a1657600080fd5b505afa158015610a2a573d6000803e3d6000fd5b505050506040513d601f19601f82011682018060405250810190610a4e91906128ca565b60055460405163bd85b03960e01b8152600481018390529192506001600160a01b03169063bd85b0399060240160206040518083038186803b158015610a9357600080fd5b505afa158015610aa7573d6000803e3d6000fd5b505050506040513d601f19601f82011682018060405250810190610acb91906128ca565b15610b2d5760405162461bcd60e51b815260206004820152602c60248201527f53616d6520647261676f6e20636172642063616e206265206f70656e6e65642060448201526b6174206d6f7374206f6e636560a01b60648201526084016105fc565b60055460408051600080516020612ce083398151915260208201526001600160a01b039092169163731133e9918a918591600191016040516020818303038152906040526040518563ffffffff1660e01b8152600401610b9094939291906128e3565b600060405180830381600087803b158015610baa57600080fd5b505af1158015610bbe573d6000803e3d6000fd5b505060075460405163180226a160e11b8152600093506001600160a01b0390911691506330044d4290610c0790600080516020612ce0833981519152908690899060040161291a565b60206040518083038186803b158015610c1f57600080fd5b505afa158015610c33573d6000803e3d6000fd5b505050506040513d601f19601f82011682018060405250810190610c5791906128ca565b6004811115610c6857610c6861269a565b90506004816004811115610c7e57610c7e61269a565b14610c8857600194505b60005b6009548110156112b05760088181548110610ca857610ca8612772565b906000526020600020906002020160010160019054906101000a900460ff16610cd05761129e565b600073__Util__________________________________63dfbd4a058560088581548110610d0057610d00612772565b90600052602060002090600202016000016040518363ffffffff1660e01b8152600401610d2e929190612a1e565b60206040518083038186803b158015610d4657600080fd5b505af4158015610d5a573d6000803e3d6000fd5b505050506040513d601f19601f82011682018060405250810190610d7e91906128ca565b9050600060088381548110610d9557610d95612772565b6000918252602082206001600290920201015460ff169150816003811115610dbf57610dbf61269a565b1415610f0557600754600880546000926001600160a01b0316916330044d4291600080516020612ce0833981519152918a9189908110610e0157610e01612772565b90600052602060002090600202016000016040518463ffffffff1660e01b8152600401610e3093929190612a37565b60206040518083038186803b158015610e4857600080fd5b505afa158015610e5c573d6000803e3d6000fd5b505050506040513d601f19601f82011682018060405250810190610e8091906128ca565b60048054600754604051636cc09e7160e01b8152600160a01b90910460ff169281019290925260248201869052604482018390529192506001600160a01b0390911690636cc09e71906064015b600060405180830381600087803b158015610ee757600080fd5b505af1158015610efb573d6000803e3d6000fd5b505050505061129b565b6001816003811115610f1957610f1961269a565b141561101f57600754600880546000926001600160a01b031691635f560e8391600080516020612ce0833981519152918a9189908110610f5b57610f5b612772565b90600052602060002090600202016000016040518463ffffffff1660e01b8152600401610f8a93929190612a37565b60006040518083038186803b158015610fa257600080fd5b505afa158015610fb6573d6000803e3d6000fd5b505050506040513d6000823e601f3d908101601f19168201604052610fde9190810190612895565b6004805460075460405162c9fed560e21b81529394506001600160a01b0390911692630327fb5492610ecd92600160a01b900460ff16918891879101612a56565b60028160038111156110335761103361269a565b141561114557600754600880546000926001600160a01b0316916382913d8291600080516020612ce0833981519152918a918990811061107557611075612772565b90600052602060002090600202016000016040518463ffffffff1660e01b81526004016110a493929190612a37565b60206040518083038186803b1580156110bc57600080fd5b505afa1580156110d0573d6000803e3d6000fd5b505050506040513d601f19601f820116820180604052508101906110f491906128ca565b60048054600754604051636609288f60e01b8152600160a01b90910460ff169281019290925260248201869052604482018390529192506001600160a01b0390911690636609288f90606401610ecd565b60038160038111156111595761115961269a565b141561129b57600754600880546000926001600160a01b03169163450a52d091600080516020612ce0833981519152918a918990811061119b5761119b612772565b90600052602060002090600202016000016040518463ffffffff1660e01b81526004016111ca93929190612a37565b60206040518083038186803b1580156111e257600080fd5b505afa1580156111f6573d6000803e3d6000fd5b505050506040513d601f19601f8201168201806040525081019061121a9190612a88565b6004805460075460405163d713085b60e01b8152600160a01b90910460ff16928101929092526024820186905282151560448301529192506001600160a01b039091169063d713085b90606401600060405180830381600087803b15801561128157600080fd5b505af1158015611295573d6000803e3d6000fd5b50505050505b50505b806112a88161279e565b915050610c8b565b50505080806112be9061279e565b9150506109ab565b50600a831480156112d5575081155b1561150d576003546000906001600160a01b03166361da14398686600481811061130157611301612772565b905060200201356040518263ffffffff1660e01b815260040161132691815260200190565b60206040518083038186803b15801561133e57600080fd5b505afa158015611352573d6000803e3d6000fd5b505050506040513d601f19601f8201168201806040525081019061137691906128ca565b9050600073__Util__________________________________63dfbd4a0583600760009054906101000a90046001600160a01b03166001600160a01b03166319cd4c3d6040518163ffffffff1660e01b815260040160006040518083038186803b1580156113e357600080fd5b505afa1580156113f7573d6000803e3d6000fd5b505050506040513d6000823e601f3d908101601f1916820160405261141f9190810190612895565b6040518363ffffffff1660e01b815260040161143c929190612aa3565b60206040518083038186803b15801561145457600080fd5b505af4158015611468573d6000803e3d6000fd5b505050506040513d601f19601f8201168201806040525081019061148c91906128ca565b6004805460075460405163d713085b60e01b8152600160a01b90910460ff169281019290925260248201839052600160448301529192506001600160a01b039091169063d713085b90606401600060405180830381600087803b1580156114f257600080fd5b505af1158015611506573d6000803e3d6000fd5b5050505050505b5050505050565b60035460408051633f4e455560e11b815290516000926001600160a01b031691637e9c8aaa916004808301926020929190829003018186803b15801561155957600080fd5b505afa15801561156d573d6000803e3d6000fd5b505050506040513d601f19601f8201168201806040525081019061159191906128ca565b905090565b6000546001600160a01b031633146115c05760405162461bcd60e51b81526004016105fc9061273d565b600780546001600160a01b0319166001600160a01b038316908117909155604051632ba5d5a360e21b8152600080516020612ce083398151915260048201526000919063ae97568c9060240160006040518083038186803b15801561162457600080fd5b505afa158015611638573d6000803e3d6000fd5b505050506040513d6000823e601f3d908101601f191682016040526116609190810190612abc565b905061166b81611ef4565b6040516001600160a01b03831681527f8eabd18158736228e0bcd01444e967ae9262cdb0e8a88fb154542a13f701bf7b906020015b60405180910390a15050565b6000546001600160a01b031633146116d65760405162461bcd60e51b81526004016105fc9061273d565b600380546001600160a01b0319166001600160a01b0383169081179091556040519081527fdbc0b62a2eda1281b7091c1fc7f8105f99775c93b143930dd077ba6d4b32c87e9060200161064f565b600082815260026020526040812061173c9083611fb5565b9392505050565b60009182526001602090815260408084206001600160a01b0393909316845291905290205460ff1690565b6000546001600160a01b031633146117985760405162461bcd60e51b81526004016105fc9061273d565b6107727f9f2df0fed2c77648de5860a4cc508cd0818c85b8b8a1ab4ceeef8d981c8956a682611fc1565b6000546001600160a01b031633146117ec5760405162461bcd60e51b81526004016105fc9061273d565b600580546001600160a01b0319166001600160a01b0383169081179091556040519081527f7869e3c19f5ec29481a8433791a06441db7b22cd85336da47df97fd7b686ba2a9060200161064f565b6008818154811061184a57600080fd5b906000526020600020906002020160009150905080600001805461186d90612942565b80601f016020809104026020016040519081016040528092919081815260200182805461189990612942565b80156118e65780601f106118bb576101008083540402835291602001916118e6565b820191906000526020600020905b8154815290600101906020018083116118c957829003601f168201915b5050506001909301549192505060ff8082169161010090041683565b60008181526002602052604081206105cc90611fcb565b600082815260016020819052604090912001546119368133611dfc565b6106f28383611e82565b6000546001600160a01b0316331461196a5760405162461bcd60e51b81526004016105fc9061273d565b600a805460ff191660011790556040517fc36fa5b2c65cc16b04fc2a4e8622ec78390fff9f6d31982fa5e86f965f7bb44090600090a1565b606060008267ffffffffffffffff8111156119bf576119bf6127b9565b6040519080825280602002602001820160405280156119e8578160200160208202803683370190505b50905060005b83811015611abd576003546001600160a01b03166361da1439868684818110611a1957611a19612772565b905060200201356040518263ffffffff1660e01b8152600401611a3e91815260200190565b60206040518083038186803b158015611a5657600080fd5b505afa158015611a6a573d6000803e3d6000fd5b505050506040513d601f19601f82011682018060405250810190611a8e91906128ca565b828281518110611aa057611aa0612772565b602090810291909101015280611ab58161279e565b9150506119ee565b509392505050565b6000546001600160a01b03163314611aef5760405162461bcd60e51b81526004016105fc9061273d565b600a805460ff191690556040517f34215299ad73e5b22bebc5f9f87bc797f4871a6cefaefaced769b9509e45072990600090a1565b6000546001600160a01b03163314611b4e5760405162461bcd60e51b81526004016105fc9061273d565b6001600160a01b038116611bb35760405162461bcd60e51b815260206004820152602660248201527f4f776e61626c653a206e6577206f776e657220697320746865207a65726f206160448201526564647265737360d01b60648201526084016105fc565b61077281611ea4565b6000546001600160a01b03163314611be65760405162461bcd60e51b81526004016105fc9061273d565b6000828152600b602090815260409182902083905581518481529081018390527ff9317dc3bc6dda0e00e43855c2c30847aeafb8dcea9d2ce86e9ce7a83d549f0191016116a0565b600a5460ff16611d2f576000818152600b602052604090205480611c945760405162461bcd60e51b815260206004820152601e60248201527f556e61636365707461626c652063617264207061636b6167652073697a65000060448201526064016105fc565b6006546001600160a01b03166323b872dd336040516001600160e01b031960e084901b1681526001600160a01b03909116600482015230602482015260448101849052606401602060405180830381600087803b158015611cf457600080fd5b505af1158015611d08573d6000803e3d6000fd5b505050506040513d601f19601f82011682018060405250810190611d2c9190612a88565b50505b60005b818110156106f2576003546001600160a01b031663f14fcbc8848484818110611d5d57611d5d612772565b905060200201356040518263ffffffff1660e01b8152600401611d8291815260200190565b600060405180830381600087803b158015611d9c57600080fd5b505af1158015611db0573d6000803e3d6000fd5b505050508080611dbf9061279e565b915050611d32565b60006001600160e01b03198216637965db0b60e01b14806105cc57506301ffc9a760e01b6001600160e01b03198316146105cc565b611e068282611743565b61086757611e1e816001600160a01b03166014611fd5565b611e29836020611fd5565b604051602001611e3a929190612bdc565b60408051601f198184030181529082905262461bcd60e51b82526105fc91600401612c51565b611e6a8282612171565b60008281526002602052604090206106f290826121dc565b611e8c82826121f1565b60008281526002602052604090206106f29082612258565b600080546001600160a01b038381166001600160a01b0319831681178455604051919092169283917f8be0079c531659141344cd1fd0a4f28419497f9722a3daafe3b4186f6b6457e09190a35050565b60005b8151811015611fae576008828281518110611f1457611f14612772565b602090810291909101810151825460018101845560009384529282902081518051929460020290910192611f4d928492909101906123d9565b50602082015160018083018054909160ff1990911690836003811115611f7557611f7561269a565b021790555060409190910151600190910180549115156101000261ff001990921691909117905580611fa68161279e565b915050611ef7565b5051600955565b600061173c838361226d565b6108678282611e60565b60006105cc825490565b60606000611fe4836002612c64565b611fef906002612c83565b67ffffffffffffffff811115612007576120076127b9565b6040519080825280601f01601f191660200182016040528015612031576020820181803683370190505b509050600360fc1b8160008151811061204c5761204c612772565b60200101906001600160f81b031916908160001a905350600f60fb1b8160018151811061207b5761207b612772565b60200101906001600160f81b031916908160001a905350600061209f846002612c64565b6120aa906001612c83565b90505b6001811115612122576f181899199a1a9b1b9c1cb0b131b232b360811b85600f16601081106120de576120de612772565b1a60f81b8282815181106120f4576120f4612772565b60200101906001600160f81b031916908160001a90535060049490941c9361211b81612c9b565b90506120ad565b50831561173c5760405162461bcd60e51b815260206004820181905260248201527f537472696e67733a20686578206c656e67746820696e73756666696369656e7460448201526064016105fc565b61217b8282611743565b6108675760008281526001602081815260408084206001600160a01b0386168086529252808420805460ff19169093179092559051339285917f2f8788117e7eff1d82e926ec794901d17c78024a50270940304540a733656f0d9190a45050565b600061173c836001600160a01b038416612297565b6121fb8282611743565b156108675760008281526001602090815260408083206001600160a01b0385168085529252808320805460ff1916905551339285917ff6391f5c32d9c69d2a47ea670b442974b53935d1edc7fd64eb21e047a839171b9190a45050565b600061173c836001600160a01b0384166122e6565b600082600001828154811061228457612284612772565b9060005260206000200154905092915050565b60008181526001830160205260408120546122de575081546001818101845560008481526020808220909301849055845484825282860190935260409020919091556105cc565b5060006105cc565b600081815260018301602052604081205480156123cf57600061230a600183612cb2565b855490915060009061231e90600190612cb2565b905081811461238357600086600001828154811061233e5761233e612772565b906000526020600020015490508087600001848154811061236157612361612772565b6000918252602080832090910192909255918252600188019052604090208390555b855486908061239457612394612cc9565b6001900381819060005260206000200160009055905585600101600086815260200190815260200160002060009055600193505050506105cc565b60009150506105cc565b8280546123e590612942565b90600052602060002090601f016020900481019282612407576000855561244d565b82601f1061242057805160ff191683800117855561244d565b8280016001018555821561244d579182015b8281111561244d578251825591602001919060010190612432565b5061245992915061245d565b5090565b5b80821115612459576000815560010161245e565b60006020828403121561248457600080fd5b81356001600160e01b03198116811461173c57600080fd5b6000602082840312156124ae57600080fd5b813560ff8116811461173c57600080fd5b6000602082840312156124d157600080fd5b5035919050565b60008083601f8401126124ea57600080fd5b50813567ffffffffffffffff81111561250257600080fd5b6020830191508360208260051b850101111561251d57600080fd5b9250929050565b6000806020838503121561253757600080fd5b823567ffffffffffffffff81111561254e57600080fd5b61255a858286016124d8565b90969095509350505050565b80356001600160a01b038116811461257d57600080fd5b919050565b6000806040838503121561259557600080fd5b823591506125a560208401612566565b90509250929050565b6000602082840312156125c057600080fd5b61173c82612566565b6000806000604084860312156125de57600080fd5b6125e784612566565b9250602084013567ffffffffffffffff81111561260357600080fd5b61260f868287016124d8565b9497909650939450505050565b6000806040838503121561262f57600080fd5b50508035926020909101359150565b60005b83811015612659578181015183820152602001612641565b83811115612668576000848401525b50505050565b6000815180845261268681602086016020860161263e565b601f01601f19169290920160200192915050565b634e487b7160e01b600052602160045260246000fd5b6060815260006126c3606083018661266e565b9050600484106126e357634e487b7160e01b600052602160045260246000fd5b8360208301528215156040830152949350505050565b6020808252825182820181905260009190848201906040850190845b8181101561273157835183529284019291840191600101612715565b50909695505050505050565b6020808252818101527f4f776e61626c653a2063616c6c6572206973206e6f7420746865206f776e6572604082015260600190565b634e487b7160e01b600052603260045260246000fd5b634e487b7160e01b600052601160045260246000fd5b60006000198214156127b2576127b2612788565b5060010190565b634e487b7160e01b600052604160045260246000fd5b6040516060810167ffffffffffffffff811182821017156127f2576127f26127b9565b60405290565b604051601f8201601f1916810167ffffffffffffffff81118282101715612821576128216127b9565b604052919050565b600082601f83011261283a57600080fd5b815167ffffffffffffffff811115612854576128546127b9565b612867601f8201601f19166020016127f8565b81815284602083860101111561287c57600080fd5b61288d82602083016020870161263e565b949350505050565b6000602082840312156128a757600080fd5b815167ffffffffffffffff8111156128be57600080fd5b61288d84828501612829565b6000602082840312156128dc57600080fd5b5051919050565b60018060a01b0385168152836020820152826040820152608060608201526000612910608083018461266e565b9695505050505050565b838152826020820152606060408201526000612939606083018461266e565b95945050505050565b600181811c9082168061295657607f821691505b6020821081141561297757634e487b7160e01b600052602260045260246000fd5b50919050565b8054600090600181811c908083168061299757607f831692505b60208084108214156129b957634e487b7160e01b600052602260045260246000fd5b8388528180156129d057600181146129e457612a12565b60ff19861689830152604089019650612a12565b876000528160002060005b86811015612a0a5781548b82018501529085019083016129ef565b8a0183019750505b50505050505092915050565b82815260406020820152600061288d604083018461297d565b838152826020820152606060408201526000612939606083018461297d565b60ff84168152826020820152606060408201526000612939606083018461266e565b8051801515811461257d57600080fd5b600060208284031215612a9a57600080fd5b61173c82612a78565b82815260406020820152600061288d604083018461266e565b60006020808385031215612acf57600080fd5b825167ffffffffffffffff80821115612ae757600080fd5b818501915085601f830112612afb57600080fd5b815181811115612b0d57612b0d6127b9565b8060051b612b1c8582016127f8565b9182528381018501918581019089841115612b3657600080fd5b86860192505b83831015612bcf57825185811115612b545760008081fd5b86016060818c03601f1901811315612b6c5760008081fd5b612b746127cf565b8983015188811115612b865760008081fd5b612b948e8c83870101612829565b82525060408084015160048110612bab5760008081fd5b828c0152612bba848401612a78565b90820152845250509186019190860190612b3c565b9998505050505050505050565b7f416363657373436f6e74726f6c3a206163636f756e7420000000000000000000815260008351612c1481601785016020880161263e565b7001034b99036b4b9b9b4b733903937b6329607d1b6017918401918201528351612c4581602884016020880161263e565b01602801949350505050565b60208152600061173c602083018461266e565b6000816000190483118215151615612c7e57612c7e612788565b500290565b60008219821115612c9657612c96612788565b500190565b600081612caa57612caa612788565b506000190190565b600082821015612cc457612cc4612788565b500390565b634e487b7160e01b600052603160045260246000fdfe37a3c4a2a635dedf6a4912ec5757511a1f2fa87cb349543d4751fc18c65e4273a2646970667358221220a03327b3de5557f1d1cc43530eb1e63c096c9e304517fd38bef3feb8c38978a264736f6c63430008090033",
  "immutableReferences": {},
  "source": "/**\n * Dragon card minter logic. Creates Unique dragon NFTs with unique IDs and all necessary data tags\n * SPDX-License-Identifier: MIT\n * @title Dragon Cards Minter\n * @author CryptoHog\n * @notice This smart contract implements core dragon cards minting logic.\n * @dev The smart contract performs the following functions\n *  - accepts orders to create a given number of new dragon cards\n *  - talks to RNG to generate unique card IDs\n *  - derives from card ID its static and iniotial dynamic stats\n *  - talks to the NFT1155 to create card's NFT\n *  - talks to the Tag Storage to store the dynamic stats\n**/\n\npragma solidity ^0.8.0;\n\nimport \"@openzeppelin/contracts/access/AccessControlEnumerable.sol\";\nimport \"@openzeppelin/contracts/utils/Context.sol\";\nimport \"@openzeppelin/contracts/access/Ownable.sol\";\nimport \"./dependencies/IBEP20.sol\";\nimport \"./FireZardNFT.sol\";\nimport \"./IRNG.sol\";\nimport \"./RNG.sol\";\nimport \"./IStatsDerive.sol\";\nimport \"./DragonStats.sol\";\nimport \"./StatsView.sol\";\nimport \"./TagStorage.sol\";\nimport {Util} from \"./Util.sol\";\n\ncontract DragonMinter is Context, Ownable, AccessControlEnumerable {\n    bytes32 public constant MINTER_ROLE = keccak256('MINTER_ROLE');\n\n    address public      RNG_addr;\n    address public\tTAG_addr;\n    address public\tNFT_addr;\n    address public\tFLAME_addr;\n    address public\tstats_lib_addr;\n\n    uint8 public \tgroup_id;\n    Util.Stat[] public stats;\n    uint256 public\tstats_length;\n\n    bool public\t\ttestMode=true;\n\n    mapping(uint256 => uint256) public\tprice_list;\n\n//    mapping(uint256 => address) public\ttest_vars;\n\n    modifier isMinter() {\n\t_;\n    }\n\n    /**\n     * @notice Initializes the Dragon Cards minter.\n     * @dev    Needs RNG smart contract address.\n     * The constructor will link the dragon minter to the given RNG smart contract.\n     * The onwer can relink the dragon minter to a different RNG smart contract later on.\n     *\n     * @param rng_contract  The address of the RNG contract implementing IRNG interface.\n     * @param tag_storage   The address of the Tag Storage\n     * @param nft_container The address of the NFT ERC1155 smart contract\n     * @param stats_lib     The address of the library with the methods deriving stats from the token UUID by name\n    **/\n    constructor(address rng_contract, address tag_storage, address nft_container, address stats_lib) {\n\tRNG_addr = rng_contract;\n\tTAG_addr = tag_storage;\n\tNFT_addr = nft_container;\n\tstats_lib_addr = stats_lib;\n\tUtil.Stat[] memory _stats = IStatsDerive(stats_lib_addr).stats(Util.DRAGON_CARD_TYPE_CODE);\n\tsaveStats(_stats);\n//\t_setupRole(MINTER_ROLE, _msgSender());\n    }\n\n    function saveStats(Util.Stat[] memory _stats) internal {\n\tfor(uint256 i=0;i<_stats.length;i++){\n\t    stats.push(_stats[i]);\n\t}\n\tstats_length = _stats.length;\n    }\n\n    /**\n     * @notice Sets link to RNG smart contract\n    **/\n    function linkRNG(address rng_contract) public virtual onlyOwner {\n\tRNG_addr = rng_contract;\n\temit RNGLink(rng_contract);\n    }\n\n    /**\n     * @notice Sets link to Tag Storage smart contract\n    **/\n    function linkTAG(address tag_storage) public virtual onlyOwner {\n\tTAG_addr = tag_storage;\n\temit TAGLink(tag_storage);\n    }\n\n    /**\n     * @notice Sets link to ERC1155 NFT smart contract\n    **/\n    function linkNFT(address nft_container) public virtual onlyOwner {\n\tNFT_addr = nft_container;\n\temit NFTLink(nft_container);\n    }\n\n    /**\n     * @notice Sets link to BEP20 FLAME smart contract\n    **/\n    function linkFLAME(address _flame) public virtual onlyOwner {\n\tFLAME_addr = _flame;\n\temit FLAMELink(_flame);\n    }\n\n    /**\n     * @notice Sets link to the Stats deriving library\n    **/\n    function linkStatsLib(address stats_lib) public virtual onlyOwner {\n\tstats_lib_addr = stats_lib;\n\tUtil.Stat[] memory _stats = IStatsDerive(stats_lib_addr).stats(Util.DRAGON_CARD_TYPE_CODE);\n\tsaveStats(_stats);\n\temit StatsLibLink(stats_lib);\n    }\n\n    /**\n     * @notice Sets group ID for the Dragon card minter within Tag Storage\n    **/\n    function setTagGroupId(uint8 _group_id) public virtual onlyOwner {\n\tgroup_id = _group_id;\n\temit TAGGroupID(_group_id);\n    }\n\n    /**\n     * @notice Adds minter's role\n     * \n     * @param entity An address of a contract or external\n    **/\n    function addMinter(address entity) public virtual onlyOwner {\n\t_setupRole(MINTER_ROLE, entity);\n    }\n\n    /**\n     * @notice Removes minter's role\n     * \n     * @param entity An address of a contract or external\n    **/\n    function removeMinter(address entity) public virtual onlyOwner {\n\trevokeRole(MINTER_ROLE, entity);\n    }\n\n    function enableMintFee() public virtual onlyOwner {\n\ttestMode = false;\n\temit EnableMintFee();\n    }\n\n    function disableMintFee() public virtual onlyOwner {\n\ttestMode = true;\n\temit DisableMintFee();\n    }\n\n    function setPrice(uint256 size, uint256 price) public virtual onlyOwner {\n\tprice_list[size] = price;\n\temit SetPrice(size, price);\n    }\n\n    function getPrice(uint256 size) public virtual view returns (uint256) {\n\treturn price_list[size];\n    }\n\n    /**\n     * @notice Initializes RNG with an array of entropy's commitments from user's side.\n     * This should be called before revealing the cards.\n     * The size of the array equals the number of cards to create. Cards are not revealed so far.\n     * At this point the cards are hidden. It is only known how many cards will be revealed/created.\n     * The cards can be revealed after certain amount of time specific to the RNG.\n     * @dev    Calls RNG's init procedure for every card. Read more about generating randomness in IRNG.sol\n     *\n     * @param commitment Array of commitments of user's entropy for all new cards to create.\n    **/\n    function initPackage(bytes32[] calldata commitment) external virtual {\n\tif(!testMode){\n\t    uint256 price = getPrice(commitment.length);\n\t    require(price > 0, \"Unacceptable card package size\");\n\t    IBEP20(FLAME_addr).transferFrom(_msgSender(),address(this),price);\n\t}\n\tfor(uint i=0;i<commitment.length;i++)\n\t    IRNG(RNG_addr).commit(commitment[i]);\n    }\n\n    /**\n     * @notice Lock an array of client's entropies that have been commited earlier\n     *\n     * @param entropy The array of client's entropies\n    **/\n    function lockPackage(bytes32[] calldata entropy) external virtual {\n\tfor(uint i=0;i<entropy.length;i++){\n\t    IRNG(RNG_addr).lock(entropy[i]);\n\t}\n    }\n\n    /**\n     * @notice Reveales new dragon cards unique IDs basing on the entropy's commitments from user's side.\n     * Mints respective NFT ERC1155 tokens, derives the cards' stats and stores them into the Tag Storage\n     * @dev See IRNG.sol for details on how random unique IDs are generated from the user's entropy commitments\n     *\n     * @param commitment Array of commitments of user's entropy for all new cards to create.\n    **/\n    function openPackage(address recipient, bytes32[] calldata commitment) external virtual {\n\tbool non_common_found = false;\n\tstring memory rarity = DragonStats(stats_lib_addr).RARITY_STR();\n\tfor(uint i=0;i<commitment.length;i++){\n\t    uint256 nft_id=IRNG(RNG_addr).read(commitment[i]);\n\t    require(FireZardNFT(NFT_addr).totalSupply(nft_id) == 0, \"Same dragon card can be openned at most once\");\n\t    FireZardNFT(NFT_addr).mint(\n\t\trecipient,\n\t\tnft_id,\n\t\t1,\n\t\tabi.encodePacked(Util.DRAGON_CARD_TYPE_CODE)\n\t    );\n\t    Util.CardRarity rarity_val = Util.CardRarity(IStatsDerive(stats_lib_addr).getStatInt(Util.DRAGON_CARD_TYPE_CODE, nft_id, rarity));\n\t    if(rarity_val != Util.CardRarity.Common)\n\t\tnon_common_found = true;\n\t    for(uint j=0;j<stats_length;j++){\n\t\tif(!stats[j].is_mutable)continue;\n\t\tbytes32 tag_key = Util.getTagKey(nft_id,stats[j].name);\n\t\tUtil.StatType statType = stats[j].statType;\n\t\tif(statType == Util.StatType.Integer){\n\t\t    uint256 tag_value = IStatsDerive(stats_lib_addr).getStatInt(Util.DRAGON_CARD_TYPE_CODE, nft_id, stats[j].name);\n\t\t    TagStorage(TAG_addr).setTag(group_id, tag_key, tag_value);\n\t\t}else if(statType == Util.StatType.String){\n\t\t    string memory tag_value = IStatsDerive(stats_lib_addr).getStatString(Util.DRAGON_CARD_TYPE_CODE, nft_id, stats[j].name);\n\t\t    TagStorage(TAG_addr).setTag(group_id, tag_key, tag_value);\n\t\t}else if(statType == Util.StatType.ByteArray){\n\t\t    bytes32 tag_value = IStatsDerive(stats_lib_addr).getStatByte32(Util.DRAGON_CARD_TYPE_CODE, nft_id, stats[j].name);\n\t\t    TagStorage(TAG_addr).setTag(group_id, tag_key, tag_value);\n\t\t}else if(statType == Util.StatType.Boolean){\n\t\t    bool tag_value = IStatsDerive(stats_lib_addr).getStatBool(Util.DRAGON_CARD_TYPE_CODE, nft_id, stats[j].name);\n\t\t    TagStorage(TAG_addr).setTag(group_id, tag_key, tag_value);\n\t\t}\n\t    }\n\t}\n\tif((commitment.length == 10)&&(!non_common_found)){\n\t    uint256 nft_id=IRNG(RNG_addr).read(commitment[4]);\n\t    bytes32 tag_key = Util.getTagKey(nft_id, DragonStats(stats_lib_addr).RARITY_OVERRIDE_STR());\n\t    TagStorage(TAG_addr).setTag(group_id, tag_key, true);\n\t}\n    }\n\n    function readPackage(bytes32[] calldata commitment) external virtual view returns (uint256[] memory) {\n\tuint256[] memory\tids = new uint256[](commitment.length);\n\tfor(uint i=0;i<commitment.length;i++)\n\t    ids[i] = IRNG(RNG_addr).read(commitment[i]);\n\treturn ids;\n    }\n\n    function getBlockConfirmationCap() external view returns (uint256){\n\treturn RNG(RNG_addr).getBlockConfirmationCap();\n    }\n\n    event RNGLink(address rng_contract);\n    event StatsLibLink(address stats_lib);\n    event TAGGroupID(uint8 group_id);\n    event TAGLink(address tag_storage);\n    event NFTLink(address nft_container);\n    event FLAMELink(address _flame);\n    event EnableMintFee();\n    event DisableMintFee();\n    event SetPrice(uint256 size, uint256 price);\n}\n",
  "sourcePath": "/home/vrogojin/Projects/FireZard/nft/contracts/DragonMinter.sol",
  "compiler": {
    "name": "solc",
    "version": "0.8.9+commit.e5eed63a.Emscripten.clang"
  },
  "schemaVersion": "3.4.3",
  "updatedAt": "2022-02-01T15:42:30.095Z",
  "devdoc": {
    "kind": "dev",
    "methods": {
      "addMinter(address)": {
        "params": {
          "entity": "An address of a contract or external*"
        }
      },
      "constructor": {
        "details": "Needs RNG smart contract address. The constructor will link the dragon minter to the given RNG smart contract. The onwer can relink the dragon minter to a different RNG smart contract later on.",
        "params": {
          "nft_container": "The address of the NFT ERC1155 smart contract",
          "rng_contract": "The address of the RNG contract implementing IRNG interface.",
          "stats_lib": "The address of the library with the methods deriving stats from the token UUID by name*",
          "tag_storage": "The address of the Tag Storage"
        }
      },
      "getRoleAdmin(bytes32)": {
        "details": "Returns the admin role that controls `role`. See {grantRole} and {revokeRole}. To change a role's admin, use {_setRoleAdmin}."
      },
      "getRoleMember(bytes32,uint256)": {
        "details": "Returns one of the accounts that have `role`. `index` must be a value between 0 and {getRoleMemberCount}, non-inclusive. Role bearers are not sorted in any particular way, and their ordering may change at any point. WARNING: When using {getRoleMember} and {getRoleMemberCount}, make sure you perform all queries on the same block. See the following https://forum.openzeppelin.com/t/iterating-over-elements-on-enumerableset-in-openzeppelin-contracts/2296[forum post] for more information."
      },
      "getRoleMemberCount(bytes32)": {
        "details": "Returns the number of accounts that have `role`. Can be used together with {getRoleMember} to enumerate all bearers of a role."
      },
      "grantRole(bytes32,address)": {
        "details": "Grants `role` to `account`. If `account` had not been already granted `role`, emits a {RoleGranted} event. Requirements: - the caller must have ``role``'s admin role."
      },
      "hasRole(bytes32,address)": {
        "details": "Returns `true` if `account` has been granted `role`."
      },
      "initPackage(bytes32[])": {
        "details": "Calls RNG's init procedure for every card. Read more about generating randomness in IRNG.sol",
        "params": {
          "commitment": "Array of commitments of user's entropy for all new cards to create.*"
        }
      },
      "lockPackage(bytes32[])": {
        "params": {
          "entropy": "The array of client's entropies*"
        }
      },
      "openPackage(address,bytes32[])": {
        "details": "See IRNG.sol for details on how random unique IDs are generated from the user's entropy commitments",
        "params": {
          "commitment": "Array of commitments of user's entropy for all new cards to create.*"
        }
      },
      "owner()": {
        "details": "Returns the address of the current owner."
      },
      "removeMinter(address)": {
        "params": {
          "entity": "An address of a contract or external*"
        }
      },
      "renounceOwnership()": {
        "details": "Leaves the contract without owner. It will not be possible to call `onlyOwner` functions anymore. Can only be called by the current owner. NOTE: Renouncing ownership will leave the contract without an owner, thereby removing any functionality that is only available to the owner."
      },
      "renounceRole(bytes32,address)": {
        "details": "Revokes `role` from the calling account. Roles are often managed via {grantRole} and {revokeRole}: this function's purpose is to provide a mechanism for accounts to lose their privileges if they are compromised (such as when a trusted device is misplaced). If the calling account had been revoked `role`, emits a {RoleRevoked} event. Requirements: - the caller must be `account`."
      },
      "revokeRole(bytes32,address)": {
        "details": "Revokes `role` from `account`. If `account` had been granted `role`, emits a {RoleRevoked} event. Requirements: - the caller must have ``role``'s admin role."
      },
      "supportsInterface(bytes4)": {
        "details": "See {IERC165-supportsInterface}."
      },
      "transferOwnership(address)": {
        "details": "Transfers ownership of the contract to a new account (`newOwner`). Can only be called by the current owner."
      }
    },
    "version": 1
  },
  "userdoc": {
    "kind": "user",
    "methods": {
      "addMinter(address)": {
        "notice": "Adds minter's role "
      },
      "constructor": {
        "notice": "Initializes the Dragon Cards minter."
      },
      "initPackage(bytes32[])": {
        "notice": "Initializes RNG with an array of entropy's commitments from user's side. This should be called before revealing the cards. The size of the array equals the number of cards to create. Cards are not revealed so far. At this point the cards are hidden. It is only known how many cards will be revealed/created. The cards can be revealed after certain amount of time specific to the RNG."
      },
      "linkFLAME(address)": {
        "notice": "Sets link to BEP20 FLAME smart contract*"
      },
      "linkNFT(address)": {
        "notice": "Sets link to ERC1155 NFT smart contract*"
      },
      "linkRNG(address)": {
        "notice": "Sets link to RNG smart contract*"
      },
      "linkStatsLib(address)": {
        "notice": "Sets link to the Stats deriving library*"
      },
      "linkTAG(address)": {
        "notice": "Sets link to Tag Storage smart contract*"
      },
      "lockPackage(bytes32[])": {
        "notice": "Lock an array of client's entropies that have been commited earlier"
      },
      "openPackage(address,bytes32[])": {
        "notice": "Reveales new dragon cards unique IDs basing on the entropy's commitments from user's side. Mints respective NFT ERC1155 tokens, derives the cards' stats and stores them into the Tag Storage"
      },
      "removeMinter(address)": {
        "notice": "Removes minter's role "
      },
      "setTagGroupId(uint8)": {
        "notice": "Sets group ID for the Dragon card minter within Tag Storage*"
      }
    },
    "version": 1
  }
}