{
  "contractName": "DragonStats",
  "abi": [
    {
      "anonymous": false,
      "inputs": [
        {
          "indexed": false,
          "internalType": "address",
          "name": "_manager",
          "type": "address"
        }
      ],
      "name": "ContractAdded",
      "type": "event"
    },
    {
      "anonymous": false,
      "inputs": [
        {
          "indexed": false,
          "internalType": "address",
          "name": "newManager",
          "type": "address"
        }
      ],
      "name": "ContractManagerSwitch",
      "type": "event"
    },
    {
      "anonymous": false,
      "inputs": [
        {
          "indexed": false,
          "internalType": "address",
          "name": "newOwner",
          "type": "address"
        }
      ],
      "name": "ContractOwnershipUpdate",
      "type": "event"
    },
    {
      "anonymous": false,
      "inputs": [],
      "name": "ContractRemoved",
      "type": "event"
    },
    {
      "anonymous": false,
      "inputs": [
        {
          "indexed": false,
          "internalType": "address",
          "name": "contractInstance",
          "type": "address"
        }
      ],
      "name": "ContractReplaced",
      "type": "event"
    },
    {
      "anonymous": false,
      "inputs": [
        {
          "indexed": false,
          "internalType": "address",
          "name": "oldInstance",
          "type": "address"
        },
        {
          "indexed": false,
          "internalType": "address",
          "name": "_manager",
          "type": "address"
        }
      ],
      "name": "ContractUpdated",
      "type": "event"
    },
    {
      "anonymous": false,
      "inputs": [
        {
          "indexed": true,
          "internalType": "address",
          "name": "previousOwner",
          "type": "address"
        },
        {
          "indexed": true,
          "internalType": "address",
          "name": "newOwner",
          "type": "address"
        }
      ],
      "name": "OwnershipTransferred",
      "type": "event"
    },
    {
      "anonymous": false,
      "inputs": [
        {
          "indexed": true,
          "internalType": "bytes32",
          "name": "role",
          "type": "bytes32"
        },
        {
          "indexed": true,
          "internalType": "bytes32",
          "name": "previousAdminRole",
          "type": "bytes32"
        },
        {
          "indexed": true,
          "internalType": "bytes32",
          "name": "newAdminRole",
          "type": "bytes32"
        }
      ],
      "name": "RoleAdminChanged",
      "type": "event"
    },
    {
      "anonymous": false,
      "inputs": [
        {
          "indexed": true,
          "internalType": "bytes32",
          "name": "role",
          "type": "bytes32"
        },
        {
          "indexed": true,
          "internalType": "address",
          "name": "account",
          "type": "address"
        },
        {
          "indexed": true,
          "internalType": "address",
          "name": "sender",
          "type": "address"
        }
      ],
      "name": "RoleGranted",
      "type": "event"
    },
    {
      "anonymous": false,
      "inputs": [
        {
          "indexed": true,
          "internalType": "bytes32",
          "name": "role",
          "type": "bytes32"
        },
        {
          "indexed": true,
          "internalType": "address",
          "name": "account",
          "type": "address"
        },
        {
          "indexed": true,
          "internalType": "address",
          "name": "sender",
          "type": "address"
        }
      ],
      "name": "RoleRevoked",
      "type": "event"
    },
    {
      "anonymous": false,
      "inputs": [
        {
          "indexed": false,
          "internalType": "address",
          "name": "_statsDistrib",
          "type": "address"
        }
      ],
      "name": "StatsDistribLink",
      "type": "event"
    },
    {
      "inputs": [],
      "name": "ATTACK_STR",
      "outputs": [
        {
          "internalType": "string",
          "name": "",
          "type": "string"
        }
      ],
      "stateMutability": "view",
      "type": "function"
    },
    {
      "inputs": [],
      "name": "CHARACTER_AQAZARD_STR",
      "outputs": [
        {
          "internalType": "string",
          "name": "",
          "type": "string"
        }
      ],
      "stateMutability": "view",
      "type": "function"
    },
    {
      "inputs": [],
      "name": "CHARACTER_BLIZARD_STR",
      "outputs": [
        {
          "internalType": "string",
          "name": "",
          "type": "string"
        }
      ],
      "stateMutability": "view",
      "type": "function"
    },
    {
      "inputs": [],
      "name": "CHARACTER_BLOSZARD_STR",
      "outputs": [
        {
          "internalType": "string",
          "name": "",
          "type": "string"
        }
      ],
      "stateMutability": "view",
      "type": "function"
    },
    {
      "inputs": [],
      "name": "CHARACTER_CHILLAZARD_STR",
      "outputs": [
        {
          "internalType": "string",
          "name": "",
          "type": "string"
        }
      ],
      "stateMutability": "view",
      "type": "function"
    },
    {
      "inputs": [],
      "name": "CHARACTER_COOLBRYO_STR",
      "outputs": [
        {
          "internalType": "string",
          "name": "",
          "type": "string"
        }
      ],
      "stateMutability": "view",
      "type": "function"
    },
    {
      "inputs": [],
      "name": "CHARACTER_DRIPLAZARD_STR",
      "outputs": [
        {
          "internalType": "string",
          "name": "",
          "type": "string"
        }
      ],
      "stateMutability": "view",
      "type": "function"
    },
    {
      "inputs": [],
      "name": "CHARACTER_EMBERZARD_STR",
      "outputs": [
        {
          "internalType": "string",
          "name": "",
          "type": "string"
        }
      ],
      "stateMutability": "view",
      "type": "function"
    },
    {
      "inputs": [],
      "name": "CHARACTER_FIREZARD_STR",
      "outputs": [
        {
          "internalType": "string",
          "name": "",
          "type": "string"
        }
      ],
      "stateMutability": "view",
      "type": "function"
    },
    {
      "inputs": [],
      "name": "CHARACTER_FLAMEBRYO_STR",
      "outputs": [
        {
          "internalType": "string",
          "name": "",
          "type": "string"
        }
      ],
      "stateMutability": "view",
      "type": "function"
    },
    {
      "inputs": [],
      "name": "CHARACTER_FLAROZARD_STR",
      "outputs": [
        {
          "internalType": "string",
          "name": "",
          "type": "string"
        }
      ],
      "stateMutability": "view",
      "type": "function"
    },
    {
      "inputs": [],
      "name": "CHARACTER_FLORAZARD_STR",
      "outputs": [
        {
          "internalType": "string",
          "name": "",
          "type": "string"
        }
      ],
      "stateMutability": "view",
      "type": "function"
    },
    {
      "inputs": [],
      "name": "CHARACTER_FROZARD_STR",
      "outputs": [
        {
          "internalType": "string",
          "name": "",
          "type": "string"
        }
      ],
      "stateMutability": "view",
      "type": "function"
    },
    {
      "inputs": [],
      "name": "CHARACTER_HYDRAZARD_STR",
      "outputs": [
        {
          "internalType": "string",
          "name": "",
          "type": "string"
        }
      ],
      "stateMutability": "view",
      "type": "function"
    },
    {
      "inputs": [],
      "name": "CHARACTER_LECTRAZARD_STR",
      "outputs": [
        {
          "internalType": "string",
          "name": "",
          "type": "string"
        }
      ],
      "stateMutability": "view",
      "type": "function"
    },
    {
      "inputs": [
        {
          "internalType": "uint256",
          "name": "",
          "type": "uint256"
        }
      ],
      "name": "CHARACTER_NAMES",
      "outputs": [
        {
          "internalType": "string",
          "name": "",
          "type": "string"
        }
      ],
      "stateMutability": "view",
      "type": "function"
    },
    {
      "inputs": [],
      "name": "CHARACTER_NAME_STR",
      "outputs": [
        {
          "internalType": "string",
          "name": "",
          "type": "string"
        }
      ],
      "stateMutability": "view",
      "type": "function"
    },
    {
      "inputs": [],
      "name": "CHARACTER_SEEDBRYO_STR",
      "outputs": [
        {
          "internalType": "string",
          "name": "",
          "type": "string"
        }
      ],
      "stateMutability": "view",
      "type": "function"
    },
    {
      "inputs": [],
      "name": "CHARACTER_SPARKYZARD_STR",
      "outputs": [
        {
          "internalType": "string",
          "name": "",
          "type": "string"
        }
      ],
      "stateMutability": "view",
      "type": "function"
    },
    {
      "inputs": [],
      "name": "CHARACTER_SPLASH_STR",
      "outputs": [
        {
          "internalType": "string",
          "name": "",
          "type": "string"
        }
      ],
      "stateMutability": "view",
      "type": "function"
    },
    {
      "inputs": [],
      "name": "CHARACTER_SPROUTYZARD_STR",
      "outputs": [
        {
          "internalType": "string",
          "name": "",
          "type": "string"
        }
      ],
      "stateMutability": "view",
      "type": "function"
    },
    {
      "inputs": [],
      "name": "CHARACTER_STR",
      "outputs": [
        {
          "internalType": "string",
          "name": "",
          "type": "string"
        }
      ],
      "stateMutability": "view",
      "type": "function"
    },
    {
      "inputs": [],
      "name": "CHARACTER_VOLZARD_STR",
      "outputs": [
        {
          "internalType": "string",
          "name": "",
          "type": "string"
        }
      ],
      "stateMutability": "view",
      "type": "function"
    },
    {
      "inputs": [],
      "name": "CHARACTER_ZAPBRYO_STR",
      "outputs": [
        {
          "internalType": "string",
          "name": "",
          "type": "string"
        }
      ],
      "stateMutability": "view",
      "type": "function"
    },
    {
      "inputs": [],
      "name": "DEFAULT_ADMIN_ROLE",
      "outputs": [
        {
          "internalType": "bytes32",
          "name": "",
          "type": "bytes32"
        }
      ],
      "stateMutability": "view",
      "type": "function"
    },
    {
      "inputs": [],
      "name": "DEFENSE_STR",
      "outputs": [
        {
          "internalType": "string",
          "name": "",
          "type": "string"
        }
      ],
      "stateMutability": "view",
      "type": "function"
    },
    {
      "inputs": [],
      "name": "HEALTH_STR",
      "outputs": [
        {
          "internalType": "string",
          "name": "",
          "type": "string"
        }
      ],
      "stateMutability": "view",
      "type": "function"
    },
    {
      "inputs": [],
      "name": "H_ATTACK_STR",
      "outputs": [
        {
          "internalType": "bytes32",
          "name": "",
          "type": "bytes32"
        }
      ],
      "stateMutability": "view",
      "type": "function"
    },
    {
      "inputs": [],
      "name": "H_CHARACTER_NAME_STR",
      "outputs": [
        {
          "internalType": "bytes32",
          "name": "",
          "type": "bytes32"
        }
      ],
      "stateMutability": "view",
      "type": "function"
    },
    {
      "inputs": [],
      "name": "H_CHARACTER_STR",
      "outputs": [
        {
          "internalType": "bytes32",
          "name": "",
          "type": "bytes32"
        }
      ],
      "stateMutability": "view",
      "type": "function"
    },
    {
      "inputs": [],
      "name": "H_DEFENSE_STR",
      "outputs": [
        {
          "internalType": "bytes32",
          "name": "",
          "type": "bytes32"
        }
      ],
      "stateMutability": "view",
      "type": "function"
    },
    {
      "inputs": [],
      "name": "H_HEALTH_STR",
      "outputs": [
        {
          "internalType": "bytes32",
          "name": "",
          "type": "bytes32"
        }
      ],
      "stateMutability": "view",
      "type": "function"
    },
    {
      "inputs": [],
      "name": "H_RARITY_OVERRIDE_STR",
      "outputs": [
        {
          "internalType": "bytes32",
          "name": "",
          "type": "bytes32"
        }
      ],
      "stateMutability": "view",
      "type": "function"
    },
    {
      "inputs": [],
      "name": "H_RARITY_STR",
      "outputs": [
        {
          "internalType": "bytes32",
          "name": "",
          "type": "bytes32"
        }
      ],
      "stateMutability": "view",
      "type": "function"
    },
    {
      "inputs": [],
      "name": "H_TYPE_STR",
      "outputs": [
        {
          "internalType": "bytes32",
          "name": "",
          "type": "bytes32"
        }
      ],
      "stateMutability": "view",
      "type": "function"
    },
    {
      "inputs": [],
      "name": "MANAGER_ROLE",
      "outputs": [
        {
          "internalType": "bytes32",
          "name": "",
          "type": "bytes32"
        }
      ],
      "stateMutability": "view",
      "type": "function"
    },
    {
      "inputs": [],
      "name": "RARITY_OVERRIDE_STR",
      "outputs": [
        {
          "internalType": "string",
          "name": "",
          "type": "string"
        }
      ],
      "stateMutability": "view",
      "type": "function"
    },
    {
      "inputs": [],
      "name": "RARITY_STR",
      "outputs": [
        {
          "internalType": "string",
          "name": "",
          "type": "string"
        }
      ],
      "stateMutability": "view",
      "type": "function"
    },
    {
      "inputs": [],
      "name": "TYPE_STR",
      "outputs": [
        {
          "internalType": "string",
          "name": "",
          "type": "string"
        }
      ],
      "stateMutability": "view",
      "type": "function"
    },
    {
      "inputs": [],
      "name": "VERSION",
      "outputs": [
        {
          "internalType": "bytes32",
          "name": "",
          "type": "bytes32"
        }
      ],
      "stateMutability": "view",
      "type": "function"
    },
    {
      "inputs": [],
      "name": "contract_id",
      "outputs": [
        {
          "internalType": "bytes32",
          "name": "",
          "type": "bytes32"
        }
      ],
      "stateMutability": "view",
      "type": "function"
    },
    {
      "inputs": [],
      "name": "contract_name",
      "outputs": [
        {
          "internalType": "string",
          "name": "",
          "type": "string"
        }
      ],
      "stateMutability": "view",
      "type": "function"
    },
    {
      "inputs": [
        {
          "internalType": "bytes32",
          "name": "role",
          "type": "bytes32"
        }
      ],
      "name": "getRoleAdmin",
      "outputs": [
        {
          "internalType": "bytes32",
          "name": "",
          "type": "bytes32"
        }
      ],
      "stateMutability": "view",
      "type": "function"
    },
    {
      "inputs": [
        {
          "internalType": "bytes32",
          "name": "role",
          "type": "bytes32"
        },
        {
          "internalType": "uint256",
          "name": "index",
          "type": "uint256"
        }
      ],
      "name": "getRoleMember",
      "outputs": [
        {
          "internalType": "address",
          "name": "",
          "type": "address"
        }
      ],
      "stateMutability": "view",
      "type": "function"
    },
    {
      "inputs": [
        {
          "internalType": "bytes32",
          "name": "role",
          "type": "bytes32"
        }
      ],
      "name": "getRoleMemberCount",
      "outputs": [
        {
          "internalType": "uint256",
          "name": "",
          "type": "uint256"
        }
      ],
      "stateMutability": "view",
      "type": "function"
    },
    {
      "inputs": [
        {
          "internalType": "bytes32",
          "name": "role",
          "type": "bytes32"
        },
        {
          "internalType": "address",
          "name": "account",
          "type": "address"
        }
      ],
      "name": "grantRole",
      "outputs": [],
      "stateMutability": "nonpayable",
      "type": "function"
    },
    {
      "inputs": [
        {
          "internalType": "bytes32",
          "name": "role",
          "type": "bytes32"
        },
        {
          "internalType": "address",
          "name": "account",
          "type": "address"
        }
      ],
      "name": "hasRole",
      "outputs": [
        {
          "internalType": "bool",
          "name": "",
          "type": "bool"
        }
      ],
      "stateMutability": "view",
      "type": "function"
    },
    {
      "inputs": [],
      "name": "manager",
      "outputs": [
        {
          "internalType": "address",
          "name": "",
          "type": "address"
        }
      ],
      "stateMutability": "view",
      "type": "function"
    },
    {
      "inputs": [
        {
          "internalType": "address",
          "name": "_manager",
          "type": "address"
        }
      ],
      "name": "onAdd",
      "outputs": [],
      "stateMutability": "nonpayable",
      "type": "function"
    },
    {
      "inputs": [],
      "name": "onRemoved",
      "outputs": [],
      "stateMutability": "nonpayable",
      "type": "function"
    },
    {
      "inputs": [
        {
          "internalType": "address",
          "name": "newInstance",
          "type": "address"
        }
      ],
      "name": "onReplaced",
      "outputs": [],
      "stateMutability": "nonpayable",
      "type": "function"
    },
    {
      "inputs": [
        {
          "internalType": "address",
          "name": "oldInstance",
          "type": "address"
        },
        {
          "internalType": "address",
          "name": "_manager",
          "type": "address"
        }
      ],
      "name": "onUpdate",
      "outputs": [],
      "stateMutability": "nonpayable",
      "type": "function"
    },
    {
      "inputs": [],
      "name": "owner",
      "outputs": [
        {
          "internalType": "address",
          "name": "",
          "type": "address"
        }
      ],
      "stateMutability": "view",
      "type": "function"
    },
    {
      "inputs": [],
      "name": "renounceOwnership",
      "outputs": [],
      "stateMutability": "nonpayable",
      "type": "function"
    },
    {
      "inputs": [
        {
          "internalType": "bytes32",
          "name": "role",
          "type": "bytes32"
        },
        {
          "internalType": "address",
          "name": "account",
          "type": "address"
        }
      ],
      "name": "renounceRole",
      "outputs": [],
      "stateMutability": "nonpayable",
      "type": "function"
    },
    {
      "inputs": [
        {
          "internalType": "bytes32",
          "name": "role",
          "type": "bytes32"
        },
        {
          "internalType": "address",
          "name": "account",
          "type": "address"
        }
      ],
      "name": "revokeRole",
      "outputs": [],
      "stateMutability": "nonpayable",
      "type": "function"
    },
    {
      "inputs": [],
      "name": "statsDistrib",
      "outputs": [
        {
          "internalType": "address",
          "name": "",
          "type": "address"
        }
      ],
      "stateMutability": "view",
      "type": "function"
    },
    {
      "inputs": [
        {
          "internalType": "bytes4",
          "name": "interfaceId",
          "type": "bytes4"
        }
      ],
      "name": "supportsInterface",
      "outputs": [
        {
          "internalType": "bool",
          "name": "",
          "type": "bool"
        }
      ],
      "stateMutability": "view",
      "type": "function"
    },
    {
      "inputs": [
        {
          "internalType": "address",
          "name": "newManager",
          "type": "address"
        }
      ],
      "name": "switchManager",
      "outputs": [],
      "stateMutability": "nonpayable",
      "type": "function"
    },
    {
      "inputs": [
        {
          "internalType": "address",
          "name": "newOwner",
          "type": "address"
        }
      ],
      "name": "transferOwnership",
      "outputs": [],
      "stateMutability": "nonpayable",
      "type": "function"
    },
    {
      "inputs": [
        {
          "internalType": "address",
          "name": "newOwner",
          "type": "address"
        }
      ],
      "name": "updateOwnership",
      "outputs": [],
      "stateMutability": "nonpayable",
      "type": "function"
    },
    {
      "inputs": [],
      "name": "getName",
      "outputs": [
        {
          "internalType": "string",
          "name": "",
          "type": "string"
        }
      ],
      "stateMutability": "view",
      "type": "function"
    },
    {
      "inputs": [],
      "name": "getId",
      "outputs": [
        {
          "internalType": "bytes32",
          "name": "",
          "type": "bytes32"
        }
      ],
      "stateMutability": "view",
      "type": "function"
    },
    {
      "inputs": [],
      "name": "tokenTypeCode",
      "outputs": [
        {
          "internalType": "bytes32",
          "name": "",
          "type": "bytes32"
        }
      ],
      "stateMutability": "pure",
      "type": "function"
    },
    {
      "inputs": [
        {
          "internalType": "bytes32",
          "name": "hname",
          "type": "bytes32"
        },
        {
          "internalType": "address",
          "name": "contractInstance",
          "type": "address"
        },
        {
          "internalType": "bool",
          "name": "isNew",
          "type": "bool"
        }
      ],
      "name": "onListenAdded",
      "outputs": [],
      "stateMutability": "nonpayable",
      "type": "function"
    },
    {
      "inputs": [
        {
          "internalType": "bytes32",
          "name": "hname",
          "type": "bytes32"
        }
      ],
      "name": "onListenRemoved",
      "outputs": [],
      "stateMutability": "nonpayable",
      "type": "function"
    },
    {
      "inputs": [
        {
          "internalType": "address",
          "name": "_statsDistrib",
          "type": "address"
        }
      ],
      "name": "linkStatsDistrib",
      "outputs": [],
      "stateMutability": "nonpayable",
      "type": "function"
    },
    {
      "inputs": [
        {
          "internalType": "uint256",
          "name": "id",
          "type": "uint256"
        },
        {
          "internalType": "enum Util.CardRarity",
          "name": "rarity",
          "type": "uint8"
        },
        {
          "internalType": "enum Util.CardType",
          "name": "c_type",
          "type": "uint8"
        }
      ],
      "name": "deriveCharacter",
      "outputs": [
        {
          "internalType": "uint256",
          "name": "",
          "type": "uint256"
        }
      ],
      "stateMutability": "view",
      "type": "function"
    },
    {
      "inputs": [
        {
          "internalType": "uint256",
          "name": "character",
          "type": "uint256"
        }
      ],
      "name": "deriveCharacterName",
      "outputs": [
        {
          "internalType": "string",
          "name": "",
          "type": "string"
        }
      ],
      "stateMutability": "view",
      "type": "function"
    },
    {
      "inputs": [
        {
          "internalType": "bytes32",
          "name": "nft_type",
          "type": "bytes32"
        },
        {
          "internalType": "uint256",
          "name": "id",
          "type": "uint256"
        },
        {
          "internalType": "string",
          "name": "name",
          "type": "string"
        }
      ],
      "name": "getStatInt",
      "outputs": [
        {
          "internalType": "uint256",
          "name": "",
          "type": "uint256"
        }
      ],
      "stateMutability": "view",
      "type": "function"
    },
    {
      "inputs": [
        {
          "internalType": "bytes32",
          "name": "nft_type",
          "type": "bytes32"
        },
        {
          "internalType": "uint256",
          "name": "id",
          "type": "uint256"
        },
        {
          "internalType": "string",
          "name": "name",
          "type": "string"
        }
      ],
      "name": "getStatString",
      "outputs": [
        {
          "internalType": "string",
          "name": "",
          "type": "string"
        }
      ],
      "stateMutability": "view",
      "type": "function"
    },
    {
      "inputs": [
        {
          "internalType": "bytes32",
          "name": "nft_type",
          "type": "bytes32"
        },
        {
          "internalType": "uint256",
          "name": "id",
          "type": "uint256"
        },
        {
          "internalType": "string",
          "name": "name",
          "type": "string"
        }
      ],
      "name": "getStatByte32",
      "outputs": [
        {
          "internalType": "bytes32",
          "name": "",
          "type": "bytes32"
        }
      ],
      "stateMutability": "view",
      "type": "function"
    },
    {
      "inputs": [
        {
          "internalType": "bytes32",
          "name": "nft_type",
          "type": "bytes32"
        },
        {
          "internalType": "uint256",
          "name": "id",
          "type": "uint256"
        },
        {
          "internalType": "string",
          "name": "name",
          "type": "string"
        }
      ],
      "name": "getStatBool",
      "outputs": [
        {
          "internalType": "bool",
          "name": "",
          "type": "bool"
        }
      ],
      "stateMutability": "view",
      "type": "function"
    },
    {
      "inputs": [
        {
          "internalType": "bytes32",
          "name": "nft_type",
          "type": "bytes32"
        }
      ],
      "name": "stats",
      "outputs": [
        {
          "components": [
            {
              "internalType": "string",
              "name": "name",
              "type": "string"
            },
            {
              "internalType": "enum Util.StatType",
              "name": "statType",
              "type": "uint8"
            },
            {
              "internalType": "bool",
              "name": "is_mutable",
              "type": "bool"
            }
          ],
          "internalType": "struct Util.Stat[]",
          "name": "",
          "type": "tuple[]"
        }
      ],
      "stateMutability": "pure",
      "type": "function"
    }
  ],
  "bytecode": "0x60c0604052600b60808190526a447261676f6e537461747360a81b60a09081526200002e916004919062000ca2565b506040518060400160405280600b81526020016a447261676f6e537461747360a81b81525060405160200162000065919062000e4e565b6040516020818303038152906040528051906020012060055560405180610820016040528060405180604001604052806008815260200167119a5c9956985c9960c21b815250815260200160405180604001604052806008815260200167119a5c9956985c9960c21b815250815260200160405180604001604052806009815260200168119b185c9bd6985c9960ba1b815250815260200160405180604001604052806009815260200168119b185c9bd6985c9960ba1b815250815260200160405180604001604052806009815260200168119b185c9bd6985c9960ba1b815250815260200160405180604001604052806009815260200168115b58995c96985c9960ba1b815250815260200160405180604001604052806009815260200168115b58995c96985c9960ba1b815250815260200160405180604001604052806009815260200168115b58995c96985c9960ba1b815250815260200160405180604001604052806009815260200168466c616d656272796f60b81b815250815260200160405180604001604052806009815260200168466c616d656272796f60b81b815250815260200160405180604001604052806009815260200168466c616d656272796f60b81b815250815260200160405180604001604052806009815260200168466c616d656272796f60b81b815250815260200160405180604001604052806009815260200168466c616d656272796f60b81b815250815260200160405180604001604052806007815260200166109b1a56985c9960ca1b815250815260200160405180604001604052806007815260200166109b1a56985c9960ca1b815250815260200160405180604001604052806007815260200166119c9bd6985c9960ca1b815250815260200160405180604001604052806007815260200166119c9bd6985c9960ca1b815250815260200160405180604001604052806007815260200166119c9bd6985c9960ca1b81525081526020016040518060400160405280600a81526020016910da1a5b1b1856985c9960b21b81525081526020016040518060400160405280600a81526020016910da1a5b1b1856985c9960b21b81525081526020016040518060400160405280600a81526020016910da1a5b1b1856985c9960b21b815250815260200160405180604001604052806008815260200167436f6f6c6272796f60c01b815250815260200160405180604001604052806008815260200167436f6f6c6272796f60c01b815250815260200160405180604001604052806008815260200167436f6f6c6272796f60c01b815250815260200160405180604001604052806008815260200167436f6f6c6272796f60c01b815250815260200160405180604001604052806008815260200167436f6f6c6272796f60c01b815250815260200160405180604001604052806009815260200168119b1bdc9856985c9960ba1b815250815260200160405180604001604052806009815260200168119b1bdc9856985c9960ba1b815250815260200160405180604001604052806008815260200167109b1bdcd6985c9960c21b815250815260200160405180604001604052806008815260200167109b1bdcd6985c9960c21b815250815260200160405180604001604052806008815260200167109b1bdcd6985c9960c21b81525081526020016040518060400160405280600b81526020016a14dc1c9bdd5d1e56985c9960aa1b81525081526020016040518060400160405280600b81526020016a14dc1c9bdd5d1e56985c9960aa1b81525081526020016040518060400160405280600b81526020016a14dc1c9bdd5d1e56985c9960aa1b815250815260200160405180604001604052806008815260200167536565646272796f60c01b815250815260200160405180604001604052806008815260200167536565646272796f60c01b815250815260200160405180604001604052806008815260200167536565646272796f60c01b815250815260200160405180604001604052806008815260200167536565646272796f60c01b815250815260200160405180604001604052806008815260200167536565646272796f60c01b81525081526020016040518060400160405280600a815260200169131958dd1c9856985c9960b21b81525081526020016040518060400160405280600a815260200169131958dd1c9856985c9960b21b815250815260200160405180604001604052806007815260200166159bdb16985c9960ca1b815250815260200160405180604001604052806007815260200166159bdb16985c9960ca1b815250815260200160405180604001604052806007815260200166159bdb16985c9960ca1b81525081526020016040518060400160405280600a81526020016914dc185c9ade56985c9960b21b81525081526020016040518060400160405280600a81526020016914dc185c9ade56985c9960b21b81525081526020016040518060400160405280600a81526020016914dc185c9ade56985c9960b21b8152508152602001604051806040016040528060078152602001665a61706272796f60c81b8152508152602001604051806040016040528060078152602001665a61706272796f60c81b8152508152602001604051806040016040528060078152602001665a61706272796f60c81b8152508152602001604051806040016040528060078152602001665a61706272796f60c81b8152508152602001604051806040016040528060078152602001665a61706272796f60c81b815250815260200160405180604001604052806009815260200168121e591c9856985c9960ba1b815250815260200160405180604001604052806009815260200168121e591c9856985c9960ba1b815250815260200160405180604001604052806007815260200166105c5856985c9960ca1b815250815260200160405180604001604052806007815260200166105c5856985c9960ca1b815250815260200160405180604001604052806007815260200166105c5856985c9960ca1b81525081526020016040518060400160405280600a815260200169111c9a5c1b1856985c9960b21b81525081526020016040518060400160405280600a815260200169111c9a5c1b1856985c9960b21b81525081526020016040518060400160405280600a815260200169111c9a5c1b1856985c9960b21b81525081526020016040518060400160405280600a81526020016953706c6173686272796f60b01b81525081526020016040518060400160405280600a81526020016953706c6173686272796f60b01b81525081526020016040518060400160405280600a81526020016953706c6173686272796f60b01b81525081526020016040518060400160405280600a81526020016953706c6173686272796f60b01b81525081526020016040518060400160405280600a81526020016953706c6173686272796f60b01b815250815250600690604162000a6892919062000d31565b50604080518082019091526001808252602082015262000a8d90600790600262000d91565b50604080518082019091526001808252602082015262000ab290600890600262000d91565b5060408051608081018252600180825260208201819052918101829052606081019190915262000ae790600990600462000d91565b5034801562000af557600080fd5b5062000b013362000b14565b62000b0e60003362000b64565b62000ec9565b600080546001600160a01b038381166001600160a01b0319831681178455604051919092169283917f8be0079c531659141344cd1fd0a4f28419497f9722a3daafe3b4186f6b6457e09190a35050565b62000b7b828262000ba760201b62001f3a1760201c565b600082815260026020908152604090912062000ba291839062001fa562000c30821b17901c565b505050565b60008281526001602090815260408083206001600160a01b038516845290915290205460ff1662000c2c5760008281526001602081815260408084206001600160a01b0386168086529252808420805460ff19169093179092559051339285917f2f8788117e7eff1d82e926ec794901d17c78024a50270940304540a733656f0d9190a45b5050565b600062000c47836001600160a01b03841662000c50565b90505b92915050565b600081815260018301602052604081205462000c995750815460018181018455600084815260208082209093018490558454848252828601909352604090209190915562000c4a565b50600062000c4a565b82805462000cb09062000e8c565b90600052602060002090601f01602090048101928262000cd4576000855562000d1f565b82601f1062000cef57805160ff191683800117855562000d1f565b8280016001018555821562000d1f579182015b8281111562000d1f57825182559160200191906001019062000d02565b5062000d2d92915062000dd4565b5090565b82805482825590600052602060002090810192821562000d83579160200282015b8281111562000d83578251805162000d7291849160209091019062000ca2565b509160200191906001019062000d52565b5062000d2d92915062000deb565b82805482825590600052602060002090810192821562000d1f579160200282015b8281111562000d1f578251829060ff1690559160200191906001019062000db2565b5b8082111562000d2d576000815560010162000dd5565b8082111562000d2d57600062000e02828262000e0c565b5060010162000deb565b50805462000e1a9062000e8c565b6000825580601f1062000e2b575050565b601f01602090049060005260206000209081019062000e4b919062000dd4565b50565b6000825160005b8181101562000e71576020818601810151858301520162000e55565b8181111562000e81576000828501525b509190910192915050565b600181811c9082168062000ea157607f821691505b6020821081141562000ec357634e487b7160e01b600052602260045260246000fd5b50919050565b61333e8062000ed96000396000f3fe608060405234801561001057600080fd5b506004361061043e5760003560e01c80638840891e11610236578063af876b7a1161013b578063d547741f116100c3578063ec87621c11610087578063ec87621c14610b6c578063f170b6c014610b81578063f2fde38b14610b89578063fa97af9014610b9c578063ffa1ad7414610bc157600080fd5b8063d547741f14610ae1578063d947969214610af4578063d9fb28fc14610afc578063dc358f9614610b1f578063e0195c0b14610b4557600080fd5b8063c69c95791161010a578063c69c957914610a5a578063c7a6ffc914610a6d578063ca15c87314610a93578063d1be5e9b14610aa6578063d4697a4714610ace57600080fd5b8063af876b7a146109d2578063b2c5be73146109e5578063b51e6dc714610a0e578063b92654e114610a3357600080fd5b8063a1b05aa2116101be578063a9e68c941161018d578063a9e68c9414610932578063abc26faf1461095b578063ade1ca7e14610963578063ae1777061461098c578063ae97568c146109b257600080fd5b8063a1b05aa2146108d2578063a217fddf146108da578063a4c87caf146108e2578063a7ae92401461090857600080fd5b806391a7f8b01161020557806391a7f8b01461084257806391d1485414610867578063920407061461087a5780639463e04514610882578063967dfc01146108aa57600080fd5b80638840891e146107e557806388fee7c2146107f85780638da5cb5b1461081e5780639010d07c1461082f57600080fd5b80633ad32d16116103475780635f560e83116102cf5780637d325d27116102935780637d325d27146107415780637ec4483b1461076a57806380c30bd91461077d5780638179b906146107aa57806382913d82146107d257600080fd5b80635f560e83146106d45780636b2bf27f146106f55780636f57cb6214610708578063715018a61461071057806376eaa7881461071857600080fd5b80634cb1f92b116103165780634cb1f92b1461068a578063519f78431461069d57806354b10da1146106a55780635d1ca631146106b95780635df11291146106c157600080fd5b80633ad32d1614610648578063450a52d014610651578063481c6a75146106645780634ca7300c1461067757600080fd5b8063247a2f05116103ca5780632d3e5030116103995780632d3e5030146105bc5780632f2ff15d146105e75780632f34f36f146105fa57806330044d421461062257806336568abe1461063557600080fd5b8063247a2f0514610543578063248a9ca31461056957806327eb14c61461058d57806329b88a4a146105b457600080fd5b806316f28d241161041157806316f28d24146104dc57806317d7de7c146104ef57806319cd4c3d146104f75780631a6f04f3146105255780631d0b1fbb1461052d57600080fd5b806301ffc9a7146104435780630447a2cd1461046b5780630dd5b17814610480578063129a3182146104b5575b600080fd5b610456610451366004612b63565b610bc9565b60405190151581526020015b60405180910390f35b61047e610479366004612ba9565b610bf4565b005b6104a860405180604001604052806009815260200168119b185c9bd6985c9960ba1b81525081565b6040516104629190612c38565b6104a860405180604001604052806008815260200167536565646272796f60c01b81525081565b61047e6104ea366004612c4b565b610c02565b6104a8610c9f565b6104a86040518060400160405280600f81526020016e7261726974795f6f7665727269646560881b81525081565b61047e610d31565b610535610d3b565b604051908152602001610462565b6104a860405180604001604052806007815260200166119c9bd6985c9960ca1b81525081565b610535610577366004612c90565b6000908152600160208190526040909120015490565b6104a860405180604001604052806008815260200167109b1bdcd6985c9960c21b81525081565b610535610d86565b600a546105cf906001600160a01b031681565b6040516001600160a01b039091168152602001610462565b61047e6105f5366004612ca9565b610db5565b6104a860405180604001604052806009815260200168119b1bdc9856985c9960ba1b81525081565b610535610630366004612ccc565b610ddc565b61047e610643366004612ca9565b6110d6565b61053560055481565b61045661065f366004612ccc565b611150565b6003546105cf906001600160a01b031681565b6104a8610685366004612c90565b611203565b6104a8610698366004612c90565b6112b2565b61053561135e565b6000805160206132c9833981519152610535565b600554610535565b61047e6106cf366004612d4c565b61138e565b6106e76106e2366004612ccc565b61139a565b604051610462929190612d67565b61047e610703366004612d4c565b6114a4565b6105356114ad565b61047e6114e4565b6104a86040518060400160405280600a815260200169131958dd1c9856985c9960b21b81525081565b6104a86040518060400160405280600a81526020016910da1a5b1b1856985c9960b21b81525081565b61047e610778366004612d4c565b611518565b6104a86040518060400160405280600e81526020016d6368617261637465725f6e616d6560901b81525081565b6104a860405180604001604052806009815260200168466c616d656272796f60b81b81525081565b6105356107e0366004612ccc565b61154b565b61047e6107f3366004612d4c565b61157a565b6104a8604051806040016040528060078152602001665a61706272796f60c81b81525081565b6000546001600160a01b03166105cf565b6105cf61083d366004612d96565b611583565b6104a86040518060400160405280600681526020016572617269747960d01b81525081565b610456610875366004612ca9565b6115a2565b6105356115cd565b6104a86040518060400160405280600981526020016831b430b930b1ba32b960b91b81525081565b6104a860405180604001604052806009815260200168115b58995c96985c9960ba1b81525081565b6105356115fa565b610535600081565b6104a860405180604001604052806007815260200166109b1a56985c9960ca1b81525081565b6104a86040518060400160405280600b81526020016a14dc1c9bdd5d1e56985c9960aa1b81525081565b6104a86040518060400160405280600a81526020016953706c6173686272796f60b01b81525081565b610535611629565b6104a86040518060400160405280600a81526020016914dc185c9ade56985c9960b21b81525081565b6104a860405180604001604052806007815260200166105c5856985c9960ca1b81525081565b6109c56109c0366004612c90565b611661565b6040516104629190612dce565b6105356109e0366004612e7d565b6119a9565b6104a86040518060400160405280600a815260200169111c9a5c1b1856985c9960b21b81525081565b6104a86040518060400160405280600681526020016561747461636b60d01b81525081565b6104a860405180604001604052806008815260200167119a5c9956985c9960c21b81525081565b61047e610a68366004612d4c565b611d6d565b6104a860405180604001604052806007815260200166646566656e736560c81b81525081565b610535610aa1366004612c90565b611d76565b6104a860405180604001604052806009815260200168121e591c9856985c9960ba1b81525081565b61047e610adc366004612c90565b611d8d565b61047e610aef366004612ca9565b611e1d565b6104a8611e44565b6104a8604051806040016040528060048152602001637479706560e01b81525081565b6104a860405180604001604052806007815260200166159bdb16985c9960ca1b81525081565b6104a860405180604001604052806008815260200167436f6f6c6272796f60c01b81525081565b6105356000805160206132e983398151915281565b610535611e51565b61047e610b97366004612d4c565b611e80565b6104a8604051806040016040528060068152602001650d0cac2d8e8d60d31b81525081565b610535611f18565b60006001600160e01b0319821663ee7ed59960e01b1480610bee5750610bee82611fba565b92915050565b610bfe8282611fdf565b5050565b610c1a6000805160206132e9833981519152336115a2565b610c3f5760405162461bcd60e51b8152600401610c3690612eb4565b60405180910390fd5b6040518060400160405280600c81526020016b29ba30ba39a234b9ba3934b160a11b815250604051602001610c749190612f11565b60405160208183030381529060405280519060200120831415610c9a57610c9a82612072565b505050565b606060048054610cae90612f2d565b80601f0160208091040260200160405190810160405280929190818152602001828054610cda90612f2d565b8015610d275780601f10610cfc57610100808354040283529160200191610d27565b820191906000526020600020905b815481529060010190602001808311610d0a57829003601f168201915b5050505050905090565b610d396120c7565b565b6040518060400160405280600981526020016831b430b930b1ba32b960b91b815250604051602001610d6d9190612f11565b6040516020818303038152906040528051906020012081565b6040518060400160405280600681526020016561747461636b60d01b815250604051602001610d6d9190612f11565b60008281526001602081905260409091200154610dd28133612136565b610c9a838361219a565b60006000805160206132c98339815191528514610e0b5760405162461bcd60e51b8152600401610c3690612f68565b60008383604051602001610e20929190612f9f565b60408051601f1981840301815282825280516020918201208383018352600684526572617269747960d01b848301529151919350610e5f929101612f11565b60405160208183030381529060405280519060200120811415610e9e57610e85856121bc565b6004811115610e9657610e96612db8565b9150506110ce565b604051806040016040528060048152602001637479706560e01b815250604051602001610ecb9190612f11565b60405160208183030381529060405280519060200120811415610ef157610e85856123b5565b6040518060400160405280600981526020016831b430b930b1ba32b960b91b815250604051602001610f239190612f11565b60405160208183030381529060405280519060200120811415610f9d5760405162461bcd60e51b815260206004820152602c60248201527f447261676f6e53746174733a2063616c6c20646572697665436861726163746560448201526b72206578706c696369746c7960a01b6064820152608401610c36565b604051806040016040528060068152602001650d0cac2d8e8d60d31b815250604051602001610fcc9190612f11565b6040516020818303038152906040528051906020012081148061103257506040518060400160405280600681526020016561747461636b60d01b8152506040516020016110199190612f11565b6040516020818303038152906040528051906020012081145b80611081575060405180604001604052806007815260200166646566656e736560c81b8152506040516020016110689190612f11565b6040516020818303038152906040528051906020012081145b1561109357610e966001600019612fc5565b60405162461bcd60e51b815260206004820152601060248201526f155b9cdd5c1c1bdc9d1959081cdd185d60821b6044820152606401610c36565b949350505050565b6001600160a01b03811633146111465760405162461bcd60e51b815260206004820152602f60248201527f416363657373436f6e74726f6c3a2063616e206f6e6c792072656e6f756e636560448201526e103937b632b9903337b91039b2b63360891b6064820152608401610c36565b610bfe82826124f5565b60006000805160206132c9833981519152851461117f5760405162461bcd60e51b8152600401610c3690612f68565b60008383604051602001611194929190612f9f565b60408051601f1981840301815282825280516020918201208383018352600f84526e7261726974795f6f7665727269646560881b8483015291519193506111dc929101612f11565b604051602081830303815290604052805190602001208114156110935760009150506110ce565b60606006828154811061121857611218612fdc565b90600052602060002001805461122d90612f2d565b80601f016020809104026020016040519081016040528092919081815260200182805461125990612f2d565b80156112a65780601f1061127b576101008083540402835291602001916112a6565b820191906000526020600020905b81548152906001019060200180831161128957829003601f168201915b50505050509050919050565b600681815481106112c257600080fd5b9060005260206000200160009150905080546112dd90612f2d565b80601f016020809104026020016040519081016040528092919081815260200182805461130990612f2d565b80156113565780601f1061132b57610100808354040283529160200191611356565b820191906000526020600020905b81548152906001019060200180831161133957829003601f168201915b505050505081565b60405180604001604052806007815260200166646566656e736560c81b815250604051602001610d6d9190612f11565b61139781612517565b50565b3660006000805160206132c983398151915286146113ca5760405162461bcd60e51b8152600401610c3690612f68565b600084846040516020016113df929190612f9f565b60408051601f1981840301815282825280516020918201208383018352600e84526d6368617261637465725f6e616d6560901b848301529151919350611426929101612f11565b604051602081830303815290604052805190602001208114156110935760405162461bcd60e51b815260206004820152603060248201527f447261676f6e53746174733a2063616c6c20646572697665436861726163746560448201526f724e616d65206578706c696369746c7960801b6064820152608401610c36565b611397816125cf565b6040518060400160405280600e81526020016d6368617261637465725f6e616d6560901b815250604051602001610d6d9190612f11565b6000546001600160a01b0316331461150e5760405162461bcd60e51b8152600401610c3690612ff2565b610d396000612645565b6000546001600160a01b031633146115425760405162461bcd60e51b8152600401610c3690612ff2565b61139781612072565b60006000805160206132c983398151915285146110935760405162461bcd60e51b8152600401610c3690612f68565b61139781612695565b600082815260026020526040812061159b9083612717565b9392505050565b60009182526001602090815260408084206001600160a01b0393909316845291905290205460ff1690565b604051806040016040528060048152602001637479706560e01b815250604051602001610d6d9190612f11565b604051806040016040528060068152602001650d0cac2d8e8d60d31b815250604051602001610d6d9190612f11565b6040518060400160405280600f81526020016e7261726974795f6f7665727269646560881b815250604051602001610d6d9190612f11565b60606000805160206132c983398151915282146116905760405162461bcd60e51b8152600401610c3690612f68565b6040805160088082526101208201909252600091816020015b60408051606080820183528152600060208083018290529282015282526000199092019101816116a95750506040805160a0810182526006606082019081526572617269747960d01b6080830152815260006020820181905291810182905282519293509183919061171d5761171d612fdc565b6020908102919091018101919091526040805160a08101909152600660608201908152650d0cac2d8e8d60d31b6080830152815290810160008152602001600115158152508160018151811061177557611775612fdc565b6020908102919091018101919091526040805160a08101909152600460608201908152637479706560e01b608083015281529081016000815260200160001515815250816002815181106117cb576117cb612fdc565b6020908102919091018101919091526040805160a081019091526006606082019081526561747461636b60d01b6080830152815290810160008152602001600115158152508160038151811061182357611823612fdc565b6020908102919091018101919091526040805160a0810190915260076060820190815266646566656e736560c81b6080830152815290810160008152602001600115158152508160048151811061187c5761187c612fdc565b6020908102919091018101919091526040805160a08101909152600f606082019081526e7261726974795f6f7665727269646560881b608083015281529081016003815260200160011515815250816005815181106118dd576118dd612fdc565b6020908102919091018101919091526040805160a081019091526009606082019081526831b430b930b1ba32b960b91b6080830152815290810160008152602001600015158152508160068151811061193857611938612fdc565b6020908102919091018101919091526040805160a08101909152600e606082019081526d6368617261637465725f6e616d6560901b6080830152815290810160018152602001600015158152508160078151811061199857611998612fdc565b602090810291909101015292915050565b600080808360048111156119bf576119bf612db8565b14156119c9575060005b60018360048111156119dd576119dd612db8565b14156119e75750600d5b60028360048111156119fb576119fb612db8565b1415611a055750601a5b6003836004811115611a1957611a19612db8565b1415611a23575060275b6004836004811115611a3757611a37612db8565b1415611a41575060345b6000846004811115611a5557611a55612db8565b1415611a655760ff16905061159b565b6001846004811115611a7957611a79612db8565b1415611a9557611a8a81600161303d565b60ff1691505061159b565b6000856040518060400160405280600981526020016831b430b930b1ba32b960b91b815250604051602001611acb929190613062565b60408051601f19818403018152919052805160209091012090506002856004811115611af957611af9612db8565b1415611bad576040516375233c2760e01b815273__Util__________________________________906375233c2790611b3c90849060079060039060040161307b565b60206040518083038186803b158015611b5457600080fd5b505af4158015611b68573d6000803e3d6000fd5b505050506040513d601f19601f82011682018060405250810190611b8c91906130d7565b611b9783600261303d565b60ff16611ba491906130f0565b9250505061159b565b6003856004811115611bc157611bc1612db8565b1415611c5f576040516375233c2760e01b815273__Util__________________________________906375233c2790611c0490849060089060039060040161307b565b60206040518083038186803b158015611c1c57600080fd5b505af4158015611c30573d6000803e3d6000fd5b505050506040513d601f19601f82011682018060405250810190611c5491906130d7565b611b9783600561303d565b6004856004811115611c7357611c73612db8565b1415611d11576040516375233c2760e01b815273__Util__________________________________906375233c2790611cb690849060099060059060040161307b565b60206040518083038186803b158015611cce57600080fd5b505af4158015611ce2573d6000803e3d6000fd5b505050506040513d601f19601f82011682018060405250810190611d0691906130d7565b611b9783600861303d565b60405162461bcd60e51b815260206004820152602b60248201527f447261676f6e53746174733a204661696c656420746f2064657269766520746860448201526a329031b430b930b1ba32b960a91b6064820152608401610c36565b61139781612723565b6000818152600260205260408120610bee906127a0565b611da56000805160206132e9833981519152336115a2565b611dc15760405162461bcd60e51b8152600401610c3690612eb4565b6040518060400160405280600c81526020016b29ba30ba39a234b9ba3934b160a11b815250604051602001611df69190612f11565b60405160208183030381529060405280519060200120811415611397576113976000612072565b60008281526001602081905260409091200154611e3a8133612136565b610c9a83836124f5565b600480546112dd90612f2d565b6040518060400160405280600681526020016572617269747960d01b815250604051602001610d6d9190612f11565b6000546001600160a01b03163314611eaa5760405162461bcd60e51b8152600401610c3690612ff2565b6001600160a01b038116611f0f5760405162461bcd60e51b815260206004820152602660248201527f4f776e61626c653a206e6577206f776e657220697320746865207a65726f206160448201526564647265737360d01b6064820152608401610c36565b61139781612645565b6040516d447261676f6e53746174732d763160901b6020820152602e01610d6d565b611f4482826115a2565b610bfe5760008281526001602081815260408084206001600160a01b0386168086529252808420805460ff19169093179092559051339285917f2f8788117e7eff1d82e926ec794901d17c78024a50270940304540a733656f0d9190a45050565b600061159b836001600160a01b0384166127aa565b60006001600160e01b03198216635a05180f60e01b1480610bee5750610bee826127f9565b611ff76000805160206132e9833981519152336115a2565b6120135760405162461bcd60e51b8152600401610c3690612eb4565b600380546001600160a01b0319166001600160a01b0383811691821790925560408051928516835260208301919091527ff6515f2a6d531f16723c1e578303b7d74152bf8c0fa3bee828700a3d4706da8d910160405180910390a15050565b600a80546001600160a01b0319166001600160a01b0383169081179091556040519081527fd6ebeed44b8b1f3dea0f0065729e759c6e0a54fff5e3457d639ab0cb4b164307906020015b60405180910390a150565b6120df6000805160206132e9833981519152336115a2565b6120fb5760405162461bcd60e51b8152600401610c3690612eb4565b600380546001600160a01b03191690556040517f9a9a74cf290a994f69a718e8557deb1dd65135268f40e660cecddf675f5dd51490600090a1565b61214082826115a2565b610bfe57612158816001600160a01b0316601461282e565b61216383602061282e565b604051602001612174929190613108565b60408051601f198184030181529082905262461bcd60e51b8252610c3691600401612c38565b6121a48282611f3a565b6000828152600260205260409020610c9a9082611fa5565b600080826040518060400160405280600681526020016572617269747960d01b8152506040516020016121f0929190613062565b6040516020818303038152906040528051906020012060001c905073__Util__________________________________6375233c2782600a60009054906101000a90046001600160a01b03166001600160a01b031663a9e790c86040518163ffffffff1660e01b815260040160006040518083038186803b15801561227457600080fd5b505afa158015612288573d6000803e3d6000fd5b505050506040513d6000823e601f3d908101601f191682016040526122b0919081019061317d565b600a60009054906101000a90046001600160a01b03166001600160a01b0316639f1349ed6040518163ffffffff1660e01b815260040160206040518083038186803b1580156122fe57600080fd5b505afa158015612312573d6000803e3d6000fd5b505050506040513d601f19601f8201168201806040525081019061233691906130d7565b6040518463ffffffff1660e01b81526004016123549392919061323b565b60206040518083038186803b15801561236c57600080fd5b505af4158015612380573d6000803e3d6000fd5b505050506040513d601f19601f820116820180604052508101906123a491906130d7565b600481111561159b5761159b612db8565b60008082604051806040016040528060048152602001637479706560e01b8152506040516020016123e7929190613062565b6040516020818303038152906040528051906020012060001c905073__Util__________________________________6375233c2782600a60009054906101000a90046001600160a01b03166001600160a01b031663221cf8f86040518163ffffffff1660e01b815260040160006040518083038186803b15801561246b57600080fd5b505afa15801561247f573d6000803e3d6000fd5b505050506040513d6000823e601f3d908101601f191682016040526124a7919081019061317d565b600a60009054906101000a90046001600160a01b03166001600160a01b031663d710216e6040518163ffffffff1660e01b815260040160206040518083038186803b1580156122fe57600080fd5b6124ff82826129ca565b6000828152600260205260409020610c9a9082612a31565b61252f6000805160206132e9833981519152336115a2565b61254b5760405162461bcd60e51b8152600401610c3690612eb4565b600380546001600160a01b0319166001600160a01b03831617905561257e6000805160206132e983398151915282610db5565b6125966000805160206132e983398151915233611e1d565b6040516001600160a01b03821681527f8eb47098f9568be754f51d21a870c8091ee0242cf97418db00927326d0e6ffcf906020016120bc565b6125e76000805160206132e9833981519152336115a2565b6126035760405162461bcd60e51b8152600401610c3690612eb4565b61260c81611e80565b6040516001600160a01b03821681527ff2addf7f813887cf0fdd82b58fcc379ab2301e95c90b41a8cf2e5401914689c9906020016120bc565b600080546001600160a01b038381166001600160a01b0319831681178455604051919092169283917f8be0079c531659141344cd1fd0a4f28419497f9722a3daafe3b4186f6b6457e09190a35050565b6126ad6000805160206132e9833981519152336115a2565b6126c95760405162461bcd60e51b8152600401610c3690612eb4565b600380546001600160a01b0319166001600160a01b0383169081179091556040519081527f89c66952b48f3e96bf1d8ba1b63189520fd988a6979b8b740bd5c5d8dc53e205906020016120bc565b600061159b8383612a46565b61273b6000805160206132e9833981519152336115a2565b6127575760405162461bcd60e51b8152600401610c3690612eb4565b600380546001600160a01b03191690556040516001600160a01b03821681527f85a56ff958486f55dd742819603a46ba6233d3b24e6715f9cd5fd2ef6425d680906020016120bc565b6000610bee825490565b60008181526001830160205260408120546127f157508154600181810184556000848152602080822090930184905584548482528286019093526040902091909155610bee565b506000610bee565b60006001600160e01b03198216637965db0b60e01b1480610bee57506301ffc9a760e01b6001600160e01b0319831614610bee565b6060600061283d83600261327c565b6128489060026130f0565b67ffffffffffffffff81111561286057612860613027565b6040519080825280601f01601f19166020018201604052801561288a576020820181803683370190505b509050600360fc1b816000815181106128a5576128a5612fdc565b60200101906001600160f81b031916908160001a905350600f60fb1b816001815181106128d4576128d4612fdc565b60200101906001600160f81b031916908160001a90535060006128f884600261327c565b6129039060016130f0565b90505b600181111561297b576f181899199a1a9b1b9c1cb0b131b232b360811b85600f166010811061293757612937612fdc565b1a60f81b82828151811061294d5761294d612fdc565b60200101906001600160f81b031916908160001a90535060049490941c936129748161329b565b9050612906565b50831561159b5760405162461bcd60e51b815260206004820181905260248201527f537472696e67733a20686578206c656e67746820696e73756666696369656e746044820152606401610c36565b6129d482826115a2565b15610bfe5760008281526001602090815260408083206001600160a01b0385168085529252808320805460ff1916905551339285917ff6391f5c32d9c69d2a47ea670b442974b53935d1edc7fd64eb21e047a839171b9190a45050565b600061159b836001600160a01b038416612a70565b6000826000018281548110612a5d57612a5d612fdc565b9060005260206000200154905092915050565b60008181526001830160205260408120548015612b59576000612a94600183612fc5565b8554909150600090612aa890600190612fc5565b9050818114612b0d576000866000018281548110612ac857612ac8612fdc565b9060005260206000200154905080876000018481548110612aeb57612aeb612fdc565b6000918252602080832090910192909255918252600188019052604090208390555b8554869080612b1e57612b1e6132b2565b600190038181906000526020600020016000905590558560010160008681526020019081526020016000206000905560019350505050610bee565b6000915050610bee565b600060208284031215612b7557600080fd5b81356001600160e01b03198116811461159b57600080fd5b80356001600160a01b0381168114612ba457600080fd5b919050565b60008060408385031215612bbc57600080fd5b612bc583612b8d565b9150612bd360208401612b8d565b90509250929050565b60005b83811015612bf7578181015183820152602001612bdf565b83811115612c06576000848401525b50505050565b60008151808452612c24816020860160208601612bdc565b601f01601f19169290920160200192915050565b60208152600061159b6020830184612c0c565b600080600060608486031215612c6057600080fd5b83359250612c7060208501612b8d565b915060408401358015158114612c8557600080fd5b809150509250925092565b600060208284031215612ca257600080fd5b5035919050565b60008060408385031215612cbc57600080fd5b82359150612bd360208401612b8d565b60008060008060608587031215612ce257600080fd5b8435935060208501359250604085013567ffffffffffffffff80821115612d0857600080fd5b818701915087601f830112612d1c57600080fd5b813581811115612d2b57600080fd5b886020828501011115612d3d57600080fd5b95989497505060200194505050565b600060208284031215612d5e57600080fd5b61159b82612b8d565b60208152816020820152818360408301376000818301604090810191909152601f909201601f19160101919050565b60008060408385031215612da957600080fd5b50508035926020909101359150565b634e487b7160e01b600052602160045260246000fd5b60006020808301818452808551808352604092508286019150828160051b8701018488016000805b84811015612e6157603f198a8503018652825160608151818752612e1c82880182612c0c565b915050898201516004808210612e3f57634e487b7160e01b865260218152602486fd5b50868b0152908801511515948801949094529487019491870191600101612df6565b50919998505050505050505050565b6005811061139757600080fd5b600080600060608486031215612e9257600080fd5b833592506020840135612ea481612e70565b91506040840135612c8581612e70565b6020808252603b908201527f43726f7373436f6e74726163744d616e4c697374656e65723a2074686520636160408201527f6c6c6572206d7573742068617665204d414e414745525f524f4c450000000000606082015260800190565b60008251612f23818460208701612bdc565b9190910192915050565b600181811c90821680612f4157607f821691505b60208210811415612f6257634e487b7160e01b600052602260045260246000fd5b50919050565b6020808252601f908201527f4e4654206d757374206265206f6620447261676f6e2043617264207479706500604082015260600190565b8183823760009101908152919050565b634e487b7160e01b600052601160045260246000fd5b600082821015612fd757612fd7612faf565b500390565b634e487b7160e01b600052603260045260246000fd5b6020808252818101527f4f776e61626c653a2063616c6c6572206973206e6f7420746865206f776e6572604082015260600190565b634e487b7160e01b600052604160045260246000fd5b600060ff821660ff84168060ff0382111561305a5761305a612faf565b019392505050565b8281526040602082015260006110ce6040830184612c0c565b60006060820185835260206060818501528186548084526080860191508760005282600020935060005b818110156130c1578454835260019485019492840192016130a5565b5050809350505050826040830152949350505050565b6000602082840312156130e957600080fd5b5051919050565b6000821982111561310357613103612faf565b500190565b7f416363657373436f6e74726f6c3a206163636f756e7420000000000000000000815260008351613140816017850160208801612bdc565b7001034b99036b4b9b9b4b733903937b6329607d1b6017918401918201528351613171816028840160208801612bdc565b01602801949350505050565b6000602080838503121561319057600080fd5b825167ffffffffffffffff808211156131a857600080fd5b818501915085601f8301126131bc57600080fd5b8151818111156131ce576131ce613027565b8060051b604051601f19603f830116810181811085821117156131f3576131f3613027565b60405291825284820192508381018501918883111561321157600080fd5b938501935b8285101561322f57845184529385019392850192613216565b98975050505050505050565b6000606082018583526020606081850152818651808452608086019150828801935060005b818110156130c157845183529383019391830191600101613260565b600081600019048311821515161561329657613296612faf565b500290565b6000816132aa576132aa612faf565b506000190190565b634e487b7160e01b600052603160045260246000fdfe37a3c4a2a635dedf6a4912ec5757511a1f2fa87cb349543d4751fc18c65e4273241ecf16d79d0f8dbfb92cbc07fe17840425976cf0667f022fe9877caa831b08a26469706673582212207b09026718be07f8e2d960fbc0132ef71a6cd6ef871133618464e5146c83bf2f64736f6c63430008090033",
  "immutableReferences": {},
  "source": "// SPDX-License-Identifier: MIT\n/**\n * Derives dragon card stats from card ID\n * @title  Deriving dragon card stats from its ID\n * @author CryptoHog\n * @notice Defines an interface for a contract deriving the stats from a randomly generated ID\n */\n\npragma solidity ^0.8.0;\n\nimport \"./Util.sol\";\nimport \"./IStatsDerive.sol\";\nimport \"./StatsDistrib.sol\";\nimport \"./CrossContractManListener.sol\";\n\ncontract DragonStats is CrossContractManListener, IStatsDerive {\n    string  public contract_name = Util.DRAGON_STATS_CONTRACT_NAME;\n    bytes32 public contract_id = Util.DRAGON_STATS_CONTRACT_ID;\n\n    bytes32 public constant VERSION = keccak256(abi.encodePacked('DragonStats-v1'));\n    string public constant RARITY_STR = 'rarity';\n    string public constant RARITY_OVERRIDE_STR = 'rarity_override';\n    string public constant HEALTH_STR = 'health';\n    string public constant TYPE_STR   = 'type';\n    string public constant ATTACK_STR = 'attack';\n    string public constant DEFENSE_STR= 'defense';\n    string public constant CHARACTER_STR= 'character';\n    string public constant CHARACTER_NAME_STR= 'character_name';\n    bytes32 public constant H_RARITY_STR = keccak256(abi.encodePacked(RARITY_STR));\n    bytes32 public constant H_RARITY_OVERRIDE_STR = keccak256(abi.encodePacked(RARITY_OVERRIDE_STR));\n    bytes32 public constant H_HEALTH_STR = keccak256(abi.encodePacked(HEALTH_STR));\n    bytes32 public constant H_TYPE_STR = keccak256(abi.encodePacked(TYPE_STR));\n    bytes32 public constant H_ATTACK_STR = keccak256(abi.encodePacked(ATTACK_STR));\n    bytes32 public constant H_DEFENSE_STR = keccak256(abi.encodePacked(DEFENSE_STR));\n    bytes32 public constant H_CHARACTER_STR = keccak256(abi.encodePacked(CHARACTER_STR));\n    bytes32 public constant H_CHARACTER_NAME_STR = keccak256(abi.encodePacked(CHARACTER_NAME_STR));\n\n    string public constant CHARACTER_FIREZARD_STR = 'FireZard';\n    string public constant CHARACTER_FLAROZARD_STR = 'FlaroZard';\n    string public constant CHARACTER_EMBERZARD_STR = 'EmberZard';\n    string public constant CHARACTER_FLAMEBRYO_STR = 'Flamebryo';\n    string public constant CHARACTER_BLIZARD_STR = 'BliZard';\n    string public constant CHARACTER_FROZARD_STR = 'FroZard';\n    string public constant CHARACTER_CHILLAZARD_STR = 'ChillaZard';\n    string public constant CHARACTER_COOLBRYO_STR = 'Coolbryo';\n    string public constant CHARACTER_FLORAZARD_STR = 'FloraZard';\n    string public constant CHARACTER_BLOSZARD_STR = 'BlosZard';\n    string public constant CHARACTER_SPROUTYZARD_STR = 'SproutyZard';\n    string public constant CHARACTER_SEEDBRYO_STR = 'Seedbryo';\n    string public constant CHARACTER_LECTRAZARD_STR = 'LectraZard';\n    string public constant CHARACTER_VOLZARD_STR = 'VolZard';\n    string public constant CHARACTER_SPARKYZARD_STR = 'SparkyZard';\n    string public constant CHARACTER_ZAPBRYO_STR = 'Zapbryo';\n    string public constant CHARACTER_HYDRAZARD_STR = 'HydraZard';\n    string public constant CHARACTER_AQAZARD_STR = 'AqaZard';\n    string public constant CHARACTER_DRIPLAZARD_STR = 'DriplaZard';\n    string public constant CHARACTER_SPLASH_STR = 'Splashbryo';\n\n    string[] public CHARACTER_NAMES = [\n\tCHARACTER_FIREZARD_STR,   // 000\n\tCHARACTER_FIREZARD_STR,   // 001\n\tCHARACTER_FLAROZARD_STR,  // 002\n\tCHARACTER_FLAROZARD_STR,  // 003\n\tCHARACTER_FLAROZARD_STR,  // 004\n\tCHARACTER_EMBERZARD_STR,  // 005\n\tCHARACTER_EMBERZARD_STR,  // 006\n\tCHARACTER_EMBERZARD_STR,  // 007\n\tCHARACTER_FLAMEBRYO_STR,  // 008\n\tCHARACTER_FLAMEBRYO_STR,  // 009\n\tCHARACTER_FLAMEBRYO_STR,  // 010\n\tCHARACTER_FLAMEBRYO_STR,  // 011\n\tCHARACTER_FLAMEBRYO_STR,  // 012\n\tCHARACTER_BLIZARD_STR,    // 013\n\tCHARACTER_BLIZARD_STR,    // 014\n\tCHARACTER_FROZARD_STR,    // 015\n\tCHARACTER_FROZARD_STR,    // 016\n\tCHARACTER_FROZARD_STR,    // 017\n\tCHARACTER_CHILLAZARD_STR, // 018\n\tCHARACTER_CHILLAZARD_STR, // 019\n\tCHARACTER_CHILLAZARD_STR, // 020\n\tCHARACTER_COOLBRYO_STR,   // 021\n\tCHARACTER_COOLBRYO_STR,   // 022\n\tCHARACTER_COOLBRYO_STR,   // 023\n\tCHARACTER_COOLBRYO_STR,   // 024\n\tCHARACTER_COOLBRYO_STR,   // 025\n\tCHARACTER_FLORAZARD_STR,  // 026\n\tCHARACTER_FLORAZARD_STR,  // 027\n\tCHARACTER_BLOSZARD_STR,   // 028\n\tCHARACTER_BLOSZARD_STR,   // 029\n\tCHARACTER_BLOSZARD_STR,   // 030\n\tCHARACTER_SPROUTYZARD_STR,// 031\n\tCHARACTER_SPROUTYZARD_STR,// 032\n\tCHARACTER_SPROUTYZARD_STR,// 033\n\tCHARACTER_SEEDBRYO_STR,   // 034\n\tCHARACTER_SEEDBRYO_STR,   // 035\n\tCHARACTER_SEEDBRYO_STR,   // 036\n\tCHARACTER_SEEDBRYO_STR,   // 037\n\tCHARACTER_SEEDBRYO_STR,   // 038\n\tCHARACTER_LECTRAZARD_STR, // 039\n\tCHARACTER_LECTRAZARD_STR, // 040\n\tCHARACTER_VOLZARD_STR,    // 041\n\tCHARACTER_VOLZARD_STR,    // 042\n\tCHARACTER_VOLZARD_STR,    // 043\n\tCHARACTER_SPARKYZARD_STR, // 044\n\tCHARACTER_SPARKYZARD_STR, // 045\n\tCHARACTER_SPARKYZARD_STR, // 046\n\tCHARACTER_ZAPBRYO_STR,    // 047\n\tCHARACTER_ZAPBRYO_STR,    // 048\n\tCHARACTER_ZAPBRYO_STR,    // 049\n\tCHARACTER_ZAPBRYO_STR,    // 050\n\tCHARACTER_ZAPBRYO_STR,    // 051\n\tCHARACTER_HYDRAZARD_STR,  // 052\n\tCHARACTER_HYDRAZARD_STR,  // 053\n\tCHARACTER_AQAZARD_STR,    // 054\n\tCHARACTER_AQAZARD_STR,    // 055\n\tCHARACTER_AQAZARD_STR,    // 056\n\tCHARACTER_DRIPLAZARD_STR, // 057\n\tCHARACTER_DRIPLAZARD_STR, // 058\n\tCHARACTER_DRIPLAZARD_STR, // 059\n\tCHARACTER_SPLASH_STR,\t  // 060\n\tCHARACTER_SPLASH_STR,\t  // 061\n\tCHARACTER_SPLASH_STR,\t  // 062\n\tCHARACTER_SPLASH_STR,\t  // 063\n\tCHARACTER_SPLASH_STR\t  // 064\n    ];\n\n    uint256[] private  RARE_CHARACTER_DISTRIB = [1,1];\n    uint256   private constant RARE_CHARACTER_DISTRIB_SIZE = 3;\n    uint256[] private  UNCOMMON_CHARACTER_DISTRIB = [1,1];\n    uint256   private constant UNCOMMON_CHARACTER_DISTRIB_SIZE = 3;\n    uint256[] private  COMMON_CHARACTER_DISTRIB = [1,1,1,1];\n    uint256   private constant COMMON_CHARACTER_DISTRIB_SIZE = 5;\n\n    address public\tstatsDistrib;\n\n/*    constructor(address _statsDistrib){\n\tlinkStatsDistrib(_statsDistrib);\n    }*/\n\n    function getName() view external returns(string memory) {\n\treturn contract_name;\n    }\n\n    function getId() view external returns(bytes32) {\n\treturn contract_id;\n    }\n\n    function tokenTypeCode() external pure returns (bytes32){\n\treturn Util.DRAGON_CARD_TYPE_CODE;\n    }\n\n    function onListenAdded(bytes32 hname, address contractInstance, bool isNew) external onlyManager {\n\tif(hname == Util.STATS_DISTRIB_CONTRACT_ID){\n    \t    _linkStatsDistrib(contractInstance);\n    \t    return;\n\t}\n    }\n\n    function onListenRemoved(bytes32 hname) external onlyManager {\n\tif(hname == Util.STATS_DISTRIB_CONTRACT_ID){\n    \t    _linkStatsDistrib(address(0));\n    \t    return;\n\t}\n    }\n\n    function _linkStatsDistrib(address _statsDistrib) internal {\n\tstatsDistrib = _statsDistrib;\n\temit StatsDistribLink(statsDistrib);\n    }\n\n    function linkStatsDistrib(address _statsDistrib) public virtual onlyOwner {\n\t_linkStatsDistrib(_statsDistrib);\n    }\n\n    function deriveRarity(uint256 id) internal view returns (Util.CardRarity) {\n\tuint256 rvalue = uint256(keccak256(abi.encode(id,RARITY_STR)));\n\treturn Util.CardRarity(Util.getRandomItem(rvalue, StatsDistrib(statsDistrib).getDragonCardRarities(), StatsDistrib(statsDistrib).dragonCardRarityPopulationSize()));\n    }\n\n    function deriveType(uint256 id) internal view returns (Util.CardType) {\n\tuint256 rvalue = uint256(keccak256(abi.encode(id,TYPE_STR)));\n\treturn Util.CardType(Util.getRandomItem(rvalue, StatsDistrib(statsDistrib).getDragonCardTypes(), StatsDistrib(statsDistrib).dragonCardTypePopulationSize()));\n    }\n\n    function deriveCharacter(uint256 id, Util.CardRarity rarity, Util.CardType c_type) public view returns (uint256) {\n\tuint8 offset;\n\tif(c_type == Util.CardType.Fire)     offset = 0;\n\tif(c_type == Util.CardType.Ice)      offset = 13;\n\tif(c_type == Util.CardType.Plant)    offset = 26;\n\tif(c_type == Util.CardType.Electric) offset = 39;\n\tif(c_type == Util.CardType.Water)    offset = 52;\n\n\tif(rarity == Util.CardRarity.Ultra_Rare)\n\t    return offset;\n\tif(rarity == Util.CardRarity.Super_Rare)\n\t    return offset+1;\n\n\tuint256 rvalue = uint256(keccak256(abi.encode(id,CHARACTER_STR)));\n\n\tif(rarity == Util.CardRarity.Rare)\n\t    return offset+2+Util.getRandomItem(rvalue, RARE_CHARACTER_DISTRIB, RARE_CHARACTER_DISTRIB_SIZE);\n\n\tif(rarity == Util.CardRarity.Uncommon)\n\t    return offset+5+Util.getRandomItem(rvalue, UNCOMMON_CHARACTER_DISTRIB, UNCOMMON_CHARACTER_DISTRIB_SIZE);\n\n\tif(rarity == Util.CardRarity.Common)\n\t    return offset+8+Util.getRandomItem(rvalue, COMMON_CHARACTER_DISTRIB, COMMON_CHARACTER_DISTRIB_SIZE);\n\n\trevert(\"DragonStats: Failed to derive the character\");\n    }\n\n    function deriveCharacterName(uint256 character) public view returns (string memory) {\n\treturn CHARACTER_NAMES[character];\n    }\n\n    /**\n     * @notice Derive an integer stat from the card's ID by the stats' name\n     *\n     * @param id An id generated by an RNG\n     * @param name The stats' name\n     * @return The stats' value\n    **/\n    function getStatInt(bytes32 nft_type, uint256 id, string calldata name) external view returns (uint256){\n\trequire(nft_type == Util.DRAGON_CARD_TYPE_CODE, \"NFT must be of Dragon Card type\");\n\tbytes32 h_name = keccak256(abi.encodePacked(name));\n\tif(h_name == H_RARITY_STR)\n\t    return uint256(deriveRarity(id));\n\tif(h_name == H_TYPE_STR)\n\t    return uint256(deriveType(id));\n\tif(h_name == H_CHARACTER_STR){\n\t    revert(\"DragonStats: call deriveCharacter explicitly\");\n/*\t    Util.CardRarity rarity = deriveRarity(id);\n\t    Util.CardType   type   = deriveType(id);\n\t    uint256 character = deriveCharacter(id,rarity,type);\n\t    require(character <= 64, \"DragonStats: chartacter number out of bounds (64)\");\n\t    return character;*/\n\t}\n\tif((h_name == H_HEALTH_STR)||(h_name == H_ATTACK_STR)||(h_name == H_DEFENSE_STR))\n\t    return Util.MAX_UINT;\n\trevert(\"Unsupported stat\");\n    }\n\n    /**\n     * @notice Derive a string stat from the card's ID by the stats' name\n     *\n     * @param id An id generated by an RNG\n     * @param name The stats' name\n     * @return The stats' value\n    **/\n    function getStatString(bytes32 nft_type, uint256 id, string calldata name) external view returns (string calldata){\n\trequire(nft_type == Util.DRAGON_CARD_TYPE_CODE, \"NFT must be of Dragon Card type\");\n\tbytes32 h_name = keccak256(abi.encodePacked(name));\n\tif(h_name == H_CHARACTER_NAME_STR){\n\t    revert(\"DragonStats: call deriveCharacterName explicitly\");\n\t}\n\t\n\trevert(\"Unsupported stat\");\n    }\n\n    /**\n     * @notice Derive a 32 byte array stat from the card's ID by the stats' name\n     *\n     * @param id An id generated by an RNG\n     * @param name The stats' name\n     * @return The stats' value\n    **/\n    function getStatByte32(bytes32 nft_type, uint256 id, string calldata name) external view returns (bytes32){\n\trequire(nft_type == Util.DRAGON_CARD_TYPE_CODE, \"NFT must be of Dragon Card type\");\n\trevert(\"Unsupported stat\");\n    }\n\n    /**\n     * @notice Derive a boolean stat from the card's ID by the stats' name\n     *\n     * @param id An id generated by an RNG\n     * @param name The stats' name\n     * @return The stats' value\n    **/\n    function getStatBool(bytes32 nft_type, uint256 id, string calldata name) external view returns (bool){\n\trequire(nft_type == Util.DRAGON_CARD_TYPE_CODE, \"NFT must be of Dragon Card type\");\n\tbytes32 h_name = keccak256(abi.encodePacked(name));\n\tif(h_name == H_RARITY_OVERRIDE_STR)\n\t    return false;\n\trevert(\"Unsupported stat\");\n    }\n\n    /**\n     * @notice Defines a set of stats that can be derived\n     *\n     * @return An enumerable set (actually, an array) of stats that can be derived by the interface implementation\n    **/\n    function stats(bytes32 nft_type) external pure returns (Util.Stat[] memory) {\n\trequire(nft_type == Util.DRAGON_CARD_TYPE_CODE, \"NFT must be of Dragon Card type\");\n\tUtil.Stat[] memory stats_list = new Util.Stat[](8);\n\tstats_list[0] = Util.Stat(RARITY_STR, Util.StatType.Integer, false);\n\tstats_list[1] = Util.Stat(HEALTH_STR, Util.StatType.Integer, true);\n\tstats_list[2] = Util.Stat(TYPE_STR, Util.StatType.Integer, false);\n\tstats_list[3] = Util.Stat(ATTACK_STR, Util.StatType.Integer, true);\n\tstats_list[4] = Util.Stat(DEFENSE_STR, Util.StatType.Integer, true);\n\tstats_list[5] = Util.Stat(RARITY_OVERRIDE_STR, Util.StatType.Boolean, true);\n\tstats_list[6] = Util.Stat(CHARACTER_STR, Util.StatType.Integer, false);\n\tstats_list[7] = Util.Stat(CHARACTER_NAME_STR, Util.StatType.String, false);\n\treturn stats_list;\n    }\n\n    event StatsDistribLink(address _statsDistrib);\n}\n",
  "sourcePath": "/home/vrogojin/Projects/FireZard/nft/contracts/DragonStats.sol",
  "compiler": {
    "name": "solc",
    "version": "0.8.9+commit.e5eed63a.Emscripten.clang"
  },
  "schemaVersion": "3.4.3",
  "updatedAt": "2022-02-08T18:50:25.197Z",
  "devdoc": {
    "kind": "dev",
    "methods": {
      "getRoleAdmin(bytes32)": {
        "details": "Returns the admin role that controls `role`. See {grantRole} and {revokeRole}. To change a role's admin, use {_setRoleAdmin}."
      },
      "getRoleMember(bytes32,uint256)": {
        "details": "Returns one of the accounts that have `role`. `index` must be a value between 0 and {getRoleMemberCount}, non-inclusive. Role bearers are not sorted in any particular way, and their ordering may change at any point. WARNING: When using {getRoleMember} and {getRoleMemberCount}, make sure you perform all queries on the same block. See the following https://forum.openzeppelin.com/t/iterating-over-elements-on-enumerableset-in-openzeppelin-contracts/2296[forum post] for more information."
      },
      "getRoleMemberCount(bytes32)": {
        "details": "Returns the number of accounts that have `role`. Can be used together with {getRoleMember} to enumerate all bearers of a role."
      },
      "getStatBool(bytes32,uint256,string)": {
        "params": {
          "id": "An id generated by an RNG",
          "name": "The stats' name"
        },
        "returns": {
          "_0": "The stats' value*"
        }
      },
      "getStatByte32(bytes32,uint256,string)": {
        "params": {
          "id": "An id generated by an RNG",
          "name": "The stats' name"
        },
        "returns": {
          "_0": "The stats' value*"
        }
      },
      "getStatInt(bytes32,uint256,string)": {
        "params": {
          "id": "An id generated by an RNG",
          "name": "The stats' name"
        },
        "returns": {
          "_0": "The stats' value*"
        }
      },
      "getStatString(bytes32,uint256,string)": {
        "params": {
          "id": "An id generated by an RNG",
          "name": "The stats' name"
        },
        "returns": {
          "_0": "The stats' value*"
        }
      },
      "grantRole(bytes32,address)": {
        "details": "Grants `role` to `account`. If `account` had not been already granted `role`, emits a {RoleGranted} event. Requirements: - the caller must have ``role``'s admin role."
      },
      "hasRole(bytes32,address)": {
        "details": "Returns `true` if `account` has been granted `role`."
      },
      "owner()": {
        "details": "Returns the address of the current owner."
      },
      "renounceOwnership()": {
        "details": "Leaves the contract without owner. It will not be possible to call `onlyOwner` functions anymore. Can only be called by the current owner. NOTE: Renouncing ownership will leave the contract without an owner, thereby removing any functionality that is only available to the owner."
      },
      "renounceRole(bytes32,address)": {
        "details": "Revokes `role` from the calling account. Roles are often managed via {grantRole} and {revokeRole}: this function's purpose is to provide a mechanism for accounts to lose their privileges if they are compromised (such as when a trusted device is misplaced). If the calling account had been revoked `role`, emits a {RoleRevoked} event. Requirements: - the caller must be `account`."
      },
      "revokeRole(bytes32,address)": {
        "details": "Revokes `role` from `account`. If `account` had been granted `role`, emits a {RoleRevoked} event. Requirements: - the caller must have ``role``'s admin role."
      },
      "stats(bytes32)": {
        "returns": {
          "_0": "An enumerable set (actually, an array) of stats that can be derived by the interface implementation*"
        }
      },
      "supportsInterface(bytes4)": {
        "details": "See {IERC165-supportsInterface}."
      },
      "tokenTypeCode()": {
        "returns": {
          "_0": "Token type code*"
        }
      },
      "transferOwnership(address)": {
        "details": "Transfers ownership of the contract to a new account (`newOwner`). Can only be called by the current owner."
      }
    },
    "version": 1
  },
  "userdoc": {
    "kind": "user",
    "methods": {
      "getStatBool(bytes32,uint256,string)": {
        "notice": "Derive a boolean stat from the card's ID by the stats' name"
      },
      "getStatByte32(bytes32,uint256,string)": {
        "notice": "Derive a 32 byte array stat from the card's ID by the stats' name"
      },
      "getStatInt(bytes32,uint256,string)": {
        "notice": "Derive an integer stat from the card's ID by the stats' name"
      },
      "getStatString(bytes32,uint256,string)": {
        "notice": "Derive a string stat from the card's ID by the stats' name"
      },
      "stats(bytes32)": {
        "notice": "Defines a set of stats that can be derived"
      },
      "tokenTypeCode()": {
        "notice": "Token type code"
      }
    },
    "version": 1
  }
}