{
  "contractName": "DragonStats",
  "abi": [
    {
      "inputs": [
        {
          "internalType": "address",
          "name": "_statsDistrib",
          "type": "address"
        }
      ],
      "stateMutability": "nonpayable",
      "type": "constructor"
    },
    {
      "anonymous": false,
      "inputs": [
        {
          "indexed": false,
          "internalType": "address",
          "name": "_statsDistrib",
          "type": "address"
        }
      ],
      "name": "StatsDistribLink",
      "type": "event"
    },
    {
      "inputs": [],
      "name": "ATTACK_STR",
      "outputs": [
        {
          "internalType": "string",
          "name": "",
          "type": "string"
        }
      ],
      "stateMutability": "view",
      "type": "function",
      "constant": true
    },
    {
      "inputs": [],
      "name": "CHARACTER_AQAZARD_STR",
      "outputs": [
        {
          "internalType": "string",
          "name": "",
          "type": "string"
        }
      ],
      "stateMutability": "view",
      "type": "function",
      "constant": true
    },
    {
      "inputs": [],
      "name": "CHARACTER_BLIZARD_STR",
      "outputs": [
        {
          "internalType": "string",
          "name": "",
          "type": "string"
        }
      ],
      "stateMutability": "view",
      "type": "function",
      "constant": true
    },
    {
      "inputs": [],
      "name": "CHARACTER_BLOSZARD_STR",
      "outputs": [
        {
          "internalType": "string",
          "name": "",
          "type": "string"
        }
      ],
      "stateMutability": "view",
      "type": "function",
      "constant": true
    },
    {
      "inputs": [],
      "name": "CHARACTER_CHILLAZARD_STR",
      "outputs": [
        {
          "internalType": "string",
          "name": "",
          "type": "string"
        }
      ],
      "stateMutability": "view",
      "type": "function",
      "constant": true
    },
    {
      "inputs": [],
      "name": "CHARACTER_COOLBRYO_STR",
      "outputs": [
        {
          "internalType": "string",
          "name": "",
          "type": "string"
        }
      ],
      "stateMutability": "view",
      "type": "function",
      "constant": true
    },
    {
      "inputs": [],
      "name": "CHARACTER_DRIPLAZARD_STR",
      "outputs": [
        {
          "internalType": "string",
          "name": "",
          "type": "string"
        }
      ],
      "stateMutability": "view",
      "type": "function",
      "constant": true
    },
    {
      "inputs": [],
      "name": "CHARACTER_EMBERZARD_STR",
      "outputs": [
        {
          "internalType": "string",
          "name": "",
          "type": "string"
        }
      ],
      "stateMutability": "view",
      "type": "function",
      "constant": true
    },
    {
      "inputs": [],
      "name": "CHARACTER_FIREZARD_STR",
      "outputs": [
        {
          "internalType": "string",
          "name": "",
          "type": "string"
        }
      ],
      "stateMutability": "view",
      "type": "function",
      "constant": true
    },
    {
      "inputs": [],
      "name": "CHARACTER_FLAMEBRYO_STR",
      "outputs": [
        {
          "internalType": "string",
          "name": "",
          "type": "string"
        }
      ],
      "stateMutability": "view",
      "type": "function",
      "constant": true
    },
    {
      "inputs": [],
      "name": "CHARACTER_FLAROZARD_STR",
      "outputs": [
        {
          "internalType": "string",
          "name": "",
          "type": "string"
        }
      ],
      "stateMutability": "view",
      "type": "function",
      "constant": true
    },
    {
      "inputs": [],
      "name": "CHARACTER_FLORAZARD_STR",
      "outputs": [
        {
          "internalType": "string",
          "name": "",
          "type": "string"
        }
      ],
      "stateMutability": "view",
      "type": "function",
      "constant": true
    },
    {
      "inputs": [],
      "name": "CHARACTER_FROZARD_STR",
      "outputs": [
        {
          "internalType": "string",
          "name": "",
          "type": "string"
        }
      ],
      "stateMutability": "view",
      "type": "function",
      "constant": true
    },
    {
      "inputs": [],
      "name": "CHARACTER_HYDRAZARD_STR",
      "outputs": [
        {
          "internalType": "string",
          "name": "",
          "type": "string"
        }
      ],
      "stateMutability": "view",
      "type": "function",
      "constant": true
    },
    {
      "inputs": [],
      "name": "CHARACTER_LECTRAZARD_STR",
      "outputs": [
        {
          "internalType": "string",
          "name": "",
          "type": "string"
        }
      ],
      "stateMutability": "view",
      "type": "function",
      "constant": true
    },
    {
      "inputs": [
        {
          "internalType": "uint256",
          "name": "",
          "type": "uint256"
        }
      ],
      "name": "CHARACTER_NAMES",
      "outputs": [
        {
          "internalType": "string",
          "name": "",
          "type": "string"
        }
      ],
      "stateMutability": "view",
      "type": "function",
      "constant": true
    },
    {
      "inputs": [],
      "name": "CHARACTER_NAME_STR",
      "outputs": [
        {
          "internalType": "string",
          "name": "",
          "type": "string"
        }
      ],
      "stateMutability": "view",
      "type": "function",
      "constant": true
    },
    {
      "inputs": [],
      "name": "CHARACTER_SEEDBRYO_STR",
      "outputs": [
        {
          "internalType": "string",
          "name": "",
          "type": "string"
        }
      ],
      "stateMutability": "view",
      "type": "function",
      "constant": true
    },
    {
      "inputs": [],
      "name": "CHARACTER_SPARKYZARD_STR",
      "outputs": [
        {
          "internalType": "string",
          "name": "",
          "type": "string"
        }
      ],
      "stateMutability": "view",
      "type": "function",
      "constant": true
    },
    {
      "inputs": [],
      "name": "CHARACTER_SPLASH_STR",
      "outputs": [
        {
          "internalType": "string",
          "name": "",
          "type": "string"
        }
      ],
      "stateMutability": "view",
      "type": "function",
      "constant": true
    },
    {
      "inputs": [],
      "name": "CHARACTER_SPROUTYZARD_STR",
      "outputs": [
        {
          "internalType": "string",
          "name": "",
          "type": "string"
        }
      ],
      "stateMutability": "view",
      "type": "function",
      "constant": true
    },
    {
      "inputs": [],
      "name": "CHARACTER_STR",
      "outputs": [
        {
          "internalType": "string",
          "name": "",
          "type": "string"
        }
      ],
      "stateMutability": "view",
      "type": "function",
      "constant": true
    },
    {
      "inputs": [],
      "name": "CHARACTER_VOLZARD_STR",
      "outputs": [
        {
          "internalType": "string",
          "name": "",
          "type": "string"
        }
      ],
      "stateMutability": "view",
      "type": "function",
      "constant": true
    },
    {
      "inputs": [],
      "name": "CHARACTER_ZAPBRYO_STR",
      "outputs": [
        {
          "internalType": "string",
          "name": "",
          "type": "string"
        }
      ],
      "stateMutability": "view",
      "type": "function",
      "constant": true
    },
    {
      "inputs": [],
      "name": "DEFENSE_STR",
      "outputs": [
        {
          "internalType": "string",
          "name": "",
          "type": "string"
        }
      ],
      "stateMutability": "view",
      "type": "function",
      "constant": true
    },
    {
      "inputs": [],
      "name": "HEALTH_STR",
      "outputs": [
        {
          "internalType": "string",
          "name": "",
          "type": "string"
        }
      ],
      "stateMutability": "view",
      "type": "function",
      "constant": true
    },
    {
      "inputs": [],
      "name": "H_ATTACK_STR",
      "outputs": [
        {
          "internalType": "bytes32",
          "name": "",
          "type": "bytes32"
        }
      ],
      "stateMutability": "view",
      "type": "function",
      "constant": true
    },
    {
      "inputs": [],
      "name": "H_CHARACTER_NAME_STR",
      "outputs": [
        {
          "internalType": "bytes32",
          "name": "",
          "type": "bytes32"
        }
      ],
      "stateMutability": "view",
      "type": "function",
      "constant": true
    },
    {
      "inputs": [],
      "name": "H_CHARACTER_STR",
      "outputs": [
        {
          "internalType": "bytes32",
          "name": "",
          "type": "bytes32"
        }
      ],
      "stateMutability": "view",
      "type": "function",
      "constant": true
    },
    {
      "inputs": [],
      "name": "H_DEFENSE_STR",
      "outputs": [
        {
          "internalType": "bytes32",
          "name": "",
          "type": "bytes32"
        }
      ],
      "stateMutability": "view",
      "type": "function",
      "constant": true
    },
    {
      "inputs": [],
      "name": "H_HEALTH_STR",
      "outputs": [
        {
          "internalType": "bytes32",
          "name": "",
          "type": "bytes32"
        }
      ],
      "stateMutability": "view",
      "type": "function",
      "constant": true
    },
    {
      "inputs": [],
      "name": "H_RARITY_OVERRIDE_STR",
      "outputs": [
        {
          "internalType": "bytes32",
          "name": "",
          "type": "bytes32"
        }
      ],
      "stateMutability": "view",
      "type": "function",
      "constant": true
    },
    {
      "inputs": [],
      "name": "H_RARITY_STR",
      "outputs": [
        {
          "internalType": "bytes32",
          "name": "",
          "type": "bytes32"
        }
      ],
      "stateMutability": "view",
      "type": "function",
      "constant": true
    },
    {
      "inputs": [],
      "name": "H_TYPE_STR",
      "outputs": [
        {
          "internalType": "bytes32",
          "name": "",
          "type": "bytes32"
        }
      ],
      "stateMutability": "view",
      "type": "function",
      "constant": true
    },
    {
      "inputs": [],
      "name": "RARITY_OVERRIDE_STR",
      "outputs": [
        {
          "internalType": "string",
          "name": "",
          "type": "string"
        }
      ],
      "stateMutability": "view",
      "type": "function",
      "constant": true
    },
    {
      "inputs": [],
      "name": "RARITY_STR",
      "outputs": [
        {
          "internalType": "string",
          "name": "",
          "type": "string"
        }
      ],
      "stateMutability": "view",
      "type": "function",
      "constant": true
    },
    {
      "inputs": [],
      "name": "TYPE_STR",
      "outputs": [
        {
          "internalType": "string",
          "name": "",
          "type": "string"
        }
      ],
      "stateMutability": "view",
      "type": "function",
      "constant": true
    },
    {
      "inputs": [],
      "name": "VERSION",
      "outputs": [
        {
          "internalType": "bytes32",
          "name": "",
          "type": "bytes32"
        }
      ],
      "stateMutability": "view",
      "type": "function",
      "constant": true
    },
    {
      "inputs": [],
      "name": "statsDistrib",
      "outputs": [
        {
          "internalType": "address",
          "name": "",
          "type": "address"
        }
      ],
      "stateMutability": "view",
      "type": "function",
      "constant": true
    },
    {
      "inputs": [
        {
          "internalType": "address",
          "name": "_statsDistrib",
          "type": "address"
        }
      ],
      "name": "linkStatsDistrib",
      "outputs": [],
      "stateMutability": "nonpayable",
      "type": "function"
    },
    {
      "inputs": [
        {
          "internalType": "uint256",
          "name": "id",
          "type": "uint256"
        },
        {
          "internalType": "enum Util.CardRarity",
          "name": "rarity",
          "type": "uint8"
        },
        {
          "internalType": "enum Util.CardType",
          "name": "c_type",
          "type": "uint8"
        }
      ],
      "name": "deriveCharacter",
      "outputs": [
        {
          "internalType": "uint256",
          "name": "",
          "type": "uint256"
        }
      ],
      "stateMutability": "view",
      "type": "function",
      "constant": true
    },
    {
      "inputs": [
        {
          "internalType": "uint256",
          "name": "character",
          "type": "uint256"
        }
      ],
      "name": "deriveCharacterName",
      "outputs": [
        {
          "internalType": "string",
          "name": "",
          "type": "string"
        }
      ],
      "stateMutability": "view",
      "type": "function",
      "constant": true
    },
    {
      "inputs": [
        {
          "internalType": "bytes32",
          "name": "nft_type",
          "type": "bytes32"
        },
        {
          "internalType": "uint256",
          "name": "id",
          "type": "uint256"
        },
        {
          "internalType": "string",
          "name": "name",
          "type": "string"
        }
      ],
      "name": "getStatInt",
      "outputs": [
        {
          "internalType": "uint256",
          "name": "",
          "type": "uint256"
        }
      ],
      "stateMutability": "view",
      "type": "function",
      "constant": true
    },
    {
      "inputs": [
        {
          "internalType": "bytes32",
          "name": "nft_type",
          "type": "bytes32"
        },
        {
          "internalType": "uint256",
          "name": "id",
          "type": "uint256"
        },
        {
          "internalType": "string",
          "name": "name",
          "type": "string"
        }
      ],
      "name": "getStatString",
      "outputs": [
        {
          "internalType": "string",
          "name": "",
          "type": "string"
        }
      ],
      "stateMutability": "view",
      "type": "function",
      "constant": true
    },
    {
      "inputs": [
        {
          "internalType": "bytes32",
          "name": "nft_type",
          "type": "bytes32"
        },
        {
          "internalType": "uint256",
          "name": "id",
          "type": "uint256"
        },
        {
          "internalType": "string",
          "name": "name",
          "type": "string"
        }
      ],
      "name": "getStatByte32",
      "outputs": [
        {
          "internalType": "bytes32",
          "name": "",
          "type": "bytes32"
        }
      ],
      "stateMutability": "view",
      "type": "function",
      "constant": true
    },
    {
      "inputs": [
        {
          "internalType": "bytes32",
          "name": "nft_type",
          "type": "bytes32"
        },
        {
          "internalType": "uint256",
          "name": "id",
          "type": "uint256"
        },
        {
          "internalType": "string",
          "name": "name",
          "type": "string"
        }
      ],
      "name": "getStatBool",
      "outputs": [
        {
          "internalType": "bool",
          "name": "",
          "type": "bool"
        }
      ],
      "stateMutability": "view",
      "type": "function",
      "constant": true
    },
    {
      "inputs": [
        {
          "internalType": "bytes32",
          "name": "nft_type",
          "type": "bytes32"
        }
      ],
      "name": "stats",
      "outputs": [
        {
          "components": [
            {
              "internalType": "string",
              "name": "name",
              "type": "string"
            },
            {
              "internalType": "enum Util.StatType",
              "name": "statType",
              "type": "uint8"
            },
            {
              "internalType": "bool",
              "name": "is_mutable",
              "type": "bool"
            }
          ],
          "internalType": "struct Util.Stat[]",
          "name": "",
          "type": "tuple[]"
        }
      ],
      "stateMutability": "pure",
      "type": "function",
      "constant": true
    }
  ],
  "bytecode": "0x60086108a081815267119a5c9956985c9960c21b6108c081905260809182526108e08381526109009190915260a052600961092081815268119b185c9bd6985c9960ba1b61094081905260c09190915261096082815261098082905260e0526109a08281526109c091909152610100526109e081815268115b58995c96985c9960ba1b610a0081905261012091909152610a20828152610a4082905261014052610a60828152610a809190915261016052610aa081815268466c616d656272796f60b81b610ac081905261018091909152610ae0828152610b008290526101a052610b20828152610b408290526101c052610b60828152610b808290526101e052610ba0828152610bc091909152610200526007610be081815266109b1a56985c9960ca1b610c0081905261022091909152610c20828152610c409190915261024052610c6081815266119c9bd6985c9960ca1b610c8081905261026091909152610ca0828152610cc082905261028052610ce0828152610d00919091526102a052600a610d208181526910da1a5b1b1856985c9960b21b610d408190526102c091909152610d60828152610d808290526102e052610da0828152610dc09190915261030052610de085815267436f6f6c6272796f60c01b610e0081905261032091909152610e20868152610e4082905261034052610e60868152610e8082905261036052610ea0868152610ec082905261038052610ee0868152610f00919091526103a052610f2083815268119b1bdc9856985c9960ba1b610f408190526103c091909152610f60848152610f80919091526103e052610fa085815267109b1bdcd6985c9960c21b610fc081905261040091909152610fe0868152611000829052610420526110208681526110409190915261044052600b6110608181526a14dc1c9bdd5d1e56985c9960aa1b611080819052610460919091526110a08281526110c0829052610480526110e0918252611100526104a05261112085815267536565646272796f60c01b6111408190526104c0919091526111608681526111808290526104e0526111a08681526111c0829052610500526111e086815261120082905261052052611220958652611240526105409490945261126084815269131958dd1c9856985c9960b21b611280819052610560919091526112a08581526112c091909152610580526112e081815266159bdb16985c9960ca1b6113008190526105a0919091526113208281526113408290526105c052611360828152611380919091526105e0526113a08481526914dc185c9ade56985c9960b21b6113c0819052610600919091526113e0858152611400829052610620526114208581526114409190915261064052611460818152665a61706272796f60c81b611480819052610660919091526114a08281526114c0829052610680526114e08281526115008290526106a0526115208281526115408290526106c052611560828152611580919091526106e0526115a082815268121e591c9856985c9960ba1b6115c0819052610700919091526115e0928352611600526107209190915261162081815266105c5856985c9960ca1b61164081905261074091909152611660828152611680829052610760526116a09182526116c052610780526116e082815269111c9a5c1b1856985c9960b21b6117008190526107a0919091526117208381526117408290526107c052611760838152611780919091526107e0526117a08281526953706c6173686272796f60b01b6117c0819052610800919091526117e08381526118008290526108205261182083815261184082905261084052611860838152611880829052610860526118e06040526118a09283526118c052610880919091526200057190600090604162000685565b506040805180820190915260018082526020820181905262000595916002620006e9565b506040805180820190915260018082526020820152620005b99060029081620006e9565b50604080516080810182526001808252602082018190529181018290526060810191909152620005ee906003906004620006e9565b50348015620005fc57600080fd5b5060405162002926380380620029268339810160408190526200061f9162000831565b6200062a8162000631565b50620008a0565b600480546001600160a01b0319166001600160a01b0383169081179091556040519081527fd6ebeed44b8b1f3dea0f0065729e759c6e0a54fff5e3457d639ab0cb4b1643079060200160405180910390a150565b828054828255906000526020600020908101928215620006d7579160200282015b82811115620006d75782518051620006c69184916020909101906200073a565b5091602001919060010190620006a6565b50620006e5929150620007b7565b5090565b8280548282559060005260206000209081019282156200072c579160200282015b828111156200072c578251829060ff169055916020019190600101906200070a565b50620006e5929150620007d8565b828054620007489062000863565b90600052602060002090601f0160209004810192826200076c57600085556200072c565b82601f106200078757805160ff19168380011785556200072c565b828001600101855582156200072c579182015b828111156200072c5782518255916020019190600101906200079a565b80821115620006e5576000620007ce8282620007ef565b50600101620007b7565b5b80821115620006e55760008155600101620007d9565b508054620007fd9062000863565b6000825580601f106200080e575050565b601f0160209004906000526020600020908101906200082e9190620007d8565b50565b6000602082840312156200084457600080fd5b81516001600160a01b03811681146200085c57600080fd5b9392505050565b600181811c908216806200087857607f821691505b602082108114156200089a57634e487b7160e01b600052602260045260246000fd5b50919050565b61207680620008b06000396000f3fe608060405234801561001057600080fd5b50600436106102955760003560e01c806391a7f8b011610167578063af876b7a116100ce578063d9fb28fc11610087578063d9fb28fc146107b8578063dc358f96146107db578063e0195c0b14610801578063f170b6c014610828578063fa97af9014610830578063ffa1ad741461085557600080fd5b8063af876b7a146106e2578063b2c5be73146106f5578063b51e6dc71461071e578063b92654e114610743578063c7a6ffc91461076a578063d1be5e9b1461079057600080fd5b8063a7ae924011610120578063a7ae924014610618578063a9e68c9414610642578063abc26faf1461066b578063ade1ca7e14610673578063ae1777061461069c578063ae97568c146106c257600080fd5b806391a7f8b01461056d57806392040706146105925780639463e0451461059a578063967dfc01146105c2578063a1b05aa2146105ea578063a4c87caf146105f257600080fd5b80634ca7300c1161020b5780637d325d27116101c45780637d325d27146104a15780637ec4483b146104ca57806380c30bd9146104df5780638179b9061461050c57806382913d821461053457806388fee7c21461054757600080fd5b80634ca7300c146104215780634cb1f92b14610434578063519f7843146104475780635f560e831461044f5780636f57cb621461047057806376eaa7881461047857600080fd5b806327eb14c61161025d57806327eb14c61461036957806329b88a4a146103905780632d3e5030146103985780632f34f36f146103c357806330044d42146103eb578063450a52d0146103fe57600080fd5b80630dd5b1781461029a578063129a3182146102d857806319cd4c3d146102ff5780631d0b1fbb1461032d578063247a2f0514610343575b600080fd5b6102c260405180604001604052806009815260200168119b185c9bd6985c9960ba1b81525081565b6040516102cf9190611b51565b60405180910390f35b6102c260405180604001604052806008815260200167536565646272796f60c01b81525081565b6102c26040518060400160405280600f81526020016e7261726974795f6f7665727269646560881b81525081565b61033561085d565b6040519081526020016102cf565b6102c260405180604001604052806007815260200166119c9bd6985c9960ca1b81525081565b6102c260405180604001604052806008815260200167109b1bdcd6985c9960c21b81525081565b6103356108a8565b6004546103ab906001600160a01b031681565b6040516001600160a01b0390911681526020016102cf565b6102c260405180604001604052806009815260200168119b1bdc9856985c9960ba1b81525081565b6103356103f9366004611b64565b6108d7565b61041161040c366004611b64565b610bda565b60405190151581526020016102cf565b6102c261042f366004611be4565b610c8d565b6102c2610442366004611be4565b610d3c565b610335610de8565b61046261045d366004611b64565b610e18565b6040516102cf929190611bfd565b610335610f22565b6102c26040518060400160405280600a815260200169131958dd1c9856985c9960b21b81525081565b6102c26040518060400160405280600a81526020016910da1a5b1b1856985c9960b21b81525081565b6104dd6104d8366004611c2c565b610f59565b005b6102c26040518060400160405280600e81526020016d6368617261637465725f6e616d6560901b81525081565b6102c260405180604001604052806009815260200168466c616d656272796f60b81b81525081565b610335610542366004611b64565b610fad565b6102c2604051806040016040528060078152602001665a61706272796f60c81b81525081565b6102c26040518060400160405280600681526020016572617269747960d01b81525081565b610335610fdc565b6102c26040518060400160405280600981526020016831b430b930b1ba32b960b91b81525081565b6102c260405180604001604052806009815260200168115b58995c96985c9960ba1b81525081565b610335611009565b6102c260405180604001604052806007815260200166109b1a56985c9960ca1b81525081565b6102c26040518060400160405280600b81526020016a14dc1c9bdd5d1e56985c9960aa1b81525081565b6102c26040518060400160405280600a81526020016953706c6173686272796f60b01b81525081565b610335611038565b6102c26040518060400160405280600a81526020016914dc185c9ade56985c9960b21b81525081565b6102c260405180604001604052806007815260200166105c5856985c9960ca1b81525081565b6106d56106d0366004611be4565b611070565b6040516102cf9190611c6b565b6103356106f0366004611d1d565b6113b8565b6102c26040518060400160405280600a815260200169111c9a5c1b1856985c9960b21b81525081565b6102c26040518060400160405280600681526020016561747461636b60d01b81525081565b6102c260405180604001604052806008815260200167119a5c9956985c9960c21b81525081565b6102c260405180604001604052806007815260200166646566656e736560c81b81525081565b6102c260405180604001604052806009815260200168121e591c9856985c9960ba1b81525081565b6102c2604051806040016040528060048152602001637479706560e01b81525081565b6102c260405180604001604052806007815260200166159bdb16985c9960ca1b81525081565b6102c260405180604001604052806008815260200167436f6f6c6272796f60c01b81525081565b610335611783565b6102c2604051806040016040528060068152602001650d0cac2d8e8d60d31b81525081565b6103356117b2565b6040518060400160405280600981526020016831b430b930b1ba32b960b91b81525060405160200161088f9190611d5f565b6040516020818303038152906040528051906020012081565b6040518060400160405280600681526020016561747461636b60d01b81525060405160200161088f9190611d5f565b6000600080516020612021833981519152851461090f5760405162461bcd60e51b815260040161090690611d7b565b60405180910390fd5b60008383604051602001610924929190611db2565b60408051601f1981840301815282825280516020918201208383018352600684526572617269747960d01b848301529151919350610963929101611d5f565b604051602081830303815290604052805190602001208114156109a257610989856117d4565b600481111561099a5761099a611c55565b915050610bd2565b604051806040016040528060048152602001637479706560e01b8152506040516020016109cf9190611d5f565b604051602081830303815290604052805190602001208114156109f557610989856119c1565b6040518060400160405280600981526020016831b430b930b1ba32b960b91b815250604051602001610a279190611d5f565b60405160208183030381529060405280519060200120811415610aa15760405162461bcd60e51b815260206004820152602c60248201527f447261676f6e53746174733a2063616c6c20646572697665436861726163746560448201526b72206578706c696369746c7960a01b6064820152608401610906565b604051806040016040528060068152602001650d0cac2d8e8d60d31b815250604051602001610ad09190611d5f565b60405160208183030381529060405280519060200120811480610b3657506040518060400160405280600681526020016561747461636b60d01b815250604051602001610b1d9190611d5f565b6040516020818303038152906040528051906020012081145b80610b85575060405180604001604052806007815260200166646566656e736560c81b815250604051602001610b6c9190611d5f565b6040516020818303038152906040528051906020012081145b15610b975761099a6001600019611dd8565b60405162461bcd60e51b815260206004820152601060248201526f155b9cdd5c1c1bdc9d1959081cdd185d60821b6044820152606401610906565b949350505050565b60006000805160206120218339815191528514610c095760405162461bcd60e51b815260040161090690611d7b565b60008383604051602001610c1e929190611db2565b60408051601f1981840301815282825280516020918201208383018352600f84526e7261726974795f6f7665727269646560881b848301529151919350610c66929101611d5f565b60405160208183030381529060405280519060200120811415610b97576000915050610bd2565b606060008281548110610ca257610ca2611def565b906000526020600020018054610cb790611e05565b80601f0160208091040260200160405190810160405280929190818152602001828054610ce390611e05565b8015610d305780601f10610d0557610100808354040283529160200191610d30565b820191906000526020600020905b815481529060010190602001808311610d1357829003601f168201915b50505050509050919050565b60008181548110610d4c57600080fd5b906000526020600020016000915090508054610d6790611e05565b80601f0160208091040260200160405190810160405280929190818152602001828054610d9390611e05565b8015610de05780601f10610db557610100808354040283529160200191610de0565b820191906000526020600020905b815481529060010190602001808311610dc357829003601f168201915b505050505081565b60405180604001604052806007815260200166646566656e736560c81b81525060405160200161088f9190611d5f565b3660006000805160206120218339815191528614610e485760405162461bcd60e51b815260040161090690611d7b565b60008484604051602001610e5d929190611db2565b60408051601f1981840301815282825280516020918201208383018352600e84526d6368617261637465725f6e616d6560901b848301529151919350610ea4929101611d5f565b60405160208183030381529060405280519060200120811415610b975760405162461bcd60e51b815260206004820152603060248201527f447261676f6e53746174733a2063616c6c20646572697665436861726163746560448201526f724e616d65206578706c696369746c7960801b6064820152608401610906565b6040518060400160405280600e81526020016d6368617261637465725f6e616d6560901b81525060405160200161088f9190611d5f565b600480546001600160a01b0319166001600160a01b0383169081179091556040519081527fd6ebeed44b8b1f3dea0f0065729e759c6e0a54fff5e3457d639ab0cb4b1643079060200160405180910390a150565b60006000805160206120218339815191528514610b975760405162461bcd60e51b815260040161090690611d7b565b604051806040016040528060048152602001637479706560e01b81525060405160200161088f9190611d5f565b604051806040016040528060068152602001650d0cac2d8e8d60d31b81525060405160200161088f9190611d5f565b6040518060400160405280600f81526020016e7261726974795f6f7665727269646560881b81525060405160200161088f9190611d5f565b6060600080516020612021833981519152821461109f5760405162461bcd60e51b815260040161090690611d7b565b6040805160088082526101208201909252600091816020015b60408051606080820183528152600060208083018290529282015282526000199092019101816110b85750506040805160a0810182526006606082019081526572617269747960d01b6080830152815260006020820181905291810182905282519293509183919061112c5761112c611def565b6020908102919091018101919091526040805160a08101909152600660608201908152650d0cac2d8e8d60d31b6080830152815290810160008152602001600115158152508160018151811061118457611184611def565b6020908102919091018101919091526040805160a08101909152600460608201908152637479706560e01b608083015281529081016000815260200160001515815250816002815181106111da576111da611def565b6020908102919091018101919091526040805160a081019091526006606082019081526561747461636b60d01b6080830152815290810160008152602001600115158152508160038151811061123257611232611def565b6020908102919091018101919091526040805160a0810190915260076060820190815266646566656e736560c81b6080830152815290810160008152602001600115158152508160048151811061128b5761128b611def565b6020908102919091018101919091526040805160a08101909152600f606082019081526e7261726974795f6f7665727269646560881b608083015281529081016003815260200160011515815250816005815181106112ec576112ec611def565b6020908102919091018101919091526040805160a081019091526009606082019081526831b430b930b1ba32b960b91b6080830152815290810160008152602001600015158152508160068151811061134757611347611def565b6020908102919091018101919091526040805160a08101909152600e606082019081526d6368617261637465725f6e616d6560901b608083015281529081016001815260200160001515815250816007815181106113a7576113a7611def565b602090810291909101015292915050565b600080808360048111156113ce576113ce611c55565b14156113d8575060005b60018360048111156113ec576113ec611c55565b14156113f65750600d5b600283600481111561140a5761140a611c55565b14156114145750601a5b600383600481111561142857611428611c55565b1415611432575060275b600483600481111561144657611446611c55565b1415611450575060345b600084600481111561146457611464611c55565b14156114745760ff16905061177c565b600184600481111561148857611488611c55565b14156114a457611499816001611e56565b60ff1691505061177c565b6000856040518060400160405280600981526020016831b430b930b1ba32b960b91b8152506040516020016114da929190611e7b565b60408051601f1981840301815291905280516020909101209050600285600481111561150857611508611c55565b14156115bc576040516375233c2760e01b815273__Util__________________________________906375233c279061154b908490600190600390600401611e94565b60206040518083038186803b15801561156357600080fd5b505af4158015611577573d6000803e3d6000fd5b505050506040513d601f19601f8201168201806040525081019061159b9190611ef0565b6115a6836002611e56565b60ff166115b39190611f09565b9250505061177c565b60038560048111156115d0576115d0611c55565b141561166e576040516375233c2760e01b815273__Util__________________________________906375233c2790611613908490600290600390600401611e94565b60206040518083038186803b15801561162b57600080fd5b505af415801561163f573d6000803e3d6000fd5b505050506040513d601f19601f820116820180604052508101906116639190611ef0565b6115a6836005611e56565b600485600481111561168257611682611c55565b1415611720576040516375233c2760e01b815273__Util__________________________________906375233c27906116c5908490600390600590600401611e94565b60206040518083038186803b1580156116dd57600080fd5b505af41580156116f1573d6000803e3d6000fd5b505050506040513d601f19601f820116820180604052508101906117159190611ef0565b6115a6836008611e56565b60405162461bcd60e51b815260206004820152602b60248201527f447261676f6e53746174733a204661696c656420746f2064657269766520746860448201526a329031b430b930b1ba32b960a91b6064820152608401610906565b9392505050565b6040518060400160405280600681526020016572617269747960d01b81525060405160200161088f9190611d5f565b6040516d447261676f6e53746174732d763160901b6020820152602e0161088f565b600080826040518060400160405280600681526020016572617269747960d01b815250604051602001611808929190611e7b565b6040516020818303038152906040528051906020012060001c905073__Util__________________________________6375233c2782600460009054906101000a90046001600160a01b03166001600160a01b031663a9e790c86040518163ffffffff1660e01b815260040160006040518083038186803b15801561188c57600080fd5b505afa1580156118a0573d6000803e3d6000fd5b505050506040513d6000823e601f3d908101601f191682016040526118c89190810190611f21565b6004805460408051639f1349ed60e01b815290516001600160a01b0390921692639f1349ed928282019260209290829003018186803b15801561190a57600080fd5b505afa15801561191e573d6000803e3d6000fd5b505050506040513d601f19601f820116820180604052508101906119429190611ef0565b6040518463ffffffff1660e01b815260040161196093929190611fdf565b60206040518083038186803b15801561197857600080fd5b505af415801561198c573d6000803e3d6000fd5b505050506040513d601f19601f820116820180604052508101906119b09190611ef0565b600481111561177c5761177c611c55565b60008082604051806040016040528060048152602001637479706560e01b8152506040516020016119f3929190611e7b565b6040516020818303038152906040528051906020012060001c905073__Util__________________________________6375233c2782600460009054906101000a90046001600160a01b03166001600160a01b031663221cf8f86040518163ffffffff1660e01b815260040160006040518083038186803b158015611a7757600080fd5b505afa158015611a8b573d6000803e3d6000fd5b505050506040513d6000823e601f3d908101601f19168201604052611ab39190810190611f21565b6004805460408051636b8810b760e11b815290516001600160a01b039092169263d710216e928282019260209290829003018186803b15801561190a57600080fd5b60005b83811015611b10578181015183820152602001611af8565b83811115611b1f576000848401525b50505050565b60008151808452611b3d816020860160208601611af5565b601f01601f19169290920160200192915050565b60208152600061177c6020830184611b25565b60008060008060608587031215611b7a57600080fd5b8435935060208501359250604085013567ffffffffffffffff80821115611ba057600080fd5b818701915087601f830112611bb457600080fd5b813581811115611bc357600080fd5b886020828501011115611bd557600080fd5b95989497505060200194505050565b600060208284031215611bf657600080fd5b5035919050565b60208152816020820152818360408301376000818301604090810191909152601f909201601f19160101919050565b600060208284031215611c3e57600080fd5b81356001600160a01b038116811461177c57600080fd5b634e487b7160e01b600052602160045260246000fd5b60006020808301818452808551808352604092508286019150828160051b8701018488016000805b84811015611cfe57603f198a8503018652825160608151818752611cb982880182611b25565b915050898201516004808210611cdc57634e487b7160e01b865260218152602486fd5b50868b0152908801511515948801949094529487019491870191600101611c93565b50919998505050505050505050565b60058110611d1a57600080fd5b50565b600080600060608486031215611d3257600080fd5b833592506020840135611d4481611d0d565b91506040840135611d5481611d0d565b809150509250925092565b60008251611d71818460208701611af5565b9190910192915050565b6020808252601f908201527f4e4654206d757374206265206f6620447261676f6e2043617264207479706500604082015260600190565b8183823760009101908152919050565b634e487b7160e01b600052601160045260246000fd5b600082821015611dea57611dea611dc2565b500390565b634e487b7160e01b600052603260045260246000fd5b600181811c90821680611e1957607f821691505b60208210811415611e3a57634e487b7160e01b600052602260045260246000fd5b50919050565b634e487b7160e01b600052604160045260246000fd5b600060ff821660ff84168060ff03821115611e7357611e73611dc2565b019392505050565b828152604060208201526000610bd26040830184611b25565b60006060820185835260206060818501528186548084526080860191508760005282600020935060005b81811015611eda57845483526001948501949284019201611ebe565b5050809350505050826040830152949350505050565b600060208284031215611f0257600080fd5b5051919050565b60008219821115611f1c57611f1c611dc2565b500190565b60006020808385031215611f3457600080fd5b825167ffffffffffffffff80821115611f4c57600080fd5b818501915085601f830112611f6057600080fd5b815181811115611f7257611f72611e40565b8060051b604051601f19603f83011681018181108582111715611f9757611f97611e40565b604052918252848201925083810185019188831115611fb557600080fd5b938501935b82851015611fd357845184529385019392850192611fba565b98975050505050505050565b6000606082018583526020606081850152818651808452608086019150828801935060005b81811015611eda5784518352938301939183019160010161200456fe37a3c4a2a635dedf6a4912ec5757511a1f2fa87cb349543d4751fc18c65e4273a2646970667358221220c76b3c5888fe4e74601aa56d0fc961b691cfadfe23c5e30f9201ca58a8a6f8e964736f6c63430008090033",
  "immutableReferences": {},
  "source": "/**\n * Derives dragon card stats from card ID\n * @title  Deriving dragon card stats from its ID\n * @author CryptoHog\n * @notice Defines an interface for a contract deriving the stats from a randomly generated ID\n */\n\npragma solidity ^0.8.0;\n\nimport \"./Util.sol\";\nimport \"./IStatsDerive.sol\";\nimport \"./StatsDistrib.sol\";\n\ncontract DragonStats is IStatsDerive {\n    bytes32 public constant VERSION = keccak256(abi.encodePacked('DragonStats-v1'));\n    string public constant RARITY_STR = 'rarity';\n    string public constant RARITY_OVERRIDE_STR = 'rarity_override';\n    string public constant HEALTH_STR = 'health';\n    string public constant TYPE_STR   = 'type';\n    string public constant ATTACK_STR = 'attack';\n    string public constant DEFENSE_STR= 'defense';\n    string public constant CHARACTER_STR= 'character';\n    string public constant CHARACTER_NAME_STR= 'character_name';\n    bytes32 public constant H_RARITY_STR = keccak256(abi.encodePacked(RARITY_STR));\n    bytes32 public constant H_RARITY_OVERRIDE_STR = keccak256(abi.encodePacked(RARITY_OVERRIDE_STR));\n    bytes32 public constant H_HEALTH_STR = keccak256(abi.encodePacked(HEALTH_STR));\n    bytes32 public constant H_TYPE_STR = keccak256(abi.encodePacked(TYPE_STR));\n    bytes32 public constant H_ATTACK_STR = keccak256(abi.encodePacked(ATTACK_STR));\n    bytes32 public constant H_DEFENSE_STR = keccak256(abi.encodePacked(DEFENSE_STR));\n    bytes32 public constant H_CHARACTER_STR = keccak256(abi.encodePacked(CHARACTER_STR));\n    bytes32 public constant H_CHARACTER_NAME_STR = keccak256(abi.encodePacked(CHARACTER_NAME_STR));\n\n    string public constant CHARACTER_FIREZARD_STR = 'FireZard';\n    string public constant CHARACTER_FLAROZARD_STR = 'FlaroZard';\n    string public constant CHARACTER_EMBERZARD_STR = 'EmberZard';\n    string public constant CHARACTER_FLAMEBRYO_STR = 'Flamebryo';\n    string public constant CHARACTER_BLIZARD_STR = 'BliZard';\n    string public constant CHARACTER_FROZARD_STR = 'FroZard';\n    string public constant CHARACTER_CHILLAZARD_STR = 'ChillaZard';\n    string public constant CHARACTER_COOLBRYO_STR = 'Coolbryo';\n    string public constant CHARACTER_FLORAZARD_STR = 'FloraZard';\n    string public constant CHARACTER_BLOSZARD_STR = 'BlosZard';\n    string public constant CHARACTER_SPROUTYZARD_STR = 'SproutyZard';\n    string public constant CHARACTER_SEEDBRYO_STR = 'Seedbryo';\n    string public constant CHARACTER_LECTRAZARD_STR = 'LectraZard';\n    string public constant CHARACTER_VOLZARD_STR = 'VolZard';\n    string public constant CHARACTER_SPARKYZARD_STR = 'SparkyZard';\n    string public constant CHARACTER_ZAPBRYO_STR = 'Zapbryo';\n    string public constant CHARACTER_HYDRAZARD_STR = 'HydraZard';\n    string public constant CHARACTER_AQAZARD_STR = 'AqaZard';\n    string public constant CHARACTER_DRIPLAZARD_STR = 'DriplaZard';\n    string public constant CHARACTER_SPLASH_STR = 'Splashbryo';\n\n    string[] public CHARACTER_NAMES = [\n\tCHARACTER_FIREZARD_STR,   // 000\n\tCHARACTER_FIREZARD_STR,   // 001\n\tCHARACTER_FLAROZARD_STR,  // 002\n\tCHARACTER_FLAROZARD_STR,  // 003\n\tCHARACTER_FLAROZARD_STR,  // 004\n\tCHARACTER_EMBERZARD_STR,  // 005\n\tCHARACTER_EMBERZARD_STR,  // 006\n\tCHARACTER_EMBERZARD_STR,  // 007\n\tCHARACTER_FLAMEBRYO_STR,  // 008\n\tCHARACTER_FLAMEBRYO_STR,  // 009\n\tCHARACTER_FLAMEBRYO_STR,  // 010\n\tCHARACTER_FLAMEBRYO_STR,  // 011\n\tCHARACTER_FLAMEBRYO_STR,  // 012\n\tCHARACTER_BLIZARD_STR,    // 013\n\tCHARACTER_BLIZARD_STR,    // 014\n\tCHARACTER_FROZARD_STR,    // 015\n\tCHARACTER_FROZARD_STR,    // 016\n\tCHARACTER_FROZARD_STR,    // 017\n\tCHARACTER_CHILLAZARD_STR, // 018\n\tCHARACTER_CHILLAZARD_STR, // 019\n\tCHARACTER_CHILLAZARD_STR, // 020\n\tCHARACTER_COOLBRYO_STR,   // 021\n\tCHARACTER_COOLBRYO_STR,   // 022\n\tCHARACTER_COOLBRYO_STR,   // 023\n\tCHARACTER_COOLBRYO_STR,   // 024\n\tCHARACTER_COOLBRYO_STR,   // 025\n\tCHARACTER_FLORAZARD_STR,  // 026\n\tCHARACTER_FLORAZARD_STR,  // 027\n\tCHARACTER_BLOSZARD_STR,   // 028\n\tCHARACTER_BLOSZARD_STR,   // 029\n\tCHARACTER_BLOSZARD_STR,   // 030\n\tCHARACTER_SPROUTYZARD_STR,// 031\n\tCHARACTER_SPROUTYZARD_STR,// 032\n\tCHARACTER_SPROUTYZARD_STR,// 033\n\tCHARACTER_SEEDBRYO_STR,   // 034\n\tCHARACTER_SEEDBRYO_STR,   // 035\n\tCHARACTER_SEEDBRYO_STR,   // 036\n\tCHARACTER_SEEDBRYO_STR,   // 037\n\tCHARACTER_SEEDBRYO_STR,   // 038\n\tCHARACTER_LECTRAZARD_STR, // 039\n\tCHARACTER_LECTRAZARD_STR, // 040\n\tCHARACTER_VOLZARD_STR,    // 041\n\tCHARACTER_VOLZARD_STR,    // 042\n\tCHARACTER_VOLZARD_STR,    // 043\n\tCHARACTER_SPARKYZARD_STR, // 044\n\tCHARACTER_SPARKYZARD_STR, // 045\n\tCHARACTER_SPARKYZARD_STR, // 046\n\tCHARACTER_ZAPBRYO_STR,    // 047\n\tCHARACTER_ZAPBRYO_STR,    // 048\n\tCHARACTER_ZAPBRYO_STR,    // 049\n\tCHARACTER_ZAPBRYO_STR,    // 050\n\tCHARACTER_ZAPBRYO_STR,    // 051\n\tCHARACTER_HYDRAZARD_STR,  // 052\n\tCHARACTER_HYDRAZARD_STR,  // 053\n\tCHARACTER_AQAZARD_STR,    // 054\n\tCHARACTER_AQAZARD_STR,    // 055\n\tCHARACTER_AQAZARD_STR,    // 056\n\tCHARACTER_DRIPLAZARD_STR, // 057\n\tCHARACTER_DRIPLAZARD_STR, // 058\n\tCHARACTER_DRIPLAZARD_STR, // 059\n\tCHARACTER_SPLASH_STR,\t  // 060\n\tCHARACTER_SPLASH_STR,\t  // 061\n\tCHARACTER_SPLASH_STR,\t  // 062\n\tCHARACTER_SPLASH_STR,\t  // 063\n\tCHARACTER_SPLASH_STR\t  // 064\n    ];\n\n    uint256[] private  RARE_CHARACTER_DISTRIB = [1,1];\n    uint256   private constant RARE_CHARACTER_DISTRIB_SIZE = 3;\n    uint256[] private  UNCOMMON_CHARACTER_DISTRIB = [1,1];\n    uint256   private constant UNCOMMON_CHARACTER_DISTRIB_SIZE = 3;\n    uint256[] private  COMMON_CHARACTER_DISTRIB = [1,1,1,1];\n    uint256   private constant COMMON_CHARACTER_DISTRIB_SIZE = 5;\n\n    address public\tstatsDistrib;\n\n    constructor(address _statsDistrib){\n\tlinkStatsDistrib(_statsDistrib);\n    }\n\n    function linkStatsDistrib(address _statsDistrib) public {\n\tstatsDistrib = _statsDistrib;\n\temit StatsDistribLink(statsDistrib);\n    }\n\n    function deriveRarity(uint256 id) internal view returns (Util.CardRarity) {\n\tuint256 rvalue = uint256(keccak256(abi.encode(id,RARITY_STR)));\n\treturn Util.CardRarity(Util.getRandomItem(rvalue, StatsDistrib(statsDistrib).getDragonCardRarities(), StatsDistrib(statsDistrib).dragonCardRarityPopulationSize()));\n    }\n\n    function deriveType(uint256 id) internal view returns (Util.CardType) {\n\tuint256 rvalue = uint256(keccak256(abi.encode(id,TYPE_STR)));\n\treturn Util.CardType(Util.getRandomItem(rvalue, StatsDistrib(statsDistrib).getDragonCardTypes(), StatsDistrib(statsDistrib).dragonCardTypePopulationSize()));\n    }\n\n    function deriveCharacter(uint256 id, Util.CardRarity rarity, Util.CardType c_type) public view returns (uint256) {\n\tuint8 offset;\n\tif(c_type == Util.CardType.Fire)     offset = 0;\n\tif(c_type == Util.CardType.Ice)      offset = 13;\n\tif(c_type == Util.CardType.Plant)    offset = 26;\n\tif(c_type == Util.CardType.Electric) offset = 39;\n\tif(c_type == Util.CardType.Water)    offset = 52;\n\n\tif(rarity == Util.CardRarity.Ultra_Rare)\n\t    return offset;\n\tif(rarity == Util.CardRarity.Super_Rare)\n\t    return offset+1;\n\n\tuint256 rvalue = uint256(keccak256(abi.encode(id,CHARACTER_STR)));\n\n\tif(rarity == Util.CardRarity.Rare)\n\t    return offset+2+Util.getRandomItem(rvalue, RARE_CHARACTER_DISTRIB, RARE_CHARACTER_DISTRIB_SIZE);\n\n\tif(rarity == Util.CardRarity.Uncommon)\n\t    return offset+5+Util.getRandomItem(rvalue, UNCOMMON_CHARACTER_DISTRIB, UNCOMMON_CHARACTER_DISTRIB_SIZE);\n\n\tif(rarity == Util.CardRarity.Common)\n\t    return offset+8+Util.getRandomItem(rvalue, COMMON_CHARACTER_DISTRIB, COMMON_CHARACTER_DISTRIB_SIZE);\n\n\trevert(\"DragonStats: Failed to derive the character\");\n    }\n\n    function deriveCharacterName(uint256 character) public view returns (string memory) {\n\treturn CHARACTER_NAMES[character];\n    }\n\n    /**\n     * @notice Derive an integer stat from the card's ID by the stats' name\n     *\n     * @param id An id generated by an RNG\n     * @param name The stats' name\n     * @return The stats' value\n    **/\n    function getStatInt(bytes32 nft_type, uint256 id, string calldata name) external view returns (uint256){\n\trequire(nft_type == Util.DRAGON_CARD_TYPE_CODE, \"NFT must be of Dragon Card type\");\n\tbytes32 h_name = keccak256(abi.encodePacked(name));\n\tif(h_name == H_RARITY_STR)\n\t    return uint256(deriveRarity(id));\n\tif(h_name == H_TYPE_STR)\n\t    return uint256(deriveType(id));\n\tif(h_name == H_CHARACTER_STR){\n\t    revert(\"DragonStats: call deriveCharacter explicitly\");\n/*\t    Util.CardRarity rarity = deriveRarity(id);\n\t    Util.CardType   type   = deriveType(id);\n\t    uint256 character = deriveCharacter(id,rarity,type);\n\t    require(character <= 64, \"DragonStats: chartacter number out of bounds (64)\");\n\t    return character;*/\n\t}\n\tif((h_name == H_HEALTH_STR)||(h_name == H_ATTACK_STR)||(h_name == H_DEFENSE_STR))\n\t    return Util.MAX_UINT;\n\trevert(\"Unsupported stat\");\n    }\n\n    /**\n     * @notice Derive a string stat from the card's ID by the stats' name\n     *\n     * @param id An id generated by an RNG\n     * @param name The stats' name\n     * @return The stats' value\n    **/\n    function getStatString(bytes32 nft_type, uint256 id, string calldata name) external view returns (string calldata){\n\trequire(nft_type == Util.DRAGON_CARD_TYPE_CODE, \"NFT must be of Dragon Card type\");\n\tbytes32 h_name = keccak256(abi.encodePacked(name));\n\tif(h_name == H_CHARACTER_NAME_STR){\n\t    revert(\"DragonStats: call deriveCharacterName explicitly\");\n\t}\n\t\n\trevert(\"Unsupported stat\");\n    }\n\n    /**\n     * @notice Derive a 32 byte array stat from the card's ID by the stats' name\n     *\n     * @param id An id generated by an RNG\n     * @param name The stats' name\n     * @return The stats' value\n    **/\n    function getStatByte32(bytes32 nft_type, uint256 id, string calldata name) external view returns (bytes32){\n\trequire(nft_type == Util.DRAGON_CARD_TYPE_CODE, \"NFT must be of Dragon Card type\");\n\trevert(\"Unsupported stat\");\n    }\n\n    /**\n     * @notice Derive a boolean stat from the card's ID by the stats' name\n     *\n     * @param id An id generated by an RNG\n     * @param name The stats' name\n     * @return The stats' value\n    **/\n    function getStatBool(bytes32 nft_type, uint256 id, string calldata name) external view returns (bool){\n\trequire(nft_type == Util.DRAGON_CARD_TYPE_CODE, \"NFT must be of Dragon Card type\");\n\tbytes32 h_name = keccak256(abi.encodePacked(name));\n\tif(h_name == H_RARITY_OVERRIDE_STR)\n\t    return false;\n\trevert(\"Unsupported stat\");\n    }\n\n    /**\n     * @notice Defines a set of stats that can be derived\n     *\n     * @return An enumerable set (actually, an array) of stats that can be derived by the interface implementation\n    **/\n    function stats(bytes32 nft_type) external pure returns (Util.Stat[] memory) {\n\trequire(nft_type == Util.DRAGON_CARD_TYPE_CODE, \"NFT must be of Dragon Card type\");\n\tUtil.Stat[] memory stats_list = new Util.Stat[](8);\n\tstats_list[0] = Util.Stat(RARITY_STR, Util.StatType.Integer, false);\n\tstats_list[1] = Util.Stat(HEALTH_STR, Util.StatType.Integer, true);\n\tstats_list[2] = Util.Stat(TYPE_STR, Util.StatType.Integer, false);\n\tstats_list[3] = Util.Stat(ATTACK_STR, Util.StatType.Integer, true);\n\tstats_list[4] = Util.Stat(DEFENSE_STR, Util.StatType.Integer, true);\n\tstats_list[5] = Util.Stat(RARITY_OVERRIDE_STR, Util.StatType.Boolean, true);\n\tstats_list[6] = Util.Stat(CHARACTER_STR, Util.StatType.Integer, false);\n\tstats_list[7] = Util.Stat(CHARACTER_NAME_STR, Util.StatType.String, false);\n\treturn stats_list;\n    }\n\n    event StatsDistribLink(address _statsDistrib);\n}\n",
  "sourcePath": "/home/vrogojin/Projects/FireZard-main/FireZard/nft/contracts/DragonStats.sol",
  "compiler": {
    "name": "solc",
    "version": "0.8.9+commit.e5eed63a.Emscripten.clang"
  },
  "schemaVersion": "3.4.3",
  "updatedAt": "2022-01-23T15:02:25.459Z",
  "networkType": "ethereum",
  "devdoc": {
    "kind": "dev",
    "methods": {
      "getStatBool(bytes32,uint256,string)": {
        "params": {
          "id": "An id generated by an RNG",
          "name": "The stats' name"
        },
        "returns": {
          "_0": "The stats' value*"
        }
      },
      "getStatByte32(bytes32,uint256,string)": {
        "params": {
          "id": "An id generated by an RNG",
          "name": "The stats' name"
        },
        "returns": {
          "_0": "The stats' value*"
        }
      },
      "getStatInt(bytes32,uint256,string)": {
        "params": {
          "id": "An id generated by an RNG",
          "name": "The stats' name"
        },
        "returns": {
          "_0": "The stats' value*"
        }
      },
      "getStatString(bytes32,uint256,string)": {
        "params": {
          "id": "An id generated by an RNG",
          "name": "The stats' name"
        },
        "returns": {
          "_0": "The stats' value*"
        }
      },
      "stats(bytes32)": {
        "returns": {
          "_0": "An enumerable set (actually, an array) of stats that can be derived by the interface implementation*"
        }
      }
    },
    "version": 1
  },
  "userdoc": {
    "kind": "user",
    "methods": {
      "getStatBool(bytes32,uint256,string)": {
        "notice": "Derive a boolean stat from the card's ID by the stats' name"
      },
      "getStatByte32(bytes32,uint256,string)": {
        "notice": "Derive a 32 byte array stat from the card's ID by the stats' name"
      },
      "getStatInt(bytes32,uint256,string)": {
        "notice": "Derive an integer stat from the card's ID by the stats' name"
      },
      "getStatString(bytes32,uint256,string)": {
        "notice": "Derive a string stat from the card's ID by the stats' name"
      },
      "stats(bytes32)": {
        "notice": "Defines a set of stats that can be derived"
      }
    },
    "version": 1
  }
}