{
  "contractName": "DragonCardView",
  "abi": [
    {
      "inputs": [
        {
          "internalType": "address",
          "name": "viewer",
          "type": "address"
        },
        {
          "internalType": "address",
          "name": "nft_container",
          "type": "address"
        },
        {
          "internalType": "address",
          "name": "dragon_stats",
          "type": "address"
        }
      ],
      "stateMutability": "nonpayable",
      "type": "constructor"
    },
    {
      "anonymous": false,
      "inputs": [
        {
          "indexed": false,
          "internalType": "address",
          "name": "nft_addr",
          "type": "address"
        }
      ],
      "name": "NFTLink",
      "type": "event"
    },
    {
      "anonymous": false,
      "inputs": [
        {
          "indexed": true,
          "internalType": "address",
          "name": "previousOwner",
          "type": "address"
        },
        {
          "indexed": true,
          "internalType": "address",
          "name": "newOwner",
          "type": "address"
        }
      ],
      "name": "OwnershipTransferred",
      "type": "event"
    },
    {
      "anonymous": false,
      "inputs": [
        {
          "indexed": false,
          "internalType": "address",
          "name": "dragon_stats",
          "type": "address"
        }
      ],
      "name": "StatsLibLink",
      "type": "event"
    },
    {
      "anonymous": false,
      "inputs": [
        {
          "indexed": false,
          "internalType": "address",
          "name": "tag_addr",
          "type": "address"
        }
      ],
      "name": "ViewLink",
      "type": "event"
    },
    {
      "inputs": [],
      "name": "NFT_addr",
      "outputs": [
        {
          "internalType": "address",
          "name": "",
          "type": "address"
        }
      ],
      "stateMutability": "view",
      "type": "function"
    },
    {
      "inputs": [],
      "name": "VERSION",
      "outputs": [
        {
          "internalType": "bytes32",
          "name": "",
          "type": "bytes32"
        }
      ],
      "stateMutability": "view",
      "type": "function"
    },
    {
      "inputs": [],
      "name": "dragon_stats_addr",
      "outputs": [
        {
          "internalType": "address",
          "name": "",
          "type": "address"
        }
      ],
      "stateMutability": "view",
      "type": "function"
    },
    {
      "inputs": [],
      "name": "owner",
      "outputs": [
        {
          "internalType": "address",
          "name": "",
          "type": "address"
        }
      ],
      "stateMutability": "view",
      "type": "function"
    },
    {
      "inputs": [],
      "name": "renounceOwnership",
      "outputs": [],
      "stateMutability": "nonpayable",
      "type": "function"
    },
    {
      "inputs": [
        {
          "internalType": "address",
          "name": "newOwner",
          "type": "address"
        }
      ],
      "name": "transferOwnership",
      "outputs": [],
      "stateMutability": "nonpayable",
      "type": "function"
    },
    {
      "inputs": [],
      "name": "viewer_addr",
      "outputs": [
        {
          "internalType": "address",
          "name": "",
          "type": "address"
        }
      ],
      "stateMutability": "view",
      "type": "function"
    },
    {
      "inputs": [
        {
          "internalType": "address",
          "name": "viewer",
          "type": "address"
        }
      ],
      "name": "linkViewer",
      "outputs": [],
      "stateMutability": "nonpayable",
      "type": "function"
    },
    {
      "inputs": [
        {
          "internalType": "address",
          "name": "nft_container",
          "type": "address"
        }
      ],
      "name": "linkNFT",
      "outputs": [],
      "stateMutability": "nonpayable",
      "type": "function"
    },
    {
      "inputs": [
        {
          "internalType": "address",
          "name": "dragon_stats",
          "type": "address"
        }
      ],
      "name": "linkStatsLib",
      "outputs": [],
      "stateMutability": "nonpayable",
      "type": "function"
    },
    {
      "inputs": [
        {
          "internalType": "uint256",
          "name": "id",
          "type": "uint256"
        }
      ],
      "name": "getView",
      "outputs": [
        {
          "components": [
            {
              "internalType": "address",
              "name": "owner",
              "type": "address"
            },
            {
              "internalType": "uint256",
              "name": "stacked",
              "type": "uint256"
            },
            {
              "internalType": "bytes32",
              "name": "nft_type",
              "type": "bytes32"
            },
            {
              "internalType": "bytes32",
              "name": "version",
              "type": "bytes32"
            },
            {
              "internalType": "uint256",
              "name": "rarity",
              "type": "uint256"
            },
            {
              "internalType": "uint256",
              "name": "health",
              "type": "uint256"
            },
            {
              "internalType": "enum Util.CardType",
              "name": "card_type",
              "type": "uint8"
            },
            {
              "internalType": "uint256",
              "name": "attack",
              "type": "uint256"
            },
            {
              "internalType": "uint256",
              "name": "defense",
              "type": "uint256"
            }
          ],
          "internalType": "struct DragonCardView.DragonStatsView",
          "name": "",
          "type": "tuple"
        }
      ],
      "stateMutability": "view",
      "type": "function"
    }
  ],
  "bytecode": "0x608060405234801561001057600080fd5b5060405161109838038061109883398101604081905261002f916100e6565b6100383361007a565b600180546001600160a01b039485166001600160a01b031991821617909155600280549385169382169390931790925560038054919093169116179055610129565b600080546001600160a01b038381166001600160a01b0319831681178455604051919092169283917f8be0079c531659141344cd1fd0a4f28419497f9722a3daafe3b4186f6b6457e09190a35050565b80516001600160a01b03811681146100e157600080fd5b919050565b6000806000606084860312156100fb57600080fd5b610104846100ca565b9250610112602085016100ca565b9150610120604085016100ca565b90509250925092565b610f60806101386000396000f3fe608060405234801561001057600080fd5b50600436106100a95760003560e01c80638da5cb5b116100715780638da5cb5b1461012e57806397ffa3161461013f578063aadd048814610152578063ecc1d93b14610165578063f2fde38b14610178578063ffa1ad741461018b57600080fd5b80630b0c573c146100ae578063337bfccc146100de57806350b978a8146100fe578063715018a61461011157806388971bf51461011b575b600080fd5b6003546100c1906001600160a01b031681565b6040516001600160a01b0390911681526020015b60405180910390f35b6100f16100ec366004610ba5565b6101d1565b6040516100d59190610bd4565b6002546100c1906001600160a01b031681565b61011961090c565b005b610119610129366004610c72565b61094b565b6000546001600160a01b03166100c1565b6001546100c1906001600160a01b031681565b610119610160366004610c72565b6109ca565b610119610173366004610c72565b610a42565b610119610186366004610c72565b610aba565b6101c36040516c447261676f6e436172642d763160981b6020820152602d016040516020818303038152906040528051906020012081565b6040519081526020016100d5565b6102206040805161012081018252600080825260208201819052918101829052606081018290526080810182905260a081018290529060c0820190815260200160008152602001600081525090565b60025460405163c588ff8b60e01b8152600481018490526000916001600160a01b03169063c588ff8b90602401602060405180830381865afa15801561026a573d6000803e3d6000fd5b505050506040513d601f19601f8201168201806040525081019061028e9190610c96565b90506000600360009054906101000a90046001600160a01b03166001600160a01b03166391a7f8b06040518163ffffffff1660e01b8152600401600060405180830381865afa1580156102e5573d6000803e3d6000fd5b505050506040513d6000823e601f3d908101601f1916820160405261030d9190810190610da6565b90506000600360009054906101000a90046001600160a01b03166001600160a01b031663fa97af906040518163ffffffff1660e01b8152600401600060405180830381865afa158015610364573d6000803e3d6000fd5b505050506040513d6000823e601f3d908101601f1916820160405261038c9190810190610da6565b90506000600360009054906101000a90046001600160a01b03166001600160a01b031663d9fb28fc6040518163ffffffff1660e01b8152600401600060405180830381865afa1580156103e3573d6000803e3d6000fd5b505050506040513d6000823e601f3d908101601f1916820160405261040b9190810190610da6565b90506000600360009054906101000a90046001600160a01b03166001600160a01b031663b51e6dc76040518163ffffffff1660e01b8152600401600060405180830381865afa158015610462573d6000803e3d6000fd5b505050506040513d6000823e601f3d908101601f1916820160405261048a9190810190610da6565b90506000600360009054906101000a90046001600160a01b03166001600160a01b031663c7a6ffc96040518163ffffffff1660e01b8152600401600060405180830381865afa1580156104e1573d6000803e3d6000fd5b505050506040513d6000823e601f3d908101601f191682016040526105099190810190610da6565b604080516101208101918290526002546331a9108f60e11b90925261012481018b905291925081906001600160a01b0316636352211e6101448301602060405180830381865afa158015610561573d6000803e3d6000fd5b505050506040513d601f19601f820116820180604052508101906105859190610de3565b6001600160a01b03908116825260025460405163bd85b03960e01b8152600481018d905260209093019291169063bd85b03990602401602060405180830381865afa1580156105d8573d6000803e3d6000fd5b505050506040513d601f19601f820116820180604052508101906105fc9190610c96565b815260200187815260200160405160200161062a906c447261676f6e436172642d763160981b8152600d0190565b60408051601f19818403018152918152815160209283012083526001549051638462357360e01b815292909101916001600160a01b039091169063846235739061067c908b908e908c90600401610e00565b600060405180830381865afa158015610699573d6000803e3d6000fd5b505050506040513d6000823e601f3d908101601f191682016040526106c19190810190610e41565b6020908101518252600154604051638462357360e01b815292909101916001600160a01b0390911690638462357390610702908b908e908b90600401610e00565b600060405180830381865afa15801561071f573d6000803e3d6000fd5b505050506040513d6000823e601f3d908101601f191682016040526107479190810190610e41565b6020908101518252600154604051638462357360e01b815292909101916001600160a01b0390911690638462357390610788908b908e908a90600401610e00565b600060405180830381865afa1580156107a5573d6000803e3d6000fd5b505050506040513d6000823e601f3d908101601f191682016040526107cd9190810190610e41565b6020015160048111156107e2576107e2610bbe565b60048111156107f3576107f3610bbe565b8152600154604051638462357360e01b81526020909201916001600160a01b039091169063846235739061082f908b908e908990600401610e00565b600060405180830381865afa15801561084c573d6000803e3d6000fd5b505050506040513d6000823e601f3d908101601f191682016040526108749190810190610e41565b6020908101518252600154604051638462357360e01b815292909101916001600160a01b03909116906384623573906108b5908b908e908890600401610e00565b600060405180830381865afa1580156108d2573d6000803e3d6000fd5b505050506040513d6000823e601f3d908101601f191682016040526108fa9190810190610e41565b60200151905298975050505050505050565b6000546001600160a01b0316331461093f5760405162461bcd60e51b815260040161093690610ef5565b60405180910390fd5b6109496000610b55565b565b6000546001600160a01b031633146109755760405162461bcd60e51b815260040161093690610ef5565b600380546001600160a01b0319166001600160a01b0383169081179091556040519081527f8eabd18158736228e0bcd01444e967ae9262cdb0e8a88fb154542a13f701bf7b906020015b60405180910390a150565b6000546001600160a01b031633146109f45760405162461bcd60e51b815260040161093690610ef5565b600280546001600160a01b0319166001600160a01b0383169081179091556040519081527f7869e3c19f5ec29481a8433791a06441db7b22cd85336da47df97fd7b686ba2a906020016109bf565b6000546001600160a01b03163314610a6c5760405162461bcd60e51b815260040161093690610ef5565b600180546001600160a01b0319166001600160a01b0383169081179091556040519081527f6a18b90af8b2ae0add67d0ae89a6972d279fd5888cd58c820f581fa70f2d54bd906020016109bf565b6000546001600160a01b03163314610ae45760405162461bcd60e51b815260040161093690610ef5565b6001600160a01b038116610b495760405162461bcd60e51b815260206004820152602660248201527f4f776e61626c653a206e6577206f776e657220697320746865207a65726f206160448201526564647265737360d01b6064820152608401610936565b610b5281610b55565b50565b600080546001600160a01b038381166001600160a01b0319831681178455604051919092169283917f8be0079c531659141344cd1fd0a4f28419497f9722a3daafe3b4186f6b6457e09190a35050565b600060208284031215610bb757600080fd5b5035919050565b634e487b7160e01b600052602160045260246000fd5b81516001600160a01b031681526020808301519082015260408083015190820152606080830151908201526080808301519082015260a0828101519082015260c082015161012082019060058110610c3c57634e487b7160e01b600052602160045260246000fd5b60c083015260e0838101519083015261010092830151929091019190915290565b6001600160a01b0381168114610b5257600080fd5b600060208284031215610c8457600080fd5b8135610c8f81610c5d565b9392505050565b600060208284031215610ca857600080fd5b5051919050565b634e487b7160e01b600052604160045260246000fd5b60405160a0810167ffffffffffffffff81118282101715610ce857610ce8610caf565b60405290565b60005b83811015610d09578181015183820152602001610cf1565b83811115610d18576000848401525b50505050565b600082601f830112610d2f57600080fd5b815167ffffffffffffffff80821115610d4a57610d4a610caf565b604051601f8301601f19908116603f01168101908282118183101715610d7257610d72610caf565b81604052838152866020858801011115610d8b57600080fd5b610d9c846020830160208901610cee565b9695505050505050565b600060208284031215610db857600080fd5b815167ffffffffffffffff811115610dcf57600080fd5b610ddb84828501610d1e565b949350505050565b600060208284031215610df557600080fd5b8151610c8f81610c5d565b8381528260208201526060604082015260008251806060840152610e2b816080850160208701610cee565b601f01601f191691909101608001949350505050565b600060208284031215610e5357600080fd5b815167ffffffffffffffff80821115610e6b57600080fd5b9083019060a08286031215610e7f57600080fd5b610e87610cc5565b825160048110610e9657600080fd5b815260208381015190820152604083015182811115610eb457600080fd5b610ec087828601610d1e565b60408301525060608301516060820152608083015192508215158314610ee557600080fd5b6080810192909252509392505050565b6020808252818101527f4f776e61626c653a2063616c6c6572206973206e6f7420746865206f776e657260408201526060019056fea2646970667358221220befcd6d8afa30c7f897f60c33a7b49f0877c7b8b25b66b3901ecd62d52e54d6f64736f6c634300080b0033",
  "immutableReferences": {},
  "source": "\npragma solidity ^0.8;\n\nimport \"@openzeppelin/contracts/access/Ownable.sol\";\nimport \"./FireZardNFT.sol\";\nimport \"./StatsView.sol\";\nimport \"./DragonStats.sol\";\nimport {Util} from \"./Util.sol\";\n\ncontract DragonCardView is Ownable{\n\n    address public\tviewer_addr;\n    address public\tNFT_addr;\n    address public\tdragon_stats_addr;\n\n    bytes32 public constant VERSION=keccak256(abi.encodePacked('DragonCard-v1'));\n\n    struct DragonStatsView{\n\taddress owner;\n\tuint256 stacked;\n\n\tbytes32 nft_type;\n\tbytes32 version;\n\n\tuint256 rarity;\n\tuint256 health;\n\tUtil.CardType card_type;\n\tuint256 attack;\n\tuint256 defense;\n    }\n\n    constructor(address viewer, address nft_container, address dragon_stats){\n\tviewer_addr = viewer;\n\tNFT_addr = nft_container;\n\tdragon_stats_addr = dragon_stats;\n    }\n\n    /**\n     * @notice Sets link to Tag Storage smart contract\n    **/\n    function linkViewer(address viewer) public virtual onlyOwner {\n        viewer_addr = viewer;\n        emit ViewLink(viewer);\n    }\n\n    /**\n     * @notice Sets link to ERC1155 NFT smart contract\n    **/\n    function linkNFT(address nft_container) public virtual onlyOwner {\n        NFT_addr = nft_container;\n        emit NFTLink(nft_container);\n    }\n\n    /**\n     * @notice Sets link to the Stats deriving library\n    **/\n    function linkStatsLib(address dragon_stats) public virtual onlyOwner {\n        dragon_stats_addr = dragon_stats;\n        emit StatsLibLink(dragon_stats);\n    }\n\n    function getView(uint256 id) public view returns (DragonStatsView memory) {\n\tbytes32 nft_type = FireZardNFT(NFT_addr).typeOf(id);\n\tstring memory\trarity  = DragonStats(dragon_stats_addr).RARITY_STR();\n\tstring memory\thealth  = DragonStats(dragon_stats_addr).HEALTH_STR();\n\tstring memory\ttype_s  = DragonStats(dragon_stats_addr).TYPE_STR();\n\tstring memory\tattack  = DragonStats(dragon_stats_addr).ATTACK_STR();\n\tstring memory\tdefense = DragonStats(dragon_stats_addr).DEFENSE_STR();\n\treturn DragonStatsView(\n\t    FireZardNFT(NFT_addr).ownerOf(id),\n\t    FireZardNFT(NFT_addr).totalSupply(id),\n\t    nft_type,\n\t    VERSION,\n\t    StatsView(viewer_addr).getStat(nft_type, id, rarity).int_val,\n\t    StatsView(viewer_addr).getStat(nft_type, id, health).int_val,\n\t    Util.CardType(StatsView(viewer_addr).getStat(nft_type, id, type_s).int_val),\n\t    StatsView(viewer_addr).getStat(nft_type, id, attack).int_val,\n\t    StatsView(viewer_addr).getStat(nft_type, id, defense).int_val\n\t);\n    }\n\n    event\tViewLink(address tag_addr);\n    event\tNFTLink(address nft_addr);\n    event\tStatsLibLink(address dragon_stats);\n}\n",
  "sourcePath": "/home/vrogojin/Projects/FireZard/nft/contracts/DragonCardView.sol",
  "compiler": {
    "name": "solc",
    "version": "0.8.11+commit.d7f03943.Emscripten.clang"
  },
  "schemaVersion": "3.4.3",
  "updatedAt": "2022-01-23T20:10:49.246Z",
  "devdoc": {
    "kind": "dev",
    "methods": {
      "owner()": {
        "details": "Returns the address of the current owner."
      },
      "renounceOwnership()": {
        "details": "Leaves the contract without owner. It will not be possible to call `onlyOwner` functions anymore. Can only be called by the current owner. NOTE: Renouncing ownership will leave the contract without an owner, thereby removing any functionality that is only available to the owner."
      },
      "transferOwnership(address)": {
        "details": "Transfers ownership of the contract to a new account (`newOwner`). Can only be called by the current owner."
      }
    },
    "version": 1
  },
  "userdoc": {
    "kind": "user",
    "methods": {
      "linkNFT(address)": {
        "notice": "Sets link to ERC1155 NFT smart contract*"
      },
      "linkStatsLib(address)": {
        "notice": "Sets link to the Stats deriving library*"
      },
      "linkViewer(address)": {
        "notice": "Sets link to Tag Storage smart contract*"
      }
    },
    "version": 1
  }
}