{
  "contractName": "ERC1155PausableMock",
  "abi": [
    {
      "inputs": [
        {
          "internalType": "string",
          "name": "_uri",
          "type": "string"
        },
        {
          "internalType": "string",
          "name": "name_",
          "type": "string"
        },
        {
          "internalType": "string",
          "name": "symbol_",
          "type": "string"
        }
      ],
      "stateMutability": "nonpayable",
      "type": "constructor"
    },
    {
      "anonymous": false,
      "inputs": [
        {
          "indexed": true,
          "internalType": "address",
          "name": "owner",
          "type": "address"
        },
        {
          "indexed": true,
          "internalType": "address",
          "name": "approved",
          "type": "address"
        },
        {
          "indexed": true,
          "internalType": "uint256",
          "name": "tokenId",
          "type": "uint256"
        }
      ],
      "name": "Approval",
      "type": "event"
    },
    {
      "anonymous": false,
      "inputs": [
        {
          "indexed": true,
          "internalType": "address",
          "name": "owner",
          "type": "address"
        },
        {
          "indexed": true,
          "internalType": "address",
          "name": "operator",
          "type": "address"
        },
        {
          "indexed": false,
          "internalType": "bool",
          "name": "approved",
          "type": "bool"
        }
      ],
      "name": "ApprovalForAll",
      "type": "event"
    },
    {
      "anonymous": false,
      "inputs": [
        {
          "indexed": false,
          "internalType": "address",
          "name": "account",
          "type": "address"
        }
      ],
      "name": "Paused",
      "type": "event"
    },
    {
      "anonymous": false,
      "inputs": [
        {
          "indexed": true,
          "internalType": "bytes32",
          "name": "role",
          "type": "bytes32"
        },
        {
          "indexed": true,
          "internalType": "bytes32",
          "name": "previousAdminRole",
          "type": "bytes32"
        },
        {
          "indexed": true,
          "internalType": "bytes32",
          "name": "newAdminRole",
          "type": "bytes32"
        }
      ],
      "name": "RoleAdminChanged",
      "type": "event"
    },
    {
      "anonymous": false,
      "inputs": [
        {
          "indexed": true,
          "internalType": "bytes32",
          "name": "role",
          "type": "bytes32"
        },
        {
          "indexed": true,
          "internalType": "address",
          "name": "account",
          "type": "address"
        },
        {
          "indexed": true,
          "internalType": "address",
          "name": "sender",
          "type": "address"
        }
      ],
      "name": "RoleGranted",
      "type": "event"
    },
    {
      "anonymous": false,
      "inputs": [
        {
          "indexed": true,
          "internalType": "bytes32",
          "name": "role",
          "type": "bytes32"
        },
        {
          "indexed": true,
          "internalType": "address",
          "name": "account",
          "type": "address"
        },
        {
          "indexed": true,
          "internalType": "address",
          "name": "sender",
          "type": "address"
        }
      ],
      "name": "RoleRevoked",
      "type": "event"
    },
    {
      "anonymous": false,
      "inputs": [
        {
          "indexed": true,
          "internalType": "address",
          "name": "from",
          "type": "address"
        },
        {
          "indexed": true,
          "internalType": "address",
          "name": "to",
          "type": "address"
        },
        {
          "indexed": true,
          "internalType": "uint256",
          "name": "tokenId",
          "type": "uint256"
        }
      ],
      "name": "Transfer",
      "type": "event"
    },
    {
      "anonymous": false,
      "inputs": [
        {
          "indexed": true,
          "internalType": "address",
          "name": "operator",
          "type": "address"
        },
        {
          "indexed": true,
          "internalType": "address",
          "name": "from",
          "type": "address"
        },
        {
          "indexed": true,
          "internalType": "address",
          "name": "to",
          "type": "address"
        },
        {
          "indexed": false,
          "internalType": "uint256[]",
          "name": "ids",
          "type": "uint256[]"
        },
        {
          "indexed": false,
          "internalType": "uint256[]",
          "name": "values",
          "type": "uint256[]"
        }
      ],
      "name": "TransferBatch",
      "type": "event"
    },
    {
      "anonymous": false,
      "inputs": [
        {
          "indexed": true,
          "internalType": "address",
          "name": "operator",
          "type": "address"
        },
        {
          "indexed": true,
          "internalType": "address",
          "name": "from",
          "type": "address"
        },
        {
          "indexed": true,
          "internalType": "address",
          "name": "to",
          "type": "address"
        },
        {
          "indexed": false,
          "internalType": "uint256",
          "name": "id",
          "type": "uint256"
        },
        {
          "indexed": false,
          "internalType": "uint256",
          "name": "value",
          "type": "uint256"
        }
      ],
      "name": "TransferSingle",
      "type": "event"
    },
    {
      "anonymous": false,
      "inputs": [
        {
          "indexed": false,
          "internalType": "string",
          "name": "value",
          "type": "string"
        },
        {
          "indexed": true,
          "internalType": "uint256",
          "name": "id",
          "type": "uint256"
        }
      ],
      "name": "URI",
      "type": "event"
    },
    {
      "anonymous": false,
      "inputs": [
        {
          "indexed": false,
          "internalType": "address",
          "name": "account",
          "type": "address"
        }
      ],
      "name": "Unpaused",
      "type": "event"
    },
    {
      "inputs": [],
      "name": "DEFAULT_ADMIN_ROLE",
      "outputs": [
        {
          "internalType": "bytes32",
          "name": "",
          "type": "bytes32"
        }
      ],
      "stateMutability": "view",
      "type": "function"
    },
    {
      "inputs": [],
      "name": "MINTER_ROLE",
      "outputs": [
        {
          "internalType": "bytes32",
          "name": "",
          "type": "bytes32"
        }
      ],
      "stateMutability": "view",
      "type": "function"
    },
    {
      "inputs": [],
      "name": "PAUSER_ROLE",
      "outputs": [
        {
          "internalType": "bytes32",
          "name": "",
          "type": "bytes32"
        }
      ],
      "stateMutability": "view",
      "type": "function"
    },
    {
      "inputs": [
        {
          "internalType": "address",
          "name": "to",
          "type": "address"
        },
        {
          "internalType": "uint256",
          "name": "tokenId",
          "type": "uint256"
        }
      ],
      "name": "approve",
      "outputs": [],
      "stateMutability": "nonpayable",
      "type": "function"
    },
    {
      "inputs": [
        {
          "internalType": "address",
          "name": "account",
          "type": "address"
        },
        {
          "internalType": "uint256",
          "name": "id",
          "type": "uint256"
        }
      ],
      "name": "balanceOf",
      "outputs": [
        {
          "internalType": "uint256",
          "name": "",
          "type": "uint256"
        }
      ],
      "stateMutability": "view",
      "type": "function"
    },
    {
      "inputs": [
        {
          "internalType": "address",
          "name": "owner",
          "type": "address"
        }
      ],
      "name": "balanceOf",
      "outputs": [
        {
          "internalType": "uint256",
          "name": "balance",
          "type": "uint256"
        }
      ],
      "stateMutability": "view",
      "type": "function"
    },
    {
      "inputs": [
        {
          "internalType": "address[]",
          "name": "accounts",
          "type": "address[]"
        },
        {
          "internalType": "uint256[]",
          "name": "ids",
          "type": "uint256[]"
        }
      ],
      "name": "balanceOfBatch",
      "outputs": [
        {
          "internalType": "uint256[]",
          "name": "",
          "type": "uint256[]"
        }
      ],
      "stateMutability": "view",
      "type": "function"
    },
    {
      "inputs": [
        {
          "internalType": "address",
          "name": "from",
          "type": "address"
        },
        {
          "internalType": "uint256",
          "name": "id",
          "type": "uint256"
        },
        {
          "internalType": "uint256",
          "name": "amount",
          "type": "uint256"
        }
      ],
      "name": "burn",
      "outputs": [],
      "stateMutability": "nonpayable",
      "type": "function"
    },
    {
      "inputs": [
        {
          "internalType": "address",
          "name": "from",
          "type": "address"
        },
        {
          "internalType": "uint256[]",
          "name": "ids",
          "type": "uint256[]"
        },
        {
          "internalType": "uint256[]",
          "name": "amounts",
          "type": "uint256[]"
        }
      ],
      "name": "burnBatch",
      "outputs": [],
      "stateMutability": "nonpayable",
      "type": "function"
    },
    {
      "inputs": [
        {
          "internalType": "uint256",
          "name": "id",
          "type": "uint256"
        }
      ],
      "name": "exists",
      "outputs": [
        {
          "internalType": "bool",
          "name": "",
          "type": "bool"
        }
      ],
      "stateMutability": "view",
      "type": "function"
    },
    {
      "inputs": [
        {
          "internalType": "uint256",
          "name": "tokenId",
          "type": "uint256"
        }
      ],
      "name": "getApproved",
      "outputs": [
        {
          "internalType": "address",
          "name": "operator",
          "type": "address"
        }
      ],
      "stateMutability": "view",
      "type": "function"
    },
    {
      "inputs": [
        {
          "internalType": "bytes32",
          "name": "role",
          "type": "bytes32"
        }
      ],
      "name": "getRoleAdmin",
      "outputs": [
        {
          "internalType": "bytes32",
          "name": "",
          "type": "bytes32"
        }
      ],
      "stateMutability": "view",
      "type": "function"
    },
    {
      "inputs": [
        {
          "internalType": "bytes32",
          "name": "role",
          "type": "bytes32"
        },
        {
          "internalType": "uint256",
          "name": "index",
          "type": "uint256"
        }
      ],
      "name": "getRoleMember",
      "outputs": [
        {
          "internalType": "address",
          "name": "",
          "type": "address"
        }
      ],
      "stateMutability": "view",
      "type": "function"
    },
    {
      "inputs": [
        {
          "internalType": "bytes32",
          "name": "role",
          "type": "bytes32"
        }
      ],
      "name": "getRoleMemberCount",
      "outputs": [
        {
          "internalType": "uint256",
          "name": "",
          "type": "uint256"
        }
      ],
      "stateMutability": "view",
      "type": "function"
    },
    {
      "inputs": [
        {
          "internalType": "bytes32",
          "name": "role",
          "type": "bytes32"
        },
        {
          "internalType": "address",
          "name": "account",
          "type": "address"
        }
      ],
      "name": "grantRole",
      "outputs": [],
      "stateMutability": "nonpayable",
      "type": "function"
    },
    {
      "inputs": [
        {
          "internalType": "bytes32",
          "name": "role",
          "type": "bytes32"
        },
        {
          "internalType": "address",
          "name": "account",
          "type": "address"
        }
      ],
      "name": "hasRole",
      "outputs": [
        {
          "internalType": "bool",
          "name": "",
          "type": "bool"
        }
      ],
      "stateMutability": "view",
      "type": "function"
    },
    {
      "inputs": [
        {
          "internalType": "address",
          "name": "",
          "type": "address"
        },
        {
          "internalType": "uint256",
          "name": "",
          "type": "uint256"
        }
      ],
      "name": "inventory",
      "outputs": [
        {
          "internalType": "uint256",
          "name": "",
          "type": "uint256"
        }
      ],
      "stateMutability": "view",
      "type": "function"
    },
    {
      "inputs": [
        {
          "internalType": "address",
          "name": "account",
          "type": "address"
        },
        {
          "internalType": "address",
          "name": "operator",
          "type": "address"
        }
      ],
      "name": "isApprovedForAll",
      "outputs": [
        {
          "internalType": "bool",
          "name": "",
          "type": "bool"
        }
      ],
      "stateMutability": "view",
      "type": "function"
    },
    {
      "inputs": [
        {
          "internalType": "address",
          "name": "to",
          "type": "address"
        },
        {
          "internalType": "uint256",
          "name": "id",
          "type": "uint256"
        },
        {
          "internalType": "uint256",
          "name": "amount",
          "type": "uint256"
        },
        {
          "internalType": "bytes",
          "name": "data",
          "type": "bytes"
        }
      ],
      "name": "mint",
      "outputs": [],
      "stateMutability": "nonpayable",
      "type": "function"
    },
    {
      "inputs": [
        {
          "internalType": "address",
          "name": "to",
          "type": "address"
        },
        {
          "internalType": "uint256[]",
          "name": "ids",
          "type": "uint256[]"
        },
        {
          "internalType": "uint256[]",
          "name": "amounts",
          "type": "uint256[]"
        },
        {
          "internalType": "bytes",
          "name": "data",
          "type": "bytes"
        }
      ],
      "name": "mintBatch",
      "outputs": [],
      "stateMutability": "nonpayable",
      "type": "function"
    },
    {
      "inputs": [],
      "name": "name",
      "outputs": [
        {
          "internalType": "string",
          "name": "",
          "type": "string"
        }
      ],
      "stateMutability": "view",
      "type": "function"
    },
    {
      "inputs": [
        {
          "internalType": "uint256",
          "name": "tokenId",
          "type": "uint256"
        }
      ],
      "name": "ownerOf",
      "outputs": [
        {
          "internalType": "address",
          "name": "owner",
          "type": "address"
        }
      ],
      "stateMutability": "view",
      "type": "function"
    },
    {
      "inputs": [
        {
          "internalType": "uint256",
          "name": "id",
          "type": "uint256"
        }
      ],
      "name": "ownersOf",
      "outputs": [
        {
          "internalType": "address[]",
          "name": "",
          "type": "address[]"
        }
      ],
      "stateMutability": "view",
      "type": "function"
    },
    {
      "inputs": [
        {
          "internalType": "uint256",
          "name": "",
          "type": "uint256"
        },
        {
          "internalType": "uint256",
          "name": "",
          "type": "uint256"
        }
      ],
      "name": "ownership",
      "outputs": [
        {
          "internalType": "address",
          "name": "",
          "type": "address"
        }
      ],
      "stateMutability": "view",
      "type": "function"
    },
    {
      "inputs": [],
      "name": "pause",
      "outputs": [],
      "stateMutability": "nonpayable",
      "type": "function"
    },
    {
      "inputs": [],
      "name": "paused",
      "outputs": [
        {
          "internalType": "bool",
          "name": "",
          "type": "bool"
        }
      ],
      "stateMutability": "view",
      "type": "function"
    },
    {
      "inputs": [
        {
          "internalType": "bytes32",
          "name": "role",
          "type": "bytes32"
        },
        {
          "internalType": "address",
          "name": "account",
          "type": "address"
        }
      ],
      "name": "renounceRole",
      "outputs": [],
      "stateMutability": "nonpayable",
      "type": "function"
    },
    {
      "inputs": [
        {
          "internalType": "bytes32",
          "name": "role",
          "type": "bytes32"
        },
        {
          "internalType": "address",
          "name": "account",
          "type": "address"
        }
      ],
      "name": "revokeRole",
      "outputs": [],
      "stateMutability": "nonpayable",
      "type": "function"
    },
    {
      "inputs": [
        {
          "internalType": "address",
          "name": "from",
          "type": "address"
        },
        {
          "internalType": "address",
          "name": "to",
          "type": "address"
        },
        {
          "internalType": "uint256[]",
          "name": "ids",
          "type": "uint256[]"
        },
        {
          "internalType": "uint256[]",
          "name": "amounts",
          "type": "uint256[]"
        },
        {
          "internalType": "bytes",
          "name": "data",
          "type": "bytes"
        }
      ],
      "name": "safeBatchTransferFrom",
      "outputs": [],
      "stateMutability": "nonpayable",
      "type": "function"
    },
    {
      "inputs": [
        {
          "internalType": "address",
          "name": "from",
          "type": "address"
        },
        {
          "internalType": "address",
          "name": "to",
          "type": "address"
        },
        {
          "internalType": "uint256",
          "name": "tokenId",
          "type": "uint256"
        }
      ],
      "name": "safeTransferFrom",
      "outputs": [],
      "stateMutability": "nonpayable",
      "type": "function"
    },
    {
      "inputs": [
        {
          "internalType": "address",
          "name": "from",
          "type": "address"
        },
        {
          "internalType": "address",
          "name": "to",
          "type": "address"
        },
        {
          "internalType": "uint256",
          "name": "tokenId",
          "type": "uint256"
        },
        {
          "internalType": "bytes",
          "name": "data",
          "type": "bytes"
        }
      ],
      "name": "safeTransferFrom",
      "outputs": [],
      "stateMutability": "nonpayable",
      "type": "function"
    },
    {
      "inputs": [
        {
          "internalType": "address",
          "name": "from",
          "type": "address"
        },
        {
          "internalType": "address",
          "name": "to",
          "type": "address"
        },
        {
          "internalType": "uint256",
          "name": "id",
          "type": "uint256"
        },
        {
          "internalType": "uint256",
          "name": "amount",
          "type": "uint256"
        },
        {
          "internalType": "bytes",
          "name": "data",
          "type": "bytes"
        }
      ],
      "name": "safeTransferFrom",
      "outputs": [],
      "stateMutability": "nonpayable",
      "type": "function"
    },
    {
      "inputs": [
        {
          "internalType": "address",
          "name": "operator",
          "type": "address"
        },
        {
          "internalType": "bool",
          "name": "approved",
          "type": "bool"
        }
      ],
      "name": "setApprovalForAll",
      "outputs": [],
      "stateMutability": "nonpayable",
      "type": "function"
    },
    {
      "inputs": [
        {
          "internalType": "string",
          "name": "token_uri",
          "type": "string"
        }
      ],
      "name": "setURI",
      "outputs": [],
      "stateMutability": "nonpayable",
      "type": "function"
    },
    {
      "inputs": [
        {
          "internalType": "string",
          "name": "token_uri",
          "type": "string"
        },
        {
          "internalType": "uint256",
          "name": "token_id",
          "type": "uint256"
        }
      ],
      "name": "setURI",
      "outputs": [],
      "stateMutability": "nonpayable",
      "type": "function"
    },
    {
      "inputs": [
        {
          "internalType": "bytes4",
          "name": "interfaceId",
          "type": "bytes4"
        }
      ],
      "name": "supportsInterface",
      "outputs": [
        {
          "internalType": "bool",
          "name": "",
          "type": "bool"
        }
      ],
      "stateMutability": "view",
      "type": "function"
    },
    {
      "inputs": [],
      "name": "symbol",
      "outputs": [
        {
          "internalType": "string",
          "name": "",
          "type": "string"
        }
      ],
      "stateMutability": "view",
      "type": "function"
    },
    {
      "inputs": [
        {
          "internalType": "uint256",
          "name": "index",
          "type": "uint256"
        }
      ],
      "name": "tokenByIndex",
      "outputs": [
        {
          "internalType": "uint256",
          "name": "",
          "type": "uint256"
        }
      ],
      "stateMutability": "view",
      "type": "function"
    },
    {
      "inputs": [
        {
          "internalType": "uint256",
          "name": "",
          "type": "uint256"
        }
      ],
      "name": "tokenIndex",
      "outputs": [
        {
          "internalType": "uint256",
          "name": "",
          "type": "uint256"
        }
      ],
      "stateMutability": "view",
      "type": "function"
    },
    {
      "inputs": [
        {
          "internalType": "address",
          "name": "owner",
          "type": "address"
        },
        {
          "internalType": "uint256",
          "name": "index",
          "type": "uint256"
        }
      ],
      "name": "tokenOfOwnerByIndex",
      "outputs": [
        {
          "internalType": "uint256",
          "name": "tokenId",
          "type": "uint256"
        }
      ],
      "stateMutability": "view",
      "type": "function"
    },
    {
      "inputs": [
        {
          "internalType": "uint256",
          "name": "tokenId",
          "type": "uint256"
        }
      ],
      "name": "tokenURI",
      "outputs": [
        {
          "internalType": "string",
          "name": "",
          "type": "string"
        }
      ],
      "stateMutability": "view",
      "type": "function"
    },
    {
      "inputs": [
        {
          "internalType": "uint256",
          "name": "",
          "type": "uint256"
        }
      ],
      "name": "token_type",
      "outputs": [
        {
          "internalType": "bytes32",
          "name": "",
          "type": "bytes32"
        }
      ],
      "stateMutability": "view",
      "type": "function"
    },
    {
      "inputs": [
        {
          "internalType": "uint256",
          "name": "",
          "type": "uint256"
        }
      ],
      "name": "tokens",
      "outputs": [
        {
          "internalType": "uint256",
          "name": "",
          "type": "uint256"
        }
      ],
      "stateMutability": "view",
      "type": "function"
    },
    {
      "inputs": [],
      "name": "totalSupply",
      "outputs": [
        {
          "internalType": "uint256",
          "name": "",
          "type": "uint256"
        }
      ],
      "stateMutability": "view",
      "type": "function"
    },
    {
      "inputs": [
        {
          "internalType": "uint256",
          "name": "id",
          "type": "uint256"
        }
      ],
      "name": "totalSupply",
      "outputs": [
        {
          "internalType": "uint256",
          "name": "",
          "type": "uint256"
        }
      ],
      "stateMutability": "view",
      "type": "function"
    },
    {
      "inputs": [
        {
          "internalType": "address",
          "name": "from",
          "type": "address"
        },
        {
          "internalType": "address",
          "name": "to",
          "type": "address"
        },
        {
          "internalType": "uint256",
          "name": "tokenId",
          "type": "uint256"
        }
      ],
      "name": "transferFrom",
      "outputs": [],
      "stateMutability": "nonpayable",
      "type": "function"
    },
    {
      "inputs": [
        {
          "internalType": "uint256",
          "name": "id",
          "type": "uint256"
        }
      ],
      "name": "typeOf",
      "outputs": [
        {
          "internalType": "bytes32",
          "name": "",
          "type": "bytes32"
        }
      ],
      "stateMutability": "view",
      "type": "function"
    },
    {
      "inputs": [],
      "name": "unpause",
      "outputs": [],
      "stateMutability": "nonpayable",
      "type": "function"
    },
    {
      "inputs": [
        {
          "internalType": "uint256",
          "name": "id",
          "type": "uint256"
        }
      ],
      "name": "uri",
      "outputs": [
        {
          "internalType": "string",
          "name": "",
          "type": "string"
        }
      ],
      "stateMutability": "view",
      "type": "function"
    }
  ],
  "bytecode": "0x60806040523480156200001157600080fd5b5060405162004683380380620046838339810160408190526200003491620003d4565b82828282806200004481620000ed565b506005805460ff191690556200005c60003362000106565b620000887f9f2df0fed2c77648de5860a4cc508cd0818c85b8b8a1ab4ceeef8d981c8956a63362000106565b620000b47f65d7a28e3265b37a6474929f336521b332c1681b933f6cb9f3376673440d862a3362000106565b508151620000ca90600790602085019062000261565b508051620000e090600890602084019062000261565b50505050505050620004a2565b80516200010290600490602084019062000261565b5050565b6200010282826200012382826200014f60201b620015061760201c565b60008281526001602090815260409091206200014a9183906200158a620001ef821b17901c565b505050565b6000828152602081815260408083206001600160a01b038516845290915290205460ff1662000102576000828152602081815260408083206001600160a01b03851684529091529020805460ff19166001179055620001ab3390565b6001600160a01b0316816001600160a01b0316837f2f8788117e7eff1d82e926ec794901d17c78024a50270940304540a733656f0d60405160405180910390a45050565b600062000206836001600160a01b0384166200020f565b90505b92915050565b6000818152600183016020526040812054620002585750815460018181018455600084815260208082209093018490558454848252828601909352604090209190915562000209565b50600062000209565b8280546200026f9062000465565b90600052602060002090601f016020900481019282620002935760008555620002de565b82601f10620002ae57805160ff1916838001178555620002de565b82800160010185558215620002de579182015b82811115620002de578251825591602001919060010190620002c1565b50620002ec929150620002f0565b5090565b5b80821115620002ec5760008155600101620002f1565b634e487b7160e01b600052604160045260246000fd5b600082601f8301126200032f57600080fd5b81516001600160401b03808211156200034c576200034c62000307565b604051601f8301601f19908116603f0116810190828211818310171562000377576200037762000307565b816040528381526020925086838588010111156200039457600080fd5b600091505b83821015620003b8578582018301518183018401529082019062000399565b83821115620003ca5760008385830101525b9695505050505050565b600080600060608486031215620003ea57600080fd5b83516001600160401b03808211156200040257600080fd5b62000410878388016200031d565b945060208601519150808211156200042757600080fd5b62000435878388016200031d565b935060408601519150808211156200044c57600080fd5b506200045b868287016200031d565b9150509250925092565b600181811c908216806200047a57607f821691505b602082108114156200049c57634e487b7160e01b600052602260045260246000fd5b50919050565b6141d180620004b26000396000f3fe608060405234801561001057600080fd5b50600436106102ba5760003560e01c806367db3b8f11610182578063af005da8116100e9578063ca15c873116100a2578063e63ab1e91161007c578063e63ab1e9146106d0578063e985e9c5146106f7578063f242432a1461070a578063f5298aca1461071d57600080fd5b8063ca15c87314610683578063d539139314610696578063d547741f146106bd57600080fd5b8063af005da8146105ea578063b88d4fde1461060a578063ba26ed301461061d578063bd85b03914610630578063c588ff8b14610650578063c87b56dd1461067057600080fd5b80639010d07c1161013b5780639010d07c1461058157806391d148541461059457806395d89b41146105a7578063a217fddf146105af578063a22cb465146105b7578063a584ab29146105ca57600080fd5b806367db3b8f1461050457806368f222fd146105175780636b20c4541461052a57806370a082311461053d578063731133e9146105665780638456cb591461057957600080fd5b80632eb2c2d6116102265780634e1273f4116101df5780634e1273f41461047e5780634f558e791461049e5780634f64b2be146104c05780634f6ccce7146104d35780635c975abb146104e65780636352211e146104f157600080fd5b80632eb2c2d6146103f45780632f2ff15d146104075780632f745c591461041a57806336568abe146104505780633f4ba83a1461046357806342842e0e1461046b57600080fd5b8063095ea7b311610278578063095ea7b31461037d5780630e89341c1461039057806318160ddd146103a35780631f7fdffa146103ab57806323b872dd146103be578063248a9ca3146103d157600080fd5b8062fdd58e146102bf57806301ffc9a7146102e557806302fe5305146103085780630583e9f81461031d57806306fdde031461033d578063081812fc14610352575b600080fd5b6102d26102cd366004613492565b610730565b6040519081526020015b60405180910390f35b6102f86102f33660046134d5565b6107cc565b60405190151581526020016102dc565b61031b6103163660046135a7565b6107d7565b005b6102d261032b3660046135e3565b600a6020526000908152604090205481565b610345610863565b6040516102dc9190613654565b6103656103603660046135e3565b6108f5565b6040516001600160a01b0390911681526020016102dc565b61031b61038b366004613492565b61092c565b61034561039e3660046135e3565b610ac0565b6009546102d2565b61031b6103b93660046136fb565b610b83565b61031b6103cc366004613793565b610ba1565b6102d26103df3660046135e3565b60009081526020819052604090206001015490565b61031b61040236600461385b565b610bc5565b61031b610415366004613915565b610c75565b6102d2610428366004613492565b6001600160a01b03919091166000908152600f60209081526040808320938352929052205490565b61031b61045e366004613915565b610c9b565b61031b610d19565b61031b610479366004613793565b610dbf565b61049161048c366004613941565b610ddd565b6040516102dc9190613a46565b6102f86104ac3660046135e3565b600090815260066020526040902054151590565b6102d26104ce3660046135e3565b610f06565b6102d26104e13660046135e3565b610f27565b60055460ff166102f8565b6103656104ff3660046135e3565b610f4e565b61031b610512366004613a59565b610fa3565b6102d2610525366004613492565b611046565b61031b610538366004613a9d565b611077565b6102d261054b366004613b10565b6001600160a01b03166000908152600e602052604090205490565b61031b610574366004613b2b565b6111fc565b61031b61122a565b61036561058f366004613b7f565b6112ce565b6102f86105a2366004613915565b6112e6565b61034561130f565b6102d2600081565b61031b6105c5366004613ba1565b61131e565b6105dd6105d83660046135e3565b611328565b6040516102dc9190613bdd565b6102d26105f83660046135e3565b600d6020526000908152604090205481565b61031b610618366004613c2a565b611394565b61036561062b366004613b7f565b6113db565b6102d261063e3660046135e3565b60009081526006602052604090205490565b6102d261065e3660046135e3565b6000908152600d602052604090205490565b61034561067e3660046135e3565b611413565b6102d26106913660046135e3565b61141e565b6102d27f9f2df0fed2c77648de5860a4cc508cd0818c85b8b8a1ab4ceeef8d981c8956a681565b61031b6106cb366004613915565b611435565b6102d27f65d7a28e3265b37a6474929f336521b332c1681b933f6cb9f3376673440d862a81565b6102f8610705366004613c98565b61145b565b61031b610718366004613cc2565b61148b565b61031b61072b366004613d39565b6114e1565b60006001600160a01b0383166107a15760405162461bcd60e51b815260206004820152602b60248201527f455243313135353a2062616c616e636520717565727920666f7220746865207a60448201526a65726f206164647265737360a81b60648201526084015b60405180910390fd5b5060008181526002602090815260408083206001600160a01b03861684529091529020545b92915050565b60006107c68261159f565b6107e26000336112e6565b61081e5760405162461bcd60e51b815260206004820152600d60248201526c26bab9ba1031329030b236b4b760991b6044820152606401610798565b610827816115aa565b60007f6bb7ff708619ba0610cba295a58592e0451dee2622938c8755667688daf3529b826040516108589190613654565b60405180910390a250565b60606007805461087290613d6c565b80601f016020809104026020016040519081016040528092919081815260200182805461089e90613d6c565b80156108eb5780601f106108c0576101008083540402835291602001916108eb565b820191906000526020600020905b8154815290600101906020018083116108ce57829003601f168201915b5050505050905090565b6000818152600b602052604081205460011461091057600080fd5b506000908152601160205260409020546001600160a01b031690565b60006109383383610730565b1115610989576000818152601060209081526040808320338452825280832080546001600160a01b0387166001600160a01b0319918216811790925585855260119093529220805490911690911790555b60005b6000828152600b6020526040902054811015610a5b576000828152600b602052604081208054839081106109c2576109c2613da1565b60009182526020808320909101548583526010825260408084206001600160a01b0392831680865293529092205490925016331415610a485760008381526010602090815260408083206001600160a01b03808616855290835281842080549189166001600160a01b031992831681179091558785526011909352922080549092161790555b5080610a5381613dcd565b91505061098c565b5060405162461bcd60e51b815260206004820152603360248201527f5468652063616c6c6572206d757374206f776e206f7220626520617070726f766044820152721959081d1bc81cdc195b99081d1bdad95b9259606a1b6064820152608401610798565b600081815260126020526040812080546060929190610ade90613d6c565b80601f0160208091040260200160405190810160405280929190818152602001828054610b0a90613d6c565b8015610b575780601f10610b2c57610100808354040283529160200191610b57565b820191906000526020600020905b815481529060010190602001808311610b3a57829003601f168201915b505050505090508051600014610b6d5792915050565b610b76836115bd565b9392505050565b50919050565b6000610b8f8486611647565b9050610b9a816117b3565b5050505050565b610bc083838360405180602001604052806000815250600060016117d1565b505050565b610c6b888888888080602002602001604051908101604052809392919081815260200183836020028082843760009201919091525050604080516020808c0282810182019093528b82529093508b92508a91829185019084908082843760009201919091525050604080516020601f8b018190048102820181019092528981529250899150889081908401838280828437600092018290525060019350915061182b9050565b5050505050505050565b600082815260208190526040902060010154610c918133611b5b565b610bc08383611bbf565b6001600160a01b0381163314610d0b5760405162461bcd60e51b815260206004820152602f60248201527f416363657373436f6e74726f6c3a2063616e206f6e6c792072656e6f756e636560448201526e103937b632b9903337b91039b2b63360891b6064820152608401610798565b610d158282611be1565b5050565b610d437f65d7a28e3265b37a6474929f336521b332c1681b933f6cb9f3376673440d862a336112e6565b610db55760405162461bcd60e51b815260206004820152603b60248201527f455243313135355072657365744d696e7465725061757365723a206d7573742060448201527f686176652070617573657220726f6c6520746f20756e706175736500000000006064820152608401610798565b610dbd611c03565b565b610bc0838383604051806020016040528060008152506001806117d1565b60608151835114610e425760405162461bcd60e51b815260206004820152602960248201527f455243313135353a206163636f756e747320616e6420696473206c656e677468604482015268040dad2e6dac2e8c6d60bb1b6064820152608401610798565b600083516001600160401b03811115610e5d57610e5d6134f2565b604051908082528060200260200182016040528015610e86578160200160208202803683370190505b50905060005b8451811015610efe57610ed1858281518110610eaa57610eaa613da1565b6020026020010151858381518110610ec457610ec4613da1565b6020026020010151610730565b828281518110610ee357610ee3613da1565b6020908102919091010152610ef781613dcd565b9050610e8c565b509392505050565b60098181548110610f1657600080fd5b600091825260209091200154905081565b600060098281548110610f3c57610f3c613da1565b90600052602060002001549050919050565b6000818152600b6020526040812054600114610f6957600080fd5b6000828152600b602052604081208054909190610f8857610f88613da1565b6000918252602090912001546001600160a01b031692915050565b610fae6000336112e6565b610fea5760405162461bcd60e51b815260206004820152600d60248201526c26bab9ba1031329030b236b4b760991b6044820152606401610798565b60008181526012602090815260409091208351611009928501906133dd565b50807f6bb7ff708619ba0610cba295a58592e0451dee2622938c8755667688daf3529b8360405161103a9190613654565b60405180910390a25050565b600e602052816000526040600020818154811061106257600080fd5b90600052602060002001600091509150505481565b6001600160a01b0383163314806110935750611093833361145b565b806110a357506110a38284611c96565b6110bf5760405162461bcd60e51b815260040161079890613de8565b8151600114156111575761110883836000815181106110e0576110e0613da1565b6020026020010151836000815181106110fb576110fb613da1565b6020026020010151611d1f565b8160008151811061111b5761111b613da1565b602002602001015160006001600160a01b0316846001600160a01b031660008051602061417c83398151915260405160405180910390a46111cb565b611162838383611e24565b60005b82518110156111c95782818151811061118057611180613da1565b602002602001015160006001600160a01b0316856001600160a01b031660008051602061417c83398151915260405160405180910390a4806111c181613dcd565b915050611165565b505b60006111d78385611647565b90506111e38185611fb5565b6111ed8185612254565b6111f681612435565b50505050565b6000611207846125b4565b90506000611214846125b4565b905061122286838386610b83565b505050505050565b6112547f65d7a28e3265b37a6474929f336521b332c1681b933f6cb9f3376673440d862a336112e6565b6112c65760405162461bcd60e51b815260206004820152603960248201527f455243313135355072657365744d696e7465725061757365723a206d7573742060448201527f686176652070617573657220726f6c6520746f207061757365000000000000006064820152608401610798565b610dbd6125ff565b6000828152600160205260408120610b76908361267a565b6000918252602082815260408084206001600160a01b0393909316845291905290205460ff1690565b60606008805461087290613d6c565b610d158282612686565b6000818152600b602090815260409182902080548351818402810184019094528084526060939283018282801561138857602002820191906000526020600020905b81546001600160a01b0316815260019091019060200180831161136a575b50505050509050919050565b610b9a85858585858080601f016020809104026020016040519081016040528093929190818152602001838380828437600092019190915250600192508291506117d19050565b600b60205281600052604060002081815481106113f757600080fd5b6000918252602090912001546001600160a01b03169150829050565b60606107c682610ac0565b60008181526001602052604081206107c690612691565b6000828152602081905260409020600101546114518133611b5b565b610bc08383611be1565b6001600160a01b03808316600090815260036020908152604080832093851683529290529081205460ff16610b76565b6112228686611499876125b4565b6114a2876125b4565b86868080601f016020809104026020016040519081016040528093929190818152602001838380828437600092018290525060019350915061182b9050565b60006114ec836125b4565b905060006114f9836125b4565b9050610b9a858383611077565b61151082826112e6565b610d15576000828152602081815260408083206001600160a01b03851684529091529020805460ff191660011790556115463390565b6001600160a01b0316816001600160a01b0316837f2f8788117e7eff1d82e926ec794901d17c78024a50270940304540a733656f0d60405160405180910390a45050565b6000610b76836001600160a01b03841661269b565b60006107c6826126ea565b8051610d159060049060208401906133dd565b6060600480546115cc90613d6c565b80601f01602080910402602001604051908101604052809291908181526020018280546115f890613d6c565b80156113885780601f1061161a57610100808354040283529160200191611388565b820191906000526020600020905b8154815290600101906020018083116116285750939695505050505050565b6060600083516001600160401b03811115611664576116646134f2565b60405190808252806020026020018201604052801561168d578160200160208202803683370190505b5090506000805b855181101561170e576116b385878381518110610ec457610ec4613da1565b6116fc578581815181106116c9576116c9613da1565b60200260200101518383806116dd90613dcd565b9450815181106116ef576116ef613da1565b6020026020010181815250505b8061170681613dcd565b915050611694565b506000816001600160401b03811115611729576117296134f2565b604051908082528060200260200182016040528015611752578160200160208202803683370190505b50905060005b828110156117a95783818151811061177257611772613da1565b602002602001015182828151811061178c5761178c613da1565b6020908102919091010152806117a181613dcd565b915050611758565b5095945050505050565b60005b8151811015610d1557806117c981613dcd565b9150506117b6565b80156117ea576001600160a01b0386166117ea57600080fd5b6001600160a01b0385166117fd57600080fd5b6000611808856125b4565b9050600061181e6118198988610730565b6125b4565b9050610c6b888884848989895b835185511461184c5760405162461bcd60e51b815260040161079890613e31565b6001600160a01b0386166118b05760405162461bcd60e51b815260206004820152602560248201527f455243313135353a207472616e7366657220746f20746865207a65726f206164604482015264647265737360d81b6064820152608401610798565b336001600160a01b0388168114806118cd57506118cd888261145b565b806118dd57506118dd8689611c96565b6118f95760405162461bcd60e51b815260040161079890613de8565b61190781898989898961272a565b60006119138789611647565b905061192289898989896127ec565b600061192e888b611647565b905061193a828a612918565b611944828a612a14565b61194e818b611fb5565b611958818b612254565b600188511115611a2557886001600160a01b03168a6001600160a01b0316846001600160a01b03167f4a39dc06d4c0dbc64b70af90fd698a233a518aa5d07e595d983b8c0526c8f7fb8b8b6040516119b1929190613e79565b60405180910390a460005b8851811015611a1f578881815181106119d7576119d7613da1565b60200260200101518a6001600160a01b03168c6001600160a01b031660008051602061417c83398151915260405160405180910390a480611a1781613dcd565b9150506119bc565b50611b03565b886001600160a01b03168a6001600160a01b0316846001600160a01b03167fc3d58168c5ae7397731d063d5bbf3d657854427343f4c083240f7aacaa2d0f628b600081518110611a7757611a77613da1565b60200260200101518b600081518110611a9257611a92613da1565b6020026020010151604051611ab1929190918252602082015260400190565b60405180910390a487600081518110611acc57611acc613da1565b6020026020010151896001600160a01b03168b6001600160a01b031660008051602061417c83398151915260405160405180910390a45b84611b1057505050611b52565b83611b2857611b23838b8b8b8b8b612add565b611b4e565b611b4e8a8a8a600081518110611b4057611b40613da1565b602002602001015189612c7a565b5050505b50505050505050565b611b6582826112e6565b610d1557611b7d816001600160a01b03166014612db9565b611b88836020612db9565b604051602001611b99929190613ea7565b60408051601f198184030181529082905262461bcd60e51b825261079891600401613654565b611bc98282611506565b6000828152600160205260409020610bc0908261158a565b611beb8282612f54565b6000828152600160205260409020610bc09082612fb9565b60055460ff16611c4c5760405162461bcd60e51b815260206004820152601460248201527314185d5cd8589b194e881b9bdd081c185d5cd95960621b6044820152606401610798565b6005805460ff191690557f5db9ee0a495bf2e6ff9c91a7834c1ba4fdd244a5e8aa4e537bd38aeae4b073aa335b6040516001600160a01b03909116815260200160405180910390a1565b6000805b8351811015611d1557336001600160a01b031660106000868481518110611cc357611cc3613da1565b602090810291909101810151825281810192909252604090810160009081206001600160a01b038089168352935220541614611d035760009150506107c6565b80611d0d81613dcd565b915050611c9a565b5060019392505050565b6001600160a01b038316611d455760405162461bcd60e51b815260040161079890613f1c565b33611d7481856000611d56876125b4565b611d5f876125b4565b6040518060200160405280600081525061272a565b60008381526002602090815260408083206001600160a01b038816845290915290205482811015611db75760405162461bcd60e51b815260040161079890613f5f565b60008481526002602090815260408083206001600160a01b03898116808652918452828520888703905582518981529384018890529092908616917fc3d58168c5ae7397731d063d5bbf3d657854427343f4c083240f7aacaa2d0f62910160405180910390a45050505050565b6001600160a01b038316611e4a5760405162461bcd60e51b815260040161079890613f1c565b8051825114611e6b5760405162461bcd60e51b815260040161079890613e31565b6000339050611e8e8185600086866040518060200160405280600081525061272a565b60005b8351811015611f56576000848281518110611eae57611eae613da1565b602002602001015190506000848381518110611ecc57611ecc613da1565b60209081029190910181015160008481526002835260408082206001600160a01b038c168352909352919091205490915081811015611f1d5760405162461bcd60e51b815260040161079890613f5f565b60009283526002602090815260408085206001600160a01b038b1686529091529092209103905580611f4e81613dcd565b915050611e91565b5060006001600160a01b0316846001600160a01b0316826001600160a01b03167f4a39dc06d4c0dbc64b70af90fd698a233a518aa5d07e595d983b8c0526c8f7fb8686604051611fa7929190613e79565b60405180910390a450505050565b60005b8251811015610bc0576001600160a01b0382166000908152600c6020526040812084518290869085908110611fef57611fef613da1565b60200260200101518152602001908152602001600020549050600b600085848151811061201e5761201e613da1565b602002602001015181526020019081526020016000206001600b600087868151811061204c5761204c613da1565b60200260200101518152602001908152602001600020805490506120709190613fa3565b8154811061208057612080613da1565b600091825260208220015485516001600160a01b0390911691600b918790869081106120ae576120ae613da1565b6020026020010151815260200190815260200160002082815481106120d5576120d5613da1565b9060005260206000200160006101000a8154816001600160a01b0302191690836001600160a01b0316021790555080600c6000600b600088878151811061211e5761211e613da1565b60200260200101518152602001908152602001600020848154811061214557612145613da1565b60009182526020808320909101546001600160a01b031683528201929092526040018120865190919087908690811061218057612180613da1565b6020026020010151815260200190815260200160002081905550600b60008584815181106121b0576121b0613da1565b602002602001015181526020019081526020016000208054806121d5576121d5613fba565b60008281526020808220830160001990810180546001600160a01b03191690559092019092556001600160a01b0385168252600c905260408120855190919086908590811061222657612226613da1565b602002602001015181526020019081526020016000206000905550808061224c90613dcd565b915050611fb8565b60005b8251811015610bc0576001600160a01b0382166000908152600f602052604081208451829086908590811061228e5761228e613da1565b60209081029190910181015182528181019290925260409081016000908120546001600160a01b0387168252600e909352208054919250906122d290600190613fa3565b815481106122e2576122e2613da1565b9060005260206000200154600e6000856001600160a01b03166001600160a01b03168152602001908152602001600020828154811061232357612323613da1565b60009182526020808320909101929092556001600160a01b0385168152600f82526040808220600e9093528120805484939291908490811061236757612367613da1565b9060005260206000200154815260200190815260200160002081905550600f6000846001600160a01b03166001600160a01b0316815260200190815260200160002060008584815181106123bd576123bd613da1565b6020026020010151815260200190815260200160002060009055600e6000846001600160a01b03166001600160a01b0316815260200190815260200160002080548061240b5761240b613fba565b6001900381819060005260206000200160009055905550808061242d90613dcd565b915050612257565b60005b8151811015610d155761248f600983838151811061245857612458613da1565b60200260200101518154811061247057612470613da1565b9060005260206000200154600090815260066020526040902054151590565b6125a2576000600a60008484815181106124ab576124ab613da1565b60200260200101518152602001908152602001600020549050600960016009805490506124d89190613fa3565b815481106124e8576124e8613da1565b90600052602060002001546009828154811061250657612506613da1565b906000526020600020018190555080600a60006009848154811061252c5761252c613da1565b9060005260206000200154815260200190815260200160002081905550600980548061255a5761255a613fba565b60019003818190600052602060002001600090559055600a600084848151811061258657612586613da1565b6020026020010151815260200190815260200160002060009055505b806125ac81613dcd565b915050612438565b604080516001808252818301909252606091600091906020808301908036833701905050905082816000815181106125ee576125ee613da1565b602090810291909101015292915050565b60055460ff16156126455760405162461bcd60e51b815260206004820152601060248201526f14185d5cd8589b194e881c185d5cd95960821b6044820152606401610798565b6005805460ff191660011790557f62e78cea01bee320cd4e420270b5ea74000d11b0c9f74754ebdbfc544b05a258611c793390565b6000610b768383612fce565b610d15338383612ff8565b60006107c6825490565b60008181526001830160205260408120546126e2575081546001818101845560008481526020808220909301849055845484825282860190935260409020919091556107c6565b5060006107c6565b60006001600160e01b03198216636cdb3d1360e11b148061271b57506001600160e01b031982166303a24d0760e21b145b806107c657506107c682613057565b6001600160a01b0385166127de576000805b602081101561278a57612750816008613fd0565b83828151811061276257612762613da1565b01602001516001600160f81b031916901c91909117908061278281613dcd565b91505061273c565b5060005b84518110156127db5781600d60008784815181106127ae576127ae613da1565b602002602001015181526020019081526020016000208190555080806127d390613dcd565b91505061278e565b50505b61122286868686868661307c565b60005b835181101561122257600084828151811061280c5761280c613da1565b60200260200101519050600084838151811061282a5761282a613da1565b60209081029190910181015160008481526002835260408082206001600160a01b038d1683529093529190912054909150818110156128be5760405162461bcd60e51b815260206004820152602a60248201527f455243313135353a20696e73756666696369656e742062616c616e636520666f60448201526939103a3930b739b332b960b11b6064820152608401610798565b60008381526002602090815260408083206001600160a01b038d8116855292528083208585039055908a168252812080548492906128fd908490613fef565b925050819055505050508061291190613dcd565b90506127ef565b60005b8251811015610bc057600b600084838151811061293a5761293a613da1565b6020026020010151815260200190815260200160002080549050600c6000846001600160a01b03166001600160a01b03168152602001908152602001600020600085848151811061298d5761298d613da1565b6020026020010151815260200190815260200160002081905550600b60008483815181106129bd576129bd613da1565b602090810291909101810151825281810192909252604001600090812080546001810182559082529190200180546001600160a01b0319166001600160a01b03841617905580612a0c81613dcd565b91505061291b565b60005b8251811015610bc0576001600160a01b0382166000908152600e6020908152604080832054600f9092528220855191929091869085908110612a5b57612a5b613da1565b6020026020010151815260200190815260200160002081905550600e6000836001600160a01b03166001600160a01b03168152602001908152602001600020838281518110612aac57612aac613da1565b6020908102919091018101518254600181018455600093845291909220015580612ad581613dcd565b915050612a17565b6001600160a01b0384163b156112225760405163bc197c8160e01b81526001600160a01b0385169063bc197c8190612b219089908990889088908890600401614007565b6020604051808303816000875af1925050508015612b5c575060408051601f3d908101601f19168201909252612b5991810190614065565b60015b612c0957612b68614082565b806308c379a01415612ba25750612b7d61409e565b80612b885750612ba4565b8060405162461bcd60e51b81526004016107989190613654565b505b60405162461bcd60e51b815260206004820152603460248201527f455243313135353a207472616e7366657220746f206e6f6e20455243313135356044820152732932b1b2b4bb32b91034b6b83632b6b2b73a32b960611b6064820152608401610798565b6001600160e01b0319811663bc197c8160e01b14611b525760405162461bcd60e51b815260206004820152602860248201527f455243313135353a204552433131353552656365697665722072656a656374656044820152676420746f6b656e7360c01b6064820152608401610798565b6001600160a01b0383163b156111f657604051630a85bd0160e11b81526001600160a01b0384169063150b7a0290612cbc903390889087908790600401614127565b6020604051808303816000875af1925050508015612cf7575060408051601f3d908101601f19168201909252612cf491810190614065565b60015b612d9c573d808015612d25576040519150601f19603f3d011682016040523d82523d6000602084013e612d2a565b606091505b508051612d945760405162461bcd60e51b815260206004820152603260248201527f4552433732313a207472616e7366657220746f206e6f6e20455243373231526560448201527131b2b4bb32b91034b6b83632b6b2b73a32b960711b6064820152608401610798565b805181602001fd5b6001600160e01b03198116630a85bd0160e11b14610b9a57600080fd5b60606000612dc8836002613fd0565b612dd3906002613fef565b6001600160401b03811115612dea57612dea6134f2565b6040519080825280601f01601f191660200182016040528015612e14576020820181803683370190505b509050600360fc1b81600081518110612e2f57612e2f613da1565b60200101906001600160f81b031916908160001a905350600f60fb1b81600181518110612e5e57612e5e613da1565b60200101906001600160f81b031916908160001a9053506000612e82846002613fd0565b612e8d906001613fef565b90505b6001811115612f05576f181899199a1a9b1b9c1cb0b131b232b360811b85600f1660108110612ec157612ec1613da1565b1a60f81b828281518110612ed757612ed7613da1565b60200101906001600160f81b031916908160001a90535060049490941c93612efe81614164565b9050612e90565b508315610b765760405162461bcd60e51b815260206004820181905260248201527f537472696e67733a20686578206c656e67746820696e73756666696369656e746044820152606401610798565b612f5e82826112e6565b15610d15576000828152602081815260408083206001600160a01b0385168085529252808320805460ff1916905551339285917ff6391f5c32d9c69d2a47ea670b442974b53935d1edc7fd64eb21e047a839171b9190a45050565b6000610b76836001600160a01b038416613196565b6000826000018281548110612fe557612fe5613da1565b9060005260206000200154905092915050565b613003838383613289565b816001600160a01b0316836001600160a01b03167f17307eab39ab6107e8899845ad3d59bd9653f200f220920489ca2b5937696c318360405161304a911515815260200190565b60405180910390a3505050565b60006001600160e01b03198216635a05180f60e01b14806107c657506107c682613337565b61308a86868686868661336c565b6001600160a01b0385166131115760005b835181101561310f578281815181106130b6576130b6613da1565b6020026020010151600660008684815181106130d4576130d4613da1565b6020026020010151815260200190815260200160002060008282546130f99190613fef565b90915550613108905081613dcd565b905061309b565b505b6001600160a01b0384166112225760005b8351811015611b525782818151811061313d5761313d613da1565b60200260200101516006600086848151811061315b5761315b613da1565b6020026020010151815260200190815260200160002060008282546131809190613fa3565b9091555061318f905081613dcd565b9050613122565b6000818152600183016020526040812054801561327f5760006131ba600183613fa3565b85549091506000906131ce90600190613fa3565b90508181146132335760008660000182815481106131ee576131ee613da1565b906000526020600020015490508087600001848154811061321157613211613da1565b6000918252602080832090910192909255918252600188019052604090208390555b855486908061324457613244613fba565b6001900381819060005260206000200160009055905585600101600086815260200190815260200160002060009055600193505050506107c6565b60009150506107c6565b816001600160a01b0316836001600160a01b031614156132fd5760405162461bcd60e51b815260206004820152602960248201527f455243313135353a2073657474696e6720617070726f76616c20737461747573604482015268103337b91039b2b63360b91b6064820152608401610798565b6001600160a01b03928316600090815260036020908152604080832094909516825292909252919020805460ff1916911515919091179055565b60006001600160e01b03198216637965db0b60e01b14806107c657506301ffc9a760e01b6001600160e01b03198316146107c6565b61122286868686868660055460ff16156112225760405162461bcd60e51b815260206004820152602c60248201527f455243313135355061757361626c653a20746f6b656e207472616e736665722060448201526b1dda1a5b19481c185d5cd95960a21b6064820152608401610798565b8280546133e990613d6c565b90600052602060002090601f01602090048101928261340b5760008555613451565b82601f1061342457805160ff1916838001178555613451565b82800160010185558215613451579182015b82811115613451578251825591602001919060010190613436565b5061345d929150613461565b5090565b5b8082111561345d5760008155600101613462565b80356001600160a01b038116811461348d57600080fd5b919050565b600080604083850312156134a557600080fd5b6134ae83613476565b946020939093013593505050565b6001600160e01b0319811681146134d257600080fd5b50565b6000602082840312156134e757600080fd5b8135610b76816134bc565b634e487b7160e01b600052604160045260246000fd5b601f8201601f191681016001600160401b038111828210171561352d5761352d6134f2565b6040525050565b600082601f83011261354557600080fd5b81356001600160401b0381111561355e5761355e6134f2565b604051613575601f8301601f191660200182613508565b81815284602083860101111561358a57600080fd5b816020850160208301376000918101602001919091529392505050565b6000602082840312156135b957600080fd5b81356001600160401b038111156135cf57600080fd5b6135db84828501613534565b949350505050565b6000602082840312156135f557600080fd5b5035919050565b60005b838110156136175781810151838201526020016135ff565b838111156111f65750506000910152565b600081518084526136408160208601602086016135fc565b601f01601f19169290920160200192915050565b602081526000610b766020830184613628565b60006001600160401b03821115613680576136806134f2565b5060051b60200190565b600082601f83011261369b57600080fd5b813560206136a882613667565b6040516136b58282613508565b83815260059390931b85018201928281019150868411156136d557600080fd5b8286015b848110156136f057803583529183019183016136d9565b509695505050505050565b6000806000806080858703121561371157600080fd5b61371a85613476565b935060208501356001600160401b038082111561373657600080fd5b6137428883890161368a565b9450604087013591508082111561375857600080fd5b6137648883890161368a565b9350606087013591508082111561377a57600080fd5b5061378787828801613534565b91505092959194509250565b6000806000606084860312156137a857600080fd5b6137b184613476565b92506137bf60208501613476565b9150604084013590509250925092565b60008083601f8401126137e157600080fd5b5081356001600160401b038111156137f857600080fd5b6020830191508360208260051b850101111561381357600080fd5b9250929050565b60008083601f84011261382c57600080fd5b5081356001600160401b0381111561384357600080fd5b60208301915083602082850101111561381357600080fd5b60008060008060008060008060a0898b03121561387757600080fd5b61388089613476565b975061388e60208a01613476565b965060408901356001600160401b03808211156138aa57600080fd5b6138b68c838d016137cf565b909850965060608b01359150808211156138cf57600080fd5b6138db8c838d016137cf565b909650945060808b01359150808211156138f457600080fd5b506139018b828c0161381a565b999c989b5096995094979396929594505050565b6000806040838503121561392857600080fd5b8235915061393860208401613476565b90509250929050565b6000806040838503121561395457600080fd5b82356001600160401b038082111561396b57600080fd5b818501915085601f83011261397f57600080fd5b8135602061398c82613667565b6040516139998282613508565b83815260059390931b85018201928281019150898411156139b957600080fd5b948201945b838610156139de576139cf86613476565b825294820194908201906139be565b965050860135925050808211156139f457600080fd5b50613a018582860161368a565b9150509250929050565b600081518084526020808501945080840160005b83811015613a3b57815187529582019590820190600101613a1f565b509495945050505050565b602081526000610b766020830184613a0b565b60008060408385031215613a6c57600080fd5b82356001600160401b03811115613a8257600080fd5b613a8e85828601613534565b95602094909401359450505050565b600080600060608486031215613ab257600080fd5b613abb84613476565b925060208401356001600160401b0380821115613ad757600080fd5b613ae38783880161368a565b93506040860135915080821115613af957600080fd5b50613b068682870161368a565b9150509250925092565b600060208284031215613b2257600080fd5b610b7682613476565b60008060008060808587031215613b4157600080fd5b613b4a85613476565b9350602085013592506040850135915060608501356001600160401b03811115613b7357600080fd5b61378787828801613534565b60008060408385031215613b9257600080fd5b50508035926020909101359150565b60008060408385031215613bb457600080fd5b613bbd83613476565b915060208301358015158114613bd257600080fd5b809150509250929050565b6020808252825182820181905260009190848201906040850190845b81811015613c1e5783516001600160a01b031683529284019291840191600101613bf9565b50909695505050505050565b600080600080600060808688031215613c4257600080fd5b613c4b86613476565b9450613c5960208701613476565b93506040860135925060608601356001600160401b03811115613c7b57600080fd5b613c878882890161381a565b969995985093965092949392505050565b60008060408385031215613cab57600080fd5b613cb483613476565b915061393860208401613476565b60008060008060008060a08789031215613cdb57600080fd5b613ce487613476565b9550613cf260208801613476565b9450604087013593506060870135925060808701356001600160401b03811115613d1b57600080fd5b613d2789828a0161381a565b979a9699509497509295939492505050565b600080600060608486031215613d4e57600080fd5b613d5784613476565b95602085013595506040909401359392505050565b600181811c90821680613d8057607f821691505b60208210811415610b7d57634e487b7160e01b600052602260045260246000fd5b634e487b7160e01b600052603260045260246000fd5b634e487b7160e01b600052601160045260246000fd5b6000600019821415613de157613de1613db7565b5060010190565b60208082526029908201527f455243313135353a2063616c6c6572206973206e6f74206f776e6572206e6f7260408201526808185c1c1c9bdd995960ba1b606082015260800190565b60208082526028908201527f455243313135353a2069647320616e6420616d6f756e7473206c656e677468206040820152670dad2e6dac2e8c6d60c31b606082015260800190565b604081526000613e8c6040830185613a0b565b8281036020840152613e9e8185613a0b565b95945050505050565b7f416363657373436f6e74726f6c3a206163636f756e7420000000000000000000815260008351613edf8160178501602088016135fc565b7001034b99036b4b9b9b4b733903937b6329607d1b6017918401918201528351613f108160288401602088016135fc565b01602801949350505050565b60208082526023908201527f455243313135353a206275726e2066726f6d20746865207a65726f206164647260408201526265737360e81b606082015260800190565b60208082526024908201527f455243313135353a206275726e20616d6f756e7420657863656564732062616c604082015263616e636560e01b606082015260800190565b600082821015613fb557613fb5613db7565b500390565b634e487b7160e01b600052603160045260246000fd5b6000816000190483118215151615613fea57613fea613db7565b500290565b6000821982111561400257614002613db7565b500190565b6001600160a01b0386811682528516602082015260a06040820181905260009061403390830186613a0b565b82810360608401526140458186613a0b565b905082810360808401526140598185613628565b98975050505050505050565b60006020828403121561407757600080fd5b8151610b76816134bc565b600060033d111561409b5760046000803e5060005160e01c5b90565b600060443d10156140ac5790565b6040516003193d81016004833e81513d6001600160401b0381602484011181841117156140db57505050505090565b82850191508151818111156140f35750505050505090565b843d870101602082850101111561410d5750505050505090565b61411c60208286010187613508565b509095945050505050565b6001600160a01b038581168252841660208201526040810183905260806060820181905260009061415a90830184613628565b9695505050505050565b60008161417357614173613db7565b50600019019056feddf252ad1be2c89b69c2b068fc378daa952ba7f163c4a11628f55a4df523b3efa26469706673582212200abbd072ba559549eb5e70b4ad57fa5425159f86d4547be48a36b94e8b95c7cc64736f6c634300080b0033",
  "immutableReferences": {},
  "source": "\npragma solidity ^0.8;\n\nimport \"./FireZardNFT.sol\";\n\ncontract ERC1155PausableMock is FireZardNFT {\n\n    constructor(string memory _uri, string memory name_, string memory symbol_) FireZardNFT(_uri, name_, symbol_){\n\n    }\n\n}",
  "sourcePath": "/home/vrogojin/Projects/FireZard/nft/contracts/ERC1155BurnableMock.sol",
  "compiler": {
    "name": "solc",
    "version": "0.8.11+commit.d7f03943.Emscripten.clang"
  },
  "schemaVersion": "3.4.4",
  "updatedAt": "2022-01-07T18:41:47.700Z",
  "devdoc": {
    "kind": "dev",
    "methods": {
      "approve(address,uint256)": {
        "details": "Gives permission to `to` to transfer `tokenId` token to another account. The approval is cleared when the token is transferred. Only a single account can be approved at a time, so approving the zero address clears previous approvals. See IERC721 Requirements: - The caller must own the token or be an approved operator. - `tokenId` must exist. Emits an {Approval} event."
      },
      "balanceOf(address)": {
        "details": "Returns the number of tokens in ``owner``'s account. See IERC721"
      },
      "balanceOf(address,uint256)": {
        "details": "See {IERC1155-balanceOf}. Requirements: - `account` cannot be the zero address."
      },
      "balanceOfBatch(address[],uint256[])": {
        "details": "See {IERC1155-balanceOfBatch}. Requirements: - `accounts` and `ids` must have the same length."
      },
      "burn(address,uint256,uint256)": {
        "details": "Destroys `amount` tokens of token type `id` from `from` Requirements: - `from` cannot be the zero address. - `from` must have at least `amount` tokens of token type `id`."
      },
      "burnBatch(address,uint256[],uint256[])": {
        "details": "xref:ROOT:erc1155.adoc#batch-operations[Batched] version of {_burn}. Requirements: - `ids` and `amounts` must have the same length."
      },
      "exists(uint256)": {
        "details": "Indicates whether any token exist with a given id, or not. See ERC1155Supply"
      },
      "getApproved(uint256)": {
        "details": "Returns the account approved for `tokenId` token. If there are more accounts holding token with same id the function fails. See IERC721 Requirements: - `tokenId` must exist and belong to a single account"
      },
      "getRoleAdmin(bytes32)": {
        "details": "Returns the admin role that controls `role`. See {grantRole} and {revokeRole}. To change a role's admin, use {_setRoleAdmin}."
      },
      "getRoleMember(bytes32,uint256)": {
        "details": "Returns one of the accounts that have `role`. `index` must be a value between 0 and {getRoleMemberCount}, non-inclusive. Role bearers are not sorted in any particular way, and their ordering may change at any point. WARNING: When using {getRoleMember} and {getRoleMemberCount}, make sure you perform all queries on the same block. See the following https://forum.openzeppelin.com/t/iterating-over-elements-on-enumerableset-in-openzeppelin-contracts/2296[forum post] for more information."
      },
      "getRoleMemberCount(bytes32)": {
        "details": "Returns the number of accounts that have `role`. Can be used together with {getRoleMember} to enumerate all bearers of a role."
      },
      "grantRole(bytes32,address)": {
        "details": "Grants `role` to `account`. If `account` had not been already granted `role`, emits a {RoleGranted} event. Requirements: - the caller must have ``role``'s admin role."
      },
      "hasRole(bytes32,address)": {
        "details": "Returns `true` if `account` has been granted `role`."
      },
      "isApprovedForAll(address,address)": {
        "details": "See {IERC1155-isApprovedForAll}."
      },
      "mint(address,uint256,uint256,bytes)": {
        "details": "Creates `amount` tokens of token type `id`, and assigns them to `to`. Emits a {TransferSingle} event. Requirements: - `to` cannot be the zero address. - If `to` refers to a smart contract, it must implement {IERC1155Receiver-onERC1155Received} and return the acceptance magic value."
      },
      "mintBatch(address,uint256[],uint256[],bytes)": {
        "details": "xref:ROOT:erc1155.adoc#batch-operations[Batched] variant of {mint}."
      },
      "name()": {
        "details": "Returns the token collection name."
      },
      "ownerOf(uint256)": {
        "details": "Returns the owner of the `tokenId` token. See IERC721 Requirements: - `tokenId` must exist and belong to a single owner"
      },
      "pause()": {
        "details": "Pauses all token transfers. See {ERC1155Pausable} and {Pausable-_pause}. Requirements: - the caller must have the `PAUSER_ROLE`."
      },
      "paused()": {
        "details": "Returns true if the contract is paused, and false otherwise."
      },
      "renounceRole(bytes32,address)": {
        "details": "Revokes `role` from the calling account. Roles are often managed via {grantRole} and {revokeRole}: this function's purpose is to provide a mechanism for accounts to lose their privileges if they are compromised (such as when a trusted device is misplaced). If the calling account had been revoked `role`, emits a {RoleRevoked} event. Requirements: - the caller must be `account`."
      },
      "revokeRole(bytes32,address)": {
        "details": "Revokes `role` from `account`. If `account` had been granted `role`, emits a {RoleRevoked} event. Requirements: - the caller must have ``role``'s admin role."
      },
      "safeBatchTransferFrom(address,address,uint256[],uint256[],bytes)": {
        "details": "xref:ROOT:erc1155.adoc#batch-operations[Batched] version of {safeTransferFrom}. Emits a {TransferBatch} event. Requirements: - `ids` and `amounts` must have the same length. - If `to` refers to a smart contract, it must implement {IERC1155Receiver-onERC1155BatchReceived} and return the acceptance magic value."
      },
      "safeTransferFrom(address,address,uint256)": {
        "details": "Safely transfers `tokenId` token from `from` to `to`, checking first that contract recipients are aware of the ERC721 protocol to prevent tokens from being forever locked. See IERC721 Requirements: - `from` cannot be the zero address. - `to` cannot be the zero address. - `tokenId` token must exist and be owned by `from`. - If the caller is not `from`, it must be have been allowed to move this token by either {approve} or {setApprovalForAll}. - If `to` refers to a smart contract, it must implement {IERC721Receiver-onERC721Received}, which is called upon a safe transfer. Emits a {Transfer} event."
      },
      "safeTransferFrom(address,address,uint256,bytes)": {
        "details": "Safely transfers `tokenId` token from `from` to `to`. Requirements: - `from` cannot be the zero address. - `to` cannot be the zero address. - `tokenId` token must exist and be owned by `from`. - If the caller is not `from`, it must be approved to move this token by either {approve} or {setApprovalForAll}. - If `to` refers to a smart contract, it must implement {IERC721Receiver-onERC721Received}, which is called upon a safe transfer. Emits a {Transfer} event."
      },
      "safeTransferFrom(address,address,uint256,uint256,bytes)": {
        "details": "Transfers `amount` tokens of token type `id` from `from` to `to`. Emits a {TransferSingle} event. Requirements: - `to` cannot be the zero address. - If the caller is not `from`, it must be have been approved to spend ``from``'s tokens via {setApprovalForAll}. - `from` must have a balance of tokens of type `id` of at least `amount`. - If `to` refers to a smart contract, it must implement {IERC1155Receiver-onERC1155Received} and return the acceptance magic value."
      },
      "setApprovalForAll(address,bool)": {
        "details": "See {IERC1155-setApprovalForAll}."
      },
      "supportsInterface(bytes4)": {
        "details": "See {IERC165-supportsInterface}."
      },
      "symbol()": {
        "details": "Returns the token collection symbol."
      },
      "tokenByIndex(uint256)": {
        "details": "Returns a token ID at a given `index` of all the tokens stored by the contract. Use along with {totalSupply} to enumerate all tokens. See IERC721Enumerable"
      },
      "tokenOfOwnerByIndex(address,uint256)": {
        "details": "Returns a token ID owned by `owner` at a given `index` of its token list. Use along with {balanceOf} to enumerate all of ``owner``'s tokens. See IERC721Enumerable"
      },
      "tokenURI(uint256)": {
        "details": "Returns the Uniform Resource Identifier (URI) for `tokenId` token.  See IERC721Enumerable"
      },
      "totalSupply()": {
        "details": "Returns the total amount of tokens stored by the contract."
      },
      "totalSupply(uint256)": {
        "details": "Total amount of tokens in with a given id."
      },
      "transferFrom(address,address,uint256)": {
        "details": "Transfers `tokenId` token from `from` to `to`. See IERC721 WARNING: Usage of this method is discouraged, use {safeTransferFrom} whenever possible. Requirements: - `from` cannot be the zero address. - `to` cannot be the zero address. - `tokenId` token must be owned by `from`. - If the caller is not `from`, it must be approved to move this token by either {approve} or {setApprovalForAll}. Emits a {Transfer} event."
      },
      "unpause()": {
        "details": "Unpauses all token transfers. See {ERC1155Pausable} and {Pausable-_unpause}. Requirements: - the caller must have the `PAUSER_ROLE`."
      },
      "uri(uint256)": {
        "details": "Returns the URI for token type `id`. If the `\\{id\\}` substring is present in the URI, it must be replaced by clients with the actual token type ID."
      }
    },
    "version": 1
  },
  "userdoc": {
    "kind": "user",
    "methods": {},
    "version": 1
  }
}