{
  "contractName": "FireZardNFT",
  "abi": [
    {
      "inputs": [
        {
          "internalType": "string",
          "name": "_uri",
          "type": "string"
        },
        {
          "internalType": "string",
          "name": "name_",
          "type": "string"
        },
        {
          "internalType": "string",
          "name": "symbol_",
          "type": "string"
        }
      ],
      "stateMutability": "nonpayable",
      "type": "constructor"
    },
    {
      "anonymous": false,
      "inputs": [
        {
          "indexed": true,
          "internalType": "address",
          "name": "owner",
          "type": "address"
        },
        {
          "indexed": true,
          "internalType": "address",
          "name": "approved",
          "type": "address"
        },
        {
          "indexed": true,
          "internalType": "uint256",
          "name": "tokenId",
          "type": "uint256"
        }
      ],
      "name": "Approval",
      "type": "event"
    },
    {
      "anonymous": false,
      "inputs": [
        {
          "indexed": true,
          "internalType": "address",
          "name": "owner",
          "type": "address"
        },
        {
          "indexed": true,
          "internalType": "address",
          "name": "operator",
          "type": "address"
        },
        {
          "indexed": false,
          "internalType": "bool",
          "name": "approved",
          "type": "bool"
        }
      ],
      "name": "ApprovalForAll",
      "type": "event"
    },
    {
      "anonymous": false,
      "inputs": [
        {
          "indexed": false,
          "internalType": "address",
          "name": "account",
          "type": "address"
        }
      ],
      "name": "Paused",
      "type": "event"
    },
    {
      "anonymous": false,
      "inputs": [
        {
          "indexed": true,
          "internalType": "bytes32",
          "name": "role",
          "type": "bytes32"
        },
        {
          "indexed": true,
          "internalType": "bytes32",
          "name": "previousAdminRole",
          "type": "bytes32"
        },
        {
          "indexed": true,
          "internalType": "bytes32",
          "name": "newAdminRole",
          "type": "bytes32"
        }
      ],
      "name": "RoleAdminChanged",
      "type": "event"
    },
    {
      "anonymous": false,
      "inputs": [
        {
          "indexed": true,
          "internalType": "bytes32",
          "name": "role",
          "type": "bytes32"
        },
        {
          "indexed": true,
          "internalType": "address",
          "name": "account",
          "type": "address"
        },
        {
          "indexed": true,
          "internalType": "address",
          "name": "sender",
          "type": "address"
        }
      ],
      "name": "RoleGranted",
      "type": "event"
    },
    {
      "anonymous": false,
      "inputs": [
        {
          "indexed": true,
          "internalType": "bytes32",
          "name": "role",
          "type": "bytes32"
        },
        {
          "indexed": true,
          "internalType": "address",
          "name": "account",
          "type": "address"
        },
        {
          "indexed": true,
          "internalType": "address",
          "name": "sender",
          "type": "address"
        }
      ],
      "name": "RoleRevoked",
      "type": "event"
    },
    {
      "anonymous": false,
      "inputs": [
        {
          "indexed": true,
          "internalType": "address",
          "name": "from",
          "type": "address"
        },
        {
          "indexed": true,
          "internalType": "address",
          "name": "to",
          "type": "address"
        },
        {
          "indexed": true,
          "internalType": "uint256",
          "name": "tokenId",
          "type": "uint256"
        }
      ],
      "name": "Transfer",
      "type": "event"
    },
    {
      "anonymous": false,
      "inputs": [
        {
          "indexed": true,
          "internalType": "address",
          "name": "operator",
          "type": "address"
        },
        {
          "indexed": true,
          "internalType": "address",
          "name": "from",
          "type": "address"
        },
        {
          "indexed": true,
          "internalType": "address",
          "name": "to",
          "type": "address"
        },
        {
          "indexed": false,
          "internalType": "uint256[]",
          "name": "ids",
          "type": "uint256[]"
        },
        {
          "indexed": false,
          "internalType": "uint256[]",
          "name": "values",
          "type": "uint256[]"
        }
      ],
      "name": "TransferBatch",
      "type": "event"
    },
    {
      "anonymous": false,
      "inputs": [
        {
          "indexed": true,
          "internalType": "address",
          "name": "operator",
          "type": "address"
        },
        {
          "indexed": true,
          "internalType": "address",
          "name": "from",
          "type": "address"
        },
        {
          "indexed": true,
          "internalType": "address",
          "name": "to",
          "type": "address"
        },
        {
          "indexed": false,
          "internalType": "uint256",
          "name": "id",
          "type": "uint256"
        },
        {
          "indexed": false,
          "internalType": "uint256",
          "name": "value",
          "type": "uint256"
        }
      ],
      "name": "TransferSingle",
      "type": "event"
    },
    {
      "anonymous": false,
      "inputs": [
        {
          "indexed": false,
          "internalType": "string",
          "name": "value",
          "type": "string"
        },
        {
          "indexed": true,
          "internalType": "uint256",
          "name": "id",
          "type": "uint256"
        }
      ],
      "name": "URI",
      "type": "event"
    },
    {
      "anonymous": false,
      "inputs": [
        {
          "indexed": false,
          "internalType": "address",
          "name": "account",
          "type": "address"
        }
      ],
      "name": "Unpaused",
      "type": "event"
    },
    {
      "inputs": [],
      "name": "DEFAULT_ADMIN_ROLE",
      "outputs": [
        {
          "internalType": "bytes32",
          "name": "",
          "type": "bytes32"
        }
      ],
      "stateMutability": "view",
      "type": "function"
    },
    {
      "inputs": [],
      "name": "MINTER_ROLE",
      "outputs": [
        {
          "internalType": "bytes32",
          "name": "",
          "type": "bytes32"
        }
      ],
      "stateMutability": "view",
      "type": "function"
    },
    {
      "inputs": [],
      "name": "PAUSER_ROLE",
      "outputs": [
        {
          "internalType": "bytes32",
          "name": "",
          "type": "bytes32"
        }
      ],
      "stateMutability": "view",
      "type": "function"
    },
    {
      "inputs": [
        {
          "internalType": "address[]",
          "name": "accounts",
          "type": "address[]"
        },
        {
          "internalType": "uint256[]",
          "name": "ids",
          "type": "uint256[]"
        }
      ],
      "name": "balanceOfBatch",
      "outputs": [
        {
          "internalType": "uint256[]",
          "name": "",
          "type": "uint256[]"
        }
      ],
      "stateMutability": "view",
      "type": "function"
    },
    {
      "inputs": [
        {
          "internalType": "bytes32",
          "name": "role",
          "type": "bytes32"
        }
      ],
      "name": "getRoleAdmin",
      "outputs": [
        {
          "internalType": "bytes32",
          "name": "",
          "type": "bytes32"
        }
      ],
      "stateMutability": "view",
      "type": "function"
    },
    {
      "inputs": [
        {
          "internalType": "bytes32",
          "name": "role",
          "type": "bytes32"
        },
        {
          "internalType": "uint256",
          "name": "index",
          "type": "uint256"
        }
      ],
      "name": "getRoleMember",
      "outputs": [
        {
          "internalType": "address",
          "name": "",
          "type": "address"
        }
      ],
      "stateMutability": "view",
      "type": "function"
    },
    {
      "inputs": [
        {
          "internalType": "bytes32",
          "name": "role",
          "type": "bytes32"
        }
      ],
      "name": "getRoleMemberCount",
      "outputs": [
        {
          "internalType": "uint256",
          "name": "",
          "type": "uint256"
        }
      ],
      "stateMutability": "view",
      "type": "function"
    },
    {
      "inputs": [
        {
          "internalType": "bytes32",
          "name": "role",
          "type": "bytes32"
        },
        {
          "internalType": "address",
          "name": "account",
          "type": "address"
        }
      ],
      "name": "grantRole",
      "outputs": [],
      "stateMutability": "nonpayable",
      "type": "function"
    },
    {
      "inputs": [
        {
          "internalType": "bytes32",
          "name": "role",
          "type": "bytes32"
        },
        {
          "internalType": "address",
          "name": "account",
          "type": "address"
        }
      ],
      "name": "hasRole",
      "outputs": [
        {
          "internalType": "bool",
          "name": "",
          "type": "bool"
        }
      ],
      "stateMutability": "view",
      "type": "function"
    },
    {
      "inputs": [
        {
          "internalType": "address",
          "name": "",
          "type": "address"
        },
        {
          "internalType": "uint256",
          "name": "",
          "type": "uint256"
        }
      ],
      "name": "inventory",
      "outputs": [
        {
          "internalType": "uint256",
          "name": "",
          "type": "uint256"
        }
      ],
      "stateMutability": "view",
      "type": "function"
    },
    {
      "inputs": [
        {
          "internalType": "uint256",
          "name": "",
          "type": "uint256"
        },
        {
          "internalType": "uint256",
          "name": "",
          "type": "uint256"
        }
      ],
      "name": "ownership",
      "outputs": [
        {
          "internalType": "address",
          "name": "",
          "type": "address"
        }
      ],
      "stateMutability": "view",
      "type": "function"
    },
    {
      "inputs": [],
      "name": "pause",
      "outputs": [],
      "stateMutability": "nonpayable",
      "type": "function"
    },
    {
      "inputs": [],
      "name": "paused",
      "outputs": [
        {
          "internalType": "bool",
          "name": "",
          "type": "bool"
        }
      ],
      "stateMutability": "view",
      "type": "function"
    },
    {
      "inputs": [
        {
          "internalType": "bytes32",
          "name": "role",
          "type": "bytes32"
        },
        {
          "internalType": "address",
          "name": "account",
          "type": "address"
        }
      ],
      "name": "renounceRole",
      "outputs": [],
      "stateMutability": "nonpayable",
      "type": "function"
    },
    {
      "inputs": [
        {
          "internalType": "bytes32",
          "name": "role",
          "type": "bytes32"
        },
        {
          "internalType": "address",
          "name": "account",
          "type": "address"
        }
      ],
      "name": "revokeRole",
      "outputs": [],
      "stateMutability": "nonpayable",
      "type": "function"
    },
    {
      "inputs": [
        {
          "internalType": "uint256",
          "name": "",
          "type": "uint256"
        }
      ],
      "name": "tokenIndex",
      "outputs": [
        {
          "internalType": "uint256",
          "name": "",
          "type": "uint256"
        }
      ],
      "stateMutability": "view",
      "type": "function"
    },
    {
      "inputs": [
        {
          "internalType": "uint256",
          "name": "",
          "type": "uint256"
        }
      ],
      "name": "token_type",
      "outputs": [
        {
          "internalType": "bytes32",
          "name": "",
          "type": "bytes32"
        }
      ],
      "stateMutability": "view",
      "type": "function"
    },
    {
      "inputs": [
        {
          "internalType": "uint256",
          "name": "",
          "type": "uint256"
        }
      ],
      "name": "tokens",
      "outputs": [
        {
          "internalType": "uint256",
          "name": "",
          "type": "uint256"
        }
      ],
      "stateMutability": "view",
      "type": "function"
    },
    {
      "inputs": [],
      "name": "unpause",
      "outputs": [],
      "stateMutability": "nonpayable",
      "type": "function"
    },
    {
      "inputs": [
        {
          "internalType": "address",
          "name": "from",
          "type": "address"
        },
        {
          "internalType": "address",
          "name": "to",
          "type": "address"
        },
        {
          "internalType": "uint256",
          "name": "tokenId",
          "type": "uint256"
        }
      ],
      "name": "transferFrom",
      "outputs": [],
      "stateMutability": "nonpayable",
      "type": "function"
    },
    {
      "inputs": [
        {
          "internalType": "address",
          "name": "from",
          "type": "address"
        },
        {
          "internalType": "address",
          "name": "to",
          "type": "address"
        },
        {
          "internalType": "uint256",
          "name": "tokenId",
          "type": "uint256"
        }
      ],
      "name": "safeTransferFrom",
      "outputs": [],
      "stateMutability": "nonpayable",
      "type": "function"
    },
    {
      "inputs": [
        {
          "internalType": "address",
          "name": "from",
          "type": "address"
        },
        {
          "internalType": "address",
          "name": "to",
          "type": "address"
        },
        {
          "internalType": "uint256",
          "name": "tokenId",
          "type": "uint256"
        },
        {
          "internalType": "bytes",
          "name": "data",
          "type": "bytes"
        }
      ],
      "name": "safeTransferFrom",
      "outputs": [],
      "stateMutability": "nonpayable",
      "type": "function"
    },
    {
      "inputs": [
        {
          "internalType": "address",
          "name": "from",
          "type": "address"
        },
        {
          "internalType": "address",
          "name": "to",
          "type": "address"
        },
        {
          "internalType": "uint256",
          "name": "id",
          "type": "uint256"
        },
        {
          "internalType": "uint256",
          "name": "amount",
          "type": "uint256"
        },
        {
          "internalType": "bytes",
          "name": "data",
          "type": "bytes"
        }
      ],
      "name": "safeTransferFrom",
      "outputs": [],
      "stateMutability": "nonpayable",
      "type": "function"
    },
    {
      "inputs": [
        {
          "internalType": "address",
          "name": "from",
          "type": "address"
        },
        {
          "internalType": "address",
          "name": "to",
          "type": "address"
        },
        {
          "internalType": "uint256[]",
          "name": "ids",
          "type": "uint256[]"
        },
        {
          "internalType": "uint256[]",
          "name": "amounts",
          "type": "uint256[]"
        },
        {
          "internalType": "bytes",
          "name": "data",
          "type": "bytes"
        }
      ],
      "name": "safeBatchTransferFrom",
      "outputs": [],
      "stateMutability": "nonpayable",
      "type": "function"
    },
    {
      "inputs": [
        {
          "internalType": "address",
          "name": "to",
          "type": "address"
        },
        {
          "internalType": "uint256",
          "name": "id",
          "type": "uint256"
        },
        {
          "internalType": "uint256",
          "name": "amount",
          "type": "uint256"
        },
        {
          "internalType": "bytes",
          "name": "data",
          "type": "bytes"
        }
      ],
      "name": "mint",
      "outputs": [],
      "stateMutability": "nonpayable",
      "type": "function"
    },
    {
      "inputs": [
        {
          "internalType": "address",
          "name": "to",
          "type": "address"
        },
        {
          "internalType": "uint256[]",
          "name": "ids",
          "type": "uint256[]"
        },
        {
          "internalType": "uint256[]",
          "name": "amounts",
          "type": "uint256[]"
        },
        {
          "internalType": "bytes",
          "name": "data",
          "type": "bytes"
        }
      ],
      "name": "mintBatch",
      "outputs": [],
      "stateMutability": "nonpayable",
      "type": "function"
    },
    {
      "inputs": [
        {
          "internalType": "address",
          "name": "from",
          "type": "address"
        },
        {
          "internalType": "uint256",
          "name": "id",
          "type": "uint256"
        },
        {
          "internalType": "uint256",
          "name": "amount",
          "type": "uint256"
        }
      ],
      "name": "burn",
      "outputs": [],
      "stateMutability": "nonpayable",
      "type": "function"
    },
    {
      "inputs": [
        {
          "internalType": "address",
          "name": "from",
          "type": "address"
        },
        {
          "internalType": "uint256[]",
          "name": "ids",
          "type": "uint256[]"
        },
        {
          "internalType": "uint256[]",
          "name": "amounts",
          "type": "uint256[]"
        }
      ],
      "name": "burnBatch",
      "outputs": [],
      "stateMutability": "nonpayable",
      "type": "function"
    },
    {
      "inputs": [
        {
          "internalType": "uint256",
          "name": "id",
          "type": "uint256"
        }
      ],
      "name": "typeOf",
      "outputs": [
        {
          "internalType": "bytes32",
          "name": "",
          "type": "bytes32"
        }
      ],
      "stateMutability": "view",
      "type": "function"
    },
    {
      "inputs": [
        {
          "internalType": "uint256",
          "name": "id",
          "type": "uint256"
        }
      ],
      "name": "ownersOf",
      "outputs": [
        {
          "internalType": "address[]",
          "name": "",
          "type": "address[]"
        }
      ],
      "stateMutability": "view",
      "type": "function"
    },
    {
      "inputs": [
        {
          "internalType": "address",
          "name": "account",
          "type": "address"
        },
        {
          "internalType": "uint256",
          "name": "id",
          "type": "uint256"
        }
      ],
      "name": "balanceOf",
      "outputs": [
        {
          "internalType": "uint256",
          "name": "",
          "type": "uint256"
        }
      ],
      "stateMutability": "view",
      "type": "function"
    },
    {
      "inputs": [
        {
          "internalType": "address",
          "name": "owner",
          "type": "address"
        }
      ],
      "name": "balanceOf",
      "outputs": [
        {
          "internalType": "uint256",
          "name": "balance",
          "type": "uint256"
        }
      ],
      "stateMutability": "view",
      "type": "function"
    },
    {
      "inputs": [
        {
          "internalType": "uint256",
          "name": "tokenId",
          "type": "uint256"
        }
      ],
      "name": "ownerOf",
      "outputs": [
        {
          "internalType": "address",
          "name": "owner",
          "type": "address"
        }
      ],
      "stateMutability": "view",
      "type": "function"
    },
    {
      "inputs": [
        {
          "internalType": "address",
          "name": "to",
          "type": "address"
        },
        {
          "internalType": "uint256",
          "name": "tokenId",
          "type": "uint256"
        }
      ],
      "name": "approve",
      "outputs": [],
      "stateMutability": "nonpayable",
      "type": "function"
    },
    {
      "inputs": [
        {
          "internalType": "uint256",
          "name": "tokenId",
          "type": "uint256"
        }
      ],
      "name": "getApproved",
      "outputs": [
        {
          "internalType": "address",
          "name": "operator",
          "type": "address"
        }
      ],
      "stateMutability": "view",
      "type": "function"
    },
    {
      "inputs": [
        {
          "internalType": "uint256",
          "name": "id",
          "type": "uint256"
        }
      ],
      "name": "exists",
      "outputs": [
        {
          "internalType": "bool",
          "name": "",
          "type": "bool"
        }
      ],
      "stateMutability": "view",
      "type": "function"
    },
    {
      "inputs": [],
      "name": "totalSupply",
      "outputs": [
        {
          "internalType": "uint256",
          "name": "",
          "type": "uint256"
        }
      ],
      "stateMutability": "view",
      "type": "function"
    },
    {
      "inputs": [
        {
          "internalType": "uint256",
          "name": "id",
          "type": "uint256"
        }
      ],
      "name": "totalSupply",
      "outputs": [
        {
          "internalType": "uint256",
          "name": "",
          "type": "uint256"
        }
      ],
      "stateMutability": "view",
      "type": "function"
    },
    {
      "inputs": [
        {
          "internalType": "address",
          "name": "owner",
          "type": "address"
        },
        {
          "internalType": "uint256",
          "name": "index",
          "type": "uint256"
        }
      ],
      "name": "tokenOfOwnerByIndex",
      "outputs": [
        {
          "internalType": "uint256",
          "name": "tokenId",
          "type": "uint256"
        }
      ],
      "stateMutability": "view",
      "type": "function"
    },
    {
      "inputs": [
        {
          "internalType": "uint256",
          "name": "index",
          "type": "uint256"
        }
      ],
      "name": "tokenByIndex",
      "outputs": [
        {
          "internalType": "uint256",
          "name": "",
          "type": "uint256"
        }
      ],
      "stateMutability": "view",
      "type": "function"
    },
    {
      "inputs": [
        {
          "internalType": "uint256",
          "name": "tokenId",
          "type": "uint256"
        }
      ],
      "name": "tokenURI",
      "outputs": [
        {
          "internalType": "string",
          "name": "",
          "type": "string"
        }
      ],
      "stateMutability": "view",
      "type": "function"
    },
    {
      "inputs": [
        {
          "internalType": "uint256",
          "name": "id",
          "type": "uint256"
        }
      ],
      "name": "uri",
      "outputs": [
        {
          "internalType": "string",
          "name": "",
          "type": "string"
        }
      ],
      "stateMutability": "view",
      "type": "function"
    },
    {
      "inputs": [
        {
          "internalType": "string",
          "name": "token_uri",
          "type": "string"
        }
      ],
      "name": "setURI",
      "outputs": [],
      "stateMutability": "nonpayable",
      "type": "function"
    },
    {
      "inputs": [
        {
          "internalType": "string",
          "name": "token_uri",
          "type": "string"
        },
        {
          "internalType": "uint256",
          "name": "token_id",
          "type": "uint256"
        }
      ],
      "name": "setURI",
      "outputs": [],
      "stateMutability": "nonpayable",
      "type": "function"
    },
    {
      "inputs": [],
      "name": "baseURI",
      "outputs": [
        {
          "internalType": "string",
          "name": "",
          "type": "string"
        }
      ],
      "stateMutability": "view",
      "type": "function"
    },
    {
      "inputs": [
        {
          "internalType": "address",
          "name": "account",
          "type": "address"
        },
        {
          "internalType": "address",
          "name": "operator",
          "type": "address"
        }
      ],
      "name": "isApprovedForAll",
      "outputs": [
        {
          "internalType": "bool",
          "name": "",
          "type": "bool"
        }
      ],
      "stateMutability": "view",
      "type": "function"
    },
    {
      "inputs": [
        {
          "internalType": "address",
          "name": "operator",
          "type": "address"
        },
        {
          "internalType": "bool",
          "name": "approved",
          "type": "bool"
        }
      ],
      "name": "setApprovalForAll",
      "outputs": [],
      "stateMutability": "nonpayable",
      "type": "function"
    },
    {
      "inputs": [],
      "name": "name",
      "outputs": [
        {
          "internalType": "string",
          "name": "",
          "type": "string"
        }
      ],
      "stateMutability": "view",
      "type": "function"
    },
    {
      "inputs": [],
      "name": "symbol",
      "outputs": [
        {
          "internalType": "string",
          "name": "",
          "type": "string"
        }
      ],
      "stateMutability": "view",
      "type": "function"
    },
    {
      "inputs": [
        {
          "internalType": "bytes4",
          "name": "interfaceId",
          "type": "bytes4"
        }
      ],
      "name": "supportsInterface",
      "outputs": [
        {
          "internalType": "bool",
          "name": "",
          "type": "bool"
        }
      ],
      "stateMutability": "view",
      "type": "function"
    }
  ],
  "bytecode": "0x60806040523480156200001157600080fd5b5060405162005b5a38038062005b5a8339810160408190526200003491620003ce565b82806200004181620000e7565b506005805460ff191690556200005960003362000100565b620000857f9f2df0fed2c77648de5860a4cc508cd0818c85b8b8a1ab4ceeef8d981c8956a63362000100565b620000b17f65d7a28e3265b37a6474929f336521b332c1681b933f6cb9f3376673440d862a3362000100565b508151620000c79060079060208501906200025b565b508051620000dd9060089060208401906200025b565b505050506200049c565b8051620000fc9060049060208401906200025b565b5050565b620000fc82826200011d82826200014960201b620020041760201c565b60008281526001602090815260409091206200014491839062002088620001e9821b17901c565b505050565b6000828152602081815260408083206001600160a01b038516845290915290205460ff16620000fc576000828152602081815260408083206001600160a01b03851684529091529020805460ff19166001179055620001a53390565b6001600160a01b0316816001600160a01b0316837f2f8788117e7eff1d82e926ec794901d17c78024a50270940304540a733656f0d60405160405180910390a45050565b600062000200836001600160a01b03841662000209565b90505b92915050565b6000818152600183016020526040812054620002525750815460018181018455600084815260208082209093018490558454848252828601909352604090209190915562000203565b50600062000203565b82805462000269906200045f565b90600052602060002090601f0160209004810192826200028d5760008555620002d8565b82601f10620002a857805160ff1916838001178555620002d8565b82800160010185558215620002d8579182015b82811115620002d8578251825591602001919060010190620002bb565b50620002e6929150620002ea565b5090565b5b80821115620002e65760008155600101620002eb565b634e487b7160e01b600052604160045260246000fd5b600082601f8301126200032957600080fd5b81516001600160401b038082111562000346576200034662000301565b604051601f8301601f19908116603f0116810190828211818310171562000371576200037162000301565b816040528381526020925086838588010111156200038e57600080fd5b600091505b83821015620003b2578582018301518183018401529082019062000393565b83821115620003c45760008385830101525b9695505050505050565b600080600060608486031215620003e457600080fd5b83516001600160401b0380821115620003fc57600080fd5b6200040a8783880162000317565b945060208601519150808211156200042157600080fd5b6200042f8783880162000317565b935060408601519150808211156200044657600080fd5b50620004558682870162000317565b9150509250925092565b600181811c908216806200047457607f821691505b602082108114156200049657634e487b7160e01b600052602260045260246000fd5b50919050565b6156ae80620004ac6000396000f3fe608060405234801561001057600080fd5b50600436106102d55760003560e01c806368f222fd11610182578063af005da8116100e9578063ca15c873116100a2578063e63ab1e91161007c578063e63ab1e9146106ba578063e985e9c5146106e1578063f242432a146106f4578063f5298aca1461070757600080fd5b8063ca15c8731461066d578063d539139314610680578063d547741f146106a757600080fd5b8063af005da8146105d4578063b88d4fde146105f4578063ba26ed3014610607578063bd85b0391461061a578063c588ff8b1461063a578063c87b56dd1461065a57600080fd5b80639010d07c1161013b5780639010d07c1461056b57806391d148541461057e57806395d89b4114610591578063a217fddf14610599578063a22cb465146105a1578063a584ab29146105b457600080fd5b806368f222fd1461050f5780636b20c454146105225780636c0360eb1461053557806370a082311461053d578063731133e9146105505780638456cb591461056357600080fd5b80632eb2c2d6116102415780634e1273f4116101fa5780634f6ccce7116101d45780634f6ccce7146104cb5780635c975abb146104de5780636352211e146104e957806367db3b8f146104fc57600080fd5b80634e1273f4146104765780634f558e79146104965780634f64b2be146104b857600080fd5b80632eb2c2d61461040f5780632f2ff15d146104225780632f745c591461043557806336568abe146104485780633f4ba83a1461045b57806342842e0e1461046357600080fd5b8063095ea7b311610293578063095ea7b3146103985780630e89341c146103ab57806318160ddd146103be5780631f7fdffa146103c657806323b872dd146103d9578063248a9ca3146103ec57600080fd5b8062fdd58e146102da57806301ffc9a71461030057806302fe5305146103235780630583e9f81461033857806306fdde0314610358578063081812fc1461036d575b600080fd5b6102ed6102e83660046146ac565b61071a565b6040519081526020015b60405180910390f35b61031361030e3660046146ef565b6107b6565b60405190151581526020016102f7565b6103366103313660046147c1565b610811565b005b6102ed6103463660046147fd565b600a6020526000908152604090205481565b61036061089d565b6040516102f7919061486e565b61038061037b3660046147fd565b61092f565b6040516001600160a01b0390911681526020016102f7565b6103366103a63660046146ac565b6109d8565b6103606103b93660046147fd565b610cbb565b6009546102ed565b6103366103d4366004614915565b610d7e565b6103366103e73660046149ad565b610fbc565b6102ed6103fa3660046147fd565b60009081526020819052604090206001015490565b61033661041d366004614a75565b61112c565b610336610430366004614b2f565b6111dc565b6102ed6104433660046146ac565b611202565b610336610456366004614b2f565b6112b5565b610336611333565b6103366104713660046149ad565b6113d9565b610489610484366004614b5b565b611539565b6040516102f79190614c60565b6103136104a43660046147fd565b600090815260066020526040902054151590565b6102ed6104c63660046147fd565b611662565b6102ed6104d93660046147fd565b611683565b60055460ff16610313565b6103806104f73660046147fd565b611711565b61033661050a366004614c73565b611840565b6102ed61051d3660046146ac565b6118e3565b610336610530366004614cb7565b611914565b610360611aa4565b6102ed61054b366004614d2a565b611ab3565b61033661055e366004614d45565b611b3a565b610336611b68565b610380610579366004614d99565b611c0c565b61031361058c366004614b2f565b611c24565b610360611c4d565b6102ed600081565b6103366105af366004614dbb565b611c5c565b6105c76105c23660046147fd565b611c66565b6040516102f79190614df7565b6102ed6105e23660046147fd565b600d6020526000908152604090205481565b610336610602366004614e44565b611cd2565b610380610615366004614d99565b611e66565b6102ed6106283660046147fd565b60009081526006602052604090205490565b6102ed6106483660046147fd565b6000908152600d602052604090205490565b6103606106683660046147fd565b611e9e565b6102ed61067b3660046147fd565b611f1c565b6102ed7f9f2df0fed2c77648de5860a4cc508cd0818c85b8b8a1ab4ceeef8d981c8956a681565b6103366106b5366004614b2f565b611f33565b6102ed7f65d7a28e3265b37a6474929f336521b332c1681b933f6cb9f3376673440d862a81565b6103136106ef366004614eb2565b611f59565b610336610702366004614edc565b611f89565b610336610715366004614f53565b611fdf565b60006001600160a01b03831661078b5760405162461bcd60e51b815260206004820152602b60248201527f455243313135353a2062616c616e636520717565727920666f7220746865207a60448201526a65726f206164647265737360a81b60648201526084015b60405180910390fd5b5060008181526002602090815260408083206001600160a01b03861684529091529020545b92915050565b60006001600160e01b031982166380ac58cd60e01b14806107e757506001600160e01b0319821663780e9d6360e01b145b8061080257506001600160e01b03198216635b5e139f60e01b145b806107b057506107b08261209d565b61081c600033611c24565b6108585760405162461bcd60e51b815260206004820152600d60248201526c26bab9ba1031329030b236b4b760991b6044820152606401610782565b610861816120a8565b60007f6bb7ff708619ba0610cba295a58592e0451dee2622938c8755667688daf3529b82604051610892919061486e565b60405180910390a250565b6060600780546108ac90614f86565b80601f01602080910402602001604051908101604052809291908181526020018280546108d890614f86565b80156109255780601f106108fa57610100808354040283529160200191610925565b820191906000526020600020905b81548152906001019060200180831161090857829003601f168201915b5050505050905090565b60008181526006602052604081205481106109a15760405162461bcd60e51b815260206004820152602c60248201527f4552433732313a20617070726f76656420717565727920666f72206e6f6e657860448201526b34b9ba32b73a103a37b5b2b760a11b6064820152608401610782565b6000828152600b60205260409020546001146109bc57600080fd5b506000908152601160205260409020546001600160a01b031690565b6001600160a01b038216331415610a3b5760405162461bcd60e51b815260206004820152602160248201527f4552433732313a20617070726f76616c20746f2063757272656e74206f776e656044820152603960f91b6064820152608401610782565b60008181526006602052604081205411610a675760405162461bcd60e51b815260040161078290614fbb565b600080610a74338461071a565b1115610b12576000828152601060209081526040808320338452825280832080546001600160a01b0319166001600160a01b038816179055848352600b90915290205460011415610ae757600082815260116020526040902080546001600160a01b0319166001600160a01b0385161790555b5060405160019082906001600160a01b03851690339060008051602061565983398151915290600090a45b60005b6000838152600b6020526040902054811015610c4f576000838152600b60205260408120805483908110610b4b57610b4b615007565b60009182526020808320909101548683526010825260408084206001600160a01b0392831680865293529092205490925016331480610b8f5750610b8f8133611f59565b15610c3c5760008481526010602090815260408083206001600160a01b03858116855290835281842080546001600160a01b031916918a16919091179055868352600b90915290205460011415610c0857600084815260116020526040902080546001600160a01b0319166001600160a01b0387161790555b6001925083856001600160a01b0316826001600160a01b031660008051602061565983398151915260405160405180910390a45b5080610c4781615033565b915050610b15565b5080610cb65760405162461bcd60e51b815260206004820152603060248201527f4552433732313a20617070726f76652063616c6c6572206973206e6f74206f7760448201526f1b995c881b9bdc88185c1c1c9bdd995960821b6064820152608401610782565b505050565b600081815260126020526040812080546060929190610cd990614f86565b80601f0160208091040260200160405190810160405280929190818152602001828054610d0590614f86565b8015610d525780601f10610d2757610100808354040283529160200191610d52565b820191906000526020600020905b815481529060010190602001808311610d3557829003601f168201915b505050505090508051600014610d685792915050565b610d71836120bb565b9392505050565b50919050565b6001600160a01b038416610de25760405162461bcd60e51b815260206004820152602560248201527f466972655a6172644e46543a206d696e7420746f20746865207a65726f206164604482015264647265737360d81b6064820152608401610782565b6000610dee8486612145565b9050610df9816122b1565b835160011415610e9257610e438585600081518110610e1a57610e1a615007565b602002602001015185600081518110610e3557610e35615007565b60200260200101518561236e565b83600081518110610e5657610e56615007565b6020026020010151856001600160a01b031660006001600160a01b031660008051602061563983398151915260405160405180910390a4610f07565b610e9e858585856123c0565b60005b8451811015610f0557848181518110610ebc57610ebc615007565b6020026020010151866001600160a01b031660006001600160a01b031660008051602061563983398151915260405160405180910390a480610efd81615033565b915050610ea1565b505b60005b8451811015610fa0576001600b6000878481518110610f2b57610f2b615007565b60200260200101518152602001908152602001600020805490501115610f8e5760116000868381518110610f6157610f61615007565b6020026020010151815260200190815260200160002060006101000a8154906001600160a01b0302191690555b80610f9881615033565b915050610f0a565b50610fab8186612412565b610fb5818661250e565b5050505050565b8282826000610fd78260009081526006602052604090205490565b11610ff45760405162461bcd60e51b815260040161078290614fbb565b6000805b6000838152600b6020526040902054811015611070576000838152600b6020526040902080546001600160a01b03871691908390811061103a5761103a615007565b6000918252602090912001546001600160a01b0316141561105e5760019150611070565b8061106881615033565b915050610ff8565b508061108e5760405162461bcd60e51b81526004016107829061504e565b6001600160a01b0384163314806110aa57506110aa8433611f59565b806110c257506110c26110bc836125d7565b85612622565b6110de5760405162461bcd60e51b815260040161078290615093565b6001600160a01b0383166111045760405162461bcd60e51b8152600401610782906150e4565b61112387878760405180602001604052806000815250600060016126ab565b50505050505050565b6111d2888888888080602002602001604051908101604052809392919081815260200183836020028082843760009201919091525050604080516020808c0282810182019093528b82529093508b92508a91829185019084908082843760009201919091525050604080516020601f8b01819004810282018101909252898152925089915088908190840183828082843760009201829052506001935091506127059050565b5050505050505050565b6000828152602081905260409020600101546111f88133612a3f565b610cb68383612aa3565b6001600160a01b0382166000908152600e602052604081205482106112785760405162461bcd60e51b815260206004820152602660248201527f466972655a6172644e46543a206f776e657220696e646578206f7574206f6620604482015265626f756e647360d01b6064820152608401610782565b6001600160a01b0383166000908152600e602052604090208054839081106112a2576112a2615007565b9060005260206000200154905092915050565b6001600160a01b03811633146113255760405162461bcd60e51b815260206004820152602f60248201527f416363657373436f6e74726f6c3a2063616e206f6e6c792072656e6f756e636560448201526e103937b632b9903337b91039b2b63360891b6064820152608401610782565b61132f8282612ac5565b5050565b61135d7f65d7a28e3265b37a6474929f336521b332c1681b933f6cb9f3376673440d862a33611c24565b6113cf5760405162461bcd60e51b815260206004820152603b60248201527f455243313135355072657365744d696e7465725061757365723a206d7573742060448201527f686176652070617573657220726f6c6520746f20756e706175736500000000006064820152608401610782565b6113d7612ae7565b565b82828260006113f48260009081526006602052604090205490565b116114115760405162461bcd60e51b815260040161078290614fbb565b6000805b6000838152600b602052604090205481101561148d576000838152600b6020526040902080546001600160a01b03871691908390811061145757611457615007565b6000918252602090912001546001600160a01b0316141561147b576001915061148d565b8061148581615033565b915050611415565b50806114ab5760405162461bcd60e51b81526004016107829061504e565b6001600160a01b0384163314806114c757506114c78433611f59565b806114d957506114d96110bc836125d7565b6114f55760405162461bcd60e51b815260040161078290615093565b6001600160a01b03831661151b5760405162461bcd60e51b8152600401610782906150e4565b611123878787604051806020016040528060008152506001806126ab565b6060815183511461159e5760405162461bcd60e51b815260206004820152602960248201527f455243313135353a206163636f756e747320616e6420696473206c656e677468604482015268040dad2e6dac2e8c6d60bb1b6064820152608401610782565b600083516001600160401b038111156115b9576115b961470c565b6040519080825280602002602001820160405280156115e2578160200160208202803683370190505b50905060005b845181101561165a5761162d85828151811061160657611606615007565b602002602001015185838151811061162057611620615007565b602002602001015161071a565b82828151811061163f5761163f615007565b602090810291909101015261165381615033565b90506115e8565b509392505050565b6009818154811061167257600080fd5b600091825260209091200154905081565b60095460009082106116ec5760405162461bcd60e51b815260206004820152602c60248201527f455243373231456e756d657261626c653a20676c6f62616c20696e646578206f60448201526b7574206f6620626f756e647360a01b6064820152608401610782565b600982815481106116ff576116ff615007565b90600052602060002001549050919050565b6000818152600b6020526040812054600111156117825760405162461bcd60e51b815260206004820152602960248201527f4552433732313a206f776e657220717565727920666f72206e6f6e657869737460448201526832b73a103a37b5b2b760b91b6064820152608401610782565b6000828152600b60205260409020546001146118065760405162461bcd60e51b815260206004820152603960248201527f466972655a6172644e46543a2074686973207175657279206d6179207365727660448201527f65206f6e6c792073696e676c6520746f6b656e206f776e6572000000000000006064820152608401610782565b6000828152600b60205260408120805490919061182557611825615007565b6000918252602090912001546001600160a01b031692915050565b61184b600033611c24565b6118875760405162461bcd60e51b815260206004820152600d60248201526c26bab9ba1031329030b236b4b760991b6044820152606401610782565b600081815260126020908152604090912083516118a6928501906145f7565b50807f6bb7ff708619ba0610cba295a58592e0451dee2622938c8755667688daf3529b836040516118d7919061486e565b60405180910390a25050565b600e60205281600052604060002081815481106118ff57600080fd5b90600052602060002001600091509150505481565b6001600160a01b03831633148061193057506119308333611f59565b8061194057506119408284612622565b61195c5760405162461bcd60e51b815260040161078290615128565b8151600114156119f4576119a5838360008151811061197d5761197d615007565b60200260200101518360008151811061199857611998615007565b6020026020010151612b7a565b816000815181106119b8576119b8615007565b602002602001015160006001600160a01b0316846001600160a01b031660008051602061563983398151915260405160405180910390a4611a68565b6119ff838383612c7f565b60005b8251811015611a6657828181518110611a1d57611a1d615007565b602002602001015160006001600160a01b0316856001600160a01b031660008051602061563983398151915260405160405180910390a480611a5e81615033565b915050611a02565b505b6000611a748385612145565b9050611a81818486612e10565b611a8b8185613018565b611a9581856132b7565b611a9e81613498565b50505050565b6060611aae6135de565b905090565b60006001600160a01b038216611b1e5760405162461bcd60e51b815260206004820152602a60248201527f4552433732313a2062616c616e636520717565727920666f7220746865207a65604482015269726f206164647265737360b01b6064820152608401610782565b506001600160a01b03166000908152600e602052604090205490565b6000611b45846125d7565b90506000611b52846125d7565b9050611b6086838386610d7e565b505050505050565b611b927f65d7a28e3265b37a6474929f336521b332c1681b933f6cb9f3376673440d862a33611c24565b611c045760405162461bcd60e51b815260206004820152603960248201527f455243313135355072657365744d696e7465725061757365723a206d7573742060448201527f686176652070617573657220726f6c6520746f207061757365000000000000006064820152608401610782565b6113d76135ed565b6000828152600160205260408120610d719083613668565b6000918252602082815260408084206001600160a01b0393909316845291905290205460ff1690565b6060600880546108ac90614f86565b61132f8282613674565b6000818152600b6020908152604091829020805483518184028101840190945280845260609392830182828015611cc657602002820191906000526020600020905b81546001600160a01b03168152600190910190602001808311611ca8575b50505050509050919050565b8484846000611ced8260009081526006602052604090205490565b11611d0a5760405162461bcd60e51b815260040161078290614fbb565b6000805b6000838152600b6020526040902054811015611d86576000838152600b6020526040902080546001600160a01b038716919083908110611d5057611d50615007565b6000918252602090912001546001600160a01b03161415611d745760019150611d86565b80611d7e81615033565b915050611d0e565b5080611da45760405162461bcd60e51b81526004016107829061504e565b6001600160a01b038416331480611dc05750611dc08433611f59565b80611dd25750611dd26110bc836125d7565b611dee5760405162461bcd60e51b815260040161078290615093565b6001600160a01b038316611e145760405162461bcd60e51b8152600401610782906150e4565b611e5b89898989898080601f016020809104026020016040519081016040528093929190818152602001838380828437600092019190915250600192508291506126ab9050565b505050505050505050565b600b6020528160005260406000208181548110611e8257600080fd5b6000918252602090912001546001600160a01b03169150829050565b60008181526006602052604081205460609110611f135760405162461bcd60e51b815260206004820152602d60248201527f466972655a6172644e46543a2055524920717565727920666f72206e6f6e2d6560448201526c3c34b9ba32b73a103a37b5b2b760991b6064820152608401610782565b6107b082610cbb565b60008181526001602052604081206107b09061367f565b600082815260208190526040902060010154611f4f8133612a3f565b610cb68383612ac5565b6001600160a01b03808316600090815260036020908152604080832093851683529290529081205460ff16610d71565b611b608686611f97876125d7565b611fa0876125d7565b86868080601f01602080910402602001604051908101604052809392919081815260200183838082843760009201829052506001935091506127059050565b6000611fea836125d7565b90506000611ff7836125d7565b9050610fb5858383611914565b61200e8282611c24565b61132f576000828152602081815260408083206001600160a01b03851684529091529020805460ff191660011790556120443390565b6001600160a01b0316816001600160a01b0316837f2f8788117e7eff1d82e926ec794901d17c78024a50270940304540a733656f0d60405160405180910390a45050565b6000610d71836001600160a01b038416613689565b60006107b0826136d8565b805161132f9060049060208401906145f7565b6060600480546120ca90614f86565b80601f01602080910402602001604051908101604052809291908181526020018280546120f690614f86565b8015611cc65780601f1061211857610100808354040283529160200191611cc6565b820191906000526020600020905b8154815290600101906020018083116121265750939695505050505050565b6060600083516001600160401b038111156121625761216261470c565b60405190808252806020026020018201604052801561218b578160200160208202803683370190505b5090506000805b855181101561220c576121b18587838151811061162057611620615007565b6121fa578581815181106121c7576121c7615007565b60200260200101518383806121db90615033565b9450815181106121ed576121ed615007565b6020026020010181815250505b8061220481615033565b915050612192565b506000816001600160401b038111156122275761222761470c565b604051908082528060200260200182016040528015612250578160200160208202803683370190505b50905060005b828110156122a75783818151811061227057612270615007565b602002602001015182828151811061228a5761228a615007565b60209081029190910101528061229f81615033565b915050612256565b5095945050505050565b60005b815181101561132f576122ee8282815181106122d2576122d2615007565b6020026020010151600090815260066020526040902054151590565b61235c57600980549050600a600084848151811061230e5761230e615007565b6020026020010151815260200190815260200160002081905550600982828151811061233c5761233c615007565b602090810291909101810151825460018101845560009384529190922001555b8061236681615033565b9150506122b4565b6123987f9f2df0fed2c77648de5860a4cc508cd0818c85b8b8a1ab4ceeef8d981c8956a633611c24565b6123b45760405162461bcd60e51b815260040161078290615171565b611a9e84848484613718565b6123ea7f9f2df0fed2c77648de5860a4cc508cd0818c85b8b8a1ab4ceeef8d981c8956a633611c24565b6124065760405162461bcd60e51b815260040161078290615171565b611a9e848484846137f0565b60005b8251811015610cb657600b600084838151811061243457612434615007565b6020026020010151815260200190815260200160002080549050600c6000846001600160a01b03166001600160a01b03168152602001908152602001600020600085848151811061248757612487615007565b6020026020010151815260200190815260200160002081905550600b60008483815181106124b7576124b7615007565b602090810291909101810151825281810192909252604001600090812080546001810182559082529190200180546001600160a01b0319166001600160a01b0384161790558061250681615033565b915050612415565b60005b8251811015610cb6576001600160a01b0382166000908152600e6020908152604080832054600f909252822085519192909186908590811061255557612555615007565b6020026020010151815260200190815260200160002081905550600e6000836001600160a01b03166001600160a01b031681526020019081526020016000208382815181106125a6576125a6615007565b60209081029190910181015182546001810184556000938452919092200155806125cf81615033565b915050612511565b6040805160018082528183019092526060916000919060208083019080368337019050509050828160008151811061261157612611615007565b602090810291909101015292915050565b6000805b83518110156126a157336001600160a01b03166010600086848151811061264f5761264f615007565b602090810291909101810151825281810192909252604090810160009081206001600160a01b03808916835293522054161461268f5760009150506107b0565b8061269981615033565b915050612626565b5060019392505050565b80156126c4576001600160a01b0386166126c457600080fd5b6001600160a01b0385166126d757600080fd5b60006126e2856125d7565b905060006126f86126f3898861071a565b6125d7565b90506111d2888884848989895b83518551146127265760405162461bcd60e51b8152600401610782906151ce565b6001600160a01b03861661278a5760405162461bcd60e51b815260206004820152602560248201527f455243313135353a207472616e7366657220746f20746865207a65726f206164604482015264647265737360d81b6064820152608401610782565b336001600160a01b0388168114806127a757506127a78882611f59565b806127b757506127b78689612622565b6127d35760405162461bcd60e51b815260040161078290615128565b6127e181898989898961394b565b60006127ed8789612145565b90506127fc8989898989613a1d565b6000612808888b612145565b905061281581898c612e10565b61281f828a612412565b612829828a61250e565b612833818b613018565b61283d818b6132b7565b60018851111561290a57886001600160a01b03168a6001600160a01b0316846001600160a01b03167f4a39dc06d4c0dbc64b70af90fd698a233a518aa5d07e595d983b8c0526c8f7fb8b8b604051612896929190615216565b60405180910390a460005b8851811015612904578881815181106128bc576128bc615007565b60200260200101518a6001600160a01b03168c6001600160a01b031660008051602061563983398151915260405160405180910390a4806128fc81615033565b9150506128a1565b506129e8565b886001600160a01b03168a6001600160a01b0316846001600160a01b03167fc3d58168c5ae7397731d063d5bbf3d657854427343f4c083240f7aacaa2d0f628b60008151811061295c5761295c615007565b60200260200101518b60008151811061297757612977615007565b6020026020010151604051612996929190918252602082015260400190565b60405180910390a4876000815181106129b1576129b1615007565b6020026020010151896001600160a01b03168b6001600160a01b031660008051602061563983398151915260405160405180910390a45b846129f557505050611123565b83612a0d57612a08838b8b8b8b8b613b49565b612a33565b612a338a8a8a600081518110612a2557612a25615007565b602002602001015189613d94565b50505050505050505050565b612a498282611c24565b61132f57612a61816001600160a01b03166014613e9b565b612a6c836020613e9b565b604051602001612a7d929190615244565b60408051601f198184030181529082905262461bcd60e51b82526107829160040161486e565b612aad8282612004565b6000828152600160205260409020610cb69082612088565b612acf8282614036565b6000828152600160205260409020610cb6908261409b565b60055460ff16612b305760405162461bcd60e51b815260206004820152601460248201527314185d5cd8589b194e881b9bdd081c185d5cd95960621b6044820152606401610782565b6005805460ff191690557f5db9ee0a495bf2e6ff9c91a7834c1ba4fdd244a5e8aa4e537bd38aeae4b073aa335b6040516001600160a01b03909116815260200160405180910390a1565b6001600160a01b038316612ba05760405162461bcd60e51b8152600401610782906152b9565b33612bcf81856000612bb1876125d7565b612bba876125d7565b6040518060200160405280600081525061394b565b60008381526002602090815260408083206001600160a01b038816845290915290205482811015612c125760405162461bcd60e51b8152600401610782906152fc565b60008481526002602090815260408083206001600160a01b03898116808652918452828520888703905582518981529384018890529092908616917fc3d58168c5ae7397731d063d5bbf3d657854427343f4c083240f7aacaa2d0f62910160405180910390a45050505050565b6001600160a01b038316612ca55760405162461bcd60e51b8152600401610782906152b9565b8051825114612cc65760405162461bcd60e51b8152600401610782906151ce565b6000339050612ce98185600086866040518060200160405280600081525061394b565b60005b8351811015612db1576000848281518110612d0957612d09615007565b602002602001015190506000848381518110612d2757612d27615007565b60209081029190910181015160008481526002835260408082206001600160a01b038c168352909352919091205490915081811015612d785760405162461bcd60e51b8152600401610782906152fc565b60009283526002602090815260408085206001600160a01b038b1686529091529092209103905580612da981615033565b915050612cec565b5060006001600160a01b0316846001600160a01b0316826001600160a01b03167f4a39dc06d4c0dbc64b70af90fd698a233a518aa5d07e595d983b8c0526c8f7fb8686604051612e02929190615216565b60405180910390a450505050565b60005b8351811015612f2357828181518110612e2e57612e2e615007565b602002602001015160006001600160a01b0316836001600160a01b031660008051602061565983398151915260405160405180910390a460006001600160a01b031660106000858481518110612e8657612e86615007565b602090810291909101810151825281810192909252604090810160009081206001600160a01b038088168352935220541614612f115760106000848381518110612ed257612ed2615007565b602090810291909101810151825281810192909252604090810160009081206001600160a01b0386168252909252902080546001600160a01b03191690555b80612f1b81615033565b915050612e13565b5060005b8251811015611a9e57828181518110612f4257612f42615007565b602002602001015160006001600160a01b0316836001600160a01b031660008051602061565983398151915260405160405180910390a460006001600160a01b031660116000858481518110612f9a57612f9a615007565b6020908102919091018101518252810191909152604001600020546001600160a01b0316146130065760116000848381518110612fd957612fd9615007565b6020026020010151815260200190815260200160002060006101000a8154906001600160a01b0302191690555b8061301081615033565b915050612f27565b60005b8251811015610cb6576001600160a01b0382166000908152600c602052604081208451829086908590811061305257613052615007565b60200260200101518152602001908152602001600020549050600b600085848151811061308157613081615007565b602002602001015181526020019081526020016000206001600b60008786815181106130af576130af615007565b60200260200101518152602001908152602001600020805490506130d39190615340565b815481106130e3576130e3615007565b600091825260208220015485516001600160a01b0390911691600b9187908690811061311157613111615007565b60200260200101518152602001908152602001600020828154811061313857613138615007565b9060005260206000200160006101000a8154816001600160a01b0302191690836001600160a01b0316021790555080600c6000600b600088878151811061318157613181615007565b6020026020010151815260200190815260200160002084815481106131a8576131a8615007565b60009182526020808320909101546001600160a01b03168352820192909252604001812086519091908790869081106131e3576131e3615007565b6020026020010151815260200190815260200160002081905550600b600085848151811061321357613213615007565b6020026020010151815260200190815260200160002080548061323857613238615357565b60008281526020808220830160001990810180546001600160a01b03191690559092019092556001600160a01b0385168252600c905260408120855190919086908590811061328957613289615007565b60200260200101518152602001908152602001600020600090555080806132af90615033565b91505061301b565b60005b8251811015610cb6576001600160a01b0382166000908152600f60205260408120845182908690859081106132f1576132f1615007565b60209081029190910181015182528181019290925260409081016000908120546001600160a01b0387168252600e9093522080549192509061333590600190615340565b8154811061334557613345615007565b9060005260206000200154600e6000856001600160a01b03166001600160a01b03168152602001908152602001600020828154811061338657613386615007565b60009182526020808320909101929092556001600160a01b0385168152600f82526040808220600e909352812080548493929190849081106133ca576133ca615007565b9060005260206000200154815260200190815260200160002081905550600f6000846001600160a01b03166001600160a01b03168152602001908152602001600020600085848151811061342057613420615007565b6020026020010151815260200190815260200160002060009055600e6000846001600160a01b03166001600160a01b0316815260200190815260200160002080548061346e5761346e615357565b6001900381819060005260206000200160009055905550808061349090615033565b9150506132ba565b60005b815181101561132f576134b98282815181106122d2576122d2615007565b6135cc576000600a60008484815181106134d5576134d5615007565b60200260200101518152602001908152602001600020549050600960016009805490506135029190615340565b8154811061351257613512615007565b90600052602060002001546009828154811061353057613530615007565b906000526020600020018190555080600a60006009848154811061355657613556615007565b9060005260206000200154815260200190815260200160002081905550600980548061358457613584615357565b60019003818190600052602060002001600090559055600a60008484815181106135b0576135b0615007565b6020026020010151815260200190815260200160002060009055505b806135d681615033565b91505061349b565b6060600480546108ac90614f86565b60055460ff16156136335760405162461bcd60e51b815260206004820152601060248201526f14185d5cd8589b194e881c185d5cd95960821b6044820152606401610782565b6005805460ff191660011790557f62e78cea01bee320cd4e420270b5ea74000d11b0c9f74754ebdbfc544b05a258612b5d3390565b6000610d7183836140b0565b61132f3383836140c7565b60006107b0825490565b60008181526001830160205260408120546136d0575081546001818101845560008481526020808220909301849055845484825282860190935260409020919091556107b0565b5060006107b0565b60006001600160e01b03198216636cdb3d1360e11b148061370957506001600160e01b031982166303a24d0760e21b145b806107b057506107b082614126565b6001600160a01b03841661373e5760405162461bcd60e51b81526004016107829061536d565b3361375e8160008761374f886125d7565b613758886125d7565b8761394b565b60008481526002602090815260408083206001600160a01b0389168452909152812080548592906137909084906153ae565b909155505060408051858152602081018590526001600160a01b0380881692600092918516917fc3d58168c5ae7397731d063d5bbf3d657854427343f4c083240f7aacaa2d0f62910160405180910390a4610fb58160008787878761414b565b6001600160a01b0384166138165760405162461bcd60e51b81526004016107829061536d565b81518351146138375760405162461bcd60e51b8152600401610782906151ce565b336138478160008787878761394b565b60005b84518110156138e35783818151811061386557613865615007565b60200260200101516002600087848151811061388357613883615007565b602002602001015181526020019081526020016000206000886001600160a01b03166001600160a01b0316815260200190815260200160002060008282546138cb91906153ae565b909155508190506138db81615033565b91505061384a565b50846001600160a01b031660006001600160a01b0316826001600160a01b03167f4a39dc06d4c0dbc64b70af90fd698a233a518aa5d07e595d983b8c0526c8f7fb8787604051613934929190615216565b60405180910390a4610fb581600087878787614206565b6001600160a01b038516613a0f578051602090811115613969575080515b6000805b828110156139ba576139808160086153c6565b84828151811061399257613992615007565b01602001516001600160f81b031916901c9190911790806139b281615033565b91505061396d565b5060005b8551811015613a0b5781600d60008884815181106139de576139de615007565b60200260200101518152602001908152602001600020819055508080613a0390615033565b9150506139be565b5050505b611b6086868686868661424a565b60005b8351811015611b60576000848281518110613a3d57613a3d615007565b602002602001015190506000848381518110613a5b57613a5b615007565b60209081029190910181015160008481526002835260408082206001600160a01b038d168352909352919091205490915081811015613aef5760405162461bcd60e51b815260206004820152602a60248201527f455243313135353a20696e73756666696369656e742062616c616e636520666f60448201526939103a3930b739b332b960b11b6064820152608401610782565b60008381526002602090815260408083206001600160a01b038d8116855292528083208585039055908a16825281208054849290613b2e9084906153ae565b9250508190555050505080613b4290615033565b9050613a20565b6001600160a01b0384163b15611b6057825160011415613ce957836001600160a01b031663f23a6e61878786600081518110613b8757613b87615007565b602002602001015186600081518110613ba257613ba2615007565b6020026020010151866040518663ffffffff1660e01b8152600401613bcb9594939291906153e5565b6020604051808303816000875af1925050508015613c06575060408051601f3d908101601f19168201909252613c039181019061542a565b60015b613cb357613c12615447565b806308c379a01415613c4c5750613c27615463565b80613c325750613c4e565b8060405162461bcd60e51b8152600401610782919061486e565b505b60405162461bcd60e51b815260206004820152603460248201527f455243313135353a207472616e7366657220746f206e6f6e20455243313135356044820152732932b1b2b4bb32b91034b6b83632b6b2b73a32b960611b6064820152608401610782565b6001600160e01b0319811663f23a6e6160e01b14613ce35760405162461bcd60e51b8152600401610782906154ec565b50611b60565b60405163bc197c8160e01b81526001600160a01b0385169063bc197c8190613d1d9089908990889088908890600401615534565b6020604051808303816000875af1925050508015613d58575060408051601f3d908101601f19168201909252613d559181019061542a565b60015b613d6457613c12615447565b6001600160e01b0319811663bc197c8160e01b146111235760405162461bcd60e51b8152600401610782906154ec565b6001600160a01b0383163b15611a9e57604051630a85bd0160e11b81526001600160a01b0384169063150b7a0290613dd6903390889087908790600401615592565b6020604051808303816000875af1925050508015613e11575060408051601f3d908101601f19168201909252613e0e9181019061542a565b60015b613e6b573d808015613e3f576040519150601f19603f3d011682016040523d82523d6000602084013e613e44565b606091505b508051613e635760405162461bcd60e51b8152600401610782906155cf565b805181602001fd5b6001600160e01b03198116630a85bd0160e11b14610fb55760405162461bcd60e51b8152600401610782906155cf565b60606000613eaa8360026153c6565b613eb59060026153ae565b6001600160401b03811115613ecc57613ecc61470c565b6040519080825280601f01601f191660200182016040528015613ef6576020820181803683370190505b509050600360fc1b81600081518110613f1157613f11615007565b60200101906001600160f81b031916908160001a905350600f60fb1b81600181518110613f4057613f40615007565b60200101906001600160f81b031916908160001a9053506000613f648460026153c6565b613f6f9060016153ae565b90505b6001811115613fe7576f181899199a1a9b1b9c1cb0b131b232b360811b85600f1660108110613fa357613fa3615007565b1a60f81b828281518110613fb957613fb9615007565b60200101906001600160f81b031916908160001a90535060049490941c93613fe081615621565b9050613f72565b508315610d715760405162461bcd60e51b815260206004820181905260248201527f537472696e67733a20686578206c656e67746820696e73756666696369656e746044820152606401610782565b6140408282611c24565b1561132f576000828152602081815260408083206001600160a01b0385168085529252808320805460ff1916905551339285917ff6391f5c32d9c69d2a47ea670b442974b53935d1edc7fd64eb21e047a839171b9190a45050565b6000610d71836001600160a01b0384166143b0565b60008260000182815481106112a2576112a2615007565b6140d28383836144a3565b816001600160a01b0316836001600160a01b03167f17307eab39ab6107e8899845ad3d59bd9653f200f220920489ca2b5937696c3183604051614119911515815260200190565b60405180910390a3505050565b60006001600160e01b03198216635a05180f60e01b14806107b057506107b082614551565b6001600160a01b0384163b15611b605760405163f23a6e6160e01b81526001600160a01b0385169063f23a6e619061418f90899089908890889088906004016153e5565b6020604051808303816000875af19250505080156141ca575060408051601f3d908101601f191682019092526141c79181019061542a565b60015b6141d657613c12615447565b6001600160e01b0319811663f23a6e6160e01b146111235760405162461bcd60e51b8152600401610782906154ec565b6001600160a01b0384163b15611b605760405163bc197c8160e01b81526001600160a01b0385169063bc197c8190613d1d9089908990889088908890600401615534565b614258868686868686614586565b6001600160a01b0385166142df5760005b83518110156142dd5782818151811061428457614284615007565b6020026020010151600660008684815181106142a2576142a2615007565b6020026020010151815260200190815260200160002060008282546142c791906153ae565b909155506142d6905081615033565b9050614269565b505b6001600160a01b038416611b605760005b83518110156111235782818151811061430b5761430b615007565b60200260200101516006600086848151811061432957614329615007565b6020026020010151815260200190815260200160002054106143a05782818151811061435757614357615007565b60200260200101516006600086848151811061437557614375615007565b60200260200101518152602001908152602001600020600082825461439a9190615340565b90915550505b6143a981615033565b90506142f0565b600081815260018301602052604081205480156144995760006143d4600183615340565b85549091506000906143e890600190615340565b905081811461444d57600086600001828154811061440857614408615007565b906000526020600020015490508087600001848154811061442b5761442b615007565b6000918252602080832090910192909255918252600188019052604090208390555b855486908061445e5761445e615357565b6001900381819060005260206000200160009055905585600101600086815260200190815260200160002060009055600193505050506107b0565b60009150506107b0565b816001600160a01b0316836001600160a01b031614156145175760405162461bcd60e51b815260206004820152602960248201527f455243313135353a2073657474696e6720617070726f76616c20737461747573604482015268103337b91039b2b63360b91b6064820152608401610782565b6001600160a01b03928316600090815260036020908152604080832094909516825292909252919020805460ff1916911515919091179055565b60006001600160e01b03198216637965db0b60e01b14806107b057506301ffc9a760e01b6001600160e01b03198316146107b0565b611b6086868686868660055460ff1615611b605760405162461bcd60e51b815260206004820152602c60248201527f455243313135355061757361626c653a20746f6b656e207472616e736665722060448201526b1dda1a5b19481c185d5cd95960a21b6064820152608401610782565b82805461460390614f86565b90600052602060002090601f016020900481019282614625576000855561466b565b82601f1061463e57805160ff191683800117855561466b565b8280016001018555821561466b579182015b8281111561466b578251825591602001919060010190614650565b5061467792915061467b565b5090565b5b80821115614677576000815560010161467c565b80356001600160a01b03811681146146a757600080fd5b919050565b600080604083850312156146bf57600080fd5b6146c883614690565b946020939093013593505050565b6001600160e01b0319811681146146ec57600080fd5b50565b60006020828403121561470157600080fd5b8135610d71816146d6565b634e487b7160e01b600052604160045260246000fd5b601f8201601f191681016001600160401b03811182821017156147475761474761470c565b6040525050565b600082601f83011261475f57600080fd5b81356001600160401b038111156147785761477861470c565b60405161478f601f8301601f191660200182614722565b8181528460208386010111156147a457600080fd5b816020850160208301376000918101602001919091529392505050565b6000602082840312156147d357600080fd5b81356001600160401b038111156147e957600080fd5b6147f58482850161474e565b949350505050565b60006020828403121561480f57600080fd5b5035919050565b60005b83811015614831578181015183820152602001614819565b83811115611a9e5750506000910152565b6000815180845261485a816020860160208601614816565b601f01601f19169290920160200192915050565b602081526000610d716020830184614842565b60006001600160401b0382111561489a5761489a61470c565b5060051b60200190565b600082601f8301126148b557600080fd5b813560206148c282614881565b6040516148cf8282614722565b83815260059390931b85018201928281019150868411156148ef57600080fd5b8286015b8481101561490a57803583529183019183016148f3565b509695505050505050565b6000806000806080858703121561492b57600080fd5b61493485614690565b935060208501356001600160401b038082111561495057600080fd5b61495c888389016148a4565b9450604087013591508082111561497257600080fd5b61497e888389016148a4565b9350606087013591508082111561499457600080fd5b506149a18782880161474e565b91505092959194509250565b6000806000606084860312156149c257600080fd5b6149cb84614690565b92506149d960208501614690565b9150604084013590509250925092565b60008083601f8401126149fb57600080fd5b5081356001600160401b03811115614a1257600080fd5b6020830191508360208260051b8501011115614a2d57600080fd5b9250929050565b60008083601f840112614a4657600080fd5b5081356001600160401b03811115614a5d57600080fd5b602083019150836020828501011115614a2d57600080fd5b60008060008060008060008060a0898b031215614a9157600080fd5b614a9a89614690565b9750614aa860208a01614690565b965060408901356001600160401b0380821115614ac457600080fd5b614ad08c838d016149e9565b909850965060608b0135915080821115614ae957600080fd5b614af58c838d016149e9565b909650945060808b0135915080821115614b0e57600080fd5b50614b1b8b828c01614a34565b999c989b5096995094979396929594505050565b60008060408385031215614b4257600080fd5b82359150614b5260208401614690565b90509250929050565b60008060408385031215614b6e57600080fd5b82356001600160401b0380821115614b8557600080fd5b818501915085601f830112614b9957600080fd5b81356020614ba682614881565b604051614bb38282614722565b83815260059390931b8501820192828101915089841115614bd357600080fd5b948201945b83861015614bf857614be986614690565b82529482019490820190614bd8565b96505086013592505080821115614c0e57600080fd5b50614c1b858286016148a4565b9150509250929050565b600081518084526020808501945080840160005b83811015614c5557815187529582019590820190600101614c39565b509495945050505050565b602081526000610d716020830184614c25565b60008060408385031215614c8657600080fd5b82356001600160401b03811115614c9c57600080fd5b614ca88582860161474e565b95602094909401359450505050565b600080600060608486031215614ccc57600080fd5b614cd584614690565b925060208401356001600160401b0380821115614cf157600080fd5b614cfd878388016148a4565b93506040860135915080821115614d1357600080fd5b50614d20868287016148a4565b9150509250925092565b600060208284031215614d3c57600080fd5b610d7182614690565b60008060008060808587031215614d5b57600080fd5b614d6485614690565b9350602085013592506040850135915060608501356001600160401b03811115614d8d57600080fd5b6149a18782880161474e565b60008060408385031215614dac57600080fd5b50508035926020909101359150565b60008060408385031215614dce57600080fd5b614dd783614690565b915060208301358015158114614dec57600080fd5b809150509250929050565b6020808252825182820181905260009190848201906040850190845b81811015614e385783516001600160a01b031683529284019291840191600101614e13565b50909695505050505050565b600080600080600060808688031215614e5c57600080fd5b614e6586614690565b9450614e7360208701614690565b93506040860135925060608601356001600160401b03811115614e9557600080fd5b614ea188828901614a34565b969995985093965092949392505050565b60008060408385031215614ec557600080fd5b614ece83614690565b9150614b5260208401614690565b60008060008060008060a08789031215614ef557600080fd5b614efe87614690565b9550614f0c60208801614690565b9450604087013593506060870135925060808701356001600160401b03811115614f3557600080fd5b614f4189828a01614a34565b979a9699509497509295939492505050565b600080600060608486031215614f6857600080fd5b614f7184614690565b95602085013595506040909401359392505050565b600181811c90821680614f9a57607f821691505b60208210811415610d7857634e487b7160e01b600052602260045260246000fd5b6020808252602c908201527f4552433732313a206f70657261746f7220717565727920666f72206e6f6e657860408201526b34b9ba32b73a103a37b5b2b760a11b606082015260800190565b634e487b7160e01b600052603260045260246000fd5b634e487b7160e01b600052601160045260246000fd5b60006000198214156150475761504761501d565b5060010190565b60208082526025908201527f4552433732313a207472616e736665722066726f6d20696e636f72726563742060408201526437bbb732b960d91b606082015260800190565b60208082526031908201527f4552433732313a207472616e736665722063616c6c6572206973206e6f74206f6040820152701ddb995c881b9bdc88185c1c1c9bdd9959607a1b606082015260800190565b60208082526024908201527f4552433732313a207472616e7366657220746f20746865207a65726f206164646040820152637265737360e01b606082015260800190565b60208082526029908201527f455243313135353a2063616c6c6572206973206e6f74206f776e6572206e6f7260408201526808185c1c1c9bdd995960ba1b606082015260800190565b60208082526038908201527f455243313135355072657365744d696e7465725061757365723a206d7573742060408201527f68617665206d696e74657220726f6c6520746f206d696e740000000000000000606082015260800190565b60208082526028908201527f455243313135353a2069647320616e6420616d6f756e7473206c656e677468206040820152670dad2e6dac2e8c6d60c31b606082015260800190565b6040815260006152296040830185614c25565b828103602084015261523b8185614c25565b95945050505050565b7f416363657373436f6e74726f6c3a206163636f756e742000000000000000000081526000835161527c816017850160208801614816565b7001034b99036b4b9b9b4b733903937b6329607d1b60179184019182015283516152ad816028840160208801614816565b01602801949350505050565b60208082526023908201527f455243313135353a206275726e2066726f6d20746865207a65726f206164647260408201526265737360e81b606082015260800190565b60208082526024908201527f455243313135353a206275726e20616d6f756e7420657863656564732062616c604082015263616e636560e01b606082015260800190565b6000828210156153525761535261501d565b500390565b634e487b7160e01b600052603160045260246000fd5b60208082526021908201527f455243313135353a206d696e7420746f20746865207a65726f206164647265736040820152607360f81b606082015260800190565b600082198211156153c1576153c161501d565b500190565b60008160001904831182151516156153e0576153e061501d565b500290565b6001600160a01b03868116825285166020820152604081018490526060810183905260a06080820181905260009061541f90830184614842565b979650505050505050565b60006020828403121561543c57600080fd5b8151610d71816146d6565b600060033d11156154605760046000803e5060005160e01c5b90565b600060443d10156154715790565b6040516003193d81016004833e81513d6001600160401b0381602484011181841117156154a057505050505090565b82850191508151818111156154b85750505050505090565b843d87010160208285010111156154d25750505050505090565b6154e160208286010187614722565b509095945050505050565b60208082526028908201527f455243313135353a204552433131353552656365697665722072656a656374656040820152676420746f6b656e7360c01b606082015260800190565b6001600160a01b0386811682528516602082015260a06040820181905260009061556090830186614c25565b82810360608401526155728186614c25565b905082810360808401526155868185614842565b98975050505050505050565b6001600160a01b03858116825284166020820152604081018390526080606082018190526000906155c590830184614842565b9695505050505050565b60208082526032908201527f4552433732313a207472616e7366657220746f206e6f6e20455243373231526560408201527131b2b4bb32b91034b6b83632b6b2b73a32b960711b606082015260800190565b6000816156305761563061501d565b50600019019056feddf252ad1be2c89b69c2b068fc378daa952ba7f163c4a11628f55a4df523b3ef8c5be1e5ebec7d5bd14f71427d1e84f3dd0314c0f7b2291e5b200ac8c7c3b925a2646970667358221220876e80749549c3fb6a3e6f2ccedd6737ea397b5cf27f93f1809754f20ea4692664736f6c634300080b0033",
  "immutableReferences": {},
  "source": "/**\n * FireZard ERC1155 NFT for storinfg game characters and items (both stackable and unstackable)\n */\n\npragma solidity ^0.8.0;\n\nimport \"./dependencies/presets/ERC1155PresetMinterPauser.sol\";\nimport \"./dependencies/extensions/ERC1155Supply.sol\";\nimport \"@openzeppelin/contracts/token/ERC721/extensions/IERC721Enumerable.sol\";\nimport \"@openzeppelin/contracts/token/ERC721/extensions/IERC721Metadata.sol\";\nimport \"@openzeppelin/contracts/token/ERC721/IERC721Receiver.sol\";\nimport \"@openzeppelin/contracts/utils/Address.sol\";\n\n\ncontract FireZardNFT is IERC1155MetadataURI, ERC1155PresetMinterPauser, ERC1155Supply, IERC721Enumerable, IERC721Metadata {\n    using Address for address;\n\n    string _name;\n    string _symbol;\n\n    // List of all token IDs\n    uint256[] public tokens;\n\n    // Token index mapping: toklen_id => token index in tokens list\n    mapping(uint256 => uint256) public tokenIndex;\n\n    // Token ownership mapping: token_id ==> array of token_owner_address\n    mapping(uint256 => address[]) public ownership;\n\n    // Owner's address position in ownership list for token_id\n    mapping(address => mapping(uint256 => uint256)) private ownershipIndex;\n\n    // Token type mapping: token_id ==> token_type (like, DRAGON_CARD_TYPE_CODE, etc.)\n    mapping(uint256 => bytes32) public token_type;\n\n    // Inventory: owner_address => array_of_token_ids\n    mapping(address => uint256[]) public inventory;\n\n    // Slot: slot position of token_id in owner_address inventory\n    mapping(address => mapping(uint256 => uint256)) private slot;\n\n    // Approved transfer of token_id belonging to an owner for an operator\n    mapping(uint256 => mapping(address => address)) private approved;\n\n    // Approved transfer of a token_id to an operator. Applicable only for cases where tokens with token_id belong to a single owner\n    mapping(uint256 => address) private singleApproved;\n\n    // Token custom URIs\n    mapping(uint256 => string) private uris;\n\n\n    modifier canBeTransferedAsERC721(address from, address to, uint256 token_id) {\n\trequire(totalSupply(token_id)>0,\"ERC721: operator query for nonexistent token\");\n\tbool from_owns_token = false;\n\tfor(uint i=0;i<ownership[token_id].length;i++)\n\t    if(ownership[token_id][i] == from){\n\t\tfrom_owns_token = true;\n\t\tbreak;\n\t    }\n\trequire(from_owns_token,\"ERC721: transfer from incorrect owner\");\n\trequire(\n            from == _msgSender() || isApprovedForAll(from, _msgSender()) || isApproved(_asSingletonArray(token_id),from),\n            \"ERC721: transfer caller is not owner nor approved\"\n        );\n\trequire(to != address(0),\"ERC721: transfer to the zero address\");\n\t_;\n    }\n\n    constructor(string memory _uri, string memory name_, string memory symbol_) ERC1155PresetMinterPauser(_uri) {\n\t_name = name_;\n\t_symbol = symbol_;\n    }\n\n    function _beforeTokenTransfer(\n        address operator,\n        address from,\n        address to,\n        uint256[] memory ids,\n        uint256[] memory amounts,\n        bytes memory data\n    ) internal virtual override(ERC1155PresetMinterPauser, ERC1155Supply) {\n\tif(from == address(0)){\n\t    uint l=32;\n\t    if(data.length<l)l=data.length;\n\n\t    bytes32 _token_type;\n\n\t    for(uint i=0;i<l;i++)\n\t\t_token_type |= bytes32(data[i] & 0xFF) >> (i*8);\n\n\t    for(uint i=0;i<ids.length;i++)\n\t\ttoken_type[ids[i]] = _token_type;\n\t}\n\tsuper._beforeTokenTransfer(operator, from, to, ids, amounts, data);\n    }\n\n    function _transferFrom(\n\taddress from,\n\taddress to,\n\tuint256 tokenId,\n\tbytes\tmemory data,\n\tbool safe_mode,\n\tbool ERC721_mode\n    ) internal {\n\tif(ERC721_mode)require(from != address(0));\n\trequire(to != address(0));\n\n\tuint256[] memory ids = _asSingletonArray(tokenId);\n\tuint256[] memory amounts = _asSingletonArray(balanceOf(from,tokenId));\n\t_transferFrom(\n\t    from,\n\t    to,\n\t    ids,\n\t    amounts,\n\t    data,\n\t    safe_mode,\n\t    ERC721_mode\n\t);\n    }\n\n    function _transferFrom(\n\taddress from,\n\taddress to,\n\tuint256[] memory ids,\n\tuint256[] memory amounts,\n\tbytes\tmemory data,\n\tbool\tsafe_mode,\n\tbool\tERC721_mode\n    ) internal {\n\trequire(ids.length == amounts.length, \"ERC1155: ids and amounts length mismatch\");\n        require(to != address(0), \"ERC1155: transfer to the zero address\");\n\n        address operator = _msgSender();\n\trequire(\n            from == operator || isApprovedForAll(from, operator) || isApproved(ids, from),\n            \"ERC1155: caller is not owner nor approved\"\n        );\n\n        _beforeTokenTransfer(operator, from, to, ids, amounts, data);\n\n\tuint256[] memory ids_to = idsToChange(ids,to);\n\t_rebalance(from, to, ids, amounts, data);\n\tuint256[] memory ids_from = idsToChange(ids,from);\n\n\tremoveApproval(ids_from, ids, from);\n\n\taddOwnership(ids_to,to);\n\taddToInventory(ids_to,to);\n\tremoveOwnership(ids_from,from);\n\tremoveFromInventory(ids_from,from);\n\n\tif(ids.length>1){\n    \t    emit TransferBatch(operator, from, to, ids, amounts);\n\t    for(uint i=0;i<ids.length;i++)\n\t\temit Transfer(from, to, ids[i]);\n\t}\n\telse{\n\t    emit TransferSingle(operator, from, to, ids[0], amounts[0]);\n\t    emit Transfer(from, to, ids[0]);\n\t}\n\n\tif(!safe_mode)return;\n\tif(!ERC721_mode)\n\t    _doERC1155TransferAcceptanceCheck(operator, from, to, ids, amounts, data);\n\telse\n\t    _doERC721TransferAcceptanceCheck(from, to, ids[0], data);\n    }\n\n    function isApproved(uint256[] memory ids, address owner) internal view returns (bool) {\n\tfor(uint i=0;i<ids.length;i++){\n\t    if(approved[ids[i]][owner] != _msgSender())\n\t\treturn false;\n\t}\n\treturn true;\n    }\n\n    function removeApproval(uint256[] memory ids_from, uint256[] memory ids, address owner) internal {\n\tfor(uint i=0;i<ids_from.length;i++){\n\t    emit Approval(owner, address(0), ids[i]);\n\t    if(approved[ids[i]][owner] != address(0)){\n\t\t\n\t\tdelete approved[ids[i]][owner];\n\t    }\n\t}\n\tfor(uint i=0;i<ids.length;i++){\n\t    emit Approval(owner, address(0), ids[i]);\n\t    if(singleApproved[ids[i]] != address(0)){\n\t\tdelete singleApproved[ids[i]];\n\t    }\n\t}\n    }\n\n    function idsToChange(uint256[] memory ids, address owner) internal view returns (uint256[] memory){\n\tuint256[] memory ids_tmp = new uint256[](ids.length);\n\tuint256 index=0;\n\tfor(uint i=0;i<ids.length;i++){\n\t    if(balanceOf(owner,ids[i])==0)\n\t\tids_tmp[index++]=ids[i];\n\t}\n\tuint256[] memory filtered_ids = new uint256[](index);\n\tfor(uint i=0;i<index;i++)\n\t    filtered_ids[i] = ids_tmp[i];\n\treturn filtered_ids;\n    }\n\n    function addTokens(uint256[] memory ids) internal {\n\tfor(uint i=0;i<ids.length;i++){\n\t    if(!exists(ids[i])){\n\t\ttokenIndex[ids[i]] = tokens.length;\n\t\ttokens.push(ids[i]);\n\t    }\n\t}\n    }\n\n    function removeTokens(uint256[] memory ids) internal {\n\tfor(uint i=0;i<ids.length;i++){\n\t    if(!exists(ids[i])){\n\t\tuint256 token_index = tokenIndex[ids[i]];\n\t\ttokens[token_index] = tokens[tokens.length-1];\n\t\ttokenIndex[tokens[token_index]] = token_index;\n\t\ttokens.pop();\n\t\tdelete tokenIndex[ids[i]];\n\t    }\n\t}\n    }\n\n    function addOwnership(uint256[] memory ids, address owner) internal {\n\tfor(uint i=0;i<ids.length;i++){\n\t    ownershipIndex[owner][ids[i]] = ownership[ids[i]].length;\n\t    ownership[ids[i]].push(owner);\n\t}\n    }\n\n    function removeOwnership(uint256[] memory ids, address owner) internal {\n\tfor(uint i=0;i<ids.length;i++){\n\t    uint256 owner_index = ownershipIndex[owner][ids[i]];\n\t    ownership[ids[i]][owner_index] = ownership[ids[i]][ownership[ids[i]].length-1];\n\t    ownershipIndex[ownership[ids[i]][owner_index]][ids[i]] = owner_index;\n\t    ownership[ids[i]].pop();\n\t    delete ownershipIndex[owner][ids[i]];\n\t}\n    }\n    \n    function addToInventory(uint256[] memory ids, address owner) internal {\n\tfor(uint i=0;i<ids.length;i++){\n\t    slot[owner][ids[i]] = inventory[owner].length;\n\t    inventory[owner].push(ids[i]);\n\t}\n    }\n\n    function removeFromInventory(uint256[] memory ids, address owner) internal {\n\tfor(uint i=0;i<ids.length;i++){\n\t    uint256 token_index = slot[owner][ids[i]];\n\t    inventory[owner][token_index] = inventory[owner][inventory[owner].length-1];\n\t    slot[owner][inventory[owner][token_index]] = token_index;\n\t    delete slot[owner][ids[i]];\n\t    inventory[owner].pop();\n\t}\n    }\n\n    function _doERC1155TransferAcceptanceCheck(\n        address operator,\n        address from,\n        address to,\n        uint256[] memory ids,\n        uint256[] memory amounts,\n        bytes memory data\n    ) private {\n        if (to.isContract()) {\n\t    if(ids.length == 1){\n\t\ttry IERC1155Receiver(to).onERC1155Received(operator, from, ids[0], amounts[0], data) returns (bytes4 response) {\n            \t    if (response != IERC1155Receiver.onERC1155Received.selector) {\n                \trevert(\"ERC1155: ERC1155Receiver rejected tokens\");\n            \t    }\n        \t} catch Error(string memory reason) {\n            \t    revert(reason);\n        \t} catch {\n            \t    revert(\"ERC1155: transfer to non ERC1155Receiver implementer\");\n        \t}\n\t    }else{\n        \ttry IERC1155Receiver(to).onERC1155BatchReceived(operator, from, ids, amounts, data) returns (\n            \t    bytes4 response\n        \t) {\n            \t    if (response != IERC1155Receiver.onERC1155BatchReceived.selector) {\n                \trevert(\"ERC1155: ERC1155Receiver rejected tokens\");\n            \t    }\n        \t} catch Error(string memory reason) {\n            \t    revert(reason);\n        \t} catch {\n            \t    revert(\"ERC1155: transfer to non ERC1155Receiver implementer\");\n        \t}\n\t    }\n        }\n    }\n\n    function _doERC721TransferAcceptanceCheck(\n\taddress from,\n\taddress to,\n\tuint256 tokenId,\n\tbytes memory _data\n    ) private {\n\tif (to.isContract()) {\n            try IERC721Receiver(to).onERC721Received(_msgSender(), from, tokenId, _data) returns (bytes4 retval) {\n\t\tif(retval != IERC721Receiver.onERC721Received.selector)\n\t\t    revert(\"ERC721: transfer to non ERC721Receiver implementer\");\n//                require(retval == IERC721Receiver.onERC721Received.selector);\n            } catch (bytes memory reason) {\n                if (reason.length == 0) {\n                    revert(\"ERC721: transfer to non ERC721Receiver implementer\");\n                } else {\n                    assembly {\n                        revert(add(32, reason), mload(reason))\n                    }\n                }\n            }\n        }\n    }\n\n    /**\n     * @dev Safely transfers `tokenId` token from `from` to `to`, checking first that contract recipients\n     * are aware of the ERC721 protocol to prevent tokens from being forever locked.\n     *\n     * See IERC721\n     *\n     * Requirements:\n     *\n     * - `from` cannot be the zero address.\n     * - `to` cannot be the zero address.\n     * - `tokenId` token must exist and be owned by `from`.\n     * - If the caller is not `from`, it must be have been allowed to move this token by either {approve} or {setApprovalForAll}.\n     * - If `to` refers to a smart contract, it must implement {IERC721Receiver-onERC721Received}, which is called upon a safe transfer.\n     *\n     * Emits a {Transfer} event.\n     */\n    function safeTransferFrom(\n        address from,\n        address to,\n        uint256 tokenId\n    ) external canBeTransferedAsERC721(from, to, tokenId){\n\t_transferFrom(from, to, tokenId, \"\", true, true);\n    }\n\n/**\n     * @dev Safely transfers `tokenId` token from `from` to `to`.\n     *\n     * Requirements:\n     *\n     * - `from` cannot be the zero address.\n     * - `to` cannot be the zero address.\n     * - `tokenId` token must exist and be owned by `from`.\n     * - If the caller is not `from`, it must be approved to move this token by either {approve} or {setApprovalForAll}.\n     * - If `to` refers to a smart contract, it must implement {IERC721Receiver-onERC721Received}, which is called upon a safe transfer.\n     *\n     * Emits a {Transfer} event.\n     */\n    function safeTransferFrom(\n        address from,\n        address to,\n        uint256 tokenId,\n        bytes calldata data\n    ) external canBeTransferedAsERC721(from, to, tokenId){\n\t_transferFrom(from, to, tokenId, data, true, true);\n    }\n\n    /**\n     * @dev Transfers `tokenId` token from `from` to `to`.\n     *\n     * See IERC721\n     *\n     * WARNING: Usage of this method is discouraged, use {safeTransferFrom} whenever possible.\n     *\n     * Requirements:\n     *\n     * - `from` cannot be the zero address.\n     * - `to` cannot be the zero address.\n     * - `tokenId` token must be owned by `from`.\n     * - If the caller is not `from`, it must be approved to move this token by either {approve} or {setApprovalForAll}.\n     *\n     * Emits a {Transfer} event.\n     */\n    function transferFrom(\n        address from,\n        address to,\n        uint256 tokenId\n    ) external canBeTransferedAsERC721(from, to, tokenId){\n\t_transferFrom(from, to, tokenId, \"\", false, true);\n    }\n\n    /**\n     * @dev Transfers `amount` tokens of token type `id` from `from` to `to`.\n     *\n     * Emits a {TransferSingle} event.\n     *\n     * Requirements:\n     *\n     * - `to` cannot be the zero address.\n     * - If the caller is not `from`, it must be have been approved to spend ``from``'s tokens via {setApprovalForAll}.\n     * - `from` must have a balance of tokens of type `id` of at least `amount`.\n     * - If `to` refers to a smart contract, it must implement {IERC1155Receiver-onERC1155Received} and return the\n     * acceptance magic value.\n     */\n    function safeTransferFrom(\n        address from,\n        address to,\n        uint256 id,\n        uint256 amount,\n        bytes calldata data\n    ) public virtual override(ERC1155, IERC1155) {\n\t_transferFrom(from, to, _asSingletonArray(id), _asSingletonArray(amount), data, true, false);\n    }\n\n    /**\n     * @dev xref:ROOT:erc1155.adoc#batch-operations[Batched] version of {safeTransferFrom}.\n     *\n     * Emits a {TransferBatch} event.\n     *\n     * Requirements:\n     *\n     * - `ids` and `amounts` must have the same length.\n     * - If `to` refers to a smart contract, it must implement {IERC1155Receiver-onERC1155BatchReceived} and return the\n     * acceptance magic value.\n     */\n    function safeBatchTransferFrom(\n        address from,\n        address to,\n        uint256[] calldata ids,\n        uint256[] calldata amounts,\n        bytes calldata data\n    ) public virtual override(ERC1155, IERC1155) {\n\t_transferFrom(from, to, ids, amounts, data, true, false);\n    }\n\n    /**\n     * @dev Creates `amount` tokens of token type `id`, and assigns them to `to`.\n     *\n     * Emits a {TransferSingle} event.\n     *\n     * Requirements:\n     *\n     * - `to` cannot be the zero address.\n     * - If `to` refers to a smart contract, it must implement {IERC1155Receiver-onERC1155Received} and return the\n     * acceptance magic value.\n     */\n    function mint(\n        address to,\n        uint256 id,\n        uint256 amount,\n        bytes memory data\n    ) public virtual override {\n\tuint256[] memory ids = _asSingletonArray(id);\n\tuint256[] memory amounts = _asSingletonArray(amount);\n\tmintBatch(to, ids, amounts, data);\n    }\n\n    function mintBatch(\n        address to,\n        uint256[] memory ids,\n        uint256[] memory amounts,\n        bytes memory data\n    ) public virtual override {\n\trequire(to != address(0), \"FireZardNFT: mint to the zero address\");\n\tuint256[] memory ids_to = idsToChange(ids,to);\n\taddTokens(ids_to);\n\n\tif(ids.length == 1){\n\t    super.mint(to, ids[0], amounts[0], data);\n\t    emit Transfer(address(0), to, ids[0]);\n\t}\n\telse{\n    \t    super.mintBatch(to, ids, amounts, data);\n\t    for(uint i=0;i<ids.length;i++)\n\t\temit Transfer(address(0), to, ids[i]);\n\t}\n\n\tfor(uint i=0;i<ids.length;i++){\n\t    if(ownership[ids[i]].length > 1)\n\t\tdelete singleApproved[ids[i]];\n\t}\n\n\taddOwnership(ids_to,to);\n\taddToInventory(ids_to,to);\n    }\n    \n    /**\n     * @dev Destroys `amount` tokens of token type `id` from `from`\n     *\n     * Requirements:\n     *\n     * - `from` cannot be the zero address.\n     * - `from` must have at least `amount` tokens of token type `id`.\n     */\n    function burn(\n        address from,\n        uint256 id,\n        uint256 amount\n    ) public virtual override {\n\tuint256[] memory ids = _asSingletonArray(id);\n\tuint256[] memory amounts = _asSingletonArray(amount);\n\tburnBatch(from, ids, amounts);\n    }\n    \n    /**\n     * @dev xref:ROOT:erc1155.adoc#batch-operations[Batched] version of {_burn}.\n     *\n     * Requirements:\n     *\n     * - `ids` and `amounts` must have the same length.\n     */\n    function burnBatch(\n        address from,\n        uint256[] memory ids,\n        uint256[] memory amounts\n    ) public virtual override {\n    \trequire(\n            from == _msgSender() || isApprovedForAll(from, _msgSender()) || isApproved(ids, from),\n            \"ERC1155: caller is not owner nor approved\"\n        );\n\n\tif(ids.length == 1){\n\t    super._burn(from, ids[0], amounts[0]);\n\t    emit Transfer(from, address(0), ids[0]);\n\t}\n\telse{\n\t    super._burnBatch(from, ids, amounts);\n\t    for(uint i=0;i<ids.length;i++)\n\t\temit Transfer(from, address(0), ids[i]);\n\t}\n\n\tuint256[] memory ids_from = idsToChange(ids,from);\n\tremoveApproval(ids_from, ids, from);\n\n\tremoveOwnership(ids_from,from);\n\tremoveFromInventory(ids_from,from);\n\tremoveTokens(ids_from);\n    }\n\n    function typeOf(uint256 id) public view returns (bytes32) {\n\treturn token_type[id];\n    }\n\n    function ownersOf(uint256 id) public view returns (address[] memory) {\n\treturn ownership[id];\n    }\n\n    /**\n     * @dev Returns the number of tokens in ``owner``'s account.\n     * See IERC721\n     */\n    function balanceOf(address owner) external view returns (uint256 balance){\n\trequire(owner != address(0), \"ERC721: balance query for the zero address\");\n\treturn inventory[owner].length;\n    }\n\n    /**\n     * @dev Returns the owner of the `tokenId` token.\n     * See IERC721\n     *\n     * Requirements:\n     *\n     * - `tokenId` must exist and belong to a single owner\n     */\n    function ownerOf(uint256 tokenId) external view returns (address owner){\n\trequire(ownership[tokenId].length >= 1, 'ERC721: owner query for nonexistent token');\n\trequire(ownership[tokenId].length == 1, 'FireZardNFT: this query may serve only single token owner');\n\t\n\treturn ownership[tokenId][0];\n    }\n\n    /**\n     * @dev Gives permission to `to` to transfer `tokenId` token to another account.\n     * The approval is cleared when the token is transferred.\n     *\n     * Only a single account can be approved at a time, so approving the zero address clears previous approvals.\n     *\n     * See IERC721\n     *\n     * Requirements:\n     *\n     * - The caller must own the token or be an approved operator.\n     * - `tokenId` must exist.\n     *\n     * Emits an {Approval} event.\n     */\n    function approve(address to, uint256 tokenId) external {\n\trequire(to != _msgSender(),\"ERC721: approval to current owner\");\n\trequire(totalSupply(tokenId)>0,\"ERC721: operator query for nonexistent token\");\n\tbool _approved = false;\n\tif(balanceOf(_msgSender(), tokenId)>0){\n\t    approved[tokenId][_msgSender()] = to;\n\t    if(ownership[tokenId].length == 1)\n\t\tsingleApproved[tokenId] = to;\n\t    _approved = true;\n\t    emit Approval(_msgSender(), to, tokenId);\n\t}\n\tfor(uint i=0;i<ownership[tokenId].length;i++){\n\t    address owner = ownership[tokenId][i];\n\t    if((approved[tokenId][owner] == _msgSender())||(isApprovedForAll(owner,_msgSender()))){\n\t\tapproved[tokenId][owner] = to;\n\t\tif(ownership[tokenId].length == 1)\n\t\t    singleApproved[tokenId] = to;\n\t\t_approved = true;\n\t\temit Approval(owner, to, tokenId);\n\t    }\n\t}\n\trequire(_approved, 'ERC721: approve caller is not owner nor approved');\n    }\n\n    /**\n     * @dev Returns the account approved for `tokenId` token.\n     * If there are more accounts holding token with same id\n     * the function fails.\n     *\n     * See IERC721\n     *\n     * Requirements:\n     *\n     * - `tokenId` must exist and belong to a single account\n     */\n    function getApproved(uint256 tokenId) external view returns (address operator){\n\trequire(totalSupply(tokenId)>0,\"ERC721: approved query for nonexistent token\");\n\trequire(ownership[tokenId].length == 1);\n\treturn singleApproved[tokenId];\n    }\n\n    /**\n     * @dev Indicates whether any token exist with a given id, or not.\n     *\n     * See ERC1155Supply\n     */\n    function exists(uint256 id) public view virtual override returns (bool) {\n        return (super.totalSupply(id) > 0);\n    }\n\n    /**\n     * @dev Returns the total amount of tokens stored by the contract.\n     */\n    function totalSupply() external view override returns (uint256) {\n\treturn tokens.length;\n    }\n\n     /**\n     * @dev Returns a token ID owned by `owner` at a given `index` of its token list.\n     * Use along with {balanceOf} to enumerate all of ``owner``'s tokens.\n     *\n     * See IERC721Enumerable\n     */\n    function tokenOfOwnerByIndex(address owner, uint256 index) external view returns (uint256 tokenId){\n\trequire(inventory[owner].length>index,\"FireZardNFT: owner index out of bounds\");\n\treturn inventory[owner][index];\n    }\n\n    /**\n     * @dev Returns a token ID at a given `index` of all the tokens stored by the contract.\n     * Use along with {totalSupply} to enumerate all tokens.\n     *\n     * See IERC721Enumerable\n     */\n    function tokenByIndex(uint256 index) external view returns (uint256){\n\trequire(tokens.length>index,\"ERC721Enumerable: global index out of bounds\");\n\treturn tokens[index];\n    }\n\n    /**\n     * @dev Returns the Uniform Resource Identifier (URI) for `tokenId` token.\n     * \n     * See IERC721Enumerable\n     */\n    function tokenURI(uint256 tokenId) external view returns (string memory) {\n\trequire(totalSupply(tokenId)>0, \"FireZardNFT: URI query for non-existent token\");\n\treturn uri(tokenId);\n    }\n\n    /**\n     * @dev Returns the URI for token type `id`.\n     *\n     * If the `\\{id\\}` substring is present in the URI, it must be replaced by\n     * clients with the actual token type ID.\n     */\n    function uri(uint256 id) public view virtual override(ERC1155, IERC1155MetadataURI) returns (string memory){\n\tstring memory token_uri = uris[id];\n\tif(bytes(token_uri).length != 0)\n\t    return token_uri;\n\telse\n\t    return super.uri(id);\n    }\n\n    function setURI(string memory token_uri, uint256 token_id) public virtual {\n\trequire(hasRole(DEFAULT_ADMIN_ROLE, _msgSender()), \"Must be admin\");\n\turis[token_id] = token_uri;\n\temit URI(token_uri, token_id);\n    }\n\n    function setURI(string memory token_uri) public virtual {\n\trequire(hasRole(DEFAULT_ADMIN_ROLE, _msgSender()), \"Must be admin\");\n\t_setURI(token_uri);\n\temit URI(token_uri, 0);\n    }\n\n    function baseURI() public virtual view returns (string memory) {\n\treturn _getBaseURI();\n    }\n\n    /**\n     * @dev Approve `operator` to operate on all of `owner` tokens\n     *\n     * Emits a {ApprovalForAll} event.\n     */\n    function _setApprovalForAll(\n        address owner,\n        address operator,\n        bool approved\n    ) internal virtual override {\n\tsuper._setApprovalForAll(owner, operator, approved);\n        emit ApprovalForAll(owner, operator, approved);\n    }\n\n    /**\n     * @dev See {IERC1155-isApprovedForAll}.\n     */\n    function isApprovedForAll(address account, address operator) public view virtual override(ERC1155, IERC1155, IERC721) returns (bool) {\n        return ERC1155.isApprovedForAll(account, operator);\n    }\n\n    /**\n     * @dev See {IERC1155-setApprovalForAll}.\n     */\n    function setApprovalForAll(address operator, bool approved) public virtual override(ERC1155, IERC1155, IERC721) {\n        return super.setApprovalForAll(operator, approved);\n    }\n\n    /**\n     * @dev Returns the token collection name.\n     */\n    function name() external view override returns (string memory){\n\treturn _name;\n    }\n\n    /**\n     * @dev Returns the token collection symbol.\n     */\n    function symbol() external view returns (string memory){\n\treturn _symbol;\n    }\n\n    /**\n     * @dev See {IERC165-supportsInterface}.\n     */\n    function supportsInterface(bytes4 interfaceId)\n        public\n        view\n        virtual\n        override(ERC1155, ERC1155PresetMinterPauser, IERC165)\n        returns (bool)\n    {\n        return \n\t    interfaceId == type(IERC721).interfaceId ||\n\t    interfaceId == type(IERC721Enumerable).interfaceId ||\n\t    interfaceId == type(IERC721Metadata).interfaceId ||\n\t    super.supportsInterface(interfaceId);\n    }\n\n\n}\n",
  "sourcePath": "/home/vrogojin/Projects/FireZard/nft/contracts/FireZardNFT.sol",
  "compiler": {
    "name": "solc",
    "version": "0.8.11+commit.d7f03943.Emscripten.clang"
  },
  "schemaVersion": "3.4.3",
  "updatedAt": "2022-01-20T00:03:38.046Z",
  "devdoc": {
    "kind": "dev",
    "methods": {
      "approve(address,uint256)": {
        "details": "Gives permission to `to` to transfer `tokenId` token to another account. The approval is cleared when the token is transferred. Only a single account can be approved at a time, so approving the zero address clears previous approvals. See IERC721 Requirements: - The caller must own the token or be an approved operator. - `tokenId` must exist. Emits an {Approval} event."
      },
      "balanceOf(address)": {
        "details": "Returns the number of tokens in ``owner``'s account. See IERC721"
      },
      "balanceOf(address,uint256)": {
        "details": "See {IERC1155-balanceOf}. Requirements: - `account` cannot be the zero address."
      },
      "balanceOfBatch(address[],uint256[])": {
        "details": "See {IERC1155-balanceOfBatch}. Requirements: - `accounts` and `ids` must have the same length."
      },
      "burn(address,uint256,uint256)": {
        "details": "Destroys `amount` tokens of token type `id` from `from` Requirements: - `from` cannot be the zero address. - `from` must have at least `amount` tokens of token type `id`."
      },
      "burnBatch(address,uint256[],uint256[])": {
        "details": "xref:ROOT:erc1155.adoc#batch-operations[Batched] version of {_burn}. Requirements: - `ids` and `amounts` must have the same length."
      },
      "exists(uint256)": {
        "details": "Indicates whether any token exist with a given id, or not. See ERC1155Supply"
      },
      "getApproved(uint256)": {
        "details": "Returns the account approved for `tokenId` token. If there are more accounts holding token with same id the function fails. See IERC721 Requirements: - `tokenId` must exist and belong to a single account"
      },
      "getRoleAdmin(bytes32)": {
        "details": "Returns the admin role that controls `role`. See {grantRole} and {revokeRole}. To change a role's admin, use {_setRoleAdmin}."
      },
      "getRoleMember(bytes32,uint256)": {
        "details": "Returns one of the accounts that have `role`. `index` must be a value between 0 and {getRoleMemberCount}, non-inclusive. Role bearers are not sorted in any particular way, and their ordering may change at any point. WARNING: When using {getRoleMember} and {getRoleMemberCount}, make sure you perform all queries on the same block. See the following https://forum.openzeppelin.com/t/iterating-over-elements-on-enumerableset-in-openzeppelin-contracts/2296[forum post] for more information."
      },
      "getRoleMemberCount(bytes32)": {
        "details": "Returns the number of accounts that have `role`. Can be used together with {getRoleMember} to enumerate all bearers of a role."
      },
      "grantRole(bytes32,address)": {
        "details": "Grants `role` to `account`. If `account` had not been already granted `role`, emits a {RoleGranted} event. Requirements: - the caller must have ``role``'s admin role."
      },
      "hasRole(bytes32,address)": {
        "details": "Returns `true` if `account` has been granted `role`."
      },
      "isApprovedForAll(address,address)": {
        "details": "See {IERC1155-isApprovedForAll}."
      },
      "mint(address,uint256,uint256,bytes)": {
        "details": "Creates `amount` tokens of token type `id`, and assigns them to `to`. Emits a {TransferSingle} event. Requirements: - `to` cannot be the zero address. - If `to` refers to a smart contract, it must implement {IERC1155Receiver-onERC1155Received} and return the acceptance magic value."
      },
      "mintBatch(address,uint256[],uint256[],bytes)": {
        "details": "xref:ROOT:erc1155.adoc#batch-operations[Batched] variant of {mint}."
      },
      "name()": {
        "details": "Returns the token collection name."
      },
      "ownerOf(uint256)": {
        "details": "Returns the owner of the `tokenId` token. See IERC721 Requirements: - `tokenId` must exist and belong to a single owner"
      },
      "pause()": {
        "details": "Pauses all token transfers. See {ERC1155Pausable} and {Pausable-_pause}. Requirements: - the caller must have the `PAUSER_ROLE`."
      },
      "paused()": {
        "details": "Returns true if the contract is paused, and false otherwise."
      },
      "renounceRole(bytes32,address)": {
        "details": "Revokes `role` from the calling account. Roles are often managed via {grantRole} and {revokeRole}: this function's purpose is to provide a mechanism for accounts to lose their privileges if they are compromised (such as when a trusted device is misplaced). If the calling account had been revoked `role`, emits a {RoleRevoked} event. Requirements: - the caller must be `account`."
      },
      "revokeRole(bytes32,address)": {
        "details": "Revokes `role` from `account`. If `account` had been granted `role`, emits a {RoleRevoked} event. Requirements: - the caller must have ``role``'s admin role."
      },
      "safeBatchTransferFrom(address,address,uint256[],uint256[],bytes)": {
        "details": "xref:ROOT:erc1155.adoc#batch-operations[Batched] version of {safeTransferFrom}. Emits a {TransferBatch} event. Requirements: - `ids` and `amounts` must have the same length. - If `to` refers to a smart contract, it must implement {IERC1155Receiver-onERC1155BatchReceived} and return the acceptance magic value."
      },
      "safeTransferFrom(address,address,uint256)": {
        "details": "Safely transfers `tokenId` token from `from` to `to`, checking first that contract recipients are aware of the ERC721 protocol to prevent tokens from being forever locked. See IERC721 Requirements: - `from` cannot be the zero address. - `to` cannot be the zero address. - `tokenId` token must exist and be owned by `from`. - If the caller is not `from`, it must be have been allowed to move this token by either {approve} or {setApprovalForAll}. - If `to` refers to a smart contract, it must implement {IERC721Receiver-onERC721Received}, which is called upon a safe transfer. Emits a {Transfer} event."
      },
      "safeTransferFrom(address,address,uint256,bytes)": {
        "details": "Safely transfers `tokenId` token from `from` to `to`. Requirements: - `from` cannot be the zero address. - `to` cannot be the zero address. - `tokenId` token must exist and be owned by `from`. - If the caller is not `from`, it must be approved to move this token by either {approve} or {setApprovalForAll}. - If `to` refers to a smart contract, it must implement {IERC721Receiver-onERC721Received}, which is called upon a safe transfer. Emits a {Transfer} event."
      },
      "safeTransferFrom(address,address,uint256,uint256,bytes)": {
        "details": "Transfers `amount` tokens of token type `id` from `from` to `to`. Emits a {TransferSingle} event. Requirements: - `to` cannot be the zero address. - If the caller is not `from`, it must be have been approved to spend ``from``'s tokens via {setApprovalForAll}. - `from` must have a balance of tokens of type `id` of at least `amount`. - If `to` refers to a smart contract, it must implement {IERC1155Receiver-onERC1155Received} and return the acceptance magic value."
      },
      "setApprovalForAll(address,bool)": {
        "details": "See {IERC1155-setApprovalForAll}."
      },
      "supportsInterface(bytes4)": {
        "details": "See {IERC165-supportsInterface}."
      },
      "symbol()": {
        "details": "Returns the token collection symbol."
      },
      "tokenByIndex(uint256)": {
        "details": "Returns a token ID at a given `index` of all the tokens stored by the contract. Use along with {totalSupply} to enumerate all tokens. See IERC721Enumerable"
      },
      "tokenOfOwnerByIndex(address,uint256)": {
        "details": "Returns a token ID owned by `owner` at a given `index` of its token list. Use along with {balanceOf} to enumerate all of ``owner``'s tokens. See IERC721Enumerable"
      },
      "tokenURI(uint256)": {
        "details": "Returns the Uniform Resource Identifier (URI) for `tokenId` token.  See IERC721Enumerable"
      },
      "totalSupply()": {
        "details": "Returns the total amount of tokens stored by the contract."
      },
      "totalSupply(uint256)": {
        "details": "Total amount of tokens in with a given id."
      },
      "transferFrom(address,address,uint256)": {
        "details": "Transfers `tokenId` token from `from` to `to`. See IERC721 WARNING: Usage of this method is discouraged, use {safeTransferFrom} whenever possible. Requirements: - `from` cannot be the zero address. - `to` cannot be the zero address. - `tokenId` token must be owned by `from`. - If the caller is not `from`, it must be approved to move this token by either {approve} or {setApprovalForAll}. Emits a {Transfer} event."
      },
      "unpause()": {
        "details": "Unpauses all token transfers. See {ERC1155Pausable} and {Pausable-_unpause}. Requirements: - the caller must have the `PAUSER_ROLE`."
      },
      "uri(uint256)": {
        "details": "Returns the URI for token type `id`. If the `\\{id\\}` substring is present in the URI, it must be replaced by clients with the actual token type ID."
      }
    },
    "version": 1
  },
  "userdoc": {
    "kind": "user",
    "methods": {},
    "version": 1
  }
}