{
  "contractName": "FireZardNFT",
  "abi": [
    {
      "inputs": [
        {
          "internalType": "string",
          "name": "_uri",
          "type": "string"
        },
        {
          "internalType": "string",
          "name": "name_",
          "type": "string"
        },
        {
          "internalType": "string",
          "name": "symbol_",
          "type": "string"
        }
      ],
      "stateMutability": "nonpayable",
      "type": "constructor"
    },
    {
      "anonymous": false,
      "inputs": [
        {
          "indexed": true,
          "internalType": "address",
          "name": "owner",
          "type": "address"
        },
        {
          "indexed": true,
          "internalType": "address",
          "name": "approved",
          "type": "address"
        },
        {
          "indexed": true,
          "internalType": "uint256",
          "name": "tokenId",
          "type": "uint256"
        }
      ],
      "name": "Approval",
      "type": "event"
    },
    {
      "anonymous": false,
      "inputs": [
        {
          "indexed": true,
          "internalType": "address",
          "name": "owner",
          "type": "address"
        },
        {
          "indexed": true,
          "internalType": "address",
          "name": "operator",
          "type": "address"
        },
        {
          "indexed": false,
          "internalType": "bool",
          "name": "approved",
          "type": "bool"
        }
      ],
      "name": "ApprovalForAll",
      "type": "event"
    },
    {
      "anonymous": false,
      "inputs": [
        {
          "indexed": false,
          "internalType": "address",
          "name": "account",
          "type": "address"
        }
      ],
      "name": "Paused",
      "type": "event"
    },
    {
      "anonymous": false,
      "inputs": [
        {
          "indexed": true,
          "internalType": "bytes32",
          "name": "role",
          "type": "bytes32"
        },
        {
          "indexed": true,
          "internalType": "bytes32",
          "name": "previousAdminRole",
          "type": "bytes32"
        },
        {
          "indexed": true,
          "internalType": "bytes32",
          "name": "newAdminRole",
          "type": "bytes32"
        }
      ],
      "name": "RoleAdminChanged",
      "type": "event"
    },
    {
      "anonymous": false,
      "inputs": [
        {
          "indexed": true,
          "internalType": "bytes32",
          "name": "role",
          "type": "bytes32"
        },
        {
          "indexed": true,
          "internalType": "address",
          "name": "account",
          "type": "address"
        },
        {
          "indexed": true,
          "internalType": "address",
          "name": "sender",
          "type": "address"
        }
      ],
      "name": "RoleGranted",
      "type": "event"
    },
    {
      "anonymous": false,
      "inputs": [
        {
          "indexed": true,
          "internalType": "bytes32",
          "name": "role",
          "type": "bytes32"
        },
        {
          "indexed": true,
          "internalType": "address",
          "name": "account",
          "type": "address"
        },
        {
          "indexed": true,
          "internalType": "address",
          "name": "sender",
          "type": "address"
        }
      ],
      "name": "RoleRevoked",
      "type": "event"
    },
    {
      "anonymous": false,
      "inputs": [
        {
          "indexed": true,
          "internalType": "address",
          "name": "from",
          "type": "address"
        },
        {
          "indexed": true,
          "internalType": "address",
          "name": "to",
          "type": "address"
        },
        {
          "indexed": true,
          "internalType": "uint256",
          "name": "tokenId",
          "type": "uint256"
        }
      ],
      "name": "Transfer",
      "type": "event"
    },
    {
      "anonymous": false,
      "inputs": [
        {
          "indexed": true,
          "internalType": "address",
          "name": "operator",
          "type": "address"
        },
        {
          "indexed": true,
          "internalType": "address",
          "name": "from",
          "type": "address"
        },
        {
          "indexed": true,
          "internalType": "address",
          "name": "to",
          "type": "address"
        },
        {
          "indexed": false,
          "internalType": "uint256[]",
          "name": "ids",
          "type": "uint256[]"
        },
        {
          "indexed": false,
          "internalType": "uint256[]",
          "name": "values",
          "type": "uint256[]"
        }
      ],
      "name": "TransferBatch",
      "type": "event"
    },
    {
      "anonymous": false,
      "inputs": [
        {
          "indexed": true,
          "internalType": "address",
          "name": "operator",
          "type": "address"
        },
        {
          "indexed": true,
          "internalType": "address",
          "name": "from",
          "type": "address"
        },
        {
          "indexed": true,
          "internalType": "address",
          "name": "to",
          "type": "address"
        },
        {
          "indexed": false,
          "internalType": "uint256",
          "name": "id",
          "type": "uint256"
        },
        {
          "indexed": false,
          "internalType": "uint256",
          "name": "value",
          "type": "uint256"
        }
      ],
      "name": "TransferSingle",
      "type": "event"
    },
    {
      "anonymous": false,
      "inputs": [
        {
          "indexed": false,
          "internalType": "string",
          "name": "value",
          "type": "string"
        },
        {
          "indexed": true,
          "internalType": "uint256",
          "name": "id",
          "type": "uint256"
        }
      ],
      "name": "URI",
      "type": "event"
    },
    {
      "anonymous": false,
      "inputs": [
        {
          "indexed": false,
          "internalType": "address",
          "name": "account",
          "type": "address"
        }
      ],
      "name": "Unpaused",
      "type": "event"
    },
    {
      "inputs": [],
      "name": "DEFAULT_ADMIN_ROLE",
      "outputs": [
        {
          "internalType": "bytes32",
          "name": "",
          "type": "bytes32"
        }
      ],
      "stateMutability": "view",
      "type": "function"
    },
    {
      "inputs": [],
      "name": "MINTER_ROLE",
      "outputs": [
        {
          "internalType": "bytes32",
          "name": "",
          "type": "bytes32"
        }
      ],
      "stateMutability": "view",
      "type": "function"
    },
    {
      "inputs": [],
      "name": "PAUSER_ROLE",
      "outputs": [
        {
          "internalType": "bytes32",
          "name": "",
          "type": "bytes32"
        }
      ],
      "stateMutability": "view",
      "type": "function"
    },
    {
      "inputs": [
        {
          "internalType": "address[]",
          "name": "accounts",
          "type": "address[]"
        },
        {
          "internalType": "uint256[]",
          "name": "ids",
          "type": "uint256[]"
        }
      ],
      "name": "balanceOfBatch",
      "outputs": [
        {
          "internalType": "uint256[]",
          "name": "",
          "type": "uint256[]"
        }
      ],
      "stateMutability": "view",
      "type": "function"
    },
    {
      "inputs": [
        {
          "internalType": "bytes32",
          "name": "role",
          "type": "bytes32"
        }
      ],
      "name": "getRoleAdmin",
      "outputs": [
        {
          "internalType": "bytes32",
          "name": "",
          "type": "bytes32"
        }
      ],
      "stateMutability": "view",
      "type": "function"
    },
    {
      "inputs": [
        {
          "internalType": "bytes32",
          "name": "role",
          "type": "bytes32"
        },
        {
          "internalType": "uint256",
          "name": "index",
          "type": "uint256"
        }
      ],
      "name": "getRoleMember",
      "outputs": [
        {
          "internalType": "address",
          "name": "",
          "type": "address"
        }
      ],
      "stateMutability": "view",
      "type": "function"
    },
    {
      "inputs": [
        {
          "internalType": "bytes32",
          "name": "role",
          "type": "bytes32"
        }
      ],
      "name": "getRoleMemberCount",
      "outputs": [
        {
          "internalType": "uint256",
          "name": "",
          "type": "uint256"
        }
      ],
      "stateMutability": "view",
      "type": "function"
    },
    {
      "inputs": [
        {
          "internalType": "bytes32",
          "name": "role",
          "type": "bytes32"
        },
        {
          "internalType": "address",
          "name": "account",
          "type": "address"
        }
      ],
      "name": "grantRole",
      "outputs": [],
      "stateMutability": "nonpayable",
      "type": "function"
    },
    {
      "inputs": [
        {
          "internalType": "bytes32",
          "name": "role",
          "type": "bytes32"
        },
        {
          "internalType": "address",
          "name": "account",
          "type": "address"
        }
      ],
      "name": "hasRole",
      "outputs": [
        {
          "internalType": "bool",
          "name": "",
          "type": "bool"
        }
      ],
      "stateMutability": "view",
      "type": "function"
    },
    {
      "inputs": [
        {
          "internalType": "address",
          "name": "",
          "type": "address"
        },
        {
          "internalType": "uint256",
          "name": "",
          "type": "uint256"
        }
      ],
      "name": "inventory",
      "outputs": [
        {
          "internalType": "uint256",
          "name": "",
          "type": "uint256"
        }
      ],
      "stateMutability": "view",
      "type": "function"
    },
    {
      "inputs": [
        {
          "internalType": "uint256",
          "name": "",
          "type": "uint256"
        },
        {
          "internalType": "uint256",
          "name": "",
          "type": "uint256"
        }
      ],
      "name": "ownership",
      "outputs": [
        {
          "internalType": "address",
          "name": "",
          "type": "address"
        }
      ],
      "stateMutability": "view",
      "type": "function"
    },
    {
      "inputs": [],
      "name": "pause",
      "outputs": [],
      "stateMutability": "nonpayable",
      "type": "function"
    },
    {
      "inputs": [],
      "name": "paused",
      "outputs": [
        {
          "internalType": "bool",
          "name": "",
          "type": "bool"
        }
      ],
      "stateMutability": "view",
      "type": "function"
    },
    {
      "inputs": [
        {
          "internalType": "bytes32",
          "name": "role",
          "type": "bytes32"
        },
        {
          "internalType": "address",
          "name": "account",
          "type": "address"
        }
      ],
      "name": "renounceRole",
      "outputs": [],
      "stateMutability": "nonpayable",
      "type": "function"
    },
    {
      "inputs": [
        {
          "internalType": "bytes32",
          "name": "role",
          "type": "bytes32"
        },
        {
          "internalType": "address",
          "name": "account",
          "type": "address"
        }
      ],
      "name": "revokeRole",
      "outputs": [],
      "stateMutability": "nonpayable",
      "type": "function"
    },
    {
      "inputs": [
        {
          "internalType": "uint256",
          "name": "",
          "type": "uint256"
        }
      ],
      "name": "tokenIndex",
      "outputs": [
        {
          "internalType": "uint256",
          "name": "",
          "type": "uint256"
        }
      ],
      "stateMutability": "view",
      "type": "function"
    },
    {
      "inputs": [
        {
          "internalType": "uint256",
          "name": "",
          "type": "uint256"
        }
      ],
      "name": "token_type",
      "outputs": [
        {
          "internalType": "bytes32",
          "name": "",
          "type": "bytes32"
        }
      ],
      "stateMutability": "view",
      "type": "function"
    },
    {
      "inputs": [
        {
          "internalType": "uint256",
          "name": "",
          "type": "uint256"
        }
      ],
      "name": "tokens",
      "outputs": [
        {
          "internalType": "uint256",
          "name": "",
          "type": "uint256"
        }
      ],
      "stateMutability": "view",
      "type": "function"
    },
    {
      "inputs": [],
      "name": "unpause",
      "outputs": [],
      "stateMutability": "nonpayable",
      "type": "function"
    },
    {
      "inputs": [
        {
          "internalType": "address",
          "name": "from",
          "type": "address"
        },
        {
          "internalType": "address",
          "name": "to",
          "type": "address"
        },
        {
          "internalType": "uint256",
          "name": "tokenId",
          "type": "uint256"
        }
      ],
      "name": "transferFrom",
      "outputs": [],
      "stateMutability": "nonpayable",
      "type": "function"
    },
    {
      "inputs": [
        {
          "internalType": "address",
          "name": "from",
          "type": "address"
        },
        {
          "internalType": "address",
          "name": "to",
          "type": "address"
        },
        {
          "internalType": "uint256",
          "name": "tokenId",
          "type": "uint256"
        }
      ],
      "name": "safeTransferFrom",
      "outputs": [],
      "stateMutability": "nonpayable",
      "type": "function"
    },
    {
      "inputs": [
        {
          "internalType": "address",
          "name": "from",
          "type": "address"
        },
        {
          "internalType": "address",
          "name": "to",
          "type": "address"
        },
        {
          "internalType": "uint256",
          "name": "tokenId",
          "type": "uint256"
        },
        {
          "internalType": "bytes",
          "name": "data",
          "type": "bytes"
        }
      ],
      "name": "safeTransferFrom",
      "outputs": [],
      "stateMutability": "nonpayable",
      "type": "function"
    },
    {
      "inputs": [
        {
          "internalType": "address",
          "name": "from",
          "type": "address"
        },
        {
          "internalType": "address",
          "name": "to",
          "type": "address"
        },
        {
          "internalType": "uint256",
          "name": "id",
          "type": "uint256"
        },
        {
          "internalType": "uint256",
          "name": "amount",
          "type": "uint256"
        },
        {
          "internalType": "bytes",
          "name": "data",
          "type": "bytes"
        }
      ],
      "name": "safeTransferFrom",
      "outputs": [],
      "stateMutability": "nonpayable",
      "type": "function"
    },
    {
      "inputs": [
        {
          "internalType": "address",
          "name": "from",
          "type": "address"
        },
        {
          "internalType": "address",
          "name": "to",
          "type": "address"
        },
        {
          "internalType": "uint256[]",
          "name": "ids",
          "type": "uint256[]"
        },
        {
          "internalType": "uint256[]",
          "name": "amounts",
          "type": "uint256[]"
        },
        {
          "internalType": "bytes",
          "name": "data",
          "type": "bytes"
        }
      ],
      "name": "safeBatchTransferFrom",
      "outputs": [],
      "stateMutability": "nonpayable",
      "type": "function"
    },
    {
      "inputs": [
        {
          "internalType": "address",
          "name": "to",
          "type": "address"
        },
        {
          "internalType": "uint256",
          "name": "id",
          "type": "uint256"
        },
        {
          "internalType": "uint256",
          "name": "amount",
          "type": "uint256"
        },
        {
          "internalType": "bytes",
          "name": "data",
          "type": "bytes"
        }
      ],
      "name": "mint",
      "outputs": [],
      "stateMutability": "nonpayable",
      "type": "function"
    },
    {
      "inputs": [
        {
          "internalType": "address",
          "name": "to",
          "type": "address"
        },
        {
          "internalType": "uint256[]",
          "name": "ids",
          "type": "uint256[]"
        },
        {
          "internalType": "uint256[]",
          "name": "amounts",
          "type": "uint256[]"
        },
        {
          "internalType": "bytes",
          "name": "data",
          "type": "bytes"
        }
      ],
      "name": "mintBatch",
      "outputs": [],
      "stateMutability": "nonpayable",
      "type": "function"
    },
    {
      "inputs": [
        {
          "internalType": "address",
          "name": "from",
          "type": "address"
        },
        {
          "internalType": "uint256",
          "name": "id",
          "type": "uint256"
        },
        {
          "internalType": "uint256",
          "name": "amount",
          "type": "uint256"
        }
      ],
      "name": "burn",
      "outputs": [],
      "stateMutability": "nonpayable",
      "type": "function"
    },
    {
      "inputs": [
        {
          "internalType": "address",
          "name": "from",
          "type": "address"
        },
        {
          "internalType": "uint256[]",
          "name": "ids",
          "type": "uint256[]"
        },
        {
          "internalType": "uint256[]",
          "name": "amounts",
          "type": "uint256[]"
        }
      ],
      "name": "burnBatch",
      "outputs": [],
      "stateMutability": "nonpayable",
      "type": "function"
    },
    {
      "inputs": [
        {
          "internalType": "uint256",
          "name": "id",
          "type": "uint256"
        }
      ],
      "name": "typeOf",
      "outputs": [
        {
          "internalType": "bytes32",
          "name": "",
          "type": "bytes32"
        }
      ],
      "stateMutability": "view",
      "type": "function"
    },
    {
      "inputs": [
        {
          "internalType": "uint256",
          "name": "id",
          "type": "uint256"
        }
      ],
      "name": "ownersOf",
      "outputs": [
        {
          "internalType": "address[]",
          "name": "",
          "type": "address[]"
        }
      ],
      "stateMutability": "view",
      "type": "function"
    },
    {
      "inputs": [
        {
          "internalType": "address",
          "name": "account",
          "type": "address"
        },
        {
          "internalType": "uint256",
          "name": "id",
          "type": "uint256"
        }
      ],
      "name": "balanceOf",
      "outputs": [
        {
          "internalType": "uint256",
          "name": "",
          "type": "uint256"
        }
      ],
      "stateMutability": "view",
      "type": "function"
    },
    {
      "inputs": [
        {
          "internalType": "address",
          "name": "owner",
          "type": "address"
        }
      ],
      "name": "balanceOf",
      "outputs": [
        {
          "internalType": "uint256",
          "name": "balance",
          "type": "uint256"
        }
      ],
      "stateMutability": "view",
      "type": "function"
    },
    {
      "inputs": [
        {
          "internalType": "uint256",
          "name": "tokenId",
          "type": "uint256"
        }
      ],
      "name": "ownerOf",
      "outputs": [
        {
          "internalType": "address",
          "name": "owner",
          "type": "address"
        }
      ],
      "stateMutability": "view",
      "type": "function"
    },
    {
      "inputs": [
        {
          "internalType": "address",
          "name": "to",
          "type": "address"
        },
        {
          "internalType": "uint256",
          "name": "tokenId",
          "type": "uint256"
        }
      ],
      "name": "approve",
      "outputs": [],
      "stateMutability": "nonpayable",
      "type": "function"
    },
    {
      "inputs": [
        {
          "internalType": "uint256",
          "name": "tokenId",
          "type": "uint256"
        }
      ],
      "name": "getApproved",
      "outputs": [
        {
          "internalType": "address",
          "name": "operator",
          "type": "address"
        }
      ],
      "stateMutability": "view",
      "type": "function"
    },
    {
      "inputs": [
        {
          "internalType": "uint256",
          "name": "id",
          "type": "uint256"
        }
      ],
      "name": "exists",
      "outputs": [
        {
          "internalType": "bool",
          "name": "",
          "type": "bool"
        }
      ],
      "stateMutability": "view",
      "type": "function"
    },
    {
      "inputs": [],
      "name": "totalSupply",
      "outputs": [
        {
          "internalType": "uint256",
          "name": "",
          "type": "uint256"
        }
      ],
      "stateMutability": "view",
      "type": "function"
    },
    {
      "inputs": [
        {
          "internalType": "uint256",
          "name": "id",
          "type": "uint256"
        }
      ],
      "name": "totalSupply",
      "outputs": [
        {
          "internalType": "uint256",
          "name": "",
          "type": "uint256"
        }
      ],
      "stateMutability": "view",
      "type": "function"
    },
    {
      "inputs": [
        {
          "internalType": "address",
          "name": "owner",
          "type": "address"
        },
        {
          "internalType": "uint256",
          "name": "index",
          "type": "uint256"
        }
      ],
      "name": "tokenOfOwnerByIndex",
      "outputs": [
        {
          "internalType": "uint256",
          "name": "tokenId",
          "type": "uint256"
        }
      ],
      "stateMutability": "view",
      "type": "function"
    },
    {
      "inputs": [
        {
          "internalType": "uint256",
          "name": "index",
          "type": "uint256"
        }
      ],
      "name": "tokenByIndex",
      "outputs": [
        {
          "internalType": "uint256",
          "name": "",
          "type": "uint256"
        }
      ],
      "stateMutability": "view",
      "type": "function"
    },
    {
      "inputs": [
        {
          "internalType": "uint256",
          "name": "tokenId",
          "type": "uint256"
        }
      ],
      "name": "tokenURI",
      "outputs": [
        {
          "internalType": "string",
          "name": "",
          "type": "string"
        }
      ],
      "stateMutability": "view",
      "type": "function"
    },
    {
      "inputs": [
        {
          "internalType": "uint256",
          "name": "id",
          "type": "uint256"
        }
      ],
      "name": "uri",
      "outputs": [
        {
          "internalType": "string",
          "name": "",
          "type": "string"
        }
      ],
      "stateMutability": "view",
      "type": "function"
    },
    {
      "inputs": [
        {
          "internalType": "string",
          "name": "token_uri",
          "type": "string"
        }
      ],
      "name": "setURI",
      "outputs": [],
      "stateMutability": "nonpayable",
      "type": "function"
    },
    {
      "inputs": [
        {
          "internalType": "string",
          "name": "token_uri",
          "type": "string"
        },
        {
          "internalType": "uint256",
          "name": "token_id",
          "type": "uint256"
        }
      ],
      "name": "setURI",
      "outputs": [],
      "stateMutability": "nonpayable",
      "type": "function"
    },
    {
      "inputs": [],
      "name": "baseURI",
      "outputs": [
        {
          "internalType": "string",
          "name": "",
          "type": "string"
        }
      ],
      "stateMutability": "view",
      "type": "function"
    },
    {
      "inputs": [
        {
          "internalType": "address",
          "name": "account",
          "type": "address"
        },
        {
          "internalType": "address",
          "name": "operator",
          "type": "address"
        }
      ],
      "name": "isApprovedForAll",
      "outputs": [
        {
          "internalType": "bool",
          "name": "",
          "type": "bool"
        }
      ],
      "stateMutability": "view",
      "type": "function"
    },
    {
      "inputs": [
        {
          "internalType": "address",
          "name": "operator",
          "type": "address"
        },
        {
          "internalType": "bool",
          "name": "approved",
          "type": "bool"
        }
      ],
      "name": "setApprovalForAll",
      "outputs": [],
      "stateMutability": "nonpayable",
      "type": "function"
    },
    {
      "inputs": [],
      "name": "name",
      "outputs": [
        {
          "internalType": "string",
          "name": "",
          "type": "string"
        }
      ],
      "stateMutability": "view",
      "type": "function"
    },
    {
      "inputs": [],
      "name": "symbol",
      "outputs": [
        {
          "internalType": "string",
          "name": "",
          "type": "string"
        }
      ],
      "stateMutability": "view",
      "type": "function"
    },
    {
      "inputs": [
        {
          "internalType": "bytes4",
          "name": "interfaceId",
          "type": "bytes4"
        }
      ],
      "name": "supportsInterface",
      "outputs": [
        {
          "internalType": "bool",
          "name": "",
          "type": "bool"
        }
      ],
      "stateMutability": "view",
      "type": "function"
    }
  ],
  "bytecode": "0x60806040523480156200001157600080fd5b5060405162005c2738038062005c278339810160408190526200003491620003ce565b82806200004181620000e7565b506005805460ff191690556200005960003362000100565b620000857f9f2df0fed2c77648de5860a4cc508cd0818c85b8b8a1ab4ceeef8d981c8956a63362000100565b620000b17f65d7a28e3265b37a6474929f336521b332c1681b933f6cb9f3376673440d862a3362000100565b508151620000c79060079060208501906200025b565b508051620000dd9060089060208401906200025b565b505050506200049c565b8051620000fc9060049060208401906200025b565b5050565b620000fc82826200011d82826200014960201b62001fc11760201c565b60008281526001602090815260409091206200014491839062002045620001e9821b17901c565b505050565b6000828152602081815260408083206001600160a01b038516845290915290205460ff16620000fc576000828152602081815260408083206001600160a01b03851684529091529020805460ff19166001179055620001a53390565b6001600160a01b0316816001600160a01b0316837f2f8788117e7eff1d82e926ec794901d17c78024a50270940304540a733656f0d60405160405180910390a45050565b600062000200836001600160a01b03841662000209565b90505b92915050565b6000818152600183016020526040812054620002525750815460018181018455600084815260208082209093018490558454848252828601909352604090209190915562000203565b50600062000203565b82805462000269906200045f565b90600052602060002090601f0160209004810192826200028d5760008555620002d8565b82601f10620002a857805160ff1916838001178555620002d8565b82800160010185558215620002d8579182015b82811115620002d8578251825591602001919060010190620002bb565b50620002e6929150620002ea565b5090565b5b80821115620002e65760008155600101620002eb565b634e487b7160e01b600052604160045260246000fd5b600082601f8301126200032957600080fd5b81516001600160401b038082111562000346576200034662000301565b604051601f8301601f19908116603f0116810190828211818310171562000371576200037162000301565b816040528381526020925086838588010111156200038e57600080fd5b600091505b83821015620003b2578582018301518183018401529082019062000393565b83821115620003c45760008385830101525b9695505050505050565b600080600060608486031215620003e457600080fd5b83516001600160401b0380821115620003fc57600080fd5b6200040a8783880162000317565b945060208601519150808211156200042157600080fd5b6200042f8783880162000317565b935060408601519150808211156200044657600080fd5b50620004558682870162000317565b9150509250925092565b600181811c908216806200047457607f821691505b602082108114156200049657634e487b7160e01b600052602260045260246000fd5b50919050565b61577b80620004ac6000396000f3fe608060405234801561001057600080fd5b50600436106102d55760003560e01c806368f222fd11610182578063af005da8116100e9578063ca15c873116100a2578063e63ab1e91161007c578063e63ab1e9146106ba578063e985e9c5146106e1578063f242432a146106f4578063f5298aca1461070757600080fd5b8063ca15c8731461066d578063d539139314610680578063d547741f146106a757600080fd5b8063af005da8146105d4578063b88d4fde146105f4578063ba26ed3014610607578063bd85b0391461061a578063c588ff8b1461063a578063c87b56dd1461065a57600080fd5b80639010d07c1161013b5780639010d07c1461056b57806391d148541461057e57806395d89b4114610591578063a217fddf14610599578063a22cb465146105a1578063a584ab29146105b457600080fd5b806368f222fd1461050f5780636b20c454146105225780636c0360eb1461053557806370a082311461053d578063731133e9146105505780638456cb591461056357600080fd5b80632eb2c2d6116102415780634e1273f4116101fa5780634f6ccce7116101d45780634f6ccce7146104cb5780635c975abb146104de5780636352211e146104e957806367db3b8f146104fc57600080fd5b80634e1273f4146104765780634f558e79146104965780634f64b2be146104b857600080fd5b80632eb2c2d61461040f5780632f2ff15d146104225780632f745c591461043557806336568abe146104485780633f4ba83a1461045b57806342842e0e1461046357600080fd5b8063095ea7b311610293578063095ea7b3146103985780630e89341c146103ab57806318160ddd146103be5780631f7fdffa146103c657806323b872dd146103d9578063248a9ca3146103ec57600080fd5b8062fdd58e146102da57806301ffc9a71461030057806302fe5305146103235780630583e9f81461033857806306fdde0314610358578063081812fc1461036d575b600080fd5b6102ed6102e836600461471c565b61071a565b6040519081526020015b60405180910390f35b61031361030e36600461475f565b6107b6565b60405190151581526020016102f7565b610336610331366004614831565b610811565b005b6102ed61034636600461486d565b600a6020526000908152604090205481565b61036061089d565b6040516102f791906148de565b61038061037b36600461486d565b61092f565b6040516001600160a01b0390911681526020016102f7565b6103366103a636600461471c565b6109eb565b6103606103b936600461486d565b610cce565b6009546102ed565b6103366103d4366004614985565b610d91565b6103366103e7366004614a1d565b610fcf565b6102ed6103fa36600461486d565b60009081526020819052604090206001015490565b61033661041d366004614ae5565b61113f565b610336610430366004614b9f565b6111ef565b6102ed61044336600461471c565b611215565b610336610456366004614b9f565b6112c8565b610336611346565b610336610471366004614a1d565b6113ec565b610489610484366004614bcb565b61154c565b6040516102f79190614cd0565b6103136104a436600461486d565b600090815260066020526040902054151590565b6102ed6104c636600461486d565b611675565b6102ed6104d936600461486d565b611696565b60055460ff16610313565b6103806104f736600461486d565b611724565b61033661050a366004614ce3565b6117fd565b6102ed61051d36600461471c565b6118a0565b610336610530366004614d27565b6118d1565b610360611a61565b6102ed61054b366004614d9a565b611a70565b61033661055e366004614db5565b611af7565b610336611b25565b610380610579366004614e09565b611bc9565b61031361058c366004614b9f565b611be1565b610360611c0a565b6102ed600081565b6103366105af366004614e2b565b611c19565b6105c76105c236600461486d565b611c23565b6040516102f79190614e67565b6102ed6105e236600461486d565b600d6020526000908152604090205481565b610336610602366004614eb4565b611c8f565b610380610615366004614e09565b611e23565b6102ed61062836600461486d565b60009081526006602052604090205490565b6102ed61064836600461486d565b6000908152600d602052604090205490565b61036061066836600461486d565b611e5b565b6102ed61067b36600461486d565b611ed9565b6102ed7f9f2df0fed2c77648de5860a4cc508cd0818c85b8b8a1ab4ceeef8d981c8956a681565b6103366106b5366004614b9f565b611ef0565b6102ed7f65d7a28e3265b37a6474929f336521b332c1681b933f6cb9f3376673440d862a81565b6103136106ef366004614f22565b611f16565b610336610702366004614f4c565b611f46565b610336610715366004614fc3565b611f9c565b60006001600160a01b03831661078b5760405162461bcd60e51b815260206004820152602b60248201527f455243313135353a2062616c616e636520717565727920666f7220746865207a60448201526a65726f206164647265737360a81b60648201526084015b60405180910390fd5b5060008181526002602090815260408083206001600160a01b03861684529091529020545b92915050565b60006001600160e01b031982166380ac58cd60e01b14806107e757506001600160e01b0319821663780e9d6360e01b145b8061080257506001600160e01b03198216635b5e139f60e01b145b806107b057506107b08261205a565b61081c600033611be1565b6108585760405162461bcd60e51b815260206004820152600d60248201526c26bab9ba1031329030b236b4b760991b6044820152606401610782565b61086181612065565b60007f6bb7ff708619ba0610cba295a58592e0451dee2622938c8755667688daf3529b8260405161089291906148de565b60405180910390a250565b6060600780546108ac90614ff6565b80601f01602080910402602001604051908101604052809291908181526020018280546108d890614ff6565b80156109255780601f106108fa57610100808354040283529160200191610925565b820191906000526020600020905b81548152906001019060200180831161090857829003601f168201915b5050505050905090565b60008181526006602052604081205481106109a15760405162461bcd60e51b815260206004820152602c60248201527f4552433732313a20617070726f76656420717565727920666f72206e6f6e657860448201526b34b9ba32b73a103a37b5b2b760a11b6064820152608401610782565b6000828152600b60205260409020546001146109cf5760405162461bcd60e51b81526004016107829061502b565b506000908152601160205260409020546001600160a01b031690565b6001600160a01b038216331415610a4e5760405162461bcd60e51b815260206004820152602160248201527f4552433732313a20617070726f76616c20746f2063757272656e74206f776e656044820152603960f91b6064820152608401610782565b60008181526006602052604081205411610a7a5760405162461bcd60e51b815260040161078290615088565b600080610a87338461071a565b1115610b25576000828152601060209081526040808320338452825280832080546001600160a01b0319166001600160a01b038816179055848352600b90915290205460011415610afa57600082815260116020526040902080546001600160a01b0319166001600160a01b0385161790555b5060405160019082906001600160a01b03851690339060008051602061572683398151915290600090a45b60005b6000838152600b6020526040902054811015610c62576000838152600b60205260408120805483908110610b5e57610b5e6150d4565b60009182526020808320909101548683526010825260408084206001600160a01b0392831680865293529092205490925016331480610ba25750610ba28133611f16565b15610c4f5760008481526010602090815260408083206001600160a01b03858116855290835281842080546001600160a01b031916918a16919091179055868352600b90915290205460011415610c1b57600084815260116020526040902080546001600160a01b0319166001600160a01b0387161790555b6001925083856001600160a01b0316826001600160a01b031660008051602061572683398151915260405160405180910390a45b5080610c5a81615100565b915050610b28565b5080610cc95760405162461bcd60e51b815260206004820152603060248201527f4552433732313a20617070726f76652063616c6c6572206973206e6f74206f7760448201526f1b995c881b9bdc88185c1c1c9bdd995960821b6064820152608401610782565b505050565b600081815260126020526040812080546060929190610cec90614ff6565b80601f0160208091040260200160405190810160405280929190818152602001828054610d1890614ff6565b8015610d655780601f10610d3a57610100808354040283529160200191610d65565b820191906000526020600020905b815481529060010190602001808311610d4857829003601f168201915b505050505090508051600014610d7b5792915050565b610d8483612078565b9392505050565b50919050565b6001600160a01b038416610df55760405162461bcd60e51b815260206004820152602560248201527f466972655a6172644e46543a206d696e7420746f20746865207a65726f206164604482015264647265737360d81b6064820152608401610782565b6000610e018486612102565b9050610e0c8161226e565b835160011415610ea557610e568585600081518110610e2d57610e2d6150d4565b602002602001015185600081518110610e4857610e486150d4565b60200260200101518561232b565b83600081518110610e6957610e696150d4565b6020026020010151856001600160a01b031660006001600160a01b031660008051602061570683398151915260405160405180910390a4610f1a565b610eb18585858561237d565b60005b8451811015610f1857848181518110610ecf57610ecf6150d4565b6020026020010151866001600160a01b031660006001600160a01b031660008051602061570683398151915260405160405180910390a480610f1081615100565b915050610eb4565b505b60005b8451811015610fb3576001600b6000878481518110610f3e57610f3e6150d4565b60200260200101518152602001908152602001600020805490501115610fa15760116000868381518110610f7457610f746150d4565b6020026020010151815260200190815260200160002060006101000a8154906001600160a01b0302191690555b80610fab81615100565b915050610f1d565b50610fbe81866123cf565b610fc881866124cb565b5050505050565b8282826000610fea8260009081526006602052604090205490565b116110075760405162461bcd60e51b815260040161078290615088565b6000805b6000838152600b6020526040902054811015611083576000838152600b6020526040902080546001600160a01b03871691908390811061104d5761104d6150d4565b6000918252602090912001546001600160a01b031614156110715760019150611083565b8061107b81615100565b91505061100b565b50806110a15760405162461bcd60e51b81526004016107829061511b565b6001600160a01b0384163314806110bd57506110bd8433611f16565b806110d557506110d56110cf83612594565b856125df565b6110f15760405162461bcd60e51b815260040161078290615160565b6001600160a01b0383166111175760405162461bcd60e51b8152600401610782906151b1565b6111368787876040518060200160405280600081525060006001612668565b50505050505050565b6111e5888888888080602002602001604051908101604052809392919081815260200183836020028082843760009201919091525050604080516020808c0282810182019093528b82529093508b92508a91829185019084908082843760009201919091525050604080516020601f8b01819004810282018101909252898152925089915088908190840183828082843760009201829052506001935091506126c29050565b5050505050505050565b60008281526020819052604090206001015461120b8133612a22565b610cc98383612a86565b6001600160a01b0382166000908152600e6020526040812054821061128b5760405162461bcd60e51b815260206004820152602660248201527f466972655a6172644e46543a206f776e657220696e646578206f7574206f6620604482015265626f756e647360d01b6064820152608401610782565b6001600160a01b0383166000908152600e602052604090208054839081106112b5576112b56150d4565b9060005260206000200154905092915050565b6001600160a01b03811633146113385760405162461bcd60e51b815260206004820152602f60248201527f416363657373436f6e74726f6c3a2063616e206f6e6c792072656e6f756e636560448201526e103937b632b9903337b91039b2b63360891b6064820152608401610782565b6113428282612aa8565b5050565b6113707f65d7a28e3265b37a6474929f336521b332c1681b933f6cb9f3376673440d862a33611be1565b6113e25760405162461bcd60e51b815260206004820152603b60248201527f455243313135355072657365744d696e7465725061757365723a206d7573742060448201527f686176652070617573657220726f6c6520746f20756e706175736500000000006064820152608401610782565b6113ea612aca565b565b82828260006114078260009081526006602052604090205490565b116114245760405162461bcd60e51b815260040161078290615088565b6000805b6000838152600b60205260409020548110156114a0576000838152600b6020526040902080546001600160a01b03871691908390811061146a5761146a6150d4565b6000918252602090912001546001600160a01b0316141561148e57600191506114a0565b8061149881615100565b915050611428565b50806114be5760405162461bcd60e51b81526004016107829061511b565b6001600160a01b0384163314806114da57506114da8433611f16565b806114ec57506114ec6110cf83612594565b6115085760405162461bcd60e51b815260040161078290615160565b6001600160a01b03831661152e5760405162461bcd60e51b8152600401610782906151b1565b61113687878760405180602001604052806000815250600180612668565b606081518351146115b15760405162461bcd60e51b815260206004820152602960248201527f455243313135353a206163636f756e747320616e6420696473206c656e677468604482015268040dad2e6dac2e8c6d60bb1b6064820152608401610782565b600083516001600160401b038111156115cc576115cc61477c565b6040519080825280602002602001820160405280156115f5578160200160208202803683370190505b50905060005b845181101561166d57611640858281518110611619576116196150d4565b6020026020010151858381518110611633576116336150d4565b602002602001015161071a565b828281518110611652576116526150d4565b602090810291909101015261166681615100565b90506115fb565b509392505050565b6009818154811061168557600080fd5b600091825260209091200154905081565b60095460009082106116ff5760405162461bcd60e51b815260206004820152602c60248201527f455243373231456e756d657261626c653a20676c6f62616c20696e646578206f60448201526b7574206f6620626f756e647360a01b6064820152608401610782565b60098281548110611712576117126150d4565b90600052602060002001549050919050565b6000818152600b6020526040812054600111156117955760405162461bcd60e51b815260206004820152602960248201527f4552433732313a206f776e657220717565727920666f72206e6f6e657869737460448201526832b73a103a37b5b2b760b91b6064820152608401610782565b6000828152600b60205260409020546001146117c35760405162461bcd60e51b81526004016107829061502b565b6000828152600b6020526040812080549091906117e2576117e26150d4565b6000918252602090912001546001600160a01b031692915050565b611808600033611be1565b6118445760405162461bcd60e51b815260206004820152600d60248201526c26bab9ba1031329030b236b4b760991b6044820152606401610782565b6000818152601260209081526040909120835161186392850190614667565b50807f6bb7ff708619ba0610cba295a58592e0451dee2622938c8755667688daf3529b8360405161189491906148de565b60405180910390a25050565b600e60205281600052604060002081815481106118bc57600080fd5b90600052602060002001600091509150505481565b6001600160a01b0383163314806118ed57506118ed8333611f16565b806118fd57506118fd82846125df565b6119195760405162461bcd60e51b8152600401610782906151f5565b8151600114156119b157611962838360008151811061193a5761193a6150d4565b602002602001015183600081518110611955576119556150d4565b6020026020010151612b5d565b81600081518110611975576119756150d4565b602002602001015160006001600160a01b0316846001600160a01b031660008051602061570683398151915260405160405180910390a4611a25565b6119bc838383612c62565b60005b8251811015611a23578281815181106119da576119da6150d4565b602002602001015160006001600160a01b0316856001600160a01b031660008051602061570683398151915260405160405180910390a480611a1b81615100565b9150506119bf565b505b6000611a318385612102565b9050611a3e818486612df3565b611a488185613088565b611a528185613327565b611a5b81613508565b50505050565b6060611a6b61364e565b905090565b60006001600160a01b038216611adb5760405162461bcd60e51b815260206004820152602a60248201527f4552433732313a2062616c616e636520717565727920666f7220746865207a65604482015269726f206164647265737360b01b6064820152608401610782565b506001600160a01b03166000908152600e602052604090205490565b6000611b0284612594565b90506000611b0f84612594565b9050611b1d86838386610d91565b505050505050565b611b4f7f65d7a28e3265b37a6474929f336521b332c1681b933f6cb9f3376673440d862a33611be1565b611bc15760405162461bcd60e51b815260206004820152603960248201527f455243313135355072657365744d696e7465725061757365723a206d7573742060448201527f686176652070617573657220726f6c6520746f207061757365000000000000006064820152608401610782565b6113ea61365d565b6000828152600160205260408120610d8490836136d8565b6000918252602082815260408084206001600160a01b0393909316845291905290205460ff1690565b6060600880546108ac90614ff6565b61134282826136e4565b6000818152600b6020908152604091829020805483518184028101840190945280845260609392830182828015611c8357602002820191906000526020600020905b81546001600160a01b03168152600190910190602001808311611c65575b50505050509050919050565b8484846000611caa8260009081526006602052604090205490565b11611cc75760405162461bcd60e51b815260040161078290615088565b6000805b6000838152600b6020526040902054811015611d43576000838152600b6020526040902080546001600160a01b038716919083908110611d0d57611d0d6150d4565b6000918252602090912001546001600160a01b03161415611d315760019150611d43565b80611d3b81615100565b915050611ccb565b5080611d615760405162461bcd60e51b81526004016107829061511b565b6001600160a01b038416331480611d7d5750611d7d8433611f16565b80611d8f5750611d8f6110cf83612594565b611dab5760405162461bcd60e51b815260040161078290615160565b6001600160a01b038316611dd15760405162461bcd60e51b8152600401610782906151b1565b611e1889898989898080601f016020809104026020016040519081016040528093929190818152602001838380828437600092019190915250600192508291506126689050565b505050505050505050565b600b6020528160005260406000208181548110611e3f57600080fd5b6000918252602090912001546001600160a01b03169150829050565b60008181526006602052604081205460609110611ed05760405162461bcd60e51b815260206004820152602d60248201527f466972655a6172644e46543a2055524920717565727920666f72206e6f6e2d6560448201526c3c34b9ba32b73a103a37b5b2b760991b6064820152608401610782565b6107b082610cce565b60008181526001602052604081206107b0906136ef565b600082815260208190526040902060010154611f0c8133612a22565b610cc98383612aa8565b6001600160a01b03808316600090815260036020908152604080832093851683529290529081205460ff16610d84565b611b1d8686611f5487612594565b611f5d87612594565b86868080601f01602080910402602001604051908101604052809392919081815260200183838082843760009201829052506001935091506126c29050565b6000611fa783612594565b90506000611fb483612594565b9050610fc88583836118d1565b611fcb8282611be1565b611342576000828152602081815260408083206001600160a01b03851684529091529020805460ff191660011790556120013390565b6001600160a01b0316816001600160a01b0316837f2f8788117e7eff1d82e926ec794901d17c78024a50270940304540a733656f0d60405160405180910390a45050565b6000610d84836001600160a01b0384166136f9565b60006107b082613748565b8051611342906004906020840190614667565b60606004805461208790614ff6565b80601f01602080910402602001604051908101604052809291908181526020018280546120b390614ff6565b8015611c835780601f106120d557610100808354040283529160200191611c83565b820191906000526020600020905b8154815290600101906020018083116120e35750939695505050505050565b6060600083516001600160401b0381111561211f5761211f61477c565b604051908082528060200260200182016040528015612148578160200160208202803683370190505b5090506000805b85518110156121c95761216e85878381518110611633576116336150d4565b6121b757858181518110612184576121846150d4565b602002602001015183838061219890615100565b9450815181106121aa576121aa6150d4565b6020026020010181815250505b806121c181615100565b91505061214f565b506000816001600160401b038111156121e4576121e461477c565b60405190808252806020026020018201604052801561220d578160200160208202803683370190505b50905060005b828110156122645783818151811061222d5761222d6150d4565b6020026020010151828281518110612247576122476150d4565b60209081029190910101528061225c81615100565b915050612213565b5095945050505050565b60005b8151811015611342576122ab82828151811061228f5761228f6150d4565b6020026020010151600090815260066020526040902054151590565b61231957600980549050600a60008484815181106122cb576122cb6150d4565b602002602001015181526020019081526020016000208190555060098282815181106122f9576122f96150d4565b602090810291909101810151825460018101845560009384529190922001555b8061232381615100565b915050612271565b6123557f9f2df0fed2c77648de5860a4cc508cd0818c85b8b8a1ab4ceeef8d981c8956a633611be1565b6123715760405162461bcd60e51b81526004016107829061523e565b611a5b84848484613788565b6123a77f9f2df0fed2c77648de5860a4cc508cd0818c85b8b8a1ab4ceeef8d981c8956a633611be1565b6123c35760405162461bcd60e51b81526004016107829061523e565b611a5b84848484613860565b60005b8251811015610cc957600b60008483815181106123f1576123f16150d4565b6020026020010151815260200190815260200160002080549050600c6000846001600160a01b03166001600160a01b031681526020019081526020016000206000858481518110612444576124446150d4565b6020026020010151815260200190815260200160002081905550600b6000848381518110612474576124746150d4565b602090810291909101810151825281810192909252604001600090812080546001810182559082529190200180546001600160a01b0319166001600160a01b038416179055806124c381615100565b9150506123d2565b60005b8251811015610cc9576001600160a01b0382166000908152600e6020908152604080832054600f9092528220855191929091869085908110612512576125126150d4565b6020026020010151815260200190815260200160002081905550600e6000836001600160a01b03166001600160a01b03168152602001908152602001600020838281518110612563576125636150d4565b602090810291909101810151825460018101845560009384529190922001558061258c81615100565b9150506124ce565b604080516001808252818301909252606091600091906020808301908036833701905050905082816000815181106125ce576125ce6150d4565b602090810291909101015292915050565b6000805b835181101561265e57336001600160a01b03166010600086848151811061260c5761260c6150d4565b602090810291909101810151825281810192909252604090810160009081206001600160a01b03808916835293522054161461264c5760009150506107b0565b8061265681615100565b9150506125e3565b5060019392505050565b8015612681576001600160a01b03861661268157600080fd5b6001600160a01b03851661269457600080fd5b600061269f85612594565b905060006126b56126b0898861071a565b612594565b90506111e5888884848989895b83518551146126e35760405162461bcd60e51b81526004016107829061529b565b6001600160a01b0386166127475760405162461bcd60e51b815260206004820152602560248201527f455243313135353a207472616e7366657220746f20746865207a65726f206164604482015264647265737360d81b6064820152608401610782565b336001600160a01b03881681148061276457506127648882611f16565b80612774575061277486896125df565b6127905760405162461bcd60e51b8152600401610782906151f5565b61279e8189898989896139bb565b60006127aa8789612102565b90506127b98989898989613a8d565b60006127c5888b612102565b905083156127dd576127d881898c612df3565b6127f8565b6040805160008152602081019091526127f89082908c612df3565b612802828a6123cf565b61280c828a6124cb565b612816818b613088565b612820818b613327565b6001885111156128ed57886001600160a01b03168a6001600160a01b0316846001600160a01b03167f4a39dc06d4c0dbc64b70af90fd698a233a518aa5d07e595d983b8c0526c8f7fb8b8b6040516128799291906152e3565b60405180910390a460005b88518110156128e75788818151811061289f5761289f6150d4565b60200260200101518a6001600160a01b03168c6001600160a01b031660008051602061570683398151915260405160405180910390a4806128df81615100565b915050612884565b506129cb565b886001600160a01b03168a6001600160a01b0316846001600160a01b03167fc3d58168c5ae7397731d063d5bbf3d657854427343f4c083240f7aacaa2d0f628b60008151811061293f5761293f6150d4565b60200260200101518b60008151811061295a5761295a6150d4565b6020026020010151604051612979929190918252602082015260400190565b60405180910390a487600081518110612994576129946150d4565b6020026020010151896001600160a01b03168b6001600160a01b031660008051602061570683398151915260405160405180910390a45b846129d857505050611136565b836129f0576129eb838b8b8b8b8b613bb9565b612a16565b612a168a8a8a600081518110612a0857612a086150d4565b602002602001015189613e04565b50505050505050505050565b612a2c8282611be1565b61134257612a44816001600160a01b03166014613f0b565b612a4f836020613f0b565b604051602001612a60929190615311565b60408051601f198184030181529082905262461bcd60e51b8252610782916004016148de565b612a908282611fc1565b6000828152600160205260409020610cc99082612045565b612ab282826140a6565b6000828152600160205260409020610cc9908261410b565b60055460ff16612b135760405162461bcd60e51b815260206004820152601460248201527314185d5cd8589b194e881b9bdd081c185d5cd95960621b6044820152606401610782565b6005805460ff191690557f5db9ee0a495bf2e6ff9c91a7834c1ba4fdd244a5e8aa4e537bd38aeae4b073aa335b6040516001600160a01b03909116815260200160405180910390a1565b6001600160a01b038316612b835760405162461bcd60e51b815260040161078290615386565b33612bb281856000612b9487612594565b612b9d87612594565b604051806020016040528060008152506139bb565b60008381526002602090815260408083206001600160a01b038816845290915290205482811015612bf55760405162461bcd60e51b8152600401610782906153c9565b60008481526002602090815260408083206001600160a01b03898116808652918452828520888703905582518981529384018890529092908616917fc3d58168c5ae7397731d063d5bbf3d657854427343f4c083240f7aacaa2d0f62910160405180910390a45050505050565b6001600160a01b038316612c885760405162461bcd60e51b815260040161078290615386565b8051825114612ca95760405162461bcd60e51b81526004016107829061529b565b6000339050612ccc818560008686604051806020016040528060008152506139bb565b60005b8351811015612d94576000848281518110612cec57612cec6150d4565b602002602001015190506000848381518110612d0a57612d0a6150d4565b60209081029190910181015160008481526002835260408082206001600160a01b038c168352909352919091205490915081811015612d5b5760405162461bcd60e51b8152600401610782906153c9565b60009283526002602090815260408085206001600160a01b038b1686529091529092209103905580612d8c81615100565b915050612ccf565b5060006001600160a01b0316846001600160a01b0316826001600160a01b03167f4a39dc06d4c0dbc64b70af90fd698a233a518aa5d07e595d983b8c0526c8f7fb8686604051612de59291906152e3565b60405180910390a450505050565b60005b8351811015612f9357838181518110612e1157612e116150d4565b602002602001015160006001600160a01b0316836001600160a01b031660008051602061572683398151915260405160405180910390a460006001600160a01b031660106000868481518110612e6957612e696150d4565b602090810291909101810151825281810192909252604090810160009081206001600160a01b038088168352935220541614612ef45760106000858381518110612eb557612eb56150d4565b602090810291909101810151825281810192909252604090810160009081206001600160a01b0386168252909252902080546001600160a01b03191690555b60006001600160a01b031660116000868481518110612f1557612f156150d4565b6020908102919091018101518252810191909152604001600020546001600160a01b031614612f815760116000858381518110612f5457612f546150d4565b6020026020010151815260200190815260200160002060006101000a8154906001600160a01b0302191690555b80612f8b81615100565b915050612df6565b5060005b8251811015611a5b57828181518110612fb257612fb26150d4565b602002602001015160006001600160a01b0316836001600160a01b031660008051602061572683398151915260405160405180910390a460006001600160a01b03166011600085848151811061300a5761300a6150d4565b6020908102919091018101518252810191909152604001600020546001600160a01b0316146130765760116000848381518110613049576130496150d4565b6020026020010151815260200190815260200160002060006101000a8154906001600160a01b0302191690555b8061308081615100565b915050612f97565b60005b8251811015610cc9576001600160a01b0382166000908152600c60205260408120845182908690859081106130c2576130c26150d4565b60200260200101518152602001908152602001600020549050600b60008584815181106130f1576130f16150d4565b602002602001015181526020019081526020016000206001600b600087868151811061311f5761311f6150d4565b6020026020010151815260200190815260200160002080549050613143919061540d565b81548110613153576131536150d4565b600091825260208220015485516001600160a01b0390911691600b91879086908110613181576131816150d4565b6020026020010151815260200190815260200160002082815481106131a8576131a86150d4565b9060005260206000200160006101000a8154816001600160a01b0302191690836001600160a01b0316021790555080600c6000600b60008887815181106131f1576131f16150d4565b602002602001015181526020019081526020016000208481548110613218576132186150d4565b60009182526020808320909101546001600160a01b0316835282019290925260400181208651909190879086908110613253576132536150d4565b6020026020010151815260200190815260200160002081905550600b6000858481518110613283576132836150d4565b602002602001015181526020019081526020016000208054806132a8576132a8615424565b60008281526020808220830160001990810180546001600160a01b03191690559092019092556001600160a01b0385168252600c90526040812085519091908690859081106132f9576132f96150d4565b602002602001015181526020019081526020016000206000905550808061331f90615100565b91505061308b565b60005b8251811015610cc9576001600160a01b0382166000908152600f6020526040812084518290869085908110613361576133616150d4565b60209081029190910181015182528181019290925260409081016000908120546001600160a01b0387168252600e909352208054919250906133a59060019061540d565b815481106133b5576133b56150d4565b9060005260206000200154600e6000856001600160a01b03166001600160a01b0316815260200190815260200160002082815481106133f6576133f66150d4565b60009182526020808320909101929092556001600160a01b0385168152600f82526040808220600e9093528120805484939291908490811061343a5761343a6150d4565b9060005260206000200154815260200190815260200160002081905550600f6000846001600160a01b03166001600160a01b031681526020019081526020016000206000858481518110613490576134906150d4565b6020026020010151815260200190815260200160002060009055600e6000846001600160a01b03166001600160a01b031681526020019081526020016000208054806134de576134de615424565b6001900381819060005260206000200160009055905550808061350090615100565b91505061332a565b60005b81518110156113425761352982828151811061228f5761228f6150d4565b61363c576000600a6000848481518110613545576135456150d4565b6020026020010151815260200190815260200160002054905060096001600980549050613572919061540d565b81548110613582576135826150d4565b9060005260206000200154600982815481106135a0576135a06150d4565b906000526020600020018190555080600a6000600984815481106135c6576135c66150d4565b906000526020600020015481526020019081526020016000208190555060098054806135f4576135f4615424565b60019003818190600052602060002001600090559055600a6000848481518110613620576136206150d4565b6020026020010151815260200190815260200160002060009055505b8061364681615100565b91505061350b565b6060600480546108ac90614ff6565b60055460ff16156136a35760405162461bcd60e51b815260206004820152601060248201526f14185d5cd8589b194e881c185d5cd95960821b6044820152606401610782565b6005805460ff191660011790557f62e78cea01bee320cd4e420270b5ea74000d11b0c9f74754ebdbfc544b05a258612b403390565b6000610d848383614120565b611342338383614137565b60006107b0825490565b6000818152600183016020526040812054613740575081546001818101845560008481526020808220909301849055845484825282860190935260409020919091556107b0565b5060006107b0565b60006001600160e01b03198216636cdb3d1360e11b148061377957506001600160e01b031982166303a24d0760e21b145b806107b057506107b082614196565b6001600160a01b0384166137ae5760405162461bcd60e51b81526004016107829061543a565b336137ce816000876137bf88612594565b6137c888612594565b876139bb565b60008481526002602090815260408083206001600160a01b03891684529091528120805485929061380090849061547b565b909155505060408051858152602081018590526001600160a01b0380881692600092918516917fc3d58168c5ae7397731d063d5bbf3d657854427343f4c083240f7aacaa2d0f62910160405180910390a4610fc8816000878787876141bb565b6001600160a01b0384166138865760405162461bcd60e51b81526004016107829061543a565b81518351146138a75760405162461bcd60e51b81526004016107829061529b565b336138b7816000878787876139bb565b60005b8451811015613953578381815181106138d5576138d56150d4565b6020026020010151600260008784815181106138f3576138f36150d4565b602002602001015181526020019081526020016000206000886001600160a01b03166001600160a01b03168152602001908152602001600020600082825461393b919061547b565b9091555081905061394b81615100565b9150506138ba565b50846001600160a01b031660006001600160a01b0316826001600160a01b03167f4a39dc06d4c0dbc64b70af90fd698a233a518aa5d07e595d983b8c0526c8f7fb87876040516139a49291906152e3565b60405180910390a4610fc881600087878787614276565b6001600160a01b038516613a7f5780516020908111156139d9575080515b6000805b82811015613a2a576139f0816008615493565b848281518110613a0257613a026150d4565b01602001516001600160f81b031916901c919091179080613a2281615100565b9150506139dd565b5060005b8551811015613a7b5781600d6000888481518110613a4e57613a4e6150d4565b60200260200101518152602001908152602001600020819055508080613a7390615100565b915050613a2e565b5050505b611b1d8686868686866142ba565b60005b8351811015611b1d576000848281518110613aad57613aad6150d4565b602002602001015190506000848381518110613acb57613acb6150d4565b60209081029190910181015160008481526002835260408082206001600160a01b038d168352909352919091205490915081811015613b5f5760405162461bcd60e51b815260206004820152602a60248201527f455243313135353a20696e73756666696369656e742062616c616e636520666f60448201526939103a3930b739b332b960b11b6064820152608401610782565b60008381526002602090815260408083206001600160a01b038d8116855292528083208585039055908a16825281208054849290613b9e90849061547b565b9250508190555050505080613bb290615100565b9050613a90565b6001600160a01b0384163b15611b1d57825160011415613d5957836001600160a01b031663f23a6e61878786600081518110613bf757613bf76150d4565b602002602001015186600081518110613c1257613c126150d4565b6020026020010151866040518663ffffffff1660e01b8152600401613c3b9594939291906154b2565b6020604051808303816000875af1925050508015613c76575060408051601f3d908101601f19168201909252613c73918101906154f7565b60015b613d2357613c82615514565b806308c379a01415613cbc5750613c97615530565b80613ca25750613cbe565b8060405162461bcd60e51b815260040161078291906148de565b505b60405162461bcd60e51b815260206004820152603460248201527f455243313135353a207472616e7366657220746f206e6f6e20455243313135356044820152732932b1b2b4bb32b91034b6b83632b6b2b73a32b960611b6064820152608401610782565b6001600160e01b0319811663f23a6e6160e01b14613d535760405162461bcd60e51b8152600401610782906155b9565b50611b1d565b60405163bc197c8160e01b81526001600160a01b0385169063bc197c8190613d8d9089908990889088908890600401615601565b6020604051808303816000875af1925050508015613dc8575060408051601f3d908101601f19168201909252613dc5918101906154f7565b60015b613dd457613c82615514565b6001600160e01b0319811663bc197c8160e01b146111365760405162461bcd60e51b8152600401610782906155b9565b6001600160a01b0383163b15611a5b57604051630a85bd0160e11b81526001600160a01b0384169063150b7a0290613e4690339088908790879060040161565f565b6020604051808303816000875af1925050508015613e81575060408051601f3d908101601f19168201909252613e7e918101906154f7565b60015b613edb573d808015613eaf576040519150601f19603f3d011682016040523d82523d6000602084013e613eb4565b606091505b508051613ed35760405162461bcd60e51b81526004016107829061569c565b805181602001fd5b6001600160e01b03198116630a85bd0160e11b14610fc85760405162461bcd60e51b81526004016107829061569c565b60606000613f1a836002615493565b613f2590600261547b565b6001600160401b03811115613f3c57613f3c61477c565b6040519080825280601f01601f191660200182016040528015613f66576020820181803683370190505b509050600360fc1b81600081518110613f8157613f816150d4565b60200101906001600160f81b031916908160001a905350600f60fb1b81600181518110613fb057613fb06150d4565b60200101906001600160f81b031916908160001a9053506000613fd4846002615493565b613fdf90600161547b565b90505b6001811115614057576f181899199a1a9b1b9c1cb0b131b232b360811b85600f1660108110614013576140136150d4565b1a60f81b828281518110614029576140296150d4565b60200101906001600160f81b031916908160001a90535060049490941c93614050816156ee565b9050613fe2565b508315610d845760405162461bcd60e51b815260206004820181905260248201527f537472696e67733a20686578206c656e67746820696e73756666696369656e746044820152606401610782565b6140b08282611be1565b15611342576000828152602081815260408083206001600160a01b0385168085529252808320805460ff1916905551339285917ff6391f5c32d9c69d2a47ea670b442974b53935d1edc7fd64eb21e047a839171b9190a45050565b6000610d84836001600160a01b038416614420565b60008260000182815481106112b5576112b56150d4565b614142838383614513565b816001600160a01b0316836001600160a01b03167f17307eab39ab6107e8899845ad3d59bd9653f200f220920489ca2b5937696c3183604051614189911515815260200190565b60405180910390a3505050565b60006001600160e01b03198216635a05180f60e01b14806107b057506107b0826145c1565b6001600160a01b0384163b15611b1d5760405163f23a6e6160e01b81526001600160a01b0385169063f23a6e61906141ff90899089908890889088906004016154b2565b6020604051808303816000875af192505050801561423a575060408051601f3d908101601f19168201909252614237918101906154f7565b60015b61424657613c82615514565b6001600160e01b0319811663f23a6e6160e01b146111365760405162461bcd60e51b8152600401610782906155b9565b6001600160a01b0384163b15611b1d5760405163bc197c8160e01b81526001600160a01b0385169063bc197c8190613d8d9089908990889088908890600401615601565b6142c88686868686866145f6565b6001600160a01b03851661434f5760005b835181101561434d578281815181106142f4576142f46150d4565b602002602001015160066000868481518110614312576143126150d4565b602002602001015181526020019081526020016000206000828254614337919061547b565b90915550614346905081615100565b90506142d9565b505b6001600160a01b038416611b1d5760005b83518110156111365782818151811061437b5761437b6150d4565b602002602001015160066000868481518110614399576143996150d4565b602002602001015181526020019081526020016000205410614410578281815181106143c7576143c76150d4565b6020026020010151600660008684815181106143e5576143e56150d4565b60200260200101518152602001908152602001600020600082825461440a919061540d565b90915550505b61441981615100565b9050614360565b6000818152600183016020526040812054801561450957600061444460018361540d565b85549091506000906144589060019061540d565b90508181146144bd576000866000018281548110614478576144786150d4565b906000526020600020015490508087600001848154811061449b5761449b6150d4565b6000918252602080832090910192909255918252600188019052604090208390555b85548690806144ce576144ce615424565b6001900381819060005260206000200160009055905585600101600086815260200190815260200160002060009055600193505050506107b0565b60009150506107b0565b816001600160a01b0316836001600160a01b031614156145875760405162461bcd60e51b815260206004820152602960248201527f455243313135353a2073657474696e6720617070726f76616c20737461747573604482015268103337b91039b2b63360b91b6064820152608401610782565b6001600160a01b03928316600090815260036020908152604080832094909516825292909252919020805460ff1916911515919091179055565b60006001600160e01b03198216637965db0b60e01b14806107b057506301ffc9a760e01b6001600160e01b03198316146107b0565b611b1d86868686868660055460ff1615611b1d5760405162461bcd60e51b815260206004820152602c60248201527f455243313135355061757361626c653a20746f6b656e207472616e736665722060448201526b1dda1a5b19481c185d5cd95960a21b6064820152608401610782565b82805461467390614ff6565b90600052602060002090601f01602090048101928261469557600085556146db565b82601f106146ae57805160ff19168380011785556146db565b828001600101855582156146db579182015b828111156146db5782518255916020019190600101906146c0565b506146e79291506146eb565b5090565b5b808211156146e757600081556001016146ec565b80356001600160a01b038116811461471757600080fd5b919050565b6000806040838503121561472f57600080fd5b61473883614700565b946020939093013593505050565b6001600160e01b03198116811461475c57600080fd5b50565b60006020828403121561477157600080fd5b8135610d8481614746565b634e487b7160e01b600052604160045260246000fd5b601f8201601f191681016001600160401b03811182821017156147b7576147b761477c565b6040525050565b600082601f8301126147cf57600080fd5b81356001600160401b038111156147e8576147e861477c565b6040516147ff601f8301601f191660200182614792565b81815284602083860101111561481457600080fd5b816020850160208301376000918101602001919091529392505050565b60006020828403121561484357600080fd5b81356001600160401b0381111561485957600080fd5b614865848285016147be565b949350505050565b60006020828403121561487f57600080fd5b5035919050565b60005b838110156148a1578181015183820152602001614889565b83811115611a5b5750506000910152565b600081518084526148ca816020860160208601614886565b601f01601f19169290920160200192915050565b602081526000610d8460208301846148b2565b60006001600160401b0382111561490a5761490a61477c565b5060051b60200190565b600082601f83011261492557600080fd5b81356020614932826148f1565b60405161493f8282614792565b83815260059390931b850182019282810191508684111561495f57600080fd5b8286015b8481101561497a5780358352918301918301614963565b509695505050505050565b6000806000806080858703121561499b57600080fd5b6149a485614700565b935060208501356001600160401b03808211156149c057600080fd5b6149cc88838901614914565b945060408701359150808211156149e257600080fd5b6149ee88838901614914565b93506060870135915080821115614a0457600080fd5b50614a11878288016147be565b91505092959194509250565b600080600060608486031215614a3257600080fd5b614a3b84614700565b9250614a4960208501614700565b9150604084013590509250925092565b60008083601f840112614a6b57600080fd5b5081356001600160401b03811115614a8257600080fd5b6020830191508360208260051b8501011115614a9d57600080fd5b9250929050565b60008083601f840112614ab657600080fd5b5081356001600160401b03811115614acd57600080fd5b602083019150836020828501011115614a9d57600080fd5b60008060008060008060008060a0898b031215614b0157600080fd5b614b0a89614700565b9750614b1860208a01614700565b965060408901356001600160401b0380821115614b3457600080fd5b614b408c838d01614a59565b909850965060608b0135915080821115614b5957600080fd5b614b658c838d01614a59565b909650945060808b0135915080821115614b7e57600080fd5b50614b8b8b828c01614aa4565b999c989b5096995094979396929594505050565b60008060408385031215614bb257600080fd5b82359150614bc260208401614700565b90509250929050565b60008060408385031215614bde57600080fd5b82356001600160401b0380821115614bf557600080fd5b818501915085601f830112614c0957600080fd5b81356020614c16826148f1565b604051614c238282614792565b83815260059390931b8501820192828101915089841115614c4357600080fd5b948201945b83861015614c6857614c5986614700565b82529482019490820190614c48565b96505086013592505080821115614c7e57600080fd5b50614c8b85828601614914565b9150509250929050565b600081518084526020808501945080840160005b83811015614cc557815187529582019590820190600101614ca9565b509495945050505050565b602081526000610d846020830184614c95565b60008060408385031215614cf657600080fd5b82356001600160401b03811115614d0c57600080fd5b614d18858286016147be565b95602094909401359450505050565b600080600060608486031215614d3c57600080fd5b614d4584614700565b925060208401356001600160401b0380821115614d6157600080fd5b614d6d87838801614914565b93506040860135915080821115614d8357600080fd5b50614d9086828701614914565b9150509250925092565b600060208284031215614dac57600080fd5b610d8482614700565b60008060008060808587031215614dcb57600080fd5b614dd485614700565b9350602085013592506040850135915060608501356001600160401b03811115614dfd57600080fd5b614a11878288016147be565b60008060408385031215614e1c57600080fd5b50508035926020909101359150565b60008060408385031215614e3e57600080fd5b614e4783614700565b915060208301358015158114614e5c57600080fd5b809150509250929050565b6020808252825182820181905260009190848201906040850190845b81811015614ea85783516001600160a01b031683529284019291840191600101614e83565b50909695505050505050565b600080600080600060808688031215614ecc57600080fd5b614ed586614700565b9450614ee360208701614700565b93506040860135925060608601356001600160401b03811115614f0557600080fd5b614f1188828901614aa4565b969995985093965092949392505050565b60008060408385031215614f3557600080fd5b614f3e83614700565b9150614bc260208401614700565b60008060008060008060a08789031215614f6557600080fd5b614f6e87614700565b9550614f7c60208801614700565b9450604087013593506060870135925060808701356001600160401b03811115614fa557600080fd5b614fb189828a01614aa4565b979a9699509497509295939492505050565b600080600060608486031215614fd857600080fd5b614fe184614700565b95602085013595506040909401359392505050565b600181811c9082168061500a57607f821691505b60208210811415610d8b57634e487b7160e01b600052602260045260246000fd5b60208082526039908201527f466972655a6172644e46543a2074686973207175657279206d6179207365727660408201527f65206f6e6c792073696e676c6520746f6b656e206f776e657200000000000000606082015260800190565b6020808252602c908201527f4552433732313a206f70657261746f7220717565727920666f72206e6f6e657860408201526b34b9ba32b73a103a37b5b2b760a11b606082015260800190565b634e487b7160e01b600052603260045260246000fd5b634e487b7160e01b600052601160045260246000fd5b6000600019821415615114576151146150ea565b5060010190565b60208082526025908201527f4552433732313a207472616e736665722066726f6d20696e636f72726563742060408201526437bbb732b960d91b606082015260800190565b60208082526031908201527f4552433732313a207472616e736665722063616c6c6572206973206e6f74206f6040820152701ddb995c881b9bdc88185c1c1c9bdd9959607a1b606082015260800190565b60208082526024908201527f4552433732313a207472616e7366657220746f20746865207a65726f206164646040820152637265737360e01b606082015260800190565b60208082526029908201527f455243313135353a2063616c6c6572206973206e6f74206f776e6572206e6f7260408201526808185c1c1c9bdd995960ba1b606082015260800190565b60208082526038908201527f455243313135355072657365744d696e7465725061757365723a206d7573742060408201527f68617665206d696e74657220726f6c6520746f206d696e740000000000000000606082015260800190565b60208082526028908201527f455243313135353a2069647320616e6420616d6f756e7473206c656e677468206040820152670dad2e6dac2e8c6d60c31b606082015260800190565b6040815260006152f66040830185614c95565b82810360208401526153088185614c95565b95945050505050565b7f416363657373436f6e74726f6c3a206163636f756e7420000000000000000000815260008351615349816017850160208801614886565b7001034b99036b4b9b9b4b733903937b6329607d1b601791840191820152835161537a816028840160208801614886565b01602801949350505050565b60208082526023908201527f455243313135353a206275726e2066726f6d20746865207a65726f206164647260408201526265737360e81b606082015260800190565b60208082526024908201527f455243313135353a206275726e20616d6f756e7420657863656564732062616c604082015263616e636560e01b606082015260800190565b60008282101561541f5761541f6150ea565b500390565b634e487b7160e01b600052603160045260246000fd5b60208082526021908201527f455243313135353a206d696e7420746f20746865207a65726f206164647265736040820152607360f81b606082015260800190565b6000821982111561548e5761548e6150ea565b500190565b60008160001904831182151516156154ad576154ad6150ea565b500290565b6001600160a01b03868116825285166020820152604081018490526060810183905260a0608082018190526000906154ec908301846148b2565b979650505050505050565b60006020828403121561550957600080fd5b8151610d8481614746565b600060033d111561552d5760046000803e5060005160e01c5b90565b600060443d101561553e5790565b6040516003193d81016004833e81513d6001600160401b03816024840111818411171561556d57505050505090565b82850191508151818111156155855750505050505090565b843d870101602082850101111561559f5750505050505090565b6155ae60208286010187614792565b509095945050505050565b60208082526028908201527f455243313135353a204552433131353552656365697665722072656a656374656040820152676420746f6b656e7360c01b606082015260800190565b6001600160a01b0386811682528516602082015260a06040820181905260009061562d90830186614c95565b828103606084015261563f8186614c95565b9050828103608084015261565381856148b2565b98975050505050505050565b6001600160a01b0385811682528416602082015260408101839052608060608201819052600090615692908301846148b2565b9695505050505050565b60208082526032908201527f4552433732313a207472616e7366657220746f206e6f6e20455243373231526560408201527131b2b4bb32b91034b6b83632b6b2b73a32b960711b606082015260800190565b6000816156fd576156fd6150ea565b50600019019056feddf252ad1be2c89b69c2b068fc378daa952ba7f163c4a11628f55a4df523b3ef8c5be1e5ebec7d5bd14f71427d1e84f3dd0314c0f7b2291e5b200ac8c7c3b925a2646970667358221220abf08b5ec4338ed1fbabf67a7ed9aacd4997d3c11e2c88cfd898ab43e0fac2ff64736f6c634300080b0033",
  "immutableReferences": {},
  "source": "/**\n * FireZard ERC1155 NFT for storinfg game characters and items (both stackable and unstackable)\n */\n\npragma solidity ^0.8.0;\n\nimport \"./dependencies/presets/ERC1155PresetMinterPauser.sol\";\nimport \"./dependencies/extensions/ERC1155Supply.sol\";\nimport \"@openzeppelin/contracts/token/ERC721/extensions/IERC721Enumerable.sol\";\nimport \"@openzeppelin/contracts/token/ERC721/extensions/IERC721Metadata.sol\";\nimport \"@openzeppelin/contracts/token/ERC721/IERC721Receiver.sol\";\nimport \"@openzeppelin/contracts/utils/Address.sol\";\n\n\ncontract FireZardNFT is IERC1155MetadataURI, ERC1155PresetMinterPauser, ERC1155Supply, IERC721Enumerable, IERC721Metadata {\n    using Address for address;\n\n    string _name;\n    string _symbol;\n\n    // List of all token IDs\n    uint256[] public tokens;\n\n    // Token index mapping: toklen_id => token index in tokens list\n    mapping(uint256 => uint256) public tokenIndex;\n\n    // Token ownership mapping: token_id ==> array of token_owner_address\n    mapping(uint256 => address[]) public ownership;\n\n    // Owner's address position in ownership list for token_id\n    mapping(address => mapping(uint256 => uint256)) private ownershipIndex;\n\n    // Token type mapping: token_id ==> token_type (like, DRAGON_CARD_TYPE_CODE, etc.)\n    mapping(uint256 => bytes32) public token_type;\n\n    // Inventory: owner_address => array_of_token_ids\n    mapping(address => uint256[]) public inventory;\n\n    // Slot: slot position of token_id in owner_address inventory\n    mapping(address => mapping(uint256 => uint256)) private slot;\n\n    // Approved transfer of token_id belonging to an owner for an operator\n    mapping(uint256 => mapping(address => address)) private approved;\n\n    // Approved transfer of a token_id to an operator. Applicable only for cases where tokens with token_id belong to a single owner\n    mapping(uint256 => address) private singleApproved;\n\n    // Token custom URIs\n    mapping(uint256 => string) private uris;\n\n\n    modifier canBeTransferedAsERC721(address from, address to, uint256 token_id) {\n\trequire(totalSupply(token_id)>0,\"ERC721: operator query for nonexistent token\");\n\tbool from_owns_token = false;\n\tfor(uint i=0;i<ownership[token_id].length;i++)\n\t    if(ownership[token_id][i] == from){\n\t\tfrom_owns_token = true;\n\t\tbreak;\n\t    }\n\trequire(from_owns_token,\"ERC721: transfer from incorrect owner\");\n\trequire(\n            from == _msgSender() || isApprovedForAll(from, _msgSender()) || isApproved(_asSingletonArray(token_id),from),\n            \"ERC721: transfer caller is not owner nor approved\"\n        );\n\trequire(to != address(0),\"ERC721: transfer to the zero address\");\n\t_;\n    }\n\n    constructor(string memory _uri, string memory name_, string memory symbol_) ERC1155PresetMinterPauser(_uri) {\n\t_name = name_;\n\t_symbol = symbol_;\n    }\n\n    function _beforeTokenTransfer(\n        address operator,\n        address from,\n        address to,\n        uint256[] memory ids,\n        uint256[] memory amounts,\n        bytes memory data\n    ) internal virtual override(ERC1155PresetMinterPauser, ERC1155Supply) {\n\tif(from == address(0)){\n\t    uint l=32;\n\t    if(data.length<l)l=data.length;\n\n\t    bytes32 _token_type;\n\n\t    for(uint i=0;i<l;i++)\n\t\t_token_type |= bytes32(data[i] & 0xFF) >> (i*8);\n\n\t    for(uint i=0;i<ids.length;i++)\n\t\ttoken_type[ids[i]] = _token_type;\n\t}\n\tsuper._beforeTokenTransfer(operator, from, to, ids, amounts, data);\n    }\n\n    function _transferFrom(\n\taddress from,\n\taddress to,\n\tuint256 tokenId,\n\tbytes\tmemory data,\n\tbool safe_mode,\n\tbool ERC721_mode\n    ) internal {\n\tif(ERC721_mode)require(from != address(0));\n\trequire(to != address(0));\n\n\tuint256[] memory ids = _asSingletonArray(tokenId);\n\tuint256[] memory amounts = _asSingletonArray(balanceOf(from,tokenId));\n\t_transferFrom(\n\t    from,\n\t    to,\n\t    ids,\n\t    amounts,\n\t    data,\n\t    safe_mode,\n\t    ERC721_mode\n\t);\n    }\n\n    function _transferFrom(\n\taddress from,\n\taddress to,\n\tuint256[] memory ids,\n\tuint256[] memory amounts,\n\tbytes\tmemory data,\n\tbool\tsafe_mode,\n\tbool\tERC721_mode\n    ) internal {\n\trequire(ids.length == amounts.length, \"ERC1155: ids and amounts length mismatch\");\n        require(to != address(0), \"ERC1155: transfer to the zero address\");\n\n        address operator = _msgSender();\n\trequire(\n            from == operator || isApprovedForAll(from, operator) || isApproved(ids, from),\n            \"ERC1155: caller is not owner nor approved\"\n        );\n\n        _beforeTokenTransfer(operator, from, to, ids, amounts, data);\n\n\tuint256[] memory ids_to = idsToChange(ids,to);\n\t_rebalance(from, to, ids, amounts, data);\n\tuint256[] memory ids_from = idsToChange(ids,from);\n\n\tif(ERC721_mode)\n\t    removeApproval(ids_from, ids, from);\n\telse\n\t    removeApproval(ids_from, new uint256[](0), from);\n\n\taddOwnership(ids_to,to);\n\taddToInventory(ids_to,to);\n\tremoveOwnership(ids_from,from);\n\tremoveFromInventory(ids_from,from);\n\n\tif(ids.length>1){\n    \t    emit TransferBatch(operator, from, to, ids, amounts);\n\t    for(uint i=0;i<ids.length;i++)\n\t\temit Transfer(from, to, ids[i]);\n\t}\n\telse{\n\t    emit TransferSingle(operator, from, to, ids[0], amounts[0]);\n\t    emit Transfer(from, to, ids[0]);\n\t}\n\n\tif(!safe_mode)return;\n\tif(!ERC721_mode)\n\t    _doERC1155TransferAcceptanceCheck(operator, from, to, ids, amounts, data);\n\telse\n\t    _doERC721TransferAcceptanceCheck(from, to, ids[0], data);\n    }\n\n    function isApproved(uint256[] memory ids, address owner) internal view returns (bool) {\n\tfor(uint i=0;i<ids.length;i++){\n\t    if(approved[ids[i]][owner] != _msgSender())\n\t\treturn false;\n\t}\n\treturn true;\n    }\n\n    function removeApproval(uint256[] memory ids_from, uint256[] memory ids, address owner) internal {\n\tfor(uint i=0;i<ids_from.length;i++){\n\t    emit Approval(owner, address(0), ids_from[i]);\n\t    if(approved[ids_from[i]][owner] != address(0)){\n\t\tdelete approved[ids_from[i]][owner];\n\t    }\n\t    if(singleApproved[ids_from[i]] != address(0)){\n\t\tdelete singleApproved[ids_from[i]];\n\t    }\n\t}\n\tfor(uint i=0;i<ids.length;i++){\n\t    emit Approval(owner, address(0), ids[i]);\n\t    if(singleApproved[ids[i]] != address(0)){\n\t\tdelete singleApproved[ids[i]];\n\t    }\n\t}\n    }\n\n    function idsToChange(uint256[] memory ids, address owner) internal view returns (uint256[] memory){\n\tuint256[] memory ids_tmp = new uint256[](ids.length);\n\tuint256 index=0;\n\tfor(uint i=0;i<ids.length;i++){\n\t    if(balanceOf(owner,ids[i])==0)\n\t\tids_tmp[index++]=ids[i];\n\t}\n\tuint256[] memory filtered_ids = new uint256[](index);\n\tfor(uint i=0;i<index;i++)\n\t    filtered_ids[i] = ids_tmp[i];\n\treturn filtered_ids;\n    }\n\n    function addTokens(uint256[] memory ids) internal {\n\tfor(uint i=0;i<ids.length;i++){\n\t    if(!exists(ids[i])){\n\t\ttokenIndex[ids[i]] = tokens.length;\n\t\ttokens.push(ids[i]);\n\t    }\n\t}\n    }\n\n    function removeTokens(uint256[] memory ids) internal {\n\tfor(uint i=0;i<ids.length;i++){\n\t    if(!exists(ids[i])){\n\t\tuint256 token_index = tokenIndex[ids[i]];\n\t\ttokens[token_index] = tokens[tokens.length-1];\n\t\ttokenIndex[tokens[token_index]] = token_index;\n\t\ttokens.pop();\n\t\tdelete tokenIndex[ids[i]];\n\t    }\n\t}\n    }\n\n    function addOwnership(uint256[] memory ids, address owner) internal {\n\tfor(uint i=0;i<ids.length;i++){\n\t    ownershipIndex[owner][ids[i]] = ownership[ids[i]].length;\n\t    ownership[ids[i]].push(owner);\n\t}\n    }\n\n    function removeOwnership(uint256[] memory ids, address owner) internal {\n\tfor(uint i=0;i<ids.length;i++){\n\t    uint256 owner_index = ownershipIndex[owner][ids[i]];\n\t    ownership[ids[i]][owner_index] = ownership[ids[i]][ownership[ids[i]].length-1];\n\t    ownershipIndex[ownership[ids[i]][owner_index]][ids[i]] = owner_index;\n\t    ownership[ids[i]].pop();\n\t    delete ownershipIndex[owner][ids[i]];\n\t}\n    }\n    \n    function addToInventory(uint256[] memory ids, address owner) internal {\n\tfor(uint i=0;i<ids.length;i++){\n\t    slot[owner][ids[i]] = inventory[owner].length;\n\t    inventory[owner].push(ids[i]);\n\t}\n    }\n\n    function removeFromInventory(uint256[] memory ids, address owner) internal {\n\tfor(uint i=0;i<ids.length;i++){\n\t    uint256 token_index = slot[owner][ids[i]];\n\t    inventory[owner][token_index] = inventory[owner][inventory[owner].length-1];\n\t    slot[owner][inventory[owner][token_index]] = token_index;\n\t    delete slot[owner][ids[i]];\n\t    inventory[owner].pop();\n\t}\n    }\n\n    function _doERC1155TransferAcceptanceCheck(\n        address operator,\n        address from,\n        address to,\n        uint256[] memory ids,\n        uint256[] memory amounts,\n        bytes memory data\n    ) private {\n        if (to.isContract()) {\n\t    if(ids.length == 1){\n\t\ttry IERC1155Receiver(to).onERC1155Received(operator, from, ids[0], amounts[0], data) returns (bytes4 response) {\n            \t    if (response != IERC1155Receiver.onERC1155Received.selector) {\n                \trevert(\"ERC1155: ERC1155Receiver rejected tokens\");\n            \t    }\n        \t} catch Error(string memory reason) {\n            \t    revert(reason);\n        \t} catch {\n            \t    revert(\"ERC1155: transfer to non ERC1155Receiver implementer\");\n        \t}\n\t    }else{\n        \ttry IERC1155Receiver(to).onERC1155BatchReceived(operator, from, ids, amounts, data) returns (\n            \t    bytes4 response\n        \t) {\n            \t    if (response != IERC1155Receiver.onERC1155BatchReceived.selector) {\n                \trevert(\"ERC1155: ERC1155Receiver rejected tokens\");\n            \t    }\n        \t} catch Error(string memory reason) {\n            \t    revert(reason);\n        \t} catch {\n            \t    revert(\"ERC1155: transfer to non ERC1155Receiver implementer\");\n        \t}\n\t    }\n        }\n    }\n\n    function _doERC721TransferAcceptanceCheck(\n\taddress from,\n\taddress to,\n\tuint256 tokenId,\n\tbytes memory _data\n    ) private {\n\tif (to.isContract()) {\n            try IERC721Receiver(to).onERC721Received(_msgSender(), from, tokenId, _data) returns (bytes4 retval) {\n\t\tif(retval != IERC721Receiver.onERC721Received.selector)\n\t\t    revert(\"ERC721: transfer to non ERC721Receiver implementer\");\n//                require(retval == IERC721Receiver.onERC721Received.selector);\n            } catch (bytes memory reason) {\n                if (reason.length == 0) {\n                    revert(\"ERC721: transfer to non ERC721Receiver implementer\");\n                } else {\n                    assembly {\n                        revert(add(32, reason), mload(reason))\n                    }\n                }\n            }\n        }\n    }\n\n    /**\n     * @dev Safely transfers `tokenId` token from `from` to `to`, checking first that contract recipients\n     * are aware of the ERC721 protocol to prevent tokens from being forever locked.\n     *\n     * See IERC721\n     *\n     * Requirements:\n     *\n     * - `from` cannot be the zero address.\n     * - `to` cannot be the zero address.\n     * - `tokenId` token must exist and be owned by `from`.\n     * - If the caller is not `from`, it must be have been allowed to move this token by either {approve} or {setApprovalForAll}.\n     * - If `to` refers to a smart contract, it must implement {IERC721Receiver-onERC721Received}, which is called upon a safe transfer.\n     *\n     * Emits a {Transfer} event.\n     */\n    function safeTransferFrom(\n        address from,\n        address to,\n        uint256 tokenId\n    ) external canBeTransferedAsERC721(from, to, tokenId){\n\t_transferFrom(from, to, tokenId, \"\", true, true);\n    }\n\n/**\n     * @dev Safely transfers `tokenId` token from `from` to `to`.\n     *\n     * Requirements:\n     *\n     * - `from` cannot be the zero address.\n     * - `to` cannot be the zero address.\n     * - `tokenId` token must exist and be owned by `from`.\n     * - If the caller is not `from`, it must be approved to move this token by either {approve} or {setApprovalForAll}.\n     * - If `to` refers to a smart contract, it must implement {IERC721Receiver-onERC721Received}, which is called upon a safe transfer.\n     *\n     * Emits a {Transfer} event.\n     */\n    function safeTransferFrom(\n        address from,\n        address to,\n        uint256 tokenId,\n        bytes calldata data\n    ) external canBeTransferedAsERC721(from, to, tokenId){\n\t_transferFrom(from, to, tokenId, data, true, true);\n    }\n\n    /**\n     * @dev Transfers `tokenId` token from `from` to `to`.\n     *\n     * See IERC721\n     *\n     * WARNING: Usage of this method is discouraged, use {safeTransferFrom} whenever possible.\n     *\n     * Requirements:\n     *\n     * - `from` cannot be the zero address.\n     * - `to` cannot be the zero address.\n     * - `tokenId` token must be owned by `from`.\n     * - If the caller is not `from`, it must be approved to move this token by either {approve} or {setApprovalForAll}.\n     *\n     * Emits a {Transfer} event.\n     */\n    function transferFrom(\n        address from,\n        address to,\n        uint256 tokenId\n    ) external canBeTransferedAsERC721(from, to, tokenId){\n\t_transferFrom(from, to, tokenId, \"\", false, true);\n    }\n\n    /**\n     * @dev Transfers `amount` tokens of token type `id` from `from` to `to`.\n     *\n     * Emits a {TransferSingle} event.\n     *\n     * Requirements:\n     *\n     * - `to` cannot be the zero address.\n     * - If the caller is not `from`, it must be have been approved to spend ``from``'s tokens via {setApprovalForAll}.\n     * - `from` must have a balance of tokens of type `id` of at least `amount`.\n     * - If `to` refers to a smart contract, it must implement {IERC1155Receiver-onERC1155Received} and return the\n     * acceptance magic value.\n     */\n    function safeTransferFrom(\n        address from,\n        address to,\n        uint256 id,\n        uint256 amount,\n        bytes calldata data\n    ) public virtual override(ERC1155, IERC1155) {\n\t_transferFrom(from, to, _asSingletonArray(id), _asSingletonArray(amount), data, true, false);\n    }\n\n    /**\n     * @dev xref:ROOT:erc1155.adoc#batch-operations[Batched] version of {safeTransferFrom}.\n     *\n     * Emits a {TransferBatch} event.\n     *\n     * Requirements:\n     *\n     * - `ids` and `amounts` must have the same length.\n     * - If `to` refers to a smart contract, it must implement {IERC1155Receiver-onERC1155BatchReceived} and return the\n     * acceptance magic value.\n     */\n    function safeBatchTransferFrom(\n        address from,\n        address to,\n        uint256[] calldata ids,\n        uint256[] calldata amounts,\n        bytes calldata data\n    ) public virtual override(ERC1155, IERC1155) {\n\t_transferFrom(from, to, ids, amounts, data, true, false);\n    }\n\n    /**\n     * @dev Creates `amount` tokens of token type `id`, and assigns them to `to`.\n     *\n     * Emits a {TransferSingle} event.\n     *\n     * Requirements:\n     *\n     * - `to` cannot be the zero address.\n     * - If `to` refers to a smart contract, it must implement {IERC1155Receiver-onERC1155Received} and return the\n     * acceptance magic value.\n     */\n    function mint(\n        address to,\n        uint256 id,\n        uint256 amount,\n        bytes memory data\n    ) public virtual override {\n\tuint256[] memory ids = _asSingletonArray(id);\n\tuint256[] memory amounts = _asSingletonArray(amount);\n\tmintBatch(to, ids, amounts, data);\n    }\n\n    function mintBatch(\n        address to,\n        uint256[] memory ids,\n        uint256[] memory amounts,\n        bytes memory data\n    ) public virtual override {\n\trequire(to != address(0), \"FireZardNFT: mint to the zero address\");\n\tuint256[] memory ids_to = idsToChange(ids,to);\n\taddTokens(ids_to);\n\n\tif(ids.length == 1){\n\t    super.mint(to, ids[0], amounts[0], data);\n\t    emit Transfer(address(0), to, ids[0]);\n\t}\n\telse{\n    \t    super.mintBatch(to, ids, amounts, data);\n\t    for(uint i=0;i<ids.length;i++)\n\t\temit Transfer(address(0), to, ids[i]);\n\t}\n\n\tfor(uint i=0;i<ids.length;i++){\n\t    if(ownership[ids[i]].length > 1)\n\t\tdelete singleApproved[ids[i]];\n\t}\n\n\taddOwnership(ids_to,to);\n\taddToInventory(ids_to,to);\n    }\n    \n    /**\n     * @dev Destroys `amount` tokens of token type `id` from `from`\n     *\n     * Requirements:\n     *\n     * - `from` cannot be the zero address.\n     * - `from` must have at least `amount` tokens of token type `id`.\n     */\n    function burn(\n        address from,\n        uint256 id,\n        uint256 amount\n    ) public virtual override {\n\tuint256[] memory ids = _asSingletonArray(id);\n\tuint256[] memory amounts = _asSingletonArray(amount);\n\tburnBatch(from, ids, amounts);\n    }\n    \n    /**\n     * @dev xref:ROOT:erc1155.adoc#batch-operations[Batched] version of {_burn}.\n     *\n     * Requirements:\n     *\n     * - `ids` and `amounts` must have the same length.\n     */\n    function burnBatch(\n        address from,\n        uint256[] memory ids,\n        uint256[] memory amounts\n    ) public virtual override {\n    \trequire(\n            from == _msgSender() || isApprovedForAll(from, _msgSender()) || isApproved(ids, from),\n            \"ERC1155: caller is not owner nor approved\"\n        );\n\n\tif(ids.length == 1){\n\t    super._burn(from, ids[0], amounts[0]);\n\t    emit Transfer(from, address(0), ids[0]);\n\t}\n\telse{\n\t    super._burnBatch(from, ids, amounts);\n\t    for(uint i=0;i<ids.length;i++)\n\t\temit Transfer(from, address(0), ids[i]);\n\t}\n\n\tuint256[] memory ids_from = idsToChange(ids,from);\n\tremoveApproval(ids_from, ids, from);\n\n\tremoveOwnership(ids_from,from);\n\tremoveFromInventory(ids_from,from);\n\tremoveTokens(ids_from);\n    }\n\n    function typeOf(uint256 id) public view returns (bytes32) {\n\treturn token_type[id];\n    }\n\n    function ownersOf(uint256 id) public view returns (address[] memory) {\n\treturn ownership[id];\n    }\n\n    /**\n     * @dev Returns the number of tokens in ``owner``'s account.\n     * See IERC721\n     */\n    function balanceOf(address owner) external view returns (uint256 balance){\n\trequire(owner != address(0), \"ERC721: balance query for the zero address\");\n\treturn inventory[owner].length;\n    }\n\n    /**\n     * @dev Returns the owner of the `tokenId` token.\n     * See IERC721\n     *\n     * Requirements:\n     *\n     * - `tokenId` must exist and belong to a single owner\n     */\n    function ownerOf(uint256 tokenId) external view returns (address owner){\n\trequire(ownership[tokenId].length >= 1, 'ERC721: owner query for nonexistent token');\n\trequire(ownership[tokenId].length == 1, 'FireZardNFT: this query may serve only single token owner');\n\t\n\treturn ownership[tokenId][0];\n    }\n\n    /**\n     * @dev Gives permission to `to` to transfer `tokenId` token to another account.\n     * The approval is cleared when the token is transferred.\n     *\n     * Only a single account can be approved at a time, so approving the zero address clears previous approvals.\n     *\n     * See IERC721\n     *\n     * Requirements:\n     *\n     * - The caller must own the token or be an approved operator.\n     * - `tokenId` must exist.\n     *\n     * Emits an {Approval} event.\n     */\n    function approve(address to, uint256 tokenId) external {\n\trequire(to != _msgSender(),\"ERC721: approval to current owner\");\n\trequire(totalSupply(tokenId)>0,\"ERC721: operator query for nonexistent token\");\n\tbool _approved = false;\n\tif(balanceOf(_msgSender(), tokenId)>0){\n\t    approved[tokenId][_msgSender()] = to;\n\t    if(ownership[tokenId].length == 1)\n\t\tsingleApproved[tokenId] = to;\n\t    _approved = true;\n\t    emit Approval(_msgSender(), to, tokenId);\n\t}\n\tfor(uint i=0;i<ownership[tokenId].length;i++){\n\t    address owner = ownership[tokenId][i];\n\t    if((approved[tokenId][owner] == _msgSender())||(isApprovedForAll(owner,_msgSender()))){\n\t\tapproved[tokenId][owner] = to;\n\t\tif(ownership[tokenId].length == 1)\n\t\t    singleApproved[tokenId] = to;\n\t\t_approved = true;\n\t\temit Approval(owner, to, tokenId);\n\t    }\n\t}\n\trequire(_approved, 'ERC721: approve caller is not owner nor approved');\n    }\n\n    /**\n     * @dev Returns the account approved for `tokenId` token.\n     * If there are more accounts holding token with same id\n     * the function fails.\n     *\n     * See IERC721\n     *\n     * Requirements:\n     *\n     * - `tokenId` must exist and belong to a single account\n     */\n    function getApproved(uint256 tokenId) external view returns (address operator){\n\trequire(totalSupply(tokenId)>0,\"ERC721: approved query for nonexistent token\");\n\trequire(ownership[tokenId].length == 1, \"FireZardNFT: this query may serve only single token owner\");\n\treturn singleApproved[tokenId];\n    }\n\n    /**\n     * @dev Indicates whether any token exist with a given id, or not.\n     *\n     * See ERC1155Supply\n     */\n    function exists(uint256 id) public view virtual override returns (bool) {\n        return (super.totalSupply(id) > 0);\n    }\n\n    /**\n     * @dev Returns the total amount of tokens stored by the contract.\n     */\n    function totalSupply() external view override returns (uint256) {\n\treturn tokens.length;\n    }\n\n     /**\n     * @dev Returns a token ID owned by `owner` at a given `index` of its token list.\n     * Use along with {balanceOf} to enumerate all of ``owner``'s tokens.\n     *\n     * See IERC721Enumerable\n     */\n    function tokenOfOwnerByIndex(address owner, uint256 index) external view returns (uint256 tokenId){\n\trequire(inventory[owner].length>index,\"FireZardNFT: owner index out of bounds\");\n\treturn inventory[owner][index];\n    }\n\n    /**\n     * @dev Returns a token ID at a given `index` of all the tokens stored by the contract.\n     * Use along with {totalSupply} to enumerate all tokens.\n     *\n     * See IERC721Enumerable\n     */\n    function tokenByIndex(uint256 index) external view returns (uint256){\n\trequire(tokens.length>index,\"ERC721Enumerable: global index out of bounds\");\n\treturn tokens[index];\n    }\n\n    /**\n     * @dev Returns the Uniform Resource Identifier (URI) for `tokenId` token.\n     * \n     * See IERC721Enumerable\n     */\n    function tokenURI(uint256 tokenId) external view returns (string memory) {\n\trequire(totalSupply(tokenId)>0, \"FireZardNFT: URI query for non-existent token\");\n\treturn uri(tokenId);\n    }\n\n    /**\n     * @dev Returns the URI for token type `id`.\n     *\n     * If the `\\{id\\}` substring is present in the URI, it must be replaced by\n     * clients with the actual token type ID.\n     */\n    function uri(uint256 id) public view virtual override(ERC1155, IERC1155MetadataURI) returns (string memory){\n\tstring memory token_uri = uris[id];\n\tif(bytes(token_uri).length != 0)\n\t    return token_uri;\n\telse\n\t    return super.uri(id);\n    }\n\n    function setURI(string memory token_uri, uint256 token_id) public virtual {\n\trequire(hasRole(DEFAULT_ADMIN_ROLE, _msgSender()), \"Must be admin\");\n\turis[token_id] = token_uri;\n\temit URI(token_uri, token_id);\n    }\n\n    function setURI(string memory token_uri) public virtual {\n\trequire(hasRole(DEFAULT_ADMIN_ROLE, _msgSender()), \"Must be admin\");\n\t_setURI(token_uri);\n\temit URI(token_uri, 0);\n    }\n\n    function baseURI() public virtual view returns (string memory) {\n\treturn _getBaseURI();\n    }\n\n    /**\n     * @dev Approve `operator` to operate on all of `owner` tokens\n     *\n     * Emits a {ApprovalForAll} event.\n     */\n    function _setApprovalForAll(\n        address owner,\n        address operator,\n        bool approved\n    ) internal virtual override {\n\tsuper._setApprovalForAll(owner, operator, approved);\n        emit ApprovalForAll(owner, operator, approved);\n    }\n\n    /**\n     * @dev See {IERC1155-isApprovedForAll}.\n     */\n    function isApprovedForAll(address account, address operator) public view virtual override(ERC1155, IERC1155, IERC721) returns (bool) {\n        return ERC1155.isApprovedForAll(account, operator);\n    }\n\n    /**\n     * @dev See {IERC1155-setApprovalForAll}.\n     */\n    function setApprovalForAll(address operator, bool approved) public virtual override(ERC1155, IERC1155, IERC721) {\n        return super.setApprovalForAll(operator, approved);\n    }\n\n    /**\n     * @dev Returns the token collection name.\n     */\n    function name() external view override returns (string memory){\n\treturn _name;\n    }\n\n    /**\n     * @dev Returns the token collection symbol.\n     */\n    function symbol() external view returns (string memory){\n\treturn _symbol;\n    }\n\n    /**\n     * @dev See {IERC165-supportsInterface}.\n     */\n    function supportsInterface(bytes4 interfaceId)\n        public\n        view\n        virtual\n        override(ERC1155, ERC1155PresetMinterPauser, IERC165)\n        returns (bool)\n    {\n        return \n\t    interfaceId == type(IERC721).interfaceId ||\n\t    interfaceId == type(IERC721Enumerable).interfaceId ||\n\t    interfaceId == type(IERC721Metadata).interfaceId ||\n\t    super.supportsInterface(interfaceId);\n    }\n\n\n}\n",
  "sourcePath": "/home/vrogojin/Projects/FireZard/nft/contracts/FireZardNFT.sol",
  "compiler": {
    "name": "solc",
    "version": "0.8.11+commit.d7f03943.Emscripten.clang"
  },
  "schemaVersion": "3.4.3",
  "updatedAt": "2022-01-23T20:10:49.306Z",
  "devdoc": {
    "kind": "dev",
    "methods": {
      "approve(address,uint256)": {
        "details": "Gives permission to `to` to transfer `tokenId` token to another account. The approval is cleared when the token is transferred. Only a single account can be approved at a time, so approving the zero address clears previous approvals. See IERC721 Requirements: - The caller must own the token or be an approved operator. - `tokenId` must exist. Emits an {Approval} event."
      },
      "balanceOf(address)": {
        "details": "Returns the number of tokens in ``owner``'s account. See IERC721"
      },
      "balanceOf(address,uint256)": {
        "details": "See {IERC1155-balanceOf}. Requirements: - `account` cannot be the zero address."
      },
      "balanceOfBatch(address[],uint256[])": {
        "details": "See {IERC1155-balanceOfBatch}. Requirements: - `accounts` and `ids` must have the same length."
      },
      "burn(address,uint256,uint256)": {
        "details": "Destroys `amount` tokens of token type `id` from `from` Requirements: - `from` cannot be the zero address. - `from` must have at least `amount` tokens of token type `id`."
      },
      "burnBatch(address,uint256[],uint256[])": {
        "details": "xref:ROOT:erc1155.adoc#batch-operations[Batched] version of {_burn}. Requirements: - `ids` and `amounts` must have the same length."
      },
      "exists(uint256)": {
        "details": "Indicates whether any token exist with a given id, or not. See ERC1155Supply"
      },
      "getApproved(uint256)": {
        "details": "Returns the account approved for `tokenId` token. If there are more accounts holding token with same id the function fails. See IERC721 Requirements: - `tokenId` must exist and belong to a single account"
      },
      "getRoleAdmin(bytes32)": {
        "details": "Returns the admin role that controls `role`. See {grantRole} and {revokeRole}. To change a role's admin, use {_setRoleAdmin}."
      },
      "getRoleMember(bytes32,uint256)": {
        "details": "Returns one of the accounts that have `role`. `index` must be a value between 0 and {getRoleMemberCount}, non-inclusive. Role bearers are not sorted in any particular way, and their ordering may change at any point. WARNING: When using {getRoleMember} and {getRoleMemberCount}, make sure you perform all queries on the same block. See the following https://forum.openzeppelin.com/t/iterating-over-elements-on-enumerableset-in-openzeppelin-contracts/2296[forum post] for more information."
      },
      "getRoleMemberCount(bytes32)": {
        "details": "Returns the number of accounts that have `role`. Can be used together with {getRoleMember} to enumerate all bearers of a role."
      },
      "grantRole(bytes32,address)": {
        "details": "Grants `role` to `account`. If `account` had not been already granted `role`, emits a {RoleGranted} event. Requirements: - the caller must have ``role``'s admin role."
      },
      "hasRole(bytes32,address)": {
        "details": "Returns `true` if `account` has been granted `role`."
      },
      "isApprovedForAll(address,address)": {
        "details": "See {IERC1155-isApprovedForAll}."
      },
      "mint(address,uint256,uint256,bytes)": {
        "details": "Creates `amount` tokens of token type `id`, and assigns them to `to`. Emits a {TransferSingle} event. Requirements: - `to` cannot be the zero address. - If `to` refers to a smart contract, it must implement {IERC1155Receiver-onERC1155Received} and return the acceptance magic value."
      },
      "mintBatch(address,uint256[],uint256[],bytes)": {
        "details": "xref:ROOT:erc1155.adoc#batch-operations[Batched] variant of {mint}."
      },
      "name()": {
        "details": "Returns the token collection name."
      },
      "ownerOf(uint256)": {
        "details": "Returns the owner of the `tokenId` token. See IERC721 Requirements: - `tokenId` must exist and belong to a single owner"
      },
      "pause()": {
        "details": "Pauses all token transfers. See {ERC1155Pausable} and {Pausable-_pause}. Requirements: - the caller must have the `PAUSER_ROLE`."
      },
      "paused()": {
        "details": "Returns true if the contract is paused, and false otherwise."
      },
      "renounceRole(bytes32,address)": {
        "details": "Revokes `role` from the calling account. Roles are often managed via {grantRole} and {revokeRole}: this function's purpose is to provide a mechanism for accounts to lose their privileges if they are compromised (such as when a trusted device is misplaced). If the calling account had been revoked `role`, emits a {RoleRevoked} event. Requirements: - the caller must be `account`."
      },
      "revokeRole(bytes32,address)": {
        "details": "Revokes `role` from `account`. If `account` had been granted `role`, emits a {RoleRevoked} event. Requirements: - the caller must have ``role``'s admin role."
      },
      "safeBatchTransferFrom(address,address,uint256[],uint256[],bytes)": {
        "details": "xref:ROOT:erc1155.adoc#batch-operations[Batched] version of {safeTransferFrom}. Emits a {TransferBatch} event. Requirements: - `ids` and `amounts` must have the same length. - If `to` refers to a smart contract, it must implement {IERC1155Receiver-onERC1155BatchReceived} and return the acceptance magic value."
      },
      "safeTransferFrom(address,address,uint256)": {
        "details": "Safely transfers `tokenId` token from `from` to `to`, checking first that contract recipients are aware of the ERC721 protocol to prevent tokens from being forever locked. See IERC721 Requirements: - `from` cannot be the zero address. - `to` cannot be the zero address. - `tokenId` token must exist and be owned by `from`. - If the caller is not `from`, it must be have been allowed to move this token by either {approve} or {setApprovalForAll}. - If `to` refers to a smart contract, it must implement {IERC721Receiver-onERC721Received}, which is called upon a safe transfer. Emits a {Transfer} event."
      },
      "safeTransferFrom(address,address,uint256,bytes)": {
        "details": "Safely transfers `tokenId` token from `from` to `to`. Requirements: - `from` cannot be the zero address. - `to` cannot be the zero address. - `tokenId` token must exist and be owned by `from`. - If the caller is not `from`, it must be approved to move this token by either {approve} or {setApprovalForAll}. - If `to` refers to a smart contract, it must implement {IERC721Receiver-onERC721Received}, which is called upon a safe transfer. Emits a {Transfer} event."
      },
      "safeTransferFrom(address,address,uint256,uint256,bytes)": {
        "details": "Transfers `amount` tokens of token type `id` from `from` to `to`. Emits a {TransferSingle} event. Requirements: - `to` cannot be the zero address. - If the caller is not `from`, it must be have been approved to spend ``from``'s tokens via {setApprovalForAll}. - `from` must have a balance of tokens of type `id` of at least `amount`. - If `to` refers to a smart contract, it must implement {IERC1155Receiver-onERC1155Received} and return the acceptance magic value."
      },
      "setApprovalForAll(address,bool)": {
        "details": "See {IERC1155-setApprovalForAll}."
      },
      "supportsInterface(bytes4)": {
        "details": "See {IERC165-supportsInterface}."
      },
      "symbol()": {
        "details": "Returns the token collection symbol."
      },
      "tokenByIndex(uint256)": {
        "details": "Returns a token ID at a given `index` of all the tokens stored by the contract. Use along with {totalSupply} to enumerate all tokens. See IERC721Enumerable"
      },
      "tokenOfOwnerByIndex(address,uint256)": {
        "details": "Returns a token ID owned by `owner` at a given `index` of its token list. Use along with {balanceOf} to enumerate all of ``owner``'s tokens. See IERC721Enumerable"
      },
      "tokenURI(uint256)": {
        "details": "Returns the Uniform Resource Identifier (URI) for `tokenId` token.  See IERC721Enumerable"
      },
      "totalSupply()": {
        "details": "Returns the total amount of tokens stored by the contract."
      },
      "totalSupply(uint256)": {
        "details": "Total amount of tokens in with a given id."
      },
      "transferFrom(address,address,uint256)": {
        "details": "Transfers `tokenId` token from `from` to `to`. See IERC721 WARNING: Usage of this method is discouraged, use {safeTransferFrom} whenever possible. Requirements: - `from` cannot be the zero address. - `to` cannot be the zero address. - `tokenId` token must be owned by `from`. - If the caller is not `from`, it must be approved to move this token by either {approve} or {setApprovalForAll}. Emits a {Transfer} event."
      },
      "unpause()": {
        "details": "Unpauses all token transfers. See {ERC1155Pausable} and {Pausable-_unpause}. Requirements: - the caller must have the `PAUSER_ROLE`."
      },
      "uri(uint256)": {
        "details": "Returns the URI for token type `id`. If the `\\{id\\}` substring is present in the URI, it must be replaced by clients with the actual token type ID."
      }
    },
    "version": 1
  },
  "userdoc": {
    "kind": "user",
    "methods": {},
    "version": 1
  }
}