{
  "contractName": "FireZardNFT",
  "abi": [
    {
      "inputs": [
        {
          "internalType": "string",
          "name": "_uri",
          "type": "string"
        },
        {
          "internalType": "string",
          "name": "name_",
          "type": "string"
        },
        {
          "internalType": "string",
          "name": "symbol_",
          "type": "string"
        }
      ],
      "stateMutability": "nonpayable",
      "type": "constructor"
    },
    {
      "anonymous": false,
      "inputs": [
        {
          "indexed": true,
          "internalType": "address",
          "name": "owner",
          "type": "address"
        },
        {
          "indexed": true,
          "internalType": "address",
          "name": "approved",
          "type": "address"
        },
        {
          "indexed": true,
          "internalType": "uint256",
          "name": "tokenId",
          "type": "uint256"
        }
      ],
      "name": "Approval",
      "type": "event"
    },
    {
      "anonymous": false,
      "inputs": [
        {
          "indexed": true,
          "internalType": "address",
          "name": "owner",
          "type": "address"
        },
        {
          "indexed": true,
          "internalType": "address",
          "name": "operator",
          "type": "address"
        },
        {
          "indexed": false,
          "internalType": "bool",
          "name": "approved",
          "type": "bool"
        }
      ],
      "name": "ApprovalForAll",
      "type": "event"
    },
    {
      "anonymous": false,
      "inputs": [
        {
          "indexed": false,
          "internalType": "address",
          "name": "account",
          "type": "address"
        }
      ],
      "name": "Paused",
      "type": "event"
    },
    {
      "anonymous": false,
      "inputs": [
        {
          "indexed": true,
          "internalType": "bytes32",
          "name": "role",
          "type": "bytes32"
        },
        {
          "indexed": true,
          "internalType": "bytes32",
          "name": "previousAdminRole",
          "type": "bytes32"
        },
        {
          "indexed": true,
          "internalType": "bytes32",
          "name": "newAdminRole",
          "type": "bytes32"
        }
      ],
      "name": "RoleAdminChanged",
      "type": "event"
    },
    {
      "anonymous": false,
      "inputs": [
        {
          "indexed": true,
          "internalType": "bytes32",
          "name": "role",
          "type": "bytes32"
        },
        {
          "indexed": true,
          "internalType": "address",
          "name": "account",
          "type": "address"
        },
        {
          "indexed": true,
          "internalType": "address",
          "name": "sender",
          "type": "address"
        }
      ],
      "name": "RoleGranted",
      "type": "event"
    },
    {
      "anonymous": false,
      "inputs": [
        {
          "indexed": true,
          "internalType": "bytes32",
          "name": "role",
          "type": "bytes32"
        },
        {
          "indexed": true,
          "internalType": "address",
          "name": "account",
          "type": "address"
        },
        {
          "indexed": true,
          "internalType": "address",
          "name": "sender",
          "type": "address"
        }
      ],
      "name": "RoleRevoked",
      "type": "event"
    },
    {
      "anonymous": false,
      "inputs": [
        {
          "indexed": true,
          "internalType": "address",
          "name": "from",
          "type": "address"
        },
        {
          "indexed": true,
          "internalType": "address",
          "name": "to",
          "type": "address"
        },
        {
          "indexed": true,
          "internalType": "uint256",
          "name": "tokenId",
          "type": "uint256"
        }
      ],
      "name": "Transfer",
      "type": "event"
    },
    {
      "anonymous": false,
      "inputs": [
        {
          "indexed": true,
          "internalType": "address",
          "name": "operator",
          "type": "address"
        },
        {
          "indexed": true,
          "internalType": "address",
          "name": "from",
          "type": "address"
        },
        {
          "indexed": true,
          "internalType": "address",
          "name": "to",
          "type": "address"
        },
        {
          "indexed": false,
          "internalType": "uint256[]",
          "name": "ids",
          "type": "uint256[]"
        },
        {
          "indexed": false,
          "internalType": "uint256[]",
          "name": "values",
          "type": "uint256[]"
        }
      ],
      "name": "TransferBatch",
      "type": "event"
    },
    {
      "anonymous": false,
      "inputs": [
        {
          "indexed": true,
          "internalType": "address",
          "name": "operator",
          "type": "address"
        },
        {
          "indexed": true,
          "internalType": "address",
          "name": "from",
          "type": "address"
        },
        {
          "indexed": true,
          "internalType": "address",
          "name": "to",
          "type": "address"
        },
        {
          "indexed": false,
          "internalType": "uint256",
          "name": "id",
          "type": "uint256"
        },
        {
          "indexed": false,
          "internalType": "uint256",
          "name": "value",
          "type": "uint256"
        }
      ],
      "name": "TransferSingle",
      "type": "event"
    },
    {
      "anonymous": false,
      "inputs": [
        {
          "indexed": false,
          "internalType": "string",
          "name": "value",
          "type": "string"
        },
        {
          "indexed": true,
          "internalType": "uint256",
          "name": "id",
          "type": "uint256"
        }
      ],
      "name": "URI",
      "type": "event"
    },
    {
      "anonymous": false,
      "inputs": [
        {
          "indexed": false,
          "internalType": "address",
          "name": "account",
          "type": "address"
        }
      ],
      "name": "Unpaused",
      "type": "event"
    },
    {
      "inputs": [],
      "name": "DEFAULT_ADMIN_ROLE",
      "outputs": [
        {
          "internalType": "bytes32",
          "name": "",
          "type": "bytes32"
        }
      ],
      "stateMutability": "view",
      "type": "function"
    },
    {
      "inputs": [],
      "name": "MINTER_ROLE",
      "outputs": [
        {
          "internalType": "bytes32",
          "name": "",
          "type": "bytes32"
        }
      ],
      "stateMutability": "view",
      "type": "function"
    },
    {
      "inputs": [],
      "name": "PAUSER_ROLE",
      "outputs": [
        {
          "internalType": "bytes32",
          "name": "",
          "type": "bytes32"
        }
      ],
      "stateMutability": "view",
      "type": "function"
    },
    {
      "inputs": [
        {
          "internalType": "address[]",
          "name": "accounts",
          "type": "address[]"
        },
        {
          "internalType": "uint256[]",
          "name": "ids",
          "type": "uint256[]"
        }
      ],
      "name": "balanceOfBatch",
      "outputs": [
        {
          "internalType": "uint256[]",
          "name": "",
          "type": "uint256[]"
        }
      ],
      "stateMutability": "view",
      "type": "function"
    },
    {
      "inputs": [
        {
          "internalType": "bytes32",
          "name": "role",
          "type": "bytes32"
        }
      ],
      "name": "getRoleAdmin",
      "outputs": [
        {
          "internalType": "bytes32",
          "name": "",
          "type": "bytes32"
        }
      ],
      "stateMutability": "view",
      "type": "function"
    },
    {
      "inputs": [
        {
          "internalType": "bytes32",
          "name": "role",
          "type": "bytes32"
        },
        {
          "internalType": "uint256",
          "name": "index",
          "type": "uint256"
        }
      ],
      "name": "getRoleMember",
      "outputs": [
        {
          "internalType": "address",
          "name": "",
          "type": "address"
        }
      ],
      "stateMutability": "view",
      "type": "function"
    },
    {
      "inputs": [
        {
          "internalType": "bytes32",
          "name": "role",
          "type": "bytes32"
        }
      ],
      "name": "getRoleMemberCount",
      "outputs": [
        {
          "internalType": "uint256",
          "name": "",
          "type": "uint256"
        }
      ],
      "stateMutability": "view",
      "type": "function"
    },
    {
      "inputs": [
        {
          "internalType": "bytes32",
          "name": "role",
          "type": "bytes32"
        },
        {
          "internalType": "address",
          "name": "account",
          "type": "address"
        }
      ],
      "name": "grantRole",
      "outputs": [],
      "stateMutability": "nonpayable",
      "type": "function"
    },
    {
      "inputs": [
        {
          "internalType": "bytes32",
          "name": "role",
          "type": "bytes32"
        },
        {
          "internalType": "address",
          "name": "account",
          "type": "address"
        }
      ],
      "name": "hasRole",
      "outputs": [
        {
          "internalType": "bool",
          "name": "",
          "type": "bool"
        }
      ],
      "stateMutability": "view",
      "type": "function"
    },
    {
      "inputs": [
        {
          "internalType": "address",
          "name": "",
          "type": "address"
        },
        {
          "internalType": "uint256",
          "name": "",
          "type": "uint256"
        }
      ],
      "name": "inventory",
      "outputs": [
        {
          "internalType": "uint256",
          "name": "",
          "type": "uint256"
        }
      ],
      "stateMutability": "view",
      "type": "function"
    },
    {
      "inputs": [
        {
          "internalType": "uint256",
          "name": "",
          "type": "uint256"
        },
        {
          "internalType": "uint256",
          "name": "",
          "type": "uint256"
        }
      ],
      "name": "ownership",
      "outputs": [
        {
          "internalType": "address",
          "name": "",
          "type": "address"
        }
      ],
      "stateMutability": "view",
      "type": "function"
    },
    {
      "inputs": [],
      "name": "pause",
      "outputs": [],
      "stateMutability": "nonpayable",
      "type": "function"
    },
    {
      "inputs": [],
      "name": "paused",
      "outputs": [
        {
          "internalType": "bool",
          "name": "",
          "type": "bool"
        }
      ],
      "stateMutability": "view",
      "type": "function"
    },
    {
      "inputs": [
        {
          "internalType": "bytes32",
          "name": "role",
          "type": "bytes32"
        },
        {
          "internalType": "address",
          "name": "account",
          "type": "address"
        }
      ],
      "name": "renounceRole",
      "outputs": [],
      "stateMutability": "nonpayable",
      "type": "function"
    },
    {
      "inputs": [
        {
          "internalType": "bytes32",
          "name": "role",
          "type": "bytes32"
        },
        {
          "internalType": "address",
          "name": "account",
          "type": "address"
        }
      ],
      "name": "revokeRole",
      "outputs": [],
      "stateMutability": "nonpayable",
      "type": "function"
    },
    {
      "inputs": [
        {
          "internalType": "uint256",
          "name": "",
          "type": "uint256"
        }
      ],
      "name": "tokenIndex",
      "outputs": [
        {
          "internalType": "uint256",
          "name": "",
          "type": "uint256"
        }
      ],
      "stateMutability": "view",
      "type": "function"
    },
    {
      "inputs": [
        {
          "internalType": "uint256",
          "name": "",
          "type": "uint256"
        }
      ],
      "name": "token_type",
      "outputs": [
        {
          "internalType": "bytes32",
          "name": "",
          "type": "bytes32"
        }
      ],
      "stateMutability": "view",
      "type": "function"
    },
    {
      "inputs": [
        {
          "internalType": "uint256",
          "name": "",
          "type": "uint256"
        }
      ],
      "name": "tokens",
      "outputs": [
        {
          "internalType": "uint256",
          "name": "",
          "type": "uint256"
        }
      ],
      "stateMutability": "view",
      "type": "function"
    },
    {
      "inputs": [],
      "name": "unpause",
      "outputs": [],
      "stateMutability": "nonpayable",
      "type": "function"
    },
    {
      "inputs": [
        {
          "internalType": "address",
          "name": "from",
          "type": "address"
        },
        {
          "internalType": "address",
          "name": "to",
          "type": "address"
        },
        {
          "internalType": "uint256",
          "name": "tokenId",
          "type": "uint256"
        }
      ],
      "name": "transferFrom",
      "outputs": [],
      "stateMutability": "nonpayable",
      "type": "function"
    },
    {
      "inputs": [
        {
          "internalType": "address",
          "name": "from",
          "type": "address"
        },
        {
          "internalType": "address",
          "name": "to",
          "type": "address"
        },
        {
          "internalType": "uint256",
          "name": "tokenId",
          "type": "uint256"
        }
      ],
      "name": "safeTransferFrom",
      "outputs": [],
      "stateMutability": "nonpayable",
      "type": "function"
    },
    {
      "inputs": [
        {
          "internalType": "address",
          "name": "from",
          "type": "address"
        },
        {
          "internalType": "address",
          "name": "to",
          "type": "address"
        },
        {
          "internalType": "uint256",
          "name": "tokenId",
          "type": "uint256"
        },
        {
          "internalType": "bytes",
          "name": "data",
          "type": "bytes"
        }
      ],
      "name": "safeTransferFrom",
      "outputs": [],
      "stateMutability": "nonpayable",
      "type": "function"
    },
    {
      "inputs": [
        {
          "internalType": "address",
          "name": "from",
          "type": "address"
        },
        {
          "internalType": "address",
          "name": "to",
          "type": "address"
        },
        {
          "internalType": "uint256",
          "name": "id",
          "type": "uint256"
        },
        {
          "internalType": "uint256",
          "name": "amount",
          "type": "uint256"
        },
        {
          "internalType": "bytes",
          "name": "data",
          "type": "bytes"
        }
      ],
      "name": "safeTransferFrom",
      "outputs": [],
      "stateMutability": "nonpayable",
      "type": "function"
    },
    {
      "inputs": [
        {
          "internalType": "address",
          "name": "from",
          "type": "address"
        },
        {
          "internalType": "address",
          "name": "to",
          "type": "address"
        },
        {
          "internalType": "uint256[]",
          "name": "ids",
          "type": "uint256[]"
        },
        {
          "internalType": "uint256[]",
          "name": "amounts",
          "type": "uint256[]"
        },
        {
          "internalType": "bytes",
          "name": "data",
          "type": "bytes"
        }
      ],
      "name": "safeBatchTransferFrom",
      "outputs": [],
      "stateMutability": "nonpayable",
      "type": "function"
    },
    {
      "inputs": [
        {
          "internalType": "address",
          "name": "to",
          "type": "address"
        },
        {
          "internalType": "uint256",
          "name": "id",
          "type": "uint256"
        },
        {
          "internalType": "uint256",
          "name": "amount",
          "type": "uint256"
        },
        {
          "internalType": "bytes",
          "name": "data",
          "type": "bytes"
        }
      ],
      "name": "mint",
      "outputs": [],
      "stateMutability": "nonpayable",
      "type": "function"
    },
    {
      "inputs": [
        {
          "internalType": "address",
          "name": "to",
          "type": "address"
        },
        {
          "internalType": "uint256[]",
          "name": "ids",
          "type": "uint256[]"
        },
        {
          "internalType": "uint256[]",
          "name": "amounts",
          "type": "uint256[]"
        },
        {
          "internalType": "bytes",
          "name": "data",
          "type": "bytes"
        }
      ],
      "name": "mintBatch",
      "outputs": [],
      "stateMutability": "nonpayable",
      "type": "function"
    },
    {
      "inputs": [
        {
          "internalType": "address",
          "name": "from",
          "type": "address"
        },
        {
          "internalType": "uint256",
          "name": "id",
          "type": "uint256"
        },
        {
          "internalType": "uint256",
          "name": "amount",
          "type": "uint256"
        }
      ],
      "name": "burn",
      "outputs": [],
      "stateMutability": "nonpayable",
      "type": "function"
    },
    {
      "inputs": [
        {
          "internalType": "address",
          "name": "from",
          "type": "address"
        },
        {
          "internalType": "uint256[]",
          "name": "ids",
          "type": "uint256[]"
        },
        {
          "internalType": "uint256[]",
          "name": "amounts",
          "type": "uint256[]"
        }
      ],
      "name": "burnBatch",
      "outputs": [],
      "stateMutability": "nonpayable",
      "type": "function"
    },
    {
      "inputs": [
        {
          "internalType": "uint256",
          "name": "id",
          "type": "uint256"
        }
      ],
      "name": "typeOf",
      "outputs": [
        {
          "internalType": "bytes32",
          "name": "",
          "type": "bytes32"
        }
      ],
      "stateMutability": "view",
      "type": "function"
    },
    {
      "inputs": [
        {
          "internalType": "uint256",
          "name": "id",
          "type": "uint256"
        }
      ],
      "name": "ownersOf",
      "outputs": [
        {
          "internalType": "address[]",
          "name": "",
          "type": "address[]"
        }
      ],
      "stateMutability": "view",
      "type": "function"
    },
    {
      "inputs": [
        {
          "internalType": "address",
          "name": "account",
          "type": "address"
        },
        {
          "internalType": "uint256",
          "name": "id",
          "type": "uint256"
        }
      ],
      "name": "balanceOf",
      "outputs": [
        {
          "internalType": "uint256",
          "name": "",
          "type": "uint256"
        }
      ],
      "stateMutability": "view",
      "type": "function"
    },
    {
      "inputs": [
        {
          "internalType": "address",
          "name": "owner",
          "type": "address"
        }
      ],
      "name": "balanceOf",
      "outputs": [
        {
          "internalType": "uint256",
          "name": "balance",
          "type": "uint256"
        }
      ],
      "stateMutability": "view",
      "type": "function"
    },
    {
      "inputs": [
        {
          "internalType": "uint256",
          "name": "tokenId",
          "type": "uint256"
        }
      ],
      "name": "ownerOf",
      "outputs": [
        {
          "internalType": "address",
          "name": "owner",
          "type": "address"
        }
      ],
      "stateMutability": "view",
      "type": "function"
    },
    {
      "inputs": [
        {
          "internalType": "address",
          "name": "to",
          "type": "address"
        },
        {
          "internalType": "uint256",
          "name": "tokenId",
          "type": "uint256"
        }
      ],
      "name": "approve",
      "outputs": [],
      "stateMutability": "nonpayable",
      "type": "function"
    },
    {
      "inputs": [
        {
          "internalType": "uint256",
          "name": "tokenId",
          "type": "uint256"
        }
      ],
      "name": "getApproved",
      "outputs": [
        {
          "internalType": "address",
          "name": "operator",
          "type": "address"
        }
      ],
      "stateMutability": "view",
      "type": "function"
    },
    {
      "inputs": [
        {
          "internalType": "uint256",
          "name": "id",
          "type": "uint256"
        }
      ],
      "name": "exists",
      "outputs": [
        {
          "internalType": "bool",
          "name": "",
          "type": "bool"
        }
      ],
      "stateMutability": "view",
      "type": "function"
    },
    {
      "inputs": [],
      "name": "totalSupply",
      "outputs": [
        {
          "internalType": "uint256",
          "name": "",
          "type": "uint256"
        }
      ],
      "stateMutability": "view",
      "type": "function"
    },
    {
      "inputs": [
        {
          "internalType": "uint256",
          "name": "id",
          "type": "uint256"
        }
      ],
      "name": "totalSupply",
      "outputs": [
        {
          "internalType": "uint256",
          "name": "",
          "type": "uint256"
        }
      ],
      "stateMutability": "view",
      "type": "function"
    },
    {
      "inputs": [
        {
          "internalType": "address",
          "name": "owner",
          "type": "address"
        },
        {
          "internalType": "uint256",
          "name": "index",
          "type": "uint256"
        }
      ],
      "name": "tokenOfOwnerByIndex",
      "outputs": [
        {
          "internalType": "uint256",
          "name": "tokenId",
          "type": "uint256"
        }
      ],
      "stateMutability": "view",
      "type": "function"
    },
    {
      "inputs": [
        {
          "internalType": "uint256",
          "name": "index",
          "type": "uint256"
        }
      ],
      "name": "tokenByIndex",
      "outputs": [
        {
          "internalType": "uint256",
          "name": "",
          "type": "uint256"
        }
      ],
      "stateMutability": "view",
      "type": "function"
    },
    {
      "inputs": [
        {
          "internalType": "uint256",
          "name": "tokenId",
          "type": "uint256"
        }
      ],
      "name": "tokenURI",
      "outputs": [
        {
          "internalType": "string",
          "name": "",
          "type": "string"
        }
      ],
      "stateMutability": "view",
      "type": "function"
    },
    {
      "inputs": [
        {
          "internalType": "uint256",
          "name": "id",
          "type": "uint256"
        }
      ],
      "name": "uri",
      "outputs": [
        {
          "internalType": "string",
          "name": "",
          "type": "string"
        }
      ],
      "stateMutability": "view",
      "type": "function"
    },
    {
      "inputs": [
        {
          "internalType": "string",
          "name": "token_uri",
          "type": "string"
        }
      ],
      "name": "setURI",
      "outputs": [],
      "stateMutability": "nonpayable",
      "type": "function"
    },
    {
      "inputs": [
        {
          "internalType": "string",
          "name": "token_uri",
          "type": "string"
        },
        {
          "internalType": "uint256",
          "name": "token_id",
          "type": "uint256"
        }
      ],
      "name": "setURI",
      "outputs": [],
      "stateMutability": "nonpayable",
      "type": "function"
    },
    {
      "inputs": [
        {
          "internalType": "address",
          "name": "account",
          "type": "address"
        },
        {
          "internalType": "address",
          "name": "operator",
          "type": "address"
        }
      ],
      "name": "isApprovedForAll",
      "outputs": [
        {
          "internalType": "bool",
          "name": "",
          "type": "bool"
        }
      ],
      "stateMutability": "view",
      "type": "function"
    },
    {
      "inputs": [
        {
          "internalType": "address",
          "name": "operator",
          "type": "address"
        },
        {
          "internalType": "bool",
          "name": "approved",
          "type": "bool"
        }
      ],
      "name": "setApprovalForAll",
      "outputs": [],
      "stateMutability": "nonpayable",
      "type": "function"
    },
    {
      "inputs": [],
      "name": "name",
      "outputs": [
        {
          "internalType": "string",
          "name": "",
          "type": "string"
        }
      ],
      "stateMutability": "view",
      "type": "function"
    },
    {
      "inputs": [],
      "name": "symbol",
      "outputs": [
        {
          "internalType": "string",
          "name": "",
          "type": "string"
        }
      ],
      "stateMutability": "view",
      "type": "function"
    },
    {
      "inputs": [
        {
          "internalType": "bytes4",
          "name": "interfaceId",
          "type": "bytes4"
        }
      ],
      "name": "supportsInterface",
      "outputs": [
        {
          "internalType": "bool",
          "name": "",
          "type": "bool"
        }
      ],
      "stateMutability": "view",
      "type": "function"
    }
  ],
  "bytecode": "0x60806040523480156200001157600080fd5b5060405162004ca038038062004ca08339810160408190526200003491620003ce565b82806200004181620000e7565b506005805460ff191690556200005960003362000100565b620000857f9f2df0fed2c77648de5860a4cc508cd0818c85b8b8a1ab4ceeef8d981c8956a63362000100565b620000b17f65d7a28e3265b37a6474929f336521b332c1681b933f6cb9f3376673440d862a3362000100565b508151620000c79060079060208501906200025b565b508051620000dd9060089060208401906200025b565b505050506200049c565b8051620000fc9060049060208401906200025b565b5050565b620000fc82826200011d82826200014960201b620016281760201c565b600082815260016020908152604090912062000144918390620016ac620001e9821b17901c565b505050565b6000828152602081815260408083206001600160a01b038516845290915290205460ff16620000fc576000828152602081815260408083206001600160a01b03851684529091529020805460ff19166001179055620001a53390565b6001600160a01b0316816001600160a01b0316837f2f8788117e7eff1d82e926ec794901d17c78024a50270940304540a733656f0d60405160405180910390a45050565b600062000200836001600160a01b03841662000209565b90505b92915050565b6000818152600183016020526040812054620002525750815460018181018455600084815260208082209093018490558454848252828601909352604090209190915562000203565b50600062000203565b82805462000269906200045f565b90600052602060002090601f0160209004810192826200028d5760008555620002d8565b82601f10620002a857805160ff1916838001178555620002d8565b82800160010185558215620002d8579182015b82811115620002d8578251825591602001919060010190620002bb565b50620002e6929150620002ea565b5090565b5b80821115620002e65760008155600101620002eb565b634e487b7160e01b600052604160045260246000fd5b600082601f8301126200032957600080fd5b81516001600160401b038082111562000346576200034662000301565b604051601f8301601f19908116603f0116810190828211818310171562000371576200037162000301565b816040528381526020925086838588010111156200038e57600080fd5b600091505b83821015620003b2578582018301518183018401529082019062000393565b83821115620003c45760008385830101525b9695505050505050565b600080600060608486031215620003e457600080fd5b83516001600160401b0380821115620003fc57600080fd5b6200040a8783880162000317565b945060208601519150808211156200042157600080fd5b6200042f8783880162000317565b935060408601519150808211156200044657600080fd5b50620004558682870162000317565b9150509250925092565b600181811c908216806200047457607f821691505b602082108114156200049657634e487b7160e01b600052602260045260246000fd5b50919050565b6147f480620004ac6000396000f3fe608060405234801561001057600080fd5b50600436106102ba5760003560e01c806367db3b8f11610182578063af005da8116100e9578063ca15c873116100a2578063e63ab1e91161007c578063e63ab1e9146106d0578063e985e9c5146106f7578063f242432a1461070a578063f5298aca1461071d57600080fd5b8063ca15c87314610683578063d539139314610696578063d547741f146106bd57600080fd5b8063af005da8146105ea578063b88d4fde1461060a578063ba26ed301461061d578063bd85b03914610630578063c588ff8b14610650578063c87b56dd1461067057600080fd5b80639010d07c1161013b5780639010d07c1461058157806391d148541461059457806395d89b41146105a7578063a217fddf146105af578063a22cb465146105b7578063a584ab29146105ca57600080fd5b806367db3b8f1461050457806368f222fd146105175780636b20c4541461052a57806370a082311461053d578063731133e9146105665780638456cb591461057957600080fd5b80632eb2c2d6116102265780634e1273f4116101df5780634e1273f41461047e5780634f558e791461049e5780634f64b2be146104c05780634f6ccce7146104d35780635c975abb146104e65780636352211e146104f157600080fd5b80632eb2c2d6146103f45780632f2ff15d146104075780632f745c591461041a57806336568abe146104505780633f4ba83a1461046357806342842e0e1461046b57600080fd5b8063095ea7b311610278578063095ea7b31461037d5780630e89341c1461039057806318160ddd146103a35780631f7fdffa146103ab57806323b872dd146103be578063248a9ca3146103d157600080fd5b8062fdd58e146102bf57806301ffc9a7146102e557806302fe5305146103085780630583e9f81461031d57806306fdde031461033d578063081812fc14610352575b600080fd5b6102d26102cd36600461398a565b610730565b6040519081526020015b60405180910390f35b6102f86102f33660046139cd565b6107cc565b60405190151581526020016102dc565b61031b610316366004613a9f565b6107d7565b005b6102d261032b366004613adb565b600a6020526000908152604090205481565b610345610863565b6040516102dc9190613b4c565b610365610360366004613adb565b6108f5565b6040516001600160a01b0390911681526020016102dc565b61031b61038b36600461398a565b61092c565b61034561039e366004613adb565b610ac0565b6009546102d2565b61031b6103b9366004613bf3565b610b83565b61031b6103cc366004613c8b565b610cc3565b6102d26103df366004613adb565b60009081526020819052604090206001015490565b61031b610402366004613d53565b610ce7565b61031b610415366004613e0d565b610d97565b6102d261042836600461398a565b6001600160a01b03919091166000908152600f60209081526040808320938352929052205490565b61031b61045e366004613e0d565b610dbd565b61031b610e3b565b61031b610479366004613c8b565b610ee1565b61049161048c366004613e39565b610eff565b6040516102dc9190613f3e565b6102f86104ac366004613adb565b600090815260066020526040902054151590565b6102d26104ce366004613adb565b611028565b6102d26104e1366004613adb565b611049565b60055460ff166102f8565b6103656104ff366004613adb565b611070565b61031b610512366004613f51565b6110c5565b6102d261052536600461398a565b611168565b61031b610538366004613f95565b611199565b6102d261054b366004614008565b6001600160a01b03166000908152600e602052604090205490565b61031b610574366004614023565b61131e565b61031b61134c565b61036561058f366004614077565b6113f0565b6102f86105a2366004613e0d565b611408565b610345611431565b6102d2600081565b61031b6105c5366004614099565b611440565b6105dd6105d8366004613adb565b61144a565b6040516102dc91906140d5565b6102d26105f8366004613adb565b600d6020526000908152604090205481565b61031b610618366004614122565b6114b6565b61036561062b366004614077565b6114fd565b6102d261063e366004613adb565b60009081526006602052604090205490565b6102d261065e366004613adb565b6000908152600d602052604090205490565b61034561067e366004613adb565b611535565b6102d2610691366004613adb565b611540565b6102d27f9f2df0fed2c77648de5860a4cc508cd0818c85b8b8a1ab4ceeef8d981c8956a681565b61031b6106cb366004613e0d565b611557565b6102d27f65d7a28e3265b37a6474929f336521b332c1681b933f6cb9f3376673440d862a81565b6102f8610705366004614190565b61157d565b61031b6107183660046141ba565b6115ad565b61031b61072b366004614231565b611603565b60006001600160a01b0383166107a15760405162461bcd60e51b815260206004820152602b60248201527f455243313135353a2062616c616e636520717565727920666f7220746865207a60448201526a65726f206164647265737360a81b60648201526084015b60405180910390fd5b5060008181526002602090815260408083206001600160a01b03861684529091529020545b92915050565b60006107c6826116c1565b6107e2600033611408565b61081e5760405162461bcd60e51b815260206004820152600d60248201526c26bab9ba1031329030b236b4b760991b6044820152606401610798565b610827816116cc565b60007f6bb7ff708619ba0610cba295a58592e0451dee2622938c8755667688daf3529b826040516108589190613b4c565b60405180910390a250565b60606007805461087290614264565b80601f016020809104026020016040519081016040528092919081815260200182805461089e90614264565b80156108eb5780601f106108c0576101008083540402835291602001916108eb565b820191906000526020600020905b8154815290600101906020018083116108ce57829003601f168201915b5050505050905090565b6000818152600b602052604081205460011461091057600080fd5b506000908152601160205260409020546001600160a01b031690565b60006109383383610730565b1115610989576000818152601060209081526040808320338452825280832080546001600160a01b0387166001600160a01b0319918216811790925585855260119093529220805490911690911790555b60005b6000828152600b6020526040902054811015610a5b576000828152600b602052604081208054839081106109c2576109c2614299565b60009182526020808320909101548583526010825260408084206001600160a01b0392831680865293529092205490925016331415610a485760008381526010602090815260408083206001600160a01b03808616855290835281842080549189166001600160a01b031992831681179091558785526011909352922080549092161790555b5080610a53816142c5565b91505061098c565b5060405162461bcd60e51b815260206004820152603360248201527f5468652063616c6c6572206d757374206f776e206f7220626520617070726f766044820152721959081d1bc81cdc195b99081d1bdad95b9259606a1b6064820152608401610798565b600081815260126020526040812080546060929190610ade90614264565b80601f0160208091040260200160405190810160405280929190818152602001828054610b0a90614264565b8015610b575780601f10610b2c57610100808354040283529160200191610b57565b820191906000526020600020905b815481529060010190602001808311610b3a57829003601f168201915b505050505090508051600014610b6d5792915050565b610b76836116df565b9392505050565b50919050565b6000610b8f8486611769565b9050610b9a816118d5565b835160011415610c3357610be48585600081518110610bbb57610bbb614299565b602002602001015185600081518110610bd657610bd6614299565b6020026020010151856119af565b83600081518110610bf757610bf7614299565b6020026020010151856001600160a01b031660006001600160a01b031660008051602061479f83398151915260405160405180910390a4610ca8565b610c3f85858585611a01565b60005b8451811015610ca657848181518110610c5d57610c5d614299565b6020026020010151866001600160a01b031660006001600160a01b031660008051602061479f83398151915260405160405180910390a480610c9e816142c5565b915050610c42565b505b610cb28186611a53565b610cbc8186611b4f565b5050505050565b610ce28383836040518060200160405280600081525060006001611c18565b505050565b610d8d888888888080602002602001604051908101604052809392919081815260200183836020028082843760009201919091525050604080516020808c0282810182019093528b82529093508b92508a91829185019084908082843760009201919091525050604080516020601f8b0181900481028201810190925289815292508991508890819084018382808284376000920182905250600193509150611c729050565b5050505050505050565b600082815260208190526040902060010154610db38133611fa2565b610ce28383612006565b6001600160a01b0381163314610e2d5760405162461bcd60e51b815260206004820152602f60248201527f416363657373436f6e74726f6c3a2063616e206f6e6c792072656e6f756e636560448201526e103937b632b9903337b91039b2b63360891b6064820152608401610798565b610e378282612028565b5050565b610e657f65d7a28e3265b37a6474929f336521b332c1681b933f6cb9f3376673440d862a33611408565b610ed75760405162461bcd60e51b815260206004820152603b60248201527f455243313135355072657365744d696e7465725061757365723a206d7573742060448201527f686176652070617573657220726f6c6520746f20756e706175736500000000006064820152608401610798565b610edf61204a565b565b610ce283838360405180602001604052806000815250600180611c18565b60608151835114610f645760405162461bcd60e51b815260206004820152602960248201527f455243313135353a206163636f756e747320616e6420696473206c656e677468604482015268040dad2e6dac2e8c6d60bb1b6064820152608401610798565b600083516001600160401b03811115610f7f57610f7f6139ea565b604051908082528060200260200182016040528015610fa8578160200160208202803683370190505b50905060005b845181101561102057610ff3858281518110610fcc57610fcc614299565b6020026020010151858381518110610fe657610fe6614299565b6020026020010151610730565b82828151811061100557611005614299565b6020908102919091010152611019816142c5565b9050610fae565b509392505050565b6009818154811061103857600080fd5b600091825260209091200154905081565b60006009828154811061105e5761105e614299565b90600052602060002001549050919050565b6000818152600b602052604081205460011461108b57600080fd5b6000828152600b6020526040812080549091906110aa576110aa614299565b6000918252602090912001546001600160a01b031692915050565b6110d0600033611408565b61110c5760405162461bcd60e51b815260206004820152600d60248201526c26bab9ba1031329030b236b4b760991b6044820152606401610798565b6000818152601260209081526040909120835161112b928501906138d5565b50807f6bb7ff708619ba0610cba295a58592e0451dee2622938c8755667688daf3529b8360405161115c9190613b4c565b60405180910390a25050565b600e602052816000526040600020818154811061118457600080fd5b90600052602060002001600091509150505481565b6001600160a01b0383163314806111b557506111b5833361157d565b806111c557506111c582846120dd565b6111e15760405162461bcd60e51b8152600401610798906142e0565b8151600114156112795761122a838360008151811061120257611202614299565b60200260200101518360008151811061121d5761121d614299565b6020026020010151612166565b8160008151811061123d5761123d614299565b602002602001015160006001600160a01b0316846001600160a01b031660008051602061479f83398151915260405160405180910390a46112ed565b61128483838361226b565b60005b82518110156112eb578281815181106112a2576112a2614299565b602002602001015160006001600160a01b0316856001600160a01b031660008051602061479f83398151915260405160405180910390a4806112e3816142c5565b915050611287565b505b60006112f98385611769565b905061130581856123fc565b61130f818561269b565b6113188161287c565b50505050565b6000611329846129c4565b90506000611336846129c4565b905061134486838386610b83565b505050505050565b6113767f65d7a28e3265b37a6474929f336521b332c1681b933f6cb9f3376673440d862a33611408565b6113e85760405162461bcd60e51b815260206004820152603960248201527f455243313135355072657365744d696e7465725061757365723a206d7573742060448201527f686176652070617573657220726f6c6520746f207061757365000000000000006064820152608401610798565b610edf612a0f565b6000828152600160205260408120610b769083612a8a565b6000918252602082815260408084206001600160a01b0393909316845291905290205460ff1690565b60606008805461087290614264565b610e378282612a96565b6000818152600b60209081526040918290208054835181840281018401909452808452606093928301828280156114aa57602002820191906000526020600020905b81546001600160a01b0316815260019091019060200180831161148c575b50505050509050919050565b610cbc85858585858080601f01602080910402602001604051908101604052809392919081815260200183838082843760009201919091525060019250829150611c189050565b600b602052816000526040600020818154811061151957600080fd5b6000918252602090912001546001600160a01b03169150829050565b60606107c682610ac0565b60008181526001602052604081206107c690612aa1565b6000828152602081905260409020600101546115738133611fa2565b610ce28383612028565b6001600160a01b03808316600090815260036020908152604080832093851683529290529081205460ff16610b76565b61134486866115bb876129c4565b6115c4876129c4565b86868080601f0160208091040260200160405190810160405280939291908181526020018383808284376000920182905250600193509150611c729050565b600061160e836129c4565b9050600061161b836129c4565b9050610cbc858383611199565b6116328282611408565b610e37576000828152602081815260408083206001600160a01b03851684529091529020805460ff191660011790556116683390565b6001600160a01b0316816001600160a01b0316837f2f8788117e7eff1d82e926ec794901d17c78024a50270940304540a733656f0d60405160405180910390a45050565b6000610b76836001600160a01b038416612aab565b60006107c682612afa565b8051610e379060049060208401906138d5565b6060600480546116ee90614264565b80601f016020809104026020016040519081016040528092919081815260200182805461171a90614264565b80156114aa5780601f1061173c576101008083540402835291602001916114aa565b820191906000526020600020905b81548152906001019060200180831161174a5750939695505050505050565b6060600083516001600160401b03811115611786576117866139ea565b6040519080825280602002602001820160405280156117af578160200160208202803683370190505b5090506000805b8551811015611830576117d585878381518110610fe657610fe6614299565b61181e578581815181106117eb576117eb614299565b60200260200101518383806117ff906142c5565b94508151811061181157611811614299565b6020026020010181815250505b80611828816142c5565b9150506117b6565b506000816001600160401b0381111561184b5761184b6139ea565b604051908082528060200260200182016040528015611874578160200160208202803683370190505b50905060005b828110156118cb5783818151811061189457611894614299565b60200260200101518282815181106118ae576118ae614299565b6020908102919091010152806118c3816142c5565b91505061187a565b5095945050505050565b60005b8151811015610e375761192f60098383815181106118f8576118f8614299565b60200260200101518154811061191057611910614299565b9060005260206000200154600090815260066020526040902054151590565b61199d57600980549050600a600084848151811061194f5761194f614299565b6020026020010151815260200190815260200160002081905550600982828151811061197d5761197d614299565b602090810291909101810151825460018101845560009384529190922001555b806119a7816142c5565b9150506118d8565b6119d97f9f2df0fed2c77648de5860a4cc508cd0818c85b8b8a1ab4ceeef8d981c8956a633611408565b6119f55760405162461bcd60e51b815260040161079890614329565b61131884848484612b3a565b611a2b7f9f2df0fed2c77648de5860a4cc508cd0818c85b8b8a1ab4ceeef8d981c8956a633611408565b611a475760405162461bcd60e51b815260040161079890614329565b61131884848484612c12565b60005b8251811015610ce257600b6000848381518110611a7557611a75614299565b6020026020010151815260200190815260200160002080549050600c6000846001600160a01b03166001600160a01b031681526020019081526020016000206000858481518110611ac857611ac8614299565b6020026020010151815260200190815260200160002081905550600b6000848381518110611af857611af8614299565b602090810291909101810151825281810192909252604001600090812080546001810182559082529190200180546001600160a01b0319166001600160a01b03841617905580611b47816142c5565b915050611a56565b60005b8251811015610ce2576001600160a01b0382166000908152600e6020908152604080832054600f9092528220855191929091869085908110611b9657611b96614299565b6020026020010151815260200190815260200160002081905550600e6000836001600160a01b03166001600160a01b03168152602001908152602001600020838281518110611be757611be7614299565b6020908102919091018101518254600181018455600093845291909220015580611c10816142c5565b915050611b52565b8015611c31576001600160a01b038616611c3157600080fd5b6001600160a01b038516611c4457600080fd5b6000611c4f856129c4565b90506000611c65611c608988610730565b6129c4565b9050610d8d888884848989895b8351855114611c935760405162461bcd60e51b815260040161079890614386565b6001600160a01b038616611cf75760405162461bcd60e51b815260206004820152602560248201527f455243313135353a207472616e7366657220746f20746865207a65726f206164604482015264647265737360d81b6064820152608401610798565b336001600160a01b038816811480611d145750611d14888261157d565b80611d245750611d2486896120dd565b611d405760405162461bcd60e51b8152600401610798906142e0565b611d4e818989898989612d6d565b6000611d5a8789611769565b9050611d698989898989612e2f565b6000611d75888b611769565b9050611d81828a611a53565b611d8b828a611b4f565b611d95818b6123fc565b611d9f818b61269b565b600188511115611e6c57886001600160a01b03168a6001600160a01b0316846001600160a01b03167f4a39dc06d4c0dbc64b70af90fd698a233a518aa5d07e595d983b8c0526c8f7fb8b8b604051611df89291906143ce565b60405180910390a460005b8851811015611e6657888181518110611e1e57611e1e614299565b60200260200101518a6001600160a01b03168c6001600160a01b031660008051602061479f83398151915260405160405180910390a480611e5e816142c5565b915050611e03565b50611f4a565b886001600160a01b03168a6001600160a01b0316846001600160a01b03167fc3d58168c5ae7397731d063d5bbf3d657854427343f4c083240f7aacaa2d0f628b600081518110611ebe57611ebe614299565b60200260200101518b600081518110611ed957611ed9614299565b6020026020010151604051611ef8929190918252602082015260400190565b60405180910390a487600081518110611f1357611f13614299565b6020026020010151896001600160a01b03168b6001600160a01b031660008051602061479f83398151915260405160405180910390a45b84611f5757505050611f99565b83611f6f57611f6a838b8b8b8b8b612f5b565b611f95565b611f958a8a8a600081518110611f8757611f87614299565b6020026020010151896130b7565b5050505b50505050505050565b611fac8282611408565b610e3757611fc4816001600160a01b031660146131f6565b611fcf8360206131f6565b604051602001611fe09291906143fc565b60408051601f198184030181529082905262461bcd60e51b825261079891600401613b4c565b6120108282611628565b6000828152600160205260409020610ce290826116ac565b6120328282613391565b6000828152600160205260409020610ce290826133f6565b60055460ff166120935760405162461bcd60e51b815260206004820152601460248201527314185d5cd8589b194e881b9bdd081c185d5cd95960621b6044820152606401610798565b6005805460ff191690557f5db9ee0a495bf2e6ff9c91a7834c1ba4fdd244a5e8aa4e537bd38aeae4b073aa335b6040516001600160a01b03909116815260200160405180910390a1565b6000805b835181101561215c57336001600160a01b03166010600086848151811061210a5761210a614299565b602090810291909101810151825281810192909252604090810160009081206001600160a01b03808916835293522054161461214a5760009150506107c6565b80612154816142c5565b9150506120e1565b5060019392505050565b6001600160a01b03831661218c5760405162461bcd60e51b815260040161079890614471565b336121bb8185600061219d876129c4565b6121a6876129c4565b60405180602001604052806000815250612d6d565b60008381526002602090815260408083206001600160a01b0388168452909152902054828110156121fe5760405162461bcd60e51b8152600401610798906144b4565b60008481526002602090815260408083206001600160a01b03898116808652918452828520888703905582518981529384018890529092908616917fc3d58168c5ae7397731d063d5bbf3d657854427343f4c083240f7aacaa2d0f62910160405180910390a45050505050565b6001600160a01b0383166122915760405162461bcd60e51b815260040161079890614471565b80518251146122b25760405162461bcd60e51b815260040161079890614386565b60003390506122d581856000868660405180602001604052806000815250612d6d565b60005b835181101561239d5760008482815181106122f5576122f5614299565b60200260200101519050600084838151811061231357612313614299565b60209081029190910181015160008481526002835260408082206001600160a01b038c1683529093529190912054909150818110156123645760405162461bcd60e51b8152600401610798906144b4565b60009283526002602090815260408085206001600160a01b038b1686529091529092209103905580612395816142c5565b9150506122d8565b5060006001600160a01b0316846001600160a01b0316826001600160a01b03167f4a39dc06d4c0dbc64b70af90fd698a233a518aa5d07e595d983b8c0526c8f7fb86866040516123ee9291906143ce565b60405180910390a450505050565b60005b8251811015610ce2576001600160a01b0382166000908152600c602052604081208451829086908590811061243657612436614299565b60200260200101518152602001908152602001600020549050600b600085848151811061246557612465614299565b602002602001015181526020019081526020016000206001600b600087868151811061249357612493614299565b60200260200101518152602001908152602001600020805490506124b791906144f8565b815481106124c7576124c7614299565b600091825260208220015485516001600160a01b0390911691600b918790869081106124f5576124f5614299565b60200260200101518152602001908152602001600020828154811061251c5761251c614299565b9060005260206000200160006101000a8154816001600160a01b0302191690836001600160a01b0316021790555080600c6000600b600088878151811061256557612565614299565b60200260200101518152602001908152602001600020848154811061258c5761258c614299565b60009182526020808320909101546001600160a01b03168352820192909252604001812086519091908790869081106125c7576125c7614299565b6020026020010151815260200190815260200160002081905550600b60008584815181106125f7576125f7614299565b6020026020010151815260200190815260200160002080548061261c5761261c61450f565b60008281526020808220830160001990810180546001600160a01b03191690559092019092556001600160a01b0385168252600c905260408120855190919086908590811061266d5761266d614299565b6020026020010151815260200190815260200160002060009055508080612693906142c5565b9150506123ff565b60005b8251811015610ce2576001600160a01b0382166000908152600f60205260408120845182908690859081106126d5576126d5614299565b60209081029190910181015182528181019290925260409081016000908120546001600160a01b0387168252600e90935220805491925090612719906001906144f8565b8154811061272957612729614299565b9060005260206000200154600e6000856001600160a01b03166001600160a01b03168152602001908152602001600020828154811061276a5761276a614299565b60009182526020808320909101929092556001600160a01b0385168152600f82526040808220600e909352812080548493929190849081106127ae576127ae614299565b9060005260206000200154815260200190815260200160002081905550600f6000846001600160a01b03166001600160a01b03168152602001908152602001600020600085848151811061280457612804614299565b6020026020010151815260200190815260200160002060009055600e6000846001600160a01b03166001600160a01b031681526020019081526020016000208054806128525761285261450f565b60019003818190600052602060002001600090559055508080612874906142c5565b91505061269e565b60005b8151811015610e375761289f60098383815181106118f8576118f8614299565b6129b2576000600a60008484815181106128bb576128bb614299565b60200260200101518152602001908152602001600020549050600960016009805490506128e891906144f8565b815481106128f8576128f8614299565b90600052602060002001546009828154811061291657612916614299565b906000526020600020018190555080600a60006009848154811061293c5761293c614299565b9060005260206000200154815260200190815260200160002081905550600980548061296a5761296a61450f565b60019003818190600052602060002001600090559055600a600084848151811061299657612996614299565b6020026020010151815260200190815260200160002060009055505b806129bc816142c5565b91505061287f565b604080516001808252818301909252606091600091906020808301908036833701905050905082816000815181106129fe576129fe614299565b602090810291909101015292915050565b60055460ff1615612a555760405162461bcd60e51b815260206004820152601060248201526f14185d5cd8589b194e881c185d5cd95960821b6044820152606401610798565b6005805460ff191660011790557f62e78cea01bee320cd4e420270b5ea74000d11b0c9f74754ebdbfc544b05a2586120c03390565b6000610b76838361340b565b610e37338383613435565b60006107c6825490565b6000818152600183016020526040812054612af2575081546001818101845560008481526020808220909301849055845484825282860190935260409020919091556107c6565b5060006107c6565b60006001600160e01b03198216636cdb3d1360e11b1480612b2b57506001600160e01b031982166303a24d0760e21b145b806107c657506107c682613494565b6001600160a01b038416612b605760405162461bcd60e51b815260040161079890614525565b33612b8081600087612b71886129c4565b612b7a886129c4565b87612d6d565b60008481526002602090815260408083206001600160a01b038916845290915281208054859290612bb2908490614566565b909155505060408051858152602081018590526001600160a01b0380881692600092918516917fc3d58168c5ae7397731d063d5bbf3d657854427343f4c083240f7aacaa2d0f62910160405180910390a4610cbc816000878787876134b9565b6001600160a01b038416612c385760405162461bcd60e51b815260040161079890614525565b8151835114612c595760405162461bcd60e51b815260040161079890614386565b33612c6981600087878787612d6d565b60005b8451811015612d0557838181518110612c8757612c87614299565b602002602001015160026000878481518110612ca557612ca5614299565b602002602001015181526020019081526020016000206000886001600160a01b03166001600160a01b031681526020019081526020016000206000828254612ced9190614566565b90915550819050612cfd816142c5565b915050612c6c565b50846001600160a01b031660006001600160a01b0316826001600160a01b03167f4a39dc06d4c0dbc64b70af90fd698a233a518aa5d07e595d983b8c0526c8f7fb8787604051612d569291906143ce565b60405180910390a4610cbc81600087878787612f5b565b6001600160a01b038516612e21576000805b6020811015612dcd57612d9381600861457e565b838281518110612da557612da5614299565b01602001516001600160f81b031916901c919091179080612dc5816142c5565b915050612d7f565b5060005b8451811015612e1e5781600d6000878481518110612df157612df1614299565b60200260200101518152602001908152602001600020819055508080612e16906142c5565b915050612dd1565b50505b611344868686868686613574565b60005b8351811015611344576000848281518110612e4f57612e4f614299565b602002602001015190506000848381518110612e6d57612e6d614299565b60209081029190910181015160008481526002835260408082206001600160a01b038d168352909352919091205490915081811015612f015760405162461bcd60e51b815260206004820152602a60248201527f455243313135353a20696e73756666696369656e742062616c616e636520666f60448201526939103a3930b739b332b960b11b6064820152608401610798565b60008381526002602090815260408083206001600160a01b038d8116855292528083208585039055908a16825281208054849290612f40908490614566565b9250508190555050505080612f54906142c5565b9050612e32565b6001600160a01b0384163b156113445760405163bc197c8160e01b81526001600160a01b0385169063bc197c8190612f9f908990899088908890889060040161459d565b6020604051808303816000875af1925050508015612fda575060408051601f3d908101601f19168201909252612fd7918101906145fb565b60015b61308757612fe6614618565b806308c379a014156130205750612ffb614634565b806130065750613022565b8060405162461bcd60e51b81526004016107989190613b4c565b505b60405162461bcd60e51b815260206004820152603460248201527f455243313135353a207472616e7366657220746f206e6f6e20455243313135356044820152732932b1b2b4bb32b91034b6b83632b6b2b73a32b960611b6064820152608401610798565b6001600160e01b0319811663bc197c8160e01b14611f995760405162461bcd60e51b8152600401610798906146bd565b6001600160a01b0383163b1561131857604051630a85bd0160e11b81526001600160a01b0384169063150b7a02906130f9903390889087908790600401614705565b6020604051808303816000875af1925050508015613134575060408051601f3d908101601f19168201909252613131918101906145fb565b60015b6131d9573d808015613162576040519150601f19603f3d011682016040523d82523d6000602084013e613167565b606091505b5080516131d15760405162461bcd60e51b815260206004820152603260248201527f4552433732313a207472616e7366657220746f206e6f6e20455243373231526560448201527131b2b4bb32b91034b6b83632b6b2b73a32b960711b6064820152608401610798565b805181602001fd5b6001600160e01b03198116630a85bd0160e11b14610cbc57600080fd5b6060600061320583600261457e565b613210906002614566565b6001600160401b03811115613227576132276139ea565b6040519080825280601f01601f191660200182016040528015613251576020820181803683370190505b509050600360fc1b8160008151811061326c5761326c614299565b60200101906001600160f81b031916908160001a905350600f60fb1b8160018151811061329b5761329b614299565b60200101906001600160f81b031916908160001a90535060006132bf84600261457e565b6132ca906001614566565b90505b6001811115613342576f181899199a1a9b1b9c1cb0b131b232b360811b85600f16601081106132fe576132fe614299565b1a60f81b82828151811061331457613314614299565b60200101906001600160f81b031916908160001a90535060049490941c9361333b81614742565b90506132cd565b508315610b765760405162461bcd60e51b815260206004820181905260248201527f537472696e67733a20686578206c656e67746820696e73756666696369656e746044820152606401610798565b61339b8282611408565b15610e37576000828152602081815260408083206001600160a01b0385168085529252808320805460ff1916905551339285917ff6391f5c32d9c69d2a47ea670b442974b53935d1edc7fd64eb21e047a839171b9190a45050565b6000610b76836001600160a01b03841661368e565b600082600001828154811061342257613422614299565b9060005260206000200154905092915050565b613440838383613781565b816001600160a01b0316836001600160a01b03167f17307eab39ab6107e8899845ad3d59bd9653f200f220920489ca2b5937696c3183604051613487911515815260200190565b60405180910390a3505050565b60006001600160e01b03198216635a05180f60e01b14806107c657506107c68261382f565b6001600160a01b0384163b156113445760405163f23a6e6160e01b81526001600160a01b0385169063f23a6e61906134fd9089908990889088908890600401614759565b6020604051808303816000875af1925050508015613538575060408051601f3d908101601f19168201909252613535918101906145fb565b60015b61354457612fe6614618565b6001600160e01b0319811663f23a6e6160e01b14611f995760405162461bcd60e51b8152600401610798906146bd565b613582868686868686613864565b6001600160a01b0385166136095760005b8351811015613607578281815181106135ae576135ae614299565b6020026020010151600660008684815181106135cc576135cc614299565b6020026020010151815260200190815260200160002060008282546135f19190614566565b909155506136009050816142c5565b9050613593565b505b6001600160a01b0384166113445760005b8351811015611f995782818151811061363557613635614299565b60200260200101516006600086848151811061365357613653614299565b60200260200101518152602001908152602001600020600082825461367891906144f8565b909155506136879050816142c5565b905061361a565b600081815260018301602052604081205480156137775760006136b26001836144f8565b85549091506000906136c6906001906144f8565b905081811461372b5760008660000182815481106136e6576136e6614299565b906000526020600020015490508087600001848154811061370957613709614299565b6000918252602080832090910192909255918252600188019052604090208390555b855486908061373c5761373c61450f565b6001900381819060005260206000200160009055905585600101600086815260200190815260200160002060009055600193505050506107c6565b60009150506107c6565b816001600160a01b0316836001600160a01b031614156137f55760405162461bcd60e51b815260206004820152602960248201527f455243313135353a2073657474696e6720617070726f76616c20737461747573604482015268103337b91039b2b63360b91b6064820152608401610798565b6001600160a01b03928316600090815260036020908152604080832094909516825292909252919020805460ff1916911515919091179055565b60006001600160e01b03198216637965db0b60e01b14806107c657506301ffc9a760e01b6001600160e01b03198316146107c6565b61134486868686868660055460ff16156113445760405162461bcd60e51b815260206004820152602c60248201527f455243313135355061757361626c653a20746f6b656e207472616e736665722060448201526b1dda1a5b19481c185d5cd95960a21b6064820152608401610798565b8280546138e190614264565b90600052602060002090601f0160209004810192826139035760008555613949565b82601f1061391c57805160ff1916838001178555613949565b82800160010185558215613949579182015b8281111561394957825182559160200191906001019061392e565b50613955929150613959565b5090565b5b80821115613955576000815560010161395a565b80356001600160a01b038116811461398557600080fd5b919050565b6000806040838503121561399d57600080fd5b6139a68361396e565b946020939093013593505050565b6001600160e01b0319811681146139ca57600080fd5b50565b6000602082840312156139df57600080fd5b8135610b76816139b4565b634e487b7160e01b600052604160045260246000fd5b601f8201601f191681016001600160401b0381118282101715613a2557613a256139ea565b6040525050565b600082601f830112613a3d57600080fd5b81356001600160401b03811115613a5657613a566139ea565b604051613a6d601f8301601f191660200182613a00565b818152846020838601011115613a8257600080fd5b816020850160208301376000918101602001919091529392505050565b600060208284031215613ab157600080fd5b81356001600160401b03811115613ac757600080fd5b613ad384828501613a2c565b949350505050565b600060208284031215613aed57600080fd5b5035919050565b60005b83811015613b0f578181015183820152602001613af7565b838111156113185750506000910152565b60008151808452613b38816020860160208601613af4565b601f01601f19169290920160200192915050565b602081526000610b766020830184613b20565b60006001600160401b03821115613b7857613b786139ea565b5060051b60200190565b600082601f830112613b9357600080fd5b81356020613ba082613b5f565b604051613bad8282613a00565b83815260059390931b8501820192828101915086841115613bcd57600080fd5b8286015b84811015613be85780358352918301918301613bd1565b509695505050505050565b60008060008060808587031215613c0957600080fd5b613c128561396e565b935060208501356001600160401b0380821115613c2e57600080fd5b613c3a88838901613b82565b94506040870135915080821115613c5057600080fd5b613c5c88838901613b82565b93506060870135915080821115613c7257600080fd5b50613c7f87828801613a2c565b91505092959194509250565b600080600060608486031215613ca057600080fd5b613ca98461396e565b9250613cb76020850161396e565b9150604084013590509250925092565b60008083601f840112613cd957600080fd5b5081356001600160401b03811115613cf057600080fd5b6020830191508360208260051b8501011115613d0b57600080fd5b9250929050565b60008083601f840112613d2457600080fd5b5081356001600160401b03811115613d3b57600080fd5b602083019150836020828501011115613d0b57600080fd5b60008060008060008060008060a0898b031215613d6f57600080fd5b613d788961396e565b9750613d8660208a0161396e565b965060408901356001600160401b0380821115613da257600080fd5b613dae8c838d01613cc7565b909850965060608b0135915080821115613dc757600080fd5b613dd38c838d01613cc7565b909650945060808b0135915080821115613dec57600080fd5b50613df98b828c01613d12565b999c989b5096995094979396929594505050565b60008060408385031215613e2057600080fd5b82359150613e306020840161396e565b90509250929050565b60008060408385031215613e4c57600080fd5b82356001600160401b0380821115613e6357600080fd5b818501915085601f830112613e7757600080fd5b81356020613e8482613b5f565b604051613e918282613a00565b83815260059390931b8501820192828101915089841115613eb157600080fd5b948201945b83861015613ed657613ec78661396e565b82529482019490820190613eb6565b96505086013592505080821115613eec57600080fd5b50613ef985828601613b82565b9150509250929050565b600081518084526020808501945080840160005b83811015613f3357815187529582019590820190600101613f17565b509495945050505050565b602081526000610b766020830184613f03565b60008060408385031215613f6457600080fd5b82356001600160401b03811115613f7a57600080fd5b613f8685828601613a2c565b95602094909401359450505050565b600080600060608486031215613faa57600080fd5b613fb38461396e565b925060208401356001600160401b0380821115613fcf57600080fd5b613fdb87838801613b82565b93506040860135915080821115613ff157600080fd5b50613ffe86828701613b82565b9150509250925092565b60006020828403121561401a57600080fd5b610b768261396e565b6000806000806080858703121561403957600080fd5b6140428561396e565b9350602085013592506040850135915060608501356001600160401b0381111561406b57600080fd5b613c7f87828801613a2c565b6000806040838503121561408a57600080fd5b50508035926020909101359150565b600080604083850312156140ac57600080fd5b6140b58361396e565b9150602083013580151581146140ca57600080fd5b809150509250929050565b6020808252825182820181905260009190848201906040850190845b818110156141165783516001600160a01b0316835292840192918401916001016140f1565b50909695505050505050565b60008060008060006080868803121561413a57600080fd5b6141438661396e565b94506141516020870161396e565b93506040860135925060608601356001600160401b0381111561417357600080fd5b61417f88828901613d12565b969995985093965092949392505050565b600080604083850312156141a357600080fd5b6141ac8361396e565b9150613e306020840161396e565b60008060008060008060a087890312156141d357600080fd5b6141dc8761396e565b95506141ea6020880161396e565b9450604087013593506060870135925060808701356001600160401b0381111561421357600080fd5b61421f89828a01613d12565b979a9699509497509295939492505050565b60008060006060848603121561424657600080fd5b61424f8461396e565b95602085013595506040909401359392505050565b600181811c9082168061427857607f821691505b60208210811415610b7d57634e487b7160e01b600052602260045260246000fd5b634e487b7160e01b600052603260045260246000fd5b634e487b7160e01b600052601160045260246000fd5b60006000198214156142d9576142d96142af565b5060010190565b60208082526029908201527f455243313135353a2063616c6c6572206973206e6f74206f776e6572206e6f7260408201526808185c1c1c9bdd995960ba1b606082015260800190565b60208082526038908201527f455243313135355072657365744d696e7465725061757365723a206d7573742060408201527f68617665206d696e74657220726f6c6520746f206d696e740000000000000000606082015260800190565b60208082526028908201527f455243313135353a2069647320616e6420616d6f756e7473206c656e677468206040820152670dad2e6dac2e8c6d60c31b606082015260800190565b6040815260006143e16040830185613f03565b82810360208401526143f38185613f03565b95945050505050565b7f416363657373436f6e74726f6c3a206163636f756e7420000000000000000000815260008351614434816017850160208801613af4565b7001034b99036b4b9b9b4b733903937b6329607d1b6017918401918201528351614465816028840160208801613af4565b01602801949350505050565b60208082526023908201527f455243313135353a206275726e2066726f6d20746865207a65726f206164647260408201526265737360e81b606082015260800190565b60208082526024908201527f455243313135353a206275726e20616d6f756e7420657863656564732062616c604082015263616e636560e01b606082015260800190565b60008282101561450a5761450a6142af565b500390565b634e487b7160e01b600052603160045260246000fd5b60208082526021908201527f455243313135353a206d696e7420746f20746865207a65726f206164647265736040820152607360f81b606082015260800190565b60008219821115614579576145796142af565b500190565b6000816000190483118215151615614598576145986142af565b500290565b6001600160a01b0386811682528516602082015260a0604082018190526000906145c990830186613f03565b82810360608401526145db8186613f03565b905082810360808401526145ef8185613b20565b98975050505050505050565b60006020828403121561460d57600080fd5b8151610b76816139b4565b600060033d11156146315760046000803e5060005160e01c5b90565b600060443d10156146425790565b6040516003193d81016004833e81513d6001600160401b03816024840111818411171561467157505050505090565b82850191508151818111156146895750505050505090565b843d87010160208285010111156146a35750505050505090565b6146b260208286010187613a00565b509095945050505050565b60208082526028908201527f455243313135353a204552433131353552656365697665722072656a656374656040820152676420746f6b656e7360c01b606082015260800190565b6001600160a01b038581168252841660208201526040810183905260806060820181905260009061473890830184613b20565b9695505050505050565b600081614751576147516142af565b506000190190565b6001600160a01b03868116825285166020820152604081018490526060810183905260a06080820181905260009061479390830184613b20565b97965050505050505056feddf252ad1be2c89b69c2b068fc378daa952ba7f163c4a11628f55a4df523b3efa26469706673582212208cd75a9b57aa7c0c8db62ca922274c22458dec2593ce818eeac3f1e9066eba6064736f6c634300080b0033",
  "immutableReferences": {},
  "source": "/**\n * FireZard ERC1155 NFT for storinfg game characters and items (both stackable and unstackable)\n */\n\npragma solidity ^0.8.0;\n\nimport \"./dependencies/presets/ERC1155PresetMinterPauser.sol\";\nimport \"./dependencies/extensions/ERC1155Supply.sol\";\nimport \"@openzeppelin/contracts/token/ERC721/extensions/IERC721Enumerable.sol\";\nimport \"@openzeppelin/contracts/token/ERC721/extensions/IERC721Metadata.sol\";\nimport \"@openzeppelin/contracts/token/ERC721/IERC721Receiver.sol\";\nimport \"@openzeppelin/contracts/utils/Address.sol\";\n\n\n//contract FireZardNFT is ERC1155PresetMinterPauser, ERC1155Supply, IERC721, IERC721Metadata {\ncontract FireZardNFT is IERC1155MetadataURI, ERC1155PresetMinterPauser, ERC1155Supply, IERC721Enumerable, IERC721Metadata {\n    using Address for address;\n\n    string _name;\n    string _symbol;\n\n    // List of all token IDs\n    uint256[] public tokens;\n\n    // Token index mapping: toklen_id => token index in tokens list\n    mapping(uint256 => uint256) public tokenIndex;\n\n    // Token ownership mapping: token_id ==> array of token_owner_address\n    mapping(uint256 => address[]) public ownership;\n\n    // Owner's address position in ownership list for token_id\n    mapping(address => mapping(uint256 => uint256)) private ownershipIndex;\n\n    // Token type mapping: token_id ==> token_type (like, DRAGON_CARD_TYPE_CODE, etc.)\n    mapping(uint256 => bytes32) public token_type;\n\n    // Inventory: owner_address => array_of_token_ids\n    mapping(address => uint256[]) public inventory;\n\n    // Slot: slot position of token_id in owner_address inventory\n    mapping(address => mapping(uint256 => uint256)) private slot;\n\n    // Approved transfer of token_id belonging to an owner for an operator\n    mapping(uint256 => mapping(address => address)) private approved;\n\n    // Approved transfer of a token_id to an operator. Applicable only for cases where tokens with token_id belong to a single owner\n    mapping(uint256 => address) private singleApproved;\n\n    // Token custom URIs\n    mapping(uint256 => string) private uris;\n\n    constructor(string memory _uri, string memory name_, string memory symbol_) ERC1155PresetMinterPauser(_uri) {\n\t_name = name_;\n\t_symbol = symbol_;\n    }\n\n    function _beforeTokenTransfer(\n        address operator,\n        address from,\n        address to,\n        uint256[] memory ids,\n        uint256[] memory amounts,\n        bytes memory data\n    ) internal virtual override(ERC1155PresetMinterPauser, ERC1155Supply) {\n\tif(from == address(0)){\n\t    bytes32 _token_type;\n\n\t    for(uint i=0;i<32;i++)\n\t\t_token_type |= bytes32(data[i] & 0xFF) >> (i*8);\n\n\t    for(uint i=0;i<ids.length;i++)\n\t\ttoken_type[ids[i]] = _token_type;\n\t}\n\tsuper._beforeTokenTransfer(operator, from, to, ids, amounts, data);\n    }\n\n    function _transferFrom(\n\taddress from,\n\taddress to,\n\tuint256 tokenId,\n\tbytes\tmemory data,\n\tbool safe_mode,\n\tbool ERC721_mode\n    ) internal {\n\tif(ERC721_mode)require(from != address(0));\n\trequire(to != address(0));\n\n\tuint256[] memory ids = _asSingletonArray(tokenId);\n\tuint256[] memory amounts = _asSingletonArray(balanceOf(from,tokenId));\n\t_transferFrom(\n\t    from,\n\t    to,\n\t    ids,\n\t    amounts,\n\t    data,\n\t    safe_mode,\n\t    ERC721_mode\n\t);\n    }\n\n    function _transferFrom(\n\taddress from,\n\taddress to,\n\tuint256[] memory ids,\n\tuint256[] memory amounts,\n\tbytes\tmemory data,\n\tbool\tsafe_mode,\n\tbool\tERC721_mode\n    ) internal {\n\trequire(ids.length == amounts.length, \"ERC1155: ids and amounts length mismatch\");\n        require(to != address(0), \"ERC1155: transfer to the zero address\");\n\n        address operator = _msgSender();\n\trequire(\n            from == operator || isApprovedForAll(from, operator) || isApproved(ids, from),\n            \"ERC1155: caller is not owner nor approved\"\n        );\n\n        _beforeTokenTransfer(operator, from, to, ids, amounts, data);\n\n\tuint256[] memory ids_to = idsToChange(ids,to);\n\t_rebalance(from, to, ids, amounts, data);\n\tuint256[] memory ids_from = idsToChange(ids,from);\n\n\taddOwnership(ids_to,to);\n\taddToInventory(ids_to,to);\n\tremoveOwnership(ids_from,from);\n\tremoveFromInventory(ids_from,from);\n\n\tif(ids.length>1){\n    \t    emit TransferBatch(operator, from, to, ids, amounts);\n\t    for(uint i=0;i<ids.length;i++)\n\t\temit Transfer(from, to, ids[i]);\n\t}\n\telse{\n\t    emit TransferSingle(operator, from, to, ids[0], amounts[0]);\n\t    emit Transfer(from, to, ids[0]);\n\t}\n\n\tif(!safe_mode)return;\n\tif(!ERC721_mode)\n\t    _doERC1155TransferAcceptanceCheck(operator, from, to, ids, amounts, data);\n\telse\n\t    _doERC721TransferAcceptanceCheck(from, to, ids[0], data);\n    }\n\n    function isApproved(uint256[] memory ids, address owner) internal view returns (bool) {\n\tfor(uint i=0;i<ids.length;i++){\n\t    if(approved[ids[i]][owner] != msg.sender)\n\t\treturn false;\n\t}\n\treturn true;\n    }\n\n    function idsToChange(uint256[] memory ids, address owner) internal view returns (uint256[] memory){\n\tuint256[] memory ids_tmp = new uint256[](ids.length);\n\tuint256 index=0;\n\tfor(uint i=0;i<ids.length;i++){\n\t    if(balanceOf(owner,ids[i])==0)\n\t\tids_tmp[index++]=ids[i];\n\t}\n\tuint256[] memory filtered_ids = new uint256[](index);\n\tfor(uint i=0;i<index;i++)\n\t    filtered_ids[i] = ids_tmp[i];\n\treturn filtered_ids;\n    }\n\n    function addTokens(uint256[] memory ids) internal {\n\tfor(uint i=0;i<ids.length;i++){\n\t    if(!exists(tokens[ids[i]])){\n\t\ttokenIndex[ids[i]] = tokens.length;\n\t\ttokens.push(ids[i]);\n\t    }\n\t}\n    }\n\n    function removeTokens(uint256[] memory ids) internal {\n\tfor(uint i=0;i<ids.length;i++){\n\t    if(!exists(tokens[ids[i]])){\n\t\tuint256 token_index = tokenIndex[ids[i]];\n\t\ttokens[token_index] = tokens[tokens.length-1];\n\t\ttokenIndex[tokens[token_index]] = token_index;\n\t\ttokens.pop();\n\t\tdelete tokenIndex[ids[i]];\n\t    }\n\t}\n    }\n\n    function addOwnership(uint256[] memory ids, address owner) internal {\n\tfor(uint i=0;i<ids.length;i++){\n\t    ownershipIndex[owner][ids[i]] = ownership[ids[i]].length;\n\t    ownership[ids[i]].push(owner);\n\t}\n    }\n\n    function removeOwnership(uint256[] memory ids, address owner) internal {\n\tfor(uint i=0;i<ids.length;i++){\n\t    uint256 owner_index = ownershipIndex[owner][ids[i]];\n\t    ownership[ids[i]][owner_index] = ownership[ids[i]][ownership[ids[i]].length-1];\n\t    ownershipIndex[ownership[ids[i]][owner_index]][ids[i]] = owner_index;\n\t    ownership[ids[i]].pop();\n\t    delete ownershipIndex[owner][ids[i]];\n\t}\n    }\n    \n    function addToInventory(uint256[] memory ids, address owner) internal {\n\tfor(uint i=0;i<ids.length;i++){\n\t    slot[owner][ids[i]] = inventory[owner].length;\n\t    inventory[owner].push(ids[i]);\n\t}\n    }\n\n    function removeFromInventory(uint256[] memory ids, address owner) internal {\n\tfor(uint i=0;i<ids.length;i++){\n\t    uint256 token_index = slot[owner][ids[i]];\n\t    inventory[owner][token_index] = inventory[owner][inventory[owner].length-1];\n\t    slot[owner][inventory[owner][token_index]] = token_index;\n\t    delete slot[owner][ids[i]];\n\t    inventory[owner].pop();\n\t}\n    }\n\n    function _doERC1155TransferAcceptanceCheck(\n        address operator,\n        address from,\n        address to,\n        uint256[] memory ids,\n        uint256[] memory amounts,\n        bytes memory data\n    ) private {\n        if (to.isContract()) {\n            try IERC1155Receiver(to).onERC1155BatchReceived(operator, from, ids, amounts, data) returns (\n                bytes4 response\n            ) {\n                if (response != IERC1155Receiver.onERC1155BatchReceived.selector) {\n                    revert(\"ERC1155: ERC1155Receiver rejected tokens\");\n                }\n            } catch Error(string memory reason) {\n                revert(reason);\n            } catch {\n                revert(\"ERC1155: transfer to non ERC1155Receiver implementer\");\n            }\n        }\n    }\n\n    function _doERC721TransferAcceptanceCheck(\n\taddress from,\n\taddress to,\n\tuint256 tokenId,\n\tbytes memory _data\n    ) private {\n\tif (to.isContract()) {\n            try IERC721Receiver(to).onERC721Received(_msgSender(), from, tokenId, _data) returns (bytes4 retval) {\n                require(retval == IERC721Receiver.onERC721Received.selector);\n            } catch (bytes memory reason) {\n                if (reason.length == 0) {\n                    revert(\"ERC721: transfer to non ERC721Receiver implementer\");\n                } else {\n                    assembly {\n                        revert(add(32, reason), mload(reason))\n                    }\n                }\n            }\n        }\n    }\n\n    /**\n     * @dev Safely transfers `tokenId` token from `from` to `to`, checking first that contract recipients\n     * are aware of the ERC721 protocol to prevent tokens from being forever locked.\n     *\n     * See IERC721\n     *\n     * Requirements:\n     *\n     * - `from` cannot be the zero address.\n     * - `to` cannot be the zero address.\n     * - `tokenId` token must exist and be owned by `from`.\n     * - If the caller is not `from`, it must be have been allowed to move this token by either {approve} or {setApprovalForAll}.\n     * - If `to` refers to a smart contract, it must implement {IERC721Receiver-onERC721Received}, which is called upon a safe transfer.\n     *\n     * Emits a {Transfer} event.\n     */\n    function safeTransferFrom(\n        address from,\n        address to,\n        uint256 tokenId\n    ) external {\n\t_transferFrom(from, to, tokenId, \"\", true, true);\n    }\n\n/**\n     * @dev Safely transfers `tokenId` token from `from` to `to`.\n     *\n     * Requirements:\n     *\n     * - `from` cannot be the zero address.\n     * - `to` cannot be the zero address.\n     * - `tokenId` token must exist and be owned by `from`.\n     * - If the caller is not `from`, it must be approved to move this token by either {approve} or {setApprovalForAll}.\n     * - If `to` refers to a smart contract, it must implement {IERC721Receiver-onERC721Received}, which is called upon a safe transfer.\n     *\n     * Emits a {Transfer} event.\n     */\n    function safeTransferFrom(\n        address from,\n        address to,\n        uint256 tokenId,\n        bytes calldata data\n    ) external {\n\t_transferFrom(from, to, tokenId, data, true, true);\n    }\n\n    /**\n     * @dev Transfers `tokenId` token from `from` to `to`.\n     *\n     * See IERC721\n     *\n     * WARNING: Usage of this method is discouraged, use {safeTransferFrom} whenever possible.\n     *\n     * Requirements:\n     *\n     * - `from` cannot be the zero address.\n     * - `to` cannot be the zero address.\n     * - `tokenId` token must be owned by `from`.\n     * - If the caller is not `from`, it must be approved to move this token by either {approve} or {setApprovalForAll}.\n     *\n     * Emits a {Transfer} event.\n     */\n    function transferFrom(\n        address from,\n        address to,\n        uint256 tokenId\n    ) external {\n\t_transferFrom(from, to, tokenId, \"\", false, true);\n    }\n\n    /**\n     * @dev Transfers `amount` tokens of token type `id` from `from` to `to`.\n     *\n     * Emits a {TransferSingle} event.\n     *\n     * Requirements:\n     *\n     * - `to` cannot be the zero address.\n     * - If the caller is not `from`, it must be have been approved to spend ``from``'s tokens via {setApprovalForAll}.\n     * - `from` must have a balance of tokens of type `id` of at least `amount`.\n     * - If `to` refers to a smart contract, it must implement {IERC1155Receiver-onERC1155Received} and return the\n     * acceptance magic value.\n     */\n    function safeTransferFrom(\n        address from,\n        address to,\n        uint256 id,\n        uint256 amount,\n        bytes calldata data\n    ) public virtual override(ERC1155, IERC1155) {\n\t_transferFrom(from, to, _asSingletonArray(id), _asSingletonArray(amount), data, true, false);\n    }\n\n    /**\n     * @dev xref:ROOT:erc1155.adoc#batch-operations[Batched] version of {safeTransferFrom}.\n     *\n     * Emits a {TransferBatch} event.\n     *\n     * Requirements:\n     *\n     * - `ids` and `amounts` must have the same length.\n     * - If `to` refers to a smart contract, it must implement {IERC1155Receiver-onERC1155BatchReceived} and return the\n     * acceptance magic value.\n     */\n    function safeBatchTransferFrom(\n        address from,\n        address to,\n        uint256[] calldata ids,\n        uint256[] calldata amounts,\n        bytes calldata data\n    ) public virtual override(ERC1155, IERC1155) {\n\t_transferFrom(from, to, ids, amounts, data, true, false);\n    }\n\n    /**\n     * @dev Creates `amount` tokens of token type `id`, and assigns them to `to`.\n     *\n     * Emits a {TransferSingle} event.\n     *\n     * Requirements:\n     *\n     * - `to` cannot be the zero address.\n     * - If `to` refers to a smart contract, it must implement {IERC1155Receiver-onERC1155Received} and return the\n     * acceptance magic value.\n     */\n    function mint(\n        address to,\n        uint256 id,\n        uint256 amount,\n        bytes memory data\n    ) public virtual override {\n\tuint256[] memory ids = _asSingletonArray(id);\n\tuint256[] memory amounts = _asSingletonArray(amount);\n\tmintBatch(to, ids, amounts, data);\n    }\n\n    function mintBatch(\n        address to,\n        uint256[] memory ids,\n        uint256[] memory amounts,\n        bytes memory data\n    ) public virtual override {\n\tuint256[] memory ids_to = idsToChange(ids,to);\n\taddTokens(ids_to);\n\n\tif(ids.length == 1){\n\t    super.mint(to, ids[0], amounts[0], data);\n\t    emit Transfer(address(0), to, ids[0]);\n\t}\n\telse{\n    \t    super.mintBatch(to, ids, amounts, data);\n\t    for(uint i=0;i<ids.length;i++)\n\t\temit Transfer(address(0), to, ids[i]);\n\t}\n\n\taddOwnership(ids_to,to);\n\taddToInventory(ids_to,to);\n    }\n    \n    /**\n     * @dev Destroys `amount` tokens of token type `id` from `from`\n     *\n     * Requirements:\n     *\n     * - `from` cannot be the zero address.\n     * - `from` must have at least `amount` tokens of token type `id`.\n     */\n    function burn(\n        address from,\n        uint256 id,\n        uint256 amount\n    ) public virtual override {\n\tuint256[] memory ids = _asSingletonArray(id);\n\tuint256[] memory amounts = _asSingletonArray(amount);\n\tburnBatch(from, ids, amounts);\n    }\n    \n    /**\n     * @dev xref:ROOT:erc1155.adoc#batch-operations[Batched] version of {_burn}.\n     *\n     * Requirements:\n     *\n     * - `ids` and `amounts` must have the same length.\n     */\n    function burnBatch(\n        address from,\n        uint256[] memory ids,\n        uint256[] memory amounts\n    ) public virtual override {\n    \trequire(\n            from == _msgSender() || isApprovedForAll(from, _msgSender()) || isApproved(ids, from),\n            \"ERC1155: caller is not owner nor approved\"\n        );\n\n\tif(ids.length == 1){\n\t    super._burn(from, ids[0], amounts[0]);\n\t    emit Transfer(from, address(0), ids[0]);\n\t}\n\telse{\n\t    super._burnBatch(from, ids, amounts);\n\t    for(uint i=0;i<ids.length;i++)\n\t\temit Transfer(from, address(0), ids[i]);\n\t}\n\n\tuint256[] memory ids_from = idsToChange(ids,from);\n\n\tremoveOwnership(ids_from,from);\n\tremoveFromInventory(ids_from,from);\n\tremoveTokens(ids_from);\n    }\n\n    function typeOf(uint256 id) public view returns (bytes32) {\n\treturn token_type[id];\n    }\n\n    function ownersOf(uint256 id) public view returns (address[] memory) {\n\treturn ownership[id];\n    }\n\n    /**\n     * @dev Returns the number of tokens in ``owner``'s account.\n     * See IERC721\n     */\n    function balanceOf(address owner) external view returns (uint256 balance){\n\treturn inventory[owner].length;\n    }\n\n    /**\n     * @dev Returns the owner of the `tokenId` token.\n     * See IERC721\n     *\n     * Requirements:\n     *\n     * - `tokenId` must exist and belong to a single owner\n     */\n    function ownerOf(uint256 tokenId) external view returns (address owner){\n\trequire(ownership[tokenId].length == 1);\n\treturn ownership[tokenId][0];\n    }\n\n    /**\n     * @dev Gives permission to `to` to transfer `tokenId` token to another account.\n     * The approval is cleared when the token is transferred.\n     *\n     * Only a single account can be approved at a time, so approving the zero address clears previous approvals.\n     *\n     * See IERC721\n     *\n     * Requirements:\n     *\n     * - The caller must own the token or be an approved operator.\n     * - `tokenId` must exist.\n     *\n     * Emits an {Approval} event.\n     */\n    function approve(address to, uint256 tokenId) external {\n\tif(balanceOf(msg.sender, tokenId)>0){\n\t    approved[tokenId][msg.sender] = to;\n\t    singleApproved[tokenId] = to;\n\t}\n\tfor(uint i=0;i<ownership[tokenId].length;i++){\n\t    address owner = ownership[tokenId][i];\n\t    if(approved[tokenId][owner] == msg.sender){\n\t\tapproved[tokenId][owner] = to;\n\t\tsingleApproved[tokenId] = to;\n\t    }\n\t}\n\trevert(\"The caller must own or be approved to spend tokenId\");\n    }\n\n    /**\n     * @dev Returns the account approved for `tokenId` token.\n     * If there are more accounts holding token with same id\n     * the function fails.\n     *\n     * See IERC721\n     *\n     * Requirements:\n     *\n     * - `tokenId` must exist and belong to a single account\n     */\n    function getApproved(uint256 tokenId) external view returns (address operator){\n\trequire(ownership[tokenId].length == 1);\n\treturn singleApproved[tokenId];\n    }\n\n    /**\n     * @dev Indicates whether any token exist with a given id, or not.\n     *\n     * See ERC1155Supply\n     */\n    function exists(uint256 id) public view virtual override returns (bool) {\n        return super.totalSupply(id) > 0;\n    }\n\n    /**\n     * @dev Returns the total amount of tokens stored by the contract.\n     */\n    function totalSupply() external view override returns (uint256) {\n\treturn tokens.length;\n    }\n\n     /**\n     * @dev Returns a token ID owned by `owner` at a given `index` of its token list.\n     * Use along with {balanceOf} to enumerate all of ``owner``'s tokens.\n     *\n     * See IERC721Enumerable\n     */\n    function tokenOfOwnerByIndex(address owner, uint256 index) external view returns (uint256 tokenId){\n\treturn slot[owner][index];\n    }\n\n    /**\n     * @dev Returns a token ID at a given `index` of all the tokens stored by the contract.\n     * Use along with {totalSupply} to enumerate all tokens.\n     *\n     * See IERC721Enumerable\n     */\n    function tokenByIndex(uint256 index) external view returns (uint256){\n\treturn tokens[index];\n    }\n\n    /**\n     * @dev Returns the Uniform Resource Identifier (URI) for `tokenId` token.\n     * \n     * See IERC721Enumerable\n     */\n    function tokenURI(uint256 tokenId) external view returns (string memory) {\n\treturn uri(tokenId);\n    }\n\n    /**\n     * @dev Returns the URI for token type `id`.\n     *\n     * If the `\\{id\\}` substring is present in the URI, it must be replaced by\n     * clients with the actual token type ID.\n     */\n    function uri(uint256 id) public view virtual override(ERC1155, IERC1155MetadataURI) returns (string memory){\n\tstring memory token_uri = uris[id];\n\tif(bytes(token_uri).length != 0)\n\t    return token_uri;\n\telse\n\t    return super.uri(id);\n    }\n\n    function setURI(string memory token_uri, uint256 token_id) public virtual {\n\trequire(hasRole(DEFAULT_ADMIN_ROLE, _msgSender()), \"Must be admin\");\n\turis[token_id] = token_uri;\n\temit URI(token_uri, token_id);\n    }\n\n    function setURI(string memory token_uri) public virtual {\n\trequire(hasRole(DEFAULT_ADMIN_ROLE, _msgSender()), \"Must be admin\");\n\t_setURI(token_uri);\n\temit URI(token_uri, 0);\n    }\n\n    /**\n     * @dev Approve `operator` to operate on all of `owner` tokens\n     *\n     * Emits a {ApprovalForAll} event.\n     */\n    function _setApprovalForAll(\n        address owner,\n        address operator,\n        bool approved\n    ) internal virtual override {\n\tsuper._setApprovalForAll(owner, operator, approved);\n        emit ApprovalForAll(owner, operator, approved);\n    }\n\n    /**\n     * @dev See {IERC1155-isApprovedForAll}.\n     */\n    function isApprovedForAll(address account, address operator) public view virtual override(ERC1155, IERC1155, IERC721) returns (bool) {\n        return ERC1155.isApprovedForAll(account, operator);\n    }\n\n    /**\n     * @dev See {IERC1155-setApprovalForAll}.\n     */\n    function setApprovalForAll(address operator, bool approved) public virtual override(ERC1155, IERC1155, IERC721) {\n        return super.setApprovalForAll(operator, approved);\n    }\n\n    /**\n     * @dev Returns the token collection name.\n     */\n    function name() external view override returns (string memory){\n\treturn _name;\n    }\n\n    /**\n     * @dev Returns the token collection symbol.\n     */\n    function symbol() external view returns (string memory){\n\treturn _symbol;\n    }\n\n    /**\n     * @dev See {IERC165-supportsInterface}.\n     */\n    function supportsInterface(bytes4 interfaceId)\n        public\n        view\n        virtual\n        override(ERC1155, ERC1155PresetMinterPauser, IERC165)\n        returns (bool)\n    {\n        return super.supportsInterface(interfaceId);\n    }\n\n\n}\n",
  "sourcePath": "/home/vrogojin/Projects/FireZard/nft/contracts/FireZardNFT.sol",
  "compiler": {
    "name": "solc",
    "version": "0.8.11+commit.d7f03943.Emscripten.clang"
  },
  "schemaVersion": "3.4.3",
  "updatedAt": "2022-01-06T22:33:23.300Z",
  "devdoc": {
    "kind": "dev",
    "methods": {
      "approve(address,uint256)": {
        "details": "Gives permission to `to` to transfer `tokenId` token to another account. The approval is cleared when the token is transferred. Only a single account can be approved at a time, so approving the zero address clears previous approvals. See IERC721 Requirements: - The caller must own the token or be an approved operator. - `tokenId` must exist. Emits an {Approval} event."
      },
      "balanceOf(address)": {
        "details": "Returns the number of tokens in ``owner``'s account. See IERC721"
      },
      "balanceOf(address,uint256)": {
        "details": "See {IERC1155-balanceOf}. Requirements: - `account` cannot be the zero address."
      },
      "balanceOfBatch(address[],uint256[])": {
        "details": "See {IERC1155-balanceOfBatch}. Requirements: - `accounts` and `ids` must have the same length."
      },
      "burn(address,uint256,uint256)": {
        "details": "Destroys `amount` tokens of token type `id` from `from` Requirements: - `from` cannot be the zero address. - `from` must have at least `amount` tokens of token type `id`."
      },
      "burnBatch(address,uint256[],uint256[])": {
        "details": "xref:ROOT:erc1155.adoc#batch-operations[Batched] version of {_burn}. Requirements: - `ids` and `amounts` must have the same length."
      },
      "exists(uint256)": {
        "details": "Indicates whether any token exist with a given id, or not. See ERC1155Supply"
      },
      "getApproved(uint256)": {
        "details": "Returns the account approved for `tokenId` token. If there are more accounts holding token with same id the function fails. See IERC721 Requirements: - `tokenId` must exist and belong to a single account"
      },
      "getRoleAdmin(bytes32)": {
        "details": "Returns the admin role that controls `role`. See {grantRole} and {revokeRole}. To change a role's admin, use {_setRoleAdmin}."
      },
      "getRoleMember(bytes32,uint256)": {
        "details": "Returns one of the accounts that have `role`. `index` must be a value between 0 and {getRoleMemberCount}, non-inclusive. Role bearers are not sorted in any particular way, and their ordering may change at any point. WARNING: When using {getRoleMember} and {getRoleMemberCount}, make sure you perform all queries on the same block. See the following https://forum.openzeppelin.com/t/iterating-over-elements-on-enumerableset-in-openzeppelin-contracts/2296[forum post] for more information."
      },
      "getRoleMemberCount(bytes32)": {
        "details": "Returns the number of accounts that have `role`. Can be used together with {getRoleMember} to enumerate all bearers of a role."
      },
      "grantRole(bytes32,address)": {
        "details": "Grants `role` to `account`. If `account` had not been already granted `role`, emits a {RoleGranted} event. Requirements: - the caller must have ``role``'s admin role."
      },
      "hasRole(bytes32,address)": {
        "details": "Returns `true` if `account` has been granted `role`."
      },
      "isApprovedForAll(address,address)": {
        "details": "See {IERC1155-isApprovedForAll}."
      },
      "mint(address,uint256,uint256,bytes)": {
        "details": "Creates `amount` tokens of token type `id`, and assigns them to `to`. Emits a {TransferSingle} event. Requirements: - `to` cannot be the zero address. - If `to` refers to a smart contract, it must implement {IERC1155Receiver-onERC1155Received} and return the acceptance magic value."
      },
      "mintBatch(address,uint256[],uint256[],bytes)": {
        "details": "xref:ROOT:erc1155.adoc#batch-operations[Batched] variant of {mint}."
      },
      "name()": {
        "details": "Returns the token collection name."
      },
      "ownerOf(uint256)": {
        "details": "Returns the owner of the `tokenId` token. See IERC721 Requirements: - `tokenId` must exist and belong to a single owner"
      },
      "pause()": {
        "details": "Pauses all token transfers. See {ERC1155Pausable} and {Pausable-_pause}. Requirements: - the caller must have the `PAUSER_ROLE`."
      },
      "paused()": {
        "details": "Returns true if the contract is paused, and false otherwise."
      },
      "renounceRole(bytes32,address)": {
        "details": "Revokes `role` from the calling account. Roles are often managed via {grantRole} and {revokeRole}: this function's purpose is to provide a mechanism for accounts to lose their privileges if they are compromised (such as when a trusted device is misplaced). If the calling account had been revoked `role`, emits a {RoleRevoked} event. Requirements: - the caller must be `account`."
      },
      "revokeRole(bytes32,address)": {
        "details": "Revokes `role` from `account`. If `account` had been granted `role`, emits a {RoleRevoked} event. Requirements: - the caller must have ``role``'s admin role."
      },
      "safeBatchTransferFrom(address,address,uint256[],uint256[],bytes)": {
        "details": "xref:ROOT:erc1155.adoc#batch-operations[Batched] version of {safeTransferFrom}. Emits a {TransferBatch} event. Requirements: - `ids` and `amounts` must have the same length. - If `to` refers to a smart contract, it must implement {IERC1155Receiver-onERC1155BatchReceived} and return the acceptance magic value."
      },
      "safeTransferFrom(address,address,uint256)": {
        "details": "Safely transfers `tokenId` token from `from` to `to`, checking first that contract recipients are aware of the ERC721 protocol to prevent tokens from being forever locked. See IERC721 Requirements: - `from` cannot be the zero address. - `to` cannot be the zero address. - `tokenId` token must exist and be owned by `from`. - If the caller is not `from`, it must be have been allowed to move this token by either {approve} or {setApprovalForAll}. - If `to` refers to a smart contract, it must implement {IERC721Receiver-onERC721Received}, which is called upon a safe transfer. Emits a {Transfer} event."
      },
      "safeTransferFrom(address,address,uint256,bytes)": {
        "details": "Safely transfers `tokenId` token from `from` to `to`. Requirements: - `from` cannot be the zero address. - `to` cannot be the zero address. - `tokenId` token must exist and be owned by `from`. - If the caller is not `from`, it must be approved to move this token by either {approve} or {setApprovalForAll}. - If `to` refers to a smart contract, it must implement {IERC721Receiver-onERC721Received}, which is called upon a safe transfer. Emits a {Transfer} event."
      },
      "safeTransferFrom(address,address,uint256,uint256,bytes)": {
        "details": "Transfers `amount` tokens of token type `id` from `from` to `to`. Emits a {TransferSingle} event. Requirements: - `to` cannot be the zero address. - If the caller is not `from`, it must be have been approved to spend ``from``'s tokens via {setApprovalForAll}. - `from` must have a balance of tokens of type `id` of at least `amount`. - If `to` refers to a smart contract, it must implement {IERC1155Receiver-onERC1155Received} and return the acceptance magic value."
      },
      "setApprovalForAll(address,bool)": {
        "details": "See {IERC1155-setApprovalForAll}."
      },
      "supportsInterface(bytes4)": {
        "details": "See {IERC165-supportsInterface}."
      },
      "symbol()": {
        "details": "Returns the token collection symbol."
      },
      "tokenByIndex(uint256)": {
        "details": "Returns a token ID at a given `index` of all the tokens stored by the contract. Use along with {totalSupply} to enumerate all tokens. See IERC721Enumerable"
      },
      "tokenOfOwnerByIndex(address,uint256)": {
        "details": "Returns a token ID owned by `owner` at a given `index` of its token list. Use along with {balanceOf} to enumerate all of ``owner``'s tokens. See IERC721Enumerable"
      },
      "tokenURI(uint256)": {
        "details": "Returns the Uniform Resource Identifier (URI) for `tokenId` token.  See IERC721Enumerable"
      },
      "totalSupply()": {
        "details": "Returns the total amount of tokens stored by the contract."
      },
      "totalSupply(uint256)": {
        "details": "Total amount of tokens in with a given id."
      },
      "transferFrom(address,address,uint256)": {
        "details": "Transfers `tokenId` token from `from` to `to`. See IERC721 WARNING: Usage of this method is discouraged, use {safeTransferFrom} whenever possible. Requirements: - `from` cannot be the zero address. - `to` cannot be the zero address. - `tokenId` token must be owned by `from`. - If the caller is not `from`, it must be approved to move this token by either {approve} or {setApprovalForAll}. Emits a {Transfer} event."
      },
      "unpause()": {
        "details": "Unpauses all token transfers. See {ERC1155Pausable} and {Pausable-_unpause}. Requirements: - the caller must have the `PAUSER_ROLE`."
      },
      "uri(uint256)": {
        "details": "Returns the URI for token type `id`. If the `\\{id\\}` substring is present in the URI, it must be replaced by clients with the actual token type ID."
      }
    },
    "version": 1
  },
  "userdoc": {
    "kind": "user",
    "methods": {},
    "version": 1
  }
}