{
  "contractName": "FireZardNFT",
  "abi": [
    {
      "inputs": [
        {
          "internalType": "string",
          "name": "uri",
          "type": "string"
        }
      ],
      "stateMutability": "nonpayable",
      "type": "constructor"
    },
    {
      "anonymous": false,
      "inputs": [
        {
          "indexed": true,
          "internalType": "address",
          "name": "account",
          "type": "address"
        },
        {
          "indexed": true,
          "internalType": "address",
          "name": "operator",
          "type": "address"
        },
        {
          "indexed": false,
          "internalType": "bool",
          "name": "approved",
          "type": "bool"
        }
      ],
      "name": "ApprovalForAll",
      "type": "event"
    },
    {
      "anonymous": false,
      "inputs": [
        {
          "indexed": false,
          "internalType": "address",
          "name": "account",
          "type": "address"
        }
      ],
      "name": "Paused",
      "type": "event"
    },
    {
      "anonymous": false,
      "inputs": [
        {
          "indexed": true,
          "internalType": "bytes32",
          "name": "role",
          "type": "bytes32"
        },
        {
          "indexed": true,
          "internalType": "bytes32",
          "name": "previousAdminRole",
          "type": "bytes32"
        },
        {
          "indexed": true,
          "internalType": "bytes32",
          "name": "newAdminRole",
          "type": "bytes32"
        }
      ],
      "name": "RoleAdminChanged",
      "type": "event"
    },
    {
      "anonymous": false,
      "inputs": [
        {
          "indexed": true,
          "internalType": "bytes32",
          "name": "role",
          "type": "bytes32"
        },
        {
          "indexed": true,
          "internalType": "address",
          "name": "account",
          "type": "address"
        },
        {
          "indexed": true,
          "internalType": "address",
          "name": "sender",
          "type": "address"
        }
      ],
      "name": "RoleGranted",
      "type": "event"
    },
    {
      "anonymous": false,
      "inputs": [
        {
          "indexed": true,
          "internalType": "bytes32",
          "name": "role",
          "type": "bytes32"
        },
        {
          "indexed": true,
          "internalType": "address",
          "name": "account",
          "type": "address"
        },
        {
          "indexed": true,
          "internalType": "address",
          "name": "sender",
          "type": "address"
        }
      ],
      "name": "RoleRevoked",
      "type": "event"
    },
    {
      "anonymous": false,
      "inputs": [
        {
          "indexed": true,
          "internalType": "address",
          "name": "operator",
          "type": "address"
        },
        {
          "indexed": true,
          "internalType": "address",
          "name": "from",
          "type": "address"
        },
        {
          "indexed": true,
          "internalType": "address",
          "name": "to",
          "type": "address"
        },
        {
          "indexed": false,
          "internalType": "uint256[]",
          "name": "ids",
          "type": "uint256[]"
        },
        {
          "indexed": false,
          "internalType": "uint256[]",
          "name": "values",
          "type": "uint256[]"
        }
      ],
      "name": "TransferBatch",
      "type": "event"
    },
    {
      "anonymous": false,
      "inputs": [
        {
          "indexed": true,
          "internalType": "address",
          "name": "operator",
          "type": "address"
        },
        {
          "indexed": true,
          "internalType": "address",
          "name": "from",
          "type": "address"
        },
        {
          "indexed": true,
          "internalType": "address",
          "name": "to",
          "type": "address"
        },
        {
          "indexed": false,
          "internalType": "uint256",
          "name": "id",
          "type": "uint256"
        },
        {
          "indexed": false,
          "internalType": "uint256",
          "name": "value",
          "type": "uint256"
        }
      ],
      "name": "TransferSingle",
      "type": "event"
    },
    {
      "anonymous": false,
      "inputs": [
        {
          "indexed": false,
          "internalType": "string",
          "name": "value",
          "type": "string"
        },
        {
          "indexed": true,
          "internalType": "uint256",
          "name": "id",
          "type": "uint256"
        }
      ],
      "name": "URI",
      "type": "event"
    },
    {
      "anonymous": false,
      "inputs": [
        {
          "indexed": false,
          "internalType": "address",
          "name": "account",
          "type": "address"
        }
      ],
      "name": "Unpaused",
      "type": "event"
    },
    {
      "inputs": [],
      "name": "DEFAULT_ADMIN_ROLE",
      "outputs": [
        {
          "internalType": "bytes32",
          "name": "",
          "type": "bytes32"
        }
      ],
      "stateMutability": "view",
      "type": "function",
      "constant": true
    },
    {
      "inputs": [],
      "name": "MINTER_ROLE",
      "outputs": [
        {
          "internalType": "bytes32",
          "name": "",
          "type": "bytes32"
        }
      ],
      "stateMutability": "view",
      "type": "function",
      "constant": true
    },
    {
      "inputs": [],
      "name": "PAUSER_ROLE",
      "outputs": [
        {
          "internalType": "bytes32",
          "name": "",
          "type": "bytes32"
        }
      ],
      "stateMutability": "view",
      "type": "function",
      "constant": true
    },
    {
      "inputs": [
        {
          "internalType": "address",
          "name": "account",
          "type": "address"
        },
        {
          "internalType": "uint256",
          "name": "id",
          "type": "uint256"
        }
      ],
      "name": "balanceOf",
      "outputs": [
        {
          "internalType": "uint256",
          "name": "",
          "type": "uint256"
        }
      ],
      "stateMutability": "view",
      "type": "function",
      "constant": true
    },
    {
      "inputs": [
        {
          "internalType": "address[]",
          "name": "accounts",
          "type": "address[]"
        },
        {
          "internalType": "uint256[]",
          "name": "ids",
          "type": "uint256[]"
        }
      ],
      "name": "balanceOfBatch",
      "outputs": [
        {
          "internalType": "uint256[]",
          "name": "",
          "type": "uint256[]"
        }
      ],
      "stateMutability": "view",
      "type": "function",
      "constant": true
    },
    {
      "inputs": [
        {
          "internalType": "uint256",
          "name": "id",
          "type": "uint256"
        }
      ],
      "name": "exists",
      "outputs": [
        {
          "internalType": "bool",
          "name": "",
          "type": "bool"
        }
      ],
      "stateMutability": "view",
      "type": "function",
      "constant": true
    },
    {
      "inputs": [
        {
          "internalType": "bytes32",
          "name": "role",
          "type": "bytes32"
        }
      ],
      "name": "getRoleAdmin",
      "outputs": [
        {
          "internalType": "bytes32",
          "name": "",
          "type": "bytes32"
        }
      ],
      "stateMutability": "view",
      "type": "function",
      "constant": true
    },
    {
      "inputs": [
        {
          "internalType": "bytes32",
          "name": "role",
          "type": "bytes32"
        },
        {
          "internalType": "uint256",
          "name": "index",
          "type": "uint256"
        }
      ],
      "name": "getRoleMember",
      "outputs": [
        {
          "internalType": "address",
          "name": "",
          "type": "address"
        }
      ],
      "stateMutability": "view",
      "type": "function",
      "constant": true
    },
    {
      "inputs": [
        {
          "internalType": "bytes32",
          "name": "role",
          "type": "bytes32"
        }
      ],
      "name": "getRoleMemberCount",
      "outputs": [
        {
          "internalType": "uint256",
          "name": "",
          "type": "uint256"
        }
      ],
      "stateMutability": "view",
      "type": "function",
      "constant": true
    },
    {
      "inputs": [
        {
          "internalType": "bytes32",
          "name": "role",
          "type": "bytes32"
        },
        {
          "internalType": "address",
          "name": "account",
          "type": "address"
        }
      ],
      "name": "grantRole",
      "outputs": [],
      "stateMutability": "nonpayable",
      "type": "function"
    },
    {
      "inputs": [
        {
          "internalType": "bytes32",
          "name": "role",
          "type": "bytes32"
        },
        {
          "internalType": "address",
          "name": "account",
          "type": "address"
        }
      ],
      "name": "hasRole",
      "outputs": [
        {
          "internalType": "bool",
          "name": "",
          "type": "bool"
        }
      ],
      "stateMutability": "view",
      "type": "function",
      "constant": true
    },
    {
      "inputs": [
        {
          "internalType": "address",
          "name": "account",
          "type": "address"
        },
        {
          "internalType": "address",
          "name": "operator",
          "type": "address"
        }
      ],
      "name": "isApprovedForAll",
      "outputs": [
        {
          "internalType": "bool",
          "name": "",
          "type": "bool"
        }
      ],
      "stateMutability": "view",
      "type": "function",
      "constant": true
    },
    {
      "inputs": [
        {
          "internalType": "uint256",
          "name": "",
          "type": "uint256"
        }
      ],
      "name": "ownership",
      "outputs": [
        {
          "internalType": "address",
          "name": "",
          "type": "address"
        }
      ],
      "stateMutability": "view",
      "type": "function",
      "constant": true
    },
    {
      "inputs": [],
      "name": "pause",
      "outputs": [],
      "stateMutability": "nonpayable",
      "type": "function"
    },
    {
      "inputs": [],
      "name": "paused",
      "outputs": [
        {
          "internalType": "bool",
          "name": "",
          "type": "bool"
        }
      ],
      "stateMutability": "view",
      "type": "function",
      "constant": true
    },
    {
      "inputs": [
        {
          "internalType": "bytes32",
          "name": "role",
          "type": "bytes32"
        },
        {
          "internalType": "address",
          "name": "account",
          "type": "address"
        }
      ],
      "name": "renounceRole",
      "outputs": [],
      "stateMutability": "nonpayable",
      "type": "function"
    },
    {
      "inputs": [
        {
          "internalType": "bytes32",
          "name": "role",
          "type": "bytes32"
        },
        {
          "internalType": "address",
          "name": "account",
          "type": "address"
        }
      ],
      "name": "revokeRole",
      "outputs": [],
      "stateMutability": "nonpayable",
      "type": "function"
    },
    {
      "inputs": [
        {
          "internalType": "address",
          "name": "operator",
          "type": "address"
        },
        {
          "internalType": "bool",
          "name": "approved",
          "type": "bool"
        }
      ],
      "name": "setApprovalForAll",
      "outputs": [],
      "stateMutability": "nonpayable",
      "type": "function"
    },
    {
      "inputs": [
        {
          "internalType": "uint256",
          "name": "",
          "type": "uint256"
        }
      ],
      "name": "token_type",
      "outputs": [
        {
          "internalType": "bytes32",
          "name": "",
          "type": "bytes32"
        }
      ],
      "stateMutability": "view",
      "type": "function",
      "constant": true
    },
    {
      "inputs": [
        {
          "internalType": "uint256",
          "name": "id",
          "type": "uint256"
        }
      ],
      "name": "totalSupply",
      "outputs": [
        {
          "internalType": "uint256",
          "name": "",
          "type": "uint256"
        }
      ],
      "stateMutability": "view",
      "type": "function",
      "constant": true
    },
    {
      "inputs": [],
      "name": "unpause",
      "outputs": [],
      "stateMutability": "nonpayable",
      "type": "function"
    },
    {
      "inputs": [
        {
          "internalType": "uint256",
          "name": "",
          "type": "uint256"
        }
      ],
      "name": "uri",
      "outputs": [
        {
          "internalType": "string",
          "name": "",
          "type": "string"
        }
      ],
      "stateMutability": "view",
      "type": "function",
      "constant": true
    },
    {
      "inputs": [
        {
          "internalType": "uint256",
          "name": "id",
          "type": "uint256"
        }
      ],
      "name": "typeOf",
      "outputs": [
        {
          "internalType": "bytes32",
          "name": "",
          "type": "bytes32"
        }
      ],
      "stateMutability": "view",
      "type": "function",
      "constant": true
    },
    {
      "inputs": [
        {
          "internalType": "uint256",
          "name": "id",
          "type": "uint256"
        }
      ],
      "name": "ownerOf",
      "outputs": [
        {
          "internalType": "address",
          "name": "",
          "type": "address"
        }
      ],
      "stateMutability": "view",
      "type": "function",
      "constant": true
    },
    {
      "inputs": [
        {
          "internalType": "address",
          "name": "from",
          "type": "address"
        },
        {
          "internalType": "address",
          "name": "to",
          "type": "address"
        },
        {
          "internalType": "uint256",
          "name": "id",
          "type": "uint256"
        },
        {
          "internalType": "uint256",
          "name": "amount",
          "type": "uint256"
        },
        {
          "internalType": "bytes",
          "name": "data",
          "type": "bytes"
        }
      ],
      "name": "safeTransferFrom",
      "outputs": [],
      "stateMutability": "nonpayable",
      "type": "function"
    },
    {
      "inputs": [
        {
          "internalType": "address",
          "name": "from",
          "type": "address"
        },
        {
          "internalType": "address",
          "name": "to",
          "type": "address"
        },
        {
          "internalType": "uint256[]",
          "name": "ids",
          "type": "uint256[]"
        },
        {
          "internalType": "uint256[]",
          "name": "amounts",
          "type": "uint256[]"
        },
        {
          "internalType": "bytes",
          "name": "data",
          "type": "bytes"
        }
      ],
      "name": "safeBatchTransferFrom",
      "outputs": [],
      "stateMutability": "nonpayable",
      "type": "function"
    },
    {
      "inputs": [
        {
          "internalType": "address",
          "name": "to",
          "type": "address"
        },
        {
          "internalType": "uint256",
          "name": "id",
          "type": "uint256"
        },
        {
          "internalType": "uint256",
          "name": "amount",
          "type": "uint256"
        },
        {
          "internalType": "bytes",
          "name": "data",
          "type": "bytes"
        }
      ],
      "name": "mint",
      "outputs": [],
      "stateMutability": "nonpayable",
      "type": "function"
    },
    {
      "inputs": [
        {
          "internalType": "address",
          "name": "to",
          "type": "address"
        },
        {
          "internalType": "uint256[]",
          "name": "ids",
          "type": "uint256[]"
        },
        {
          "internalType": "uint256[]",
          "name": "amounts",
          "type": "uint256[]"
        },
        {
          "internalType": "bytes",
          "name": "data",
          "type": "bytes"
        }
      ],
      "name": "mintBatch",
      "outputs": [],
      "stateMutability": "nonpayable",
      "type": "function"
    },
    {
      "inputs": [
        {
          "internalType": "address",
          "name": "from",
          "type": "address"
        },
        {
          "internalType": "uint256",
          "name": "id",
          "type": "uint256"
        },
        {
          "internalType": "uint256",
          "name": "amount",
          "type": "uint256"
        }
      ],
      "name": "burn",
      "outputs": [],
      "stateMutability": "nonpayable",
      "type": "function"
    },
    {
      "inputs": [
        {
          "internalType": "address",
          "name": "from",
          "type": "address"
        },
        {
          "internalType": "uint256[]",
          "name": "ids",
          "type": "uint256[]"
        },
        {
          "internalType": "uint256[]",
          "name": "amounts",
          "type": "uint256[]"
        }
      ],
      "name": "burnBatch",
      "outputs": [],
      "stateMutability": "nonpayable",
      "type": "function"
    },
    {
      "inputs": [
        {
          "internalType": "bytes4",
          "name": "interfaceId",
          "type": "bytes4"
        }
      ],
      "name": "supportsInterface",
      "outputs": [
        {
          "internalType": "bool",
          "name": "",
          "type": "bool"
        }
      ],
      "stateMutability": "view",
      "type": "function",
      "constant": true
    }
  ],
  "bytecode": "0x60806040523480156200001157600080fd5b50604051620033c1380380620033c18339810160408190526200003491620002e9565b80806200004181620000b9565b506005805460ff1916905562000059600033620000d2565b620000857f9f2df0fed2c77648de5860a4cc508cd0818c85b8b8a1ab4ceeef8d981c8956a633620000d2565b620000b17f65d7a28e3265b37a6474929f336521b332c1681b933f6cb9f3376673440d862a33620000d2565b505062000402565b8051620000ce9060049060208401906200022d565b5050565b620000ce8282620000ef82826200011b60201b62000bc21760201c565b60008281526001602090815260409091206200011691839062000c46620001bb821b17901c565b505050565b6000828152602081815260408083206001600160a01b038516845290915290205460ff16620000ce576000828152602081815260408083206001600160a01b03851684529091529020805460ff19166001179055620001773390565b6001600160a01b0316816001600160a01b0316837f2f8788117e7eff1d82e926ec794901d17c78024a50270940304540a733656f0d60405160405180910390a45050565b6000620001d2836001600160a01b038416620001db565b90505b92915050565b60008181526001830160205260408120546200022457508154600181810184556000848152602080822090930184905584548482528286019093526040902091909155620001d5565b506000620001d5565b8280546200023b90620003c5565b90600052602060002090601f0160209004810192826200025f5760008555620002aa565b82601f106200027a57805160ff1916838001178555620002aa565b82800160010185558215620002aa579182015b82811115620002aa5782518255916020019190600101906200028d565b50620002b8929150620002bc565b5090565b5b80821115620002b85760008155600101620002bd565b634e487b7160e01b600052604160045260246000fd5b60006020808385031215620002fd57600080fd5b82516001600160401b03808211156200031557600080fd5b818501915085601f8301126200032a57600080fd5b8151818111156200033f576200033f620002d3565b604051601f8201601f19908116603f011681019083821181831017156200036a576200036a620002d3565b8160405282815288868487010111156200038357600080fd5b600093505b82841015620003a7578484018601518185018701529285019262000388565b82841115620003b95760008684830101525b98975050505050505050565b600181811c90821680620003da57607f821691505b60208210811415620003fc57634e487b7160e01b600052602260045260246000fd5b50919050565b612faf80620004126000396000f3fe608060405234801561001057600080fd5b50600436106101e45760003560e01c80638456cb591161010f578063c588ff8b116100a2578063e63ab1e911610071578063e63ab1e91461049e578063e985e9c5146104c5578063f242432a14610501578063f5298aca1461051457600080fd5b8063c588ff8b14610431578063ca15c87314610451578063d539139314610464578063d547741f1461048b57600080fd5b8063a217fddf116100de578063a217fddf146103d6578063a22cb465146103de578063af005da8146103f1578063bd85b0391461041157600080fd5b80638456cb591461037f5780639010d07c1461038757806391d148541461039a578063a0f45b69146103ad57600080fd5b806336568abe116101875780635c975abb116101565780635c975abb1461030d5780636352211e146103185780636b20c45414610359578063731133e91461036c57600080fd5b806336568abe146102b05780633f4ba83a146102c35780634e1273f4146102cb5780634f558e79146102eb57600080fd5b80631f7fdffa116101c35780631f7fdffa14610252578063248a9ca3146102675780632eb2c2d61461028a5780632f2ff15d1461029d57600080fd5b8062fdd58e146101e957806301ffc9a71461020f5780630e89341c14610232575b600080fd5b6101fc6101f736600461229f565b610527565b6040519081526020015b60405180910390f35b61022261021d3660046122e2565b6105c3565b6040519015158152602001610206565b6102456102403660046122ff565b6105ce565b6040516102069190612370565b6102656102603660046124cc565b610662565b005b6101fc6102753660046122ff565b60009081526020819052604090206001015490565b6102656102983660046125f0565b61067e565b6102656102ab3660046126aa565b610769565b6102656102be3660046126aa565b610794565b610265610812565b6102de6102d93660046126d6565b6108b8565b60405161020691906127db565b6102226102f93660046122ff565b600090815260066020526040902054151590565b60055460ff16610222565b6103416103263660046122ff565b6000908152600760205260409020546001600160a01b031690565b6040516001600160a01b039091168152602001610206565b6102656103673660046127ee565b6109e1565b61026561037a366004612861565b6109f6565b610265610a14565b6103416103953660046128b5565b610ab8565b6102226103a83660046126aa565b610ad7565b6103416103bb3660046122ff565b6007602052600090815260409020546001600160a01b031681565b6101fc600081565b6102656103ec3660046128d7565b610b00565b6101fc6103ff3660046122ff565b60086020526000908152604090205481565b6101fc61041f3660046122ff565b60009081526006602052604090205490565b6101fc61043f3660046122ff565b60009081526008602052604090205490565b6101fc61045f3660046122ff565b610b0b565b6101fc7f9f2df0fed2c77648de5860a4cc508cd0818c85b8b8a1ab4ceeef8d981c8956a681565b6102656104993660046126aa565b610b22565b6101fc7f65d7a28e3265b37a6474929f336521b332c1681b933f6cb9f3376673440d862a81565b6102226104d3366004612913565b6001600160a01b03918216600090815260036020908152604080832093909416825291909152205460ff1690565b61026561050f36600461293d565b610b48565b6102656105223660046129b4565b610ba5565b60006001600160a01b0383166105985760405162461bcd60e51b815260206004820152602b60248201527f455243313135353a2062616c616e636520717565727920666f7220746865207a60448201526a65726f206164647265737360a81b60648201526084015b60405180910390fd5b5060008181526002602090815260408083206001600160a01b03861684529091529020545b92915050565b60006105bd82610c5b565b6060600480546105dd906129e7565b80601f0160208091040260200160405190810160405280929190818152602001828054610609906129e7565b80156106565780601f1061062b57610100808354040283529160200191610656565b820191906000526020600020905b81548152906001019060200180831161063957829003601f168201915b50505050509050919050565b61066e84848484610c66565b6106788385610cb8565b50505050565b610721888888888080602002602001604051908101604052809392919081815260200183836020028082843760009201919091525050604080516020808c0282810182019093528b82529093508b92508a91829185019084908082843760009201919091525050604080516020601f8b018190048102820181019092528981529250899150889081908401838280828437600092019190915250610dc992505050565b61075f8686808060200260200160405190810160405280939291908181526020018383602002808284376000920191909152508b9250610cb8915050565b5050505050505050565b6000828152602081905260409020600101546107858133610e60565b61078f8383610ec4565b505050565b6001600160a01b03811633146108045760405162461bcd60e51b815260206004820152602f60248201527f416363657373436f6e74726f6c3a2063616e206f6e6c792072656e6f756e636560448201526e103937b632b9903337b91039b2b63360891b606482015260840161058f565b61080e8282610ee6565b5050565b61083c7f65d7a28e3265b37a6474929f336521b332c1681b933f6cb9f3376673440d862a33610ad7565b6108ae5760405162461bcd60e51b815260206004820152603b60248201527f455243313135355072657365744d696e7465725061757365723a206d7573742060448201527f686176652070617573657220726f6c6520746f20756e70617573650000000000606482015260840161058f565b6108b6610f08565b565b6060815183511461091d5760405162461bcd60e51b815260206004820152602960248201527f455243313135353a206163636f756e747320616e6420696473206c656e677468604482015268040dad2e6dac2e8c6d60bb1b606482015260840161058f565b600083516001600160401b0381111561093857610938612383565b604051908082528060200260200182016040528015610961578160200160208202803683370190505b50905060005b84518110156109d9576109ac85828151811061098557610985612a22565b602002602001015185838151811061099f5761099f612a22565b6020026020010151610527565b8282815181106109be576109be612a22565b60209081029190910101526109d281612a4e565b9050610967565b509392505050565b6109ec838383610f9b565b61078f8284610cb8565b610a0284848484610fde565b610678610a0e84611030565b85610cb8565b610a3e7f65d7a28e3265b37a6474929f336521b332c1681b933f6cb9f3376673440d862a33610ad7565b610ab05760405162461bcd60e51b815260206004820152603960248201527f455243313135355072657365744d696e7465725061757365723a206d7573742060448201527f686176652070617573657220726f6c6520746f20706175736500000000000000606482015260840161058f565b6108b661107b565b6000828152600160205260408120610ad090836110f6565b9392505050565b6000918252602082815260408084206001600160a01b0393909316845291905290205460ff1690565b61080e338383611102565b60008181526001602052604081206105bd906111e3565b600082815260208190526040902060010154610b3e8133610e60565b61078f8383610ee6565b610b8b8686868686868080601f0160208091040260200160405190810160405280939291908181526020018383808284376000920191909152506111ed92505050565b610b9d610b9785611030565b86610cb8565b505050505050565b610bb0838383611232565b61078f610bbc83611030565b84610cb8565b610bcc8282610ad7565b61080e576000828152602081815260408083206001600160a01b03851684529091529020805460ff19166001179055610c023390565b6001600160a01b0316816001600160a01b0316837f2f8788117e7eff1d82e926ec794901d17c78024a50270940304540a733656f0d60405160405180910390a45050565b6000610ad0836001600160a01b038416611275565b60006105bd826112c4565b610c907f9f2df0fed2c77648de5860a4cc508cd0818c85b8b8a1ab4ceeef8d981c8956a633610ad7565b610cac5760405162461bcd60e51b815260040161058f90612a69565b61067884848484611304565b60005b825181101561078f57610cda8284838151811061099f5761099f612a22565b610d09848381518110610cef57610cef612a22565b602002602001015160009081526006602052604090205490565b14610d6557600060076000858481518110610d2657610d26612a22565b6020026020010151815260200190815260200160002060006101000a8154816001600160a01b0302191690836001600160a01b03160217905550610db7565b8160076000858481518110610d7c57610d7c612a22565b6020026020010151815260200190815260200160002060006101000a8154816001600160a01b0302191690836001600160a01b031602179055505b80610dc181612a4e565b915050610cbb565b6001600160a01b038516331480610de55750610de585336104d3565b610e4c5760405162461bcd60e51b815260206004820152603260248201527f455243313135353a207472616e736665722063616c6c6572206973206e6f74206044820152711bdddb995c881b9bdc88185c1c1c9bdd995960721b606482015260840161058f565b610e59858585858561145f565b5050505050565b610e6a8282610ad7565b61080e57610e82816001600160a01b03166014611604565b610e8d836020611604565b604051602001610e9e929190612ac6565b60408051601f198184030181529082905262461bcd60e51b825261058f91600401612370565b610ece8282610bc2565b600082815260016020526040902061078f9082610c46565b610ef0828261179f565b600082815260016020526040902061078f9082611804565b60055460ff16610f515760405162461bcd60e51b815260206004820152601460248201527314185d5cd8589b194e881b9bdd081c185d5cd95960621b604482015260640161058f565b6005805460ff191690557f5db9ee0a495bf2e6ff9c91a7834c1ba4fdd244a5e8aa4e537bd38aeae4b073aa335b6040516001600160a01b03909116815260200160405180910390a1565b6001600160a01b038316331480610fb75750610fb783336104d3565b610fd35760405162461bcd60e51b815260040161058f90612b3b565b61078f838383611819565b6110087f9f2df0fed2c77648de5860a4cc508cd0818c85b8b8a1ab4ceeef8d981c8956a633610ad7565b6110245760405162461bcd60e51b815260040161058f90612a69565b610678848484846119aa565b6040805160018082528183019092526060916000919060208083019080368337019050509050828160008151811061106a5761106a612a22565b602090810291909101015292915050565b60055460ff16156110c15760405162461bcd60e51b815260206004820152601060248201526f14185d5cd8589b194e881c185d5cd95960821b604482015260640161058f565b6005805460ff191660011790557f62e78cea01bee320cd4e420270b5ea74000d11b0c9f74754ebdbfc544b05a258610f7e3390565b6000610ad08383611a82565b816001600160a01b0316836001600160a01b031614156111765760405162461bcd60e51b815260206004820152602960248201527f455243313135353a2073657474696e6720617070726f76616c20737461747573604482015268103337b91039b2b63360b91b606482015260840161058f565b6001600160a01b03838116600081815260036020908152604080832094871680845294825291829020805460ff191686151590811790915591519182527f17307eab39ab6107e8899845ad3d59bd9653f200f220920489ca2b5937696c31910160405180910390a3505050565b60006105bd825490565b6001600160a01b038516331480611209575061120985336104d3565b6112255760405162461bcd60e51b815260040161058f90612b3b565b610e598585858585611aac565b6001600160a01b03831633148061124e575061124e83336104d3565b61126a5760405162461bcd60e51b815260040161058f90612b3b565b61078f838383611bcd565b60008181526001830160205260408120546112bc575081546001818101845560008481526020808220909301849055845484825282860190935260409020919091556105bd565b5060006105bd565b60006001600160e01b03198216636cdb3d1360e11b14806112f557506001600160e01b031982166303a24d0760e21b145b806105bd57506105bd82611cd2565b6001600160a01b03841661132a5760405162461bcd60e51b815260040161058f90612b84565b815183511461134b5760405162461bcd60e51b815260040161058f90612bc5565b3361135b81600087878787611cf7565b60005b84518110156113f75783818151811061137957611379612a22565b60200260200101516002600087848151811061139757611397612a22565b602002602001015181526020019081526020016000206000886001600160a01b03166001600160a01b0316815260200190815260200160002060008282546113df9190612c0d565b909155508190506113ef81612a4e565b91505061135e565b50846001600160a01b031660006001600160a01b0316826001600160a01b03167f4a39dc06d4c0dbc64b70af90fd698a233a518aa5d07e595d983b8c0526c8f7fb8787604051611448929190612c25565b60405180910390a4610e5981600087878787611db9565b81518351146114805760405162461bcd60e51b815260040161058f90612bc5565b6001600160a01b0384166114a65760405162461bcd60e51b815260040161058f90612c53565b336114b5818787878787611cf7565b60005b845181101561159e5760008582815181106114d5576114d5612a22565b6020026020010151905060008583815181106114f3576114f3612a22565b60209081029190910181015160008481526002835260408082206001600160a01b038e1683529093529190912054909150818110156115445760405162461bcd60e51b815260040161058f90612c98565b60008381526002602090815260408083206001600160a01b038e8116855292528083208585039055908b16825281208054849290611583908490612c0d565b925050819055505050508061159790612a4e565b90506114b8565b50846001600160a01b0316866001600160a01b0316826001600160a01b03167f4a39dc06d4c0dbc64b70af90fd698a233a518aa5d07e595d983b8c0526c8f7fb87876040516115ee929190612c25565b60405180910390a4610b9d818787878787611db9565b60606000611613836002612ce2565b61161e906002612c0d565b6001600160401b0381111561163557611635612383565b6040519080825280601f01601f19166020018201604052801561165f576020820181803683370190505b509050600360fc1b8160008151811061167a5761167a612a22565b60200101906001600160f81b031916908160001a905350600f60fb1b816001815181106116a9576116a9612a22565b60200101906001600160f81b031916908160001a90535060006116cd846002612ce2565b6116d8906001612c0d565b90505b6001811115611750576f181899199a1a9b1b9c1cb0b131b232b360811b85600f166010811061170c5761170c612a22565b1a60f81b82828151811061172257611722612a22565b60200101906001600160f81b031916908160001a90535060049490941c9361174981612d01565b90506116db565b508315610ad05760405162461bcd60e51b815260206004820181905260248201527f537472696e67733a20686578206c656e67746820696e73756666696369656e74604482015260640161058f565b6117a98282610ad7565b1561080e576000828152602081815260408083206001600160a01b0385168085529252808320805460ff1916905551339285917ff6391f5c32d9c69d2a47ea670b442974b53935d1edc7fd64eb21e047a839171b9190a45050565b6000610ad0836001600160a01b038416611f15565b6001600160a01b03831661183f5760405162461bcd60e51b815260040161058f90612d18565b80518251146118605760405162461bcd60e51b815260040161058f90612bc5565b600033905061188381856000868660405180602001604052806000815250611cf7565b60005b835181101561194b5760008482815181106118a3576118a3612a22565b6020026020010151905060008483815181106118c1576118c1612a22565b60209081029190910181015160008481526002835260408082206001600160a01b038c1683529093529190912054909150818110156119125760405162461bcd60e51b815260040161058f90612d5b565b60009283526002602090815260408085206001600160a01b038b168652909152909220910390558061194381612a4e565b915050611886565b5060006001600160a01b0316846001600160a01b0316826001600160a01b03167f4a39dc06d4c0dbc64b70af90fd698a233a518aa5d07e595d983b8c0526c8f7fb868660405161199c929190612c25565b60405180910390a450505050565b6001600160a01b0384166119d05760405162461bcd60e51b815260040161058f90612b84565b336119f0816000876119e188611030565b6119ea88611030565b87611cf7565b60008481526002602090815260408083206001600160a01b038916845290915281208054859290611a22908490612c0d565b909155505060408051858152602081018590526001600160a01b0380881692600092918516917fc3d58168c5ae7397731d063d5bbf3d657854427343f4c083240f7aacaa2d0f62910160405180910390a4610e5981600087878787612008565b6000826000018281548110611a9957611a99612a22565b9060005260206000200154905092915050565b6001600160a01b038416611ad25760405162461bcd60e51b815260040161058f90612c53565b33611ae28187876119e188611030565b60008481526002602090815260408083206001600160a01b038a16845290915290205483811015611b255760405162461bcd60e51b815260040161058f90612c98565b60008581526002602090815260408083206001600160a01b038b8116855292528083208785039055908816825281208054869290611b64908490612c0d565b909155505060408051868152602081018690526001600160a01b03808916928a821692918616917fc3d58168c5ae7397731d063d5bbf3d657854427343f4c083240f7aacaa2d0f62910160405180910390a4611bc4828888888888612008565b50505050505050565b6001600160a01b038316611bf35760405162461bcd60e51b815260040161058f90612d18565b33611c2281856000611c0487611030565b611c0d87611030565b60405180602001604052806000815250611cf7565b60008381526002602090815260408083206001600160a01b038816845290915290205482811015611c655760405162461bcd60e51b815260040161058f90612d5b565b60008481526002602090815260408083206001600160a01b03898116808652918452828520888703905582518981529384018890529092908616917fc3d58168c5ae7397731d063d5bbf3d657854427343f4c083240f7aacaa2d0f62910160405180910390a45050505050565b60006001600160e01b03198216635a05180f60e01b14806105bd57506105bd826120c3565b6001600160a01b038516611dab576000805b6020811015611d5757611d1d816008612ce2565b838281518110611d2f57611d2f612a22565b01602001516001600160f81b031916901c919091179080611d4f81612a4e565b915050611d09565b5060005b8451811015611da8578160086000878481518110611d7b57611d7b612a22565b60200260200101518152602001908152602001600020819055508080611da090612a4e565b915050611d5b565b50505b610b9d8686868686866120f8565b6001600160a01b0384163b15610b9d5760405163bc197c8160e01b81526001600160a01b0385169063bc197c8190611dfd9089908990889088908890600401612d9f565b6020604051808303816000875af1925050508015611e38575060408051601f3d908101601f19168201909252611e3591810190612dfd565b60015b611ee557611e44612e1a565b806308c379a01415611e7e5750611e59612e36565b80611e645750611e80565b8060405162461bcd60e51b815260040161058f9190612370565b505b60405162461bcd60e51b815260206004820152603460248201527f455243313135353a207472616e7366657220746f206e6f6e20455243313135356044820152732932b1b2b4bb32b91034b6b83632b6b2b73a32b960611b606482015260840161058f565b6001600160e01b0319811663bc197c8160e01b14611bc45760405162461bcd60e51b815260040161058f90612ebf565b60008181526001830160205260408120548015611ffe576000611f39600183612f07565b8554909150600090611f4d90600190612f07565b9050818114611fb2576000866000018281548110611f6d57611f6d612a22565b9060005260206000200154905080876000018481548110611f9057611f90612a22565b6000918252602080832090910192909255918252600188019052604090208390555b8554869080611fc357611fc3612f1e565b6001900381819060005260206000200160009055905585600101600086815260200190815260200160002060009055600193505050506105bd565b60009150506105bd565b6001600160a01b0384163b15610b9d5760405163f23a6e6160e01b81526001600160a01b0385169063f23a6e619061204c9089908990889088908890600401612f34565b6020604051808303816000875af1925050508015612087575060408051601f3d908101601f1916820190925261208491810190612dfd565b60015b61209357611e44612e1a565b6001600160e01b0319811663f23a6e6160e01b14611bc45760405162461bcd60e51b815260040161058f90612ebf565b60006001600160e01b03198216637965db0b60e01b14806105bd57506301ffc9a760e01b6001600160e01b03198316146105bd565b612106868686868686612212565b6001600160a01b03851661218d5760005b835181101561218b5782818151811061213257612132612a22565b60200260200101516006600086848151811061215057612150612a22565b6020026020010151815260200190815260200160002060008282546121759190612c0d565b90915550612184905081612a4e565b9050612117565b505b6001600160a01b038416610b9d5760005b8351811015611bc4578281815181106121b9576121b9612a22565b6020026020010151600660008684815181106121d7576121d7612a22565b6020026020010151815260200190815260200160002060008282546121fc9190612f07565b9091555061220b905081612a4e565b905061219e565b610b9d86868686868660055460ff1615610b9d5760405162461bcd60e51b815260206004820152602c60248201527f455243313135355061757361626c653a20746f6b656e207472616e736665722060448201526b1dda1a5b19481c185d5cd95960a21b606482015260840161058f565b80356001600160a01b038116811461229a57600080fd5b919050565b600080604083850312156122b257600080fd5b6122bb83612283565b946020939093013593505050565b6001600160e01b0319811681146122df57600080fd5b50565b6000602082840312156122f457600080fd5b8135610ad0816122c9565b60006020828403121561231157600080fd5b5035919050565b60005b8381101561233357818101518382015260200161231b565b838111156106785750506000910152565b6000815180845261235c816020860160208601612318565b601f01601f19169290920160200192915050565b602081526000610ad06020830184612344565b634e487b7160e01b600052604160045260246000fd5b601f8201601f191681016001600160401b03811182821017156123be576123be612383565b6040525050565b60006001600160401b038211156123de576123de612383565b5060051b60200190565b600082601f8301126123f957600080fd5b81356020612406826123c5565b6040516124138282612399565b83815260059390931b850182019282810191508684111561243357600080fd5b8286015b8481101561244e5780358352918301918301612437565b509695505050505050565b600082601f83011261246a57600080fd5b81356001600160401b0381111561248357612483612383565b60405161249a601f8301601f191660200182612399565b8181528460208386010111156124af57600080fd5b816020850160208301376000918101602001919091529392505050565b600080600080608085870312156124e257600080fd5b6124eb85612283565b935060208501356001600160401b038082111561250757600080fd5b612513888389016123e8565b9450604087013591508082111561252957600080fd5b612535888389016123e8565b9350606087013591508082111561254b57600080fd5b5061255887828801612459565b91505092959194509250565b60008083601f84011261257657600080fd5b5081356001600160401b0381111561258d57600080fd5b6020830191508360208260051b85010111156125a857600080fd5b9250929050565b60008083601f8401126125c157600080fd5b5081356001600160401b038111156125d857600080fd5b6020830191508360208285010111156125a857600080fd5b60008060008060008060008060a0898b03121561260c57600080fd5b61261589612283565b975061262360208a01612283565b965060408901356001600160401b038082111561263f57600080fd5b61264b8c838d01612564565b909850965060608b013591508082111561266457600080fd5b6126708c838d01612564565b909650945060808b013591508082111561268957600080fd5b506126968b828c016125af565b999c989b5096995094979396929594505050565b600080604083850312156126bd57600080fd5b823591506126cd60208401612283565b90509250929050565b600080604083850312156126e957600080fd5b82356001600160401b038082111561270057600080fd5b818501915085601f83011261271457600080fd5b81356020612721826123c5565b60405161272e8282612399565b83815260059390931b850182019282810191508984111561274e57600080fd5b948201945b838610156127735761276486612283565b82529482019490820190612753565b9650508601359250508082111561278957600080fd5b50612796858286016123e8565b9150509250929050565b600081518084526020808501945080840160005b838110156127d0578151875295820195908201906001016127b4565b509495945050505050565b602081526000610ad060208301846127a0565b60008060006060848603121561280357600080fd5b61280c84612283565b925060208401356001600160401b038082111561282857600080fd5b612834878388016123e8565b9350604086013591508082111561284a57600080fd5b50612857868287016123e8565b9150509250925092565b6000806000806080858703121561287757600080fd5b61288085612283565b9350602085013592506040850135915060608501356001600160401b038111156128a957600080fd5b61255887828801612459565b600080604083850312156128c857600080fd5b50508035926020909101359150565b600080604083850312156128ea57600080fd5b6128f383612283565b91506020830135801515811461290857600080fd5b809150509250929050565b6000806040838503121561292657600080fd5b61292f83612283565b91506126cd60208401612283565b60008060008060008060a0878903121561295657600080fd5b61295f87612283565b955061296d60208801612283565b9450604087013593506060870135925060808701356001600160401b0381111561299657600080fd5b6129a289828a016125af565b979a9699509497509295939492505050565b6000806000606084860312156129c957600080fd5b6129d284612283565b95602085013595506040909401359392505050565b600181811c908216806129fb57607f821691505b60208210811415612a1c57634e487b7160e01b600052602260045260246000fd5b50919050565b634e487b7160e01b600052603260045260246000fd5b634e487b7160e01b600052601160045260246000fd5b6000600019821415612a6257612a62612a38565b5060010190565b60208082526038908201527f455243313135355072657365744d696e7465725061757365723a206d7573742060408201527f68617665206d696e74657220726f6c6520746f206d696e740000000000000000606082015260800190565b7f416363657373436f6e74726f6c3a206163636f756e7420000000000000000000815260008351612afe816017850160208801612318565b7001034b99036b4b9b9b4b733903937b6329607d1b6017918401918201528351612b2f816028840160208801612318565b01602801949350505050565b60208082526029908201527f455243313135353a2063616c6c6572206973206e6f74206f776e6572206e6f7260408201526808185c1c1c9bdd995960ba1b606082015260800190565b60208082526021908201527f455243313135353a206d696e7420746f20746865207a65726f206164647265736040820152607360f81b606082015260800190565b60208082526028908201527f455243313135353a2069647320616e6420616d6f756e7473206c656e677468206040820152670dad2e6dac2e8c6d60c31b606082015260800190565b60008219821115612c2057612c20612a38565b500190565b604081526000612c3860408301856127a0565b8281036020840152612c4a81856127a0565b95945050505050565b60208082526025908201527f455243313135353a207472616e7366657220746f20746865207a65726f206164604082015264647265737360d81b606082015260800190565b6020808252602a908201527f455243313135353a20696e73756666696369656e742062616c616e636520666f60408201526939103a3930b739b332b960b11b606082015260800190565b6000816000190483118215151615612cfc57612cfc612a38565b500290565b600081612d1057612d10612a38565b506000190190565b60208082526023908201527f455243313135353a206275726e2066726f6d20746865207a65726f206164647260408201526265737360e81b606082015260800190565b60208082526024908201527f455243313135353a206275726e20616d6f756e7420657863656564732062616c604082015263616e636560e01b606082015260800190565b6001600160a01b0386811682528516602082015260a060408201819052600090612dcb908301866127a0565b8281036060840152612ddd81866127a0565b90508281036080840152612df18185612344565b98975050505050505050565b600060208284031215612e0f57600080fd5b8151610ad0816122c9565b600060033d1115612e335760046000803e5060005160e01c5b90565b600060443d1015612e445790565b6040516003193d81016004833e81513d6001600160401b038160248401118184111715612e7357505050505090565b8285019150815181811115612e8b5750505050505090565b843d8701016020828501011115612ea55750505050505090565b612eb460208286010187612399565b509095945050505050565b60208082526028908201527f455243313135353a204552433131353552656365697665722072656a656374656040820152676420746f6b656e7360c01b606082015260800190565b600082821015612f1957612f19612a38565b500390565b634e487b7160e01b600052603160045260246000fd5b6001600160a01b03868116825285166020820152604081018490526060810183905260a060808201819052600090612f6e90830184612344565b97965050505050505056fea2646970667358221220280e4ca8e4e3f9e0ff87a63d9024796883d8992fd2f2225f4508a6ba919df4df64736f6c634300080b0033",
  "immutableReferences": {},
  "source": "/**\n * FireZard ERC1155 NFT for storinfg game characters and items (both stackable and unstackable)\n */\n\npragma solidity ^0.8.0;\n\nimport \"@openzeppelin/contracts/token/ERC1155/presets/ERC1155PresetMinterPauser.sol\";\nimport \"@openzeppelin/contracts/token/ERC1155/extensions/ERC1155Supply.sol\";\n//import \"@openzeppelin/contracts/token/ERC721/IERC721.sol\";\n//import \"@openzeppelin/contracts/token/ERC721/extensions/IERC721Metadata.sol\";\n\n//contract FireZardNFT is ERC1155PresetMinterPauser, ERC1155Supply, IERC721, IERC721Metadata {\ncontract FireZardNFT is ERC1155PresetMinterPauser, ERC1155Supply {\n\n    mapping(uint256 => address) public ownership;\n\n    mapping(uint256 => bytes32) public token_type;\n\n    constructor(string memory uri) ERC1155PresetMinterPauser(uri) {\n\t\n    }\n\n    function _beforeTokenTransfer(\n        address operator,\n        address from,\n        address to,\n        uint256[] memory ids,\n        uint256[] memory amounts,\n        bytes memory data\n    ) internal virtual override(ERC1155PresetMinterPauser, ERC1155Supply) {\n\tif(from == address(0)){\n\t    bytes32 _token_type;\n\n\t    for(uint i=0;i<32;i++)\n\t\t_token_type |= bytes32(data[i] & 0xFF) >> (i*8);\n\n\t    for(uint i=0;i<ids.length;i++)\n\t\ttoken_type[ids[i]] = _token_type;\n\t}\n\tsuper._beforeTokenTransfer(operator, from, to, ids, amounts, data);\n    }\n\n    function typeOf(uint256 id) public view returns (bytes32) {\n\treturn token_type[id];\n    }\n\n    function ownerOf(uint256 id) public view returns (address) {\n\treturn ownership[id];\n    }\n    \n    function updateOwnership(uint256[] memory ids, address owner) internal {\n    \tfor(uint i=0;i<ids.length;i++){\n    \t\tif(totalSupply(ids[i]) != balanceOf(owner,ids[i]))\n    \t\t\townership[ids[i]] = address(0);\n    \t\telse\n    \t\t\townership[ids[i]] = owner;\n    \t}\n    }\n    \n    /**\n     * @dev Transfers `amount` tokens of token type `id` from `from` to `to`.\n     *\n     * Emits a {TransferSingle} event.\n     *\n     * Requirements:\n     *\n     * - `to` cannot be the zero address.\n     * - If the caller is not `from`, it must be have been approved to spend ``from``'s tokens via {setApprovalForAll}.\n     * - `from` must have a balance of tokens of type `id` of at least `amount`.\n     * - If `to` refers to a smart contract, it must implement {IERC1155Receiver-onERC1155Received} and return the\n     * acceptance magic value.\n     */\n    function safeTransferFrom(\n        address from,\n        address to,\n        uint256 id,\n        uint256 amount,\n        bytes calldata data\n    ) public virtual override {\n    \tsuper.safeTransferFrom(from, to, id, amount, data);\n    \tupdateOwnership(asSingletonArray(id), to);\n    }\n\n    /**\n     * @dev xref:ROOT:erc1155.adoc#batch-operations[Batched] version of {safeTransferFrom}.\n     *\n     * Emits a {TransferBatch} event.\n     *\n     * Requirements:\n     *\n     * - `ids` and `amounts` must have the same length.\n     * - If `to` refers to a smart contract, it must implement {IERC1155Receiver-onERC1155BatchReceived} and return the\n     * acceptance magic value.\n     */\n    function safeBatchTransferFrom(\n        address from,\n        address to,\n        uint256[] calldata ids,\n        uint256[] calldata amounts,\n        bytes calldata data\n    ) public virtual override {\n    \tsuper.safeBatchTransferFrom(from, to, ids, amounts, data);\n    \tupdateOwnership(ids,to);\n    }\n\n    /**\n     * @dev Creates `amount` tokens of token type `id`, and assigns them to `to`.\n     *\n     * Emits a {TransferSingle} event.\n     *\n     * Requirements:\n     *\n     * - `to` cannot be the zero address.\n     * - If `to` refers to a smart contract, it must implement {IERC1155Receiver-onERC1155Received} and return the\n     * acceptance magic value.\n     */\n    function mint(\n        address to,\n        uint256 id,\n        uint256 amount,\n        bytes memory data\n    ) public virtual override {\n\tsuper.mint(to, id, amount, data);\n\tupdateOwnership(asSingletonArray(id), to);\n    }\n\n    function mintBatch(\n        address to,\n        uint256[] memory ids,\n        uint256[] memory amounts,\n        bytes memory data\n    ) public virtual override {\n    \tsuper.mintBatch(to, ids, amounts, data);\n    \tupdateOwnership(ids, to);\n    }\n    \n    /**\n     * @dev Destroys `amount` tokens of token type `id` from `from`\n     *\n     * Requirements:\n     *\n     * - `from` cannot be the zero address.\n     * - `from` must have at least `amount` tokens of token type `id`.\n     */\n    function burn(\n        address from,\n        uint256 id,\n        uint256 amount\n    ) public virtual override {\n\tsuper.burn(from, id, amount);\n    \tupdateOwnership(asSingletonArray(id), from);\n    }\n    \n    /**\n     * @dev xref:ROOT:erc1155.adoc#batch-operations[Batched] version of {_burn}.\n     *\n     * Requirements:\n     *\n     * - `ids` and `amounts` must have the same length.\n     */\n    function burnBatch(\n        address from,\n        uint256[] memory ids,\n        uint256[] memory amounts\n    ) public virtual override {\n\tsuper.burnBatch(from, ids, amounts);\n\tupdateOwnership(ids, from);\n    }\n\n    function asSingletonArray(uint256 element) private pure returns (uint256[] memory) {\n        uint256[] memory array = new uint256[](1);\n        array[0] = element;\n\n        return array;\n    }\n\n    /**\n     * @dev See {IERC165-supportsInterface}.\n     */\n    function supportsInterface(bytes4 interfaceId)\n        public\n        view\n        virtual\n        override(ERC1155PresetMinterPauser, ERC1155)\n        returns (bool)\n    {\n        return super.supportsInterface(interfaceId);\n    }\n\n\n}\n",
  "sourcePath": "/home/vrogojin/Projects/temp/FireZard/nft/contracts/FireZardNFT.sol",
  "compiler": {
    "name": "solc",
    "version": "0.8.11+commit.d7f03943.Emscripten.clang"
  },
  "schemaVersion": "3.4.4",
  "updatedAt": "2022-01-13T16:23:48.108Z",
  "networkType": "ethereum",
  "devdoc": {
    "kind": "dev",
    "methods": {
      "balanceOf(address,uint256)": {
        "details": "See {IERC1155-balanceOf}. Requirements: - `account` cannot be the zero address."
      },
      "balanceOfBatch(address[],uint256[])": {
        "details": "See {IERC1155-balanceOfBatch}. Requirements: - `accounts` and `ids` must have the same length."
      },
      "burn(address,uint256,uint256)": {
        "details": "Destroys `amount` tokens of token type `id` from `from` Requirements: - `from` cannot be the zero address. - `from` must have at least `amount` tokens of token type `id`."
      },
      "burnBatch(address,uint256[],uint256[])": {
        "details": "xref:ROOT:erc1155.adoc#batch-operations[Batched] version of {_burn}. Requirements: - `ids` and `amounts` must have the same length."
      },
      "exists(uint256)": {
        "details": "Indicates whether any token exist with a given id, or not."
      },
      "getRoleAdmin(bytes32)": {
        "details": "Returns the admin role that controls `role`. See {grantRole} and {revokeRole}. To change a role's admin, use {_setRoleAdmin}."
      },
      "getRoleMember(bytes32,uint256)": {
        "details": "Returns one of the accounts that have `role`. `index` must be a value between 0 and {getRoleMemberCount}, non-inclusive. Role bearers are not sorted in any particular way, and their ordering may change at any point. WARNING: When using {getRoleMember} and {getRoleMemberCount}, make sure you perform all queries on the same block. See the following https://forum.openzeppelin.com/t/iterating-over-elements-on-enumerableset-in-openzeppelin-contracts/2296[forum post] for more information."
      },
      "getRoleMemberCount(bytes32)": {
        "details": "Returns the number of accounts that have `role`. Can be used together with {getRoleMember} to enumerate all bearers of a role."
      },
      "grantRole(bytes32,address)": {
        "details": "Grants `role` to `account`. If `account` had not been already granted `role`, emits a {RoleGranted} event. Requirements: - the caller must have ``role``'s admin role."
      },
      "hasRole(bytes32,address)": {
        "details": "Returns `true` if `account` has been granted `role`."
      },
      "isApprovedForAll(address,address)": {
        "details": "See {IERC1155-isApprovedForAll}."
      },
      "mint(address,uint256,uint256,bytes)": {
        "details": "Creates `amount` tokens of token type `id`, and assigns them to `to`. Emits a {TransferSingle} event. Requirements: - `to` cannot be the zero address. - If `to` refers to a smart contract, it must implement {IERC1155Receiver-onERC1155Received} and return the acceptance magic value."
      },
      "mintBatch(address,uint256[],uint256[],bytes)": {
        "details": "xref:ROOT:erc1155.adoc#batch-operations[Batched] variant of {mint}."
      },
      "pause()": {
        "details": "Pauses all token transfers. See {ERC1155Pausable} and {Pausable-_pause}. Requirements: - the caller must have the `PAUSER_ROLE`."
      },
      "paused()": {
        "details": "Returns true if the contract is paused, and false otherwise."
      },
      "renounceRole(bytes32,address)": {
        "details": "Revokes `role` from the calling account. Roles are often managed via {grantRole} and {revokeRole}: this function's purpose is to provide a mechanism for accounts to lose their privileges if they are compromised (such as when a trusted device is misplaced). If the calling account had been revoked `role`, emits a {RoleRevoked} event. Requirements: - the caller must be `account`."
      },
      "revokeRole(bytes32,address)": {
        "details": "Revokes `role` from `account`. If `account` had been granted `role`, emits a {RoleRevoked} event. Requirements: - the caller must have ``role``'s admin role."
      },
      "safeBatchTransferFrom(address,address,uint256[],uint256[],bytes)": {
        "details": "xref:ROOT:erc1155.adoc#batch-operations[Batched] version of {safeTransferFrom}. Emits a {TransferBatch} event. Requirements: - `ids` and `amounts` must have the same length. - If `to` refers to a smart contract, it must implement {IERC1155Receiver-onERC1155BatchReceived} and return the acceptance magic value."
      },
      "safeTransferFrom(address,address,uint256,uint256,bytes)": {
        "details": "Transfers `amount` tokens of token type `id` from `from` to `to`. Emits a {TransferSingle} event. Requirements: - `to` cannot be the zero address. - If the caller is not `from`, it must be have been approved to spend ``from``'s tokens via {setApprovalForAll}. - `from` must have a balance of tokens of type `id` of at least `amount`. - If `to` refers to a smart contract, it must implement {IERC1155Receiver-onERC1155Received} and return the acceptance magic value."
      },
      "setApprovalForAll(address,bool)": {
        "details": "See {IERC1155-setApprovalForAll}."
      },
      "supportsInterface(bytes4)": {
        "details": "See {IERC165-supportsInterface}."
      },
      "totalSupply(uint256)": {
        "details": "Total amount of tokens in with a given id."
      },
      "unpause()": {
        "details": "Unpauses all token transfers. See {ERC1155Pausable} and {Pausable-_unpause}. Requirements: - the caller must have the `PAUSER_ROLE`."
      },
      "uri(uint256)": {
        "details": "See {IERC1155MetadataURI-uri}. This implementation returns the same URI for *all* token types. It relies on the token type ID substitution mechanism https://eips.ethereum.org/EIPS/eip-1155#metadata[defined in the EIP]. Clients calling this function must replace the `\\{id\\}` substring with the actual token type ID."
      }
    },
    "version": 1
  },
  "userdoc": {
    "kind": "user",
    "methods": {},
    "version": 1
  }
}