{
  "contractName": "FLAME_MOCK",
  "abi": [
    {
      "inputs": [],
      "stateMutability": "nonpayable",
      "type": "constructor"
    },
    {
      "anonymous": false,
      "inputs": [
        {
          "indexed": true,
          "internalType": "address",
          "name": "owner",
          "type": "address"
        },
        {
          "indexed": true,
          "internalType": "address",
          "name": "spender",
          "type": "address"
        },
        {
          "indexed": false,
          "internalType": "uint256",
          "name": "value",
          "type": "uint256"
        }
      ],
      "name": "Approval",
      "type": "event"
    },
    {
      "anonymous": false,
      "inputs": [
        {
          "indexed": true,
          "internalType": "address",
          "name": "previousOwner",
          "type": "address"
        },
        {
          "indexed": true,
          "internalType": "address",
          "name": "newOwner",
          "type": "address"
        }
      ],
      "name": "OwnershipTransferred",
      "type": "event"
    },
    {
      "anonymous": false,
      "inputs": [
        {
          "indexed": true,
          "internalType": "address",
          "name": "from",
          "type": "address"
        },
        {
          "indexed": true,
          "internalType": "address",
          "name": "to",
          "type": "address"
        },
        {
          "indexed": false,
          "internalType": "uint256",
          "name": "value",
          "type": "uint256"
        }
      ],
      "name": "Transfer",
      "type": "event"
    },
    {
      "inputs": [
        {
          "internalType": "address",
          "name": "spender",
          "type": "address"
        },
        {
          "internalType": "uint256",
          "name": "amount",
          "type": "uint256"
        }
      ],
      "name": "Approve",
      "outputs": [
        {
          "internalType": "bool",
          "name": "",
          "type": "bool"
        }
      ],
      "stateMutability": "nonpayable",
      "type": "function"
    },
    {
      "inputs": [
        {
          "internalType": "address",
          "name": "owner",
          "type": "address"
        },
        {
          "internalType": "address",
          "name": "spender",
          "type": "address"
        }
      ],
      "name": "allowance",
      "outputs": [
        {
          "internalType": "uint256",
          "name": "",
          "type": "uint256"
        }
      ],
      "stateMutability": "view",
      "type": "function"
    },
    {
      "inputs": [
        {
          "internalType": "address",
          "name": "spender",
          "type": "address"
        },
        {
          "internalType": "uint256",
          "name": "amount",
          "type": "uint256"
        }
      ],
      "name": "approve",
      "outputs": [
        {
          "internalType": "bool",
          "name": "",
          "type": "bool"
        }
      ],
      "stateMutability": "nonpayable",
      "type": "function"
    },
    {
      "inputs": [
        {
          "internalType": "address",
          "name": "account",
          "type": "address"
        }
      ],
      "name": "balanceOf",
      "outputs": [
        {
          "internalType": "uint256",
          "name": "",
          "type": "uint256"
        }
      ],
      "stateMutability": "view",
      "type": "function"
    },
    {
      "inputs": [],
      "name": "canAddMinter",
      "outputs": [
        {
          "internalType": "bool",
          "name": "",
          "type": "bool"
        }
      ],
      "stateMutability": "view",
      "type": "function"
    },
    {
      "inputs": [],
      "name": "decimals",
      "outputs": [
        {
          "internalType": "uint8",
          "name": "",
          "type": "uint8"
        }
      ],
      "stateMutability": "view",
      "type": "function"
    },
    {
      "inputs": [
        {
          "internalType": "address",
          "name": "spender",
          "type": "address"
        },
        {
          "internalType": "uint256",
          "name": "subtractedValue",
          "type": "uint256"
        }
      ],
      "name": "decreaseAllowance",
      "outputs": [
        {
          "internalType": "bool",
          "name": "",
          "type": "bool"
        }
      ],
      "stateMutability": "nonpayable",
      "type": "function"
    },
    {
      "inputs": [
        {
          "internalType": "address",
          "name": "spender",
          "type": "address"
        },
        {
          "internalType": "uint256",
          "name": "addedValue",
          "type": "uint256"
        }
      ],
      "name": "increaseAllowance",
      "outputs": [
        {
          "internalType": "bool",
          "name": "",
          "type": "bool"
        }
      ],
      "stateMutability": "nonpayable",
      "type": "function"
    },
    {
      "inputs": [
        {
          "internalType": "address",
          "name": "",
          "type": "address"
        }
      ],
      "name": "minters",
      "outputs": [
        {
          "internalType": "bool",
          "name": "",
          "type": "bool"
        }
      ],
      "stateMutability": "view",
      "type": "function"
    },
    {
      "inputs": [],
      "name": "name",
      "outputs": [
        {
          "internalType": "string",
          "name": "",
          "type": "string"
        }
      ],
      "stateMutability": "view",
      "type": "function"
    },
    {
      "inputs": [],
      "name": "owner",
      "outputs": [
        {
          "internalType": "address",
          "name": "",
          "type": "address"
        }
      ],
      "stateMutability": "view",
      "type": "function"
    },
    {
      "inputs": [],
      "name": "renounceOwnership",
      "outputs": [],
      "stateMutability": "nonpayable",
      "type": "function"
    },
    {
      "inputs": [],
      "name": "symbol",
      "outputs": [
        {
          "internalType": "string",
          "name": "",
          "type": "string"
        }
      ],
      "stateMutability": "view",
      "type": "function"
    },
    {
      "inputs": [],
      "name": "totalSupply",
      "outputs": [
        {
          "internalType": "uint256",
          "name": "",
          "type": "uint256"
        }
      ],
      "stateMutability": "view",
      "type": "function"
    },
    {
      "inputs": [
        {
          "internalType": "address",
          "name": "recipient",
          "type": "address"
        },
        {
          "internalType": "uint256",
          "name": "amount",
          "type": "uint256"
        }
      ],
      "name": "transfer",
      "outputs": [
        {
          "internalType": "bool",
          "name": "",
          "type": "bool"
        }
      ],
      "stateMutability": "nonpayable",
      "type": "function"
    },
    {
      "inputs": [
        {
          "internalType": "address",
          "name": "sender",
          "type": "address"
        },
        {
          "internalType": "address",
          "name": "recipient",
          "type": "address"
        },
        {
          "internalType": "uint256",
          "name": "amount",
          "type": "uint256"
        }
      ],
      "name": "transferFrom",
      "outputs": [
        {
          "internalType": "bool",
          "name": "",
          "type": "bool"
        }
      ],
      "stateMutability": "nonpayable",
      "type": "function"
    },
    {
      "inputs": [
        {
          "internalType": "address",
          "name": "newOwner",
          "type": "address"
        }
      ],
      "name": "transferOwnership",
      "outputs": [],
      "stateMutability": "nonpayable",
      "type": "function"
    },
    {
      "inputs": [
        {
          "internalType": "address",
          "name": "_to",
          "type": "address"
        },
        {
          "internalType": "uint256",
          "name": "_amount",
          "type": "uint256"
        }
      ],
      "name": "mint",
      "outputs": [],
      "stateMutability": "nonpayable",
      "type": "function"
    },
    {
      "inputs": [
        {
          "internalType": "address",
          "name": "account",
          "type": "address"
        }
      ],
      "name": "addMinter",
      "outputs": [],
      "stateMutability": "nonpayable",
      "type": "function"
    },
    {
      "inputs": [],
      "name": "StopAddingMinter",
      "outputs": [],
      "stateMutability": "nonpayable",
      "type": "function"
    },
    {
      "inputs": [
        {
          "internalType": "address",
          "name": "account",
          "type": "address"
        }
      ],
      "name": "removeMinter",
      "outputs": [],
      "stateMutability": "nonpayable",
      "type": "function"
    },
    {
      "inputs": [
        {
          "internalType": "uint256",
          "name": "amount",
          "type": "uint256"
        }
      ],
      "name": "burn",
      "outputs": [],
      "stateMutability": "nonpayable",
      "type": "function"
    },
    {
      "inputs": [
        {
          "internalType": "address",
          "name": "tokenAddress",
          "type": "address"
        },
        {
          "internalType": "address",
          "name": "recipient",
          "type": "address"
        },
        {
          "internalType": "uint256",
          "name": "amount",
          "type": "uint256"
        }
      ],
      "name": "transferAnyBEP20Tokens",
      "outputs": [],
      "stateMutability": "nonpayable",
      "type": "function"
    }
  ],
  "bytecode": "0x60806040526007805460ff191660011790553480156200001e57600080fd5b506040805180820182526005815264464c414d4560d81b60208083019182528351808501909452600684526524464c414d4560d01b9084015281519192916200006a916003916200022d565b508051620000809060049060208401906200022d565b50506005805460ff1916601217905550620000a26200009c3390565b620000bf565b620000b9336a084595161401484a00000062000119565b62000337565b600580546001600160a01b03838116610100818102610100600160a81b031985161790945560405193909204169182907f8be0079c531659141344cd1fd0a4f28419497f9722a3daafe3b4186f6b6457e090600090a35050565b6001600160a01b038216620001745760405162461bcd60e51b815260206004820152601f60248201527f42455032303a206d696e7420746f20746865207a65726f206164647265737300604482015260640160405180910390fd5b62000190816002546200021860201b6200090b1790919060201c565b6002556001600160a01b03821660009081526020818152604090912054620001c39183906200090b62000218821b17901c565b6001600160a01b038316600081815260208181526040808320949094559251848152919290917fddf252ad1be2c89b69c2b068fc378daa952ba7f163c4a11628f55a4df523b3ef910160405180910390a35050565b6000620002268284620002d3565b9392505050565b8280546200023b90620002fa565b90600052602060002090601f0160209004810192826200025f5760008555620002aa565b82601f106200027a57805160ff1916838001178555620002aa565b82800160010185558215620002aa579182015b82811115620002aa5782518255916020019190600101906200028d565b50620002b8929150620002bc565b5090565b5b80821115620002b85760008155600101620002bd565b60008219821115620002f557634e487b7160e01b600052601160045260246000fd5b500190565b600181811c908216806200030f57607f821691505b602082108114156200033157634e487b7160e01b600052602260045260246000fd5b50919050565b6111db80620003476000396000f3fe608060405234801561001057600080fd5b506004361061014d5760003560e01c806370a08231116100c3578063a457c2d71161007c578063a457c2d7146102bf578063a9059cbb146102d2578063cb5a1c4f146102e5578063dd62ed3e146102ed578063f2fde38b14610326578063f46eccc41461033957600080fd5b806370a0823114610237578063715018a6146102605780638da5cb5b1461026857806390ec57f11461029157806395d89b41146102a4578063983b2d56146102ac57600080fd5b806323b872dd1161011557806323b872dd146101c35780633092afd5146101d6578063313ce567146101e957806339509351146101fe57806340c10f191461021157806342966c681461022457600080fd5b80630222c35e1461015257806306fdde0314610174578063095ea7b31461018957806318160ddd1461019c5780631d813813146101ae575b600080fd5b60075461015f9060ff1681565b60405190151581526020015b60405180910390f35b61017c61035c565b60405161016b9190610eb5565b61015f610197366004610f26565b6103ee565b6002545b60405190815260200161016b565b6101c16101bc366004610f50565b610404565b005b61015f6101d1366004610f50565b610583565b6101c16101e4366004610f8c565b6105ec565b60055460405160ff909116815260200161016b565b61015f61020c366004610f26565b61063d565b6101c161021f366004610f26565b610673565b6101c1610232366004610fa7565b6106d9565b6101a0610245366004610f8c565b6001600160a01b031660009081526020819052604090205490565b6101c16106e6565b60055461010090046001600160a01b03166040516001600160a01b03909116815260200161016b565b61015f61029f366004610f26565b610722565b61017c61072f565b6101c16102ba366004610f8c565b61073e565b61015f6102cd366004610f26565b6107d5565b61015f6102e0366004610f26565b610824565b6101c1610831565b6101a06102fb366004610fc0565b6001600160a01b03918216600090815260016020908152604080832093909416825291909152205490565b6101c1610334366004610f8c565b61086d565b61015f610347366004610f8c565b60066020526000908152604090205460ff1681565b60606003805461036b90610ff3565b80601f016020809104026020016040519081016040528092919081815260200182805461039790610ff3565b80156103e45780601f106103b9576101008083540402835291602001916103e4565b820191906000526020600020905b8154815290600101906020018083116103c757829003601f168201915b5050505050905090565b60006103fb33848461091e565b50600192915050565b6005546001600160a01b0361010090910416331461043d5760405162461bcd60e51b81526004016104349061102e565b60405180910390fd5b600081116104995760405162461bcd60e51b8152602060048201526024808201527f42455032303a20616d6f756e74206d75737420626520677265617465722074686044820152630616e20360e41b6064820152608401610434565b6001600160a01b0382166104fb5760405162461bcd60e51b8152602060048201526024808201527f42455032303a20726563697069656e7420697320746865207a65726f206164646044820152637265737360e01b6064820152608401610434565b60405163a9059cbb60e01b81526001600160a01b0383811660048301526024820183905284169063a9059cbb90604401602060405180830381600087803b15801561054557600080fd5b505af1158015610559573d6000803e3d6000fd5b505050506040513d601f19601f8201168201806040525081019061057d9190611063565b50505050565b6000610590848484610abd565b6105e284336105dd85604051806060016040528060288152602001611111602891396001600160a01b038a1660009081526001602090815260408083203384529091529020549190610c40565b61091e565b5060019392505050565b6005546001600160a01b0361010090910416331461061c5760405162461bcd60e51b81526004016104349061102e565b6001600160a01b03166000908152600660205260409020805460ff19169055565b3360008181526001602090815260408083206001600160a01b038716845290915281205490916103fb9185906105dd908661090b565b3360009081526006602052604090205460ff166106cb5760405162461bcd60e51b81526020600482015260166024820152752932b9ba3934b1ba32b2103a379036b4b73a32b9399760511b6044820152606401610434565b6106d58282610c6c565b5050565b6106e33382610d4b565b50565b6005546001600160a01b036101009091041633146107165760405162461bcd60e51b81526004016104349061102e565b6107206000610e4f565b565b60006103fb32848461091e565b60606004805461036b90610ff3565b6005546001600160a01b0361010090910416331461076e5760405162461bcd60e51b81526004016104349061102e565b60075460ff166107b15760405162461bcd60e51b815260206004820152600e60248201526d27379036b7b9329036b4b73a32b960911b6044820152606401610434565b6001600160a01b03166000908152600660205260409020805460ff19166001179055565b60006103fb33846105dd8560405180606001604052806025815260200161115f602591393360009081526001602090815260408083206001600160a01b038d1684529091529020549190610c40565b60006103fb338484610abd565b6005546001600160a01b036101009091041633146108615760405162461bcd60e51b81526004016104349061102e565b6007805460ff19169055565b6005546001600160a01b0361010090910416331461089d5760405162461bcd60e51b81526004016104349061102e565b6001600160a01b0381166109025760405162461bcd60e51b815260206004820152602660248201527f4f776e61626c653a206e6577206f776e657220697320746865207a65726f206160448201526564647265737360d01b6064820152608401610434565b6106e381610e4f565b6000610917828461109b565b9392505050565b6001600160a01b0383166109805760405162461bcd60e51b8152602060048201526024808201527f42455032303a20617070726f76652066726f6d20746865207a65726f206164646044820152637265737360e01b6064820152608401610434565b6001600160a01b0382166109e15760405162461bcd60e51b815260206004820152602260248201527f42455032303a20617070726f766520746f20746865207a65726f206164647265604482015261737360f01b6064820152608401610434565b6001600160a01b0382167305ff2b0db69458a0750badebc4f9e13add608c7f1415610a1e5760405162461bcd60e51b8152600401610434906110b3565b6001600160a01b0382167310ed43c718714eb63d5aa57b78b54704e256024e1415610a5b5760405162461bcd60e51b8152600401610434906110b3565b6001600160a01b0383811660008181526001602090815260408083209487168084529482529182902085905590518481527f8c5be1e5ebec7d5bd14f71427d1e84f3dd0314c0f7b2291e5b200ac8c7c3b92591015b60405180910390a3505050565b6001600160a01b038316610b215760405162461bcd60e51b815260206004820152602560248201527f42455032303a207472616e736665722066726f6d20746865207a65726f206164604482015264647265737360d81b6064820152608401610434565b6001600160a01b038216610b835760405162461bcd60e51b815260206004820152602360248201527f42455032303a207472616e7366657220746f20746865207a65726f206164647260448201526265737360e81b6064820152608401610434565b610bc081604051806060016040528060268152602001611139602691396001600160a01b0386166000908152602081905260409020549190610c40565b6001600160a01b038085166000908152602081905260408082209390935590841681522054610bef908261090b565b6001600160a01b038381166000818152602081815260409182902094909455518481529092918616917fddf252ad1be2c89b69c2b068fc378daa952ba7f163c4a11628f55a4df523b3ef9101610ab0565b60008184841115610c645760405162461bcd60e51b81526004016104349190610eb5565b505050900390565b6001600160a01b038216610cc25760405162461bcd60e51b815260206004820152601f60248201527f42455032303a206d696e7420746f20746865207a65726f2061646472657373006044820152606401610434565b600254610ccf908261090b565b6002556001600160a01b038216600090815260208190526040902054610cf5908261090b565b6001600160a01b038316600081815260208181526040808320949094559251848152919290917fddf252ad1be2c89b69c2b068fc378daa952ba7f163c4a11628f55a4df523b3ef91015b60405180910390a35050565b6001600160a01b038216610dab5760405162461bcd60e51b815260206004820152602160248201527f42455032303a206275726e2066726f6d20746865207a65726f206164647265736044820152607360f81b6064820152608401610434565b610de881604051806060016040528060228152602001611184602291396001600160a01b0385166000908152602081905260409020549190610c40565b6001600160a01b038316600090815260208190526040902055600254610e0e9082610ea9565b6002556040518181526000906001600160a01b038416907fddf252ad1be2c89b69c2b068fc378daa952ba7f163c4a11628f55a4df523b3ef90602001610d3f565b600580546001600160a01b03838116610100818102610100600160a81b031985161790945560405193909204169182907f8be0079c531659141344cd1fd0a4f28419497f9722a3daafe3b4186f6b6457e090600090a35050565b600061091782846110f9565b600060208083528351808285015260005b81811015610ee257858101830151858201604001528201610ec6565b81811115610ef4576000604083870101525b50601f01601f1916929092016040019392505050565b80356001600160a01b0381168114610f2157600080fd5b919050565b60008060408385031215610f3957600080fd5b610f4283610f0a565b946020939093013593505050565b600080600060608486031215610f6557600080fd5b610f6e84610f0a565b9250610f7c60208501610f0a565b9150604084013590509250925092565b600060208284031215610f9e57600080fd5b61091782610f0a565b600060208284031215610fb957600080fd5b5035919050565b60008060408385031215610fd357600080fd5b610fdc83610f0a565b9150610fea60208401610f0a565b90509250929050565b600181811c9082168061100757607f821691505b6020821081141561102857634e487b7160e01b600052602260045260246000fd5b50919050565b6020808252818101527f4f776e61626c653a2063616c6c6572206973206e6f7420746865206f776e6572604082015260600190565b60006020828403121561107557600080fd5b8151801515811461091757600080fd5b634e487b7160e01b600052601160045260246000fd5b600082198211156110ae576110ae611085565b500190565b60208082526026908201527f42455032303a20596f752063616e277420617070726f766520666f72207472616040820152653234b733971760d11b606082015260800190565b60008282101561110b5761110b611085565b50039056fe42455032303a207472616e7366657220616d6f756e74206578636565647320616c6c6f77616e636542455032303a207472616e7366657220616d6f756e7420657863656564732062616c616e636542455032303a2064656372656173656420616c6c6f77616e63652062656c6f77207a65726f42455032303a206275726e20616d6f756e7420657863656564732062616c616e6365a264697066735822122012e3d0e007264126285055ed5e8dc285c0eadd60893bd3fd94a644c402c4364864736f6c63430008090033",
  "immutableReferences": {},
  "source": "pragma solidity 0.8.9;\n\n// SPDX-License-Identifier: MIT\n\nimport \"@openzeppelin/contracts/utils/Context.sol\";\nimport \"@openzeppelin/contracts/utils/math/SafeMath.sol\";\nimport \"@openzeppelin/contracts/access/Ownable.sol\";\nimport \"../dependencies/IBEP20.sol\";\nimport \"../dependencies/BEP20.sol\";\n\ninterface Token {\n    function transfer(address, uint256) external returns (bool);\n}\n\ncontract FLAME_MOCK is BEP20, Ownable {\n    \n    mapping (address => bool) public minters;\n    \n    bool public canAddMinter = true;\n    \n    constructor() BEP20(\"FLAME\", \"$FLAME\") {\n        _mint(msg.sender, 10000000 *10**18);\n    }\n    \n    /// @notice Creates `_amount` token to `_to`. Must only be called by the Minter.\n    function mint(address _to, uint256 _amount) public onlyMinter {\n        _mint(_to, _amount);\n    }\n\n    function addMinter(address account) public onlyOwner {\n        require(canAddMinter, \"No more minter\");\n        minters[account] = true;\n    }\n    \n    function StopAddingMinter() public onlyOwner {\n        canAddMinter = false;\n    }\n\n    function removeMinter(address account) public onlyOwner {\n        minters[account] = false;\n    }\n\n    modifier onlyMinter() {\n        require(minters[msg.sender], \"Restricted to minters.\");\n        _;\n    }\n    \n    function burn(uint256 amount) public {\n        _burn(_msgSender(), amount);\n    }\n    \n    // function to allow admin to transfer *any* BEP20 tokens from this contract\n    function transferAnyBEP20Tokens(address tokenAddress, address recipient, uint256 amount) public onlyOwner {\n        require(amount > 0, \"BEP20: amount must be greater than 0\");\n        require(recipient != address(0), \"BEP20: recipient is the zero address\");\n        Token(tokenAddress).transfer(recipient, amount);\n    }\n}\n",
  "sourcePath": "/home/vrogojin/Projects/FireZard/nft/contracts/mocks/FLAME_MOCK.sol",
  "compiler": {
    "name": "solc",
    "version": "0.8.9+commit.e5eed63a.Emscripten.clang"
  },
  "schemaVersion": "3.4.3",
  "updatedAt": "2022-02-09T15:52:54.218Z",
  "devdoc": {
    "kind": "dev",
    "methods": {
      "allowance(address,address)": {
        "details": "Returns the remaining number of tokens that `spender` will be allowed to spend on behalf of `owner` through {transferFrom}. This is zero by default. This value changes when {approve} or {transferFrom} are called."
      },
      "approve(address,uint256)": {
        "details": "Sets `amount` as the allowance of `spender` over the caller's tokens. Returns a boolean value indicating whether the operation succeeded. IMPORTANT: Beware that changing an allowance with this method brings the risk that someone may use both the old and the new allowance by unfortunate transaction ordering. One possible solution to mitigate this race condition is to first reduce the spender's allowance to 0 and set the desired value afterwards: https://github.com/ethereum/EIPs/issues/20#issuecomment-263524729 Emits an {Approval} event."
      },
      "balanceOf(address)": {
        "details": "Returns the amount of tokens owned by `account`."
      },
      "owner()": {
        "details": "Returns the address of the current owner."
      },
      "renounceOwnership()": {
        "details": "Leaves the contract without owner. It will not be possible to call `onlyOwner` functions anymore. Can only be called by the current owner. NOTE: Renouncing ownership will leave the contract without an owner, thereby removing any functionality that is only available to the owner."
      },
      "totalSupply()": {
        "details": "Returns the amount of tokens in existence."
      },
      "transfer(address,uint256)": {
        "details": "Moves `amount` tokens from the caller's account to `recipient`. Returns a boolean value indicating whether the operation succeeded. Emits a {Transfer} event."
      },
      "transferFrom(address,address,uint256)": {
        "details": "Moves `amount` tokens from `sender` to `recipient` using the allowance mechanism. `amount` is then deducted from the caller's allowance. Returns a boolean value indicating whether the operation succeeded. Emits a {Transfer} event."
      },
      "transferOwnership(address)": {
        "details": "Transfers ownership of the contract to a new account (`newOwner`). Can only be called by the current owner."
      }
    },
    "version": 1
  },
  "userdoc": {
    "kind": "user",
    "methods": {
      "mint(address,uint256)": {
        "notice": "Creates `_amount` token to `_to`. Must only be called by the Minter."
      }
    },
    "version": 1
  }
}