{
  "contractName": "ListenerMock1",
  "abi": [
    {
      "anonymous": false,
      "inputs": [
        {
          "indexed": false,
          "internalType": "address",
          "name": "_manager",
          "type": "address"
        }
      ],
      "name": "ContractAdded",
      "type": "event"
    },
    {
      "anonymous": false,
      "inputs": [
        {
          "indexed": false,
          "internalType": "address",
          "name": "newManager",
          "type": "address"
        }
      ],
      "name": "ContractManagerSwitch",
      "type": "event"
    },
    {
      "anonymous": false,
      "inputs": [
        {
          "indexed": false,
          "internalType": "address",
          "name": "newOwner",
          "type": "address"
        }
      ],
      "name": "ContractOwnershipUpdate",
      "type": "event"
    },
    {
      "anonymous": false,
      "inputs": [],
      "name": "ContractRemoved",
      "type": "event"
    },
    {
      "anonymous": false,
      "inputs": [
        {
          "indexed": false,
          "internalType": "address",
          "name": "contractInstance",
          "type": "address"
        }
      ],
      "name": "ContractReplaced",
      "type": "event"
    },
    {
      "anonymous": false,
      "inputs": [
        {
          "indexed": false,
          "internalType": "address",
          "name": "oldInstance",
          "type": "address"
        },
        {
          "indexed": false,
          "internalType": "address",
          "name": "_manager",
          "type": "address"
        }
      ],
      "name": "ContractUpdated",
      "type": "event"
    },
    {
      "anonymous": false,
      "inputs": [
        {
          "indexed": true,
          "internalType": "address",
          "name": "previousOwner",
          "type": "address"
        },
        {
          "indexed": true,
          "internalType": "address",
          "name": "newOwner",
          "type": "address"
        }
      ],
      "name": "OwnershipTransferred",
      "type": "event"
    },
    {
      "anonymous": false,
      "inputs": [
        {
          "indexed": true,
          "internalType": "bytes32",
          "name": "role",
          "type": "bytes32"
        },
        {
          "indexed": true,
          "internalType": "bytes32",
          "name": "previousAdminRole",
          "type": "bytes32"
        },
        {
          "indexed": true,
          "internalType": "bytes32",
          "name": "newAdminRole",
          "type": "bytes32"
        }
      ],
      "name": "RoleAdminChanged",
      "type": "event"
    },
    {
      "anonymous": false,
      "inputs": [
        {
          "indexed": true,
          "internalType": "bytes32",
          "name": "role",
          "type": "bytes32"
        },
        {
          "indexed": true,
          "internalType": "address",
          "name": "account",
          "type": "address"
        },
        {
          "indexed": true,
          "internalType": "address",
          "name": "sender",
          "type": "address"
        }
      ],
      "name": "RoleGranted",
      "type": "event"
    },
    {
      "anonymous": false,
      "inputs": [
        {
          "indexed": true,
          "internalType": "bytes32",
          "name": "role",
          "type": "bytes32"
        },
        {
          "indexed": true,
          "internalType": "address",
          "name": "account",
          "type": "address"
        },
        {
          "indexed": true,
          "internalType": "address",
          "name": "sender",
          "type": "address"
        }
      ],
      "name": "RoleRevoked",
      "type": "event"
    },
    {
      "inputs": [],
      "name": "DEFAULT_ADMIN_ROLE",
      "outputs": [
        {
          "internalType": "bytes32",
          "name": "",
          "type": "bytes32"
        }
      ],
      "stateMutability": "view",
      "type": "function"
    },
    {
      "inputs": [],
      "name": "MANAGER_ROLE",
      "outputs": [
        {
          "internalType": "bytes32",
          "name": "",
          "type": "bytes32"
        }
      ],
      "stateMutability": "view",
      "type": "function"
    },
    {
      "inputs": [
        {
          "internalType": "bytes32",
          "name": "role",
          "type": "bytes32"
        }
      ],
      "name": "getRoleAdmin",
      "outputs": [
        {
          "internalType": "bytes32",
          "name": "",
          "type": "bytes32"
        }
      ],
      "stateMutability": "view",
      "type": "function"
    },
    {
      "inputs": [
        {
          "internalType": "bytes32",
          "name": "role",
          "type": "bytes32"
        },
        {
          "internalType": "uint256",
          "name": "index",
          "type": "uint256"
        }
      ],
      "name": "getRoleMember",
      "outputs": [
        {
          "internalType": "address",
          "name": "",
          "type": "address"
        }
      ],
      "stateMutability": "view",
      "type": "function"
    },
    {
      "inputs": [
        {
          "internalType": "bytes32",
          "name": "role",
          "type": "bytes32"
        }
      ],
      "name": "getRoleMemberCount",
      "outputs": [
        {
          "internalType": "uint256",
          "name": "",
          "type": "uint256"
        }
      ],
      "stateMutability": "view",
      "type": "function"
    },
    {
      "inputs": [
        {
          "internalType": "bytes32",
          "name": "role",
          "type": "bytes32"
        },
        {
          "internalType": "address",
          "name": "account",
          "type": "address"
        }
      ],
      "name": "grantRole",
      "outputs": [],
      "stateMutability": "nonpayable",
      "type": "function"
    },
    {
      "inputs": [
        {
          "internalType": "bytes32",
          "name": "role",
          "type": "bytes32"
        },
        {
          "internalType": "address",
          "name": "account",
          "type": "address"
        }
      ],
      "name": "hasRole",
      "outputs": [
        {
          "internalType": "bool",
          "name": "",
          "type": "bool"
        }
      ],
      "stateMutability": "view",
      "type": "function"
    },
    {
      "inputs": [],
      "name": "manager",
      "outputs": [
        {
          "internalType": "address",
          "name": "",
          "type": "address"
        }
      ],
      "stateMutability": "view",
      "type": "function"
    },
    {
      "inputs": [],
      "name": "mock2",
      "outputs": [
        {
          "internalType": "address",
          "name": "",
          "type": "address"
        }
      ],
      "stateMutability": "view",
      "type": "function"
    },
    {
      "inputs": [
        {
          "internalType": "address",
          "name": "_manager",
          "type": "address"
        }
      ],
      "name": "onAdd",
      "outputs": [],
      "stateMutability": "nonpayable",
      "type": "function"
    },
    {
      "inputs": [],
      "name": "onRemoved",
      "outputs": [],
      "stateMutability": "nonpayable",
      "type": "function"
    },
    {
      "inputs": [
        {
          "internalType": "address",
          "name": "newInstance",
          "type": "address"
        }
      ],
      "name": "onReplaced",
      "outputs": [],
      "stateMutability": "nonpayable",
      "type": "function"
    },
    {
      "inputs": [
        {
          "internalType": "address",
          "name": "oldInstance",
          "type": "address"
        },
        {
          "internalType": "address",
          "name": "_manager",
          "type": "address"
        }
      ],
      "name": "onUpdate",
      "outputs": [],
      "stateMutability": "nonpayable",
      "type": "function"
    },
    {
      "inputs": [],
      "name": "owner",
      "outputs": [
        {
          "internalType": "address",
          "name": "",
          "type": "address"
        }
      ],
      "stateMutability": "view",
      "type": "function"
    },
    {
      "inputs": [],
      "name": "renounceOwnership",
      "outputs": [],
      "stateMutability": "nonpayable",
      "type": "function"
    },
    {
      "inputs": [
        {
          "internalType": "bytes32",
          "name": "role",
          "type": "bytes32"
        },
        {
          "internalType": "address",
          "name": "account",
          "type": "address"
        }
      ],
      "name": "renounceRole",
      "outputs": [],
      "stateMutability": "nonpayable",
      "type": "function"
    },
    {
      "inputs": [
        {
          "internalType": "bytes32",
          "name": "role",
          "type": "bytes32"
        },
        {
          "internalType": "address",
          "name": "account",
          "type": "address"
        }
      ],
      "name": "revokeRole",
      "outputs": [],
      "stateMutability": "nonpayable",
      "type": "function"
    },
    {
      "inputs": [
        {
          "internalType": "bytes4",
          "name": "interfaceId",
          "type": "bytes4"
        }
      ],
      "name": "supportsInterface",
      "outputs": [
        {
          "internalType": "bool",
          "name": "",
          "type": "bool"
        }
      ],
      "stateMutability": "view",
      "type": "function"
    },
    {
      "inputs": [
        {
          "internalType": "address",
          "name": "newManager",
          "type": "address"
        }
      ],
      "name": "switchManager",
      "outputs": [],
      "stateMutability": "nonpayable",
      "type": "function"
    },
    {
      "inputs": [
        {
          "internalType": "address",
          "name": "newOwner",
          "type": "address"
        }
      ],
      "name": "transferOwnership",
      "outputs": [],
      "stateMutability": "nonpayable",
      "type": "function"
    },
    {
      "inputs": [
        {
          "internalType": "address",
          "name": "newOwner",
          "type": "address"
        }
      ],
      "name": "updateOwnership",
      "outputs": [],
      "stateMutability": "nonpayable",
      "type": "function"
    },
    {
      "inputs": [
        {
          "internalType": "bytes32",
          "name": "hname",
          "type": "bytes32"
        },
        {
          "internalType": "address",
          "name": "contractInstance",
          "type": "address"
        },
        {
          "internalType": "bool",
          "name": "isNew",
          "type": "bool"
        }
      ],
      "name": "onListenAdded",
      "outputs": [],
      "stateMutability": "nonpayable",
      "type": "function"
    },
    {
      "inputs": [
        {
          "internalType": "bytes32",
          "name": "hname",
          "type": "bytes32"
        }
      ],
      "name": "onListenRemoved",
      "outputs": [],
      "stateMutability": "nonpayable",
      "type": "function"
    },
    {
      "inputs": [],
      "name": "getValue",
      "outputs": [
        {
          "internalType": "uint256",
          "name": "",
          "type": "uint256"
        }
      ],
      "stateMutability": "view",
      "type": "function"
    }
  ],
  "bytecode": "0x60806040527f68ffd5828f6e8512d8c01bfb87b312eb23676c95c99356bc8923ca508a8fda786004553480156200003557600080fd5b50620000413362000054565b6200004e600033620000a4565b620001e2565b600080546001600160a01b038381166001600160a01b0319831681178455604051919092169283917f8be0079c531659141344cd1fd0a4f28419497f9722a3daafe3b4186f6b6457e09190a35050565b620000bb8282620000e760201b620007411760201c565b6000828152600260209081526040909120620000e2918390620007ac62000170821b17901c565b505050565b60008281526001602090815260408083206001600160a01b038516845290915290205460ff166200016c5760008281526001602081815260408084206001600160a01b0386168086529252808420805460ff19169093179092559051339285917f2f8788117e7eff1d82e926ec794901d17c78024a50270940304540a733656f0d9190a45b5050565b600062000187836001600160a01b03841662000190565b90505b92915050565b6000818152600183016020526040812054620001d9575081546001818101845560008481526020808220909301849055845484825282860190935260409020919091556200018a565b5060006200018a565b61137b80620001f26000396000f3fe608060405234801561001057600080fd5b50600436106101585760003560e01c8063715018a6116100c3578063c69c95791161007c578063c69c9579146102d3578063ca15c873146102e6578063d4697a47146102f9578063d547741f1461030c578063ec87621c1461031f578063f2fde38b1461033457600080fd5b8063715018a6146102795780638840891e146102815780638da5cb5b146102945780639010d07c146102a557806391d14854146102b8578063a217fddf146102cb57600080fd5b8063248a9ca311610115578063248a9ca3146101f65780632f2ff15d1461021a57806336568abe1461022d578063481c6a75146102405780635df11291146102535780636b2bf27f1461026657600080fd5b806301ffc9a71461015d5780630447a2cd1461018557806305e2387f1461019a57806316f28d24146101c55780631a6f04f3146101d857806320965255146101e0575b600080fd5b61017061016b366004610fe3565b610347565b60405190151581526020015b60405180910390f35b610198610193366004611029565b610372565b005b6005546101ad906001600160a01b031681565b6040516001600160a01b03909116815260200161017c565b6101986101d336600461105c565b610380565b6101986103e8565b6101e86103f2565b60405190815260200161017c565b6101e86102043660046110a1565b6000908152600160208190526040909120015490565b6101986102283660046110ba565b610474565b61019861023b3660046110ba565b61049b565b6003546101ad906001600160a01b031681565b6101986102613660046110dd565b610515565b6101986102743660046110dd565b610521565b61019861052a565b61019861028f3660046110dd565b61058e565b6000546001600160a01b03166101ad565b6101ad6102b33660046110f8565b610597565b6101706102c63660046110ba565b6105b6565b6101e8600081565b6101986102e13660046110dd565b6105e1565b6101e86102f43660046110a1565b6105ea565b6101986103073660046110a1565b610601565b61019861031a3660046110ba565b610652565b6101e860008051602061132683398151915281565b6101986103423660046110dd565b610679565b60006001600160e01b0319821663292d6b7560e21b148061036c575061036c826107c1565b92915050565b61037c82826107e6565b5050565b610398600080516020611326833981519152336105b6565b6103bd5760405162461bcd60e51b81526004016103b49061111a565b60405180910390fd5b6004548314156103e357600580546001600160a01b0319166001600160a01b0384161790555b505050565b6103f0610879565b565b60055460408051632096525560e01b815290516000926001600160a01b0316916320965255916004808301926020929190829003018186803b15801561043757600080fd5b505afa15801561044b573d6000803e3d6000fd5b505050506040513d601f19601f8201168201806040525081019061046f9190611177565b905090565b6000828152600160208190526040909120015461049181336108e8565b6103e3838361094c565b6001600160a01b038116331461050b5760405162461bcd60e51b815260206004820152602f60248201527f416363657373436f6e74726f6c3a2063616e206f6e6c792072656e6f756e636560448201526e103937b632b9903337b91039b2b63360891b60648201526084016103b4565b61037c828261096e565b61051e81610990565b50565b61051e81610a4f565b6000546001600160a01b031633146105845760405162461bcd60e51b815260206004820181905260248201527f4f776e61626c653a2063616c6c6572206973206e6f7420746865206f776e657260448201526064016103b4565b6103f06000610ac5565b61051e81610b15565b60008281526002602052604081206105af9083610b97565b9392505050565b60009182526001602090815260408084206001600160a01b0393909316845291905290205460ff1690565b61051e81610ba3565b600081815260026020526040812061036c90610c20565b610619600080516020611326833981519152336105b6565b6106355760405162461bcd60e51b81526004016103b49061111a565b60045481141561051e57600580546001600160a01b031916905550565b6000828152600160208190526040909120015461066f81336108e8565b6103e3838361096e565b6000546001600160a01b031633146106d35760405162461bcd60e51b815260206004820181905260248201527f4f776e61626c653a2063616c6c6572206973206e6f7420746865206f776e657260448201526064016103b4565b6001600160a01b0381166107385760405162461bcd60e51b815260206004820152602660248201527f4f776e61626c653a206e6577206f776e657220697320746865207a65726f206160448201526564647265737360d01b60648201526084016103b4565b61051e81610ac5565b61074b82826105b6565b61037c5760008281526001602081815260408084206001600160a01b0386168086529252808420805460ff19169093179092559051339285917f2f8788117e7eff1d82e926ec794901d17c78024a50270940304540a733656f0d9190a45050565b60006105af836001600160a01b038416610c2a565b60006001600160e01b03198216635a05180f60e01b148061036c575061036c82610c79565b6107fe600080516020611326833981519152336105b6565b61081a5760405162461bcd60e51b81526004016103b49061111a565b600380546001600160a01b0319166001600160a01b0383811691821790925560408051928516835260208301919091527ff6515f2a6d531f16723c1e578303b7d74152bf8c0fa3bee828700a3d4706da8d910160405180910390a15050565b610891600080516020611326833981519152336105b6565b6108ad5760405162461bcd60e51b81526004016103b49061111a565b600380546001600160a01b03191690556040517f9a9a74cf290a994f69a718e8557deb1dd65135268f40e660cecddf675f5dd51490600090a1565b6108f282826105b6565b61037c5761090a816001600160a01b03166014610cae565b610915836020610cae565b6040516020016109269291906111c0565b60408051601f198184030181529082905262461bcd60e51b82526103b491600401611235565b6109568282610741565b60008281526002602052604090206103e390826107ac565b6109788282610e4a565b60008281526002602052604090206103e39082610eb1565b6109a8600080516020611326833981519152336105b6565b6109c45760405162461bcd60e51b81526004016103b49061111a565b600380546001600160a01b0319166001600160a01b0383161790556109f760008051602061132683398151915282610474565b610a0f60008051602061132683398151915233610652565b6040516001600160a01b03821681527f8eb47098f9568be754f51d21a870c8091ee0242cf97418db00927326d0e6ffcf906020015b60405180910390a150565b610a67600080516020611326833981519152336105b6565b610a835760405162461bcd60e51b81526004016103b49061111a565b610a8c81610679565b6040516001600160a01b03821681527ff2addf7f813887cf0fdd82b58fcc379ab2301e95c90b41a8cf2e5401914689c990602001610a44565b600080546001600160a01b038381166001600160a01b0319831681178455604051919092169283917f8be0079c531659141344cd1fd0a4f28419497f9722a3daafe3b4186f6b6457e09190a35050565b610b2d600080516020611326833981519152336105b6565b610b495760405162461bcd60e51b81526004016103b49061111a565b600380546001600160a01b0319166001600160a01b0383169081179091556040519081527f89c66952b48f3e96bf1d8ba1b63189520fd988a6979b8b740bd5c5d8dc53e20590602001610a44565b60006105af8383610ec6565b610bbb600080516020611326833981519152336105b6565b610bd75760405162461bcd60e51b81526004016103b49061111a565b600380546001600160a01b03191690556040516001600160a01b03821681527f85a56ff958486f55dd742819603a46ba6233d3b24e6715f9cd5fd2ef6425d68090602001610a44565b600061036c825490565b6000818152600183016020526040812054610c715750815460018181018455600084815260208082209093018490558454848252828601909352604090209190915561036c565b50600061036c565b60006001600160e01b03198216637965db0b60e01b148061036c57506301ffc9a760e01b6001600160e01b031983161461036c565b60606000610cbd83600261127e565b610cc890600261129d565b67ffffffffffffffff811115610ce057610ce06112b5565b6040519080825280601f01601f191660200182016040528015610d0a576020820181803683370190505b509050600360fc1b81600081518110610d2557610d256112cb565b60200101906001600160f81b031916908160001a905350600f60fb1b81600181518110610d5457610d546112cb565b60200101906001600160f81b031916908160001a9053506000610d7884600261127e565b610d8390600161129d565b90505b6001811115610dfb576f181899199a1a9b1b9c1cb0b131b232b360811b85600f1660108110610db757610db76112cb565b1a60f81b828281518110610dcd57610dcd6112cb565b60200101906001600160f81b031916908160001a90535060049490941c93610df4816112e1565b9050610d86565b5083156105af5760405162461bcd60e51b815260206004820181905260248201527f537472696e67733a20686578206c656e67746820696e73756666696369656e7460448201526064016103b4565b610e5482826105b6565b1561037c5760008281526001602090815260408083206001600160a01b0385168085529252808320805460ff1916905551339285917ff6391f5c32d9c69d2a47ea670b442974b53935d1edc7fd64eb21e047a839171b9190a45050565b60006105af836001600160a01b038416610ef0565b6000826000018281548110610edd57610edd6112cb565b9060005260206000200154905092915050565b60008181526001830160205260408120548015610fd9576000610f146001836112f8565b8554909150600090610f28906001906112f8565b9050818114610f8d576000866000018281548110610f4857610f486112cb565b9060005260206000200154905080876000018481548110610f6b57610f6b6112cb565b6000918252602080832090910192909255918252600188019052604090208390555b8554869080610f9e57610f9e61130f565b60019003818190600052602060002001600090559055856001016000868152602001908152602001600020600090556001935050505061036c565b600091505061036c565b600060208284031215610ff557600080fd5b81356001600160e01b0319811681146105af57600080fd5b80356001600160a01b038116811461102457600080fd5b919050565b6000806040838503121561103c57600080fd5b6110458361100d565b91506110536020840161100d565b90509250929050565b60008060006060848603121561107157600080fd5b833592506110816020850161100d565b91506040840135801515811461109657600080fd5b809150509250925092565b6000602082840312156110b357600080fd5b5035919050565b600080604083850312156110cd57600080fd5b823591506110536020840161100d565b6000602082840312156110ef57600080fd5b6105af8261100d565b6000806040838503121561110b57600080fd5b50508035926020909101359150565b6020808252603b908201527f43726f7373436f6e74726163744d616e4c697374656e65723a2074686520636160408201527f6c6c6572206d7573742068617665204d414e414745525f524f4c450000000000606082015260800190565b60006020828403121561118957600080fd5b5051919050565b60005b838110156111ab578181015183820152602001611193565b838111156111ba576000848401525b50505050565b7f416363657373436f6e74726f6c3a206163636f756e74200000000000000000008152600083516111f8816017850160208801611190565b7001034b99036b4b9b9b4b733903937b6329607d1b6017918401918201528351611229816028840160208801611190565b01602801949350505050565b6020815260008251806020840152611254816040850160208701611190565b601f01601f19169190910160400192915050565b634e487b7160e01b600052601160045260246000fd5b600081600019048311821515161561129857611298611268565b500290565b600082198211156112b0576112b0611268565b500190565b634e487b7160e01b600052604160045260246000fd5b634e487b7160e01b600052603260045260246000fd5b6000816112f0576112f0611268565b506000190190565b60008282101561130a5761130a611268565b500390565b634e487b7160e01b600052603160045260246000fdfe241ecf16d79d0f8dbfb92cbc07fe17840425976cf0667f022fe9877caa831b08a26469706673582212209a7b93ead3a9ce92c12fe0136c55fb49f1735a508c6fd4118014e812fad587ab64736f6c63430008090033",
  "immutableReferences": {},
  "source": "\npragma solidity ^0.8;\n\nimport \"../CrossContractManListener.sol\";\nimport \"./ListenerMock2.sol\";\n\ncontract ListenerMock1 is CrossContractManListener {\n    bytes32 h_mock2 = keccak256('ListenerMock2');\n\n    address public mock2;\n\n    function onListenAdded(bytes32 hname, address contractInstance, bool isNew) external onlyManager {\n//\tsuper._onListenAdded(hname, contractInstance, isNew);\n\tif(hname == h_mock2)\n\t    mock2 = contractInstance;\n    }\n\n    function onListenRemoved(bytes32 hname) external onlyManager {\n//\tsuper._onListenRemoved(hname);\n\tif(hname == h_mock2)\n\t    mock2 = address(0);\n    }\n\n    function getValue() public view returns(uint256) {\n\treturn ListenerMock2(mock2).getValue();\n    }\n\n}",
  "sourcePath": "/home/vrogojin/Projects/FireZard/nft/contracts/mocks/ListenerMock1.sol",
  "compiler": {
    "name": "solc",
    "version": "0.8.9+commit.e5eed63a.Emscripten.clang"
  },
  "schemaVersion": "3.4.3",
  "updatedAt": "2022-02-01T15:45:41.411Z",
  "devdoc": {
    "kind": "dev",
    "methods": {
      "getRoleAdmin(bytes32)": {
        "details": "Returns the admin role that controls `role`. See {grantRole} and {revokeRole}. To change a role's admin, use {_setRoleAdmin}."
      },
      "getRoleMember(bytes32,uint256)": {
        "details": "Returns one of the accounts that have `role`. `index` must be a value between 0 and {getRoleMemberCount}, non-inclusive. Role bearers are not sorted in any particular way, and their ordering may change at any point. WARNING: When using {getRoleMember} and {getRoleMemberCount}, make sure you perform all queries on the same block. See the following https://forum.openzeppelin.com/t/iterating-over-elements-on-enumerableset-in-openzeppelin-contracts/2296[forum post] for more information."
      },
      "getRoleMemberCount(bytes32)": {
        "details": "Returns the number of accounts that have `role`. Can be used together with {getRoleMember} to enumerate all bearers of a role."
      },
      "grantRole(bytes32,address)": {
        "details": "Grants `role` to `account`. If `account` had not been already granted `role`, emits a {RoleGranted} event. Requirements: - the caller must have ``role``'s admin role."
      },
      "hasRole(bytes32,address)": {
        "details": "Returns `true` if `account` has been granted `role`."
      },
      "owner()": {
        "details": "Returns the address of the current owner."
      },
      "renounceOwnership()": {
        "details": "Leaves the contract without owner. It will not be possible to call `onlyOwner` functions anymore. Can only be called by the current owner. NOTE: Renouncing ownership will leave the contract without an owner, thereby removing any functionality that is only available to the owner."
      },
      "renounceRole(bytes32,address)": {
        "details": "Revokes `role` from the calling account. Roles are often managed via {grantRole} and {revokeRole}: this function's purpose is to provide a mechanism for accounts to lose their privileges if they are compromised (such as when a trusted device is misplaced). If the calling account had been revoked `role`, emits a {RoleRevoked} event. Requirements: - the caller must be `account`."
      },
      "revokeRole(bytes32,address)": {
        "details": "Revokes `role` from `account`. If `account` had been granted `role`, emits a {RoleRevoked} event. Requirements: - the caller must have ``role``'s admin role."
      },
      "supportsInterface(bytes4)": {
        "details": "See {IERC165-supportsInterface}."
      },
      "transferOwnership(address)": {
        "details": "Transfers ownership of the contract to a new account (`newOwner`). Can only be called by the current owner."
      }
    },
    "version": 1
  },
  "userdoc": {
    "kind": "user",
    "methods": {},
    "version": 1
  }
}