{
  "contractName": "ListenerMock2",
  "abi": [
    {
      "anonymous": false,
      "inputs": [
        {
          "indexed": false,
          "internalType": "address",
          "name": "_manager",
          "type": "address"
        }
      ],
      "name": "ContractAdded",
      "type": "event"
    },
    {
      "anonymous": false,
      "inputs": [
        {
          "indexed": false,
          "internalType": "address",
          "name": "newManager",
          "type": "address"
        }
      ],
      "name": "ContractManagerSwitch",
      "type": "event"
    },
    {
      "anonymous": false,
      "inputs": [
        {
          "indexed": false,
          "internalType": "address",
          "name": "newOwner",
          "type": "address"
        }
      ],
      "name": "ContractOwnershipUpdate",
      "type": "event"
    },
    {
      "anonymous": false,
      "inputs": [],
      "name": "ContractRemoved",
      "type": "event"
    },
    {
      "anonymous": false,
      "inputs": [
        {
          "indexed": false,
          "internalType": "address",
          "name": "contractInstance",
          "type": "address"
        }
      ],
      "name": "ContractReplaced",
      "type": "event"
    },
    {
      "anonymous": false,
      "inputs": [
        {
          "indexed": false,
          "internalType": "address",
          "name": "oldInstance",
          "type": "address"
        },
        {
          "indexed": false,
          "internalType": "address",
          "name": "_manager",
          "type": "address"
        }
      ],
      "name": "ContractUpdated",
      "type": "event"
    },
    {
      "anonymous": false,
      "inputs": [
        {
          "indexed": true,
          "internalType": "address",
          "name": "previousOwner",
          "type": "address"
        },
        {
          "indexed": true,
          "internalType": "address",
          "name": "newOwner",
          "type": "address"
        }
      ],
      "name": "OwnershipTransferred",
      "type": "event"
    },
    {
      "anonymous": false,
      "inputs": [
        {
          "indexed": true,
          "internalType": "bytes32",
          "name": "role",
          "type": "bytes32"
        },
        {
          "indexed": true,
          "internalType": "bytes32",
          "name": "previousAdminRole",
          "type": "bytes32"
        },
        {
          "indexed": true,
          "internalType": "bytes32",
          "name": "newAdminRole",
          "type": "bytes32"
        }
      ],
      "name": "RoleAdminChanged",
      "type": "event"
    },
    {
      "anonymous": false,
      "inputs": [
        {
          "indexed": true,
          "internalType": "bytes32",
          "name": "role",
          "type": "bytes32"
        },
        {
          "indexed": true,
          "internalType": "address",
          "name": "account",
          "type": "address"
        },
        {
          "indexed": true,
          "internalType": "address",
          "name": "sender",
          "type": "address"
        }
      ],
      "name": "RoleGranted",
      "type": "event"
    },
    {
      "anonymous": false,
      "inputs": [
        {
          "indexed": true,
          "internalType": "bytes32",
          "name": "role",
          "type": "bytes32"
        },
        {
          "indexed": true,
          "internalType": "address",
          "name": "account",
          "type": "address"
        },
        {
          "indexed": true,
          "internalType": "address",
          "name": "sender",
          "type": "address"
        }
      ],
      "name": "RoleRevoked",
      "type": "event"
    },
    {
      "inputs": [],
      "name": "DEFAULT_ADMIN_ROLE",
      "outputs": [
        {
          "internalType": "bytes32",
          "name": "",
          "type": "bytes32"
        }
      ],
      "stateMutability": "view",
      "type": "function"
    },
    {
      "inputs": [],
      "name": "MANAGER_ROLE",
      "outputs": [
        {
          "internalType": "bytes32",
          "name": "",
          "type": "bytes32"
        }
      ],
      "stateMutability": "view",
      "type": "function"
    },
    {
      "inputs": [
        {
          "internalType": "bytes32",
          "name": "role",
          "type": "bytes32"
        }
      ],
      "name": "getRoleAdmin",
      "outputs": [
        {
          "internalType": "bytes32",
          "name": "",
          "type": "bytes32"
        }
      ],
      "stateMutability": "view",
      "type": "function"
    },
    {
      "inputs": [
        {
          "internalType": "bytes32",
          "name": "role",
          "type": "bytes32"
        },
        {
          "internalType": "uint256",
          "name": "index",
          "type": "uint256"
        }
      ],
      "name": "getRoleMember",
      "outputs": [
        {
          "internalType": "address",
          "name": "",
          "type": "address"
        }
      ],
      "stateMutability": "view",
      "type": "function"
    },
    {
      "inputs": [
        {
          "internalType": "bytes32",
          "name": "role",
          "type": "bytes32"
        }
      ],
      "name": "getRoleMemberCount",
      "outputs": [
        {
          "internalType": "uint256",
          "name": "",
          "type": "uint256"
        }
      ],
      "stateMutability": "view",
      "type": "function"
    },
    {
      "inputs": [
        {
          "internalType": "bytes32",
          "name": "role",
          "type": "bytes32"
        },
        {
          "internalType": "address",
          "name": "account",
          "type": "address"
        }
      ],
      "name": "grantRole",
      "outputs": [],
      "stateMutability": "nonpayable",
      "type": "function"
    },
    {
      "inputs": [
        {
          "internalType": "bytes32",
          "name": "role",
          "type": "bytes32"
        },
        {
          "internalType": "address",
          "name": "account",
          "type": "address"
        }
      ],
      "name": "hasRole",
      "outputs": [
        {
          "internalType": "bool",
          "name": "",
          "type": "bool"
        }
      ],
      "stateMutability": "view",
      "type": "function"
    },
    {
      "inputs": [],
      "name": "manager",
      "outputs": [
        {
          "internalType": "address",
          "name": "",
          "type": "address"
        }
      ],
      "stateMutability": "view",
      "type": "function"
    },
    {
      "inputs": [],
      "name": "onRemoved",
      "outputs": [],
      "stateMutability": "nonpayable",
      "type": "function"
    },
    {
      "inputs": [
        {
          "internalType": "address",
          "name": "newInstance",
          "type": "address"
        }
      ],
      "name": "onReplaced",
      "outputs": [],
      "stateMutability": "nonpayable",
      "type": "function"
    },
    {
      "inputs": [],
      "name": "owner",
      "outputs": [
        {
          "internalType": "address",
          "name": "",
          "type": "address"
        }
      ],
      "stateMutability": "view",
      "type": "function"
    },
    {
      "inputs": [],
      "name": "renounceOwnership",
      "outputs": [],
      "stateMutability": "nonpayable",
      "type": "function"
    },
    {
      "inputs": [
        {
          "internalType": "bytes32",
          "name": "role",
          "type": "bytes32"
        },
        {
          "internalType": "address",
          "name": "account",
          "type": "address"
        }
      ],
      "name": "renounceRole",
      "outputs": [],
      "stateMutability": "nonpayable",
      "type": "function"
    },
    {
      "inputs": [
        {
          "internalType": "bytes32",
          "name": "role",
          "type": "bytes32"
        },
        {
          "internalType": "address",
          "name": "account",
          "type": "address"
        }
      ],
      "name": "revokeRole",
      "outputs": [],
      "stateMutability": "nonpayable",
      "type": "function"
    },
    {
      "inputs": [
        {
          "internalType": "bytes4",
          "name": "interfaceId",
          "type": "bytes4"
        }
      ],
      "name": "supportsInterface",
      "outputs": [
        {
          "internalType": "bool",
          "name": "",
          "type": "bool"
        }
      ],
      "stateMutability": "view",
      "type": "function"
    },
    {
      "inputs": [
        {
          "internalType": "address",
          "name": "newManager",
          "type": "address"
        }
      ],
      "name": "switchManager",
      "outputs": [],
      "stateMutability": "nonpayable",
      "type": "function"
    },
    {
      "inputs": [
        {
          "internalType": "address",
          "name": "newOwner",
          "type": "address"
        }
      ],
      "name": "transferOwnership",
      "outputs": [],
      "stateMutability": "nonpayable",
      "type": "function"
    },
    {
      "inputs": [
        {
          "internalType": "address",
          "name": "newOwner",
          "type": "address"
        }
      ],
      "name": "updateOwnership",
      "outputs": [],
      "stateMutability": "nonpayable",
      "type": "function"
    },
    {
      "inputs": [],
      "name": "value",
      "outputs": [
        {
          "internalType": "uint256",
          "name": "",
          "type": "uint256"
        }
      ],
      "stateMutability": "view",
      "type": "function"
    },
    {
      "inputs": [
        {
          "internalType": "bytes32",
          "name": "hname",
          "type": "bytes32"
        },
        {
          "internalType": "address",
          "name": "contractInstance",
          "type": "address"
        },
        {
          "internalType": "bool",
          "name": "isNew",
          "type": "bool"
        }
      ],
      "name": "onListenAdded",
      "outputs": [],
      "stateMutability": "nonpayable",
      "type": "function"
    },
    {
      "inputs": [
        {
          "internalType": "bytes32",
          "name": "hname",
          "type": "bytes32"
        }
      ],
      "name": "onListenRemoved",
      "outputs": [],
      "stateMutability": "nonpayable",
      "type": "function"
    },
    {
      "inputs": [
        {
          "internalType": "address",
          "name": "oldInstance",
          "type": "address"
        },
        {
          "internalType": "address",
          "name": "_manager",
          "type": "address"
        }
      ],
      "name": "onUpdate",
      "outputs": [],
      "stateMutability": "nonpayable",
      "type": "function"
    },
    {
      "inputs": [
        {
          "internalType": "address",
          "name": "_manager",
          "type": "address"
        }
      ],
      "name": "onAdd",
      "outputs": [],
      "stateMutability": "nonpayable",
      "type": "function"
    },
    {
      "inputs": [],
      "name": "getValue",
      "outputs": [
        {
          "internalType": "uint256",
          "name": "",
          "type": "uint256"
        }
      ],
      "stateMutability": "view",
      "type": "function"
    }
  ],
  "bytecode": "0x60806040523480156200001157600080fd5b506200001d3362000030565b6200002a60003362000080565b620001be565b600080546001600160a01b038381166001600160a01b0319831681178455604051919092169283917f8be0079c531659141344cd1fd0a4f28419497f9722a3daafe3b4186f6b6457e09190a35050565b620000978282620000c360201b620006831760201c565b6000828152600260209081526040909120620000be918390620006ee6200014c821b17901c565b505050565b60008281526001602090815260408083206001600160a01b038516845290915290205460ff16620001485760008281526001602081815260408084206001600160a01b0386168086529252808420805460ff19169093179092559051339285917f2f8788117e7eff1d82e926ec794901d17c78024a50270940304540a733656f0d9190a45b5050565b600062000163836001600160a01b0384166200016c565b90505b92915050565b6000818152600183016020526040812054620001b55750815460018181018455600084815260208082209093018490558454848252828601909352604090209190915562000166565b50600062000166565b6112bd80620001ce6000396000f3fe608060405234801561001057600080fd5b50600436106101585760003560e01c8063715018a6116100c3578063c69c95791161007c578063c69c9579146102c5578063ca15c873146102d8578063d4697a47146102eb578063d547741f146102fc578063ec87621c1461030f578063f2fde38b1461032457600080fd5b8063715018a61461026b5780638840891e146102735780638da5cb5b146102865780639010d07c1461029757806391d14854146102aa578063a217fddf146102bd57600080fd5b80632f2ff15d116101155780632f2ff15d146101eb57806336568abe146101fe5780633fa4f24514610211578063481c6a751461021a5780635df11291146102455780636b2bf27f1461025857600080fd5b806301ffc9a71461015d5780630447a2cd1461018557806316f28d241461019a5780631a6f04f3146101ad57806320965255146101b5578063248a9ca3146101c7575b600080fd5b61017061016b366004610f25565b610337565b60405190151581526020015b60405180910390f35b610198610193366004610f6b565b610362565b005b6101986101a8366004610f9e565b505050565b6101986103ef565b6004545b60405190815260200161017c565b6101b96101d5366004610fe3565b6000908152600160208190526040909120015490565b6101986101f9366004610ffc565b6103f9565b61019861020c366004610ffc565b610420565b6101b960045481565b60035461022d906001600160a01b031681565b6040516001600160a01b03909116815260200161017c565b61019861025336600461101f565b6104a3565b61019861026636600461101f565b6104ac565b6101986104b5565b61019861028136600461101f565b610519565b6000546001600160a01b031661022d565b61022d6102a536600461103a565b61052a565b6101706102b8366004610ffc565b610549565b6101b9600081565b6101986102d336600461101f565b610574565b6101b96102e6366004610fe3565b61057d565b6101986102f9366004610fe3565b50565b61019861030a366004610ffc565b610594565b6101b960008051602061126883398151915281565b61019861033236600461101f565b6105bb565b60006001600160e01b0319821663292d6b7560e21b148061035c575061035c82610703565b92915050565b61036c8282610728565b816001600160a01b031663209652556040518163ffffffff1660e01b815260040160206040518083038186803b1580156103a557600080fd5b505afa1580156103b9573d6000803e3d6000fd5b505050506040513d601f19601f820116820180604052508101906103dd919061105c565b6103e890600361108b565b6004555050565b6103f76107bb565b565b60008281526001602081905260409091200154610416813361082a565b6101a8838361088e565b6001600160a01b03811633146104955760405162461bcd60e51b815260206004820152602f60248201527f416363657373436f6e74726f6c3a2063616e206f6e6c792072656e6f756e636560448201526e103937b632b9903337b91039b2b63360891b60648201526084015b60405180910390fd5b61049f82826108b0565b5050565b6102f9816108d2565b6102f981610991565b6000546001600160a01b0316331461050f5760405162461bcd60e51b815260206004820181905260248201527f4f776e61626c653a2063616c6c6572206973206e6f7420746865206f776e6572604482015260640161048c565b6103f76000610a07565b61052281610a57565b506001600455565b60008281526002602052604081206105429083610ad9565b9392505050565b60009182526001602090815260408084206001600160a01b0393909316845291905290205460ff1690565b6102f981610ae5565b600081815260026020526040812061035c90610b62565b600082815260016020819052604090912001546105b1813361082a565b6101a883836108b0565b6000546001600160a01b031633146106155760405162461bcd60e51b815260206004820181905260248201527f4f776e61626c653a2063616c6c6572206973206e6f7420746865206f776e6572604482015260640161048c565b6001600160a01b03811661067a5760405162461bcd60e51b815260206004820152602660248201527f4f776e61626c653a206e6577206f776e657220697320746865207a65726f206160448201526564647265737360d01b606482015260840161048c565b6102f981610a07565b61068d8282610549565b61049f5760008281526001602081815260408084206001600160a01b0386168086529252808420805460ff19169093179092559051339285917f2f8788117e7eff1d82e926ec794901d17c78024a50270940304540a733656f0d9190a45050565b6000610542836001600160a01b038416610b6c565b60006001600160e01b03198216635a05180f60e01b148061035c575061035c82610bbb565b61074060008051602061126883398151915233610549565b61075c5760405162461bcd60e51b815260040161048c906110a3565b600380546001600160a01b0319166001600160a01b0383811691821790925560408051928516835260208301919091527ff6515f2a6d531f16723c1e578303b7d74152bf8c0fa3bee828700a3d4706da8d910160405180910390a15050565b6107d360008051602061126883398151915233610549565b6107ef5760405162461bcd60e51b815260040161048c906110a3565b600380546001600160a01b03191690556040517f9a9a74cf290a994f69a718e8557deb1dd65135268f40e660cecddf675f5dd51490600090a1565b6108348282610549565b61049f5761084c816001600160a01b03166014610bf0565b610857836020610bf0565b604051602001610868929190611130565b60408051601f198184030181529082905262461bcd60e51b825261048c916004016111a5565b6108988282610683565b60008281526002602052604090206101a890826106ee565b6108ba8282610d8c565b60008281526002602052604090206101a89082610df3565b6108ea60008051602061126883398151915233610549565b6109065760405162461bcd60e51b815260040161048c906110a3565b600380546001600160a01b0319166001600160a01b038316179055610939600080516020611268833981519152826103f9565b61095160008051602061126883398151915233610594565b6040516001600160a01b03821681527f8eb47098f9568be754f51d21a870c8091ee0242cf97418db00927326d0e6ffcf906020015b60405180910390a150565b6109a960008051602061126883398151915233610549565b6109c55760405162461bcd60e51b815260040161048c906110a3565b6109ce816105bb565b6040516001600160a01b03821681527ff2addf7f813887cf0fdd82b58fcc379ab2301e95c90b41a8cf2e5401914689c990602001610986565b600080546001600160a01b038381166001600160a01b0319831681178455604051919092169283917f8be0079c531659141344cd1fd0a4f28419497f9722a3daafe3b4186f6b6457e09190a35050565b610a6f60008051602061126883398151915233610549565b610a8b5760405162461bcd60e51b815260040161048c906110a3565b600380546001600160a01b0319166001600160a01b0383169081179091556040519081527f89c66952b48f3e96bf1d8ba1b63189520fd988a6979b8b740bd5c5d8dc53e20590602001610986565b60006105428383610e08565b610afd60008051602061126883398151915233610549565b610b195760405162461bcd60e51b815260040161048c906110a3565b600380546001600160a01b03191690556040516001600160a01b03821681527f85a56ff958486f55dd742819603a46ba6233d3b24e6715f9cd5fd2ef6425d68090602001610986565b600061035c825490565b6000818152600183016020526040812054610bb35750815460018181018455600084815260208082209093018490558454848252828601909352604090209190915561035c565b50600061035c565b60006001600160e01b03198216637965db0b60e01b148061035c57506301ffc9a760e01b6001600160e01b031983161461035c565b60606000610bff8360026111d8565b610c0a90600261108b565b67ffffffffffffffff811115610c2257610c226111f7565b6040519080825280601f01601f191660200182016040528015610c4c576020820181803683370190505b509050600360fc1b81600081518110610c6757610c6761120d565b60200101906001600160f81b031916908160001a905350600f60fb1b81600181518110610c9657610c9661120d565b60200101906001600160f81b031916908160001a9053506000610cba8460026111d8565b610cc590600161108b565b90505b6001811115610d3d576f181899199a1a9b1b9c1cb0b131b232b360811b85600f1660108110610cf957610cf961120d565b1a60f81b828281518110610d0f57610d0f61120d565b60200101906001600160f81b031916908160001a90535060049490941c93610d3681611223565b9050610cc8565b5083156105425760405162461bcd60e51b815260206004820181905260248201527f537472696e67733a20686578206c656e67746820696e73756666696369656e74604482015260640161048c565b610d968282610549565b1561049f5760008281526001602090815260408083206001600160a01b0385168085529252808320805460ff1916905551339285917ff6391f5c32d9c69d2a47ea670b442974b53935d1edc7fd64eb21e047a839171b9190a45050565b6000610542836001600160a01b038416610e32565b6000826000018281548110610e1f57610e1f61120d565b9060005260206000200154905092915050565b60008181526001830160205260408120548015610f1b576000610e5660018361123a565b8554909150600090610e6a9060019061123a565b9050818114610ecf576000866000018281548110610e8a57610e8a61120d565b9060005260206000200154905080876000018481548110610ead57610ead61120d565b6000918252602080832090910192909255918252600188019052604090208390555b8554869080610ee057610ee0611251565b60019003818190600052602060002001600090559055856001016000868152602001908152602001600020600090556001935050505061035c565b600091505061035c565b600060208284031215610f3757600080fd5b81356001600160e01b03198116811461054257600080fd5b80356001600160a01b0381168114610f6657600080fd5b919050565b60008060408385031215610f7e57600080fd5b610f8783610f4f565b9150610f9560208401610f4f565b90509250929050565b600080600060608486031215610fb357600080fd5b83359250610fc360208501610f4f565b915060408401358015158114610fd857600080fd5b809150509250925092565b600060208284031215610ff557600080fd5b5035919050565b6000806040838503121561100f57600080fd5b82359150610f9560208401610f4f565b60006020828403121561103157600080fd5b61054282610f4f565b6000806040838503121561104d57600080fd5b50508035926020909101359150565b60006020828403121561106e57600080fd5b5051919050565b634e487b7160e01b600052601160045260246000fd5b6000821982111561109e5761109e611075565b500190565b6020808252603b908201527f43726f7373436f6e74726163744d616e4c697374656e65723a2074686520636160408201527f6c6c6572206d7573742068617665204d414e414745525f524f4c450000000000606082015260800190565b60005b8381101561111b578181015183820152602001611103565b8381111561112a576000848401525b50505050565b7f416363657373436f6e74726f6c3a206163636f756e7420000000000000000000815260008351611168816017850160208801611100565b7001034b99036b4b9b9b4b733903937b6329607d1b6017918401918201528351611199816028840160208801611100565b01602801949350505050565b60208152600082518060208401526111c4816040850160208701611100565b601f01601f19169190910160400192915050565b60008160001904831182151516156111f2576111f2611075565b500290565b634e487b7160e01b600052604160045260246000fd5b634e487b7160e01b600052603260045260246000fd5b60008161123257611232611075565b506000190190565b60008282101561124c5761124c611075565b500390565b634e487b7160e01b600052603160045260246000fdfe241ecf16d79d0f8dbfb92cbc07fe17840425976cf0667f022fe9877caa831b08a2646970667358221220086e6a65b1dde8e6fd567bb95b62731a0cf2999248f707e6d19797d5a0262fc964736f6c63430008090033",
  "immutableReferences": {},
  "source": "\npragma solidity ^0.8;\n\nimport \"../CrossContractManListener.sol\";\n\ncontract ListenerMock2 is CrossContractManListener {\n\n    uint256 public value;\n\n    function onListenAdded(bytes32 hname, address contractInstance, bool isNew) external override {\n//\tsuper._onListenAdded(hname, contractInstance, isNew);\n    }\n\n    function onListenRemoved(bytes32 hname) external override {\n//\tsuper._onListenRemoved(hname);\n    }\n\n    function onUpdate(address oldInstance, address _manager) external override {\n\tsuper._onUpdate(oldInstance, _manager);\n\tvalue = ListenerMock2(oldInstance).getValue()+3;\n    }\n\n    function onAdd(address _manager) external override {\n\tsuper._onAdd(_manager);\n\tvalue = 1;\n    }\n\n    function getValue() public view returns(uint256){\n\treturn value;\n    }\n\n}",
  "sourcePath": "/home/vrogojin/Projects/FireZard/nft/contracts/mocks/ListenerMock2.sol",
  "compiler": {
    "name": "solc",
    "version": "0.8.9+commit.e5eed63a.Emscripten.clang"
  },
  "schemaVersion": "3.4.3",
  "updatedAt": "2022-02-01T15:45:41.415Z",
  "devdoc": {
    "kind": "dev",
    "methods": {
      "getRoleAdmin(bytes32)": {
        "details": "Returns the admin role that controls `role`. See {grantRole} and {revokeRole}. To change a role's admin, use {_setRoleAdmin}."
      },
      "getRoleMember(bytes32,uint256)": {
        "details": "Returns one of the accounts that have `role`. `index` must be a value between 0 and {getRoleMemberCount}, non-inclusive. Role bearers are not sorted in any particular way, and their ordering may change at any point. WARNING: When using {getRoleMember} and {getRoleMemberCount}, make sure you perform all queries on the same block. See the following https://forum.openzeppelin.com/t/iterating-over-elements-on-enumerableset-in-openzeppelin-contracts/2296[forum post] for more information."
      },
      "getRoleMemberCount(bytes32)": {
        "details": "Returns the number of accounts that have `role`. Can be used together with {getRoleMember} to enumerate all bearers of a role."
      },
      "grantRole(bytes32,address)": {
        "details": "Grants `role` to `account`. If `account` had not been already granted `role`, emits a {RoleGranted} event. Requirements: - the caller must have ``role``'s admin role."
      },
      "hasRole(bytes32,address)": {
        "details": "Returns `true` if `account` has been granted `role`."
      },
      "owner()": {
        "details": "Returns the address of the current owner."
      },
      "renounceOwnership()": {
        "details": "Leaves the contract without owner. It will not be possible to call `onlyOwner` functions anymore. Can only be called by the current owner. NOTE: Renouncing ownership will leave the contract without an owner, thereby removing any functionality that is only available to the owner."
      },
      "renounceRole(bytes32,address)": {
        "details": "Revokes `role` from the calling account. Roles are often managed via {grantRole} and {revokeRole}: this function's purpose is to provide a mechanism for accounts to lose their privileges if they are compromised (such as when a trusted device is misplaced). If the calling account had been revoked `role`, emits a {RoleRevoked} event. Requirements: - the caller must be `account`."
      },
      "revokeRole(bytes32,address)": {
        "details": "Revokes `role` from `account`. If `account` had been granted `role`, emits a {RoleRevoked} event. Requirements: - the caller must have ``role``'s admin role."
      },
      "supportsInterface(bytes4)": {
        "details": "See {IERC165-supportsInterface}."
      },
      "transferOwnership(address)": {
        "details": "Transfers ownership of the contract to a new account (`newOwner`). Can only be called by the current owner."
      }
    },
    "version": 1
  },
  "userdoc": {
    "kind": "user",
    "methods": {},
    "version": 1
  }
}