{
  "contractName": "RNG",
  "abi": [
    {
      "inputs": [
        {
          "internalType": "bool",
          "name": "_test_mode",
          "type": "bool"
        }
      ],
      "stateMutability": "nonpayable",
      "type": "constructor"
    },
    {
      "anonymous": false,
      "inputs": [
        {
          "indexed": false,
          "internalType": "bytes32",
          "name": "commitment",
          "type": "bytes32"
        }
      ],
      "name": "Commit",
      "type": "event"
    },
    {
      "anonymous": false,
      "inputs": [
        {
          "indexed": false,
          "internalType": "uint256",
          "name": "cap",
          "type": "uint256"
        }
      ],
      "name": "ConfirmationCap",
      "type": "event"
    },
    {
      "anonymous": false,
      "inputs": [
        {
          "indexed": false,
          "internalType": "bytes32",
          "name": "commitment",
          "type": "bytes32"
        }
      ],
      "name": "EntropyLock",
      "type": "event"
    },
    {
      "anonymous": false,
      "inputs": [
        {
          "indexed": true,
          "internalType": "address",
          "name": "previousOwner",
          "type": "address"
        },
        {
          "indexed": true,
          "internalType": "address",
          "name": "newOwner",
          "type": "address"
        }
      ],
      "name": "OwnershipTransferred",
      "type": "event"
    },
    {
      "anonymous": false,
      "inputs": [
        {
          "indexed": false,
          "internalType": "bytes32",
          "name": "commitment",
          "type": "bytes32"
        }
      ],
      "name": "ResetCommitment",
      "type": "event"
    },
    {
      "inputs": [],
      "name": "commitment_confirmation_cap",
      "outputs": [
        {
          "internalType": "uint256",
          "name": "",
          "type": "uint256"
        }
      ],
      "stateMutability": "view",
      "type": "function"
    },
    {
      "inputs": [],
      "name": "latest_block",
      "outputs": [
        {
          "internalType": "uint256",
          "name": "",
          "type": "uint256"
        }
      ],
      "stateMutability": "view",
      "type": "function"
    },
    {
      "inputs": [],
      "name": "owner",
      "outputs": [
        {
          "internalType": "address",
          "name": "",
          "type": "address"
        }
      ],
      "stateMutability": "view",
      "type": "function"
    },
    {
      "inputs": [],
      "name": "renounceOwnership",
      "outputs": [],
      "stateMutability": "nonpayable",
      "type": "function"
    },
    {
      "inputs": [],
      "name": "test_mode",
      "outputs": [
        {
          "internalType": "bool",
          "name": "",
          "type": "bool"
        }
      ],
      "stateMutability": "view",
      "type": "function"
    },
    {
      "inputs": [
        {
          "internalType": "address",
          "name": "newOwner",
          "type": "address"
        }
      ],
      "name": "transferOwnership",
      "outputs": [],
      "stateMutability": "nonpayable",
      "type": "function"
    },
    {
      "inputs": [],
      "name": "updateBlockHashes",
      "outputs": [],
      "stateMutability": "nonpayable",
      "type": "function"
    },
    {
      "inputs": [
        {
          "internalType": "uint256",
          "name": "cap",
          "type": "uint256"
        }
      ],
      "name": "setCommitmentConfirmationCap",
      "outputs": [],
      "stateMutability": "nonpayable",
      "type": "function"
    },
    {
      "inputs": [
        {
          "internalType": "bytes32",
          "name": "commitment",
          "type": "bytes32"
        }
      ],
      "name": "commit",
      "outputs": [],
      "stateMutability": "nonpayable",
      "type": "function"
    },
    {
      "inputs": [
        {
          "internalType": "bytes32",
          "name": "commitment",
          "type": "bytes32"
        }
      ],
      "name": "resetCommitment",
      "outputs": [],
      "stateMutability": "nonpayable",
      "type": "function"
    },
    {
      "inputs": [
        {
          "internalType": "bytes32",
          "name": "entropy",
          "type": "bytes32"
        }
      ],
      "name": "lock",
      "outputs": [],
      "stateMutability": "nonpayable",
      "type": "function"
    },
    {
      "inputs": [
        {
          "internalType": "bytes32",
          "name": "commitment",
          "type": "bytes32"
        }
      ],
      "name": "read",
      "outputs": [
        {
          "internalType": "uint256",
          "name": "",
          "type": "uint256"
        }
      ],
      "stateMutability": "view",
      "type": "function"
    },
    {
      "inputs": [],
      "name": "getBlockConfirmationCap",
      "outputs": [
        {
          "internalType": "uint256",
          "name": "",
          "type": "uint256"
        }
      ],
      "stateMutability": "view",
      "type": "function"
    }
  ],
  "bytecode": "0x60806040526001805534801561001457600080fd5b50604051610a2b380380610a2b833981016040819052610033916100a2565b61003c33610052565b6002805460ff19169115159190911790556100cb565b600080546001600160a01b038381166001600160a01b0319831681178455604051919092169283917f8be0079c531659141344cd1fd0a4f28419497f9722a3daafe3b4186f6b6457e09190a35050565b6000602082840312156100b457600080fd5b815180151581146100c457600080fd5b9392505050565b610951806100da6000396000f3fe608060405234801561001057600080fd5b50600436106100cf5760003560e01c80637e9c8aaa1161008c578063c2000d5911610066578063c2000d5914610174578063f14fcbc814610191578063f2fde38b146101a4578063fb570bc8146101b757600080fd5b80637e9c8aaa146101485780638da5cb5b14610150578063927e8c421461016b57600080fd5b806301670ba9146100d457806319ebbd40146100e957806321a984d2146100f157806361da14391461010d578063715018a61461012d578063758c3d5b14610135575b600080fd5b6100e76100e2366004610824565b6101ca565b005b6100e761038f565b6100fa60065481565b6040519081526020015b60405180910390f35b6100fa61011b366004610824565b60009081526004602052604090205490565b6100e76103eb565b6100e7610143366004610824565b610421565b6001546100fa565b6000546040516001600160a01b039091168152602001610104565b6100fa60015481565b6002546101819060ff1681565b6040519015158152602001610104565b6100e761019f366004610824565b610487565b6100e76101b236600461083d565b61053f565b6100e76101c5366004610824565b6105da565b6040516272278d60e51b81526004810182905260009073__Util__________________________________90630e44f1a09060240160206040518083038186803b15801561021757600080fd5b505af415801561022b573d6000803e3d6000fd5b505050506040513d601f19601f8201168201806040525081019061024f919061086d565b600081815260046020526040902054909150156102ca5760405162461bcd60e51b815260206004820152602e60248201527f54686520656e74726f70792073686f756c64206e6f742068617665206265656e60448201526d206c6f636b6564206265666f726560901b60648201526084015b60405180910390fd5b6000818152600360205260409020548061033b5760405162461bcd60e51b815260206004820152602c60248201527f54686520656e74726f7079206d7573742068617665206265656e20636f6d6d6960448201526b3a3a32b21032b0b93634b2b960a11b60648201526084016102c1565b61034581846106ae565b60008381526004602090815260409182902092909255518381527ffcd44fe2414c570f1af4666197b149197ea4a4e0074e764e7e2e2772e3661a1d910160405180910390a1505050565b60ff6006544361039f919061089c565b11156103b4576103b060ff4361089c565b6006555b6006545b438110156103e457600081815260056020526040902081409055806103dc816108b3565b9150506103b8565b5043600655565b6000546001600160a01b031633146104155760405162461bcd60e51b81526004016102c1906108ce565b61041f60006107a0565b565b6000546001600160a01b0316331461044b5760405162461bcd60e51b81526004016102c1906108ce565b60018190556040518181527fb6d78f6de320575c58204be457b06337e60feb5ad743168491402255688638c3906020015b60405180910390a150565b600081815260036020526040902054156104fc5760405162461bcd60e51b815260206004820152603060248201527f54686520656e74726f70792073686f756c64206e6f742068617665206265656e60448201526f20636f6d6d69746564206265666f726560801b60648201526084016102c1565b60008181526003602052604090819020439055517f9e8a51bb6b34b9d5d18c14fd753ee3bf44e2256512665a4577281ffcc91943ff9061047c9083815260200190565b6000546001600160a01b031633146105695760405162461bcd60e51b81526004016102c1906108ce565b6001600160a01b0381166105ce5760405162461bcd60e51b815260206004820152602660248201527f4f776e61626c653a206e6577206f776e657220697320746865207a65726f206160448201526564647265737360d01b60648201526084016102c1565b6105d7816107a0565b50565b6000546001600160a01b031633146106045760405162461bcd60e51b81526004016102c1906108ce565b60025460ff166106625760405162461bcd60e51b815260206004820152602360248201527f54686973206d6574686f6420776f726b7320696e2074657374206d6f6465206f6044820152626e6c7960e81b60648201526084016102c1565b6000818152600360209081526040808320839055600482528083209290925590518281527fac68f90975f9410b216667788d897499268d6d22966a128552c0f7efc72fc332910161047c565b6001546000906106be844361089c565b116107575760405162461bcd60e51b815260206004820152605c60248201527f54686520656e74726f7079206d7573742068617665206265656e20636f6d6d6960448201527f74746564206174206c656173742074686520636f6d6d69746d656e745f636f6e60648201527f6669726d6174696f6e5f63617020626c6f636b73206561726c69657200000000608482015260a4016102c1565b61076d600154846107689190610903565b6107f0565b604080516020810192909252810183905260600160408051601f1981840301815291905280516020909101209392505050565b600080546001600160a01b038381166001600160a01b0319831681178455604051919092169283917f8be0079c531659141344cd1fd0a4f28419497f9722a3daafe3b4186f6b6457e09190a35050565b60008060ff6107ff844361089c565b111561081a575060008281526005602052604090205461081e565b5081405b92915050565b60006020828403121561083657600080fd5b5035919050565b60006020828403121561084f57600080fd5b81356001600160a01b038116811461086657600080fd5b9392505050565b60006020828403121561087f57600080fd5b5051919050565b634e487b7160e01b600052601160045260246000fd5b6000828210156108ae576108ae610886565b500390565b60006000198214156108c7576108c7610886565b5060010190565b6020808252818101527f4f776e61626c653a2063616c6c6572206973206e6f7420746865206f776e6572604082015260600190565b6000821982111561091657610916610886565b50019056fea26469706673582212203af60a2e87633996ba49651c89da87826b95b76493e9b2cde09c0063ba17b3dd64736f6c63430008090033",
  "immutableReferences": {},
  "source": "\npragma solidity ^0.8.0;\n\nimport \"@openzeppelin/contracts/access/Ownable.sol\";\n\nimport \"./Util.sol\";\n\nimport \"./IRNG.sol\";\n\ncontract RNG is IRNG, Ownable {\n    uint256 public commitment_confirmation_cap = 1;\n    bool public test_mode;\n\n    mapping(bytes32 => uint256) commitments;\n    mapping(bytes32 => uint256) rvalues;\n\n    mapping(uint256 => bytes32) block_hashes;\n    uint256 public\tlatest_block;\n\n    constructor(bool _test_mode){\n\ttest_mode = _test_mode;\n    }\n\n    function updateBlockHashes() external virtual {\n\tif((block.number - latest_block) > 255)\n\t    latest_block = block.number - 255;\n\tfor(uint i=latest_block;i<block.number;i++)\n\t    block_hashes[i] = blockhash(i);\n\tlatest_block = block.number;\n    }\n\n    function setCommitmentConfirmationCap(uint256 cap) external onlyOwner {\n\tcommitment_confirmation_cap = cap;\n\n\temit ConfirmationCap(cap);\n    }\n\n    function commit(bytes32 commitment) external {\n\trequire((commitments[commitment] == 0),\"The entropy should not have been commited before\");\n\tcommitments[commitment] = block.number;\n\n\temit Commit(commitment);\n    }\n\n    function resetCommitment(bytes32 commitment) external onlyOwner {\n\trequire(test_mode, \"This method works in test mode only\");\n\tcommitments[commitment] = 0;\n\trvalues[commitment] = 0;\n\n\temit ResetCommitment(commitment);\n    }\n\n    function _getHash(uint256 _block_num) internal view returns (bytes32) {\n\tbytes32 _block_hash;\n\tif(block.number - _block_num > 255)\n\t    _block_hash = block_hashes[_block_num];\n\telse\n\t    _block_hash = blockhash(_block_num);\n\treturn _block_hash;\n    }\n\n    function _getRandomValue(uint256 block_num, bytes32 user_entropy) internal view returns (uint256) {\n\trequire((block.number - block_num  > commitment_confirmation_cap),\"The entropy must have been committed at least the commitment_confirmation_cap blocks earlier\");\n\treturn uint256(keccak256(abi.encodePacked(_getHash(block_num+commitment_confirmation_cap), user_entropy)));\n    }\n\n    function lock(bytes32 entropy) external{\n\tbytes32 commitment = Util.deriveCommitment(entropy);\n\trequire(rvalues[commitment] == 0, \"The entropy should not have been locked before\");\n\tuint256 block_num = commitments[commitment];\n\trequire(block_num > 0, \"The entropy must have been committed earlier\");\n\trvalues[commitment] = _getRandomValue(block_num,entropy);\n\n\temit EntropyLock(commitment);\n    }\n\n    function read(bytes32 commitment) external view returns (uint256){\n\treturn rvalues[commitment];\n    }\n\n    function getBlockConfirmationCap() external view returns (uint256){\n\treturn commitment_confirmation_cap;\n    }\n\n    event ConfirmationCap(uint256 cap);\n    event ResetCommitment(bytes32 commitment);\n    event EntropyLock(bytes32 commitment);\n    event Commit(bytes32 commitment);\n}\n",
  "sourcePath": "/home/vrogojin/Projects/FireZard-main/FireZard/nft/contracts/RNG.sol",
  "compiler": {
    "name": "solc",
    "version": "0.8.9+commit.e5eed63a.Emscripten.clang"
  },
  "schemaVersion": "3.4.3",
  "updatedAt": "2022-01-23T14:07:22.228Z",
  "devdoc": {
    "kind": "dev",
    "methods": {
      "commit(bytes32)": {
        "params": {
          "commitment": "Commitment for the client's entropy. For instrance, this can be hash of the entropy.*"
        }
      },
      "lock(bytes32)": {
        "params": {
          "entropy": "Client's entropy*"
        }
      },
      "owner()": {
        "details": "Returns the address of the current owner."
      },
      "read(bytes32)": {
        "params": {
          "commitment": "The commitment identifying the resulting randomly generated number*"
        }
      },
      "renounceOwnership()": {
        "details": "Leaves the contract without owner. It will not be possible to call `onlyOwner` functions anymore. Can only be called by the current owner. NOTE: Renouncing ownership will leave the contract without an owner, thereby removing any functionality that is only available to the owner."
      },
      "transferOwnership(address)": {
        "details": "Transfers ownership of the contract to a new account (`newOwner`). Can only be called by the current owner."
      }
    },
    "version": 1
  },
  "userdoc": {
    "kind": "user",
    "methods": {
      "commit(bytes32)": {
        "notice": "Commit a hidden entropy generated by a client."
      },
      "lock(bytes32)": {
        "notice": "Lock client's entropy. Mix client's entropy with the entropy of a block that was mined before  the method call, but after the block with the client's entropy commitment.  Note, that no miner knows client's entropy when it is commited to the blockchain and cannot manipulate the hash of the block where client's entropy is mixed with the blockchain entropy, since client's entropy is actually revealed after the lock block is mined. On the other hand, the client cannot predict the blockchain entropy either, when the  client's and blockchain's entropies get mixed."
      },
      "read(bytes32)": {
        "notice": "Read the (pseudo-)random number derived from the client's and blockchain entropies. The number is uniquely defined by the client's entropy commitment."
      }
    },
    "version": 1
  }
}