{
  "contractName": "RNG",
  "abi": [
    {
      "inputs": [
        {
          "internalType": "bool",
          "name": "_test_mode",
          "type": "bool"
        }
      ],
      "stateMutability": "nonpayable",
      "type": "constructor"
    },
    {
      "anonymous": false,
      "inputs": [
        {
          "indexed": false,
          "internalType": "bytes32",
          "name": "commitment",
          "type": "bytes32"
        }
      ],
      "name": "Commit",
      "type": "event"
    },
    {
      "anonymous": false,
      "inputs": [
        {
          "indexed": false,
          "internalType": "uint256",
          "name": "cap",
          "type": "uint256"
        }
      ],
      "name": "ConfirmationCap",
      "type": "event"
    },
    {
      "anonymous": false,
      "inputs": [
        {
          "indexed": false,
          "internalType": "address",
          "name": "_manager",
          "type": "address"
        }
      ],
      "name": "ContractAdded",
      "type": "event"
    },
    {
      "anonymous": false,
      "inputs": [
        {
          "indexed": false,
          "internalType": "address",
          "name": "newManager",
          "type": "address"
        }
      ],
      "name": "ContractManagerSwitch",
      "type": "event"
    },
    {
      "anonymous": false,
      "inputs": [
        {
          "indexed": false,
          "internalType": "address",
          "name": "newOwner",
          "type": "address"
        }
      ],
      "name": "ContractOwnershipUpdate",
      "type": "event"
    },
    {
      "anonymous": false,
      "inputs": [],
      "name": "ContractRemoved",
      "type": "event"
    },
    {
      "anonymous": false,
      "inputs": [
        {
          "indexed": false,
          "internalType": "address",
          "name": "contractInstance",
          "type": "address"
        }
      ],
      "name": "ContractReplaced",
      "type": "event"
    },
    {
      "anonymous": false,
      "inputs": [
        {
          "indexed": false,
          "internalType": "address",
          "name": "oldInstance",
          "type": "address"
        },
        {
          "indexed": false,
          "internalType": "address",
          "name": "_manager",
          "type": "address"
        }
      ],
      "name": "ContractUpdated",
      "type": "event"
    },
    {
      "anonymous": false,
      "inputs": [
        {
          "indexed": false,
          "internalType": "bytes32",
          "name": "commitment",
          "type": "bytes32"
        }
      ],
      "name": "EntropyLock",
      "type": "event"
    },
    {
      "anonymous": false,
      "inputs": [
        {
          "indexed": true,
          "internalType": "address",
          "name": "previousOwner",
          "type": "address"
        },
        {
          "indexed": true,
          "internalType": "address",
          "name": "newOwner",
          "type": "address"
        }
      ],
      "name": "OwnershipTransferred",
      "type": "event"
    },
    {
      "anonymous": false,
      "inputs": [
        {
          "indexed": false,
          "internalType": "bytes32",
          "name": "commitment",
          "type": "bytes32"
        }
      ],
      "name": "ResetCommitment",
      "type": "event"
    },
    {
      "anonymous": false,
      "inputs": [
        {
          "indexed": true,
          "internalType": "bytes32",
          "name": "role",
          "type": "bytes32"
        },
        {
          "indexed": true,
          "internalType": "bytes32",
          "name": "previousAdminRole",
          "type": "bytes32"
        },
        {
          "indexed": true,
          "internalType": "bytes32",
          "name": "newAdminRole",
          "type": "bytes32"
        }
      ],
      "name": "RoleAdminChanged",
      "type": "event"
    },
    {
      "anonymous": false,
      "inputs": [
        {
          "indexed": true,
          "internalType": "bytes32",
          "name": "role",
          "type": "bytes32"
        },
        {
          "indexed": true,
          "internalType": "address",
          "name": "account",
          "type": "address"
        },
        {
          "indexed": true,
          "internalType": "address",
          "name": "sender",
          "type": "address"
        }
      ],
      "name": "RoleGranted",
      "type": "event"
    },
    {
      "anonymous": false,
      "inputs": [
        {
          "indexed": true,
          "internalType": "bytes32",
          "name": "role",
          "type": "bytes32"
        },
        {
          "indexed": true,
          "internalType": "address",
          "name": "account",
          "type": "address"
        },
        {
          "indexed": true,
          "internalType": "address",
          "name": "sender",
          "type": "address"
        }
      ],
      "name": "RoleRevoked",
      "type": "event"
    },
    {
      "inputs": [],
      "name": "DEFAULT_ADMIN_ROLE",
      "outputs": [
        {
          "internalType": "bytes32",
          "name": "",
          "type": "bytes32"
        }
      ],
      "stateMutability": "view",
      "type": "function"
    },
    {
      "inputs": [],
      "name": "MANAGER_ROLE",
      "outputs": [
        {
          "internalType": "bytes32",
          "name": "",
          "type": "bytes32"
        }
      ],
      "stateMutability": "view",
      "type": "function"
    },
    {
      "inputs": [],
      "name": "commitment_confirmation_cap",
      "outputs": [
        {
          "internalType": "uint256",
          "name": "",
          "type": "uint256"
        }
      ],
      "stateMutability": "view",
      "type": "function"
    },
    {
      "inputs": [],
      "name": "contract_id",
      "outputs": [
        {
          "internalType": "bytes32",
          "name": "",
          "type": "bytes32"
        }
      ],
      "stateMutability": "view",
      "type": "function"
    },
    {
      "inputs": [],
      "name": "contract_name",
      "outputs": [
        {
          "internalType": "string",
          "name": "",
          "type": "string"
        }
      ],
      "stateMutability": "view",
      "type": "function"
    },
    {
      "inputs": [
        {
          "internalType": "bytes32",
          "name": "role",
          "type": "bytes32"
        }
      ],
      "name": "getRoleAdmin",
      "outputs": [
        {
          "internalType": "bytes32",
          "name": "",
          "type": "bytes32"
        }
      ],
      "stateMutability": "view",
      "type": "function"
    },
    {
      "inputs": [
        {
          "internalType": "bytes32",
          "name": "role",
          "type": "bytes32"
        },
        {
          "internalType": "uint256",
          "name": "index",
          "type": "uint256"
        }
      ],
      "name": "getRoleMember",
      "outputs": [
        {
          "internalType": "address",
          "name": "",
          "type": "address"
        }
      ],
      "stateMutability": "view",
      "type": "function"
    },
    {
      "inputs": [
        {
          "internalType": "bytes32",
          "name": "role",
          "type": "bytes32"
        }
      ],
      "name": "getRoleMemberCount",
      "outputs": [
        {
          "internalType": "uint256",
          "name": "",
          "type": "uint256"
        }
      ],
      "stateMutability": "view",
      "type": "function"
    },
    {
      "inputs": [
        {
          "internalType": "bytes32",
          "name": "role",
          "type": "bytes32"
        },
        {
          "internalType": "address",
          "name": "account",
          "type": "address"
        }
      ],
      "name": "grantRole",
      "outputs": [],
      "stateMutability": "nonpayable",
      "type": "function"
    },
    {
      "inputs": [
        {
          "internalType": "bytes32",
          "name": "role",
          "type": "bytes32"
        },
        {
          "internalType": "address",
          "name": "account",
          "type": "address"
        }
      ],
      "name": "hasRole",
      "outputs": [
        {
          "internalType": "bool",
          "name": "",
          "type": "bool"
        }
      ],
      "stateMutability": "view",
      "type": "function"
    },
    {
      "inputs": [],
      "name": "latest_block",
      "outputs": [
        {
          "internalType": "uint256",
          "name": "",
          "type": "uint256"
        }
      ],
      "stateMutability": "view",
      "type": "function"
    },
    {
      "inputs": [],
      "name": "manager",
      "outputs": [
        {
          "internalType": "address",
          "name": "",
          "type": "address"
        }
      ],
      "stateMutability": "view",
      "type": "function"
    },
    {
      "inputs": [
        {
          "internalType": "address",
          "name": "_manager",
          "type": "address"
        }
      ],
      "name": "onAdd",
      "outputs": [],
      "stateMutability": "nonpayable",
      "type": "function"
    },
    {
      "inputs": [],
      "name": "onRemoved",
      "outputs": [],
      "stateMutability": "nonpayable",
      "type": "function"
    },
    {
      "inputs": [
        {
          "internalType": "address",
          "name": "newInstance",
          "type": "address"
        }
      ],
      "name": "onReplaced",
      "outputs": [],
      "stateMutability": "nonpayable",
      "type": "function"
    },
    {
      "inputs": [],
      "name": "owner",
      "outputs": [
        {
          "internalType": "address",
          "name": "",
          "type": "address"
        }
      ],
      "stateMutability": "view",
      "type": "function"
    },
    {
      "inputs": [],
      "name": "renounceOwnership",
      "outputs": [],
      "stateMutability": "nonpayable",
      "type": "function"
    },
    {
      "inputs": [
        {
          "internalType": "bytes32",
          "name": "role",
          "type": "bytes32"
        },
        {
          "internalType": "address",
          "name": "account",
          "type": "address"
        }
      ],
      "name": "renounceRole",
      "outputs": [],
      "stateMutability": "nonpayable",
      "type": "function"
    },
    {
      "inputs": [
        {
          "internalType": "bytes32",
          "name": "role",
          "type": "bytes32"
        },
        {
          "internalType": "address",
          "name": "account",
          "type": "address"
        }
      ],
      "name": "revokeRole",
      "outputs": [],
      "stateMutability": "nonpayable",
      "type": "function"
    },
    {
      "inputs": [
        {
          "internalType": "bytes4",
          "name": "interfaceId",
          "type": "bytes4"
        }
      ],
      "name": "supportsInterface",
      "outputs": [
        {
          "internalType": "bool",
          "name": "",
          "type": "bool"
        }
      ],
      "stateMutability": "view",
      "type": "function"
    },
    {
      "inputs": [
        {
          "internalType": "address",
          "name": "newManager",
          "type": "address"
        }
      ],
      "name": "switchManager",
      "outputs": [],
      "stateMutability": "nonpayable",
      "type": "function"
    },
    {
      "inputs": [],
      "name": "test_mode",
      "outputs": [
        {
          "internalType": "bool",
          "name": "",
          "type": "bool"
        }
      ],
      "stateMutability": "view",
      "type": "function"
    },
    {
      "inputs": [
        {
          "internalType": "address",
          "name": "newOwner",
          "type": "address"
        }
      ],
      "name": "transferOwnership",
      "outputs": [],
      "stateMutability": "nonpayable",
      "type": "function"
    },
    {
      "inputs": [
        {
          "internalType": "address",
          "name": "newOwner",
          "type": "address"
        }
      ],
      "name": "updateOwnership",
      "outputs": [],
      "stateMutability": "nonpayable",
      "type": "function"
    },
    {
      "inputs": [],
      "name": "getName",
      "outputs": [
        {
          "internalType": "string",
          "name": "",
          "type": "string"
        }
      ],
      "stateMutability": "pure",
      "type": "function"
    },
    {
      "inputs": [],
      "name": "getId",
      "outputs": [
        {
          "internalType": "bytes32",
          "name": "",
          "type": "bytes32"
        }
      ],
      "stateMutability": "pure",
      "type": "function"
    },
    {
      "inputs": [
        {
          "internalType": "bytes32",
          "name": "hname",
          "type": "bytes32"
        },
        {
          "internalType": "address",
          "name": "contractInstance",
          "type": "address"
        },
        {
          "internalType": "bool",
          "name": "isNew",
          "type": "bool"
        }
      ],
      "name": "onListenAdded",
      "outputs": [],
      "stateMutability": "nonpayable",
      "type": "function"
    },
    {
      "inputs": [
        {
          "internalType": "bytes32",
          "name": "hname",
          "type": "bytes32"
        }
      ],
      "name": "onListenRemoved",
      "outputs": [],
      "stateMutability": "nonpayable",
      "type": "function"
    },
    {
      "inputs": [
        {
          "internalType": "address",
          "name": "oldInstance",
          "type": "address"
        },
        {
          "internalType": "address",
          "name": "_manager",
          "type": "address"
        }
      ],
      "name": "onUpdate",
      "outputs": [],
      "stateMutability": "nonpayable",
      "type": "function"
    },
    {
      "inputs": [],
      "name": "updateBlockHashes",
      "outputs": [],
      "stateMutability": "nonpayable",
      "type": "function"
    },
    {
      "inputs": [
        {
          "internalType": "uint256",
          "name": "cap",
          "type": "uint256"
        }
      ],
      "name": "setCommitmentConfirmationCap",
      "outputs": [],
      "stateMutability": "nonpayable",
      "type": "function"
    },
    {
      "inputs": [
        {
          "internalType": "bytes32",
          "name": "commitment",
          "type": "bytes32"
        }
      ],
      "name": "commit",
      "outputs": [],
      "stateMutability": "nonpayable",
      "type": "function"
    },
    {
      "inputs": [
        {
          "internalType": "bytes32",
          "name": "commitment",
          "type": "bytes32"
        }
      ],
      "name": "resetCommitment",
      "outputs": [],
      "stateMutability": "nonpayable",
      "type": "function"
    },
    {
      "inputs": [
        {
          "internalType": "bytes32",
          "name": "entropy",
          "type": "bytes32"
        }
      ],
      "name": "lock",
      "outputs": [],
      "stateMutability": "nonpayable",
      "type": "function"
    },
    {
      "inputs": [
        {
          "internalType": "bytes32",
          "name": "commitment",
          "type": "bytes32"
        }
      ],
      "name": "read",
      "outputs": [
        {
          "internalType": "uint256",
          "name": "",
          "type": "uint256"
        }
      ],
      "stateMutability": "view",
      "type": "function"
    },
    {
      "inputs": [],
      "name": "getBlockConfirmationCap",
      "outputs": [
        {
          "internalType": "uint256",
          "name": "",
          "type": "uint256"
        }
      ],
      "stateMutability": "view",
      "type": "function"
    }
  ],
  "bytecode": "0x608060405260016004553480156200001657600080fd5b5060405162001c5838038062001c588339810160408190526200003991620001f6565b620000443362000068565b62000051600033620000b8565b6005805460ff191691151591909117905562000221565b600080546001600160a01b038381166001600160a01b0319831681178455604051919092169283917f8be0079c531659141344cd1fd0a4f28419497f9722a3daafe3b4186f6b6457e09190a35050565b620000cf8282620000fb60201b62000c311760201c565b6000828152600260209081526040909120620000f691839062000c9c62000184821b17901c565b505050565b60008281526001602090815260408083206001600160a01b038516845290915290205460ff16620001805760008281526001602081815260408084206001600160a01b0386168086529252808420805460ff19169093179092559051339285917f2f8788117e7eff1d82e926ec794901d17c78024a50270940304540a733656f0d9190a45b5050565b60006200019b836001600160a01b038416620001a4565b90505b92915050565b6000818152600183016020526040812054620001ed575081546001818101845560008481526020808220909301849055845484825282860190935260409020919091556200019e565b5060006200019e565b6000602082840312156200020957600080fd5b815180151581146200021a57600080fd5b9392505050565b611a2780620002316000396000f3fe608060405234801561001057600080fd5b506004361061021c5760003560e01c8063758c3d5b11610125578063c69c9579116100ad578063d94796921161007c578063d947969214610473578063ec87621c14610495578063f14fcbc8146104aa578063f2fde38b146104bd578063fb570bc8146104d057600080fd5b8063c69c957914610429578063ca15c8731461043c578063d4697a471461044f578063d547741f1461046057600080fd5b80639010d07c116100f45780639010d07c146103e557806391d14854146103f8578063927e8c421461040b578063a217fddf14610414578063c2000d591461041c57600080fd5b8063758c3d5b146103a65780637e9c8aaa146103b95780638840891e146103c15780638da5cb5b146103d457600080fd5b80632f2ff15d116101a85780635d1ca631116101775780635d1ca631146103505780635df112911461035857806361da14391461036b5780636b2bf27f1461038b578063715018a61461039e57600080fd5b80632f2ff15d146102f757806336568abe1461030a5780633ad32d161461031d578063481c6a751461032557600080fd5b806317d7de7c116101ef57806317d7de7c1461028457806319ebbd40146102ac5780631a6f04f3146102b457806321a984d2146102bc578063248a9ca3146102d357600080fd5b806301670ba91461022157806301ffc9a7146102365780630447a2cd1461025e57806316f28d2414610271575b600080fd5b61023461022f366004611623565b6104e3565b005b61024961024436600461163c565b6106a8565b60405190151581526020015b60405180910390f35b61023461026c366004611682565b6106d3565b61023461027f3660046116b5565b505050565b604080518082019091526003815262524e4760e81b60208201525b604051610255919061172a565b61023461075a565b6102346107b6565b6102c560095481565b604051908152602001610255565b6102c56102e1366004611623565b6000908152600160208190526040909120015490565b61023461030536600461175d565b6107c0565b61023461031836600461175d565b6107e7565b6102c5610861565b600354610338906001600160a01b031681565b6040516001600160a01b039091168152602001610255565b6102c56108a6565b610234610366366004611780565b6108ef565b6102c5610379366004611623565b60009081526007602052604090205490565b610234610399366004611780565b6108f8565b610234610901565b6102346103b4366004611623565b610935565b6004546102c5565b6102346103cf366004611780565b610968565b6000546001600160a01b0316610338565b6103386103f336600461179b565b610971565b61024961040636600461175d565b610990565b6102c560045481565b6102c5600081565b6005546102499060ff1681565b610234610437366004611780565b6109bb565b6102c561044a366004611623565b6109c4565b61023461045d366004611623565b50565b61023461046e36600461175d565b6109db565b61029f60405180604001604052806003815260200162524e4760e81b81525081565b6102c56000805160206119d283398151915281565b6102346104b8366004611623565b610a02565b6102346104cb366004611780565b610ac5565b6102346104de366004611623565b610b5d565b6040516272278d60e51b81526004810182905260009073__Util__________________________________90630e44f1a09060240160206040518083038186803b15801561053057600080fd5b505af4158015610544573d6000803e3d6000fd5b505050506040513d601f19601f8201168201806040525081019061056891906117bd565b600081815260076020526040902054909150156105e35760405162461bcd60e51b815260206004820152602e60248201527f54686520656e74726f70792073686f756c64206e6f742068617665206265656e60448201526d206c6f636b6564206265666f726560901b60648201526084015b60405180910390fd5b600081815260066020526040902054806106545760405162461bcd60e51b815260206004820152602c60248201527f54686520656e74726f7079206d7573742068617665206265656e20636f6d6d6960448201526b3a3a32b21032b0b93634b2b960a11b60648201526084016105da565b61065e8184610cb1565b60008381526007602090815260409182902092909255518381527ffcd44fe2414c570f1af4666197b149197ea4a4e0074e764e7e2e2772e3661a1d910160405180910390a1505050565b60006001600160e01b0319821663ee7ed59960e01b14806106cd57506106cd82610da3565b92915050565b6106dd8282610dc8565b610756826001600160a01b031663927e8c426040518163ffffffff1660e01b815260040160206040518083038186803b15801561071957600080fd5b505afa15801561072d573d6000803e3d6000fd5b505050506040513d601f19601f8201168201806040525081019061075191906117bd565b610e5b565b5050565b60ff6009544361076a91906117ec565b111561077f5761077b60ff436117ec565b6009555b6009545b438110156107af57600081815260086020526040902081409055806107a781611803565b915050610783565b5043600955565b6107be610e90565b565b600082815260016020819052604090912001546107dd8133610eff565b61027f8383610f63565b6001600160a01b03811633146108575760405162461bcd60e51b815260206004820152602f60248201527f416363657373436f6e74726f6c3a2063616e206f6e6c792072656e6f756e636560448201526e103937b632b9903337b91039b2b63360891b60648201526084016105da565b6107568282610f85565b60405180604001604052806003815260200162524e4760e81b81525060405160200161088d919061181e565b6040516020818303038152906040528051906020012081565b600060405180604001604052806003815260200162524e4760e81b8152506040516020016108d4919061181e565b60405160208183030381529060405280519060200120905090565b61045d81610fa7565b61045d8161105f565b6000546001600160a01b0316331461092b5760405162461bcd60e51b81526004016105da9061183a565b6107be60006110d5565b6000546001600160a01b0316331461095f5760405162461bcd60e51b81526004016105da9061183a565b61045d81610e5b565b61045d81611125565b600082815260026020526040812061098990836111a7565b9392505050565b60009182526001602090815260408084206001600160a01b0393909316845291905290205460ff1690565b61045d816111b3565b60008181526002602052604081206106cd90611230565b600082815260016020819052604090912001546109f88133610eff565b61027f8383610f85565b60008181526006602052604090205415610a775760405162461bcd60e51b815260206004820152603060248201527f54686520656e74726f70792073686f756c64206e6f742068617665206265656e60448201526f20636f6d6d69746564206265666f726560801b60648201526084016105da565b60008181526006602052604090819020439055517f9e8a51bb6b34b9d5d18c14fd753ee3bf44e2256512665a4577281ffcc91943ff90610aba9083815260200190565b60405180910390a150565b6000546001600160a01b03163314610aef5760405162461bcd60e51b81526004016105da9061183a565b6001600160a01b038116610b545760405162461bcd60e51b815260206004820152602660248201527f4f776e61626c653a206e6577206f776e657220697320746865207a65726f206160448201526564647265737360d01b60648201526084016105da565b61045d816110d5565b6000546001600160a01b03163314610b875760405162461bcd60e51b81526004016105da9061183a565b60055460ff16610be55760405162461bcd60e51b815260206004820152602360248201527f54686973206d6574686f6420776f726b7320696e2074657374206d6f6465206f6044820152626e6c7960e81b60648201526084016105da565b6000818152600660209081526040808320839055600782528083209290925590518281527fac68f90975f9410b216667788d897499268d6d22966a128552c0f7efc72fc3329101610aba565b610c3b8282610990565b6107565760008281526001602081815260408084206001600160a01b0386168086529252808420805460ff19169093179092559051339285917f2f8788117e7eff1d82e926ec794901d17c78024a50270940304540a733656f0d9190a45050565b6000610989836001600160a01b03841661123a565b600454600090610cc184436117ec565b11610d5a5760405162461bcd60e51b815260206004820152605c60248201527f54686520656e74726f7079206d7573742068617665206265656e20636f6d6d6960448201527f74746564206174206c656173742074686520636f6d6d69746d656e745f636f6e60648201527f6669726d6174696f6e5f63617020626c6f636b73206561726c69657200000000608482015260a4016105da565b610d7060045484610d6b919061186f565b611289565b604080516020810192909252810183905260600160408051601f1981840301815291905280516020909101209392505050565b60006001600160e01b03198216635a05180f60e01b14806106cd57506106cd826112b9565b610de06000805160206119d283398151915233610990565b610dfc5760405162461bcd60e51b81526004016105da90611887565b600380546001600160a01b0319166001600160a01b0383811691821790925560408051928516835260208301919091527ff6515f2a6d531f16723c1e578303b7d74152bf8c0fa3bee828700a3d4706da8d910160405180910390a15050565b60048190556040518181527fb6d78f6de320575c58204be457b06337e60feb5ad743168491402255688638c390602001610aba565b610ea86000805160206119d283398151915233610990565b610ec45760405162461bcd60e51b81526004016105da90611887565b600380546001600160a01b03191690556040517f9a9a74cf290a994f69a718e8557deb1dd65135268f40e660cecddf675f5dd51490600090a1565b610f098282610990565b61075657610f21816001600160a01b031660146112ee565b610f2c8360206112ee565b604051602001610f3d9291906118e4565b60408051601f198184030181529082905262461bcd60e51b82526105da9160040161172a565b610f6d8282610c31565b600082815260026020526040902061027f9082610c9c565b610f8f828261148a565b600082815260026020526040902061027f90826114f1565b610fbf6000805160206119d283398151915233610990565b610fdb5760405162461bcd60e51b81526004016105da90611887565b600380546001600160a01b0319166001600160a01b03831617905561100e6000805160206119d2833981519152826107c0565b6110266000805160206119d2833981519152336109db565b6040516001600160a01b03821681527f8eb47098f9568be754f51d21a870c8091ee0242cf97418db00927326d0e6ffcf90602001610aba565b6110776000805160206119d283398151915233610990565b6110935760405162461bcd60e51b81526004016105da90611887565b61109c81610ac5565b6040516001600160a01b03821681527ff2addf7f813887cf0fdd82b58fcc379ab2301e95c90b41a8cf2e5401914689c990602001610aba565b600080546001600160a01b038381166001600160a01b0319831681178455604051919092169283917f8be0079c531659141344cd1fd0a4f28419497f9722a3daafe3b4186f6b6457e09190a35050565b61113d6000805160206119d283398151915233610990565b6111595760405162461bcd60e51b81526004016105da90611887565b600380546001600160a01b0319166001600160a01b0383169081179091556040519081527f89c66952b48f3e96bf1d8ba1b63189520fd988a6979b8b740bd5c5d8dc53e20590602001610aba565b60006109898383611506565b6111cb6000805160206119d283398151915233610990565b6111e75760405162461bcd60e51b81526004016105da90611887565b600380546001600160a01b03191690556040516001600160a01b03821681527f85a56ff958486f55dd742819603a46ba6233d3b24e6715f9cd5fd2ef6425d68090602001610aba565b60006106cd825490565b6000818152600183016020526040812054611281575081546001818101845560008481526020808220909301849055845484825282860190935260409020919091556106cd565b5060006106cd565b60008060ff61129884436117ec565b11156112b357506000828152600860205260409020546106cd565b50504090565b60006001600160e01b03198216637965db0b60e01b14806106cd57506301ffc9a760e01b6001600160e01b03198316146106cd565b606060006112fd836002611959565b61130890600261186f565b67ffffffffffffffff81111561132057611320611978565b6040519080825280601f01601f19166020018201604052801561134a576020820181803683370190505b509050600360fc1b816000815181106113655761136561198e565b60200101906001600160f81b031916908160001a905350600f60fb1b816001815181106113945761139461198e565b60200101906001600160f81b031916908160001a90535060006113b8846002611959565b6113c390600161186f565b90505b600181111561143b576f181899199a1a9b1b9c1cb0b131b232b360811b85600f16601081106113f7576113f761198e565b1a60f81b82828151811061140d5761140d61198e565b60200101906001600160f81b031916908160001a90535060049490941c93611434816119a4565b90506113c6565b5083156109895760405162461bcd60e51b815260206004820181905260248201527f537472696e67733a20686578206c656e67746820696e73756666696369656e7460448201526064016105da565b6114948282610990565b156107565760008281526001602090815260408083206001600160a01b0385168085529252808320805460ff1916905551339285917ff6391f5c32d9c69d2a47ea670b442974b53935d1edc7fd64eb21e047a839171b9190a45050565b6000610989836001600160a01b038416611530565b600082600001828154811061151d5761151d61198e565b9060005260206000200154905092915050565b600081815260018301602052604081205480156116195760006115546001836117ec565b8554909150600090611568906001906117ec565b90508181146115cd5760008660000182815481106115885761158861198e565b90600052602060002001549050808760000184815481106115ab576115ab61198e565b6000918252602080832090910192909255918252600188019052604090208390555b85548690806115de576115de6119bb565b6001900381819060005260206000200160009055905585600101600086815260200190815260200160002060009055600193505050506106cd565b60009150506106cd565b60006020828403121561163557600080fd5b5035919050565b60006020828403121561164e57600080fd5b81356001600160e01b03198116811461098957600080fd5b80356001600160a01b038116811461167d57600080fd5b919050565b6000806040838503121561169557600080fd5b61169e83611666565b91506116ac60208401611666565b90509250929050565b6000806000606084860312156116ca57600080fd5b833592506116da60208501611666565b9150604084013580151581146116ef57600080fd5b809150509250925092565b60005b838110156117155781810151838201526020016116fd565b83811115611724576000848401525b50505050565b60208152600082518060208401526117498160408501602087016116fa565b601f01601f19169190910160400192915050565b6000806040838503121561177057600080fd5b823591506116ac60208401611666565b60006020828403121561179257600080fd5b61098982611666565b600080604083850312156117ae57600080fd5b50508035926020909101359150565b6000602082840312156117cf57600080fd5b5051919050565b634e487b7160e01b600052601160045260246000fd5b6000828210156117fe576117fe6117d6565b500390565b6000600019821415611817576118176117d6565b5060010190565b600082516118308184602087016116fa565b9190910192915050565b6020808252818101527f4f776e61626c653a2063616c6c6572206973206e6f7420746865206f776e6572604082015260600190565b60008219821115611882576118826117d6565b500190565b6020808252603b908201527f43726f7373436f6e74726163744d616e4c697374656e65723a2074686520636160408201527f6c6c6572206d7573742068617665204d414e414745525f524f4c450000000000606082015260800190565b7f416363657373436f6e74726f6c3a206163636f756e742000000000000000000081526000835161191c8160178501602088016116fa565b7001034b99036b4b9b9b4b733903937b6329607d1b601791840191820152835161194d8160288401602088016116fa565b01602801949350505050565b6000816000190483118215151615611973576119736117d6565b500290565b634e487b7160e01b600052604160045260246000fd5b634e487b7160e01b600052603260045260246000fd5b6000816119b3576119b36117d6565b506000190190565b634e487b7160e01b600052603160045260246000fdfe241ecf16d79d0f8dbfb92cbc07fe17840425976cf0667f022fe9877caa831b08a264697066735822122040322887e2e3e108f0c8d5b1abd8ed88991d230e51ca69d915556db06811e27464736f6c63430008090033",
  "immutableReferences": {},
  "source": "// SPDX-License-Identifier: MIT\npragma solidity ^0.8.0;\n\nimport \"@openzeppelin/contracts/access/Ownable.sol\";\n\nimport \"./CrossContractManListener.sol\";\nimport \"./Util.sol\";\nimport \"./IRNG.sol\";\n\ncontract RNG is CrossContractManListener, IRNG {\n    string  public constant contract_name = 'RNG';\n    bytes32 public constant contract_id = keccak256(abi.encodePacked(contract_name));\n\n    uint256 public commitment_confirmation_cap = 1;\n    bool public test_mode;\n\n    mapping(bytes32 => uint256) commitments;\n    mapping(bytes32 => uint256) rvalues;\n\n    mapping(uint256 => bytes32) block_hashes;\n    uint256 public\tlatest_block;\n\n    constructor(bool _test_mode){\n\ttest_mode = _test_mode;\n    }\n\n    function getName() pure external returns(string memory) {\n\treturn contract_name;\n    }\n\n    function getId() pure external returns(bytes32) {\n\treturn contract_id;\n    }\n\n    function onListenAdded(bytes32 hname, address contractInstance, bool isNew) external {}\n\n    function onListenRemoved(bytes32 hname) external {}\n\n    function onUpdate(address oldInstance, address _manager) external override {\n\tsuper._onUpdate(oldInstance, _manager);\n\t_setCommitmentConfirmationCap(RNG(oldInstance).commitment_confirmation_cap());\n    }\n\n    function updateBlockHashes() external virtual {\n\tif((block.number - latest_block) > 255)\n\t    latest_block = block.number - 255;\n\tfor(uint i=latest_block;i<block.number;i++)\n\t    block_hashes[i] = blockhash(i);\n\tlatest_block = block.number;\n    }\n\n    function _setCommitmentConfirmationCap(uint256 cap) internal {\n\tcommitment_confirmation_cap = cap;\n\n\temit ConfirmationCap(cap);\n    }\n\n    function setCommitmentConfirmationCap(uint256 cap) external onlyOwner {\n\t_setCommitmentConfirmationCap(cap);\n    }\n\n    function commit(bytes32 commitment) external {\n\trequire((commitments[commitment] == 0),\"The entropy should not have been commited before\");\n\tcommitments[commitment] = block.number;\n\n\temit Commit(commitment);\n    }\n\n    function resetCommitment(bytes32 commitment) external onlyOwner {\n\trequire(test_mode, \"This method works in test mode only\");\n\tcommitments[commitment] = 0;\n\trvalues[commitment] = 0;\n\n\temit ResetCommitment(commitment);\n    }\n\n    function _getHash(uint256 _block_num) internal view returns (bytes32) {\n\tbytes32 _block_hash;\n\tif(block.number - _block_num > 255)\n\t    _block_hash = block_hashes[_block_num];\n\telse\n\t    _block_hash = blockhash(_block_num);\n\treturn _block_hash;\n    }\n\n    function _getRandomValue(uint256 block_num, bytes32 user_entropy) internal view returns (uint256) {\n\trequire((block.number - block_num  > commitment_confirmation_cap),\"The entropy must have been committed at least the commitment_confirmation_cap blocks earlier\");\n\treturn uint256(keccak256(abi.encodePacked(_getHash(block_num+commitment_confirmation_cap), user_entropy)));\n    }\n\n    function lock(bytes32 entropy) external{\n\tbytes32 commitment = Util.deriveCommitment(entropy);\n\trequire(rvalues[commitment] == 0, \"The entropy should not have been locked before\");\n\tuint256 block_num = commitments[commitment];\n\trequire(block_num > 0, \"The entropy must have been committed earlier\");\n\trvalues[commitment] = _getRandomValue(block_num,entropy);\n\n\temit EntropyLock(commitment);\n    }\n\n    function read(bytes32 commitment) external view returns (uint256){\n\treturn rvalues[commitment];\n    }\n\n    function getBlockConfirmationCap() external view returns (uint256){\n\treturn commitment_confirmation_cap;\n    }\n\n    event ConfirmationCap(uint256 cap);\n    event ResetCommitment(bytes32 commitment);\n    event EntropyLock(bytes32 commitment);\n    event Commit(bytes32 commitment);\n}\n",
  "sourcePath": "/home/vrogojin/Projects/FireZard/nft/contracts/RNG.sol",
  "compiler": {
    "name": "solc",
    "version": "0.8.9+commit.e5eed63a.Emscripten.clang"
  },
  "schemaVersion": "3.4.3",
  "updatedAt": "2022-02-07T18:32:07.937Z",
  "devdoc": {
    "kind": "dev",
    "methods": {
      "commit(bytes32)": {
        "params": {
          "commitment": "Commitment for the client's entropy. For instrance, this can be hash of the entropy.*"
        }
      },
      "getRoleAdmin(bytes32)": {
        "details": "Returns the admin role that controls `role`. See {grantRole} and {revokeRole}. To change a role's admin, use {_setRoleAdmin}."
      },
      "getRoleMember(bytes32,uint256)": {
        "details": "Returns one of the accounts that have `role`. `index` must be a value between 0 and {getRoleMemberCount}, non-inclusive. Role bearers are not sorted in any particular way, and their ordering may change at any point. WARNING: When using {getRoleMember} and {getRoleMemberCount}, make sure you perform all queries on the same block. See the following https://forum.openzeppelin.com/t/iterating-over-elements-on-enumerableset-in-openzeppelin-contracts/2296[forum post] for more information."
      },
      "getRoleMemberCount(bytes32)": {
        "details": "Returns the number of accounts that have `role`. Can be used together with {getRoleMember} to enumerate all bearers of a role."
      },
      "grantRole(bytes32,address)": {
        "details": "Grants `role` to `account`. If `account` had not been already granted `role`, emits a {RoleGranted} event. Requirements: - the caller must have ``role``'s admin role."
      },
      "hasRole(bytes32,address)": {
        "details": "Returns `true` if `account` has been granted `role`."
      },
      "lock(bytes32)": {
        "params": {
          "entropy": "Client's entropy*"
        }
      },
      "owner()": {
        "details": "Returns the address of the current owner."
      },
      "read(bytes32)": {
        "params": {
          "commitment": "The commitment identifying the resulting randomly generated number*"
        }
      },
      "renounceOwnership()": {
        "details": "Leaves the contract without owner. It will not be possible to call `onlyOwner` functions anymore. Can only be called by the current owner. NOTE: Renouncing ownership will leave the contract without an owner, thereby removing any functionality that is only available to the owner."
      },
      "renounceRole(bytes32,address)": {
        "details": "Revokes `role` from the calling account. Roles are often managed via {grantRole} and {revokeRole}: this function's purpose is to provide a mechanism for accounts to lose their privileges if they are compromised (such as when a trusted device is misplaced). If the calling account had been revoked `role`, emits a {RoleRevoked} event. Requirements: - the caller must be `account`."
      },
      "revokeRole(bytes32,address)": {
        "details": "Revokes `role` from `account`. If `account` had been granted `role`, emits a {RoleRevoked} event. Requirements: - the caller must have ``role``'s admin role."
      },
      "supportsInterface(bytes4)": {
        "details": "See {IERC165-supportsInterface}."
      },
      "transferOwnership(address)": {
        "details": "Transfers ownership of the contract to a new account (`newOwner`). Can only be called by the current owner."
      }
    },
    "version": 1
  },
  "userdoc": {
    "kind": "user",
    "methods": {
      "commit(bytes32)": {
        "notice": "Commit a hidden entropy generated by a client."
      },
      "lock(bytes32)": {
        "notice": "Lock client's entropy. Mix client's entropy with the entropy of a block that was mined before  the method call, but after the block with the client's entropy commitment.  Note, that no miner knows client's entropy when it is commited to the blockchain and cannot manipulate the hash of the block where client's entropy is mixed with the blockchain entropy, since client's entropy is actually revealed after the lock block is mined. On the other hand, the client cannot predict the blockchain entropy either, when the  client's and blockchain's entropies get mixed."
      },
      "read(bytes32)": {
        "notice": "Read the (pseudo-)random number derived from the client's and blockchain entropies. The number is uniquely defined by the client's entropy commitment."
      }
    },
    "version": 1
  }
}