{
  "contractName": "StatsDistrib",
  "abi": [
    {
      "inputs": [],
      "stateMutability": "nonpayable",
      "type": "constructor"
    },
    {
      "anonymous": false,
      "inputs": [
        {
          "indexed": true,
          "internalType": "address",
          "name": "previousOwner",
          "type": "address"
        },
        {
          "indexed": true,
          "internalType": "address",
          "name": "newOwner",
          "type": "address"
        }
      ],
      "name": "OwnershipTransferred",
      "type": "event"
    },
    {
      "inputs": [
        {
          "internalType": "uint256",
          "name": "",
          "type": "uint256"
        }
      ],
      "name": "dragonCardRarity",
      "outputs": [
        {
          "internalType": "uint256",
          "name": "",
          "type": "uint256"
        }
      ],
      "stateMutability": "view",
      "type": "function",
      "constant": true
    },
    {
      "inputs": [],
      "name": "dragonCardRarityPopulationSize",
      "outputs": [
        {
          "internalType": "uint256",
          "name": "",
          "type": "uint256"
        }
      ],
      "stateMutability": "view",
      "type": "function",
      "constant": true
    },
    {
      "inputs": [
        {
          "internalType": "uint256",
          "name": "",
          "type": "uint256"
        }
      ],
      "name": "dragonCardType",
      "outputs": [
        {
          "internalType": "uint256",
          "name": "",
          "type": "uint256"
        }
      ],
      "stateMutability": "view",
      "type": "function",
      "constant": true
    },
    {
      "inputs": [],
      "name": "dragonCardTypePopulationSize",
      "outputs": [
        {
          "internalType": "uint256",
          "name": "",
          "type": "uint256"
        }
      ],
      "stateMutability": "view",
      "type": "function",
      "constant": true
    },
    {
      "inputs": [],
      "name": "owner",
      "outputs": [
        {
          "internalType": "address",
          "name": "",
          "type": "address"
        }
      ],
      "stateMutability": "view",
      "type": "function",
      "constant": true
    },
    {
      "inputs": [],
      "name": "renounceOwnership",
      "outputs": [],
      "stateMutability": "nonpayable",
      "type": "function"
    },
    {
      "inputs": [
        {
          "internalType": "address",
          "name": "newOwner",
          "type": "address"
        }
      ],
      "name": "transferOwnership",
      "outputs": [],
      "stateMutability": "nonpayable",
      "type": "function"
    },
    {
      "inputs": [],
      "name": "getDragonCardRarities",
      "outputs": [
        {
          "internalType": "uint256[]",
          "name": "",
          "type": "uint256[]"
        }
      ],
      "stateMutability": "view",
      "type": "function",
      "constant": true
    },
    {
      "inputs": [],
      "name": "getDragonCardTypes",
      "outputs": [
        {
          "internalType": "uint256[]",
          "name": "",
          "type": "uint256[]"
        }
      ],
      "stateMutability": "view",
      "type": "function",
      "constant": true
    },
    {
      "inputs": [
        {
          "internalType": "uint8",
          "name": "index",
          "type": "uint8"
        },
        {
          "internalType": "uint256",
          "name": "position",
          "type": "uint256"
        }
      ],
      "name": "setRarityDistrib",
      "outputs": [],
      "stateMutability": "nonpayable",
      "type": "function"
    },
    {
      "inputs": [
        {
          "internalType": "uint256",
          "name": "size",
          "type": "uint256"
        }
      ],
      "name": "setRarityPopulationSize",
      "outputs": [],
      "stateMutability": "nonpayable",
      "type": "function"
    }
  ],
  "bytecode": "0x608060405234801561001057600080fd5b5061001a336101a7565b60408051600480825260a0820190925290602082016080803683375050815161004a9260019250602001906101f7565b5060018060008154811061006057610060610257565b906000526020600020018190555060036001808154811061008357610083610257565b9060005260206000200181905550600660016002815481106100a7576100a7610257565b9060005260206000200181905550601460016003815481106100cb576100cb610257565b6000918252602090912001556102e260025560408051600480825260a08201909252908160200160208202803683375050815161010f9260039250602001906101f7565b506001600360008154811061012657610126610257565b90600052602060002001819055506001600360018154811061014a5761014a610257565b90600052602060002001819055506001600360028154811061016e5761016e610257565b906000526020600020018190555060016003808154811061019157610191610257565b600091825260209091200155600560045561026d565b600080546001600160a01b038381166001600160a01b0319831681178455604051919092169283917f8be0079c531659141344cd1fd0a4f28419497f9722a3daafe3b4186f6b6457e09190a35050565b828054828255906000526020600020908101928215610232579160200282015b82811115610232578251825591602001919060010190610217565b5061023e929150610242565b5090565b5b8082111561023e5760008155600101610243565b634e487b7160e01b600052603260045260246000fd5b61053c8061027c6000396000f3fe608060405234801561001057600080fd5b50600436106100a85760003560e01c80638da5cb5b116100715780638da5cb5b1461011857806397dfd7e8146101335780639f1349ed14610146578063a9e790c81461014f578063d710216e14610157578063f2fde38b1461016057600080fd5b806238857b146100ad578063221cf8f8146100d357806362660f3b146100e8578063715018a6146100fd57806375692a4514610105575b600080fd5b6100c06100bb3660046103fc565b610173565b6040519081526020015b60405180910390f35b6100db610194565b6040516100ca9190610415565b6100fb6100f6366004610459565b6101ec565b005b6100fb610246565b6100fb6101133660046103fc565b61027c565b6000546040516001600160a01b0390911681526020016100ca565b6100c06101413660046103fc565b6102ab565b6100c060025481565b6100db6102bb565b6100c060045481565b6100fb61016e36600461048b565b610311565b6001818154811061018357600080fd5b600091825260209091200154905081565b606060038054806020026020016040519081016040528092919081815260200182805480156101e257602002820191906000526020600020905b8154815260200190600101908083116101ce575b5050505050905090565b6000546001600160a01b0316331461021f5760405162461bcd60e51b8152600401610216906104bb565b60405180910390fd5b8060018360ff1681548110610236576102366104f0565b6000918252602090912001555050565b6000546001600160a01b031633146102705760405162461bcd60e51b8152600401610216906104bb565b61027a60006103ac565b565b6000546001600160a01b031633146102a65760405162461bcd60e51b8152600401610216906104bb565b600255565b6003818154811061018357600080fd5b606060018054806020026020016040519081016040528092919081815260200182805480156101e257602002820191906000526020600020908154815260200190600101908083116101ce575050505050905090565b6000546001600160a01b0316331461033b5760405162461bcd60e51b8152600401610216906104bb565b6001600160a01b0381166103a05760405162461bcd60e51b815260206004820152602660248201527f4f776e61626c653a206e6577206f776e657220697320746865207a65726f206160448201526564647265737360d01b6064820152608401610216565b6103a9816103ac565b50565b600080546001600160a01b038381166001600160a01b0319831681178455604051919092169283917f8be0079c531659141344cd1fd0a4f28419497f9722a3daafe3b4186f6b6457e09190a35050565b60006020828403121561040e57600080fd5b5035919050565b6020808252825182820181905260009190848201906040850190845b8181101561044d57835183529284019291840191600101610431565b50909695505050505050565b6000806040838503121561046c57600080fd5b823560ff8116811461047d57600080fd5b946020939093013593505050565b60006020828403121561049d57600080fd5b81356001600160a01b03811681146104b457600080fd5b9392505050565b6020808252818101527f4f776e61626c653a2063616c6c6572206973206e6f7420746865206f776e6572604082015260600190565b634e487b7160e01b600052603260045260246000fdfea26469706673582212209d66a8b33a5cd52b32182c805e33b139694054aec5a66df9ff9c79e70d6b92bb64736f6c63430008090033",
  "immutableReferences": {},
  "source": "// SPDX-License-Identifier: MIT\npragma solidity ^0.8.0;\n\nimport \"@openzeppelin/contracts/access/Ownable.sol\";\n\ncontract StatsDistrib is Ownable {\n\n    uint256[] public dragonCardRarity;\n    uint256   public dragonCardRarityPopulationSize;\n    uint256[] public dragonCardType;\n    uint256   public dragonCardTypePopulationSize;\n\n    constructor() {\n\tdragonCardRarity = new uint256[](4);\n\tdragonCardRarity[0] = 1;\n\tdragonCardRarity[1] = 3;\n\tdragonCardRarity[2] = 6;\n\tdragonCardRarity[3] = 20;\n\tdragonCardRarityPopulationSize = 738;\n\n\tdragonCardType = new uint256[](4);\n\tdragonCardType[0] = 1;\n\tdragonCardType[1] = 1;\n\tdragonCardType[2] = 1;\n\tdragonCardType[3] = 1;\n\tdragonCardTypePopulationSize = 5;\n    }\n\n    function getDragonCardRarities() public view returns (uint256[] memory){\n\treturn dragonCardRarity;\n    }\n\n    function getDragonCardTypes() public view returns (uint256[] memory){\n\treturn dragonCardType;\n    }\n\n    function setRarityDistrib(uint8 index, uint256 position) public onlyOwner {\n\tdragonCardRarity[index] = position;\n    }\n\n    function setRarityPopulationSize(uint256 size) public onlyOwner {\n\tdragonCardRarityPopulationSize = size;\n    }\n}",
  "sourcePath": "/home/vrogojin/Projects/FireZard/nft/contracts/StatsDistrib.sol",
  "compiler": {
    "name": "solc",
    "version": "0.8.9+commit.e5eed63a.Emscripten.clang"
  },
  "schemaVersion": "3.4.3",
  "updatedAt": "2022-01-25T01:08:33.673Z",
  "networkType": "ethereum",
  "devdoc": {
    "kind": "dev",
    "methods": {
      "owner()": {
        "details": "Returns the address of the current owner."
      },
      "renounceOwnership()": {
        "details": "Leaves the contract without owner. It will not be possible to call `onlyOwner` functions anymore. Can only be called by the current owner. NOTE: Renouncing ownership will leave the contract without an owner, thereby removing any functionality that is only available to the owner."
      },
      "transferOwnership(address)": {
        "details": "Transfers ownership of the contract to a new account (`newOwner`). Can only be called by the current owner."
      }
    },
    "version": 1
  },
  "userdoc": {
    "kind": "user",
    "methods": {},
    "version": 1
  }
}