{
  "contractName": "StatsDistrib",
  "abi": [
    {
      "inputs": [],
      "stateMutability": "nonpayable",
      "type": "constructor"
    },
    {
      "anonymous": false,
      "inputs": [
        {
          "indexed": false,
          "internalType": "address",
          "name": "_manager",
          "type": "address"
        }
      ],
      "name": "ContractAdded",
      "type": "event"
    },
    {
      "anonymous": false,
      "inputs": [
        {
          "indexed": false,
          "internalType": "address",
          "name": "newManager",
          "type": "address"
        }
      ],
      "name": "ContractManagerSwitch",
      "type": "event"
    },
    {
      "anonymous": false,
      "inputs": [
        {
          "indexed": false,
          "internalType": "address",
          "name": "newOwner",
          "type": "address"
        }
      ],
      "name": "ContractOwnershipUpdate",
      "type": "event"
    },
    {
      "anonymous": false,
      "inputs": [],
      "name": "ContractRemoved",
      "type": "event"
    },
    {
      "anonymous": false,
      "inputs": [
        {
          "indexed": false,
          "internalType": "address",
          "name": "contractInstance",
          "type": "address"
        }
      ],
      "name": "ContractReplaced",
      "type": "event"
    },
    {
      "anonymous": false,
      "inputs": [
        {
          "indexed": false,
          "internalType": "address",
          "name": "oldInstance",
          "type": "address"
        },
        {
          "indexed": false,
          "internalType": "address",
          "name": "_manager",
          "type": "address"
        }
      ],
      "name": "ContractUpdated",
      "type": "event"
    },
    {
      "anonymous": false,
      "inputs": [
        {
          "indexed": true,
          "internalType": "address",
          "name": "previousOwner",
          "type": "address"
        },
        {
          "indexed": true,
          "internalType": "address",
          "name": "newOwner",
          "type": "address"
        }
      ],
      "name": "OwnershipTransferred",
      "type": "event"
    },
    {
      "anonymous": false,
      "inputs": [
        {
          "indexed": true,
          "internalType": "bytes32",
          "name": "role",
          "type": "bytes32"
        },
        {
          "indexed": true,
          "internalType": "bytes32",
          "name": "previousAdminRole",
          "type": "bytes32"
        },
        {
          "indexed": true,
          "internalType": "bytes32",
          "name": "newAdminRole",
          "type": "bytes32"
        }
      ],
      "name": "RoleAdminChanged",
      "type": "event"
    },
    {
      "anonymous": false,
      "inputs": [
        {
          "indexed": true,
          "internalType": "bytes32",
          "name": "role",
          "type": "bytes32"
        },
        {
          "indexed": true,
          "internalType": "address",
          "name": "account",
          "type": "address"
        },
        {
          "indexed": true,
          "internalType": "address",
          "name": "sender",
          "type": "address"
        }
      ],
      "name": "RoleGranted",
      "type": "event"
    },
    {
      "anonymous": false,
      "inputs": [
        {
          "indexed": true,
          "internalType": "bytes32",
          "name": "role",
          "type": "bytes32"
        },
        {
          "indexed": true,
          "internalType": "address",
          "name": "account",
          "type": "address"
        },
        {
          "indexed": true,
          "internalType": "address",
          "name": "sender",
          "type": "address"
        }
      ],
      "name": "RoleRevoked",
      "type": "event"
    },
    {
      "inputs": [],
      "name": "DEFAULT_ADMIN_ROLE",
      "outputs": [
        {
          "internalType": "bytes32",
          "name": "",
          "type": "bytes32"
        }
      ],
      "stateMutability": "view",
      "type": "function"
    },
    {
      "inputs": [],
      "name": "MANAGER_ROLE",
      "outputs": [
        {
          "internalType": "bytes32",
          "name": "",
          "type": "bytes32"
        }
      ],
      "stateMutability": "view",
      "type": "function"
    },
    {
      "inputs": [],
      "name": "contract_id",
      "outputs": [
        {
          "internalType": "bytes32",
          "name": "",
          "type": "bytes32"
        }
      ],
      "stateMutability": "view",
      "type": "function"
    },
    {
      "inputs": [],
      "name": "contract_name",
      "outputs": [
        {
          "internalType": "string",
          "name": "",
          "type": "string"
        }
      ],
      "stateMutability": "view",
      "type": "function"
    },
    {
      "inputs": [
        {
          "internalType": "uint256",
          "name": "",
          "type": "uint256"
        }
      ],
      "name": "dragonCardRarity",
      "outputs": [
        {
          "internalType": "uint256",
          "name": "",
          "type": "uint256"
        }
      ],
      "stateMutability": "view",
      "type": "function"
    },
    {
      "inputs": [],
      "name": "dragonCardRarityPopulationSize",
      "outputs": [
        {
          "internalType": "uint256",
          "name": "",
          "type": "uint256"
        }
      ],
      "stateMutability": "view",
      "type": "function"
    },
    {
      "inputs": [
        {
          "internalType": "uint256",
          "name": "",
          "type": "uint256"
        }
      ],
      "name": "dragonCardType",
      "outputs": [
        {
          "internalType": "uint256",
          "name": "",
          "type": "uint256"
        }
      ],
      "stateMutability": "view",
      "type": "function"
    },
    {
      "inputs": [],
      "name": "dragonCardTypePopulationSize",
      "outputs": [
        {
          "internalType": "uint256",
          "name": "",
          "type": "uint256"
        }
      ],
      "stateMutability": "view",
      "type": "function"
    },
    {
      "inputs": [
        {
          "internalType": "bytes32",
          "name": "role",
          "type": "bytes32"
        }
      ],
      "name": "getRoleAdmin",
      "outputs": [
        {
          "internalType": "bytes32",
          "name": "",
          "type": "bytes32"
        }
      ],
      "stateMutability": "view",
      "type": "function"
    },
    {
      "inputs": [
        {
          "internalType": "bytes32",
          "name": "role",
          "type": "bytes32"
        },
        {
          "internalType": "uint256",
          "name": "index",
          "type": "uint256"
        }
      ],
      "name": "getRoleMember",
      "outputs": [
        {
          "internalType": "address",
          "name": "",
          "type": "address"
        }
      ],
      "stateMutability": "view",
      "type": "function"
    },
    {
      "inputs": [
        {
          "internalType": "bytes32",
          "name": "role",
          "type": "bytes32"
        }
      ],
      "name": "getRoleMemberCount",
      "outputs": [
        {
          "internalType": "uint256",
          "name": "",
          "type": "uint256"
        }
      ],
      "stateMutability": "view",
      "type": "function"
    },
    {
      "inputs": [
        {
          "internalType": "bytes32",
          "name": "role",
          "type": "bytes32"
        },
        {
          "internalType": "address",
          "name": "account",
          "type": "address"
        }
      ],
      "name": "grantRole",
      "outputs": [],
      "stateMutability": "nonpayable",
      "type": "function"
    },
    {
      "inputs": [
        {
          "internalType": "bytes32",
          "name": "role",
          "type": "bytes32"
        },
        {
          "internalType": "address",
          "name": "account",
          "type": "address"
        }
      ],
      "name": "hasRole",
      "outputs": [
        {
          "internalType": "bool",
          "name": "",
          "type": "bool"
        }
      ],
      "stateMutability": "view",
      "type": "function"
    },
    {
      "inputs": [],
      "name": "manager",
      "outputs": [
        {
          "internalType": "address",
          "name": "",
          "type": "address"
        }
      ],
      "stateMutability": "view",
      "type": "function"
    },
    {
      "inputs": [
        {
          "internalType": "address",
          "name": "_manager",
          "type": "address"
        }
      ],
      "name": "onAdd",
      "outputs": [],
      "stateMutability": "nonpayable",
      "type": "function"
    },
    {
      "inputs": [],
      "name": "onRemoved",
      "outputs": [],
      "stateMutability": "nonpayable",
      "type": "function"
    },
    {
      "inputs": [
        {
          "internalType": "address",
          "name": "newInstance",
          "type": "address"
        }
      ],
      "name": "onReplaced",
      "outputs": [],
      "stateMutability": "nonpayable",
      "type": "function"
    },
    {
      "inputs": [],
      "name": "owner",
      "outputs": [
        {
          "internalType": "address",
          "name": "",
          "type": "address"
        }
      ],
      "stateMutability": "view",
      "type": "function"
    },
    {
      "inputs": [],
      "name": "renounceOwnership",
      "outputs": [],
      "stateMutability": "nonpayable",
      "type": "function"
    },
    {
      "inputs": [
        {
          "internalType": "bytes32",
          "name": "role",
          "type": "bytes32"
        },
        {
          "internalType": "address",
          "name": "account",
          "type": "address"
        }
      ],
      "name": "renounceRole",
      "outputs": [],
      "stateMutability": "nonpayable",
      "type": "function"
    },
    {
      "inputs": [
        {
          "internalType": "bytes32",
          "name": "role",
          "type": "bytes32"
        },
        {
          "internalType": "address",
          "name": "account",
          "type": "address"
        }
      ],
      "name": "revokeRole",
      "outputs": [],
      "stateMutability": "nonpayable",
      "type": "function"
    },
    {
      "inputs": [
        {
          "internalType": "bytes4",
          "name": "interfaceId",
          "type": "bytes4"
        }
      ],
      "name": "supportsInterface",
      "outputs": [
        {
          "internalType": "bool",
          "name": "",
          "type": "bool"
        }
      ],
      "stateMutability": "view",
      "type": "function"
    },
    {
      "inputs": [
        {
          "internalType": "address",
          "name": "newManager",
          "type": "address"
        }
      ],
      "name": "switchManager",
      "outputs": [],
      "stateMutability": "nonpayable",
      "type": "function"
    },
    {
      "inputs": [
        {
          "internalType": "address",
          "name": "newOwner",
          "type": "address"
        }
      ],
      "name": "transferOwnership",
      "outputs": [],
      "stateMutability": "nonpayable",
      "type": "function"
    },
    {
      "inputs": [
        {
          "internalType": "address",
          "name": "newOwner",
          "type": "address"
        }
      ],
      "name": "updateOwnership",
      "outputs": [],
      "stateMutability": "nonpayable",
      "type": "function"
    },
    {
      "inputs": [],
      "name": "getName",
      "outputs": [
        {
          "internalType": "string",
          "name": "",
          "type": "string"
        }
      ],
      "stateMutability": "pure",
      "type": "function"
    },
    {
      "inputs": [],
      "name": "getId",
      "outputs": [
        {
          "internalType": "bytes32",
          "name": "",
          "type": "bytes32"
        }
      ],
      "stateMutability": "pure",
      "type": "function"
    },
    {
      "inputs": [
        {
          "internalType": "bytes32",
          "name": "hname",
          "type": "bytes32"
        },
        {
          "internalType": "address",
          "name": "contractInstance",
          "type": "address"
        },
        {
          "internalType": "bool",
          "name": "isNew",
          "type": "bool"
        }
      ],
      "name": "onListenAdded",
      "outputs": [],
      "stateMutability": "nonpayable",
      "type": "function"
    },
    {
      "inputs": [
        {
          "internalType": "bytes32",
          "name": "hname",
          "type": "bytes32"
        }
      ],
      "name": "onListenRemoved",
      "outputs": [],
      "stateMutability": "nonpayable",
      "type": "function"
    },
    {
      "inputs": [
        {
          "internalType": "address",
          "name": "oldInstance",
          "type": "address"
        },
        {
          "internalType": "address",
          "name": "_manager",
          "type": "address"
        }
      ],
      "name": "onUpdate",
      "outputs": [],
      "stateMutability": "nonpayable",
      "type": "function"
    },
    {
      "inputs": [],
      "name": "getDragonCardRarities",
      "outputs": [
        {
          "internalType": "uint256[]",
          "name": "",
          "type": "uint256[]"
        }
      ],
      "stateMutability": "view",
      "type": "function"
    },
    {
      "inputs": [],
      "name": "getDragonCardTypes",
      "outputs": [
        {
          "internalType": "uint256[]",
          "name": "",
          "type": "uint256[]"
        }
      ],
      "stateMutability": "view",
      "type": "function"
    },
    {
      "inputs": [
        {
          "internalType": "uint8",
          "name": "index",
          "type": "uint8"
        },
        {
          "internalType": "uint256",
          "name": "position",
          "type": "uint256"
        }
      ],
      "name": "setRarityDistrib",
      "outputs": [],
      "stateMutability": "nonpayable",
      "type": "function"
    },
    {
      "inputs": [
        {
          "internalType": "uint256",
          "name": "size",
          "type": "uint256"
        }
      ],
      "name": "setRarityPopulationSize",
      "outputs": [],
      "stateMutability": "nonpayable",
      "type": "function"
    }
  ],
  "bytecode": "0x60806040523480156200001157600080fd5b506200001d33620001d7565b6200002a60003362000227565b60408051600480825260a082019092529060208201608080368337505081516200005c92600492506020019062000365565b5060016004600081548110620000765762000076620003cc565b9060005260206000200181905550600360046001815481106200009d576200009d620003cc565b906000526020600020018190555060066004600281548110620000c457620000c4620003cc565b906000526020600020018190555060146004600381548110620000eb57620000eb620003cc565b6000918252602090912001556102e260055560408051600480825260a0820190925290816020016020820280368337505081516200013192600692506020019062000365565b50600160066000815481106200014b576200014b620003cc565b906000526020600020018190555060016006600181548110620001725762000172620003cc565b906000526020600020018190555060016006600281548110620001995762000199620003cc565b906000526020600020018190555060016006600381548110620001c057620001c0620003cc565b6000918252602090912001556005600755620003e2565b600080546001600160a01b038381166001600160a01b0319831681178455604051919092169283917f8be0079c531659141344cd1fd0a4f28419497f9722a3daafe3b4186f6b6457e09190a35050565b6200023e82826200026a60201b62000c501760201c565b60008281526002602090815260409091206200026591839062000cbb620002f3821b17901c565b505050565b60008281526001602090815260408083206001600160a01b038516845290915290205460ff16620002ef5760008281526001602081815260408084206001600160a01b0386168086529252808420805460ff19169093179092559051339285917f2f8788117e7eff1d82e926ec794901d17c78024a50270940304540a733656f0d9190a45b5050565b60006200030a836001600160a01b03841662000313565b90505b92915050565b60008181526001830160205260408120546200035c575081546001818101845560008481526020808220909301849055845484825282860190935260409020919091556200030d565b5060006200030d565b828054828255906000526020600020908101928215620003a3579160200282015b82811115620003a357825182559160200191906001019062000386565b50620003b1929150620003b5565b5090565b5b80821115620003b15760008155600101620003b6565b634e487b7160e01b600052603260045260246000fd5b611aaa80620003f26000396000f3fe608060405234801561001057600080fd5b50600436106102055760003560e01c806375692a451161011a578063a9e790c8116100ad578063d547741f1161007c578063d547741f1461044f578063d710216e14610462578063d94796921461046b578063ec87621c14610496578063f2fde38b146104ab57600080fd5b8063a9e790c814610410578063c69c957914610418578063ca15c8731461042b578063d4697a471461043e57600080fd5b806391d14854116100e957806391d14854146103d957806397dfd7e8146103ec5780639f1349ed146103ff578063a217fddf1461040857600080fd5b806375692a451461038f5780638840891e146103a25780638da5cb5b146103b55780639010d07c146103c657600080fd5b80632f2ff15d1161019d5780635d1ca6311161016c5780635d1ca631146103465780635df112911461034e57806362660f3b146103615780636b2bf27f14610374578063715018a61461038757600080fd5b80632f2ff15d146102ed57806336568abe146103005780633ad32d1614610313578063481c6a751461031b57600080fd5b806317d7de7c116101d957806317d7de7c1461027b5780631a6f04f3146102ac578063221cf8f8146102b4578063248a9ca3146102c957600080fd5b806238857b1461020a57806301ffc9a7146102305780630447a2cd1461025357806316f28d2414610268575b600080fd5b61021d610218366004611552565b6104be565b6040519081526020015b60405180910390f35b61024361023e36600461156b565b6104df565b6040519015158152602001610227565b6102666102613660046115b1565b61050a565b005b6102666102763660046115e4565b505050565b60408051808201909152600c81526b29ba30ba39a234b9ba3934b160a11b60208201525b6040516102279190611659565b610266610846565b6102bc610850565b604051610227919061168c565b61021d6102d7366004611552565b6000908152600160208190526040909120015490565b6102666102fb3660046116d0565b6108a8565b61026661030e3660046116d0565b6108cf565b61021d610952565b60035461032e906001600160a01b031681565b6040516001600160a01b039091168152602001610227565b61021d6109a0565b61026661035c3660046116f3565b6109f2565b61026661036f36600461170e565b6109fb565b6102666103823660046116f3565b610a4c565b610266610a55565b61026661039d366004611552565b610a89565b6102666103b03660046116f3565b610ab8565b6000546001600160a01b031661032e565b61032e6103d4366004611740565b610ac1565b6102436103e73660046116d0565b610ae0565b61021d6103fa366004611552565b610b0b565b61021d60055481565b61021d600081565b6102bc610b1b565b6102666104263660046116f3565b610b71565b61021d610439366004611552565b610b7a565b61026661044c366004611552565b50565b61026661045d3660046116d0565b610b91565b61021d60075481565b61029f6040518060400160405280600c81526020016b29ba30ba39a234b9ba3934b160a11b81525081565b61021d600080516020611a5583398151915281565b6102666104b93660046116f3565b610bb8565b600481815481106104ce57600080fd5b600091825260209091200154905081565b60006001600160e01b0319821663ee7ed59960e01b1480610504575061050482610cd0565b92915050565b6105148282610cf5565b6000826001600160a01b031663a9e790c86040518163ffffffff1660e01b815260040160006040518083038186803b15801561054f57600080fd5b505afa158015610563573d6000803e3d6000fd5b505050506040513d6000823e601f3d908101601f1916820160405261058b9190810190611778565b9050805167ffffffffffffffff8111156105a7576105a7611762565b6040519080825280602002602001820160405280156105d0578160200160208202803683370190505b5080516105e5916004916020909101906114f2565b5060005b81518160ff16101561062d5761061b81838360ff168151811061060e5761060e611836565b60200260200101516109fb565b8061062581611862565b9150506105e9565b506106a2836001600160a01b0316639f1349ed6040518163ffffffff1660e01b815260040160206040518083038186803b15801561066a57600080fd5b505afa15801561067e573d6000803e3d6000fd5b505050506040513d601f19601f8201168201806040525081019061039d9190611882565b6000836001600160a01b031663221cf8f86040518163ffffffff1660e01b815260040160006040518083038186803b1580156106dd57600080fd5b505afa1580156106f1573d6000803e3d6000fd5b505050506040513d6000823e601f3d908101601f191682016040526107199190810190611778565b9050805167ffffffffffffffff81111561073557610735611762565b60405190808252806020026020018201604052801561075e578160200160208202803683370190505b508051610773916006916020909101906114f2565b5060005b81518110156107cb5781818151811061079257610792611836565b6020026020010151600682815481106107ad576107ad611836565b600091825260209091200155806107c38161189b565b915050610777565b50836001600160a01b0316639f1349ed6040518163ffffffff1660e01b815260040160206040518083038186803b15801561080557600080fd5b505afa158015610819573d6000803e3d6000fd5b505050506040513d601f19601f8201168201806040525081019061083d9190611882565b60075550505050565b61084e610d88565b565b6060600680548060200260200160405190810160405280929190818152602001828054801561089e57602002820191906000526020600020905b81548152602001906001019080831161088a575b5050505050905090565b600082815260016020819052604090912001546108c58133610df7565b6102768383610e5b565b6001600160a01b03811633146109445760405162461bcd60e51b815260206004820152602f60248201527f416363657373436f6e74726f6c3a2063616e206f6e6c792072656e6f756e636560448201526e103937b632b9903337b91039b2b63360891b60648201526084015b60405180910390fd5b61094e8282610e7d565b5050565b6040518060400160405280600c81526020016b29ba30ba39a234b9ba3934b160a11b81525060405160200161098791906118b6565b6040516020818303038152906040528051906020012081565b60006040518060400160405280600c81526020016b29ba30ba39a234b9ba3934b160a11b8152506040516020016109d791906118b6565b60405160208183030381529060405280519060200120905090565b61044c81610e9f565b6000546001600160a01b03163314610a255760405162461bcd60e51b815260040161093b906118d2565b8060048360ff1681548110610a3c57610a3c611836565b6000918252602090912001555050565b61044c81610f5e565b6000546001600160a01b03163314610a7f5760405162461bcd60e51b815260040161093b906118d2565b61084e6000610fd4565b6000546001600160a01b03163314610ab35760405162461bcd60e51b815260040161093b906118d2565b600555565b61044c81611024565b6000828152600260205260408120610ad990836110a6565b9392505050565b60009182526001602090815260408084206001600160a01b0393909316845291905290205460ff1690565b600681815481106104ce57600080fd5b6060600480548060200260200160405190810160405280929190818152602001828054801561089e576020028201919060005260206000209081548152602001906001019080831161088a575050505050905090565b61044c816110b2565b60008181526002602052604081206105049061112f565b60008281526001602081905260409091200154610bae8133610df7565b6102768383610e7d565b6000546001600160a01b03163314610be25760405162461bcd60e51b815260040161093b906118d2565b6001600160a01b038116610c475760405162461bcd60e51b815260206004820152602660248201527f4f776e61626c653a206e6577206f776e657220697320746865207a65726f206160448201526564647265737360d01b606482015260840161093b565b61044c81610fd4565b610c5a8282610ae0565b61094e5760008281526001602081815260408084206001600160a01b0386168086529252808420805460ff19169093179092559051339285917f2f8788117e7eff1d82e926ec794901d17c78024a50270940304540a733656f0d9190a45050565b6000610ad9836001600160a01b038416611139565b60006001600160e01b03198216635a05180f60e01b1480610504575061050482611188565b610d0d600080516020611a5583398151915233610ae0565b610d295760405162461bcd60e51b815260040161093b90611907565b600380546001600160a01b0319166001600160a01b0383811691821790925560408051928516835260208301919091527ff6515f2a6d531f16723c1e578303b7d74152bf8c0fa3bee828700a3d4706da8d910160405180910390a15050565b610da0600080516020611a5583398151915233610ae0565b610dbc5760405162461bcd60e51b815260040161093b90611907565b600380546001600160a01b03191690556040517f9a9a74cf290a994f69a718e8557deb1dd65135268f40e660cecddf675f5dd51490600090a1565b610e018282610ae0565b61094e57610e19816001600160a01b031660146111bd565b610e248360206111bd565b604051602001610e35929190611964565b60408051601f198184030181529082905262461bcd60e51b825261093b91600401611659565b610e658282610c50565b60008281526002602052604090206102769082610cbb565b610e878282611359565b600082815260026020526040902061027690826113c0565b610eb7600080516020611a5583398151915233610ae0565b610ed35760405162461bcd60e51b815260040161093b90611907565b600380546001600160a01b0319166001600160a01b038316179055610f06600080516020611a55833981519152826108a8565b610f1e600080516020611a5583398151915233610b91565b6040516001600160a01b03821681527f8eb47098f9568be754f51d21a870c8091ee0242cf97418db00927326d0e6ffcf906020015b60405180910390a150565b610f76600080516020611a5583398151915233610ae0565b610f925760405162461bcd60e51b815260040161093b90611907565b610f9b81610bb8565b6040516001600160a01b03821681527ff2addf7f813887cf0fdd82b58fcc379ab2301e95c90b41a8cf2e5401914689c990602001610f53565b600080546001600160a01b038381166001600160a01b0319831681178455604051919092169283917f8be0079c531659141344cd1fd0a4f28419497f9722a3daafe3b4186f6b6457e09190a35050565b61103c600080516020611a5583398151915233610ae0565b6110585760405162461bcd60e51b815260040161093b90611907565b600380546001600160a01b0319166001600160a01b0383169081179091556040519081527f89c66952b48f3e96bf1d8ba1b63189520fd988a6979b8b740bd5c5d8dc53e20590602001610f53565b6000610ad983836113d5565b6110ca600080516020611a5583398151915233610ae0565b6110e65760405162461bcd60e51b815260040161093b90611907565b600380546001600160a01b03191690556040516001600160a01b03821681527f85a56ff958486f55dd742819603a46ba6233d3b24e6715f9cd5fd2ef6425d68090602001610f53565b6000610504825490565b600081815260018301602052604081205461118057508154600181810184556000848152602080822090930184905584548482528286019093526040902091909155610504565b506000610504565b60006001600160e01b03198216637965db0b60e01b148061050457506301ffc9a760e01b6001600160e01b0319831614610504565b606060006111cc8360026119d9565b6111d79060026119f8565b67ffffffffffffffff8111156111ef576111ef611762565b6040519080825280601f01601f191660200182016040528015611219576020820181803683370190505b509050600360fc1b8160008151811061123457611234611836565b60200101906001600160f81b031916908160001a905350600f60fb1b8160018151811061126357611263611836565b60200101906001600160f81b031916908160001a90535060006112878460026119d9565b6112929060016119f8565b90505b600181111561130a576f181899199a1a9b1b9c1cb0b131b232b360811b85600f16601081106112c6576112c6611836565b1a60f81b8282815181106112dc576112dc611836565b60200101906001600160f81b031916908160001a90535060049490941c9361130381611a10565b9050611295565b508315610ad95760405162461bcd60e51b815260206004820181905260248201527f537472696e67733a20686578206c656e67746820696e73756666696369656e74604482015260640161093b565b6113638282610ae0565b1561094e5760008281526001602090815260408083206001600160a01b0385168085529252808320805460ff1916905551339285917ff6391f5c32d9c69d2a47ea670b442974b53935d1edc7fd64eb21e047a839171b9190a45050565b6000610ad9836001600160a01b0384166113ff565b60008260000182815481106113ec576113ec611836565b9060005260206000200154905092915050565b600081815260018301602052604081205480156114e8576000611423600183611a27565b855490915060009061143790600190611a27565b905081811461149c57600086600001828154811061145757611457611836565b906000526020600020015490508087600001848154811061147a5761147a611836565b6000918252602080832090910192909255918252600188019052604090208390555b85548690806114ad576114ad611a3e565b600190038181906000526020600020016000905590558560010160008681526020019081526020016000206000905560019350505050610504565b6000915050610504565b82805482825590600052602060002090810192821561152d579160200282015b8281111561152d578251825591602001919060010190611512565b5061153992915061153d565b5090565b5b80821115611539576000815560010161153e565b60006020828403121561156457600080fd5b5035919050565b60006020828403121561157d57600080fd5b81356001600160e01b031981168114610ad957600080fd5b80356001600160a01b03811681146115ac57600080fd5b919050565b600080604083850312156115c457600080fd5b6115cd83611595565b91506115db60208401611595565b90509250929050565b6000806000606084860312156115f957600080fd5b8335925061160960208501611595565b91506040840135801515811461161e57600080fd5b809150509250925092565b60005b8381101561164457818101518382015260200161162c565b83811115611653576000848401525b50505050565b6020815260008251806020840152611678816040850160208701611629565b601f01601f19169190910160400192915050565b6020808252825182820181905260009190848201906040850190845b818110156116c4578351835292840192918401916001016116a8565b50909695505050505050565b600080604083850312156116e357600080fd5b823591506115db60208401611595565b60006020828403121561170557600080fd5b610ad982611595565b6000806040838503121561172157600080fd5b823560ff8116811461173257600080fd5b946020939093013593505050565b6000806040838503121561175357600080fd5b50508035926020909101359150565b634e487b7160e01b600052604160045260246000fd5b6000602080838503121561178b57600080fd5b825167ffffffffffffffff808211156117a357600080fd5b818501915085601f8301126117b757600080fd5b8151818111156117c9576117c9611762565b8060051b604051601f19603f830116810181811085821117156117ee576117ee611762565b60405291825284820192508381018501918883111561180c57600080fd5b938501935b8285101561182a57845184529385019392850192611811565b98975050505050505050565b634e487b7160e01b600052603260045260246000fd5b634e487b7160e01b600052601160045260246000fd5b600060ff821660ff8114156118795761187961184c565b60010192915050565b60006020828403121561189457600080fd5b5051919050565b60006000198214156118af576118af61184c565b5060010190565b600082516118c8818460208701611629565b9190910192915050565b6020808252818101527f4f776e61626c653a2063616c6c6572206973206e6f7420746865206f776e6572604082015260600190565b6020808252603b908201527f43726f7373436f6e74726163744d616e4c697374656e65723a2074686520636160408201527f6c6c6572206d7573742068617665204d414e414745525f524f4c450000000000606082015260800190565b7f416363657373436f6e74726f6c3a206163636f756e742000000000000000000081526000835161199c816017850160208801611629565b7001034b99036b4b9b9b4b733903937b6329607d1b60179184019182015283516119cd816028840160208801611629565b01602801949350505050565b60008160001904831182151516156119f3576119f361184c565b500290565b60008219821115611a0b57611a0b61184c565b500190565b600081611a1f57611a1f61184c565b506000190190565b600082821015611a3957611a3961184c565b500390565b634e487b7160e01b600052603160045260246000fdfe241ecf16d79d0f8dbfb92cbc07fe17840425976cf0667f022fe9877caa831b08a26469706673582212200447d12747527e6ffa7ac7c42f524ab5cbe7fd26227fac57706436cd1bc19fe364736f6c63430008090033",
  "immutableReferences": {},
  "source": "// SPDX-License-Identifier: MIT\npragma solidity ^0.8.0;\n\nimport \"@openzeppelin/contracts/access/Ownable.sol\";\nimport \"./CrossContractManListener.sol\";\n\ncontract StatsDistrib is CrossContractManListener {\n    string  public constant contract_name = 'StatsDistrib';\n    bytes32 public constant contract_id = keccak256(abi.encodePacked(contract_name));\n\n    uint256[] public dragonCardRarity;\n    uint256   public dragonCardRarityPopulationSize;\n    uint256[] public dragonCardType;\n    uint256   public dragonCardTypePopulationSize;\n\n    constructor() {\n\tdragonCardRarity = new uint256[](4);\n\tdragonCardRarity[0] = 1;\n\tdragonCardRarity[1] = 3;\n\tdragonCardRarity[2] = 6;\n\tdragonCardRarity[3] = 20;\n\tdragonCardRarityPopulationSize = 738;\n\n\tdragonCardType = new uint256[](4);\n\tdragonCardType[0] = 1;\n\tdragonCardType[1] = 1;\n\tdragonCardType[2] = 1;\n\tdragonCardType[3] = 1;\n\tdragonCardTypePopulationSize = 5;\n    }\n\n    function getName() pure external returns(string memory) {\n\treturn contract_name;\n    }\n\n    function getId() pure external returns(bytes32) {\n\treturn contract_id;\n    }\n\n    function onListenAdded(bytes32 hname, address contractInstance, bool isNew) external {}\n\n    function onListenRemoved(bytes32 hname) external {}\n\n    function onUpdate(address oldInstance, address _manager) external override {\n\tsuper._onUpdate(oldInstance, _manager);\n\tuint256[] memory _dragonCardRarity = StatsDistrib(oldInstance).getDragonCardRarities();\n\tdragonCardRarity = new uint256[](_dragonCardRarity.length);\n\tfor(uint8 i=0;i<_dragonCardRarity.length;i++)\n\t    setRarityDistrib(i,_dragonCardRarity[i]);\n\tsetRarityPopulationSize(StatsDistrib(oldInstance).dragonCardRarityPopulationSize());\n\tuint256[] memory _dragonCardType = StatsDistrib(oldInstance).getDragonCardTypes();\n\tdragonCardType = new uint256[](_dragonCardType.length);\n\tfor(uint i=0;i<_dragonCardType.length;i++)\n\t    dragonCardType[i] = _dragonCardType[i];\n\tdragonCardTypePopulationSize = StatsDistrib(oldInstance).dragonCardRarityPopulationSize();\n    }\n\n    function getDragonCardRarities() public view returns (uint256[] memory){\n\treturn dragonCardRarity;\n    }\n\n    function getDragonCardTypes() public view returns (uint256[] memory){\n\treturn dragonCardType;\n    }\n\n    function setRarityDistrib(uint8 index, uint256 position) public onlyOwner {\n\tdragonCardRarity[index] = position;\n    }\n\n    function setRarityPopulationSize(uint256 size) public onlyOwner {\n\tdragonCardRarityPopulationSize = size;\n    }\n}\n",
  "sourcePath": "/home/vrogojin/Projects/FireZard/nft/contracts/StatsDistrib.sol",
  "compiler": {
    "name": "solc",
    "version": "0.8.9+commit.e5eed63a.Emscripten.clang"
  },
  "schemaVersion": "3.4.3",
  "updatedAt": "2022-02-07T18:32:07.950Z",
  "devdoc": {
    "kind": "dev",
    "methods": {
      "getRoleAdmin(bytes32)": {
        "details": "Returns the admin role that controls `role`. See {grantRole} and {revokeRole}. To change a role's admin, use {_setRoleAdmin}."
      },
      "getRoleMember(bytes32,uint256)": {
        "details": "Returns one of the accounts that have `role`. `index` must be a value between 0 and {getRoleMemberCount}, non-inclusive. Role bearers are not sorted in any particular way, and their ordering may change at any point. WARNING: When using {getRoleMember} and {getRoleMemberCount}, make sure you perform all queries on the same block. See the following https://forum.openzeppelin.com/t/iterating-over-elements-on-enumerableset-in-openzeppelin-contracts/2296[forum post] for more information."
      },
      "getRoleMemberCount(bytes32)": {
        "details": "Returns the number of accounts that have `role`. Can be used together with {getRoleMember} to enumerate all bearers of a role."
      },
      "grantRole(bytes32,address)": {
        "details": "Grants `role` to `account`. If `account` had not been already granted `role`, emits a {RoleGranted} event. Requirements: - the caller must have ``role``'s admin role."
      },
      "hasRole(bytes32,address)": {
        "details": "Returns `true` if `account` has been granted `role`."
      },
      "owner()": {
        "details": "Returns the address of the current owner."
      },
      "renounceOwnership()": {
        "details": "Leaves the contract without owner. It will not be possible to call `onlyOwner` functions anymore. Can only be called by the current owner. NOTE: Renouncing ownership will leave the contract without an owner, thereby removing any functionality that is only available to the owner."
      },
      "renounceRole(bytes32,address)": {
        "details": "Revokes `role` from the calling account. Roles are often managed via {grantRole} and {revokeRole}: this function's purpose is to provide a mechanism for accounts to lose their privileges if they are compromised (such as when a trusted device is misplaced). If the calling account had been revoked `role`, emits a {RoleRevoked} event. Requirements: - the caller must be `account`."
      },
      "revokeRole(bytes32,address)": {
        "details": "Revokes `role` from `account`. If `account` had been granted `role`, emits a {RoleRevoked} event. Requirements: - the caller must have ``role``'s admin role."
      },
      "supportsInterface(bytes4)": {
        "details": "See {IERC165-supportsInterface}."
      },
      "transferOwnership(address)": {
        "details": "Transfers ownership of the contract to a new account (`newOwner`). Can only be called by the current owner."
      }
    },
    "version": 1
  },
  "userdoc": {
    "kind": "user",
    "methods": {},
    "version": 1
  }
}