{
  "contractName": "StatsDistrib",
  "abi": [
    {
      "inputs": [],
      "stateMutability": "nonpayable",
      "type": "constructor"
    },
    {
      "inputs": [
        {
          "internalType": "uint256",
          "name": "",
          "type": "uint256"
        }
      ],
      "name": "dragonCardRarity",
      "outputs": [
        {
          "internalType": "uint256",
          "name": "",
          "type": "uint256"
        }
      ],
      "stateMutability": "view",
      "type": "function"
    },
    {
      "inputs": [],
      "name": "dragonCardRarityPopulationSize",
      "outputs": [
        {
          "internalType": "uint256",
          "name": "",
          "type": "uint256"
        }
      ],
      "stateMutability": "view",
      "type": "function"
    },
    {
      "inputs": [
        {
          "internalType": "uint256",
          "name": "",
          "type": "uint256"
        }
      ],
      "name": "dragonCardType",
      "outputs": [
        {
          "internalType": "uint256",
          "name": "",
          "type": "uint256"
        }
      ],
      "stateMutability": "view",
      "type": "function"
    },
    {
      "inputs": [],
      "name": "dragonCardTypePopulationSize",
      "outputs": [
        {
          "internalType": "uint256",
          "name": "",
          "type": "uint256"
        }
      ],
      "stateMutability": "view",
      "type": "function"
    },
    {
      "inputs": [],
      "name": "getDragonCardRarities",
      "outputs": [
        {
          "internalType": "uint256[]",
          "name": "",
          "type": "uint256[]"
        }
      ],
      "stateMutability": "view",
      "type": "function"
    },
    {
      "inputs": [],
      "name": "getDragonCardTypes",
      "outputs": [
        {
          "internalType": "uint256[]",
          "name": "",
          "type": "uint256[]"
        }
      ],
      "stateMutability": "view",
      "type": "function"
    }
  ],
  "bytecode": "0x608060405234801561001057600080fd5b5060408051600480825260a0820190925290602082016080803683375050815161004192600092506020019061019f565b50600160008081548110610057576100576101ff565b9060005260206000200181905550600a600060018154811061007b5761007b6101ff565b90600052602060002001819055506014600060028154811061009f5761009f6101ff565b9060005260206000200181905550607d60006003815481106100c3576100c36101ff565b60009182526020909120015561020060015560408051600480825260a08201909252908160200160208202803683375050815161010792600292506020019061019f565b506001600260008154811061011e5761011e6101ff565b906000526020600020018190555060016002600181548110610142576101426101ff565b9060005260206000200181905550600160028081548110610165576101656101ff565b906000526020600020018190555060016002600381548110610189576101896101ff565b6000918252602090912001556005600355610215565b8280548282559060005260206000209081019282156101da579160200282015b828111156101da5782518255916020019190600101906101bf565b506101e69291506101ea565b5090565b5b808211156101e657600081556001016101eb565b634e487b7160e01b600052603260045260246000fd5b610240806102246000396000f3fe608060405234801561001057600080fd5b50600436106100615760003560e01c806238857b14610066578063221cf8f81461008c57806397dfd7e8146100a15780639f1349ed146100b4578063a9e790c8146100bd578063d710216e146100c5575b600080fd5b6100796100743660046101ad565b6100ce565b6040519081526020015b60405180910390f35b6100946100ef565b60405161008391906101c6565b6100796100af3660046101ad565b610147565b61007960015481565b610094610157565b61007960035481565b600081815481106100de57600080fd5b600091825260209091200154905081565b6060600280548060200260200160405190810160405280929190818152602001828054801561013d57602002820191906000526020600020905b815481526020019060010190808311610129575b5050505050905090565b600281815481106100de57600080fd5b6060600080548060200260200160405190810160405280929190818152602001828054801561013d5760200282019190600052602060002090815481526020019060010190808311610129575050505050905090565b6000602082840312156101bf57600080fd5b5035919050565b6020808252825182820181905260009190848201906040850190845b818110156101fe578351835292840192918401916001016101e2565b5090969550505050505056fea2646970667358221220a898815ed5a8b14d59a06eeecb24ae304fdf6a5d3b4ca1556a33108045c416ef64736f6c634300080b0033",
  "immutableReferences": {},
  "source": "\npragma solidity ^0.8.0;\n\ncontract StatsDistrib {\n\n    uint256[] public dragonCardRarity;\n    uint256   public dragonCardRarityPopulationSize;\n    uint256[] public dragonCardType;\n    uint256   public dragonCardTypePopulationSize;\n\n    constructor() {\n\tdragonCardRarity = new uint256[](4);\n\tdragonCardRarity[0] = 1;\n\tdragonCardRarity[1] = 10;\n\tdragonCardRarity[2] = 20;\n\tdragonCardRarity[3] = 125;\n\tdragonCardRarityPopulationSize = 512;\n\n\tdragonCardType = new uint256[](4);\n\tdragonCardType[0] = 1;\n\tdragonCardType[1] = 1;\n\tdragonCardType[2] = 1;\n\tdragonCardType[3] = 1;\n\tdragonCardTypePopulationSize = 5;\n    }\n\n    function getDragonCardRarities() public view returns (uint256[] memory){\n\treturn dragonCardRarity;\n    }\n\n    function getDragonCardTypes() public view returns (uint256[] memory){\n\treturn dragonCardType;\n    }\n\n}",
  "sourcePath": "/home/vrogojin/Projects/FireZard/nft/contracts/StatsDistrib.sol",
  "compiler": {
    "name": "solc",
    "version": "0.8.11+commit.d7f03943.Emscripten.clang"
  },
  "schemaVersion": "3.4.4",
  "updatedAt": "2022-01-07T18:41:47.804Z",
  "devdoc": {
    "kind": "dev",
    "methods": {},
    "version": 1
  },
  "userdoc": {
    "kind": "user",
    "methods": {},
    "version": 1
  }
}