{
  "contractName": "StatsView",
  "abi": [
    {
      "anonymous": false,
      "inputs": [
        {
          "indexed": false,
          "internalType": "address",
          "name": "_manager",
          "type": "address"
        }
      ],
      "name": "ContractAdded",
      "type": "event"
    },
    {
      "anonymous": false,
      "inputs": [
        {
          "indexed": false,
          "internalType": "address",
          "name": "newManager",
          "type": "address"
        }
      ],
      "name": "ContractManagerSwitch",
      "type": "event"
    },
    {
      "anonymous": false,
      "inputs": [
        {
          "indexed": false,
          "internalType": "address",
          "name": "newOwner",
          "type": "address"
        }
      ],
      "name": "ContractOwnershipUpdate",
      "type": "event"
    },
    {
      "anonymous": false,
      "inputs": [],
      "name": "ContractRemoved",
      "type": "event"
    },
    {
      "anonymous": false,
      "inputs": [
        {
          "indexed": false,
          "internalType": "address",
          "name": "contractInstance",
          "type": "address"
        }
      ],
      "name": "ContractReplaced",
      "type": "event"
    },
    {
      "anonymous": false,
      "inputs": [
        {
          "indexed": false,
          "internalType": "address",
          "name": "oldInstance",
          "type": "address"
        },
        {
          "indexed": false,
          "internalType": "address",
          "name": "_manager",
          "type": "address"
        }
      ],
      "name": "ContractUpdated",
      "type": "event"
    },
    {
      "anonymous": false,
      "inputs": [
        {
          "indexed": false,
          "internalType": "address",
          "name": "nft_addr",
          "type": "address"
        }
      ],
      "name": "NFTLink",
      "type": "event"
    },
    {
      "anonymous": false,
      "inputs": [
        {
          "indexed": true,
          "internalType": "address",
          "name": "previousOwner",
          "type": "address"
        },
        {
          "indexed": true,
          "internalType": "address",
          "name": "newOwner",
          "type": "address"
        }
      ],
      "name": "OwnershipTransferred",
      "type": "event"
    },
    {
      "anonymous": false,
      "inputs": [
        {
          "indexed": true,
          "internalType": "bytes32",
          "name": "role",
          "type": "bytes32"
        },
        {
          "indexed": true,
          "internalType": "bytes32",
          "name": "previousAdminRole",
          "type": "bytes32"
        },
        {
          "indexed": true,
          "internalType": "bytes32",
          "name": "newAdminRole",
          "type": "bytes32"
        }
      ],
      "name": "RoleAdminChanged",
      "type": "event"
    },
    {
      "anonymous": false,
      "inputs": [
        {
          "indexed": true,
          "internalType": "bytes32",
          "name": "role",
          "type": "bytes32"
        },
        {
          "indexed": true,
          "internalType": "address",
          "name": "account",
          "type": "address"
        },
        {
          "indexed": true,
          "internalType": "address",
          "name": "sender",
          "type": "address"
        }
      ],
      "name": "RoleGranted",
      "type": "event"
    },
    {
      "anonymous": false,
      "inputs": [
        {
          "indexed": true,
          "internalType": "bytes32",
          "name": "role",
          "type": "bytes32"
        },
        {
          "indexed": true,
          "internalType": "address",
          "name": "account",
          "type": "address"
        },
        {
          "indexed": true,
          "internalType": "address",
          "name": "sender",
          "type": "address"
        }
      ],
      "name": "RoleRevoked",
      "type": "event"
    },
    {
      "anonymous": false,
      "inputs": [
        {
          "indexed": false,
          "internalType": "address",
          "name": "stats_lib_addr",
          "type": "address"
        },
        {
          "indexed": false,
          "internalType": "bytes32",
          "name": "nft_type",
          "type": "bytes32"
        }
      ],
      "name": "StatsLibLink",
      "type": "event"
    },
    {
      "anonymous": false,
      "inputs": [
        {
          "indexed": false,
          "internalType": "address",
          "name": "tag_addr",
          "type": "address"
        }
      ],
      "name": "TAGLink",
      "type": "event"
    },
    {
      "inputs": [],
      "name": "DEFAULT_ADMIN_ROLE",
      "outputs": [
        {
          "internalType": "bytes32",
          "name": "",
          "type": "bytes32"
        }
      ],
      "stateMutability": "view",
      "type": "function"
    },
    {
      "inputs": [],
      "name": "MANAGER_ROLE",
      "outputs": [
        {
          "internalType": "bytes32",
          "name": "",
          "type": "bytes32"
        }
      ],
      "stateMutability": "view",
      "type": "function"
    },
    {
      "inputs": [],
      "name": "TAG_addr",
      "outputs": [
        {
          "internalType": "address",
          "name": "",
          "type": "address"
        }
      ],
      "stateMutability": "view",
      "type": "function"
    },
    {
      "inputs": [],
      "name": "contract_id",
      "outputs": [
        {
          "internalType": "bytes32",
          "name": "",
          "type": "bytes32"
        }
      ],
      "stateMutability": "view",
      "type": "function"
    },
    {
      "inputs": [],
      "name": "contract_name",
      "outputs": [
        {
          "internalType": "string",
          "name": "",
          "type": "string"
        }
      ],
      "stateMutability": "view",
      "type": "function"
    },
    {
      "inputs": [
        {
          "internalType": "bytes32",
          "name": "role",
          "type": "bytes32"
        }
      ],
      "name": "getRoleAdmin",
      "outputs": [
        {
          "internalType": "bytes32",
          "name": "",
          "type": "bytes32"
        }
      ],
      "stateMutability": "view",
      "type": "function"
    },
    {
      "inputs": [
        {
          "internalType": "bytes32",
          "name": "role",
          "type": "bytes32"
        },
        {
          "internalType": "uint256",
          "name": "index",
          "type": "uint256"
        }
      ],
      "name": "getRoleMember",
      "outputs": [
        {
          "internalType": "address",
          "name": "",
          "type": "address"
        }
      ],
      "stateMutability": "view",
      "type": "function"
    },
    {
      "inputs": [
        {
          "internalType": "bytes32",
          "name": "role",
          "type": "bytes32"
        }
      ],
      "name": "getRoleMemberCount",
      "outputs": [
        {
          "internalType": "uint256",
          "name": "",
          "type": "uint256"
        }
      ],
      "stateMutability": "view",
      "type": "function"
    },
    {
      "inputs": [
        {
          "internalType": "bytes32",
          "name": "role",
          "type": "bytes32"
        },
        {
          "internalType": "address",
          "name": "account",
          "type": "address"
        }
      ],
      "name": "grantRole",
      "outputs": [],
      "stateMutability": "nonpayable",
      "type": "function"
    },
    {
      "inputs": [
        {
          "internalType": "bytes32",
          "name": "role",
          "type": "bytes32"
        },
        {
          "internalType": "address",
          "name": "account",
          "type": "address"
        }
      ],
      "name": "hasRole",
      "outputs": [
        {
          "internalType": "bool",
          "name": "",
          "type": "bool"
        }
      ],
      "stateMutability": "view",
      "type": "function"
    },
    {
      "inputs": [],
      "name": "manager",
      "outputs": [
        {
          "internalType": "address",
          "name": "",
          "type": "address"
        }
      ],
      "stateMutability": "view",
      "type": "function"
    },
    {
      "inputs": [
        {
          "internalType": "address",
          "name": "_manager",
          "type": "address"
        }
      ],
      "name": "onAdd",
      "outputs": [],
      "stateMutability": "nonpayable",
      "type": "function"
    },
    {
      "inputs": [],
      "name": "onRemoved",
      "outputs": [],
      "stateMutability": "nonpayable",
      "type": "function"
    },
    {
      "inputs": [
        {
          "internalType": "address",
          "name": "newInstance",
          "type": "address"
        }
      ],
      "name": "onReplaced",
      "outputs": [],
      "stateMutability": "nonpayable",
      "type": "function"
    },
    {
      "inputs": [
        {
          "internalType": "address",
          "name": "oldInstance",
          "type": "address"
        },
        {
          "internalType": "address",
          "name": "_manager",
          "type": "address"
        }
      ],
      "name": "onUpdate",
      "outputs": [],
      "stateMutability": "nonpayable",
      "type": "function"
    },
    {
      "inputs": [],
      "name": "owner",
      "outputs": [
        {
          "internalType": "address",
          "name": "",
          "type": "address"
        }
      ],
      "stateMutability": "view",
      "type": "function"
    },
    {
      "inputs": [],
      "name": "renounceOwnership",
      "outputs": [],
      "stateMutability": "nonpayable",
      "type": "function"
    },
    {
      "inputs": [
        {
          "internalType": "bytes32",
          "name": "role",
          "type": "bytes32"
        },
        {
          "internalType": "address",
          "name": "account",
          "type": "address"
        }
      ],
      "name": "renounceRole",
      "outputs": [],
      "stateMutability": "nonpayable",
      "type": "function"
    },
    {
      "inputs": [
        {
          "internalType": "bytes32",
          "name": "role",
          "type": "bytes32"
        },
        {
          "internalType": "address",
          "name": "account",
          "type": "address"
        }
      ],
      "name": "revokeRole",
      "outputs": [],
      "stateMutability": "nonpayable",
      "type": "function"
    },
    {
      "inputs": [
        {
          "internalType": "bytes32",
          "name": "",
          "type": "bytes32"
        }
      ],
      "name": "stats_lib_addr",
      "outputs": [
        {
          "internalType": "address",
          "name": "",
          "type": "address"
        }
      ],
      "stateMutability": "view",
      "type": "function"
    },
    {
      "inputs": [
        {
          "internalType": "bytes4",
          "name": "interfaceId",
          "type": "bytes4"
        }
      ],
      "name": "supportsInterface",
      "outputs": [
        {
          "internalType": "bool",
          "name": "",
          "type": "bool"
        }
      ],
      "stateMutability": "view",
      "type": "function"
    },
    {
      "inputs": [
        {
          "internalType": "address",
          "name": "newManager",
          "type": "address"
        }
      ],
      "name": "switchManager",
      "outputs": [],
      "stateMutability": "nonpayable",
      "type": "function"
    },
    {
      "inputs": [
        {
          "internalType": "address",
          "name": "newOwner",
          "type": "address"
        }
      ],
      "name": "transferOwnership",
      "outputs": [],
      "stateMutability": "nonpayable",
      "type": "function"
    },
    {
      "inputs": [
        {
          "internalType": "address",
          "name": "newOwner",
          "type": "address"
        }
      ],
      "name": "updateOwnership",
      "outputs": [],
      "stateMutability": "nonpayable",
      "type": "function"
    },
    {
      "inputs": [],
      "name": "getName",
      "outputs": [
        {
          "internalType": "string",
          "name": "",
          "type": "string"
        }
      ],
      "stateMutability": "pure",
      "type": "function"
    },
    {
      "inputs": [],
      "name": "getId",
      "outputs": [
        {
          "internalType": "bytes32",
          "name": "",
          "type": "bytes32"
        }
      ],
      "stateMutability": "pure",
      "type": "function"
    },
    {
      "inputs": [
        {
          "internalType": "bytes32",
          "name": "hname",
          "type": "bytes32"
        },
        {
          "internalType": "address",
          "name": "contractInstance",
          "type": "address"
        },
        {
          "internalType": "bool",
          "name": "isNew",
          "type": "bool"
        }
      ],
      "name": "onListenAdded",
      "outputs": [],
      "stateMutability": "nonpayable",
      "type": "function"
    },
    {
      "inputs": [
        {
          "internalType": "bytes32",
          "name": "hname",
          "type": "bytes32"
        }
      ],
      "name": "onListenRemoved",
      "outputs": [],
      "stateMutability": "nonpayable",
      "type": "function"
    },
    {
      "inputs": [
        {
          "internalType": "address",
          "name": "tag_storage",
          "type": "address"
        }
      ],
      "name": "linkTAG",
      "outputs": [],
      "stateMutability": "nonpayable",
      "type": "function"
    },
    {
      "inputs": [
        {
          "internalType": "address",
          "name": "stats_lib",
          "type": "address"
        }
      ],
      "name": "_linkStatsLib",
      "outputs": [],
      "stateMutability": "nonpayable",
      "type": "function"
    },
    {
      "inputs": [
        {
          "internalType": "address",
          "name": "stats_lib",
          "type": "address"
        }
      ],
      "name": "linkStatsLib",
      "outputs": [],
      "stateMutability": "nonpayable",
      "type": "function"
    },
    {
      "inputs": [
        {
          "internalType": "bytes32",
          "name": "nft_type",
          "type": "bytes32"
        }
      ],
      "name": "stats",
      "outputs": [
        {
          "components": [
            {
              "internalType": "string",
              "name": "name",
              "type": "string"
            },
            {
              "internalType": "enum Util.StatType",
              "name": "statType",
              "type": "uint8"
            },
            {
              "internalType": "bool",
              "name": "is_mutable",
              "type": "bool"
            }
          ],
          "internalType": "struct Util.Stat[]",
          "name": "",
          "type": "tuple[]"
        }
      ],
      "stateMutability": "view",
      "type": "function"
    },
    {
      "inputs": [
        {
          "internalType": "bytes32",
          "name": "nft_type",
          "type": "bytes32"
        },
        {
          "internalType": "uint256",
          "name": "id",
          "type": "uint256"
        },
        {
          "internalType": "string",
          "name": "name",
          "type": "string"
        }
      ],
      "name": "getStat",
      "outputs": [
        {
          "components": [
            {
              "internalType": "enum Util.StatType",
              "name": "statType",
              "type": "uint8"
            },
            {
              "internalType": "uint256",
              "name": "int_val",
              "type": "uint256"
            },
            {
              "internalType": "string",
              "name": "str_val",
              "type": "string"
            },
            {
              "internalType": "bytes32",
              "name": "bta_val",
              "type": "bytes32"
            },
            {
              "internalType": "bool",
              "name": "bool_val",
              "type": "bool"
            }
          ],
          "internalType": "struct Util.StatValue",
          "name": "",
          "type": "tuple"
        }
      ],
      "stateMutability": "view",
      "type": "function"
    }
  ],
  "bytecode": "0x60806040523480156200001157600080fd5b506200001d3362000030565b6200002a60003362000080565b620001be565b600080546001600160a01b038381166001600160a01b0319831681178455604051919092169283917f8be0079c531659141344cd1fd0a4f28419497f9722a3daafe3b4186f6b6457e09190a35050565b620000978282620000c360201b6200175e1760201c565b6000828152600260209081526040909120620000be918390620017c96200014c821b17901c565b505050565b60008281526001602090815260408083206001600160a01b038516845290915290205460ff16620001485760008281526001602081815260408084206001600160a01b0386168086529252808420805460ff19169093179092559051339285917f2f8788117e7eff1d82e926ec794901d17c78024a50270940304540a733656f0d9190a45b5050565b600062000163836001600160a01b0384166200016c565b90505b92915050565b6000818152600183016020526040812054620001b55750815460018181018455600084815260208082209093018490558454848252828601909352604090209190915562000166565b50600062000166565b6128b780620001ce6000396000f3fe608060405234801561001057600080fd5b50600436106101fb5760003560e01c80638840891e1161011a578063ae97568c116100ad578063d4697a471161007c578063d4697a4714610474578063d547741f14610487578063d94796921461049a578063ec87621c146104c2578063f2fde38b146104d757600080fd5b8063ae97568c14610405578063b1d89c0f14610425578063c69c95791461044e578063ca15c8731461046157600080fd5b806391d14854116100e957806391d14854146103c45780639b26a3a8146103d7578063a217fddf146103ea578063a83993b7146103f257600080fd5b80638840891e1461037a57806388971bf51461038d5780638da5cb5b146103a05780639010d07c146103b157600080fd5b80633ad32d16116101925780636025e1f1116101615780636025e1f11461032c5780636b2bf27f1461033f578063715018a614610352578063846235731461035a57600080fd5b80633ad32d16146102de578063481c6a75146102e65780635d1ca631146103115780635df112911461031957600080fd5b80631a6f04f3116101ce5780631a6f04f31461027e578063248a9ca3146102865780632f2ff15d146102b857806336568abe146102cb57600080fd5b806301ffc9a7146102005780630447a2cd1461022857806316f28d241461023d57806317d7de7c14610250575b600080fd5b61021361020e366004612047565b6104ea565b60405190151581526020015b60405180910390f35b61023b61023636600461208d565b610515565b005b61023b61024b3660046120ce565b610523565b60408051808201909152600981526853746174735669657760b81b60208201525b60405161021f919061216a565b61023b610622565b6102aa61029436600461217d565b6000908152600160208190526040909120015490565b60405190815260200161021f565b61023b6102c6366004612196565b61062c565b61023b6102d9366004612196565b610653565b6102aa6106cd565b6003546102f9906001600160a01b031681565b6040516001600160a01b03909116815260200161021f565b6102aa610718565b61023b6103273660046121b9565b610767565b61023b61033a3660046121b9565b610773565b61023b61034d3660046121b9565b6107a6565b61023b6107af565b61036d6103683660046121d4565b6107e3565b60405161021f919061228c565b61023b6103883660046121b9565b6113fc565b61023b61039b3660046121b9565b611405565b6000546001600160a01b03166102f9565b6102f96103bf3660046122e5565b611438565b6102136103d2366004612196565b611457565b61023b6103e53660046121b9565b611482565b6102aa600081565b6004546102f9906001600160a01b031681565b61041861041336600461217d565b61158b565b60405161021f9190612307565b6102f961043336600461217d565b6005602052600090815260409020546001600160a01b031681565b61023b61045c3660046121b9565b611619565b6102aa61046f36600461217d565b611622565b61023b61048236600461217d565b611639565b61023b610495366004612196565b61169f565b6102716040518060400160405280600981526020016853746174735669657760b81b81525081565b6102aa60008051602061286283398151915281565b61023b6104e53660046121b9565b6116c6565b60006001600160e01b0319821663ee7ed59960e01b148061050f575061050f826117de565b92915050565b61051f8282611803565b5050565b61053b60008051602061286283398151915233611457565b6105605760405162461bcd60e51b815260040161055790612393565b60405180910390fd5b7fdfa926e49ecb76ef0407533073c674d3e6a6fb4a00d7941099f34757f314c42e831415610596576105918261188f565b505050565b6040516301ffc9a760e01b8152632977bbdf60e11b60048201526001600160a01b038316906301ffc9a79060240160206040518083038186803b1580156105dc57600080fd5b505afa1580156105f0573d6000803e3d6000fd5b505050506040513d601f19601f8201168201806040525081019061061491906123f0565b156105915761059182611482565b61062a6118e4565b565b600082815260016020819052604090912001546106498133611953565b61059183836119b7565b6001600160a01b03811633146106c35760405162461bcd60e51b815260206004820152602f60248201527f416363657373436f6e74726f6c3a2063616e206f6e6c792072656e6f756e636560448201526e103937b632b9903337b91039b2b63360891b6064820152608401610557565b61051f82826119d9565b6040518060400160405280600981526020016853746174735669657760b81b8152506040516020016106ff919061240d565b6040516020818303038152906040528051906020012081565b60006040518060400160405280600981526020016853746174735669657760b81b81525060405160200161074c919061240d565b60405160208183030381529060405280519060200120905090565b610770816119fb565b50565b6000546001600160a01b0316331461079d5760405162461bcd60e51b815260040161055790612429565b6107708161188f565b61077081611ab3565b6000546001600160a01b031633146107d95760405162461bcd60e51b815260040161055790612429565b61062a6000611b29565b6108166040805160a081019091528060008152600060208201819052606060408301819052820181905260809091015290565b6000838360405160200161082b92919061245e565b60408051808303601f19018152908290528051602090910120632ba5d5a360e21b8252600482018890529150600090309063ae97568c9060240160006040518083038186803b15801561087d57600080fd5b505afa158015610891573d6000803e3d6000fd5b505050506040513d6000823e601f3d908101601f191682016040526108b99190810190612542565b905060005b81518110156113a05760008282815181106108db576108db612666565b6020026020010151600001516040516020016108f7919061240d565b60405160208183030381529060405280519060200120905080841461091c575061138e565b82828151811061092e5761092e612666565b60200260200101516040015115610eab5760405163dfbd4a0560e01b815260009073__Util__________________________________9063dfbd4a059061097d908c908c908c906004016126a5565b60206040518083038186803b15801561099557600080fd5b505af41580156109a9573d6000803e3d6000fd5b505050506040513d601f19601f820116820180604052508101906109cd91906126c8565b905060008484815181106109e3576109e3612666565b6020026020010151602001516003811115610a0057610a00612254565b1415610af9576040518060a00160405280858581518110610a2357610a23612666565b6020026020010151602001516003811115610a4057610a40612254565b815260048054604051639007127b60e01b81529182018590526020909201916001600160a01b031690639007127b9060240160206040518083038186803b158015610a8a57600080fd5b505afa158015610a9e573d6000803e3d6000fd5b505050506040513d601f19601f82011682018060405250810190610ac291906126c8565b81526020016040518060200160405280600081525081526020016000801916815260200160001515815250955050505050506113f4565b6001848481518110610b0d57610b0d612666565b6020026020010151602001516003811115610b2a57610b2a612254565b1415610c14576040518060a00160405280858581518110610b4d57610b4d612666565b6020026020010151602001516003811115610b6a57610b6a612254565b815260006020820152600480546040805163288268a760e21b8152928301869052909201916001600160a01b03169063a209a29c9060240160006040518083038186803b158015610bba57600080fd5b505afa158015610bce573d6000803e3d6000fd5b505050506040513d6000823e601f3d908101601f19168201604052610bf691908101906126e1565b815260006020820181905260409091015295506113f4945050505050565b6002848481518110610c2857610c28612666565b6020026020010151602001516003811115610c4557610c45612254565b1415610d39576040518060a00160405280858581518110610c6857610c68612666565b6020026020010151602001516003811115610c8557610c85612254565b81526000602080830182905260408051918201815291815281830152600480549151630690c87560e31b81529081018590526060909201916001600160a01b039091169063348643a89060240160206040518083038186803b158015610cea57600080fd5b505afa158015610cfe573d6000803e3d6000fd5b505050506040513d601f19601f82011682018060405250810190610d2291906126c8565b8152600060209091015295506113f4945050505050565b6003848481518110610d4d57610d4d612666565b6020026020010151602001516003811115610d6a57610d6a612254565b1415610e63576040518060a00160405280858581518110610d8d57610d8d612666565b6020026020010151602001516003811115610daa57610daa612254565b815260006020808301829052604080519182018152828252808401919091526060830191909152600480549151630bf3ee9160e11b81529081018590526080909201916001600160a01b03909116906317e7dd229060240160206040518083038186803b158015610e1a57600080fd5b505afa158015610e2e573d6000803e3d6000fd5b505050506040513d601f19601f82011682018060405250810190610e5291906123f0565b1515815250955050505050506113f4565b60405162461bcd60e51b815260206004820152601960248201527f556e6b6e6f776e206d757461626c6520737461742074797065000000000000006044820152606401610557565b6000838381518110610ebf57610ebf612666565b6020026020010151602001516003811115610edc57610edc612254565b1415610fec576040518060a00160405280848481518110610eff57610eff612666565b6020026020010151602001516003811115610f1c57610f1c612254565b815260008b81526005602090815260409182902054915163180226a160e11b81529201916001600160a01b03909116906330044d4290610f66908e908e908e908e90600401612716565b60206040518083038186803b158015610f7e57600080fd5b505afa158015610f92573d6000803e3d6000fd5b505050506040513d601f19601f82011682018060405250810190610fb691906126c8565b815260200160405180602001604052806000815250815260200160008019168152602001600015158152509450505050506113f4565b600183838151811061100057611000612666565b602002602001015160200151600381111561101d5761101d612254565b141561111d576040518060a0016040528084848151811061104057611040612666565b602002602001015160200151600381111561105d5761105d612254565b8152600060208083018290528c825260059052604090819020548151635f560e8360e01b815291909201916001600160a01b031690635f560e83906110ac908e908e908e908e90600401612716565b60006040518083038186803b1580156110c457600080fd5b505afa1580156110d8573d6000803e3d6000fd5b505050506040513d6000823e601f3d908101601f1916820160405261110091908101906126e1565b815260006020820181905260409091015294506113f49350505050565b600283838151811061113157611131612666565b602002602001015160200151600381111561114e5761114e612254565b1415611255576040518060a0016040528084848151811061117157611171612666565b602002602001015160200151600381111561118e5761118e612254565b815260006020808301829052604080518083018252838152818501528d83526005909152908190205490516341489ec160e11b81526060909201916001600160a01b03909116906382913d82906111ef908e908e908e908e90600401612716565b60206040518083038186803b15801561120757600080fd5b505afa15801561121b573d6000803e3d6000fd5b505050506040513d601f19601f8201168201806040525081019061123f91906126c8565b8152600060209091015294506113f49350505050565b600383838151811061126957611269612666565b602002602001015160200151600381111561128657611286612254565b1415610e63576040518060a001604052808484815181106112a9576112a9612666565b60200260200101516020015160038111156112c6576112c6612254565b81526000602080830182905260408051808301825283815281850152606084018390528d8352600590915290819020549051630450a52d60e41b81526080909201916001600160a01b039091169063450a52d09061132e908e908e908e908e90600401612716565b60206040518083038186803b15801561134657600080fd5b505afa15801561135a573d6000803e3d6000fd5b505050506040513d601f19601f8201168201806040525081019061137e91906123f0565b15158152509450505050506113f4565b8061139881612756565b9150506108be565b5060405162461bcd60e51b815260206004820152602260248201527f5374617473566965773a2052657175657374656420746167206e6f7420666f756044820152611b9960f21b6064820152608401610557565b949350505050565b61077081611b79565b6000546001600160a01b0316331461142f5760405162461bcd60e51b815260040161055790612429565b61077081611482565b60008281526002602052604081206114509083611bfb565b9392505050565b60009182526001602090815260408084206001600160a01b0393909316845291905290205460ff1690565b6000546001600160a01b031633146114ac5760405162461bcd60e51b815260040161055790612429565b6000816001600160a01b03166354b10da16040518163ffffffff1660e01b815260040160206040518083038186803b1580156114e757600080fd5b505afa1580156114fb573d6000803e3d6000fd5b505050506040513d601f19601f8201168201806040525081019061151f91906126c8565b60008181526005602090815260409182902080546001600160a01b0319166001600160a01b03871690811790915582519081529081018390529192507f84802f68700c5b5387a2cc14f6eefd506bb66c7cadc7df8ecce702fe7b7b343391015b60405180910390a15050565b60008181526005602052604090819020549051632ba5d5a360e21b8152600481018390526060916001600160a01b03169063ae97568c9060240160006040518083038186803b1580156115dd57600080fd5b505afa1580156115f1573d6000803e3d6000fd5b505050506040513d6000823e601f3d908101601f1916820160405261050f9190810190612542565b61077081611c07565b600081815260026020526040812061050f90611c84565b61165160008051602061286283398151915233611457565b61166d5760405162461bcd60e51b815260040161055790612393565b7fdfa926e49ecb76ef0407533073c674d3e6a6fb4a00d7941099f34757f314c42e81141561077057610770600061188f565b600082815260016020819052604090912001546116bc8133611953565b61059183836119d9565b6000546001600160a01b031633146116f05760405162461bcd60e51b815260040161055790612429565b6001600160a01b0381166117555760405162461bcd60e51b815260206004820152602660248201527f4f776e61626c653a206e6577206f776e657220697320746865207a65726f206160448201526564647265737360d01b6064820152608401610557565b61077081611b29565b6117688282611457565b61051f5760008281526001602081815260408084206001600160a01b0386168086529252808420805460ff19169093179092559051339285917f2f8788117e7eff1d82e926ec794901d17c78024a50270940304540a733656f0d9190a45050565b6000611450836001600160a01b038416611c8e565b60006001600160e01b03198216635a05180f60e01b148061050f575061050f82611cdd565b61181b60008051602061286283398151915233611457565b6118375760405162461bcd60e51b815260040161055790612393565b600380546001600160a01b0319166001600160a01b0383811691821790925560408051928516835260208301919091527ff6515f2a6d531f16723c1e578303b7d74152bf8c0fa3bee828700a3d4706da8d910161157f565b600480546001600160a01b0319166001600160a01b0383169081179091556040519081527fd6bd8455a554480b643ff6104fea79e1a7c1b27d210a7e7911a3b6a3c64b7079906020015b60405180910390a150565b6118fc60008051602061286283398151915233611457565b6119185760405162461bcd60e51b815260040161055790612393565b600380546001600160a01b03191690556040517f9a9a74cf290a994f69a718e8557deb1dd65135268f40e660cecddf675f5dd51490600090a1565b61195d8282611457565b61051f57611975816001600160a01b03166014611d12565b611980836020611d12565b604051602001611991929190612771565b60408051601f198184030181529082905262461bcd60e51b82526105579160040161216a565b6119c1828261175e565b600082815260026020526040902061059190826117c9565b6119e38282611eae565b60008281526002602052604090206105919082611f15565b611a1360008051602061286283398151915233611457565b611a2f5760405162461bcd60e51b815260040161055790612393565b600380546001600160a01b0319166001600160a01b038316179055611a626000805160206128628339815191528261062c565b611a7a6000805160206128628339815191523361169f565b6040516001600160a01b03821681527f8eb47098f9568be754f51d21a870c8091ee0242cf97418db00927326d0e6ffcf906020016118d9565b611acb60008051602061286283398151915233611457565b611ae75760405162461bcd60e51b815260040161055790612393565b611af0816116c6565b6040516001600160a01b03821681527ff2addf7f813887cf0fdd82b58fcc379ab2301e95c90b41a8cf2e5401914689c9906020016118d9565b600080546001600160a01b038381166001600160a01b0319831681178455604051919092169283917f8be0079c531659141344cd1fd0a4f28419497f9722a3daafe3b4186f6b6457e09190a35050565b611b9160008051602061286283398151915233611457565b611bad5760405162461bcd60e51b815260040161055790612393565b600380546001600160a01b0319166001600160a01b0383169081179091556040519081527f89c66952b48f3e96bf1d8ba1b63189520fd988a6979b8b740bd5c5d8dc53e205906020016118d9565b60006114508383611f2a565b611c1f60008051602061286283398151915233611457565b611c3b5760405162461bcd60e51b815260040161055790612393565b600380546001600160a01b03191690556040516001600160a01b03821681527f85a56ff958486f55dd742819603a46ba6233d3b24e6715f9cd5fd2ef6425d680906020016118d9565b600061050f825490565b6000818152600183016020526040812054611cd55750815460018181018455600084815260208082209093018490558454848252828601909352604090209190915561050f565b50600061050f565b60006001600160e01b03198216637965db0b60e01b148061050f57506301ffc9a760e01b6001600160e01b031983161461050f565b60606000611d218360026127e6565b611d2c906002612805565b67ffffffffffffffff811115611d4457611d4461246e565b6040519080825280601f01601f191660200182016040528015611d6e576020820181803683370190505b509050600360fc1b81600081518110611d8957611d89612666565b60200101906001600160f81b031916908160001a905350600f60fb1b81600181518110611db857611db8612666565b60200101906001600160f81b031916908160001a9053506000611ddc8460026127e6565b611de7906001612805565b90505b6001811115611e5f576f181899199a1a9b1b9c1cb0b131b232b360811b85600f1660108110611e1b57611e1b612666565b1a60f81b828281518110611e3157611e31612666565b60200101906001600160f81b031916908160001a90535060049490941c93611e588161281d565b9050611dea565b5083156114505760405162461bcd60e51b815260206004820181905260248201527f537472696e67733a20686578206c656e67746820696e73756666696369656e746044820152606401610557565b611eb88282611457565b1561051f5760008281526001602090815260408083206001600160a01b0385168085529252808320805460ff1916905551339285917ff6391f5c32d9c69d2a47ea670b442974b53935d1edc7fd64eb21e047a839171b9190a45050565b6000611450836001600160a01b038416611f54565b6000826000018281548110611f4157611f41612666565b9060005260206000200154905092915050565b6000818152600183016020526040812054801561203d576000611f78600183612834565b8554909150600090611f8c90600190612834565b9050818114611ff1576000866000018281548110611fac57611fac612666565b9060005260206000200154905080876000018481548110611fcf57611fcf612666565b6000918252602080832090910192909255918252600188019052604090208390555b85548690806120025761200261284b565b60019003818190600052602060002001600090559055856001016000868152602001908152602001600020600090556001935050505061050f565b600091505061050f565b60006020828403121561205957600080fd5b81356001600160e01b03198116811461145057600080fd5b80356001600160a01b038116811461208857600080fd5b919050565b600080604083850312156120a057600080fd5b6120a983612071565b91506120b760208401612071565b90509250929050565b801515811461077057600080fd5b6000806000606084860312156120e357600080fd5b833592506120f360208501612071565b91506040840135612103816120c0565b809150509250925092565b60005b83811015612129578181015183820152602001612111565b83811115612138576000848401525b50505050565b6000815180845261215681602086016020860161210e565b601f01601f19169290920160200192915050565b602081526000611450602083018461213e565b60006020828403121561218f57600080fd5b5035919050565b600080604083850312156121a957600080fd5b823591506120b760208401612071565b6000602082840312156121cb57600080fd5b61145082612071565b600080600080606085870312156121ea57600080fd5b8435935060208501359250604085013567ffffffffffffffff8082111561221057600080fd5b818701915087601f83011261222457600080fd5b81358181111561223357600080fd5b88602082850101111561224557600080fd5b95989497505060200194505050565b634e487b7160e01b600052602160045260246000fd5b6004811061228857634e487b7160e01b600052602160045260246000fd5b9052565b6020815261229e60208201835161226a565b602082015160408201526000604083015160a060608401526122c360c084018261213e565b9050606084015160808401526080840151151560a08401528091505092915050565b600080604083850312156122f857600080fd5b50508035926020909101359150565b60006020808301818452808551808352604092508286019150828160051b87010184880160005b8381101561238557603f198984030185528151606081518186526123548287018261213e565b915050888201516123678a87018261226a565b5090870151151593870193909352938601939086019060010161232e565b509098975050505050505050565b6020808252603b908201527f43726f7373436f6e74726163744d616e4c697374656e65723a2074686520636160408201527f6c6c6572206d7573742068617665204d414e414745525f524f4c450000000000606082015260800190565b60006020828403121561240257600080fd5b8151611450816120c0565b6000825161241f81846020870161210e565b9190910192915050565b6020808252818101527f4f776e61626c653a2063616c6c6572206973206e6f7420746865206f776e6572604082015260600190565b8183823760009101908152919050565b634e487b7160e01b600052604160045260246000fd5b6040516060810167ffffffffffffffff811182821017156124a7576124a761246e565b60405290565b604051601f8201601f1916810167ffffffffffffffff811182821017156124d6576124d661246e565b604052919050565b600082601f8301126124ef57600080fd5b815167ffffffffffffffff8111156125095761250961246e565b61251c601f8201601f19166020016124ad565b81815284602083860101111561253157600080fd5b6113f482602083016020870161210e565b6000602080838503121561255557600080fd5b825167ffffffffffffffff8082111561256d57600080fd5b818501915085601f83011261258157600080fd5b8151818111156125935761259361246e565b8060051b6125a28582016124ad565b91825283810185019185810190898411156125bc57600080fd5b86860192505b83831015612659578251858111156125da5760008081fd5b86016060818c03601f19018113156125f25760008081fd5b6125fa612484565b898301518881111561260c5760008081fd5b61261a8e8c838701016124de565b825250604080840151600481106126315760008081fd5b828c01529282015192612643846120c0565b81019290925250825291860191908601906125c2565b9998505050505050505050565b634e487b7160e01b600052603260045260246000fd5b81835281816020850137506000828201602090810191909152601f909101601f19169091010190565b8381526040602082015260006126bf60408301848661267c565b95945050505050565b6000602082840312156126da57600080fd5b5051919050565b6000602082840312156126f357600080fd5b815167ffffffffffffffff81111561270a57600080fd5b6113f4848285016124de565b84815283602082015260606040820152600061273660608301848661267c565b9695505050505050565b634e487b7160e01b600052601160045260246000fd5b600060001982141561276a5761276a612740565b5060010190565b7f416363657373436f6e74726f6c3a206163636f756e74200000000000000000008152600083516127a981601785016020880161210e565b7001034b99036b4b9b9b4b733903937b6329607d1b60179184019182015283516127da81602884016020880161210e565b01602801949350505050565b600081600019048311821515161561280057612800612740565b500290565b6000821982111561281857612818612740565b500190565b60008161282c5761282c612740565b506000190190565b60008282101561284657612846612740565b500390565b634e487b7160e01b600052603160045260246000fdfe241ecf16d79d0f8dbfb92cbc07fe17840425976cf0667f022fe9877caa831b08a264697066735822122080b2b54ab5f65dd99b2f03a5a1d80b92c1ea82745a75c03e818ee3ce5bb3d43064736f6c63430008090033",
  "immutableReferences": {},
  "source": "// SPDX-License-Identifier: MIT\npragma solidity ^0.8;\n\nimport \"@openzeppelin/contracts/access/Ownable.sol\";\nimport \"./IStatsDerive.sol\";\nimport \"./TagStorage.sol\";\nimport \"./CrossContractManListener.sol\";\nimport {Util} from \"./Util.sol\";\n\ncontract StatsView is CrossContractManListener {\n    string  public constant contract_name = 'StatsView';\n    bytes32 public constant contract_id = keccak256(abi.encodePacked(contract_name));\n\n    address public\tTAG_addr;\n//    address public\tNFT_addr;\n    mapping(bytes32 => address) public\tstats_lib_addr;\n\n/*    constructor(address tag_storage, address nft_container){\n\tTAG_addr = tag_storage;\n//\tNFT_addr = nft_container;\n    }*/\n\n    function getName() pure external returns(string memory) {\n\treturn contract_name;\n    }\n\n    function getId() pure external returns(bytes32) {\n\treturn contract_id;\n    }\n\n    function onListenAdded(bytes32 hname, address contractInstance, bool isNew) external onlyManager {\n\tif(hname == Util.TAG_STORAGE_CONTRACT_ID){\n\t    _linkTAG(contractInstance);\n\t    return;\n\t}\n\tif(IERC165(contractInstance).supportsInterface(type(IStatsDerive).interfaceId)){\n\t    _linkStatsLib(contractInstance);\n\t    return;\n\t}\n    }\n\n    function onListenRemoved(bytes32 hname) external onlyManager {\n\tif(hname == Util.TAG_STORAGE_CONTRACT_ID){\n\t    _linkTAG(address(0));\n\t    return;\n\t}\n/*\tif((contractInstance).contract_id){\n\t    _linkStatsLib(address(0));\n\t    return;\n\t}*/\n    }\n\n\n    function _linkTAG(address tag_storage) internal {\n        TAG_addr = tag_storage;\n        emit TAGLink(tag_storage);\n    }\n\n/*    function _linkNFT(address nft_container) internal {\n        NFT_addr = nft_container;\n        emit NFTLink(nft_container);\n    }*/\n\n    /**\n     * @notice Sets link to Tag Storage smart contract\n    **/\n    function linkTAG(address tag_storage) public virtual onlyOwner {\n\t_linkTAG(tag_storage);\n    }\n\n    /**\n     * @notice Sets link to ERC1155 NFT smart contract\n    **/\n/*    function linkNFT(address nft_container) public virtual onlyOwner {\n\t_linkNFT(nft_container);\n    }*/\n\n\n    /**\n     * @notice Sets link to the Stats deriving library\n    **/\n    function _linkStatsLib(address stats_lib) public virtual onlyOwner {\n\tbytes32 nft_type = IStatsDerive(stats_lib).tokenTypeCode();\n        stats_lib_addr[nft_type] = stats_lib;\n        emit StatsLibLink(stats_lib, nft_type);\n    }\n\n    /**\n     * @notice Sets link to the Stats deriving library\n    **/\n    function linkStatsLib(address stats_lib) public virtual onlyOwner {\n\t_linkStatsLib(stats_lib);\n    }\n\n    /**\n     * @notice Defines a set of stats that can be derived\n     *\n     * @return An enumerable set (actually, an array) of stats that can be derived by the interface implementation\n    **/\n    function stats(bytes32 nft_type) external view returns (Util.Stat[] memory) {\n\treturn IStatsDerive(stats_lib_addr[nft_type]).stats(nft_type);\n\trevert('Unknown NFT type');\n    }\n\n     /**\n     * @notice Read an integer stat\n     *\n     * @param id An id generated by an RNG\n     * @param name The stats' name\n     * @return The stats' value\n    **/\n    function getStat(bytes32 nft_type, uint256 id, string calldata name) external view returns (Util.StatValue memory){\n\tbytes32 h_name = keccak256(abi.encodePacked(name));\n\n\tUtil.Stat[] memory _stats = this.stats(nft_type);\n\tfor(uint i=0; i<_stats.length; i++){\n\t    bytes32 h_stats_name = keccak256(abi.encodePacked(_stats[i].name));\n\t    if(h_name != h_stats_name)continue;\n\t    if(_stats[i].is_mutable){\n\t\tbytes32 key = Util.getTagKey(id,name);\n\t\tif(_stats[i].statType == Util.StatType.Integer)\n\t\t    return (Util.StatValue(_stats[i].statType, TagStorage(TAG_addr).getIntValue(key), \"\", \"\", false));\n\t\telse if(_stats[i].statType == Util.StatType.String)\n\t\t    return (Util.StatValue(_stats[i].statType, 0, TagStorage(TAG_addr).getStringValue(key), \"\", false));\n\t\telse if(_stats[i].statType == Util.StatType.ByteArray)\n\t\t    return (Util.StatValue(_stats[i].statType, 0, \"\", TagStorage(TAG_addr).getByte32Value(key), false));\n\t\telse if(_stats[i].statType == Util.StatType.Boolean)\n\t\t    return (Util.StatValue(_stats[i].statType, 0, \"\", \"\", TagStorage(TAG_addr).getBooleanValue(key)));\n\t\trevert(\"Unknown mutable stat type\");\n\t    }else{\n\t\tif(_stats[i].statType == Util.StatType.Integer)\n\t\t    return (Util.StatValue(_stats[i].statType, IStatsDerive(stats_lib_addr[nft_type]).getStatInt(nft_type, id, name), \"\", \"\", false));\n\t\telse if(_stats[i].statType == Util.StatType.String)\n\t\t    return (Util.StatValue(_stats[i].statType, 0, IStatsDerive(stats_lib_addr[nft_type]).getStatString(nft_type, id, name), \"\", false));\n\t\telse if(_stats[i].statType == Util.StatType.ByteArray)\n\t\t    return (Util.StatValue(_stats[i].statType, 0, \"\", IStatsDerive(stats_lib_addr[nft_type]).getStatByte32(nft_type, id, name), false));\n\t\telse if(_stats[i].statType == Util.StatType.Boolean)\n\t\t    return (Util.StatValue(_stats[i].statType, 0, \"\", \"\", IStatsDerive(stats_lib_addr[nft_type]).getStatBool(nft_type, id, name)));\n\t\trevert(\"Unknown mutable stat type\");\n\t    }\n\t}\n\trevert(\"StatsView: Requested tag not found\");\n    }\n\n    event\tTAGLink(address tag_addr);\n    event\tNFTLink(address nft_addr);\n    event\tStatsLibLink(address stats_lib_addr, bytes32 nft_type);\n\n}\n",
  "sourcePath": "/home/vrogojin/Projects/FireZard/nft/contracts/StatsView.sol",
  "compiler": {
    "name": "solc",
    "version": "0.8.9+commit.e5eed63a.Emscripten.clang"
  },
  "schemaVersion": "3.4.3",
  "updatedAt": "2022-02-07T18:32:07.967Z",
  "devdoc": {
    "kind": "dev",
    "methods": {
      "getRoleAdmin(bytes32)": {
        "details": "Returns the admin role that controls `role`. See {grantRole} and {revokeRole}. To change a role's admin, use {_setRoleAdmin}."
      },
      "getRoleMember(bytes32,uint256)": {
        "details": "Returns one of the accounts that have `role`. `index` must be a value between 0 and {getRoleMemberCount}, non-inclusive. Role bearers are not sorted in any particular way, and their ordering may change at any point. WARNING: When using {getRoleMember} and {getRoleMemberCount}, make sure you perform all queries on the same block. See the following https://forum.openzeppelin.com/t/iterating-over-elements-on-enumerableset-in-openzeppelin-contracts/2296[forum post] for more information."
      },
      "getRoleMemberCount(bytes32)": {
        "details": "Returns the number of accounts that have `role`. Can be used together with {getRoleMember} to enumerate all bearers of a role."
      },
      "getStat(bytes32,uint256,string)": {
        "params": {
          "id": "An id generated by an RNG",
          "name": "The stats' name"
        },
        "returns": {
          "_0": "The stats' value*"
        }
      },
      "grantRole(bytes32,address)": {
        "details": "Grants `role` to `account`. If `account` had not been already granted `role`, emits a {RoleGranted} event. Requirements: - the caller must have ``role``'s admin role."
      },
      "hasRole(bytes32,address)": {
        "details": "Returns `true` if `account` has been granted `role`."
      },
      "owner()": {
        "details": "Returns the address of the current owner."
      },
      "renounceOwnership()": {
        "details": "Leaves the contract without owner. It will not be possible to call `onlyOwner` functions anymore. Can only be called by the current owner. NOTE: Renouncing ownership will leave the contract without an owner, thereby removing any functionality that is only available to the owner."
      },
      "renounceRole(bytes32,address)": {
        "details": "Revokes `role` from the calling account. Roles are often managed via {grantRole} and {revokeRole}: this function's purpose is to provide a mechanism for accounts to lose their privileges if they are compromised (such as when a trusted device is misplaced). If the calling account had been revoked `role`, emits a {RoleRevoked} event. Requirements: - the caller must be `account`."
      },
      "revokeRole(bytes32,address)": {
        "details": "Revokes `role` from `account`. If `account` had been granted `role`, emits a {RoleRevoked} event. Requirements: - the caller must have ``role``'s admin role."
      },
      "stats(bytes32)": {
        "returns": {
          "_0": "An enumerable set (actually, an array) of stats that can be derived by the interface implementation*"
        }
      },
      "supportsInterface(bytes4)": {
        "details": "See {IERC165-supportsInterface}."
      },
      "transferOwnership(address)": {
        "details": "Transfers ownership of the contract to a new account (`newOwner`). Can only be called by the current owner."
      }
    },
    "version": 1
  },
  "userdoc": {
    "kind": "user",
    "methods": {
      "_linkStatsLib(address)": {
        "notice": "Sets link to the Stats deriving library*"
      },
      "getStat(bytes32,uint256,string)": {
        "notice": "Read an integer stat"
      },
      "linkStatsLib(address)": {
        "notice": "Sets link to the Stats deriving library*"
      },
      "linkTAG(address)": {
        "notice": "Sets link to Tag Storage smart contract*"
      },
      "stats(bytes32)": {
        "notice": "Defines a set of stats that can be derived"
      }
    },
    "version": 1
  }
}