{
  "contractName": "StatsView",
  "abi": [
    {
      "inputs": [
        {
          "internalType": "address",
          "name": "tag_storage",
          "type": "address"
        },
        {
          "internalType": "address",
          "name": "nft_container",
          "type": "address"
        }
      ],
      "stateMutability": "nonpayable",
      "type": "constructor"
    },
    {
      "anonymous": false,
      "inputs": [
        {
          "indexed": false,
          "internalType": "address",
          "name": "nft_addr",
          "type": "address"
        }
      ],
      "name": "NFTLink",
      "type": "event"
    },
    {
      "anonymous": false,
      "inputs": [
        {
          "indexed": true,
          "internalType": "address",
          "name": "previousOwner",
          "type": "address"
        },
        {
          "indexed": true,
          "internalType": "address",
          "name": "newOwner",
          "type": "address"
        }
      ],
      "name": "OwnershipTransferred",
      "type": "event"
    },
    {
      "anonymous": false,
      "inputs": [
        {
          "indexed": false,
          "internalType": "address",
          "name": "stats_lib_addr",
          "type": "address"
        },
        {
          "indexed": false,
          "internalType": "bytes32",
          "name": "nft_type",
          "type": "bytes32"
        }
      ],
      "name": "StatsLibLink",
      "type": "event"
    },
    {
      "anonymous": false,
      "inputs": [
        {
          "indexed": false,
          "internalType": "address",
          "name": "tag_addr",
          "type": "address"
        }
      ],
      "name": "TAGLink",
      "type": "event"
    },
    {
      "inputs": [],
      "name": "NFT_addr",
      "outputs": [
        {
          "internalType": "address",
          "name": "",
          "type": "address"
        }
      ],
      "stateMutability": "view",
      "type": "function"
    },
    {
      "inputs": [],
      "name": "TAG_addr",
      "outputs": [
        {
          "internalType": "address",
          "name": "",
          "type": "address"
        }
      ],
      "stateMutability": "view",
      "type": "function"
    },
    {
      "inputs": [],
      "name": "owner",
      "outputs": [
        {
          "internalType": "address",
          "name": "",
          "type": "address"
        }
      ],
      "stateMutability": "view",
      "type": "function"
    },
    {
      "inputs": [],
      "name": "renounceOwnership",
      "outputs": [],
      "stateMutability": "nonpayable",
      "type": "function"
    },
    {
      "inputs": [
        {
          "internalType": "bytes32",
          "name": "",
          "type": "bytes32"
        }
      ],
      "name": "stats_lib_addr",
      "outputs": [
        {
          "internalType": "address",
          "name": "",
          "type": "address"
        }
      ],
      "stateMutability": "view",
      "type": "function"
    },
    {
      "inputs": [
        {
          "internalType": "address",
          "name": "newOwner",
          "type": "address"
        }
      ],
      "name": "transferOwnership",
      "outputs": [],
      "stateMutability": "nonpayable",
      "type": "function"
    },
    {
      "inputs": [
        {
          "internalType": "address",
          "name": "tag_storage",
          "type": "address"
        }
      ],
      "name": "linkTAG",
      "outputs": [],
      "stateMutability": "nonpayable",
      "type": "function"
    },
    {
      "inputs": [
        {
          "internalType": "address",
          "name": "nft_container",
          "type": "address"
        }
      ],
      "name": "linkNFT",
      "outputs": [],
      "stateMutability": "nonpayable",
      "type": "function"
    },
    {
      "inputs": [
        {
          "internalType": "address",
          "name": "stats_lib",
          "type": "address"
        },
        {
          "internalType": "bytes32",
          "name": "nft_type",
          "type": "bytes32"
        }
      ],
      "name": "linkStatsLib",
      "outputs": [],
      "stateMutability": "nonpayable",
      "type": "function"
    },
    {
      "inputs": [
        {
          "internalType": "bytes32",
          "name": "nft_type",
          "type": "bytes32"
        }
      ],
      "name": "stats",
      "outputs": [
        {
          "components": [
            {
              "internalType": "string",
              "name": "name",
              "type": "string"
            },
            {
              "internalType": "enum Util.StatType",
              "name": "statType",
              "type": "uint8"
            },
            {
              "internalType": "bool",
              "name": "is_mutable",
              "type": "bool"
            }
          ],
          "internalType": "struct Util.Stat[]",
          "name": "",
          "type": "tuple[]"
        }
      ],
      "stateMutability": "view",
      "type": "function"
    },
    {
      "inputs": [
        {
          "internalType": "bytes32",
          "name": "nft_type",
          "type": "bytes32"
        },
        {
          "internalType": "uint256",
          "name": "id",
          "type": "uint256"
        },
        {
          "internalType": "string",
          "name": "name",
          "type": "string"
        }
      ],
      "name": "getStat",
      "outputs": [
        {
          "components": [
            {
              "internalType": "enum Util.StatType",
              "name": "statType",
              "type": "uint8"
            },
            {
              "internalType": "uint256",
              "name": "int_val",
              "type": "uint256"
            },
            {
              "internalType": "string",
              "name": "str_val",
              "type": "string"
            },
            {
              "internalType": "bytes32",
              "name": "bta_val",
              "type": "bytes32"
            },
            {
              "internalType": "bool",
              "name": "bool_val",
              "type": "bool"
            }
          ],
          "internalType": "struct Util.StatValue",
          "name": "",
          "type": "tuple"
        }
      ],
      "stateMutability": "view",
      "type": "function"
    }
  ],
  "bytecode": "0x60806040523480156200001157600080fd5b506040516200187d3803806200187d8339810160408190526200003491620000de565b6200003f3362000071565b600180546001600160a01b039384166001600160a01b0319918216179091556002805492909316911617905562000116565b600080546001600160a01b038381166001600160a01b0319831681178455604051919092169283917f8be0079c531659141344cd1fd0a4f28419497f9722a3daafe3b4186f6b6457e09190a35050565b80516001600160a01b0381168114620000d957600080fd5b919050565b60008060408385031215620000f257600080fd5b620000fd83620000c1565b91506200010d60208401620000c1565b90509250929050565b61175780620001266000396000f3fe608060405234801561001057600080fd5b50600436106100a95760003560e01c8063a83993b711610071578063a83993b71461012c578063aadd04881461013f578063ad2dc84314610152578063ae97568c14610165578063b1d89c0f14610185578063f2fde38b146101ae57600080fd5b806350b978a8146100ae5780636025e1f1146100de578063715018a6146100f357806384623573146100fb5780638da5cb5b1461011b575b600080fd5b6002546100c1906001600160a01b031681565b6040516001600160a01b0390911681526020015b60405180910390f35b6100f16100ec366004611140565b6101c1565b005b6100f1610249565b61010e610109366004611162565b61027f565b6040516100d59190611276565b6000546001600160a01b03166100c1565b6001546100c1906001600160a01b031681565b6100f161014d366004611140565b610e9b565b6100f16101603660046112cf565b610f13565b6101786101733660046112f9565b610fa5565b6040516100d59190611312565b6100c16101933660046112f9565b6003602052600090815260409020546001600160a01b031681565b6100f16101bc366004611140565b611039565b6000546001600160a01b031633146101f45760405162461bcd60e51b81526004016101eb9061139e565b60405180910390fd5b600180546001600160a01b0319166001600160a01b0383169081179091556040519081527fd6bd8455a554480b643ff6104fea79e1a7c1b27d210a7e7911a3b6a3c64b7079906020015b60405180910390a150565b6000546001600160a01b031633146102735760405162461bcd60e51b81526004016101eb9061139e565b61027d60006110d4565b565b6102b26040805160a081019091528060008152600060208201819052606060408301819052820181905260809091015290565b600083836040516020016102c79291906113d3565b60408051808303601f19018152908290528051602090910120632ba5d5a360e21b8252600482018890529150600090309063ae97568c9060240160006040518083038186803b15801561031957600080fd5b505afa15801561032d573d6000803e3d6000fd5b505050506040513d6000823e601f3d908101601f1916820160405261035591908101906114c7565b905060005b8151811015610e3f576000828281518110610377576103776115e7565b60200260200101516000015160405160200161039391906115fd565b6040516020818303038152906040528051906020012090508084146103b85750610e2d565b8282815181106103ca576103ca6115e7565b6020026020010151604001511561094a5760405163dfbd4a0560e01b815260009073__Util__________________________________9063dfbd4a0590610419908c908c908c90600401611642565b60206040518083038186803b15801561043157600080fd5b505af4158015610445573d6000803e3d6000fd5b505050506040513d601f19601f820116820180604052508101906104699190611665565b9050600084848151811061047f5761047f6115e7565b602002602001015160200151600381111561049c5761049c6111e2565b1415610597576040518060a001604052808585815181106104bf576104bf6115e7565b60200260200101516020015160038111156104dc576104dc6111e2565b8152600154604051639007127b60e01b8152600481018590526020909201916001600160a01b0390911690639007127b9060240160206040518083038186803b15801561052857600080fd5b505afa15801561053c573d6000803e3d6000fd5b505050506040513d601f19601f820116820180604052508101906105609190611665565b8152602001604051806020016040528060008152508152602001600080191681526020016000151581525095505050505050610e93565b60018484815181106105ab576105ab6115e7565b60200260200101516020015160038111156105c8576105c86111e2565b14156106b3576040518060a001604052808585815181106105eb576105eb6115e7565b6020026020010151602001516003811115610608576106086111e2565b8152600060208201526001546040805163288268a760e21b8152600481018690529201916001600160a01b039091169063a209a29c9060240160006040518083038186803b15801561065957600080fd5b505afa15801561066d573d6000803e3d6000fd5b505050506040513d6000823e601f3d908101601f19168201604052610695919081019061167e565b81526000602082018190526040909101529550610e93945050505050565b60028484815181106106c7576106c76115e7565b60200260200101516020015160038111156106e4576106e46111e2565b14156107d8576040518060a00160405280858581518110610707576107076115e7565b6020026020010151602001516003811115610724576107246111e2565b815260006020808301829052604080519182018152918152818301526001549051630690c87560e31b8152600481018590526060909201916001600160a01b039091169063348643a89060240160206040518083038186803b15801561078957600080fd5b505afa15801561079d573d6000803e3d6000fd5b505050506040513d601f19601f820116820180604052508101906107c19190611665565b815260006020909101529550610e93945050505050565b60038484815181106107ec576107ec6115e7565b6020026020010151602001516003811115610809576108096111e2565b1415610902576040518060a0016040528085858151811061082c5761082c6115e7565b6020026020010151602001516003811115610849576108496111e2565b8152600060208083018290526040805191820181528282528084019190915260608301919091526001549051630bf3ee9160e11b8152600481018590526080909201916001600160a01b03909116906317e7dd229060240160206040518083038186803b1580156108b957600080fd5b505afa1580156108cd573d6000803e3d6000fd5b505050506040513d601f19601f820116820180604052508101906108f191906116b3565b151581525095505050505050610e93565b60405162461bcd60e51b815260206004820152601960248201527f556e6b6e6f776e206d757461626c65207374617420747970650000000000000060448201526064016101eb565b600083838151811061095e5761095e6115e7565b602002602001015160200151600381111561097b5761097b6111e2565b1415610a8b576040518060a0016040528084848151811061099e5761099e6115e7565b60200260200101516020015160038111156109bb576109bb6111e2565b815260008b81526003602090815260409182902054915163180226a160e11b81529201916001600160a01b03909116906330044d4290610a05908e908e908e908e906004016116ce565b60206040518083038186803b158015610a1d57600080fd5b505afa158015610a31573d6000803e3d6000fd5b505050506040513d601f19601f82011682018060405250810190610a559190611665565b81526020016040518060200160405280600081525081526020016000801916815260200160001515815250945050505050610e93565b6001838381518110610a9f57610a9f6115e7565b6020026020010151602001516003811115610abc57610abc6111e2565b1415610bbc576040518060a00160405280848481518110610adf57610adf6115e7565b6020026020010151602001516003811115610afc57610afc6111e2565b8152600060208083018290528c825260039052604090819020548151635f560e8360e01b815291909201916001600160a01b031690635f560e8390610b4b908e908e908e908e906004016116ce565b60006040518083038186803b158015610b6357600080fd5b505afa158015610b77573d6000803e3d6000fd5b505050506040513d6000823e601f3d908101601f19168201604052610b9f919081019061167e565b81526000602082018190526040909101529450610e939350505050565b6002838381518110610bd057610bd06115e7565b6020026020010151602001516003811115610bed57610bed6111e2565b1415610cf4576040518060a00160405280848481518110610c1057610c106115e7565b6020026020010151602001516003811115610c2d57610c2d6111e2565b815260006020808301829052604080518083018252838152818501528d83526003909152908190205490516341489ec160e11b81526060909201916001600160a01b03909116906382913d8290610c8e908e908e908e908e906004016116ce565b60206040518083038186803b158015610ca657600080fd5b505afa158015610cba573d6000803e3d6000fd5b505050506040513d601f19601f82011682018060405250810190610cde9190611665565b815260006020909101529450610e939350505050565b6003838381518110610d0857610d086115e7565b6020026020010151602001516003811115610d2557610d256111e2565b1415610902576040518060a00160405280848481518110610d4857610d486115e7565b6020026020010151602001516003811115610d6557610d656111e2565b81526000602080830182905260408051808301825283815281850152606084018390528d8352600390915290819020549051630450a52d60e41b81526080909201916001600160a01b039091169063450a52d090610dcd908e908e908e908e906004016116ce565b60206040518083038186803b158015610de557600080fd5b505afa158015610df9573d6000803e3d6000fd5b505050506040513d601f19601f82011682018060405250810190610e1d91906116b3565b1515815250945050505050610e93565b80610e37816116f8565b91505061035a565b5060405162461bcd60e51b815260206004820152602260248201527f5374617473566965773a2052657175657374656420746167206e6f7420666f756044820152611b9960f21b60648201526084016101eb565b949350505050565b6000546001600160a01b03163314610ec55760405162461bcd60e51b81526004016101eb9061139e565b600280546001600160a01b0319166001600160a01b0383169081179091556040519081527f7869e3c19f5ec29481a8433791a06441db7b22cd85336da47df97fd7b686ba2a9060200161023e565b6000546001600160a01b03163314610f3d5760405162461bcd60e51b81526004016101eb9061139e565b60008181526003602090815260409182902080546001600160a01b0319166001600160a01b03861690811790915582519081529081018390527f84802f68700c5b5387a2cc14f6eefd506bb66c7cadc7df8ecce702fe7b7b3433910160405180910390a15050565b60008181526003602052604090819020549051632ba5d5a360e21b8152600481018390526060916001600160a01b03169063ae97568c9060240160006040518083038186803b158015610ff757600080fd5b505afa15801561100b573d6000803e3d6000fd5b505050506040513d6000823e601f3d908101601f1916820160405261103391908101906114c7565b92915050565b6000546001600160a01b031633146110635760405162461bcd60e51b81526004016101eb9061139e565b6001600160a01b0381166110c85760405162461bcd60e51b815260206004820152602660248201527f4f776e61626c653a206e6577206f776e657220697320746865207a65726f206160448201526564647265737360d01b60648201526084016101eb565b6110d1816110d4565b50565b600080546001600160a01b038381166001600160a01b0319831681178455604051919092169283917f8be0079c531659141344cd1fd0a4f28419497f9722a3daafe3b4186f6b6457e09190a35050565b80356001600160a01b038116811461113b57600080fd5b919050565b60006020828403121561115257600080fd5b61115b82611124565b9392505050565b6000806000806060858703121561117857600080fd5b8435935060208501359250604085013567ffffffffffffffff8082111561119e57600080fd5b818701915087601f8301126111b257600080fd5b8135818111156111c157600080fd5b8860208285010111156111d357600080fd5b95989497505060200194505050565b634e487b7160e01b600052602160045260246000fd5b6004811061121657634e487b7160e01b600052602160045260246000fd5b9052565b60005b8381101561123557818101518382015260200161121d565b83811115611244576000848401525b50505050565b6000815180845261126281602086016020860161121a565b601f01601f19169290920160200192915050565b602081526112886020820183516111f8565b602082015160408201526000604083015160a060608401526112ad60c084018261124a565b9050606084015160808401526080840151151560a08401528091505092915050565b600080604083850312156112e257600080fd5b6112eb83611124565b946020939093013593505050565b60006020828403121561130b57600080fd5b5035919050565b60006020808301818452808551808352604092508286019150828160051b87010184880160005b8381101561139057603f1989840301855281516060815181865261135f8287018261124a565b915050888201516113728a8701826111f8565b50908701511515938701939093529386019390860190600101611339565b509098975050505050505050565b6020808252818101527f4f776e61626c653a2063616c6c6572206973206e6f7420746865206f776e6572604082015260600190565b8183823760009101908152919050565b634e487b7160e01b600052604160045260246000fd5b6040516060810167ffffffffffffffff8111828210171561141c5761141c6113e3565b60405290565b604051601f8201601f1916810167ffffffffffffffff8111828210171561144b5761144b6113e3565b604052919050565b600082601f83011261146457600080fd5b815167ffffffffffffffff81111561147e5761147e6113e3565b611491601f8201601f1916602001611422565b8181528460208386010111156114a657600080fd5b610e9382602083016020870161121a565b8051801515811461113b57600080fd5b600060208083850312156114da57600080fd5b825167ffffffffffffffff808211156114f257600080fd5b818501915085601f83011261150657600080fd5b815181811115611518576115186113e3565b8060051b611527858201611422565b918252838101850191858101908984111561154157600080fd5b86860192505b838310156115da5782518581111561155f5760008081fd5b86016060818c03601f19018113156115775760008081fd5b61157f6113f9565b89830151888111156115915760008081fd5b61159f8e8c83870101611453565b825250604080840151600481106115b65760008081fd5b828c01526115c58484016114b7565b90820152845250509186019190860190611547565b9998505050505050505050565b634e487b7160e01b600052603260045260246000fd5b6000825161160f81846020870161121a565b9190910192915050565b81835281816020850137506000828201602090810191909152601f909101601f19169091010190565b83815260406020820152600061165c604083018486611619565b95945050505050565b60006020828403121561167757600080fd5b5051919050565b60006020828403121561169057600080fd5b815167ffffffffffffffff8111156116a757600080fd5b610e9384828501611453565b6000602082840312156116c557600080fd5b61115b826114b7565b8481528360208201526060604082015260006116ee606083018486611619565b9695505050505050565b600060001982141561171a57634e487b7160e01b600052601160045260246000fd5b506001019056fea26469706673582212202c7c3584ca29a678d00a350ec81c9ecb4a4659e3113d699752cc5703e722425d64736f6c63430008090033",
  "immutableReferences": {},
  "source": "// SPDX-License-Identifier: MIT\npragma solidity ^0.8;\n\nimport \"@openzeppelin/contracts/access/Ownable.sol\";\nimport \"./IStatsDerive.sol\";\nimport \"./TagStorage.sol\";\nimport {Util} from \"./Util.sol\";\n\ncontract StatsView is Ownable{\n\n    address public\tTAG_addr;\n    address public\tNFT_addr;\n    mapping(bytes32 => address) public\tstats_lib_addr;\n\n    constructor(address tag_storage, address nft_container){\n\tTAG_addr = tag_storage;\n\tNFT_addr = nft_container;\n    }\n\n    /**\n     * @notice Sets link to Tag Storage smart contract\n    **/\n    function linkTAG(address tag_storage) public virtual onlyOwner {\n        TAG_addr = tag_storage;\n        emit TAGLink(tag_storage);\n    }\n\n    /**\n     * @notice Sets link to ERC1155 NFT smart contract\n    **/\n    function linkNFT(address nft_container) public virtual onlyOwner {\n        NFT_addr = nft_container;\n        emit NFTLink(nft_container);\n    }\n\n    /**\n     * @notice Sets link to the Stats deriving library\n    **/\n    function linkStatsLib(address stats_lib, bytes32 nft_type) public virtual onlyOwner {\n        stats_lib_addr[nft_type] = stats_lib;\n        emit StatsLibLink(stats_lib, nft_type);\n    }\n\n    /**\n     * @notice Defines a set of stats that can be derived\n     *\n     * @return An enumerable set (actually, an array) of stats that can be derived by the interface implementation\n    **/\n    function stats(bytes32 nft_type) external view returns (Util.Stat[] memory) {\n\treturn IStatsDerive(stats_lib_addr[nft_type]).stats(nft_type);\n\trevert('Unknown NFT type');\n    }\n\n     /**\n     * @notice Read an integer stat\n     *\n     * @param id An id generated by an RNG\n     * @param name The stats' name\n     * @return The stats' value\n    **/\n    function getStat(bytes32 nft_type, uint256 id, string calldata name) external view returns (Util.StatValue memory){\n\tbytes32 h_name = keccak256(abi.encodePacked(name));\n\n\tUtil.Stat[] memory _stats = this.stats(nft_type);\n\tfor(uint i=0; i<_stats.length; i++){\n\t    bytes32 h_stats_name = keccak256(abi.encodePacked(_stats[i].name));\n\t    if(h_name != h_stats_name)continue;\n\t    if(_stats[i].is_mutable){\n\t\tbytes32 key = Util.getTagKey(id,name);\n\t\tif(_stats[i].statType == Util.StatType.Integer)\n\t\t    return (Util.StatValue(_stats[i].statType, TagStorage(TAG_addr).getIntValue(key), \"\", \"\", false));\n\t\telse if(_stats[i].statType == Util.StatType.String)\n\t\t    return (Util.StatValue(_stats[i].statType, 0, TagStorage(TAG_addr).getStringValue(key), \"\", false));\n\t\telse if(_stats[i].statType == Util.StatType.ByteArray)\n\t\t    return (Util.StatValue(_stats[i].statType, 0, \"\", TagStorage(TAG_addr).getByte32Value(key), false));\n\t\telse if(_stats[i].statType == Util.StatType.Boolean)\n\t\t    return (Util.StatValue(_stats[i].statType, 0, \"\", \"\", TagStorage(TAG_addr).getBooleanValue(key)));\n\t\trevert(\"Unknown mutable stat type\");\n\t    }else{\n\t\tif(_stats[i].statType == Util.StatType.Integer)\n\t\t    return (Util.StatValue(_stats[i].statType, IStatsDerive(stats_lib_addr[nft_type]).getStatInt(nft_type, id, name), \"\", \"\", false));\n\t\telse if(_stats[i].statType == Util.StatType.String)\n\t\t    return (Util.StatValue(_stats[i].statType, 0, IStatsDerive(stats_lib_addr[nft_type]).getStatString(nft_type, id, name), \"\", false));\n\t\telse if(_stats[i].statType == Util.StatType.ByteArray)\n\t\t    return (Util.StatValue(_stats[i].statType, 0, \"\", IStatsDerive(stats_lib_addr[nft_type]).getStatByte32(nft_type, id, name), false));\n\t\telse if(_stats[i].statType == Util.StatType.Boolean)\n\t\t    return (Util.StatValue(_stats[i].statType, 0, \"\", \"\", IStatsDerive(stats_lib_addr[nft_type]).getStatBool(nft_type, id, name)));\n\t\trevert(\"Unknown mutable stat type\");\n\t    }\n\t}\n\trevert(\"StatsView: Requested tag not found\");\n    }\n\n    event\tTAGLink(address tag_addr);\n    event\tNFTLink(address nft_addr);\n    event\tStatsLibLink(address stats_lib_addr, bytes32 nft_type);\n\n}\n",
  "sourcePath": "/home/vrogojin/Projects/FireZard/nft/contracts/StatsView.sol",
  "compiler": {
    "name": "solc",
    "version": "0.8.9+commit.e5eed63a.Emscripten.clang"
  },
  "schemaVersion": "3.4.3",
  "updatedAt": "2022-02-01T15:42:30.235Z",
  "devdoc": {
    "kind": "dev",
    "methods": {
      "getStat(bytes32,uint256,string)": {
        "params": {
          "id": "An id generated by an RNG",
          "name": "The stats' name"
        },
        "returns": {
          "_0": "The stats' value*"
        }
      },
      "owner()": {
        "details": "Returns the address of the current owner."
      },
      "renounceOwnership()": {
        "details": "Leaves the contract without owner. It will not be possible to call `onlyOwner` functions anymore. Can only be called by the current owner. NOTE: Renouncing ownership will leave the contract without an owner, thereby removing any functionality that is only available to the owner."
      },
      "stats(bytes32)": {
        "returns": {
          "_0": "An enumerable set (actually, an array) of stats that can be derived by the interface implementation*"
        }
      },
      "transferOwnership(address)": {
        "details": "Transfers ownership of the contract to a new account (`newOwner`). Can only be called by the current owner."
      }
    },
    "version": 1
  },
  "userdoc": {
    "kind": "user",
    "methods": {
      "getStat(bytes32,uint256,string)": {
        "notice": "Read an integer stat"
      },
      "linkNFT(address)": {
        "notice": "Sets link to ERC1155 NFT smart contract*"
      },
      "linkStatsLib(address,bytes32)": {
        "notice": "Sets link to the Stats deriving library*"
      },
      "linkTAG(address)": {
        "notice": "Sets link to Tag Storage smart contract*"
      },
      "stats(bytes32)": {
        "notice": "Defines a set of stats that can be derived"
      }
    },
    "version": 1
  }
}