{
  "contractName": "StatsView",
  "abi": [
    {
      "inputs": [
        {
          "internalType": "address",
          "name": "tag_storage",
          "type": "address"
        },
        {
          "internalType": "address",
          "name": "nft_container",
          "type": "address"
        }
      ],
      "stateMutability": "nonpayable",
      "type": "constructor"
    },
    {
      "anonymous": false,
      "inputs": [
        {
          "indexed": false,
          "internalType": "address",
          "name": "nft_addr",
          "type": "address"
        }
      ],
      "name": "NFTLink",
      "type": "event"
    },
    {
      "anonymous": false,
      "inputs": [
        {
          "indexed": true,
          "internalType": "address",
          "name": "previousOwner",
          "type": "address"
        },
        {
          "indexed": true,
          "internalType": "address",
          "name": "newOwner",
          "type": "address"
        }
      ],
      "name": "OwnershipTransferred",
      "type": "event"
    },
    {
      "anonymous": false,
      "inputs": [
        {
          "indexed": false,
          "internalType": "address",
          "name": "stats_lib_addr",
          "type": "address"
        },
        {
          "indexed": false,
          "internalType": "bytes32",
          "name": "nft_type",
          "type": "bytes32"
        }
      ],
      "name": "StatsLibLink",
      "type": "event"
    },
    {
      "anonymous": false,
      "inputs": [
        {
          "indexed": false,
          "internalType": "address",
          "name": "tag_addr",
          "type": "address"
        }
      ],
      "name": "TAGLink",
      "type": "event"
    },
    {
      "inputs": [],
      "name": "NFT_addr",
      "outputs": [
        {
          "internalType": "address",
          "name": "",
          "type": "address"
        }
      ],
      "stateMutability": "view",
      "type": "function"
    },
    {
      "inputs": [],
      "name": "TAG_addr",
      "outputs": [
        {
          "internalType": "address",
          "name": "",
          "type": "address"
        }
      ],
      "stateMutability": "view",
      "type": "function"
    },
    {
      "inputs": [],
      "name": "owner",
      "outputs": [
        {
          "internalType": "address",
          "name": "",
          "type": "address"
        }
      ],
      "stateMutability": "view",
      "type": "function"
    },
    {
      "inputs": [],
      "name": "renounceOwnership",
      "outputs": [],
      "stateMutability": "nonpayable",
      "type": "function"
    },
    {
      "inputs": [
        {
          "internalType": "bytes32",
          "name": "",
          "type": "bytes32"
        }
      ],
      "name": "stats_lib_addr",
      "outputs": [
        {
          "internalType": "address",
          "name": "",
          "type": "address"
        }
      ],
      "stateMutability": "view",
      "type": "function"
    },
    {
      "inputs": [
        {
          "internalType": "address",
          "name": "newOwner",
          "type": "address"
        }
      ],
      "name": "transferOwnership",
      "outputs": [],
      "stateMutability": "nonpayable",
      "type": "function"
    },
    {
      "inputs": [
        {
          "internalType": "address",
          "name": "tag_storage",
          "type": "address"
        }
      ],
      "name": "linkTAG",
      "outputs": [],
      "stateMutability": "nonpayable",
      "type": "function"
    },
    {
      "inputs": [
        {
          "internalType": "address",
          "name": "nft_container",
          "type": "address"
        }
      ],
      "name": "linkNFT",
      "outputs": [],
      "stateMutability": "nonpayable",
      "type": "function"
    },
    {
      "inputs": [
        {
          "internalType": "address",
          "name": "stats_lib",
          "type": "address"
        },
        {
          "internalType": "bytes32",
          "name": "nft_type",
          "type": "bytes32"
        }
      ],
      "name": "linkStatsLib",
      "outputs": [],
      "stateMutability": "nonpayable",
      "type": "function"
    },
    {
      "inputs": [
        {
          "internalType": "bytes32",
          "name": "nft_type",
          "type": "bytes32"
        }
      ],
      "name": "stats",
      "outputs": [
        {
          "components": [
            {
              "internalType": "string",
              "name": "name",
              "type": "string"
            },
            {
              "internalType": "enum Util.StatType",
              "name": "statType",
              "type": "uint8"
            },
            {
              "internalType": "bool",
              "name": "is_mutable",
              "type": "bool"
            }
          ],
          "internalType": "struct Util.Stat[]",
          "name": "",
          "type": "tuple[]"
        }
      ],
      "stateMutability": "view",
      "type": "function"
    },
    {
      "inputs": [
        {
          "internalType": "bytes32",
          "name": "nft_type",
          "type": "bytes32"
        },
        {
          "internalType": "uint256",
          "name": "id",
          "type": "uint256"
        },
        {
          "internalType": "string",
          "name": "name",
          "type": "string"
        }
      ],
      "name": "getStat",
      "outputs": [
        {
          "components": [
            {
              "internalType": "enum Util.StatType",
              "name": "statType",
              "type": "uint8"
            },
            {
              "internalType": "uint256",
              "name": "int_val",
              "type": "uint256"
            },
            {
              "internalType": "string",
              "name": "str_val",
              "type": "string"
            },
            {
              "internalType": "bytes32",
              "name": "bta_val",
              "type": "bytes32"
            },
            {
              "internalType": "bool",
              "name": "bool_val",
              "type": "bool"
            }
          ],
          "internalType": "struct Util.StatValue",
          "name": "",
          "type": "tuple"
        }
      ],
      "stateMutability": "view",
      "type": "function"
    }
  ],
  "bytecode": "0x60806040523480156200001157600080fd5b50604051620017cd380380620017cd8339810160408190526200003491620000de565b6200003f3362000071565b600180546001600160a01b039384166001600160a01b0319918216179091556002805492909316911617905562000116565b600080546001600160a01b038381166001600160a01b0319831681178455604051919092169283917f8be0079c531659141344cd1fd0a4f28419497f9722a3daafe3b4186f6b6457e09190a35050565b80516001600160a01b0381168114620000d957600080fd5b919050565b60008060408385031215620000f257600080fd5b620000fd83620000c1565b91506200010d60208401620000c1565b90509250929050565b6116a780620001266000396000f3fe608060405234801561001057600080fd5b50600436106100a95760003560e01c8063a83993b711610071578063a83993b71461012c578063aadd04881461013f578063ad2dc84314610152578063ae97568c14610165578063b1d89c0f14610185578063f2fde38b146101ae57600080fd5b806350b978a8146100ae5780636025e1f1146100de578063715018a6146100f357806384623573146100fb5780638da5cb5b1461011b575b600080fd5b6002546100c1906001600160a01b031681565b6040516001600160a01b0390911681526020015b60405180910390f35b6100f16100ec366004611090565b6101c1565b005b6100f1610249565b61010e6101093660046110b2565b61027f565b6040516100d591906111c6565b6000546001600160a01b03166100c1565b6001546100c1906001600160a01b031681565b6100f161014d366004611090565b610dfa565b6100f161016036600461121f565b610e72565b610178610173366004611249565b610f04565b6040516100d59190611262565b6100c1610193366004611249565b6003602052600090815260409020546001600160a01b031681565b6100f16101bc366004611090565b610f89565b6000546001600160a01b031633146101f45760405162461bcd60e51b81526004016101eb906112ee565b60405180910390fd5b600180546001600160a01b0319166001600160a01b0383169081179091556040519081527fd6bd8455a554480b643ff6104fea79e1a7c1b27d210a7e7911a3b6a3c64b7079906020015b60405180910390a150565b6000546001600160a01b031633146102735760405162461bcd60e51b81526004016101eb906112ee565b61027d6000611024565b565b6102b26040805160a081019091528060008152600060208201819052606060408301819052820181905260809091015290565b600083836040516020016102c7929190611323565b60408051808303601f19018152908290528051602090910120632ba5d5a360e21b8252600482018890529150600090309063ae97568c90602401600060405180830381865afa15801561031e573d6000803e3d6000fd5b505050506040513d6000823e601f3d908101601f191682016040526103469190810190611417565b905060005b8151811015610da957600082828151811061036857610368611537565b602002602001015160000151604051602001610384919061154d565b6040516020818303038152906040528051906020012090508084146103a95750610d97565b8282815181106103bb576103bb611537565b602002602001015160400151156108f05760405163dfbd4a0560e01b815260009073__Util__________________________________9063dfbd4a059061040a908c908c908c90600401611592565b602060405180830381865af4158015610427573d6000803e3d6000fd5b505050506040513d601f19601f8201168201806040525081019061044b91906115b5565b9050600084848151811061046157610461611537565b602002602001015160200151600381111561047e5761047e611132565b141561056a576040518060a001604052808585815181106104a1576104a1611537565b60200260200101516020015160038111156104be576104be611132565b8152600154604051639007127b60e01b8152600481018590526020909201916001600160a01b0390911690639007127b90602401602060405180830381865afa15801561050f573d6000803e3d6000fd5b505050506040513d601f19601f8201168201806040525081019061053391906115b5565b8152602001604051806020016040528060008152508152602001600080191681526020016000151581525095505050505050610df2565b600184848151811061057e5761057e611537565b602002602001015160200151600381111561059b5761059b611132565b1415610677576040518060a001604052808585815181106105be576105be611537565b60200260200101516020015160038111156105db576105db611132565b8152600060208201526001546040805163288268a760e21b8152600481018690529201916001600160a01b039091169063a209a29c90602401600060405180830381865afa158015610631573d6000803e3d6000fd5b505050506040513d6000823e601f3d908101601f1916820160405261065991908101906115ce565b81526000602082018190526040909101529550610df2945050505050565b600284848151811061068b5761068b611537565b60200260200101516020015160038111156106a8576106a8611132565b141561078d576040518060a001604052808585815181106106cb576106cb611537565b60200260200101516020015160038111156106e8576106e8611132565b815260006020808301829052604080519182018152918152818301526001549051630690c87560e31b8152600481018590526060909201916001600160a01b039091169063348643a890602401602060405180830381865afa158015610752573d6000803e3d6000fd5b505050506040513d601f19601f8201168201806040525081019061077691906115b5565b815260006020909101529550610df2945050505050565b60038484815181106107a1576107a1611537565b60200260200101516020015160038111156107be576107be611132565b14156108a8576040518060a001604052808585815181106107e1576107e1611537565b60200260200101516020015160038111156107fe576107fe611132565b8152600060208083018290526040805191820181528282528084019190915260608301919091526001549051630bf3ee9160e11b8152600481018590526080909201916001600160a01b03909116906317e7dd2290602401602060405180830381865afa158015610873573d6000803e3d6000fd5b505050506040513d601f19601f820116820180604052508101906108979190611603565b151581525095505050505050610df2565b60405162461bcd60e51b815260206004820152601960248201527f556e6b6e6f776e206d757461626c65207374617420747970650000000000000060448201526064016101eb565b600083838151811061090457610904611537565b602002602001015160200151600381111561092157610921611132565b1415610a22576040518060a0016040528084848151811061094457610944611537565b602002602001015160200151600381111561096157610961611132565b815260008b81526003602090815260409182902054915163180226a160e11b81529201916001600160a01b03909116906330044d42906109ab908e908e908e908e9060040161161e565b602060405180830381865afa1580156109c8573d6000803e3d6000fd5b505050506040513d601f19601f820116820180604052508101906109ec91906115b5565b81526020016040518060200160405280600081525081526020016000801916815260200160001515815250945050505050610df2565b6001838381518110610a3657610a36611537565b6020026020010151602001516003811115610a5357610a53611132565b1415610b44576040518060a00160405280848481518110610a7657610a76611537565b6020026020010151602001516003811115610a9357610a93611132565b8152600060208083018290528c825260039052604090819020548151635f560e8360e01b815291909201916001600160a01b031690635f560e8390610ae2908e908e908e908e9060040161161e565b600060405180830381865afa158015610aff573d6000803e3d6000fd5b505050506040513d6000823e601f3d908101601f19168201604052610b2791908101906115ce565b81526000602082018190526040909101529450610df29350505050565b6002838381518110610b5857610b58611537565b6020026020010151602001516003811115610b7557610b75611132565b1415610c6d576040518060a00160405280848481518110610b9857610b98611537565b6020026020010151602001516003811115610bb557610bb5611132565b815260006020808301829052604080518083018252838152818501528d83526003909152908190205490516341489ec160e11b81526060909201916001600160a01b03909116906382913d8290610c16908e908e908e908e9060040161161e565b602060405180830381865afa158015610c33573d6000803e3d6000fd5b505050506040513d601f19601f82011682018060405250810190610c5791906115b5565b815260006020909101529450610df29350505050565b6003838381518110610c8157610c81611537565b6020026020010151602001516003811115610c9e57610c9e611132565b14156108a8576040518060a00160405280848481518110610cc157610cc1611537565b6020026020010151602001516003811115610cde57610cde611132565b81526000602080830182905260408051808301825283815281850152606084018390528d8352600390915290819020549051630450a52d60e41b81526080909201916001600160a01b039091169063450a52d090610d46908e908e908e908e9060040161161e565b602060405180830381865afa158015610d63573d6000803e3d6000fd5b505050506040513d601f19601f82011682018060405250810190610d879190611603565b1515815250945050505050610df2565b80610da181611648565b91505061034b565b5060405162461bcd60e51b815260206004820152601f60248201527f52657175657374656420696e746567657220746167206e6f7420666f756e640060448201526064016101eb565b949350505050565b6000546001600160a01b03163314610e245760405162461bcd60e51b81526004016101eb906112ee565b600280546001600160a01b0319166001600160a01b0383169081179091556040519081527f7869e3c19f5ec29481a8433791a06441db7b22cd85336da47df97fd7b686ba2a9060200161023e565b6000546001600160a01b03163314610e9c5760405162461bcd60e51b81526004016101eb906112ee565b60008181526003602090815260409182902080546001600160a01b0319166001600160a01b03861690811790915582519081529081018390527f84802f68700c5b5387a2cc14f6eefd506bb66c7cadc7df8ecce702fe7b7b3433910160405180910390a15050565b60008181526003602052604090819020549051632ba5d5a360e21b8152600481018390526060916001600160a01b03169063ae97568c90602401600060405180830381865afa158015610f5b573d6000803e3d6000fd5b505050506040513d6000823e601f3d908101601f19168201604052610f839190810190611417565b92915050565b6000546001600160a01b03163314610fb35760405162461bcd60e51b81526004016101eb906112ee565b6001600160a01b0381166110185760405162461bcd60e51b815260206004820152602660248201527f4f776e61626c653a206e6577206f776e657220697320746865207a65726f206160448201526564647265737360d01b60648201526084016101eb565b61102181611024565b50565b600080546001600160a01b038381166001600160a01b0319831681178455604051919092169283917f8be0079c531659141344cd1fd0a4f28419497f9722a3daafe3b4186f6b6457e09190a35050565b80356001600160a01b038116811461108b57600080fd5b919050565b6000602082840312156110a257600080fd5b6110ab82611074565b9392505050565b600080600080606085870312156110c857600080fd5b8435935060208501359250604085013567ffffffffffffffff808211156110ee57600080fd5b818701915087601f83011261110257600080fd5b81358181111561111157600080fd5b88602082850101111561112357600080fd5b95989497505060200194505050565b634e487b7160e01b600052602160045260246000fd5b6004811061116657634e487b7160e01b600052602160045260246000fd5b9052565b60005b8381101561118557818101518382015260200161116d565b83811115611194576000848401525b50505050565b600081518084526111b281602086016020860161116a565b601f01601f19169290920160200192915050565b602081526111d8602082018351611148565b602082015160408201526000604083015160a060608401526111fd60c084018261119a565b9050606084015160808401526080840151151560a08401528091505092915050565b6000806040838503121561123257600080fd5b61123b83611074565b946020939093013593505050565b60006020828403121561125b57600080fd5b5035919050565b60006020808301818452808551808352604092508286019150828160051b87010184880160005b838110156112e057603f198984030185528151606081518186526112af8287018261119a565b915050888201516112c28a870182611148565b50908701511515938701939093529386019390860190600101611289565b509098975050505050505050565b6020808252818101527f4f776e61626c653a2063616c6c6572206973206e6f7420746865206f776e6572604082015260600190565b8183823760009101908152919050565b634e487b7160e01b600052604160045260246000fd5b6040516060810167ffffffffffffffff8111828210171561136c5761136c611333565b60405290565b604051601f8201601f1916810167ffffffffffffffff8111828210171561139b5761139b611333565b604052919050565b600082601f8301126113b457600080fd5b815167ffffffffffffffff8111156113ce576113ce611333565b6113e1601f8201601f1916602001611372565b8181528460208386010111156113f657600080fd5b610df282602083016020870161116a565b8051801515811461108b57600080fd5b6000602080838503121561142a57600080fd5b825167ffffffffffffffff8082111561144257600080fd5b818501915085601f83011261145657600080fd5b81518181111561146857611468611333565b8060051b611477858201611372565b918252838101850191858101908984111561149157600080fd5b86860192505b8383101561152a578251858111156114af5760008081fd5b86016060818c03601f19018113156114c75760008081fd5b6114cf611349565b89830151888111156114e15760008081fd5b6114ef8e8c838701016113a3565b825250604080840151600481106115065760008081fd5b828c0152611515848401611407565b90820152845250509186019190860190611497565b9998505050505050505050565b634e487b7160e01b600052603260045260246000fd5b6000825161155f81846020870161116a565b9190910192915050565b81835281816020850137506000828201602090810191909152601f909101601f19169091010190565b8381526040602082015260006115ac604083018486611569565b95945050505050565b6000602082840312156115c757600080fd5b5051919050565b6000602082840312156115e057600080fd5b815167ffffffffffffffff8111156115f757600080fd5b610df2848285016113a3565b60006020828403121561161557600080fd5b6110ab82611407565b84815283602082015260606040820152600061163e606083018486611569565b9695505050505050565b600060001982141561166a57634e487b7160e01b600052601160045260246000fd5b506001019056fea26469706673582212202bda667994462f222cfeeb0d2c9b7aabea18c73e3a09594cd08fd40ba1cf174264736f6c634300080b0033",
  "immutableReferences": {},
  "source": "\npragma solidity ^0.8;\n\nimport \"@openzeppelin/contracts/access/Ownable.sol\";\nimport \"./IStatsDerive.sol\";\nimport \"./TagStorage.sol\";\nimport {Util} from \"./Util.sol\";\n\ncontract StatsView is Ownable{\n\n    address public\tTAG_addr;\n    address public\tNFT_addr;\n    mapping(bytes32 => address) public\tstats_lib_addr;\n\n    constructor(address tag_storage, address nft_container){\n\tTAG_addr = tag_storage;\n\tNFT_addr = nft_container;\n    }\n\n    /**\n     * @notice Sets link to Tag Storage smart contract\n    **/\n    function linkTAG(address tag_storage) public virtual onlyOwner {\n        TAG_addr = tag_storage;\n        emit TAGLink(tag_storage);\n    }\n\n    /**\n     * @notice Sets link to ERC1155 NFT smart contract\n    **/\n    function linkNFT(address nft_container) public virtual onlyOwner {\n        NFT_addr = nft_container;\n        emit NFTLink(nft_container);\n    }\n\n    /**\n     * @notice Sets link to the Stats deriving library\n    **/\n    function linkStatsLib(address stats_lib, bytes32 nft_type) public virtual onlyOwner {\n        stats_lib_addr[nft_type] = stats_lib;\n        emit StatsLibLink(stats_lib, nft_type);\n    }\n\n    /**\n     * @notice Defines a set of stats that can be derived\n     *\n     * @return An enumerable set (actually, an array) of stats that can be derived by the interface implementation\n    **/\n    function stats(bytes32 nft_type) external view returns (Util.Stat[] memory) {\n\treturn IStatsDerive(stats_lib_addr[nft_type]).stats(nft_type);\n\trevert('Unknown NFT type');\n    }\n\n     /**\n     * @notice Read an integer stat\n     *\n     * @param id An id generated by an RNG\n     * @param name The stats' name\n     * @return The stats' value\n    **/\n    function getStat(bytes32 nft_type, uint256 id, string calldata name) external view returns (Util.StatValue memory){\n\tbytes32 h_name = keccak256(abi.encodePacked(name));\n\n\tUtil.Stat[] memory _stats = this.stats(nft_type);\n\tfor(uint i=0; i<_stats.length; i++){\n\t    bytes32 h_stats_name = keccak256(abi.encodePacked(_stats[i].name));\n\t    if(h_name != h_stats_name)continue;\n\t    if(_stats[i].is_mutable){\n\t\tbytes32 key = Util.getTagKey(id,name);\n\t\tif(_stats[i].statType == Util.StatType.Integer)\n\t\t    return (Util.StatValue(_stats[i].statType, TagStorage(TAG_addr).getIntValue(key), \"\", \"\", false));\n\t\telse if(_stats[i].statType == Util.StatType.String)\n\t\t    return (Util.StatValue(_stats[i].statType, 0, TagStorage(TAG_addr).getStringValue(key), \"\", false));\n\t\telse if(_stats[i].statType == Util.StatType.ByteArray)\n\t\t    return (Util.StatValue(_stats[i].statType, 0, \"\", TagStorage(TAG_addr).getByte32Value(key), false));\n\t\telse if(_stats[i].statType == Util.StatType.Boolean)\n\t\t    return (Util.StatValue(_stats[i].statType, 0, \"\", \"\", TagStorage(TAG_addr).getBooleanValue(key)));\n\t\trevert(\"Unknown mutable stat type\");\n\t    }else{\n\t\tif(_stats[i].statType == Util.StatType.Integer)\n\t\t    return (Util.StatValue(_stats[i].statType, IStatsDerive(stats_lib_addr[nft_type]).getStatInt(nft_type, id, name), \"\", \"\", false));\n\t\telse if(_stats[i].statType == Util.StatType.String)\n\t\t    return (Util.StatValue(_stats[i].statType, 0, IStatsDerive(stats_lib_addr[nft_type]).getStatString(nft_type, id, name), \"\", false));\n\t\telse if(_stats[i].statType == Util.StatType.ByteArray)\n\t\t    return (Util.StatValue(_stats[i].statType, 0, \"\", IStatsDerive(stats_lib_addr[nft_type]).getStatByte32(nft_type, id, name), false));\n\t\telse if(_stats[i].statType == Util.StatType.Boolean)\n\t\t    return (Util.StatValue(_stats[i].statType, 0, \"\", \"\", IStatsDerive(stats_lib_addr[nft_type]).getStatBool(nft_type, id, name)));\n\t\trevert(\"Unknown mutable stat type\");\n\t    }\n\t}\n\trevert(\"Requested integer tag not found\");\n    }\n\n    event\tTAGLink(address tag_addr);\n    event\tNFTLink(address nft_addr);\n    event\tStatsLibLink(address stats_lib_addr, bytes32 nft_type);\n\n}\n",
  "sourcePath": "/home/vrogojin/Projects/FireZard/nft/contracts/StatsView.sol",
  "compiler": {
    "name": "solc",
    "version": "0.8.11+commit.d7f03943.Emscripten.clang"
  },
  "schemaVersion": "3.4.3",
  "updatedAt": "2022-01-19T22:04:01.609Z",
  "devdoc": {
    "kind": "dev",
    "methods": {
      "getStat(bytes32,uint256,string)": {
        "params": {
          "id": "An id generated by an RNG",
          "name": "The stats' name"
        },
        "returns": {
          "_0": "The stats' value*"
        }
      },
      "owner()": {
        "details": "Returns the address of the current owner."
      },
      "renounceOwnership()": {
        "details": "Leaves the contract without owner. It will not be possible to call `onlyOwner` functions anymore. Can only be called by the current owner. NOTE: Renouncing ownership will leave the contract without an owner, thereby removing any functionality that is only available to the owner."
      },
      "stats(bytes32)": {
        "returns": {
          "_0": "An enumerable set (actually, an array) of stats that can be derived by the interface implementation*"
        }
      },
      "transferOwnership(address)": {
        "details": "Transfers ownership of the contract to a new account (`newOwner`). Can only be called by the current owner."
      }
    },
    "version": 1
  },
  "userdoc": {
    "kind": "user",
    "methods": {
      "getStat(bytes32,uint256,string)": {
        "notice": "Read an integer stat"
      },
      "linkNFT(address)": {
        "notice": "Sets link to ERC1155 NFT smart contract*"
      },
      "linkStatsLib(address,bytes32)": {
        "notice": "Sets link to the Stats deriving library*"
      },
      "linkTAG(address)": {
        "notice": "Sets link to Tag Storage smart contract*"
      },
      "stats(bytes32)": {
        "notice": "Defines a set of stats that can be derived"
      }
    },
    "version": 1
  }
}