{
  "contractName": "TagStorage",
  "abi": [
    {
      "inputs": [],
      "stateMutability": "nonpayable",
      "type": "constructor"
    },
    {
      "anonymous": false,
      "inputs": [
        {
          "indexed": true,
          "internalType": "address",
          "name": "previousOwner",
          "type": "address"
        },
        {
          "indexed": true,
          "internalType": "address",
          "name": "newOwner",
          "type": "address"
        }
      ],
      "name": "OwnershipTransferred",
      "type": "event"
    },
    {
      "anonymous": false,
      "inputs": [
        {
          "indexed": true,
          "internalType": "bytes32",
          "name": "role",
          "type": "bytes32"
        },
        {
          "indexed": true,
          "internalType": "bytes32",
          "name": "previousAdminRole",
          "type": "bytes32"
        },
        {
          "indexed": true,
          "internalType": "bytes32",
          "name": "newAdminRole",
          "type": "bytes32"
        }
      ],
      "name": "RoleAdminChanged",
      "type": "event"
    },
    {
      "anonymous": false,
      "inputs": [
        {
          "indexed": true,
          "internalType": "bytes32",
          "name": "role",
          "type": "bytes32"
        },
        {
          "indexed": true,
          "internalType": "address",
          "name": "account",
          "type": "address"
        },
        {
          "indexed": true,
          "internalType": "address",
          "name": "sender",
          "type": "address"
        }
      ],
      "name": "RoleGranted",
      "type": "event"
    },
    {
      "anonymous": false,
      "inputs": [
        {
          "indexed": true,
          "internalType": "bytes32",
          "name": "role",
          "type": "bytes32"
        },
        {
          "indexed": true,
          "internalType": "address",
          "name": "account",
          "type": "address"
        },
        {
          "indexed": true,
          "internalType": "address",
          "name": "sender",
          "type": "address"
        }
      ],
      "name": "RoleRevoked",
      "type": "event"
    },
    {
      "inputs": [],
      "name": "ADDER_ROLE",
      "outputs": [
        {
          "internalType": "bytes32",
          "name": "",
          "type": "bytes32"
        }
      ],
      "stateMutability": "view",
      "type": "function",
      "constant": true
    },
    {
      "inputs": [],
      "name": "DEFAULT_ADMIN_ROLE",
      "outputs": [
        {
          "internalType": "bytes32",
          "name": "",
          "type": "bytes32"
        }
      ],
      "stateMutability": "view",
      "type": "function",
      "constant": true
    },
    {
      "inputs": [
        {
          "internalType": "bytes32",
          "name": "role",
          "type": "bytes32"
        }
      ],
      "name": "getRoleAdmin",
      "outputs": [
        {
          "internalType": "bytes32",
          "name": "",
          "type": "bytes32"
        }
      ],
      "stateMutability": "view",
      "type": "function",
      "constant": true
    },
    {
      "inputs": [
        {
          "internalType": "bytes32",
          "name": "role",
          "type": "bytes32"
        },
        {
          "internalType": "uint256",
          "name": "index",
          "type": "uint256"
        }
      ],
      "name": "getRoleMember",
      "outputs": [
        {
          "internalType": "address",
          "name": "",
          "type": "address"
        }
      ],
      "stateMutability": "view",
      "type": "function",
      "constant": true
    },
    {
      "inputs": [
        {
          "internalType": "bytes32",
          "name": "role",
          "type": "bytes32"
        }
      ],
      "name": "getRoleMemberCount",
      "outputs": [
        {
          "internalType": "uint256",
          "name": "",
          "type": "uint256"
        }
      ],
      "stateMutability": "view",
      "type": "function",
      "constant": true
    },
    {
      "inputs": [
        {
          "internalType": "bytes32",
          "name": "role",
          "type": "bytes32"
        },
        {
          "internalType": "address",
          "name": "account",
          "type": "address"
        }
      ],
      "name": "grantRole",
      "outputs": [],
      "stateMutability": "nonpayable",
      "type": "function"
    },
    {
      "inputs": [
        {
          "internalType": "bytes32",
          "name": "role",
          "type": "bytes32"
        },
        {
          "internalType": "address",
          "name": "account",
          "type": "address"
        }
      ],
      "name": "hasRole",
      "outputs": [
        {
          "internalType": "bool",
          "name": "",
          "type": "bool"
        }
      ],
      "stateMutability": "view",
      "type": "function",
      "constant": true
    },
    {
      "inputs": [],
      "name": "owner",
      "outputs": [
        {
          "internalType": "address",
          "name": "",
          "type": "address"
        }
      ],
      "stateMutability": "view",
      "type": "function",
      "constant": true
    },
    {
      "inputs": [],
      "name": "renounceOwnership",
      "outputs": [],
      "stateMutability": "nonpayable",
      "type": "function"
    },
    {
      "inputs": [
        {
          "internalType": "bytes32",
          "name": "role",
          "type": "bytes32"
        },
        {
          "internalType": "address",
          "name": "account",
          "type": "address"
        }
      ],
      "name": "renounceRole",
      "outputs": [],
      "stateMutability": "nonpayable",
      "type": "function"
    },
    {
      "inputs": [
        {
          "internalType": "bytes32",
          "name": "role",
          "type": "bytes32"
        },
        {
          "internalType": "address",
          "name": "account",
          "type": "address"
        }
      ],
      "name": "revokeRole",
      "outputs": [],
      "stateMutability": "nonpayable",
      "type": "function"
    },
    {
      "inputs": [
        {
          "internalType": "bytes4",
          "name": "interfaceId",
          "type": "bytes4"
        }
      ],
      "name": "supportsInterface",
      "outputs": [
        {
          "internalType": "bool",
          "name": "",
          "type": "bool"
        }
      ],
      "stateMutability": "view",
      "type": "function",
      "constant": true
    },
    {
      "inputs": [
        {
          "internalType": "address",
          "name": "newOwner",
          "type": "address"
        }
      ],
      "name": "transferOwnership",
      "outputs": [],
      "stateMutability": "nonpayable",
      "type": "function"
    },
    {
      "inputs": [
        {
          "internalType": "address",
          "name": "entity",
          "type": "address"
        }
      ],
      "name": "grantAdminRole",
      "outputs": [],
      "stateMutability": "nonpayable",
      "type": "function"
    },
    {
      "inputs": [
        {
          "internalType": "address",
          "name": "entity",
          "type": "address"
        }
      ],
      "name": "revokeAdminRole",
      "outputs": [],
      "stateMutability": "nonpayable",
      "type": "function"
    },
    {
      "inputs": [
        {
          "internalType": "address",
          "name": "entity",
          "type": "address"
        }
      ],
      "name": "grantAdderRole",
      "outputs": [],
      "stateMutability": "nonpayable",
      "type": "function"
    },
    {
      "inputs": [
        {
          "internalType": "address",
          "name": "entity",
          "type": "address"
        }
      ],
      "name": "revokeAdderRole",
      "outputs": [],
      "stateMutability": "nonpayable",
      "type": "function"
    },
    {
      "inputs": [
        {
          "internalType": "address",
          "name": "entity",
          "type": "address"
        }
      ],
      "name": "isAdmin",
      "outputs": [
        {
          "internalType": "bool",
          "name": "",
          "type": "bool"
        }
      ],
      "stateMutability": "view",
      "type": "function",
      "constant": true
    },
    {
      "inputs": [
        {
          "internalType": "address",
          "name": "entity",
          "type": "address"
        }
      ],
      "name": "isAdder",
      "outputs": [
        {
          "internalType": "bool",
          "name": "",
          "type": "bool"
        }
      ],
      "stateMutability": "view",
      "type": "function",
      "constant": true
    },
    {
      "inputs": [
        {
          "internalType": "address",
          "name": "entity",
          "type": "address"
        },
        {
          "internalType": "uint8",
          "name": "groupID",
          "type": "uint8"
        }
      ],
      "name": "isGroupMember",
      "outputs": [
        {
          "internalType": "bool",
          "name": "",
          "type": "bool"
        }
      ],
      "stateMutability": "view",
      "type": "function",
      "constant": true
    },
    {
      "inputs": [
        {
          "internalType": "address",
          "name": "entity",
          "type": "address"
        },
        {
          "internalType": "uint8",
          "name": "groupID",
          "type": "uint8"
        }
      ],
      "name": "addEditor2Group",
      "outputs": [],
      "stateMutability": "nonpayable",
      "type": "function"
    },
    {
      "inputs": [
        {
          "internalType": "address",
          "name": "entity",
          "type": "address"
        },
        {
          "internalType": "uint8",
          "name": "groupID",
          "type": "uint8"
        }
      ],
      "name": "removeEditorFromGroup",
      "outputs": [],
      "stateMutability": "nonpayable",
      "type": "function"
    },
    {
      "inputs": [
        {
          "internalType": "uint8",
          "name": "groupID",
          "type": "uint8"
        },
        {
          "internalType": "bytes32",
          "name": "key",
          "type": "bytes32"
        },
        {
          "internalType": "string",
          "name": "value",
          "type": "string"
        }
      ],
      "name": "setTag",
      "outputs": [],
      "stateMutability": "nonpayable",
      "type": "function"
    },
    {
      "inputs": [
        {
          "internalType": "uint8",
          "name": "groupID",
          "type": "uint8"
        },
        {
          "internalType": "bytes32",
          "name": "key",
          "type": "bytes32"
        },
        {
          "internalType": "bytes32",
          "name": "value",
          "type": "bytes32"
        }
      ],
      "name": "setTag",
      "outputs": [],
      "stateMutability": "nonpayable",
      "type": "function"
    },
    {
      "inputs": [
        {
          "internalType": "uint8",
          "name": "groupID",
          "type": "uint8"
        },
        {
          "internalType": "bytes32",
          "name": "key",
          "type": "bytes32"
        },
        {
          "internalType": "uint256",
          "name": "value",
          "type": "uint256"
        }
      ],
      "name": "setTag",
      "outputs": [],
      "stateMutability": "nonpayable",
      "type": "function"
    },
    {
      "inputs": [
        {
          "internalType": "uint8",
          "name": "groupID",
          "type": "uint8"
        },
        {
          "internalType": "bytes32",
          "name": "key",
          "type": "bytes32"
        },
        {
          "internalType": "bool",
          "name": "value",
          "type": "bool"
        }
      ],
      "name": "setTag",
      "outputs": [],
      "stateMutability": "nonpayable",
      "type": "function"
    },
    {
      "inputs": [
        {
          "internalType": "bytes32",
          "name": "key",
          "type": "bytes32"
        }
      ],
      "name": "getTagType",
      "outputs": [
        {
          "internalType": "enum Util.StatType",
          "name": "",
          "type": "uint8"
        }
      ],
      "stateMutability": "view",
      "type": "function",
      "constant": true
    },
    {
      "inputs": [
        {
          "internalType": "bytes32",
          "name": "key",
          "type": "bytes32"
        }
      ],
      "name": "getByte32Value",
      "outputs": [
        {
          "internalType": "bytes32",
          "name": "",
          "type": "bytes32"
        }
      ],
      "stateMutability": "view",
      "type": "function",
      "constant": true
    },
    {
      "inputs": [
        {
          "internalType": "bytes32",
          "name": "key",
          "type": "bytes32"
        }
      ],
      "name": "getStringValue",
      "outputs": [
        {
          "internalType": "string",
          "name": "",
          "type": "string"
        }
      ],
      "stateMutability": "view",
      "type": "function",
      "constant": true
    },
    {
      "inputs": [
        {
          "internalType": "bytes32",
          "name": "key",
          "type": "bytes32"
        }
      ],
      "name": "getIntValue",
      "outputs": [
        {
          "internalType": "uint256",
          "name": "",
          "type": "uint256"
        }
      ],
      "stateMutability": "view",
      "type": "function",
      "constant": true
    },
    {
      "inputs": [
        {
          "internalType": "bytes32",
          "name": "key",
          "type": "bytes32"
        }
      ],
      "name": "getBooleanValue",
      "outputs": [
        {
          "internalType": "bool",
          "name": "",
          "type": "bool"
        }
      ],
      "stateMutability": "view",
      "type": "function",
      "constant": true
    },
    {
      "inputs": [
        {
          "internalType": "bytes32",
          "name": "key",
          "type": "bytes32"
        }
      ],
      "name": "getTagGroup",
      "outputs": [
        {
          "internalType": "uint8",
          "name": "",
          "type": "uint8"
        }
      ],
      "stateMutability": "view",
      "type": "function",
      "constant": true
    }
  ],
  "bytecode": "0x60806040523480156200001157600080fd5b506200001d336200003d565b620000376000801b336200008d60201b6200103f1760201c565b620001da565b600080546001600160a01b038381166001600160a01b0319831681178455604051919092169283917f8be0079c531659141344cd1fd0a4f28419497f9722a3daafe3b4186f6b6457e09190a35050565b6200009982826200009d565b5050565b620000b48282620000e060201b620010491760201c565b6000828152600260209081526040909120620000db918390620010b462000168821b17901c565b505050565b60008281526001602090815260408083206001600160a01b038516845290915290205460ff16620000995760008281526001602081815260408084206001600160a01b0386168086529252808420805460ff19169093179092559051339285917f2f8788117e7eff1d82e926ec794901d17c78024a50270940304540a733656f0d9190a45050565b60006200017f836001600160a01b03841662000188565b90505b92915050565b6000818152600183016020526040812054620001d15750815460018181018455600084815260208082209093018490558454848252828601909352604090209190915562000182565b50600062000182565b611bcb80620001ea6000396000f3fe608060405234801561001057600080fd5b50600436106101f05760003560e01c806389fdca201161010f578063b6981f4c116100a2578063d713085b11610071578063d713085b14610489578063e1f2fc1d1461049c578063f2fde38b146104af578063f8655143146104c257600080fd5b8063b6981f4c1461043d578063c634b78e14610450578063ca15c87314610463578063d547741f1461047657600080fd5b806391d14854116100de57806391d14854146103ef5780639a19c7b014610402578063a209a29c14610415578063a217fddf1461043557600080fd5b806389fdca20146103915780638da5cb5b146103a45780639007127b146103c95780639010d07c146103dc57600080fd5b806336568abe116101875780636609288f116101565780636609288f146103505780636cc09e7114610363578063715018a614610376578063829487561461037e57600080fd5b806336568abe146102c5578063434a93d3146102d85780635479e5711461030857806357e48ada1461031b57600080fd5b8063248a9ca3116101c3578063248a9ca31461026857806324d7806c1461028c5780632f2ff15d1461029f578063348643a8146102b257600080fd5b806301ffc9a7146101f55780630327fb541461021d5780630960d46c1461023257806317e7dd2214610255575b600080fd5b610208610203366004611629565b6104d5565b60405190151581526020015b60405180910390f35b61023061022b366004611669565b610500565b005b610247600080516020611b7683398151915281565b604051908152602001610214565b6102086102633660046116f0565b610615565b6102476102763660046116f0565b6000908152600160208190526040909120015490565b61020861029a366004611720565b6106b3565b6102306102ad36600461173b565b6106bf565b6102476102c03660046116f0565b6106eb565b6102306102d336600461173b565b610785565b6102fb6102e63660046116f0565b60009081526008602052604090205460ff1690565b604051610214919061177d565b6102306103163660046117a5565b610803565b61033e6103293660046116f0565b60009081526003602052604090205460ff1690565b60405160ff9091168152602001610214565b61023061035e3660046117cf565b610870565b6102306103713660046117cf565b610972565b610230610a6f565b61023061038c366004611720565b610aa5565b61020861039f3660046117a5565b610ae7565b6000546001600160a01b03165b6040516001600160a01b039091168152602001610214565b6102476103d73660046116f0565b610b2d565b6103b16103ea366004611802565b610bc4565b6102086103fd36600461173b565b610be3565b610230610410366004611720565b610c0e565b6104286104233660046116f0565b610c43565b6040516102149190611854565b610247600081565b61023061044b366004611720565b610d63565b61023061045e366004611720565b610da2565b6102476104713660046116f0565b610dd7565b61023061048436600461173b565b610dee565b610230610497366004611887565b610e15565b6102086104aa366004611720565b610f1d565b6102306104bd366004611720565b610f37565b6102306104d03660046117a5565b610fcf565b60006001600160e01b03198216635a05180f60e01b14806104fa57506104fa826110c9565b92915050565b610518600080516020611b7683398151915233610be3565b61053d5760405162461bcd60e51b8152600401610534906118cc565b60405180910390fd5b6000838152600360205260409020548490849060ff16156105c557600081815260036020908152604080832054905161057c92339260ff169101611920565b60408051601f1981840301815291815281516020928301206000818152600990935291205490915060ff166105c35760405162461bcd60e51b81526004016105349061193c565b505b6000818152600360209081526040808320805460ff1990811660ff88161790915588845260088352818420805490911660011790556005909152902061060c908585611590565b50505050505050565b600081600360008281526008602052604090205460ff16600381111561063d5761063d611767565b146106985760405162461bcd60e51b815260206004820152602560248201527f54616753746f726167653a2054686520746167206d757374206265206120626f60448201526437b632b0b760d91b6064820152608401610534565b60008381526007602052604090205460ff1691505b50919050565b60006104fa8183610be3565b600082815260016020819052604090912001546106dc81336110fe565b6106e68383611162565b505050565b600081600260008281526008602052604090205460ff16600381111561071357610713611767565b146107715760405162461bcd60e51b815260206004820152602860248201527f54616753746f726167653a2054686520746167206d7573742062652061206279604482015267746520617272617960c01b6064820152608401610534565b505060009081526004602052604090205490565b6001600160a01b03811633146107f55760405162461bcd60e51b815260206004820152602f60248201527f416363657373436f6e74726f6c3a2063616e206f6e6c792072656e6f756e636560448201526e103937b632b9903337b91039b2b63360891b6064820152608401610534565b6107ff8282611184565b5050565b61080e600033610be3565b61082a5760405162461bcd60e51b815260040161053490611985565b6000828260405160200161083f929190611920565b60408051601f198184030181529181528151602092830120600090815260099092529020805460ff19169055505050565b610888600080516020611b7683398151915233610be3565b6108a45760405162461bcd60e51b8152600401610534906118cc565b6000828152600360205260409020548390839060ff161561092c5760008181526003602090815260408083205490516108e392339260ff169101611920565b60408051601f1981840301815291815281516020928301206000818152600990935291205490915060ff1661092a5760405162461bcd60e51b81526004016105349061193c565b505b6000908152600360209081526040808320805460ff9590951660ff1995861617905594825260088152848220805460029416939093179092556004909152919091205550565b61098a600080516020611b7683398151915233610be3565b6109a65760405162461bcd60e51b8152600401610534906118cc565b6000828152600360205260409020548390839060ff1615610a2e5760008181526003602090815260408083205490516109e592339260ff169101611920565b60408051601f1981840301815291815281516020928301206000818152600990935291205490915060ff16610a2c5760405162461bcd60e51b81526004016105349061193c565b505b6000908152600360209081526040808320805460ff9590951660ff199586161790559482526008815284822080549093169092556006909152919091205550565b6000546001600160a01b03163314610a995760405162461bcd60e51b8152600401610534906119d9565b610aa360006111a6565b565b610ab0600033610be3565b610acc5760405162461bcd60e51b815260040161053490611985565b610ae4600080516020611b768339815191528261103f565b50565b6000808383604051602001610afd929190611920565b60408051808303601f1901815291815281516020928301206000908152600990925290205460ff16949350505050565b6000818160008281526008602052604090205460ff166003811115610b5457610b54611767565b14610bb05760405162461bcd60e51b815260206004820152602660248201527f54616753746f726167653a2054686520746167206d75737420626520616e2069604482015265373a32b3b2b960d11b6064820152608401610534565b505060009081526006602052604090205490565b6000828152600260205260408120610bdc90836111f6565b9392505050565b60009182526001602090815260408084206001600160a01b0393909316845291905290205460ff1690565b6000546001600160a01b03163314610c385760405162461bcd60e51b8152600401610534906119d9565b610ae4600082610dee565b606081600160008281526008602052604090205460ff166003811115610c6b57610c6b611767565b14610cc45760405162461bcd60e51b8152602060048201526024808201527f54616753746f726167653a2054686520746167206d757374206265206120737460448201526372696e6760e01b6064820152608401610534565b60008381526005602052604090208054610cdd90611a0e565b80601f0160208091040260200160405190810160405280929190818152602001828054610d0990611a0e565b8015610d565780601f10610d2b57610100808354040283529160200191610d56565b820191906000526020600020905b815481529060010190602001808311610d3957829003601f168201915b5050505050915050919050565b610d6e600033610be3565b610d8a5760405162461bcd60e51b815260040161053490611985565b610ae4600080516020611b7683398151915282610dee565b6000546001600160a01b03163314610dcc5760405162461bcd60e51b8152600401610534906119d9565b610ae460008261103f565b60008181526002602052604081206104fa90611202565b60008281526001602081905260409091200154610e0b81336110fe565b6106e68383611184565b610e2d600080516020611b7683398151915233610be3565b610e495760405162461bcd60e51b8152600401610534906118cc565b6000828152600360205260409020548390839060ff1615610ed1576000818152600360209081526040808320549051610e8892339260ff169101611920565b60408051601f1981840301815291815281516020928301206000818152600990935291205490915060ff16610ecf5760405162461bcd60e51b81526004016105349061193c565b505b6000908152600360208181526040808420805460ff9690961660ff1996871617905595835260088152858320805485169092179091556007905292909220805490921690151517905550565b60006104fa600080516020611b7683398151915283610be3565b6000546001600160a01b03163314610f615760405162461bcd60e51b8152600401610534906119d9565b6001600160a01b038116610fc65760405162461bcd60e51b815260206004820152602660248201527f4f776e61626c653a206e6577206f776e657220697320746865207a65726f206160448201526564647265737360d01b6064820152608401610534565b610ae4816111a6565b610fda600033610be3565b610ff65760405162461bcd60e51b815260040161053490611985565b6000828260405160200161100b929190611920565b60408051601f198184030181529181528151602092830120600090815260099092529020805460ff19166001179055505050565b6107ff8282611162565b6110538282610be3565b6107ff5760008281526001602081815260408084206001600160a01b0386168086529252808420805460ff19169093179092559051339285917f2f8788117e7eff1d82e926ec794901d17c78024a50270940304540a733656f0d9190a45050565b6000610bdc836001600160a01b03841661120c565b60006001600160e01b03198216637965db0b60e01b14806104fa57506301ffc9a760e01b6001600160e01b03198316146104fa565b6111088282610be3565b6107ff57611120816001600160a01b0316601461125b565b61112b83602061125b565b60405160200161113c929190611a43565b60408051601f198184030181529082905262461bcd60e51b825261053491600401611854565b61116c8282611049565b60008281526002602052604090206106e690826110b4565b61118e82826113f7565b60008281526002602052604090206106e6908261145e565b600080546001600160a01b038381166001600160a01b0319831681178455604051919092169283917f8be0079c531659141344cd1fd0a4f28419497f9722a3daafe3b4186f6b6457e09190a35050565b6000610bdc8383611473565b60006104fa825490565b6000818152600183016020526040812054611253575081546001818101845560008481526020808220909301849055845484825282860190935260409020919091556104fa565b5060006104fa565b6060600061126a836002611ace565b611275906002611aed565b67ffffffffffffffff81111561128d5761128d611b05565b6040519080825280601f01601f1916602001820160405280156112b7576020820181803683370190505b509050600360fc1b816000815181106112d2576112d2611b1b565b60200101906001600160f81b031916908160001a905350600f60fb1b8160018151811061130157611301611b1b565b60200101906001600160f81b031916908160001a9053506000611325846002611ace565b611330906001611aed565b90505b60018111156113a8576f181899199a1a9b1b9c1cb0b131b232b360811b85600f166010811061136457611364611b1b565b1a60f81b82828151811061137a5761137a611b1b565b60200101906001600160f81b031916908160001a90535060049490941c936113a181611b31565b9050611333565b508315610bdc5760405162461bcd60e51b815260206004820181905260248201527f537472696e67733a20686578206c656e67746820696e73756666696369656e746044820152606401610534565b6114018282610be3565b156107ff5760008281526001602090815260408083206001600160a01b0385168085529252808320805460ff1916905551339285917ff6391f5c32d9c69d2a47ea670b442974b53935d1edc7fd64eb21e047a839171b9190a45050565b6000610bdc836001600160a01b03841661149d565b600082600001828154811061148a5761148a611b1b565b9060005260206000200154905092915050565b600081815260018301602052604081205480156115865760006114c1600183611b48565b85549091506000906114d590600190611b48565b905081811461153a5760008660000182815481106114f5576114f5611b1b565b906000526020600020015490508087600001848154811061151857611518611b1b565b6000918252602080832090910192909255918252600188019052604090208390555b855486908061154b5761154b611b5f565b6001900381819060005260206000200160009055905585600101600086815260200190815260200160002060009055600193505050506104fa565b60009150506104fa565b82805461159c90611a0e565b90600052602060002090601f0160209004810192826115be5760008555611604565b82601f106115d75782800160ff19823516178555611604565b82800160010185558215611604579182015b828111156116045782358255916020019190600101906115e9565b50611610929150611614565b5090565b5b808211156116105760008155600101611615565b60006020828403121561163b57600080fd5b81356001600160e01b031981168114610bdc57600080fd5b803560ff8116811461166457600080fd5b919050565b6000806000806060858703121561167f57600080fd5b61168885611653565b935060208501359250604085013567ffffffffffffffff808211156116ac57600080fd5b818701915087601f8301126116c057600080fd5b8135818111156116cf57600080fd5b8860208285010111156116e157600080fd5b95989497505060200194505050565b60006020828403121561170257600080fd5b5035919050565b80356001600160a01b038116811461166457600080fd5b60006020828403121561173257600080fd5b610bdc82611709565b6000806040838503121561174e57600080fd5b8235915061175e60208401611709565b90509250929050565b634e487b7160e01b600052602160045260246000fd5b602081016004831061179f57634e487b7160e01b600052602160045260246000fd5b91905290565b600080604083850312156117b857600080fd5b6117c183611709565b915061175e60208401611653565b6000806000606084860312156117e457600080fd5b6117ed84611653565b95602085013595506040909401359392505050565b6000806040838503121561181557600080fd5b50508035926020909101359150565b60005b8381101561183f578181015183820152602001611827565b8381111561184e576000848401525b50505050565b6020815260008251806020840152611873816040850160208701611824565b601f01601f19169190910160400192915050565b60008060006060848603121561189c57600080fd5b6118a584611653565b925060208401359150604084013580151581146118c157600080fd5b809150509250925092565b60208082526034908201527f54616753746f726167653a205468652063616c6c6572206d757374206861766560408201527320616464657227732070726976696c656467657360601b606082015260800190565b6001600160a01b0392909216825260ff16602082015260400190565b60208082526029908201527f54616753746f726167653a204e65656420746f2062652074616727732067726f6040820152683ab81036b2b6b132b960b91b606082015260800190565b60208082526034908201527f54616753746f726167653a205468652063616c6c6572206d75737420686176656040820152732061646d696e27732070726976696c656467657360601b606082015260800190565b6020808252818101527f4f776e61626c653a2063616c6c6572206973206e6f7420746865206f776e6572604082015260600190565b600181811c90821680611a2257607f821691505b602082108114156106ad57634e487b7160e01b600052602260045260246000fd5b7f416363657373436f6e74726f6c3a206163636f756e7420000000000000000000815260008351611a7b816017850160208801611824565b7001034b99036b4b9b9b4b733903937b6329607d1b6017918401918201528351611aac816028840160208801611824565b01602801949350505050565b634e487b7160e01b600052601160045260246000fd5b6000816000190483118215151615611ae857611ae8611ab8565b500290565b60008219821115611b0057611b00611ab8565b500190565b634e487b7160e01b600052604160045260246000fd5b634e487b7160e01b600052603260045260246000fd5b600081611b4057611b40611ab8565b506000190190565b600082821015611b5a57611b5a611ab8565b500390565b634e487b7160e01b600052603160045260246000fdfe4598756f5316ec314da789a2239a8526acb3bbace52df2278d3c211ccdcc48a9a2646970667358221220d81b72fb4306ff48e809d1f5c07df8a4407c665372ff08b767f148fc0af3047e64736f6c634300080b0033",
  "immutableReferences": {},
  "source": "/**\n * @notice Stores FireZard tokens tags related to game mechanics\n * @title FireZard Tag generic storage\n * @notice Stores tags (key-value) pairs of byte32, string, uint256 and boolean types.\n * The storage is agnostic to what contract (editor) and what data are being stored. Tags are formed by \n * the editor contracts. The storage provides authentication for adding/modifying tags.\n * \n * Each tag is assigned an editors' group. An editor (contract or user) can be added to one or more groups.\n * An editor can add/modify only those tags that are assigned to a group which the editor belongs to.\n */\n\npragma solidity ^0.8.0;\n\nimport \"@openzeppelin/contracts/access/AccessControlEnumerable.sol\";\nimport \"@openzeppelin/contracts/utils/Context.sol\";\nimport \"@openzeppelin/contracts/access/Ownable.sol\";\nimport {Util} from \"./Util.sol\";\n\n\ncontract TagStorage is Context, Ownable, AccessControlEnumerable {\n    bytes32 public constant ADDER_ROLE = keccak256('ADDER_ROLE');\n\n    mapping (bytes32 => uint8) tagGroup;\n    mapping (bytes32 => bytes32) tagByte32Value;\n    mapping (bytes32 => string) tagStringValue;\n    mapping (bytes32 => uint256) tagIntValue;\n    mapping (bytes32 => bool) tagBooleanValue;\n    mapping (bytes32 => Util.StatType) tagType;\n    mapping (bytes32 => bool) groupMember;\n\n    modifier onlyAdder() {\n\trequire(hasRole(ADDER_ROLE, msg.sender),\"TagStorage: The caller must have adder's priviledges\");\n\t_;\n    }\n\n    modifier onlyAdmin() {\n\trequire(hasRole(DEFAULT_ADMIN_ROLE, msg.sender),\"TagStorage: The caller must have admin's priviledges\");\n\t_;\n    }\n\n    modifier authorizeEdit(uint8 groupID, bytes32 key) {\n\tif(tagGroup[key]>0){\n\t    bytes32 groupMemberKey = keccak256(abi.encode(msg.sender,tagGroup[key]));\n\t    require(groupMember[groupMemberKey],\"TagStorage: Need to be tag's group member\");\n\t}\n\ttagGroup[key] = groupID;\n\t_;\n    }\n\n    modifier byte32Tag(bytes32 key) {\n\trequire((tagType[key] == Util.StatType.ByteArray), \"TagStorage: The tag must be a byte array\");\n\t_;\n    }\n\n    modifier stringTag(bytes32 key) {\n\trequire((tagType[key] == Util.StatType.String), \"TagStorage: The tag must be a string\");\n\t_;\n    }\n\n    modifier intTag(bytes32 key) {\n\trequire((tagType[key] == Util.StatType.Integer), \"TagStorage: The tag must be an integer\");\n\t_;\n    }\n\n    modifier booleanTag(bytes32 key) {\n\trequire((tagType[key] == Util.StatType.Boolean), \"TagStorage: The tag must be a boolean\");\n\t_;\n    }\n\n    constructor() {\n\tsuper._setupRole(DEFAULT_ADMIN_ROLE,msg.sender);\n    }\n\n    function grantAdminRole(address entity) external virtual onlyOwner {\n\tsuper._setupRole(DEFAULT_ADMIN_ROLE,entity);\n    }\n\n    function revokeAdminRole(address entity) external virtual onlyOwner {\n\tsuper.revokeRole(DEFAULT_ADMIN_ROLE,entity);\n    }\n\n    function grantAdderRole(address entity) external virtual onlyAdmin {\n\tsuper._setupRole(ADDER_ROLE,entity);\n    }\n\n    function revokeAdderRole(address entity) external virtual onlyAdmin {\n\tsuper.revokeRole(ADDER_ROLE,entity);\n    }\n\n    function isAdmin(address entity) external view returns (bool) {\n\treturn hasRole(DEFAULT_ADMIN_ROLE, entity);\n    }\n\n    function isAdder(address entity) external view returns (bool) {\n\treturn hasRole(ADDER_ROLE, entity);\n    }\n\n    function isGroupMember(address entity, uint8 groupID) external view returns (bool) {\n\tbytes32 groupMemberKey = keccak256(abi.encode(entity,groupID));\n\treturn groupMember[groupMemberKey];\n    }\n\n    /**\n     * @notice Add editor to a group\n     * \n     * @param entity  Editor's address. It can be contract or user\n     * @param groupID The id of the group where to add the entity\n    **/\n    function addEditor2Group(address entity,uint8 groupID) public virtual onlyAdmin {\n\tbytes32 groupMemberKey = keccak256(abi.encode(entity,groupID));\n\tgroupMember[groupMemberKey] = true;\n    }\n\n    /**\n     * @notice Remove editor from the group\n     * \n     * @param entity  Editor's address. It can be contract or user\n     * @param groupID The id of the group from where to remove the entity\n    **/\n    function removeEditorFromGroup(address entity,uint8 groupID) public virtual onlyAdmin {\n\tbytes32 groupMemberKey = keccak256(abi.encode(entity,groupID));\n\tgroupMember[groupMemberKey] = false;\n    }\n\n    /**\n     * @notice Set a byte array tag. The caller must have an adder role. \n     * The caller with the adder role can create new tag and assign it to any group id.\n     * The caller may modify existing tag and assign it to a new group id if the caller belongs to the group currently associated to the tag.\n     *\n     * @param groupID The ID of the group for the tag\n     * @param key     The key of the tag\n     * @param value   The value (type byte32) of the tag\n    **/\n    function setTag(uint8 groupID, bytes32 key, bytes32 value) public virtual onlyAdder authorizeEdit(groupID, key) {\n\ttagType[key] = Util.StatType.ByteArray;\n\ttagByte32Value[key] = value;\n    }\n\n    /**\n     * @notice Set a string tag. The caller must have an adder role.\n     * The caller with the adder role can create new tag and assign it to any group id.\n     * The caller may modify existing tag and assign it to a new group id if the caller belongs to the group currently associated to the tag.\n     *\n     * @param groupID The ID of the group for the tag\n     * @param key     The key of the tag\n     * @param value   The value (type string) of the tag\n    **/\n    function setTag(uint8 groupID, bytes32 key, string calldata value) public virtual onlyAdder authorizeEdit(groupID, key) {\n\ttagType[key] = Util.StatType.String;\n\ttagStringValue[key] = value;\n    }\n\n    /**\n     * @notice Set an integer tag. The caller must have an adder role.\n     * The caller with the adder role can create new tag and assign it to any group id.\n     * The caller may modify existing tag and assign it to a new group id if the caller belongs to the group currently associated to the tag.\n     *\n     * @param groupID The ID of the group for the tag\n     * @param key     The key of the tag\n     * @param value   The value (type uint256) of the tag\n    **/\n    function setTag(uint8 groupID, bytes32 key, uint256 value) public virtual onlyAdder authorizeEdit(groupID, key) {\n\ttagType[key] = Util.StatType.Integer;\n\ttagIntValue[key] = value;\n    }\n\n    /**\n     * @notice Set a boolean tag. The caller must have an adder role.\n     * The caller with the adder role can create new tag and assign it to any group id.\n     * The caller may modify existing tag and assign it to a new group id if the caller belongs to the group currently associated to the tag.\n     *\n     * @param groupID The ID of the group for the tag\n     * @param key     The key of the tag\n     * @param value   The value (type boolean) of the tag\n    **/\n    function setTag(uint8 groupID, bytes32 key, bool value) public virtual onlyAdder authorizeEdit(groupID, key) {\n\ttagType[key] = Util.StatType.Boolean;\n\ttagBooleanValue[key] = value;\n    }\n\n    /**\n     * @notice Gets data type of the tag.\n     *\n     * @param  key The tag's key\n     * @return The tag's value data type\n    **/\n    function getTagType(bytes32 key) public view returns (Util.StatType) {\n\treturn tagType[key];\n    }\n\n    /**\n     * @notice Gets tag's value of byte array type.\n     *\n     * @param key The tag's key\n     * @return The tag's value of type bytes32\n    **/\n    function getByte32Value(bytes32 key) public view byte32Tag(key) returns (bytes32) {\n\treturn tagByte32Value[key];\n    }\n\n    /**\n     * @notice Gets tag's value of string type.\n     *\n     * @param key The tag's key\n     * @return The tag's value of type string\n    **/\n    function getStringValue(bytes32 key) public view stringTag(key) returns (string memory) {\n\treturn tagStringValue[key];\n    }\n\n    /**\n     * @notice Gets tag's value of integer type.\n     *\n     * @param key The tag's key\n     * @return The tag's value of type uint256\n    **/\n    function getIntValue(bytes32 key) public view intTag(key) returns (uint256) {\n\treturn tagIntValue[key];\n    }\n\n    /**\n     * @notice Gets tag's value of boolean type.\n     *\n     * @param key The tag's key\n     * @return The tag's value of type boolean\n    **/\n    function getBooleanValue(bytes32 key) public view booleanTag(key) returns (bool) {\n\treturn tagBooleanValue[key];\n    }\n\n    /**\n     * @notice Gets tag's associated group\n     *\n     * @param key The tag's key\n     * @return Id of the groupt to which the tag is currently associated\n    **/\n    function getTagGroup(bytes32 key) public view returns (uint8) {\n\treturn tagGroup[key];\n    }\n\n}\n",
  "sourcePath": "/home/vrogojin/Projects/temp/FireZard/nft/contracts/TagStorage.sol",
  "compiler": {
    "name": "solc",
    "version": "0.8.11+commit.d7f03943.Emscripten.clang"
  },
  "schemaVersion": "3.4.4",
  "updatedAt": "2022-01-14T15:03:28.765Z",
  "networkType": "ethereum",
  "devdoc": {
    "kind": "dev",
    "methods": {
      "addEditor2Group(address,uint8)": {
        "params": {
          "entity": "Editor's address. It can be contract or user",
          "groupID": "The id of the group where to add the entity*"
        }
      },
      "getBooleanValue(bytes32)": {
        "params": {
          "key": "The tag's key"
        },
        "returns": {
          "_0": "The tag's value of type boolean*"
        }
      },
      "getByte32Value(bytes32)": {
        "params": {
          "key": "The tag's key"
        },
        "returns": {
          "_0": "The tag's value of type bytes32*"
        }
      },
      "getIntValue(bytes32)": {
        "params": {
          "key": "The tag's key"
        },
        "returns": {
          "_0": "The tag's value of type uint256*"
        }
      },
      "getRoleAdmin(bytes32)": {
        "details": "Returns the admin role that controls `role`. See {grantRole} and {revokeRole}. To change a role's admin, use {_setRoleAdmin}."
      },
      "getRoleMember(bytes32,uint256)": {
        "details": "Returns one of the accounts that have `role`. `index` must be a value between 0 and {getRoleMemberCount}, non-inclusive. Role bearers are not sorted in any particular way, and their ordering may change at any point. WARNING: When using {getRoleMember} and {getRoleMemberCount}, make sure you perform all queries on the same block. See the following https://forum.openzeppelin.com/t/iterating-over-elements-on-enumerableset-in-openzeppelin-contracts/2296[forum post] for more information."
      },
      "getRoleMemberCount(bytes32)": {
        "details": "Returns the number of accounts that have `role`. Can be used together with {getRoleMember} to enumerate all bearers of a role."
      },
      "getStringValue(bytes32)": {
        "params": {
          "key": "The tag's key"
        },
        "returns": {
          "_0": "The tag's value of type string*"
        }
      },
      "getTagGroup(bytes32)": {
        "params": {
          "key": "The tag's key"
        },
        "returns": {
          "_0": "Id of the groupt to which the tag is currently associated*"
        }
      },
      "getTagType(bytes32)": {
        "params": {
          "key": "The tag's key"
        },
        "returns": {
          "_0": "The tag's value data type*"
        }
      },
      "grantRole(bytes32,address)": {
        "details": "Grants `role` to `account`. If `account` had not been already granted `role`, emits a {RoleGranted} event. Requirements: - the caller must have ``role``'s admin role."
      },
      "hasRole(bytes32,address)": {
        "details": "Returns `true` if `account` has been granted `role`."
      },
      "owner()": {
        "details": "Returns the address of the current owner."
      },
      "removeEditorFromGroup(address,uint8)": {
        "params": {
          "entity": "Editor's address. It can be contract or user",
          "groupID": "The id of the group from where to remove the entity*"
        }
      },
      "renounceOwnership()": {
        "details": "Leaves the contract without owner. It will not be possible to call `onlyOwner` functions anymore. Can only be called by the current owner. NOTE: Renouncing ownership will leave the contract without an owner, thereby removing any functionality that is only available to the owner."
      },
      "renounceRole(bytes32,address)": {
        "details": "Revokes `role` from the calling account. Roles are often managed via {grantRole} and {revokeRole}: this function's purpose is to provide a mechanism for accounts to lose their privileges if they are compromised (such as when a trusted device is misplaced). If the calling account had been revoked `role`, emits a {RoleRevoked} event. Requirements: - the caller must be `account`."
      },
      "revokeRole(bytes32,address)": {
        "details": "Revokes `role` from `account`. If `account` had been granted `role`, emits a {RoleRevoked} event. Requirements: - the caller must have ``role``'s admin role."
      },
      "setTag(uint8,bytes32,bool)": {
        "params": {
          "groupID": "The ID of the group for the tag",
          "key": "The key of the tag",
          "value": "The value (type boolean) of the tag*"
        }
      },
      "setTag(uint8,bytes32,bytes32)": {
        "params": {
          "groupID": "The ID of the group for the tag",
          "key": "The key of the tag",
          "value": "The value (type byte32) of the tag*"
        }
      },
      "setTag(uint8,bytes32,string)": {
        "params": {
          "groupID": "The ID of the group for the tag",
          "key": "The key of the tag",
          "value": "The value (type string) of the tag*"
        }
      },
      "setTag(uint8,bytes32,uint256)": {
        "params": {
          "groupID": "The ID of the group for the tag",
          "key": "The key of the tag",
          "value": "The value (type uint256) of the tag*"
        }
      },
      "supportsInterface(bytes4)": {
        "details": "See {IERC165-supportsInterface}."
      },
      "transferOwnership(address)": {
        "details": "Transfers ownership of the contract to a new account (`newOwner`). Can only be called by the current owner."
      }
    },
    "version": 1
  },
  "userdoc": {
    "kind": "user",
    "methods": {
      "addEditor2Group(address,uint8)": {
        "notice": "Add editor to a group "
      },
      "getBooleanValue(bytes32)": {
        "notice": "Gets tag's value of boolean type."
      },
      "getByte32Value(bytes32)": {
        "notice": "Gets tag's value of byte array type."
      },
      "getIntValue(bytes32)": {
        "notice": "Gets tag's value of integer type."
      },
      "getStringValue(bytes32)": {
        "notice": "Gets tag's value of string type."
      },
      "getTagGroup(bytes32)": {
        "notice": "Gets tag's associated group"
      },
      "getTagType(bytes32)": {
        "notice": "Gets data type of the tag."
      },
      "removeEditorFromGroup(address,uint8)": {
        "notice": "Remove editor from the group "
      },
      "setTag(uint8,bytes32,bool)": {
        "notice": "Set a boolean tag. The caller must have an adder role. The caller with the adder role can create new tag and assign it to any group id. The caller may modify existing tag and assign it to a new group id if the caller belongs to the group currently associated to the tag."
      },
      "setTag(uint8,bytes32,bytes32)": {
        "notice": "Set a byte array tag. The caller must have an adder role.  The caller with the adder role can create new tag and assign it to any group id. The caller may modify existing tag and assign it to a new group id if the caller belongs to the group currently associated to the tag."
      },
      "setTag(uint8,bytes32,string)": {
        "notice": "Set a string tag. The caller must have an adder role. The caller with the adder role can create new tag and assign it to any group id. The caller may modify existing tag and assign it to a new group id if the caller belongs to the group currently associated to the tag."
      },
      "setTag(uint8,bytes32,uint256)": {
        "notice": "Set an integer tag. The caller must have an adder role. The caller with the adder role can create new tag and assign it to any group id. The caller may modify existing tag and assign it to a new group id if the caller belongs to the group currently associated to the tag."
      }
    },
    "version": 1
  }
}