{
  "contractName": "Treasury",
  "abi": [
    {
      "anonymous": false,
      "inputs": [
        {
          "indexed": false,
          "internalType": "address",
          "name": "sender",
          "type": "address"
        },
        {
          "indexed": false,
          "internalType": "uint256",
          "name": "token_id",
          "type": "uint256"
        },
        {
          "indexed": false,
          "internalType": "uint256",
          "name": "value",
          "type": "uint256"
        }
      ],
      "name": "Claimed",
      "type": "event"
    },
    {
      "anonymous": false,
      "inputs": [
        {
          "indexed": false,
          "internalType": "address",
          "name": "_manager",
          "type": "address"
        }
      ],
      "name": "ContractAdded",
      "type": "event"
    },
    {
      "anonymous": false,
      "inputs": [
        {
          "indexed": false,
          "internalType": "address",
          "name": "newManager",
          "type": "address"
        }
      ],
      "name": "ContractManagerSwitch",
      "type": "event"
    },
    {
      "anonymous": false,
      "inputs": [
        {
          "indexed": false,
          "internalType": "address",
          "name": "newOwner",
          "type": "address"
        }
      ],
      "name": "ContractOwnershipUpdate",
      "type": "event"
    },
    {
      "anonymous": false,
      "inputs": [],
      "name": "ContractRemoved",
      "type": "event"
    },
    {
      "anonymous": false,
      "inputs": [
        {
          "indexed": false,
          "internalType": "address",
          "name": "contractInstance",
          "type": "address"
        }
      ],
      "name": "ContractReplaced",
      "type": "event"
    },
    {
      "anonymous": false,
      "inputs": [
        {
          "indexed": false,
          "internalType": "address",
          "name": "oldInstance",
          "type": "address"
        },
        {
          "indexed": false,
          "internalType": "address",
          "name": "_manager",
          "type": "address"
        }
      ],
      "name": "ContractUpdated",
      "type": "event"
    },
    {
      "anonymous": false,
      "inputs": [
        {
          "indexed": false,
          "internalType": "address",
          "name": "sender",
          "type": "address"
        },
        {
          "indexed": false,
          "internalType": "uint256",
          "name": "amount",
          "type": "uint256"
        }
      ],
      "name": "Deposit",
      "type": "event"
    },
    {
      "anonymous": false,
      "inputs": [
        {
          "indexed": false,
          "internalType": "address",
          "name": "contract_addr",
          "type": "address"
        }
      ],
      "name": "NFTLink",
      "type": "event"
    },
    {
      "anonymous": false,
      "inputs": [
        {
          "indexed": true,
          "internalType": "address",
          "name": "previousOwner",
          "type": "address"
        },
        {
          "indexed": true,
          "internalType": "address",
          "name": "newOwner",
          "type": "address"
        }
      ],
      "name": "OwnershipTransferred",
      "type": "event"
    },
    {
      "anonymous": false,
      "inputs": [
        {
          "indexed": true,
          "internalType": "bytes32",
          "name": "role",
          "type": "bytes32"
        },
        {
          "indexed": true,
          "internalType": "bytes32",
          "name": "previousAdminRole",
          "type": "bytes32"
        },
        {
          "indexed": true,
          "internalType": "bytes32",
          "name": "newAdminRole",
          "type": "bytes32"
        }
      ],
      "name": "RoleAdminChanged",
      "type": "event"
    },
    {
      "anonymous": false,
      "inputs": [
        {
          "indexed": true,
          "internalType": "bytes32",
          "name": "role",
          "type": "bytes32"
        },
        {
          "indexed": true,
          "internalType": "address",
          "name": "account",
          "type": "address"
        },
        {
          "indexed": true,
          "internalType": "address",
          "name": "sender",
          "type": "address"
        }
      ],
      "name": "RoleGranted",
      "type": "event"
    },
    {
      "anonymous": false,
      "inputs": [
        {
          "indexed": true,
          "internalType": "bytes32",
          "name": "role",
          "type": "bytes32"
        },
        {
          "indexed": true,
          "internalType": "address",
          "name": "account",
          "type": "address"
        },
        {
          "indexed": true,
          "internalType": "address",
          "name": "sender",
          "type": "address"
        }
      ],
      "name": "RoleRevoked",
      "type": "event"
    },
    {
      "anonymous": false,
      "inputs": [
        {
          "indexed": false,
          "internalType": "address",
          "name": "contract_addr",
          "type": "address"
        }
      ],
      "name": "StatsLibLink",
      "type": "event"
    },
    {
      "anonymous": false,
      "inputs": [
        {
          "indexed": false,
          "internalType": "address",
          "name": "tag_storage",
          "type": "address"
        }
      ],
      "name": "TAGLink",
      "type": "event"
    },
    {
      "anonymous": false,
      "inputs": [
        {
          "indexed": false,
          "internalType": "address",
          "name": "contract_addr",
          "type": "address"
        }
      ],
      "name": "ViewLink",
      "type": "event"
    },
    {
      "anonymous": false,
      "inputs": [
        {
          "indexed": false,
          "internalType": "address",
          "name": "sender",
          "type": "address"
        },
        {
          "indexed": false,
          "internalType": "uint256",
          "name": "amount",
          "type": "uint256"
        }
      ],
      "name": "Withdraw",
      "type": "event"
    },
    {
      "stateMutability": "payable",
      "type": "fallback",
      "payable": true
    },
    {
      "inputs": [],
      "name": "DEFAULT_ADMIN_ROLE",
      "outputs": [
        {
          "internalType": "bytes32",
          "name": "",
          "type": "bytes32"
        }
      ],
      "stateMutability": "view",
      "type": "function",
      "constant": true
    },
    {
      "inputs": [],
      "name": "MANAGER_ROLE",
      "outputs": [
        {
          "internalType": "bytes32",
          "name": "",
          "type": "bytes32"
        }
      ],
      "stateMutability": "view",
      "type": "function",
      "constant": true
    },
    {
      "inputs": [],
      "name": "MINTER_ROLE",
      "outputs": [
        {
          "internalType": "bytes32",
          "name": "",
          "type": "bytes32"
        }
      ],
      "stateMutability": "view",
      "type": "function",
      "constant": true
    },
    {
      "inputs": [],
      "name": "TAG_addr",
      "outputs": [
        {
          "internalType": "address",
          "name": "",
          "type": "address"
        }
      ],
      "stateMutability": "view",
      "type": "function",
      "constant": true
    },
    {
      "inputs": [],
      "name": "contract_id",
      "outputs": [
        {
          "internalType": "bytes32",
          "name": "",
          "type": "bytes32"
        }
      ],
      "stateMutability": "view",
      "type": "function",
      "constant": true
    },
    {
      "inputs": [],
      "name": "contract_name",
      "outputs": [
        {
          "internalType": "string",
          "name": "",
          "type": "string"
        }
      ],
      "stateMutability": "view",
      "type": "function",
      "constant": true
    },
    {
      "inputs": [
        {
          "internalType": "bytes32",
          "name": "role",
          "type": "bytes32"
        }
      ],
      "name": "getRoleAdmin",
      "outputs": [
        {
          "internalType": "bytes32",
          "name": "",
          "type": "bytes32"
        }
      ],
      "stateMutability": "view",
      "type": "function",
      "constant": true
    },
    {
      "inputs": [
        {
          "internalType": "bytes32",
          "name": "role",
          "type": "bytes32"
        },
        {
          "internalType": "uint256",
          "name": "index",
          "type": "uint256"
        }
      ],
      "name": "getRoleMember",
      "outputs": [
        {
          "internalType": "address",
          "name": "",
          "type": "address"
        }
      ],
      "stateMutability": "view",
      "type": "function",
      "constant": true
    },
    {
      "inputs": [
        {
          "internalType": "bytes32",
          "name": "role",
          "type": "bytes32"
        }
      ],
      "name": "getRoleMemberCount",
      "outputs": [
        {
          "internalType": "uint256",
          "name": "",
          "type": "uint256"
        }
      ],
      "stateMutability": "view",
      "type": "function",
      "constant": true
    },
    {
      "inputs": [
        {
          "internalType": "bytes32",
          "name": "role",
          "type": "bytes32"
        },
        {
          "internalType": "address",
          "name": "account",
          "type": "address"
        }
      ],
      "name": "grantRole",
      "outputs": [],
      "stateMutability": "nonpayable",
      "type": "function"
    },
    {
      "inputs": [],
      "name": "group_id",
      "outputs": [
        {
          "internalType": "uint8",
          "name": "",
          "type": "uint8"
        }
      ],
      "stateMutability": "view",
      "type": "function",
      "constant": true
    },
    {
      "inputs": [
        {
          "internalType": "bytes32",
          "name": "role",
          "type": "bytes32"
        },
        {
          "internalType": "address",
          "name": "account",
          "type": "address"
        }
      ],
      "name": "hasRole",
      "outputs": [
        {
          "internalType": "bool",
          "name": "",
          "type": "bool"
        }
      ],
      "stateMutability": "view",
      "type": "function",
      "constant": true
    },
    {
      "inputs": [],
      "name": "manager",
      "outputs": [
        {
          "internalType": "address",
          "name": "",
          "type": "address"
        }
      ],
      "stateMutability": "view",
      "type": "function",
      "constant": true
    },
    {
      "inputs": [],
      "name": "nft",
      "outputs": [
        {
          "internalType": "address",
          "name": "",
          "type": "address"
        }
      ],
      "stateMutability": "view",
      "type": "function",
      "constant": true
    },
    {
      "inputs": [
        {
          "internalType": "address",
          "name": "_manager",
          "type": "address"
        }
      ],
      "name": "onAdd",
      "outputs": [],
      "stateMutability": "nonpayable",
      "type": "function"
    },
    {
      "inputs": [],
      "name": "onRemoved",
      "outputs": [],
      "stateMutability": "nonpayable",
      "type": "function"
    },
    {
      "inputs": [],
      "name": "owner",
      "outputs": [
        {
          "internalType": "address",
          "name": "",
          "type": "address"
        }
      ],
      "stateMutability": "view",
      "type": "function",
      "constant": true
    },
    {
      "inputs": [],
      "name": "renounceOwnership",
      "outputs": [],
      "stateMutability": "nonpayable",
      "type": "function"
    },
    {
      "inputs": [
        {
          "internalType": "bytes32",
          "name": "role",
          "type": "bytes32"
        },
        {
          "internalType": "address",
          "name": "account",
          "type": "address"
        }
      ],
      "name": "renounceRole",
      "outputs": [],
      "stateMutability": "nonpayable",
      "type": "function"
    },
    {
      "inputs": [
        {
          "internalType": "bytes32",
          "name": "role",
          "type": "bytes32"
        },
        {
          "internalType": "address",
          "name": "account",
          "type": "address"
        }
      ],
      "name": "revokeRole",
      "outputs": [],
      "stateMutability": "nonpayable",
      "type": "function"
    },
    {
      "inputs": [
        {
          "internalType": "enum Util.CardRarity",
          "name": "",
          "type": "uint8"
        }
      ],
      "name": "reward_table",
      "outputs": [
        {
          "internalType": "uint256",
          "name": "",
          "type": "uint256"
        }
      ],
      "stateMutability": "view",
      "type": "function",
      "constant": true
    },
    {
      "inputs": [],
      "name": "stats",
      "outputs": [
        {
          "internalType": "address",
          "name": "",
          "type": "address"
        }
      ],
      "stateMutability": "view",
      "type": "function",
      "constant": true
    },
    {
      "inputs": [
        {
          "internalType": "bytes4",
          "name": "interfaceId",
          "type": "bytes4"
        }
      ],
      "name": "supportsInterface",
      "outputs": [
        {
          "internalType": "bool",
          "name": "",
          "type": "bool"
        }
      ],
      "stateMutability": "view",
      "type": "function",
      "constant": true
    },
    {
      "inputs": [
        {
          "internalType": "address",
          "name": "newManager",
          "type": "address"
        }
      ],
      "name": "switchManager",
      "outputs": [],
      "stateMutability": "nonpayable",
      "type": "function"
    },
    {
      "inputs": [
        {
          "internalType": "address",
          "name": "newOwner",
          "type": "address"
        }
      ],
      "name": "transferOwnership",
      "outputs": [],
      "stateMutability": "nonpayable",
      "type": "function"
    },
    {
      "inputs": [
        {
          "internalType": "address",
          "name": "newOwner",
          "type": "address"
        }
      ],
      "name": "updateOwnership",
      "outputs": [],
      "stateMutability": "nonpayable",
      "type": "function"
    },
    {
      "inputs": [],
      "name": "viewer",
      "outputs": [
        {
          "internalType": "address",
          "name": "",
          "type": "address"
        }
      ],
      "stateMutability": "view",
      "type": "function",
      "constant": true
    },
    {
      "inputs": [],
      "name": "getName",
      "outputs": [
        {
          "internalType": "string",
          "name": "",
          "type": "string"
        }
      ],
      "stateMutability": "view",
      "type": "function",
      "constant": true
    },
    {
      "inputs": [],
      "name": "getId",
      "outputs": [
        {
          "internalType": "bytes32",
          "name": "",
          "type": "bytes32"
        }
      ],
      "stateMutability": "view",
      "type": "function",
      "constant": true
    },
    {
      "inputs": [
        {
          "internalType": "bytes32",
          "name": "hname",
          "type": "bytes32"
        },
        {
          "internalType": "address",
          "name": "contractInstance",
          "type": "address"
        },
        {
          "internalType": "bool",
          "name": "isNew",
          "type": "bool"
        }
      ],
      "name": "onListenAdded",
      "outputs": [],
      "stateMutability": "nonpayable",
      "type": "function"
    },
    {
      "inputs": [
        {
          "internalType": "bytes32",
          "name": "hname",
          "type": "bytes32"
        }
      ],
      "name": "onListenRemoved",
      "outputs": [],
      "stateMutability": "nonpayable",
      "type": "function"
    },
    {
      "inputs": [
        {
          "internalType": "address",
          "name": "oldInstance",
          "type": "address"
        },
        {
          "internalType": "address",
          "name": "_manager",
          "type": "address"
        }
      ],
      "name": "onUpdate",
      "outputs": [],
      "stateMutability": "nonpayable",
      "type": "function"
    },
    {
      "inputs": [
        {
          "internalType": "address",
          "name": "newInstance",
          "type": "address"
        }
      ],
      "name": "onReplaced",
      "outputs": [],
      "stateMutability": "nonpayable",
      "type": "function"
    },
    {
      "inputs": [
        {
          "internalType": "address",
          "name": "_nft",
          "type": "address"
        }
      ],
      "name": "linkNFT",
      "outputs": [],
      "stateMutability": "nonpayable",
      "type": "function"
    },
    {
      "inputs": [
        {
          "internalType": "address",
          "name": "_viewer",
          "type": "address"
        }
      ],
      "name": "linkViewer",
      "outputs": [],
      "stateMutability": "nonpayable",
      "type": "function"
    },
    {
      "inputs": [
        {
          "internalType": "address",
          "name": "_stats",
          "type": "address"
        }
      ],
      "name": "linkStatsLib",
      "outputs": [],
      "stateMutability": "nonpayable",
      "type": "function"
    },
    {
      "inputs": [
        {
          "internalType": "address",
          "name": "tag_storage",
          "type": "address"
        }
      ],
      "name": "linkTAG",
      "outputs": [],
      "stateMutability": "nonpayable",
      "type": "function"
    },
    {
      "inputs": [
        {
          "internalType": "address",
          "name": "recipient",
          "type": "address"
        },
        {
          "internalType": "uint256",
          "name": "amount",
          "type": "uint256"
        }
      ],
      "name": "withdraw",
      "outputs": [],
      "stateMutability": "nonpayable",
      "type": "function"
    },
    {
      "inputs": [
        {
          "internalType": "uint256",
          "name": "token_id",
          "type": "uint256"
        }
      ],
      "name": "claim",
      "outputs": [],
      "stateMutability": "nonpayable",
      "type": "function"
    },
    {
      "inputs": [
        {
          "internalType": "address",
          "name": "to",
          "type": "address"
        },
        {
          "internalType": "uint256",
          "name": "token_id",
          "type": "uint256"
        },
        {
          "internalType": "uint256",
          "name": "reward_value",
          "type": "uint256"
        }
      ],
      "name": "setClaimed",
      "outputs": [],
      "stateMutability": "nonpayable",
      "type": "function"
    },
    {
      "inputs": [
        {
          "internalType": "uint256",
          "name": "token_id",
          "type": "uint256"
        }
      ],
      "name": "isClaimed",
      "outputs": [
        {
          "internalType": "bool",
          "name": "",
          "type": "bool"
        }
      ],
      "stateMutability": "view",
      "type": "function",
      "constant": true
    },
    {
      "inputs": [
        {
          "internalType": "enum Util.CardRarity",
          "name": "_rarity",
          "type": "uint8"
        },
        {
          "internalType": "uint256",
          "name": "_reward",
          "type": "uint256"
        }
      ],
      "name": "setReward",
      "outputs": [],
      "stateMutability": "nonpayable",
      "type": "function"
    },
    {
      "inputs": [
        {
          "internalType": "enum Util.CardRarity",
          "name": "_rarity",
          "type": "uint8"
        }
      ],
      "name": "getRewardValue",
      "outputs": [
        {
          "internalType": "uint256",
          "name": "",
          "type": "uint256"
        }
      ],
      "stateMutability": "view",
      "type": "function",
      "constant": true
    }
  ],
  "bytecode": "0x60c06040526008608081905267547265617375727960c01b60a09081526200002b916004919062000241565b5060405180604001604052806008815260200167547265617375727960c01b8152506040516020016200005f9190620002e7565b60408051601f198184030181529190528051602090910120600555600e805460ff1916600a1790553480156200009457600080fd5b50620000a033620000b3565b620000ad60003362000103565b62000362565b600080546001600160a01b038381166001600160a01b0319831681178455604051919092169283917f8be0079c531659141344cd1fd0a4f28419497f9722a3daafe3b4186f6b6457e09190a35050565b6200011a82826200014660201b620019291760201c565b60008281526002602090815260409091206200014191839062001994620001cf821b17901c565b505050565b60008281526001602090815260408083206001600160a01b038516845290915290205460ff16620001cb5760008281526001602081815260408084206001600160a01b0386168086529252808420805460ff19169093179092559051339285917f2f8788117e7eff1d82e926ec794901d17c78024a50270940304540a733656f0d9190a45b5050565b6000620001e6836001600160a01b038416620001ef565b90505b92915050565b60008181526001830160205260408120546200023857508154600181810184556000848152602080822090930184905584548482528286019093526040902091909155620001e9565b506000620001e9565b8280546200024f9062000325565b90600052602060002090601f016020900481019282620002735760008555620002be565b82601f106200028e57805160ff1916838001178555620002be565b82800160010185558215620002be579182015b82811115620002be578251825591602001919060010190620002a1565b50620002cc929150620002d0565b5090565b5b80821115620002cc5760008155600101620002d1565b6000825160005b818110156200030a5760208186018101518583015201620002ee565b818111156200031a576000828501525b509190910192915050565b600181811c908216806200033a57607f821691505b602082108114156200035c57634e487b7160e01b600052602260045260246000fd5b50919050565b61301180620003726000396000f3fe60806040526004361061025c5760003560e01c80638840891e11610144578063ca15c873116100b6578063d94796921161007a578063d94796921461075b578063ec87621c14610770578063ecc1d93b14610792578063f2fde38b146107b2578063f30878c1146107d2578063f3fef3a3146107f25761025c565b8063ca15c873146106c7578063d4697a47146106e7578063d539139314610705578063d547741f1461071b578063d80528ae1461073b5761025c565b80639e34070f116101085780639e34070f14610612578063a217fddf14610632578063a83993b714610647578063aadd048814610667578063affed65914610687578063c69c9579146106a75761025c565b80638840891e1461057457806388971bf5146105945780638da5cb5b146105b45780639010d07c146105d257806391d14854146105f25761025c565b8063379607f5116101dd5780635df11291116101a15780635df11291146104b35780636025e1f1146104d35780636b2bf27f146104f3578063715018a61461051357806380033daf1461052857806382bad2ca146105485761025c565b8063379607f5146104105780633ad32d161461043057806347ccca0214610446578063481c6a751461047e5780635d1ca6311461049e5761025c565b806317d7de7c1161022457806317d7de7c146103685780631a6f04f31461038a578063248a9ca31461039f5780632f2ff15d146103d057806336568abe146103f05761025c565b8063012f88861461029657806301ffc9a7146102d65780630447a2cd1461030657806306afd5881461032857806316f28d2414610348575b604080513381523460208201527fe1fffcc4923d04b559f4d29a8bfc6cda04eb5b0d3c460751c2402c5c5cc9109c910160405180910390a1005b3480156102a257600080fd5b506102c36102b1366004612811565b600b6020526000908152604090205481565b6040519081526020015b60405180910390f35b3480156102e257600080fd5b506102f66102f136600461282c565b610812565b60405190151581526020016102cd565b34801561031257600080fd5b5061032661032136600461286b565b61083d565b005b34801561033457600080fd5b506103266103433660046128a4565b610b04565b34801561035457600080fd5b506103266103633660046128e7565b610b8f565b34801561037457600080fd5b5061037d610cdc565b6040516102cd9190612981565b34801561039657600080fd5b50610326610d6e565b3480156103ab57600080fd5b506102c36103ba366004612994565b6000908152600160208190526040909120015490565b3480156103dc57600080fd5b506103266103eb3660046129ad565b610d78565b3480156103fc57600080fd5b5061032661040b3660046129ad565b610d9f565b34801561041c57600080fd5b5061032661042b366004612994565b610e1d565b34801561043c57600080fd5b506102c360055481565b34801561045257600080fd5b50600654610466906001600160a01b031681565b6040516001600160a01b0390911681526020016102cd565b34801561048a57600080fd5b50600354610466906001600160a01b031681565b3480156104aa57600080fd5b506005546102c3565b3480156104bf57600080fd5b506103266104ce3660046129d2565b61147d565b3480156104df57600080fd5b506103266104ee3660046129d2565b611486565b3480156104ff57600080fd5b5061032661050e3660046129d2565b6114b9565b34801561051f57600080fd5b506103266114c2565b34801561053457600080fd5b506103266105433660046129ef565b6114f6565b34801561055457600080fd5b50600e546105629060ff1681565b60405160ff90911681526020016102cd565b34801561058057600080fd5b5061032661058f3660046129d2565b61152a565b3480156105a057600080fd5b506103266105af3660046129d2565b611533565b3480156105c057600080fd5b506000546001600160a01b0316610466565b3480156105de57600080fd5b506104666105ed366004612a19565b611566565b3480156105fe57600080fd5b506102f661060d3660046129ad565b611585565b34801561061e57600080fd5b506102f661062d366004612994565b6115b0565b34801561063e57600080fd5b506102c3600081565b34801561065357600080fd5b50600954610466906001600160a01b031681565b34801561067357600080fd5b506103266106823660046129d2565b6116d8565b34801561069357600080fd5b506102c36106a2366004612811565b61170b565b3480156106b357600080fd5b506103266106c23660046129d2565b61174a565b3480156106d357600080fd5b506102c36106e2366004612994565b61175e565b3480156106f357600080fd5b50610326610702366004612994565b50565b34801561071157600080fd5b506102c3600a5481565b34801561072757600080fd5b506103266107363660046129ad565b611775565b34801561074757600080fd5b50600854610466906001600160a01b031681565b34801561076757600080fd5b5061037d61179c565b34801561077c57600080fd5b506102c3600080516020612fbc83398151915281565b34801561079e57600080fd5b506103266107ad3660046129d2565b61182a565b3480156107be57600080fd5b506103266107cd3660046129d2565b61185d565b3480156107de57600080fd5b50600754610466906001600160a01b031681565b3480156107fe57600080fd5b5061032661080d366004612a3b565b6118f5565b60006001600160e01b0319821663ee7ed59960e01b14806108375750610837826119a9565b92915050565b61084782826119ce565b60405163affed65960e01b815282906000906001600160a01b0383169063affed65990610878908490600401612a6f565b60206040518083038186803b15801561089057600080fd5b505afa1580156108a4573d6000803e3d6000fd5b505050506040513d601f19601f820116820180604052508101906108c89190612a97565b90506000826001600160a01b031663affed65960016040518263ffffffff1660e01b81526004016108f99190612a6f565b60206040518083038186803b15801561091157600080fd5b505afa158015610925573d6000803e3d6000fd5b505050506040513d601f19601f820116820180604052508101906109499190612a97565b90506000836001600160a01b031663affed65960026040518263ffffffff1660e01b815260040161097a9190612a6f565b60206040518083038186803b15801561099257600080fd5b505afa1580156109a6573d6000803e3d6000fd5b505050506040513d601f19601f820116820180604052508101906109ca9190612a97565b90506000846001600160a01b031663affed65960036040518263ffffffff1660e01b81526004016109fb9190612a6f565b60206040518083038186803b158015610a1357600080fd5b505afa158015610a27573d6000803e3d6000fd5b505050506040513d601f19601f82011682018060405250810190610a4b9190612a97565b90506000856001600160a01b031663affed65960046040518263ffffffff1660e01b8152600401610a7c9190612a6f565b60206040518083038186803b158015610a9457600080fd5b505afa158015610aa8573d6000803e3d6000fd5b505050506040513d601f19601f82011682018060405250810190610acc9190612a97565b9050610ad9600086611a61565b610ae4600185611a61565b610aef600284611a61565b610afa600482611a61565b5050505050505050565b6000546001600160a01b03163314610b375760405162461bcd60e51b8152600401610b2e90612ab0565b60405180910390fd5b610b4082611a9e565b604080516001600160a01b0385168152602081018490529081018290527f987d620f307ff6b94d58743cb7a7509f24071586a77759b77c2d4e29f75a2f9a9060600160405180910390a1505050565b610ba7600080516020612fbc83398151915233611585565b610bc35760405162461bcd60e51b8152600401610b2e90612ae5565b7fc227f98e618597415dca1f5035d597d1e75936952bfd5d741271dd85ba110d90831415610bf957610bf482611c29565b505050565b6040518060400160405280600b81526020016a447261676f6e537461747360a81b815250604051602001610c2d9190612b42565b60405160208183030381529060405280519060200120831415610c5357610bf482611cfc565b6040518060400160405280600981526020016853746174735669657760b81b815250604051602001610c859190612b42565b60405160208183030381529060405280519060200120831415610cab57610bf482611e7d565b7fdfa926e49ecb76ef0407533073c674d3e6a6fb4a00d7941099f34757f314c42e831415610bf457610bf482611ecb565b606060048054610ceb90612b5e565b80601f0160208091040260200160405190810160405280929190818152602001828054610d1790612b5e565b8015610d645780601f10610d3957610100808354040283529160200191610d64565b820191906000526020600020905b815481529060010190602001808311610d4757829003601f168201915b5050505050905090565b610d76611f19565b565b60008281526001602081905260409091200154610d958133611f88565b610bf48383611fec565b6001600160a01b0381163314610e0f5760405162461bcd60e51b815260206004820152602f60248201527f416363657373436f6e74726f6c3a2063616e206f6e6c792072656e6f756e636560448201526e103937b632b9903337b91039b2b63360891b6064820152608401610b2e565b610e19828261200e565b5050565b60065460405163bd85b03960e01b8152600481018390526001600160a01b039091169063bd85b0399060240160206040518083038186803b158015610e6157600080fd5b505afa158015610e75573d6000803e3d6000fd5b505050506040513d601f19601f82011682018060405250810190610e999190612a97565b600114610f075760405162461bcd60e51b815260206004820152603660248201527f54726561737572793a2054686520746f6b656e206d7573742062652070726573604482015275656e7420696e2073696e676c65207175616e7469747960501b6064820152608401610b2e565b6006546040516331a9108f60e11b8152600481018390526000916001600160a01b031690636352211e9060240160206040518083038186803b158015610f4c57600080fd5b505afa158015610f60573d6000803e3d6000fd5b505050506040513d601f19601f82011682018060405250810190610f849190612b99565b90506001600160a01b038116331461101557610fa3600a5461060d3390565b6110155760405162461bcd60e51b815260206004820152603760248201527f54726561737572793a2054686520726577617264206d75737420626520636c6160448201527f696d656420746f2074686520746f6b656e206f776e65720000000000000000006064820152608401610b2e565b60065460405163c588ff8b60e01b815260048101849052600080516020612f9c833981519152916001600160a01b03169063c588ff8b9060240160206040518083038186803b15801561106757600080fd5b505afa15801561107b573d6000803e3d6000fd5b505050506040513d601f19601f8201168201806040525081019061109f9190612a97565b146111085760405162461bcd60e51b815260206004820152603360248201527f54726561737572793a2054686520746f6b656e206d757374206265206f6620446044820152727261676f6e2043617264204e4654207479706560681b6064820152608401610b2e565b604051639e34070f60e01b8152600481018390523090639e34070f9060240160206040518083038186803b15801561113f57600080fd5b505afa158015611153573d6000803e3d6000fd5b505050506040513d601f19601f820116820180604052508101906111779190612bb6565b156111e15760405162461bcd60e51b815260206004820152603460248201527f54726561737572793a20546865206361726427732072657761726420686173206044820152731899595b88185b1c9958591e4818db185a5b595960621b6064820152608401610b2e565b6111ea82611a9e565b600754604051638462357360e01b81526000916001600160a01b03169063846235739061122e90600080516020612f9c833981519152908790600d90600401612bd3565b60006040518083038186803b15801561124657600080fd5b505afa15801561125a573d6000803e3d6000fd5b505050506040513d6000823e601f3d908101601f191682016040526112829190810190612d52565b608001511561129357506003611342565b600754604051638462357360e01b81526001600160a01b03909116906384623573906112d690600080516020612f9c833981519152908790600c90600401612bd3565b60006040518083038186803b1580156112ee57600080fd5b505afa158015611302573d6000803e3d6000fd5b505050506040513d6000823e601f3d908101601f1916820160405261132a9190810190612d52565b60200151600481111561133f5761133f612a59565b90505b6000600b600083600481111561135a5761135a612a59565b600481111561136b5761136b612a59565b8152602001908152602001600020549050600081111561147757600080846001600160a01b03168360405160006040518083038185875af1925050503d80600081146113d3576040519150601f19603f3d011682016040523d82523d6000602084013e6113d8565b606091505b50915091508161142a5760405162461bcd60e51b815260206004820152601d60248201527f54726561737572793a204661696c656420746f20636c61696d20424e420000006044820152606401610b2e565b604080516001600160a01b0387168152602081018890529081018490527f987d620f307ff6b94d58743cb7a7509f24071586a77759b77c2d4e29f75a2f9a9060600160405180910390a150505b50505050565b61070281612030565b6000546001600160a01b031633146114b05760405162461bcd60e51b8152600401610b2e90612ab0565b61070281611ecb565b610702816120e8565b6000546001600160a01b031633146114ec5760405162461bcd60e51b8152600401610b2e90612ab0565b610d76600061215e565b6000546001600160a01b031633146115205760405162461bcd60e51b8152600401610b2e90612ab0565b610e198282611a61565b610702816121ae565b6000546001600160a01b0316331461155d5760405162461bcd60e51b8152600401610b2e90612ab0565b61070281611cfc565b600082815260026020526040812061157e9083612230565b9392505050565b60009182526001602090815260408084206001600160a01b0393909316845291905290205460ff1690565b600754600854604080516309dea7c760e31b815290516000936001600160a01b0390811693638462357393600080516020612f9c83398151915293889390921691634ef53e38916004808201928a92909190829003018186803b15801561161657600080fd5b505afa15801561162a573d6000803e3d6000fd5b505050506040513d6000823e601f3d908101601f191682016040526116529190810190612e01565b6040518463ffffffff1660e01b815260040161167093929190612e3e565b60006040518083038186803b15801561168857600080fd5b505afa9250505080156116bd57506040513d6000823e601f3d908101601f191682016040526116ba9190810190612d52565b60015b6116c957506000919050565b6080015192915050565b919050565b6000546001600160a01b031633146117025760405162461bcd60e51b8152600401610b2e90612ab0565b61070281611c29565b6000600b600083600481111561172357611723612a59565b600481111561173457611734612a59565b8152602001908152602001600020549050919050565b6117538161223c565b47610e1982826122b9565b6000818152600260205260408120610837906123a6565b600082815260016020819052604090912001546117928133611f88565b610bf4838361200e565b600480546117a990612b5e565b80601f01602080910402602001604051908101604052809291908181526020018280546117d590612b5e565b80156118225780601f106117f757610100808354040283529160200191611822565b820191906000526020600020905b81548152906001019060200180831161180557829003601f168201915b505050505081565b6000546001600160a01b031633146118545760405162461bcd60e51b8152600401610b2e90612ab0565b61070281611e7d565b6000546001600160a01b031633146118875760405162461bcd60e51b8152600401610b2e90612ab0565b6001600160a01b0381166118ec5760405162461bcd60e51b815260206004820152602660248201527f4f776e61626c653a206e6577206f776e657220697320746865207a65726f206160448201526564647265737360d01b6064820152608401610b2e565b6107028161215e565b6000546001600160a01b0316331461191f5760405162461bcd60e51b8152600401610b2e90612ab0565b610e1982826122b9565b6119338282611585565b610e195760008281526001602081815260408084206001600160a01b0386168086529252808420805460ff19169093179092559051339285917f2f8788117e7eff1d82e926ec794901d17c78024a50270940304540a733656f0d9190a45050565b600061157e836001600160a01b0384166123b0565b60006001600160e01b03198216635a05180f60e01b14806108375750610837826123ff565b6119e6600080516020612fbc83398151915233611585565b611a025760405162461bcd60e51b8152600401610b2e90612ae5565b600380546001600160a01b0319166001600160a01b0383811691821790925560408051928516835260208301919091527ff6515f2a6d531f16723c1e578303b7d74152bf8c0fa3bee828700a3d4706da8d910160405180910390a15050565b80600b6000846004811115611a7857611a78612a59565b6004811115611a8957611a89612a59565b81526020810191909152604001600020555050565b600073__Util__________________________________63dfbd4a0583600860009054906101000a90046001600160a01b03166001600160a01b0316634ef53e386040518163ffffffff1660e01b815260040160006040518083038186803b158015611b0957600080fd5b505afa158015611b1d573d6000803e3d6000fd5b505050506040513d6000823e601f3d908101601f19168201604052611b459190810190612e01565b6040518363ffffffff1660e01b8152600401611b62929190612e66565b60206040518083038186803b158015611b7a57600080fd5b505af4158015611b8e573d6000803e3d6000fd5b505050506040513d601f19601f82011682018060405250810190611bb29190612a97565b600954600e5460405163d713085b60e01b815260ff909116600482015260248101839052600160448201529192506001600160a01b03169063d713085b90606401600060405180830381600087803b158015611c0d57600080fd5b505af1158015611c21573d6000803e3d6000fd5b505050505050565b600680546001600160a01b0319166001600160a01b0383169081179091556040805163d539139360e01b8152905163d539139391600480820192602092909190829003018186803b158015611c7d57600080fd5b505afa158015611c91573d6000803e3d6000fd5b505050506040513d601f19601f82011682018060405250810190611cb59190612a97565b600a556006546040516001600160a01b0390911681527f7869e3c19f5ec29481a8433791a06441db7b22cd85336da47df97fd7b686ba2a906020015b60405180910390a150565b600880546001600160a01b0319166001600160a01b0383169081179091556040805163091a7f8b60e41b815290516391a7f8b091600480820192600092909190829003018186803b158015611d5057600080fd5b505afa158015611d64573d6000803e3d6000fd5b505050506040513d6000823e601f3d908101601f19168201604052611d8c9190810190612e01565b8051611da091600c91602090910190612769565b50600860009054906101000a90046001600160a01b03166001600160a01b03166319cd4c3d6040518163ffffffff1660e01b815260040160006040518083038186803b158015611def57600080fd5b505afa158015611e03573d6000803e3d6000fd5b505050506040513d6000823e601f3d908101601f19168201604052611e2b9190810190612e01565b8051611e3f91600d91602090910190612769565b506008546040516001600160a01b0390911681527f8eabd18158736228e0bcd01444e967ae9262cdb0e8a88fb154542a13f701bf7b90602001611cf1565b600780546001600160a01b0319166001600160a01b0383169081179091556040519081527f6a18b90af8b2ae0add67d0ae89a6972d279fd5888cd58c820f581fa70f2d54bd90602001611cf1565b600980546001600160a01b0319166001600160a01b0383169081179091556040519081527fd6bd8455a554480b643ff6104fea79e1a7c1b27d210a7e7911a3b6a3c64b707990602001611cf1565b611f31600080516020612fbc83398151915233611585565b611f4d5760405162461bcd60e51b8152600401610b2e90612ae5565b600380546001600160a01b03191690556040517f9a9a74cf290a994f69a718e8557deb1dd65135268f40e660cecddf675f5dd51490600090a1565b611f928282611585565b610e1957611faa816001600160a01b03166014612434565b611fb5836020612434565b604051602001611fc6929190612e7f565b60408051601f198184030181529082905262461bcd60e51b8252610b2e91600401612981565b611ff68282611929565b6000828152600260205260409020610bf49082611994565b61201882826125d0565b6000828152600260205260409020610bf49082612637565b612048600080516020612fbc83398151915233611585565b6120645760405162461bcd60e51b8152600401610b2e90612ae5565b600380546001600160a01b0319166001600160a01b038316179055612097600080516020612fbc83398151915282610d78565b6120af600080516020612fbc83398151915233611775565b6040516001600160a01b03821681527f8eb47098f9568be754f51d21a870c8091ee0242cf97418db00927326d0e6ffcf90602001611cf1565b612100600080516020612fbc83398151915233611585565b61211c5760405162461bcd60e51b8152600401610b2e90612ae5565b6121258161185d565b6040516001600160a01b03821681527ff2addf7f813887cf0fdd82b58fcc379ab2301e95c90b41a8cf2e5401914689c990602001611cf1565b600080546001600160a01b038381166001600160a01b0319831681178455604051919092169283917f8be0079c531659141344cd1fd0a4f28419497f9722a3daafe3b4186f6b6457e09190a35050565b6121c6600080516020612fbc83398151915233611585565b6121e25760405162461bcd60e51b8152600401610b2e90612ae5565b600380546001600160a01b0319166001600160a01b0383169081179091556040519081527f89c66952b48f3e96bf1d8ba1b63189520fd988a6979b8b740bd5c5d8dc53e20590602001611cf1565b600061157e838361264c565b612254600080516020612fbc83398151915233611585565b6122705760405162461bcd60e51b8152600401610b2e90612ae5565b600380546001600160a01b03191690556040516001600160a01b03821681527f85a56ff958486f55dd742819603a46ba6233d3b24e6715f9cd5fd2ef6425d68090602001611cf1565b600080836001600160a01b03168360405160006040518083038185875af1925050503d8060008114612307576040519150601f19603f3d011682016040523d82523d6000602084013e61230c565b606091505b50915091508161235e5760405162461bcd60e51b815260206004820181905260248201527f54726561737572793a204661696c656420746f20776974686472617720424e426044820152606401610b2e565b604080516001600160a01b0386168152602081018590527f884edad9ce6fa2440d8a54cc123490eb96d2768479d49ff9c7366125a9424364910160405180910390a150505050565b6000610837825490565b60008181526001830160205260408120546123f757508154600181810184556000848152602080822090930184905584548482528286019093526040902091909155610837565b506000610837565b60006001600160e01b03198216637965db0b60e01b148061083757506301ffc9a760e01b6001600160e01b0319831614610837565b60606000612443836002612f0a565b61244e906002612f29565b67ffffffffffffffff81111561246657612466612c8b565b6040519080825280601f01601f191660200182016040528015612490576020820181803683370190505b509050600360fc1b816000815181106124ab576124ab612f41565b60200101906001600160f81b031916908160001a905350600f60fb1b816001815181106124da576124da612f41565b60200101906001600160f81b031916908160001a90535060006124fe846002612f0a565b612509906001612f29565b90505b6001811115612581576f181899199a1a9b1b9c1cb0b131b232b360811b85600f166010811061253d5761253d612f41565b1a60f81b82828151811061255357612553612f41565b60200101906001600160f81b031916908160001a90535060049490941c9361257a81612f57565b905061250c565b50831561157e5760405162461bcd60e51b815260206004820181905260248201527f537472696e67733a20686578206c656e67746820696e73756666696369656e746044820152606401610b2e565b6125da8282611585565b15610e195760008281526001602090815260408083206001600160a01b0385168085529252808320805460ff1916905551339285917ff6391f5c32d9c69d2a47ea670b442974b53935d1edc7fd64eb21e047a839171b9190a45050565b600061157e836001600160a01b038416612676565b600082600001828154811061266357612663612f41565b9060005260206000200154905092915050565b6000818152600183016020526040812054801561275f57600061269a600183612f6e565b85549091506000906126ae90600190612f6e565b90508181146127135760008660000182815481106126ce576126ce612f41565b90600052602060002001549050808760000184815481106126f1576126f1612f41565b6000918252602080832090910192909255918252600188019052604090208390555b855486908061272457612724612f85565b600190038181906000526020600020016000905590558560010160008681526020019081526020016000206000905560019350505050610837565b6000915050610837565b82805461277590612b5e565b90600052602060002090601f01602090048101928261279757600085556127dd565b82601f106127b057805160ff19168380011785556127dd565b828001600101855582156127dd579182015b828111156127dd5782518255916020019190600101906127c2565b506127e99291506127ed565b5090565b5b808211156127e957600081556001016127ee565b8035600581106116d357600080fd5b60006020828403121561282357600080fd5b61157e82612802565b60006020828403121561283e57600080fd5b81356001600160e01b03198116811461157e57600080fd5b6001600160a01b038116811461070257600080fd5b6000806040838503121561287e57600080fd5b823561288981612856565b9150602083013561289981612856565b809150509250929050565b6000806000606084860312156128b957600080fd5b83356128c481612856565b95602085013595506040909401359392505050565b801515811461070257600080fd5b6000806000606084860312156128fc57600080fd5b83359250602084013561290e81612856565b9150604084013561291e816128d9565b809150509250925092565b60005b8381101561294457818101518382015260200161292c565b838111156114775750506000910152565b6000815180845261296d816020860160208601612929565b601f01601f19169290920160200192915050565b60208152600061157e6020830184612955565b6000602082840312156129a657600080fd5b5035919050565b600080604083850312156129c057600080fd5b82359150602083013561289981612856565b6000602082840312156129e457600080fd5b813561157e81612856565b60008060408385031215612a0257600080fd5b612a0b83612802565b946020939093013593505050565b60008060408385031215612a2c57600080fd5b50508035926020909101359150565b60008060408385031215612a4e57600080fd5b8235612a0b81612856565b634e487b7160e01b600052602160045260246000fd5b6020810160058310612a9157634e487b7160e01b600052602160045260246000fd5b91905290565b600060208284031215612aa957600080fd5b5051919050565b6020808252818101527f4f776e61626c653a2063616c6c6572206973206e6f7420746865206f776e6572604082015260600190565b6020808252603b908201527f43726f7373436f6e74726163744d616e4c697374656e65723a2074686520636160408201527f6c6c6572206d7573742068617665204d414e414745525f524f4c450000000000606082015260800190565b60008251612b54818460208701612929565b9190910192915050565b600181811c90821680612b7257607f821691505b60208210811415612b9357634e487b7160e01b600052602260045260246000fd5b50919050565b600060208284031215612bab57600080fd5b815161157e81612856565b600060208284031215612bc857600080fd5b815161157e816128d9565b838152600060208481840152606060408401526000845481600182811c915080831680612c0157607f831692505b858310811415612c1f57634e487b7160e01b85526022600452602485fd5b6060880183905260808801818015612c3e5760018114612c4f57612c7a565b60ff19861682528782019650612c7a565b60008b81526020902060005b86811015612c7457815484820152908501908901612c5b565b83019750505b50949b9a5050505050505050505050565b634e487b7160e01b600052604160045260246000fd5b60405160a0810167ffffffffffffffff81118282101715612cc457612cc4612c8b565b60405290565b600082601f830112612cdb57600080fd5b815167ffffffffffffffff80821115612cf657612cf6612c8b565b604051601f8301601f19908116603f01168101908282118183101715612d1e57612d1e612c8b565b81604052838152866020858801011115612d3757600080fd5b612d48846020830160208901612929565b9695505050505050565b600060208284031215612d6457600080fd5b815167ffffffffffffffff80821115612d7c57600080fd5b9083019060a08286031215612d9057600080fd5b612d98612ca1565b825160048110612da757600080fd5b815260208381015190820152604083015182811115612dc557600080fd5b612dd187828601612cca565b6040830152506060830151606082015260808301519250612df1836128d9565b6080810192909252509392505050565b600060208284031215612e1357600080fd5b815167ffffffffffffffff811115612e2a57600080fd5b612e3684828501612cca565b949350505050565b838152826020820152606060408201526000612e5d6060830184612955565b95945050505050565b828152604060208201526000612e366040830184612955565b7f416363657373436f6e74726f6c3a206163636f756e7420000000000000000000815260008351612eb7816017850160208801612929565b7001034b99036b4b9b9b4b733903937b6329607d1b6017918401918201528351612ee8816028840160208801612929565b01602801949350505050565b634e487b7160e01b600052601160045260246000fd5b6000816000190483118215151615612f2457612f24612ef4565b500290565b60008219821115612f3c57612f3c612ef4565b500190565b634e487b7160e01b600052603260045260246000fd5b600081612f6657612f66612ef4565b506000190190565b600082821015612f8057612f80612ef4565b500390565b634e487b7160e01b600052603160045260246000fdfe37a3c4a2a635dedf6a4912ec5757511a1f2fa87cb349543d4751fc18c65e4273241ecf16d79d0f8dbfb92cbc07fe17840425976cf0667f022fe9877caa831b08a26469706673582212209862e664afbb7605718aee123d8ea617af429c504df129d98fdf970927ba096c64736f6c63430008090033",
  "immutableReferences": {},
  "source": "// SPDX-License-Identifier: MIT\npragma solidity ^0.8;\n\nimport \"@openzeppelin/contracts/access/Ownable.sol\";\nimport \"./FireZardNFT.sol\";\nimport \"./StatsView.sol\";\nimport \"./DragonStats.sol\";\nimport \"./TagStorage.sol\";\nimport \"./CrossContractManListener.sol\";\nimport {Util} from \"./Util.sol\";\n\ncontract Treasury is CrossContractManListener {\n    string  public contract_name = Util.TREASURY_CONTRACT_NAME;\n    bytes32 public contract_id = Util.TREASURY_CONTRACT_ID;\n\n    address public\tnft;\n    address public\tviewer;\n    address public\tstats;\n    address public\tTAG_addr;\n\n    bytes32 public MINTER_ROLE;\n\n    mapping(Util.CardRarity => uint256)\tpublic\treward_table;\n\n//    mapping(uint256 => bool)\t\tpublic\tclaims;\n\n    string rarity_str;\n    string rarity_override_str;\n\n    uint8 public group_id = 10;\n\n    modifier onlyMinter() {\n\trequire(hasRole(MINTER_ROLE, _msgSender()), \"Treasury: must have minter role to claim rewards\");\n\t_;\n    }\n\n/*    constructor(address _nft, address _viewer, address _stats) {\n\tnft = _nft;\n\tviewer = _viewer;\n\tstats = _stats;\n\trarity_str  = DragonStats(stats).RARITY_STR();\n\trarity_override_str  = DragonStats(stats).RARITY_OVERRIDE_STR();\n\tMINTER_ROLE = FireZardNFT(nft).MINTER_ROLE();\n\n\tsuper._setupRole(DEFAULT_ADMIN_ROLE,msg.sender);\n    }*/\n\n    function getName() view external returns(string memory) {\n\treturn contract_name;\n    }\n\n    function getId() view external returns(bytes32) {\n\treturn contract_id;\n    }\n\n    function onListenAdded(bytes32 hname, address contractInstance, bool isNew) external onlyManager {\n\tif(hname == Util.NFT_CONTRACT_ID){\n\t    _linkNFT(contractInstance);\n\t    return;\n\t}\n\tif(hname == Util.DRAGON_STATS_CONTRACT_ID){\n\t    _linkStatsLib(contractInstance);\n\t    return;\n\t}\n\tif(hname == Util.STATS_VIEW_CONTRACT_ID){\n\t    _linkViewer(contractInstance);\n\t    return;\n\t}\n\tif(hname == Util.TAG_STORAGE_CONTRACT_ID){\n\t    _linkTAG(contractInstance);\n\t    return;\n\t}\n    }\n\n    function onListenRemoved(bytes32 hname) external {}\n\n    function onUpdate(address oldInstance, address _manager) external override {\n\tsuper._onUpdate(oldInstance, _manager);\n\n\taddress payable oldAddr = payable(oldInstance);\n\n\tuint256 UR_v = Treasury(oldAddr).getRewardValue(Util.CardRarity.Ultra_Rare);\n\tuint256 SR_v = Treasury(oldAddr).getRewardValue(Util.CardRarity.Super_Rare);\n\tuint256 R_v = Treasury(oldAddr).getRewardValue(Util.CardRarity.Rare);\n\tuint256 U_v = Treasury(oldAddr).getRewardValue(Util.CardRarity.Uncommon);\n\tuint256 C_v = Treasury(oldAddr).getRewardValue(Util.CardRarity.Common);\n\n\t_setReward(Util.CardRarity.Ultra_Rare, UR_v);\n\t_setReward(Util.CardRarity.Super_Rare, SR_v);\n\t_setReward(Util.CardRarity.Rare, R_v);\n\t_setReward(Util.CardRarity.Common, C_v);\n    }\n\n    function onReplaced(address newInstance) external virtual override {\n\tsuper._onReplaced(newInstance);\n\n\tuint256 balance = address(this).balance;\n\n\t_withdraw(newInstance, balance);\n    }\n\n    /**\n     * @notice Sets link to ERC1155 NFT smart contract\n    **/\n    function _linkNFT(address _nft) internal {\n        nft = _nft;\n\tMINTER_ROLE = FireZardNFT(nft).MINTER_ROLE();\n        emit NFTLink(nft);\n    }\n\n    /**\n     * @notice Sets link to Tag Storage smart contract\n    **/\n    function _linkViewer(address _viewer) internal {\n        viewer = _viewer;\n        emit ViewLink(viewer);\n    }\n\n    /**\n     * @notice Sets link to the Stats deriving library\n    **/\n    function _linkStatsLib(address _stats) internal {\n        stats = _stats;\n\trarity_str  = DragonStats(stats).RARITY_STR();\n\trarity_override_str  = DragonStats(stats).RARITY_OVERRIDE_STR();\n        emit StatsLibLink(stats);\n    }\n\n    function _linkTAG(address tag_storage) internal {\n\tTAG_addr = tag_storage;\n\temit TAGLink(tag_storage);\n    }\n\n\n    /**\n     * @notice Sets link to ERC1155 NFT smart contract\n    **/\n    function linkNFT(address _nft) public virtual onlyOwner {\n        _linkNFT(_nft);\n    }\n\n    /**\n     * @notice Sets link to Tag Storage smart contract\n    **/\n    function linkViewer(address _viewer) public virtual onlyOwner {\n\t_linkViewer(_viewer);\n    }\n\n    /**\n     * @notice Sets link to the Stats deriving library\n    **/\n    function linkStatsLib(address _stats) public virtual onlyOwner {\n\t_linkStatsLib(_stats);\n    }\n\n    /**\n     * @notice Sets link to Tag Storage smart contract\n    **/\n    function linkTAG(address tag_storage) public virtual onlyOwner {\n\t_linkTAG(tag_storage);\n    }\n\n    // Deposit funds\n    fallback() external payable {\n\temit Deposit(msg.sender, msg.value);\n    }\n\n    function withdraw(address recipient, uint256 amount) external onlyOwner {\n\t_withdraw(recipient, amount);\n    }\n\n    function _withdraw(address recipient, uint256 amount) internal {\n\t(bool _res, bytes memory _data) = recipient.call{value: amount}(\"\");\n\trequire(_res, \"Treasury: Failed to withdraw BNB\");\n\temit Withdraw(recipient, amount);\n    }\n\n    function claim(uint256 token_id) external {\n\trequire(FireZardNFT(nft).totalSupply(token_id) == 1, \"Treasury: The token must be present in single quantity\");\n\n\taddress to = FireZardNFT(nft).ownerOf(token_id);\n\tif(to != _msgSender())\n\t    if(!hasRole(MINTER_ROLE, _msgSender()))\n\t\trevert(\"Treasury: The reward must be claimed to the token owner\");\n\n\trequire(FireZardNFT(nft).typeOf(token_id) == Util.DRAGON_CARD_TYPE_CODE, \"Treasury: The token must be of Dragon Card NFT type\");\n\trequire(!this.isClaimed(token_id), \"Treasury: The card's reward has been already claimed\");\n\n//\tclaims[token_id] = true;\n\t_setClaimed(token_id);\n\tUtil.CardRarity card_rarity;\n\tif(StatsView(viewer).getStat(Util.DRAGON_CARD_TYPE_CODE, token_id, rarity_override_str).bool_val)\n\t    card_rarity = Util.CardRarity.Uncommon;\n\telse\n\t    card_rarity = Util.CardRarity(StatsView(viewer).getStat(Util.DRAGON_CARD_TYPE_CODE, token_id, rarity_str).int_val);\n\tuint256 reward_value = reward_table[card_rarity];\n\tif(reward_value>0){\n\t    (bool _res, bytes memory _data) = to.call{value: reward_value}(\"\");\n\t    require(_res, \"Treasury: Failed to claim BNB\");\n\t    emit Claimed(to, token_id, reward_value);\n\t}\n    }\n\n    function setClaimed(address to, uint256 token_id, uint256 reward_value) external onlyOwner {\n\t_setClaimed(token_id);\n        emit Claimed(to, token_id, reward_value);\n    }\n\n    function _setClaimed(uint256 token_id) internal {\n//\tclaims[token_id] = true;\n\tbytes32 tag_key = Util.getTagKey(token_id, DragonStats(stats).CARD_CLAIMED_STR());\n        TagStorage(TAG_addr).setTag(group_id, tag_key, true);\n    }\n\n\n    function isClaimed(uint256 token_id) external view returns(bool) {\n//\tbytes32 tag_key = Util.getTagKey(token_id, DragonStats(stats).CARD_CLAIMED_STR());\n\ttry StatsView(viewer).getStat(Util.DRAGON_CARD_TYPE_CODE, token_id, DragonStats(stats).CARD_CLAIMED_STR()) returns(Util.StatValue memory result){\n\t    return result.bool_val;\n\t}catch{\n\t    return false;\n\t}\n    }\n\n    function setReward(Util.CardRarity _rarity, uint256 _reward) external onlyOwner {\n\t_setReward(_rarity, _reward);\n    }\n\n    function _setReward(Util.CardRarity _rarity, uint256 _reward) internal {\n\treward_table[_rarity] = _reward;\n    }\n\n    function getRewardValue(Util.CardRarity _rarity) external view returns (uint256) {\n\treturn reward_table[_rarity];\n    }\n\n    event NFTLink(address contract_addr);\n    event ViewLink(address contract_addr);\n    event StatsLibLink(address contract_addr);\n    event Deposit(address sender, uint256 amount);\n    event Withdraw(address sender, uint256 amount);\n    event Claimed(address sender, uint256 token_id, uint256 value);\n    event TAGLink(address tag_storage);\n}\n",
  "sourcePath": "/home/vrogojin/Projects/FireZard/nft/contracts/Treasury.sol",
  "compiler": {
    "name": "solc",
    "version": "0.8.9+commit.e5eed63a.Emscripten.clang"
  },
  "schemaVersion": "3.4.3",
  "updatedAt": "2022-02-10T15:24:34.974Z",
  "networkType": "ethereum",
  "devdoc": {
    "kind": "dev",
    "methods": {
      "getRoleAdmin(bytes32)": {
        "details": "Returns the admin role that controls `role`. See {grantRole} and {revokeRole}. To change a role's admin, use {_setRoleAdmin}."
      },
      "getRoleMember(bytes32,uint256)": {
        "details": "Returns one of the accounts that have `role`. `index` must be a value between 0 and {getRoleMemberCount}, non-inclusive. Role bearers are not sorted in any particular way, and their ordering may change at any point. WARNING: When using {getRoleMember} and {getRoleMemberCount}, make sure you perform all queries on the same block. See the following https://forum.openzeppelin.com/t/iterating-over-elements-on-enumerableset-in-openzeppelin-contracts/2296[forum post] for more information."
      },
      "getRoleMemberCount(bytes32)": {
        "details": "Returns the number of accounts that have `role`. Can be used together with {getRoleMember} to enumerate all bearers of a role."
      },
      "grantRole(bytes32,address)": {
        "details": "Grants `role` to `account`. If `account` had not been already granted `role`, emits a {RoleGranted} event. Requirements: - the caller must have ``role``'s admin role."
      },
      "hasRole(bytes32,address)": {
        "details": "Returns `true` if `account` has been granted `role`."
      },
      "owner()": {
        "details": "Returns the address of the current owner."
      },
      "renounceOwnership()": {
        "details": "Leaves the contract without owner. It will not be possible to call `onlyOwner` functions anymore. Can only be called by the current owner. NOTE: Renouncing ownership will leave the contract without an owner, thereby removing any functionality that is only available to the owner."
      },
      "renounceRole(bytes32,address)": {
        "details": "Revokes `role` from the calling account. Roles are often managed via {grantRole} and {revokeRole}: this function's purpose is to provide a mechanism for accounts to lose their privileges if they are compromised (such as when a trusted device is misplaced). If the calling account had been revoked `role`, emits a {RoleRevoked} event. Requirements: - the caller must be `account`."
      },
      "revokeRole(bytes32,address)": {
        "details": "Revokes `role` from `account`. If `account` had been granted `role`, emits a {RoleRevoked} event. Requirements: - the caller must have ``role``'s admin role."
      },
      "supportsInterface(bytes4)": {
        "details": "See {IERC165-supportsInterface}."
      },
      "transferOwnership(address)": {
        "details": "Transfers ownership of the contract to a new account (`newOwner`). Can only be called by the current owner."
      }
    },
    "version": 1
  },
  "userdoc": {
    "kind": "user",
    "methods": {
      "linkNFT(address)": {
        "notice": "Sets link to ERC1155 NFT smart contract*"
      },
      "linkStatsLib(address)": {
        "notice": "Sets link to the Stats deriving library*"
      },
      "linkTAG(address)": {
        "notice": "Sets link to Tag Storage smart contract*"
      },
      "linkViewer(address)": {
        "notice": "Sets link to Tag Storage smart contract*"
      }
    },
    "version": 1
  }
}