{
  "contractName": "Treasury",
  "abi": [
    {
      "anonymous": false,
      "inputs": [
        {
          "indexed": false,
          "internalType": "address",
          "name": "sender",
          "type": "address"
        },
        {
          "indexed": false,
          "internalType": "uint256",
          "name": "token_id",
          "type": "uint256"
        },
        {
          "indexed": false,
          "internalType": "uint256",
          "name": "value",
          "type": "uint256"
        }
      ],
      "name": "Claimed",
      "type": "event"
    },
    {
      "anonymous": false,
      "inputs": [
        {
          "indexed": false,
          "internalType": "address",
          "name": "_manager",
          "type": "address"
        }
      ],
      "name": "ContractAdded",
      "type": "event"
    },
    {
      "anonymous": false,
      "inputs": [
        {
          "indexed": false,
          "internalType": "address",
          "name": "newManager",
          "type": "address"
        }
      ],
      "name": "ContractManagerSwitch",
      "type": "event"
    },
    {
      "anonymous": false,
      "inputs": [
        {
          "indexed": false,
          "internalType": "address",
          "name": "newOwner",
          "type": "address"
        }
      ],
      "name": "ContractOwnershipUpdate",
      "type": "event"
    },
    {
      "anonymous": false,
      "inputs": [],
      "name": "ContractRemoved",
      "type": "event"
    },
    {
      "anonymous": false,
      "inputs": [
        {
          "indexed": false,
          "internalType": "address",
          "name": "contractInstance",
          "type": "address"
        }
      ],
      "name": "ContractReplaced",
      "type": "event"
    },
    {
      "anonymous": false,
      "inputs": [
        {
          "indexed": false,
          "internalType": "address",
          "name": "oldInstance",
          "type": "address"
        },
        {
          "indexed": false,
          "internalType": "address",
          "name": "_manager",
          "type": "address"
        }
      ],
      "name": "ContractUpdated",
      "type": "event"
    },
    {
      "anonymous": false,
      "inputs": [
        {
          "indexed": false,
          "internalType": "address",
          "name": "sender",
          "type": "address"
        },
        {
          "indexed": false,
          "internalType": "uint256",
          "name": "amount",
          "type": "uint256"
        }
      ],
      "name": "Deposit",
      "type": "event"
    },
    {
      "anonymous": false,
      "inputs": [
        {
          "indexed": false,
          "internalType": "address",
          "name": "contract_addr",
          "type": "address"
        }
      ],
      "name": "NFTLink",
      "type": "event"
    },
    {
      "anonymous": false,
      "inputs": [
        {
          "indexed": true,
          "internalType": "address",
          "name": "previousOwner",
          "type": "address"
        },
        {
          "indexed": true,
          "internalType": "address",
          "name": "newOwner",
          "type": "address"
        }
      ],
      "name": "OwnershipTransferred",
      "type": "event"
    },
    {
      "anonymous": false,
      "inputs": [
        {
          "indexed": true,
          "internalType": "bytes32",
          "name": "role",
          "type": "bytes32"
        },
        {
          "indexed": true,
          "internalType": "bytes32",
          "name": "previousAdminRole",
          "type": "bytes32"
        },
        {
          "indexed": true,
          "internalType": "bytes32",
          "name": "newAdminRole",
          "type": "bytes32"
        }
      ],
      "name": "RoleAdminChanged",
      "type": "event"
    },
    {
      "anonymous": false,
      "inputs": [
        {
          "indexed": true,
          "internalType": "bytes32",
          "name": "role",
          "type": "bytes32"
        },
        {
          "indexed": true,
          "internalType": "address",
          "name": "account",
          "type": "address"
        },
        {
          "indexed": true,
          "internalType": "address",
          "name": "sender",
          "type": "address"
        }
      ],
      "name": "RoleGranted",
      "type": "event"
    },
    {
      "anonymous": false,
      "inputs": [
        {
          "indexed": true,
          "internalType": "bytes32",
          "name": "role",
          "type": "bytes32"
        },
        {
          "indexed": true,
          "internalType": "address",
          "name": "account",
          "type": "address"
        },
        {
          "indexed": true,
          "internalType": "address",
          "name": "sender",
          "type": "address"
        }
      ],
      "name": "RoleRevoked",
      "type": "event"
    },
    {
      "anonymous": false,
      "inputs": [
        {
          "indexed": false,
          "internalType": "address",
          "name": "contract_addr",
          "type": "address"
        }
      ],
      "name": "StatsLibLink",
      "type": "event"
    },
    {
      "anonymous": false,
      "inputs": [
        {
          "indexed": false,
          "internalType": "address",
          "name": "contract_addr",
          "type": "address"
        }
      ],
      "name": "ViewLink",
      "type": "event"
    },
    {
      "anonymous": false,
      "inputs": [
        {
          "indexed": false,
          "internalType": "address",
          "name": "sender",
          "type": "address"
        },
        {
          "indexed": false,
          "internalType": "uint256",
          "name": "amount",
          "type": "uint256"
        }
      ],
      "name": "Withdraw",
      "type": "event"
    },
    {
      "stateMutability": "payable",
      "type": "fallback"
    },
    {
      "inputs": [],
      "name": "DEFAULT_ADMIN_ROLE",
      "outputs": [
        {
          "internalType": "bytes32",
          "name": "",
          "type": "bytes32"
        }
      ],
      "stateMutability": "view",
      "type": "function"
    },
    {
      "inputs": [],
      "name": "MANAGER_ROLE",
      "outputs": [
        {
          "internalType": "bytes32",
          "name": "",
          "type": "bytes32"
        }
      ],
      "stateMutability": "view",
      "type": "function"
    },
    {
      "inputs": [],
      "name": "MINTER_ROLE",
      "outputs": [
        {
          "internalType": "bytes32",
          "name": "",
          "type": "bytes32"
        }
      ],
      "stateMutability": "view",
      "type": "function"
    },
    {
      "inputs": [
        {
          "internalType": "uint256",
          "name": "",
          "type": "uint256"
        }
      ],
      "name": "claims",
      "outputs": [
        {
          "internalType": "bool",
          "name": "",
          "type": "bool"
        }
      ],
      "stateMutability": "view",
      "type": "function"
    },
    {
      "inputs": [],
      "name": "contract_id",
      "outputs": [
        {
          "internalType": "bytes32",
          "name": "",
          "type": "bytes32"
        }
      ],
      "stateMutability": "view",
      "type": "function"
    },
    {
      "inputs": [],
      "name": "contract_name",
      "outputs": [
        {
          "internalType": "string",
          "name": "",
          "type": "string"
        }
      ],
      "stateMutability": "view",
      "type": "function"
    },
    {
      "inputs": [
        {
          "internalType": "bytes32",
          "name": "role",
          "type": "bytes32"
        }
      ],
      "name": "getRoleAdmin",
      "outputs": [
        {
          "internalType": "bytes32",
          "name": "",
          "type": "bytes32"
        }
      ],
      "stateMutability": "view",
      "type": "function"
    },
    {
      "inputs": [
        {
          "internalType": "bytes32",
          "name": "role",
          "type": "bytes32"
        },
        {
          "internalType": "uint256",
          "name": "index",
          "type": "uint256"
        }
      ],
      "name": "getRoleMember",
      "outputs": [
        {
          "internalType": "address",
          "name": "",
          "type": "address"
        }
      ],
      "stateMutability": "view",
      "type": "function"
    },
    {
      "inputs": [
        {
          "internalType": "bytes32",
          "name": "role",
          "type": "bytes32"
        }
      ],
      "name": "getRoleMemberCount",
      "outputs": [
        {
          "internalType": "uint256",
          "name": "",
          "type": "uint256"
        }
      ],
      "stateMutability": "view",
      "type": "function"
    },
    {
      "inputs": [
        {
          "internalType": "bytes32",
          "name": "role",
          "type": "bytes32"
        },
        {
          "internalType": "address",
          "name": "account",
          "type": "address"
        }
      ],
      "name": "grantRole",
      "outputs": [],
      "stateMutability": "nonpayable",
      "type": "function"
    },
    {
      "inputs": [
        {
          "internalType": "bytes32",
          "name": "role",
          "type": "bytes32"
        },
        {
          "internalType": "address",
          "name": "account",
          "type": "address"
        }
      ],
      "name": "hasRole",
      "outputs": [
        {
          "internalType": "bool",
          "name": "",
          "type": "bool"
        }
      ],
      "stateMutability": "view",
      "type": "function"
    },
    {
      "inputs": [],
      "name": "manager",
      "outputs": [
        {
          "internalType": "address",
          "name": "",
          "type": "address"
        }
      ],
      "stateMutability": "view",
      "type": "function"
    },
    {
      "inputs": [],
      "name": "nft",
      "outputs": [
        {
          "internalType": "address",
          "name": "",
          "type": "address"
        }
      ],
      "stateMutability": "view",
      "type": "function"
    },
    {
      "inputs": [
        {
          "internalType": "address",
          "name": "_manager",
          "type": "address"
        }
      ],
      "name": "onAdd",
      "outputs": [],
      "stateMutability": "nonpayable",
      "type": "function"
    },
    {
      "inputs": [],
      "name": "onRemoved",
      "outputs": [],
      "stateMutability": "nonpayable",
      "type": "function"
    },
    {
      "inputs": [
        {
          "internalType": "address",
          "name": "newInstance",
          "type": "address"
        }
      ],
      "name": "onReplaced",
      "outputs": [],
      "stateMutability": "nonpayable",
      "type": "function"
    },
    {
      "inputs": [
        {
          "internalType": "address",
          "name": "oldInstance",
          "type": "address"
        },
        {
          "internalType": "address",
          "name": "_manager",
          "type": "address"
        }
      ],
      "name": "onUpdate",
      "outputs": [],
      "stateMutability": "nonpayable",
      "type": "function"
    },
    {
      "inputs": [],
      "name": "owner",
      "outputs": [
        {
          "internalType": "address",
          "name": "",
          "type": "address"
        }
      ],
      "stateMutability": "view",
      "type": "function"
    },
    {
      "inputs": [],
      "name": "renounceOwnership",
      "outputs": [],
      "stateMutability": "nonpayable",
      "type": "function"
    },
    {
      "inputs": [
        {
          "internalType": "bytes32",
          "name": "role",
          "type": "bytes32"
        },
        {
          "internalType": "address",
          "name": "account",
          "type": "address"
        }
      ],
      "name": "renounceRole",
      "outputs": [],
      "stateMutability": "nonpayable",
      "type": "function"
    },
    {
      "inputs": [
        {
          "internalType": "bytes32",
          "name": "role",
          "type": "bytes32"
        },
        {
          "internalType": "address",
          "name": "account",
          "type": "address"
        }
      ],
      "name": "revokeRole",
      "outputs": [],
      "stateMutability": "nonpayable",
      "type": "function"
    },
    {
      "inputs": [
        {
          "internalType": "enum Util.CardRarity",
          "name": "",
          "type": "uint8"
        }
      ],
      "name": "reward_table",
      "outputs": [
        {
          "internalType": "uint256",
          "name": "",
          "type": "uint256"
        }
      ],
      "stateMutability": "view",
      "type": "function"
    },
    {
      "inputs": [],
      "name": "stats",
      "outputs": [
        {
          "internalType": "address",
          "name": "",
          "type": "address"
        }
      ],
      "stateMutability": "view",
      "type": "function"
    },
    {
      "inputs": [
        {
          "internalType": "bytes4",
          "name": "interfaceId",
          "type": "bytes4"
        }
      ],
      "name": "supportsInterface",
      "outputs": [
        {
          "internalType": "bool",
          "name": "",
          "type": "bool"
        }
      ],
      "stateMutability": "view",
      "type": "function"
    },
    {
      "inputs": [
        {
          "internalType": "address",
          "name": "newManager",
          "type": "address"
        }
      ],
      "name": "switchManager",
      "outputs": [],
      "stateMutability": "nonpayable",
      "type": "function"
    },
    {
      "inputs": [
        {
          "internalType": "address",
          "name": "newOwner",
          "type": "address"
        }
      ],
      "name": "transferOwnership",
      "outputs": [],
      "stateMutability": "nonpayable",
      "type": "function"
    },
    {
      "inputs": [
        {
          "internalType": "address",
          "name": "newOwner",
          "type": "address"
        }
      ],
      "name": "updateOwnership",
      "outputs": [],
      "stateMutability": "nonpayable",
      "type": "function"
    },
    {
      "inputs": [],
      "name": "viewer",
      "outputs": [
        {
          "internalType": "address",
          "name": "",
          "type": "address"
        }
      ],
      "stateMutability": "view",
      "type": "function"
    },
    {
      "inputs": [],
      "name": "getName",
      "outputs": [
        {
          "internalType": "string",
          "name": "",
          "type": "string"
        }
      ],
      "stateMutability": "view",
      "type": "function"
    },
    {
      "inputs": [],
      "name": "getId",
      "outputs": [
        {
          "internalType": "bytes32",
          "name": "",
          "type": "bytes32"
        }
      ],
      "stateMutability": "view",
      "type": "function"
    },
    {
      "inputs": [
        {
          "internalType": "bytes32",
          "name": "hname",
          "type": "bytes32"
        },
        {
          "internalType": "address",
          "name": "contractInstance",
          "type": "address"
        },
        {
          "internalType": "bool",
          "name": "isNew",
          "type": "bool"
        }
      ],
      "name": "onListenAdded",
      "outputs": [],
      "stateMutability": "nonpayable",
      "type": "function"
    },
    {
      "inputs": [
        {
          "internalType": "bytes32",
          "name": "hname",
          "type": "bytes32"
        }
      ],
      "name": "onListenRemoved",
      "outputs": [],
      "stateMutability": "nonpayable",
      "type": "function"
    },
    {
      "inputs": [
        {
          "internalType": "address",
          "name": "_nft",
          "type": "address"
        }
      ],
      "name": "linkNFT",
      "outputs": [],
      "stateMutability": "nonpayable",
      "type": "function"
    },
    {
      "inputs": [
        {
          "internalType": "address",
          "name": "_viewer",
          "type": "address"
        }
      ],
      "name": "linkViewer",
      "outputs": [],
      "stateMutability": "nonpayable",
      "type": "function"
    },
    {
      "inputs": [
        {
          "internalType": "address",
          "name": "_stats",
          "type": "address"
        }
      ],
      "name": "linkStatsLib",
      "outputs": [],
      "stateMutability": "nonpayable",
      "type": "function"
    },
    {
      "inputs": [
        {
          "internalType": "address",
          "name": "recipient",
          "type": "address"
        },
        {
          "internalType": "uint256",
          "name": "amount",
          "type": "uint256"
        }
      ],
      "name": "withdraw",
      "outputs": [],
      "stateMutability": "nonpayable",
      "type": "function"
    },
    {
      "inputs": [
        {
          "internalType": "uint256",
          "name": "token_id",
          "type": "uint256"
        }
      ],
      "name": "claim",
      "outputs": [],
      "stateMutability": "nonpayable",
      "type": "function"
    },
    {
      "inputs": [
        {
          "internalType": "enum Util.CardRarity",
          "name": "_rarity",
          "type": "uint8"
        },
        {
          "internalType": "uint256",
          "name": "_reward",
          "type": "uint256"
        }
      ],
      "name": "setReward",
      "outputs": [],
      "stateMutability": "nonpayable",
      "type": "function"
    },
    {
      "inputs": [
        {
          "internalType": "enum Util.CardRarity",
          "name": "_rarity",
          "type": "uint8"
        }
      ],
      "name": "getRewardValue",
      "outputs": [
        {
          "internalType": "uint256",
          "name": "",
          "type": "uint256"
        }
      ],
      "stateMutability": "view",
      "type": "function"
    }
  ],
  "bytecode": "0x60c06040526008608081905267547265617375727960c01b60a09081526200002b916004919062000232565b5060405180604001604052806008815260200167547265617375727960c01b8152506040516020016200005f9190620002d8565b604051602081830303815290604052805190602001206005553480156200008557600080fd5b506200009133620000a4565b6200009e600033620000f4565b62000353565b600080546001600160a01b038381166001600160a01b0319831681178455604051919092169283917f8be0079c531659141344cd1fd0a4f28419497f9722a3daafe3b4186f6b6457e09190a35050565b6200010b82826200013760201b620014a91760201c565b60008281526002602090815260409091206200013291839062001514620001c0821b17901c565b505050565b60008281526001602090815260408083206001600160a01b038516845290915290205460ff16620001bc5760008281526001602081815260408084206001600160a01b0386168086529252808420805460ff19169093179092559051339285917f2f8788117e7eff1d82e926ec794901d17c78024a50270940304540a733656f0d9190a45b5050565b6000620001d7836001600160a01b038416620001e0565b90505b92915050565b60008181526001830160205260408120546200022957508154600181810184556000848152602080822090930184905584548482528286019093526040902091909155620001da565b506000620001da565b828054620002409062000316565b90600052602060002090601f016020900481019282620002645760008555620002af565b82601f106200027f57805160ff1916838001178555620002af565b82800160010185558215620002af579182015b82811115620002af57825182559160200191906001019062000292565b50620002bd929150620002c1565b5090565b5b80821115620002bd5760008155600101620002c2565b6000825160005b81811015620002fb5760208186018101518583015201620002df565b818111156200030b576000828501525b509190910192915050565b600181811c908216806200032b57607f821691505b602082108114156200034d57634e487b7160e01b600052602260045260246000fd5b50919050565b6127ac80620003636000396000f3fe6080604052600436106102305760003560e01c806388971bf51161012e578063d4697a47116100ab578063ec87621c1161006f578063ec87621c146106c8578063ecc1d93b146106ea578063f2fde38b1461070a578063f30878c11461072a578063f3fef3a31461074a57610230565b8063d4697a471461063f578063d53913931461065d578063d547741f14610673578063d80528ae14610693578063d9479692146106b357610230565b8063a888c2cd116100f2578063a888c2cd1461058f578063aadd0488146105bf578063affed659146105df578063c69c9579146105ff578063ca15c8731461061f57610230565b806388971bf5146104fc5780638da5cb5b1461051c5780639010d07c1461053a57806391d148541461055a578063a217fddf1461057a57610230565b8063379607f5116101bc5780635df11291116101805780635df11291146104675780636b2bf27f14610487578063715018a6146104a757806380033daf146104bc5780638840891e146104dc57610230565b8063379607f5146103c45780633ad32d16146103e457806347ccca02146103fa578063481c6a75146104325780635d1ca6311461045257610230565b806317d7de7c1161020357806317d7de7c1461031c5780631a6f04f31461033e578063248a9ca3146103535780632f2ff15d1461038457806336568abe146103a457610230565b8063012f88861461026a57806301ffc9a7146102aa5780630447a2cd146102da57806316f28d24146102fc575b604080513381523460208201527fe1fffcc4923d04b559f4d29a8bfc6cda04eb5b0d3c460751c2402c5c5cc9109c910160405180910390a1005b34801561027657600080fd5b50610297610285366004612093565b600a6020526000908152604090205481565b6040519081526020015b60405180910390f35b3480156102b657600080fd5b506102ca6102c53660046120ae565b61076a565b60405190151581526020016102a1565b3480156102e657600080fd5b506102fa6102f53660046120ed565b610795565b005b34801561030857600080fd5b506102fa610317366004612134565b6107a3565b34801561032857600080fd5b506103316108c8565b6040516102a191906121a2565b34801561034a57600080fd5b506102fa61095a565b34801561035f57600080fd5b5061029761036e3660046121d5565b6000908152600160208190526040909120015490565b34801561039057600080fd5b506102fa61039f3660046121ee565b610964565b3480156103b057600080fd5b506102fa6103bf3660046121ee565b61098b565b3480156103d057600080fd5b506102fa6103df3660046121d5565b610a05565b3480156103f057600080fd5b5061029760055481565b34801561040657600080fd5b5060065461041a906001600160a01b031681565b6040516001600160a01b0390911681526020016102a1565b34801561043e57600080fd5b5060035461041a906001600160a01b031681565b34801561045e57600080fd5b50600554610297565b34801561047357600080fd5b506102fa610482366004612213565b61104d565b34801561049357600080fd5b506102fa6104a2366004612213565b611056565b3480156104b357600080fd5b506102fa61105f565b3480156104c857600080fd5b506102fa6104d7366004612230565b611093565b3480156104e857600080fd5b506102fa6104f7366004612213565b6110fa565b34801561050857600080fd5b506102fa610517366004612213565b611103565b34801561052857600080fd5b506000546001600160a01b031661041a565b34801561054657600080fd5b5061041a61055536600461225a565b611136565b34801561056657600080fd5b506102ca6105753660046121ee565b611155565b34801561058657600080fd5b50610297600081565b34801561059b57600080fd5b506102ca6105aa3660046121d5565b600b6020526000908152604090205460ff1681565b3480156105cb57600080fd5b506102fa6105da366004612213565b611180565b3480156105eb57600080fd5b506102976105fa366004612093565b6111b3565b34801561060b57600080fd5b506102fa61061a366004612213565b6111f2565b34801561062b57600080fd5b5061029761063a3660046121d5565b6111fb565b34801561064b57600080fd5b506102fa61065a3660046121d5565b50565b34801561066957600080fd5b5061029760095481565b34801561067f57600080fd5b506102fa61068e3660046121ee565b611212565b34801561069f57600080fd5b5060085461041a906001600160a01b031681565b3480156106bf57600080fd5b50610331611239565b3480156106d457600080fd5b5061029760008051602061275783398151915281565b3480156106f657600080fd5b506102fa610705366004612213565b6112c7565b34801561071657600080fd5b506102fa610725366004612213565b6112fa565b34801561073657600080fd5b5060075461041a906001600160a01b031681565b34801561075657600080fd5b506102fa61076536600461227c565b611392565b60006001600160e01b0319821663ee7ed59960e01b148061078f575061078f82611529565b92915050565b61079f828261154e565b5050565b6107bb60008051602061275783398151915233611155565b6107e05760405162461bcd60e51b81526004016107d79061229a565b60405180910390fd5b7fc227f98e618597415dca1f5035d597d1e75936952bfd5d741271dd85ba110d9083141561081657610811826115e1565b505050565b6040518060400160405280600b81526020016a447261676f6e537461747360a81b81525060405160200161084a91906122f7565b6040516020818303038152906040528051906020012083141561087057610811826116b4565b6040518060400160405280600981526020016853746174735669657760b81b8152506040516020016108a291906122f7565b604051602081830303815290604052805190602001208314156108115761081182611835565b6060600480546108d790612313565b80601f016020809104026020016040519081016040528092919081815260200182805461090390612313565b80156109505780601f1061092557610100808354040283529160200191610950565b820191906000526020600020905b81548152906001019060200180831161093357829003601f168201915b5050505050905090565b610962611883565b565b6000828152600160208190526040909120015461098181336118f2565b6108118383611956565b6001600160a01b03811633146109fb5760405162461bcd60e51b815260206004820152602f60248201527f416363657373436f6e74726f6c3a2063616e206f6e6c792072656e6f756e636560448201526e103937b632b9903337b91039b2b63360891b60648201526084016107d7565b61079f8282611978565b60065460405163bd85b03960e01b8152600481018390526001600160a01b039091169063bd85b0399060240160206040518083038186803b158015610a4957600080fd5b505afa158015610a5d573d6000803e3d6000fd5b505050506040513d601f19601f82011682018060405250810190610a81919061234e565b600114610aef5760405162461bcd60e51b815260206004820152603660248201527f54726561737572793a2054686520746f6b656e206d7573742062652070726573604482015275656e7420696e2073696e676c65207175616e7469747960501b60648201526084016107d7565b6006546040516331a9108f60e11b8152600481018390526000916001600160a01b031690636352211e9060240160206040518083038186803b158015610b3457600080fd5b505afa158015610b48573d6000803e3d6000fd5b505050506040513d601f19601f82011682018060405250810190610b6c9190612367565b90506001600160a01b0381163314610bfd57610b8b6009546105753390565b610bfd5760405162461bcd60e51b815260206004820152603760248201527f54726561737572793a2054686520726577617264206d75737420626520636c6160448201527f696d656420746f2074686520746f6b656e206f776e657200000000000000000060648201526084016107d7565b60065460405163c588ff8b60e01b8152600481018490527f37a3c4a2a635dedf6a4912ec5757511a1f2fa87cb349543d4751fc18c65e4273916001600160a01b03169063c588ff8b9060240160206040518083038186803b158015610c6157600080fd5b505afa158015610c75573d6000803e3d6000fd5b505050506040513d601f19601f82011682018060405250810190610c99919061234e565b14610d025760405162461bcd60e51b815260206004820152603360248201527f54726561737572793a2054686520746f6b656e206d757374206265206f6620446044820152727261676f6e2043617264204e4654207479706560681b60648201526084016107d7565b6000828152600b602052604090205460ff1615610d7e5760405162461bcd60e51b815260206004820152603460248201527f54726561737572793a20546865206361726427732072657761726420686173206044820152731899595b88185b1c9958591e4818db185a5b595960621b60648201526084016107d7565b6000828152600b6020526040808220805460ff191660011790556007549051638462357360e01b81526001600160a01b0390911690638462357390610dec907f37a3c4a2a635dedf6a4912ec5757511a1f2fa87cb349543d4751fc18c65e4273908790600d90600401612384565b60006040518083038186803b158015610e0457600080fd5b505afa158015610e18573d6000803e3d6000fd5b505050506040513d6000823e601f3d908101601f19168201604052610e409190810190612503565b6080015115610e5157506003610f12565b600754604051638462357360e01b81526001600160a01b0390911690638462357390610ea6907f37a3c4a2a635dedf6a4912ec5757511a1f2fa87cb349543d4751fc18c65e4273908790600c90600401612384565b60006040518083038186803b158015610ebe57600080fd5b505afa158015610ed2573d6000803e3d6000fd5b505050506040513d6000823e601f3d908101601f19168201604052610efa9190810190612503565b602001516004811115610f0f57610f0f6125b2565b90505b6000600a6000836004811115610f2a57610f2a6125b2565b6004811115610f3b57610f3b6125b2565b8152602001908152602001600020549050600081111561104757600080846001600160a01b03168360405160006040518083038185875af1925050503d8060008114610fa3576040519150601f19603f3d011682016040523d82523d6000602084013e610fa8565b606091505b509150915081610ffa5760405162461bcd60e51b815260206004820152601d60248201527f54726561737572793a204661696c656420746f20636c61696d20424e4200000060448201526064016107d7565b604080516001600160a01b0387168152602081018890529081018490527f987d620f307ff6b94d58743cb7a7509f24071586a77759b77c2d4e29f75a2f9a9060600160405180910390a150505b50505050565b61065a8161199a565b61065a81611a52565b6000546001600160a01b031633146110895760405162461bcd60e51b81526004016107d7906125c8565b6109626000611ac8565b6000546001600160a01b031633146110bd5760405162461bcd60e51b81526004016107d7906125c8565b80600a60008460048111156110d4576110d46125b2565b60048111156110e5576110e56125b2565b81526020810191909152604001600020555050565b61065a81611b18565b6000546001600160a01b0316331461112d5760405162461bcd60e51b81526004016107d7906125c8565b61065a816116b4565b600082815260026020526040812061114e9083611b9a565b9392505050565b60009182526001602090815260408084206001600160a01b0393909316845291905290205460ff1690565b6000546001600160a01b031633146111aa5760405162461bcd60e51b81526004016107d7906125c8565b61065a816115e1565b6000600a60008360048111156111cb576111cb6125b2565b60048111156111dc576111dc6125b2565b8152602001908152602001600020549050919050565b61065a81611ba6565b600081815260026020526040812061078f90611c23565b6000828152600160208190526040909120015461122f81336118f2565b6108118383611978565b6004805461124690612313565b80601f016020809104026020016040519081016040528092919081815260200182805461127290612313565b80156112bf5780601f10611294576101008083540402835291602001916112bf565b820191906000526020600020905b8154815290600101906020018083116112a257829003601f168201915b505050505081565b6000546001600160a01b031633146112f15760405162461bcd60e51b81526004016107d7906125c8565b61065a81611835565b6000546001600160a01b031633146113245760405162461bcd60e51b81526004016107d7906125c8565b6001600160a01b0381166113895760405162461bcd60e51b815260206004820152602660248201527f4f776e61626c653a206e6577206f776e657220697320746865207a65726f206160448201526564647265737360d01b60648201526084016107d7565b61065a81611ac8565b6000546001600160a01b031633146113bc5760405162461bcd60e51b81526004016107d7906125c8565b600080836001600160a01b03168360405160006040518083038185875af1925050503d806000811461140a576040519150601f19603f3d011682016040523d82523d6000602084013e61140f565b606091505b5091509150816114615760405162461bcd60e51b815260206004820181905260248201527f54726561737572793a204661696c656420746f20776974686472617720424e4260448201526064016107d7565b604080516001600160a01b0386168152602081018590527f884edad9ce6fa2440d8a54cc123490eb96d2768479d49ff9c7366125a9424364910160405180910390a150505050565b6114b38282611155565b61079f5760008281526001602081815260408084206001600160a01b0386168086529252808420805460ff19169093179092559051339285917f2f8788117e7eff1d82e926ec794901d17c78024a50270940304540a733656f0d9190a45050565b600061114e836001600160a01b038416611c2d565b60006001600160e01b03198216635a05180f60e01b148061078f575061078f82611c7c565b61156660008051602061275783398151915233611155565b6115825760405162461bcd60e51b81526004016107d79061229a565b600380546001600160a01b0319166001600160a01b0383811691821790925560408051928516835260208301919091527ff6515f2a6d531f16723c1e578303b7d74152bf8c0fa3bee828700a3d4706da8d910160405180910390a15050565b600680546001600160a01b0319166001600160a01b0383169081179091556040805163d539139360e01b8152905163d539139391600480820192602092909190829003018186803b15801561163557600080fd5b505afa158015611649573d6000803e3d6000fd5b505050506040513d601f19601f8201168201806040525081019061166d919061234e565b6009556006546040516001600160a01b0390911681527f7869e3c19f5ec29481a8433791a06441db7b22cd85336da47df97fd7b686ba2a906020015b60405180910390a150565b600880546001600160a01b0319166001600160a01b0383169081179091556040805163091a7f8b60e41b815290516391a7f8b091600480820192600092909190829003018186803b15801561170857600080fd5b505afa15801561171c573d6000803e3d6000fd5b505050506040513d6000823e601f3d908101601f1916820160405261174491908101906125fd565b805161175891600c91602090910190611fe6565b50600860009054906101000a90046001600160a01b03166001600160a01b03166319cd4c3d6040518163ffffffff1660e01b815260040160006040518083038186803b1580156117a757600080fd5b505afa1580156117bb573d6000803e3d6000fd5b505050506040513d6000823e601f3d908101601f191682016040526117e391908101906125fd565b80516117f791600d91602090910190611fe6565b506008546040516001600160a01b0390911681527f8eabd18158736228e0bcd01444e967ae9262cdb0e8a88fb154542a13f701bf7b906020016116a9565b600780546001600160a01b0319166001600160a01b0383169081179091556040519081527f6a18b90af8b2ae0add67d0ae89a6972d279fd5888cd58c820f581fa70f2d54bd906020016116a9565b61189b60008051602061275783398151915233611155565b6118b75760405162461bcd60e51b81526004016107d79061229a565b600380546001600160a01b03191690556040517f9a9a74cf290a994f69a718e8557deb1dd65135268f40e660cecddf675f5dd51490600090a1565b6118fc8282611155565b61079f57611914816001600160a01b03166014611cb1565b61191f836020611cb1565b60405160200161193092919061263a565b60408051601f198184030181529082905262461bcd60e51b82526107d7916004016121a2565b61196082826114a9565b60008281526002602052604090206108119082611514565b6119828282611e4d565b60008281526002602052604090206108119082611eb4565b6119b260008051602061275783398151915233611155565b6119ce5760405162461bcd60e51b81526004016107d79061229a565b600380546001600160a01b0319166001600160a01b038316179055611a0160008051602061275783398151915282610964565b611a1960008051602061275783398151915233611212565b6040516001600160a01b03821681527f8eb47098f9568be754f51d21a870c8091ee0242cf97418db00927326d0e6ffcf906020016116a9565b611a6a60008051602061275783398151915233611155565b611a865760405162461bcd60e51b81526004016107d79061229a565b611a8f816112fa565b6040516001600160a01b03821681527ff2addf7f813887cf0fdd82b58fcc379ab2301e95c90b41a8cf2e5401914689c9906020016116a9565b600080546001600160a01b038381166001600160a01b0319831681178455604051919092169283917f8be0079c531659141344cd1fd0a4f28419497f9722a3daafe3b4186f6b6457e09190a35050565b611b3060008051602061275783398151915233611155565b611b4c5760405162461bcd60e51b81526004016107d79061229a565b600380546001600160a01b0319166001600160a01b0383169081179091556040519081527f89c66952b48f3e96bf1d8ba1b63189520fd988a6979b8b740bd5c5d8dc53e205906020016116a9565b600061114e8383611ec9565b611bbe60008051602061275783398151915233611155565b611bda5760405162461bcd60e51b81526004016107d79061229a565b600380546001600160a01b03191690556040516001600160a01b03821681527f85a56ff958486f55dd742819603a46ba6233d3b24e6715f9cd5fd2ef6425d680906020016116a9565b600061078f825490565b6000818152600183016020526040812054611c745750815460018181018455600084815260208082209093018490558454848252828601909352604090209190915561078f565b50600061078f565b60006001600160e01b03198216637965db0b60e01b148061078f57506301ffc9a760e01b6001600160e01b031983161461078f565b60606000611cc08360026126c5565b611ccb9060026126e4565b67ffffffffffffffff811115611ce357611ce361243c565b6040519080825280601f01601f191660200182016040528015611d0d576020820181803683370190505b509050600360fc1b81600081518110611d2857611d286126fc565b60200101906001600160f81b031916908160001a905350600f60fb1b81600181518110611d5757611d576126fc565b60200101906001600160f81b031916908160001a9053506000611d7b8460026126c5565b611d869060016126e4565b90505b6001811115611dfe576f181899199a1a9b1b9c1cb0b131b232b360811b85600f1660108110611dba57611dba6126fc565b1a60f81b828281518110611dd057611dd06126fc565b60200101906001600160f81b031916908160001a90535060049490941c93611df781612712565b9050611d89565b50831561114e5760405162461bcd60e51b815260206004820181905260248201527f537472696e67733a20686578206c656e67746820696e73756666696369656e7460448201526064016107d7565b611e578282611155565b1561079f5760008281526001602090815260408083206001600160a01b0385168085529252808320805460ff1916905551339285917ff6391f5c32d9c69d2a47ea670b442974b53935d1edc7fd64eb21e047a839171b9190a45050565b600061114e836001600160a01b038416611ef3565b6000826000018281548110611ee057611ee06126fc565b9060005260206000200154905092915050565b60008181526001830160205260408120548015611fdc576000611f17600183612729565b8554909150600090611f2b90600190612729565b9050818114611f90576000866000018281548110611f4b57611f4b6126fc565b9060005260206000200154905080876000018481548110611f6e57611f6e6126fc565b6000918252602080832090910192909255918252600188019052604090208390555b8554869080611fa157611fa1612740565b60019003818190600052602060002001600090559055856001016000868152602001908152602001600020600090556001935050505061078f565b600091505061078f565b828054611ff290612313565b90600052602060002090601f016020900481019282612014576000855561205a565b82601f1061202d57805160ff191683800117855561205a565b8280016001018555821561205a579182015b8281111561205a57825182559160200191906001019061203f565b5061206692915061206a565b5090565b5b80821115612066576000815560010161206b565b80356005811061208e57600080fd5b919050565b6000602082840312156120a557600080fd5b61114e8261207f565b6000602082840312156120c057600080fd5b81356001600160e01b03198116811461114e57600080fd5b6001600160a01b038116811461065a57600080fd5b6000806040838503121561210057600080fd5b823561210b816120d8565b9150602083013561211b816120d8565b809150509250929050565b801515811461065a57600080fd5b60008060006060848603121561214957600080fd5b83359250602084013561215b816120d8565b9150604084013561216b81612126565b809150509250925092565b60005b83811015612191578181015183820152602001612179565b838111156110475750506000910152565b60208152600082518060208401526121c1816040850160208701612176565b601f01601f19169190910160400192915050565b6000602082840312156121e757600080fd5b5035919050565b6000806040838503121561220157600080fd5b82359150602083013561211b816120d8565b60006020828403121561222557600080fd5b813561114e816120d8565b6000806040838503121561224357600080fd5b61224c8361207f565b946020939093013593505050565b6000806040838503121561226d57600080fd5b50508035926020909101359150565b6000806040838503121561228f57600080fd5b823561224c816120d8565b6020808252603b908201527f43726f7373436f6e74726163744d616e4c697374656e65723a2074686520636160408201527f6c6c6572206d7573742068617665204d414e414745525f524f4c450000000000606082015260800190565b60008251612309818460208701612176565b9190910192915050565b600181811c9082168061232757607f821691505b6020821081141561234857634e487b7160e01b600052602260045260246000fd5b50919050565b60006020828403121561236057600080fd5b5051919050565b60006020828403121561237957600080fd5b815161114e816120d8565b838152600060208481840152606060408401526000845481600182811c9150808316806123b257607f831692505b8583108114156123d057634e487b7160e01b85526022600452602485fd5b60608801839052608088018180156123ef57600181146124005761242b565b60ff1986168252878201965061242b565b60008b81526020902060005b868110156124255781548482015290850190890161240c565b83019750505b50949b9a5050505050505050505050565b634e487b7160e01b600052604160045260246000fd5b60405160a0810167ffffffffffffffff811182821017156124755761247561243c565b60405290565b600082601f83011261248c57600080fd5b815167ffffffffffffffff808211156124a7576124a761243c565b604051601f8301601f19908116603f011681019082821181831017156124cf576124cf61243c565b816040528381528660208588010111156124e857600080fd5b6124f9846020830160208901612176565b9695505050505050565b60006020828403121561251557600080fd5b815167ffffffffffffffff8082111561252d57600080fd5b9083019060a0828603121561254157600080fd5b612549612452565b82516004811061255857600080fd5b81526020838101519082015260408301518281111561257657600080fd5b6125828782860161247b565b60408301525060608301516060820152608083015192506125a283612126565b6080810192909252509392505050565b634e487b7160e01b600052602160045260246000fd5b6020808252818101527f4f776e61626c653a2063616c6c6572206973206e6f7420746865206f776e6572604082015260600190565b60006020828403121561260f57600080fd5b815167ffffffffffffffff81111561262657600080fd5b6126328482850161247b565b949350505050565b7f416363657373436f6e74726f6c3a206163636f756e7420000000000000000000815260008351612672816017850160208801612176565b7001034b99036b4b9b9b4b733903937b6329607d1b60179184019182015283516126a3816028840160208801612176565b01602801949350505050565b634e487b7160e01b600052601160045260246000fd5b60008160001904831182151516156126df576126df6126af565b500290565b600082198211156126f7576126f76126af565b500190565b634e487b7160e01b600052603260045260246000fd5b600081612721576127216126af565b506000190190565b60008282101561273b5761273b6126af565b500390565b634e487b7160e01b600052603160045260246000fdfe241ecf16d79d0f8dbfb92cbc07fe17840425976cf0667f022fe9877caa831b08a26469706673582212209e351854cdee83b2ec33d079f895cf99f35c4c081e269a28fb0dc3cbcd66612864736f6c63430008090033",
  "immutableReferences": {},
  "source": "// SPDX-License-Identifier: MIT\npragma solidity ^0.8;\n\nimport \"@openzeppelin/contracts/access/Ownable.sol\";\nimport \"./FireZardNFT.sol\";\nimport \"./StatsView.sol\";\nimport \"./DragonStats.sol\";\nimport \"./CrossContractManListener.sol\";\nimport {Util} from \"./Util.sol\";\n\ncontract Treasury is CrossContractManListener {\n    string  public contract_name = Util.TREASURY_CONTRACT_NAME;\n    bytes32 public contract_id = Util.TREASURY_CONTRACT_ID;\n\n    address public\tnft;\n    address public\tviewer;\n    address public\tstats;\n\n    bytes32 public MINTER_ROLE;\n\n    mapping(Util.CardRarity => uint256)\tpublic\treward_table;\n\n    mapping(uint256 => bool)\t\tpublic\tclaims;\n\n    string rarity_str;\n    string rarity_override_str;\n\n    modifier onlyMinter() {\n\trequire(hasRole(MINTER_ROLE, _msgSender()), \"Treasury: must have minter role to claim rewards\");\n\t_;\n    }\n\n/*    constructor(address _nft, address _viewer, address _stats) {\n\tnft = _nft;\n\tviewer = _viewer;\n\tstats = _stats;\n\trarity_str  = DragonStats(stats).RARITY_STR();\n\trarity_override_str  = DragonStats(stats).RARITY_OVERRIDE_STR();\n\tMINTER_ROLE = FireZardNFT(nft).MINTER_ROLE();\n\n\tsuper._setupRole(DEFAULT_ADMIN_ROLE,msg.sender);\n    }*/\n\n    function getName() view external returns(string memory) {\n\treturn contract_name;\n    }\n\n    function getId() view external returns(bytes32) {\n\treturn contract_id;\n    }\n\n    function onListenAdded(bytes32 hname, address contractInstance, bool isNew) external onlyManager {\n\tif(hname == Util.NFT_CONTRACT_ID){\n\t    _linkNFT(contractInstance);\n\t    return;\n\t}\n\tif(hname == Util.DRAGON_STATS_CONTRACT_ID){\n\t    _linkStatsLib(contractInstance);\n\t    return;\n\t}\n\tif(hname == Util.STATS_VIEW_CONTRACT_ID){\n\t    _linkViewer(contractInstance);\n\t    return;\n\t}\n    }\n\n    function onListenRemoved(bytes32 hname) external {}\n\n    /**\n     * @notice Sets link to ERC1155 NFT smart contract\n    **/\n    function _linkNFT(address _nft) internal {\n        nft = _nft;\n\tMINTER_ROLE = FireZardNFT(nft).MINTER_ROLE();\n        emit NFTLink(nft);\n    }\n\n    /**\n     * @notice Sets link to Tag Storage smart contract\n    **/\n    function _linkViewer(address _viewer) internal {\n        viewer = _viewer;\n        emit ViewLink(viewer);\n    }\n\n    /**\n     * @notice Sets link to the Stats deriving library\n    **/\n    function _linkStatsLib(address _stats) internal {\n        stats = _stats;\n\trarity_str  = DragonStats(stats).RARITY_STR();\n\trarity_override_str  = DragonStats(stats).RARITY_OVERRIDE_STR();\n        emit StatsLibLink(stats);\n    }\n\n    /**\n     * @notice Sets link to ERC1155 NFT smart contract\n    **/\n    function linkNFT(address _nft) public virtual onlyOwner {\n        _linkNFT(_nft);\n    }\n\n    /**\n     * @notice Sets link to Tag Storage smart contract\n    **/\n    function linkViewer(address _viewer) public virtual onlyOwner {\n\t_linkViewer(_viewer);\n    }\n\n    /**\n     * @notice Sets link to the Stats deriving library\n    **/\n    function linkStatsLib(address _stats) public virtual onlyOwner {\n\t_linkStatsLib(_stats);\n    }\n\n    // Deposit funds\n    fallback() external payable {\n\temit Deposit(msg.sender, msg.value);\n    }\n\n    function withdraw(address recipient, uint256 amount) external onlyOwner {\n\t(bool _res, bytes memory _data) = recipient.call{value: amount}(\"\");\n\trequire(_res, \"Treasury: Failed to withdraw BNB\");\n\temit Withdraw(recipient, amount);\n    }\n\n    function claim(uint256 token_id) external {\n\trequire(FireZardNFT(nft).totalSupply(token_id) == 1, \"Treasury: The token must be present in single quantity\");\n\n\taddress to = FireZardNFT(nft).ownerOf(token_id);\n\tif(to != _msgSender())\n\t    if(!hasRole(MINTER_ROLE, _msgSender()))\n\t\trevert(\"Treasury: The reward must be claimed to the token owner\");\n\n\trequire(FireZardNFT(nft).typeOf(token_id) == Util.DRAGON_CARD_TYPE_CODE, \"Treasury: The token must be of Dragon Card NFT type\");\n\trequire(!claims[token_id], \"Treasury: The card's reward has been already claimed\");\n\n\tclaims[token_id] = true;\n\tUtil.CardRarity card_rarity;\n\tif(StatsView(viewer).getStat(Util.DRAGON_CARD_TYPE_CODE, token_id, rarity_override_str).bool_val)\n\t    card_rarity = Util.CardRarity.Uncommon;\n\telse\n\t    card_rarity = Util.CardRarity(StatsView(viewer).getStat(Util.DRAGON_CARD_TYPE_CODE, token_id, rarity_str).int_val);\n\tuint256 reward_value = reward_table[card_rarity];\n\tif(reward_value>0){\n\t    (bool _res, bytes memory _data) = to.call{value: reward_value}(\"\");\n\t    require(_res, \"Treasury: Failed to claim BNB\");\n\t    emit Claimed(to, token_id, reward_value);\n\t}\n    }\n\n    function setReward(Util.CardRarity _rarity, uint256 _reward) external onlyOwner {\n\treward_table[_rarity] = _reward;\n    }\n\n    function getRewardValue(Util.CardRarity _rarity) external view returns (uint256) {\n\treturn reward_table[_rarity];\n    }\n\n    event NFTLink(address contract_addr);\n    event ViewLink(address contract_addr);\n    event StatsLibLink(address contract_addr);\n    event Deposit(address sender, uint256 amount);\n    event Withdraw(address sender, uint256 amount);\n    event Claimed(address sender, uint256 token_id, uint256 value);\n}\n",
  "sourcePath": "/home/vrogojin/Projects/FireZard/nft/contracts/Treasury.sol",
  "compiler": {
    "name": "solc",
    "version": "0.8.9+commit.e5eed63a.Emscripten.clang"
  },
  "schemaVersion": "3.4.3",
  "updatedAt": "2022-02-08T19:54:43.711Z",
  "devdoc": {
    "kind": "dev",
    "methods": {
      "getRoleAdmin(bytes32)": {
        "details": "Returns the admin role that controls `role`. See {grantRole} and {revokeRole}. To change a role's admin, use {_setRoleAdmin}."
      },
      "getRoleMember(bytes32,uint256)": {
        "details": "Returns one of the accounts that have `role`. `index` must be a value between 0 and {getRoleMemberCount}, non-inclusive. Role bearers are not sorted in any particular way, and their ordering may change at any point. WARNING: When using {getRoleMember} and {getRoleMemberCount}, make sure you perform all queries on the same block. See the following https://forum.openzeppelin.com/t/iterating-over-elements-on-enumerableset-in-openzeppelin-contracts/2296[forum post] for more information."
      },
      "getRoleMemberCount(bytes32)": {
        "details": "Returns the number of accounts that have `role`. Can be used together with {getRoleMember} to enumerate all bearers of a role."
      },
      "grantRole(bytes32,address)": {
        "details": "Grants `role` to `account`. If `account` had not been already granted `role`, emits a {RoleGranted} event. Requirements: - the caller must have ``role``'s admin role."
      },
      "hasRole(bytes32,address)": {
        "details": "Returns `true` if `account` has been granted `role`."
      },
      "owner()": {
        "details": "Returns the address of the current owner."
      },
      "renounceOwnership()": {
        "details": "Leaves the contract without owner. It will not be possible to call `onlyOwner` functions anymore. Can only be called by the current owner. NOTE: Renouncing ownership will leave the contract without an owner, thereby removing any functionality that is only available to the owner."
      },
      "renounceRole(bytes32,address)": {
        "details": "Revokes `role` from the calling account. Roles are often managed via {grantRole} and {revokeRole}: this function's purpose is to provide a mechanism for accounts to lose their privileges if they are compromised (such as when a trusted device is misplaced). If the calling account had been revoked `role`, emits a {RoleRevoked} event. Requirements: - the caller must be `account`."
      },
      "revokeRole(bytes32,address)": {
        "details": "Revokes `role` from `account`. If `account` had been granted `role`, emits a {RoleRevoked} event. Requirements: - the caller must have ``role``'s admin role."
      },
      "supportsInterface(bytes4)": {
        "details": "See {IERC165-supportsInterface}."
      },
      "transferOwnership(address)": {
        "details": "Transfers ownership of the contract to a new account (`newOwner`). Can only be called by the current owner."
      }
    },
    "version": 1
  },
  "userdoc": {
    "kind": "user",
    "methods": {
      "linkNFT(address)": {
        "notice": "Sets link to ERC1155 NFT smart contract*"
      },
      "linkStatsLib(address)": {
        "notice": "Sets link to the Stats deriving library*"
      },
      "linkViewer(address)": {
        "notice": "Sets link to Tag Storage smart contract*"
      }
    },
    "version": 1
  }
}