{
  "contractName": "Treasury",
  "abi": [
    {
      "inputs": [
        {
          "internalType": "address",
          "name": "_nft",
          "type": "address"
        },
        {
          "internalType": "address",
          "name": "_viewer",
          "type": "address"
        },
        {
          "internalType": "address",
          "name": "_stats",
          "type": "address"
        }
      ],
      "stateMutability": "nonpayable",
      "type": "constructor"
    },
    {
      "anonymous": false,
      "inputs": [
        {
          "indexed": false,
          "internalType": "address",
          "name": "sender",
          "type": "address"
        },
        {
          "indexed": false,
          "internalType": "uint256",
          "name": "token_id",
          "type": "uint256"
        },
        {
          "indexed": false,
          "internalType": "uint256",
          "name": "value",
          "type": "uint256"
        }
      ],
      "name": "Claimed",
      "type": "event"
    },
    {
      "anonymous": false,
      "inputs": [
        {
          "indexed": false,
          "internalType": "address",
          "name": "sender",
          "type": "address"
        },
        {
          "indexed": false,
          "internalType": "uint256",
          "name": "amount",
          "type": "uint256"
        }
      ],
      "name": "Deposit",
      "type": "event"
    },
    {
      "anonymous": false,
      "inputs": [
        {
          "indexed": false,
          "internalType": "address",
          "name": "contract_addr",
          "type": "address"
        }
      ],
      "name": "NFTLink",
      "type": "event"
    },
    {
      "anonymous": false,
      "inputs": [
        {
          "indexed": true,
          "internalType": "address",
          "name": "previousOwner",
          "type": "address"
        },
        {
          "indexed": true,
          "internalType": "address",
          "name": "newOwner",
          "type": "address"
        }
      ],
      "name": "OwnershipTransferred",
      "type": "event"
    },
    {
      "anonymous": false,
      "inputs": [
        {
          "indexed": true,
          "internalType": "bytes32",
          "name": "role",
          "type": "bytes32"
        },
        {
          "indexed": true,
          "internalType": "bytes32",
          "name": "previousAdminRole",
          "type": "bytes32"
        },
        {
          "indexed": true,
          "internalType": "bytes32",
          "name": "newAdminRole",
          "type": "bytes32"
        }
      ],
      "name": "RoleAdminChanged",
      "type": "event"
    },
    {
      "anonymous": false,
      "inputs": [
        {
          "indexed": true,
          "internalType": "bytes32",
          "name": "role",
          "type": "bytes32"
        },
        {
          "indexed": true,
          "internalType": "address",
          "name": "account",
          "type": "address"
        },
        {
          "indexed": true,
          "internalType": "address",
          "name": "sender",
          "type": "address"
        }
      ],
      "name": "RoleGranted",
      "type": "event"
    },
    {
      "anonymous": false,
      "inputs": [
        {
          "indexed": true,
          "internalType": "bytes32",
          "name": "role",
          "type": "bytes32"
        },
        {
          "indexed": true,
          "internalType": "address",
          "name": "account",
          "type": "address"
        },
        {
          "indexed": true,
          "internalType": "address",
          "name": "sender",
          "type": "address"
        }
      ],
      "name": "RoleRevoked",
      "type": "event"
    },
    {
      "anonymous": false,
      "inputs": [
        {
          "indexed": false,
          "internalType": "address",
          "name": "contract_addr",
          "type": "address"
        }
      ],
      "name": "StatsLibLink",
      "type": "event"
    },
    {
      "anonymous": false,
      "inputs": [
        {
          "indexed": false,
          "internalType": "address",
          "name": "contract_addr",
          "type": "address"
        }
      ],
      "name": "ViewLink",
      "type": "event"
    },
    {
      "anonymous": false,
      "inputs": [
        {
          "indexed": false,
          "internalType": "address",
          "name": "sender",
          "type": "address"
        },
        {
          "indexed": false,
          "internalType": "uint256",
          "name": "amount",
          "type": "uint256"
        }
      ],
      "name": "Withdraw",
      "type": "event"
    },
    {
      "stateMutability": "payable",
      "type": "fallback",
      "payable": true
    },
    {
      "inputs": [],
      "name": "DEFAULT_ADMIN_ROLE",
      "outputs": [
        {
          "internalType": "bytes32",
          "name": "",
          "type": "bytes32"
        }
      ],
      "stateMutability": "view",
      "type": "function",
      "constant": true
    },
    {
      "inputs": [],
      "name": "MINTER_ROLE",
      "outputs": [
        {
          "internalType": "bytes32",
          "name": "",
          "type": "bytes32"
        }
      ],
      "stateMutability": "view",
      "type": "function",
      "constant": true
    },
    {
      "inputs": [
        {
          "internalType": "uint256",
          "name": "",
          "type": "uint256"
        }
      ],
      "name": "claims",
      "outputs": [
        {
          "internalType": "bool",
          "name": "",
          "type": "bool"
        }
      ],
      "stateMutability": "view",
      "type": "function",
      "constant": true
    },
    {
      "inputs": [
        {
          "internalType": "bytes32",
          "name": "role",
          "type": "bytes32"
        }
      ],
      "name": "getRoleAdmin",
      "outputs": [
        {
          "internalType": "bytes32",
          "name": "",
          "type": "bytes32"
        }
      ],
      "stateMutability": "view",
      "type": "function",
      "constant": true
    },
    {
      "inputs": [
        {
          "internalType": "bytes32",
          "name": "role",
          "type": "bytes32"
        },
        {
          "internalType": "uint256",
          "name": "index",
          "type": "uint256"
        }
      ],
      "name": "getRoleMember",
      "outputs": [
        {
          "internalType": "address",
          "name": "",
          "type": "address"
        }
      ],
      "stateMutability": "view",
      "type": "function",
      "constant": true
    },
    {
      "inputs": [
        {
          "internalType": "bytes32",
          "name": "role",
          "type": "bytes32"
        }
      ],
      "name": "getRoleMemberCount",
      "outputs": [
        {
          "internalType": "uint256",
          "name": "",
          "type": "uint256"
        }
      ],
      "stateMutability": "view",
      "type": "function",
      "constant": true
    },
    {
      "inputs": [
        {
          "internalType": "bytes32",
          "name": "role",
          "type": "bytes32"
        },
        {
          "internalType": "address",
          "name": "account",
          "type": "address"
        }
      ],
      "name": "grantRole",
      "outputs": [],
      "stateMutability": "nonpayable",
      "type": "function"
    },
    {
      "inputs": [
        {
          "internalType": "bytes32",
          "name": "role",
          "type": "bytes32"
        },
        {
          "internalType": "address",
          "name": "account",
          "type": "address"
        }
      ],
      "name": "hasRole",
      "outputs": [
        {
          "internalType": "bool",
          "name": "",
          "type": "bool"
        }
      ],
      "stateMutability": "view",
      "type": "function",
      "constant": true
    },
    {
      "inputs": [],
      "name": "nft",
      "outputs": [
        {
          "internalType": "address",
          "name": "",
          "type": "address"
        }
      ],
      "stateMutability": "view",
      "type": "function",
      "constant": true
    },
    {
      "inputs": [],
      "name": "owner",
      "outputs": [
        {
          "internalType": "address",
          "name": "",
          "type": "address"
        }
      ],
      "stateMutability": "view",
      "type": "function",
      "constant": true
    },
    {
      "inputs": [],
      "name": "renounceOwnership",
      "outputs": [],
      "stateMutability": "nonpayable",
      "type": "function"
    },
    {
      "inputs": [
        {
          "internalType": "bytes32",
          "name": "role",
          "type": "bytes32"
        },
        {
          "internalType": "address",
          "name": "account",
          "type": "address"
        }
      ],
      "name": "renounceRole",
      "outputs": [],
      "stateMutability": "nonpayable",
      "type": "function"
    },
    {
      "inputs": [
        {
          "internalType": "bytes32",
          "name": "role",
          "type": "bytes32"
        },
        {
          "internalType": "address",
          "name": "account",
          "type": "address"
        }
      ],
      "name": "revokeRole",
      "outputs": [],
      "stateMutability": "nonpayable",
      "type": "function"
    },
    {
      "inputs": [
        {
          "internalType": "enum Util.CardRarity",
          "name": "",
          "type": "uint8"
        }
      ],
      "name": "reward_table",
      "outputs": [
        {
          "internalType": "uint256",
          "name": "",
          "type": "uint256"
        }
      ],
      "stateMutability": "view",
      "type": "function",
      "constant": true
    },
    {
      "inputs": [],
      "name": "stats",
      "outputs": [
        {
          "internalType": "address",
          "name": "",
          "type": "address"
        }
      ],
      "stateMutability": "view",
      "type": "function",
      "constant": true
    },
    {
      "inputs": [
        {
          "internalType": "bytes4",
          "name": "interfaceId",
          "type": "bytes4"
        }
      ],
      "name": "supportsInterface",
      "outputs": [
        {
          "internalType": "bool",
          "name": "",
          "type": "bool"
        }
      ],
      "stateMutability": "view",
      "type": "function",
      "constant": true
    },
    {
      "inputs": [
        {
          "internalType": "address",
          "name": "newOwner",
          "type": "address"
        }
      ],
      "name": "transferOwnership",
      "outputs": [],
      "stateMutability": "nonpayable",
      "type": "function"
    },
    {
      "inputs": [],
      "name": "viewer",
      "outputs": [
        {
          "internalType": "address",
          "name": "",
          "type": "address"
        }
      ],
      "stateMutability": "view",
      "type": "function",
      "constant": true
    },
    {
      "inputs": [
        {
          "internalType": "address",
          "name": "_nft",
          "type": "address"
        }
      ],
      "name": "linkNFT",
      "outputs": [],
      "stateMutability": "nonpayable",
      "type": "function"
    },
    {
      "inputs": [
        {
          "internalType": "address",
          "name": "_viewer",
          "type": "address"
        }
      ],
      "name": "linkViewer",
      "outputs": [],
      "stateMutability": "nonpayable",
      "type": "function"
    },
    {
      "inputs": [
        {
          "internalType": "address",
          "name": "_stats",
          "type": "address"
        }
      ],
      "name": "linkStatsLib",
      "outputs": [],
      "stateMutability": "nonpayable",
      "type": "function"
    },
    {
      "inputs": [
        {
          "internalType": "address",
          "name": "recipient",
          "type": "address"
        },
        {
          "internalType": "uint256",
          "name": "amount",
          "type": "uint256"
        }
      ],
      "name": "withdraw",
      "outputs": [],
      "stateMutability": "nonpayable",
      "type": "function"
    },
    {
      "inputs": [
        {
          "internalType": "uint256",
          "name": "token_id",
          "type": "uint256"
        }
      ],
      "name": "claim",
      "outputs": [],
      "stateMutability": "nonpayable",
      "type": "function"
    },
    {
      "inputs": [
        {
          "internalType": "enum Util.CardRarity",
          "name": "_rarity",
          "type": "uint8"
        },
        {
          "internalType": "uint256",
          "name": "_reward",
          "type": "uint256"
        }
      ],
      "name": "setReward",
      "outputs": [],
      "stateMutability": "nonpayable",
      "type": "function"
    },
    {
      "inputs": [
        {
          "internalType": "enum Util.CardRarity",
          "name": "_rarity",
          "type": "uint8"
        }
      ],
      "name": "getRewardValue",
      "outputs": [
        {
          "internalType": "uint256",
          "name": "",
          "type": "uint256"
        }
      ],
      "stateMutability": "view",
      "type": "function",
      "constant": true
    }
  ],
  "bytecode": "0x60806040523480156200001157600080fd5b5060405162002425380380620024258339810160408190526200003491620004bd565b6200003f336200025d565b600380546001600160a01b038086166001600160a01b03199283161790925560048054858416908316178155600580549385169390921683179091556040805163091a7f8b60e41b815290516391a7f8b092828101926000929190829003018186803b158015620000af57600080fd5b505afa158015620000c4573d6000803e3d6000fd5b505050506040513d6000823e601f3d908101601f19168201604052620000ee91908101906200051d565b80516200010491600991602090910190620003fa565b50600560009054906101000a90046001600160a01b03166001600160a01b03166319cd4c3d6040518163ffffffff1660e01b815260040160006040518083038186803b1580156200015457600080fd5b505afa15801562000169573d6000803e3d6000fd5b505050506040513d6000823e601f3d908101601f191682016040526200019391908101906200051d565b8051620001a991600a91602090910190620003fa565b50600360009054906101000a90046001600160a01b03166001600160a01b031663d53913936040518163ffffffff1660e01b815260040160206040518083038186803b158015620001f957600080fd5b505afa1580156200020e573d6000803e3d6000fd5b505050506040513d601f19601f82011682018060405250810190620002349190620005f9565b600681905550620002546000801b33620002ad60201b620011c01760201c565b50505062000650565b600080546001600160a01b038381166001600160a01b0319831681178455604051919092169283917f8be0079c531659141344cd1fd0a4f28419497f9722a3daafe3b4186f6b6457e09190a35050565b620002b98282620002bd565b5050565b620002d482826200030060201b620011ca1760201c565b6000828152600260209081526040909120620002fb9183906200123562000388821b17901c565b505050565b60008281526001602090815260408083206001600160a01b038516845290915290205460ff16620002b95760008281526001602081815260408084206001600160a01b0386168086529252808420805460ff19169093179092559051339285917f2f8788117e7eff1d82e926ec794901d17c78024a50270940304540a733656f0d9190a45050565b60006200039f836001600160a01b038416620003a8565b90505b92915050565b6000818152600183016020526040812054620003f157508154600181810184556000848152602080822090930184905584548482528286019093526040902091909155620003a2565b506000620003a2565b828054620004089062000613565b90600052602060002090601f0160209004810192826200042c576000855562000477565b82601f106200044757805160ff191683800117855562000477565b8280016001018555821562000477579182015b82811115620004775782518255916020019190600101906200045a565b506200048592915062000489565b5090565b5b808211156200048557600081556001016200048a565b80516001600160a01b0381168114620004b857600080fd5b919050565b600080600060608486031215620004d357600080fd5b620004de84620004a0565b9250620004ee60208501620004a0565b9150620004fe60408501620004a0565b90509250925092565b634e487b7160e01b600052604160045260246000fd5b600060208083850312156200053157600080fd5b82516001600160401b03808211156200054957600080fd5b818501915085601f8301126200055e57600080fd5b81518181111562000573576200057362000507565b604051601f8201601f19908116603f011681019083821181831017156200059e576200059e62000507565b816040528281528886848701011115620005b757600080fd5b600093505b82841015620005db5784840186015181850187015292850192620005bc565b82841115620005ed5760008684830101525b98975050505050505050565b6000602082840312156200060c57600080fd5b5051919050565b600181811c908216806200062857607f821691505b602082108114156200064a57634e487b7160e01b600052602260045260246000fd5b50919050565b611dc580620006606000396000f3fe6080604052600436106101665760003560e01c806391d14854116100d1578063d53913931161008a578063ecc1d93b11610064578063ecc1d93b14610489578063f2fde38b146104a9578063f30878c1146104c9578063f3fef3a3146104e957610166565b8063d539139314610433578063d547741f14610449578063d80528ae1461046957610166565b806391d148541461036e578063a217fddf1461038e578063a888c2cd146103a3578063aadd0488146103d3578063affed659146103f3578063ca15c8731461041357610166565b806347ccca021161012357806347ccca02146102a3578063715018a6146102db57806380033daf146102f057806388971bf5146103105780638da5cb5b146103305780639010d07c1461034e57610166565b8063012f8886146101a057806301ffc9a7146101e0578063248a9ca3146102105780632f2ff15d1461024157806336568abe14610263578063379607f514610283575b604080513381523460208201527fe1fffcc4923d04b559f4d29a8bfc6cda04eb5b0d3c460751c2402c5c5cc9109c910160405180910390a1005b3480156101ac57600080fd5b506101cd6101bb3660046117be565b60076020526000908152604090205481565b6040519081526020015b60405180910390f35b3480156101ec57600080fd5b506102006101fb3660046117d9565b610509565b60405190151581526020016101d7565b34801561021c57600080fd5b506101cd61022b366004611803565b6000908152600160208190526040909120015490565b34801561024d57600080fd5b5061026161025c366004611831565b610534565b005b34801561026f57600080fd5b5061026161027e366004611831565b610560565b34801561028f57600080fd5b5061026161029e366004611803565b6105e3565b3480156102af57600080fd5b506003546102c3906001600160a01b031681565b6040516001600160a01b0390911681526020016101d7565b3480156102e757600080fd5b50610261610c29565b3480156102fc57600080fd5b5061026161030b366004611861565b610c5f565b34801561031c57600080fd5b5061026161032b36600461188b565b610cc6565b34801561033c57600080fd5b506000546001600160a01b03166102c3565b34801561035a57600080fd5b506102c36103693660046118a8565b610dd9565b34801561037a57600080fd5b50610200610389366004611831565b610df8565b34801561039a57600080fd5b506101cd600081565b3480156103af57600080fd5b506102006103be366004611803565b60086020526000908152604090205460ff1681565b3480156103df57600080fd5b506102616103ee36600461188b565b610e23565b3480156103ff57600080fd5b506101cd61040e3660046117be565b610f19565b34801561041f57600080fd5b506101cd61042e366004611803565b610f58565b34801561043f57600080fd5b506101cd60065481565b34801561045557600080fd5b50610261610464366004611831565b610f6f565b34801561047557600080fd5b506005546102c3906001600160a01b031681565b34801561049557600080fd5b506102616104a436600461188b565b610f96565b3480156104b557600080fd5b506102616104c436600461188b565b61100e565b3480156104d557600080fd5b506004546102c3906001600160a01b031681565b3480156104f557600080fd5b506102616105043660046118ca565b6110a9565b60006001600160e01b03198216635a05180f60e01b148061052e575061052e8261124a565b92915050565b60008281526001602081905260409091200154610551813361127f565b61055b83836112e3565b505050565b6001600160a01b03811633146105d55760405162461bcd60e51b815260206004820152602f60248201527f416363657373436f6e74726f6c3a2063616e206f6e6c792072656e6f756e636560448201526e103937b632b9903337b91039b2b63360891b60648201526084015b60405180910390fd5b6105df8282611305565b5050565b60035460405163bd85b03960e01b8152600481018390526001600160a01b039091169063bd85b0399060240160206040518083038186803b15801561062757600080fd5b505afa15801561063b573d6000803e3d6000fd5b505050506040513d601f19601f8201168201806040525081019061065f91906118e8565b6001146106cd5760405162461bcd60e51b815260206004820152603660248201527f54726561737572793a2054686520746f6b656e206d7573742062652070726573604482015275656e7420696e2073696e676c65207175616e7469747960501b60648201526084016105cc565b6003546040516331a9108f60e11b8152600481018390526000916001600160a01b031690636352211e9060240160206040518083038186803b15801561071257600080fd5b505afa158015610726573d6000803e3d6000fd5b505050506040513d601f19601f8201168201806040525081019061074a9190611901565b90506001600160a01b03811633146107db576107696006546103893390565b6107db5760405162461bcd60e51b815260206004820152603760248201527f54726561737572793a2054686520726577617264206d75737420626520636c6160448201527f696d656420746f2074686520746f6b656e206f776e657200000000000000000060648201526084016105cc565b60035460405163c588ff8b60e01b8152600481018490527f37a3c4a2a635dedf6a4912ec5757511a1f2fa87cb349543d4751fc18c65e4273916001600160a01b03169063c588ff8b9060240160206040518083038186803b15801561083f57600080fd5b505afa158015610853573d6000803e3d6000fd5b505050506040513d601f19601f8201168201806040525081019061087791906118e8565b146108e05760405162461bcd60e51b815260206004820152603360248201527f54726561737572793a2054686520746f6b656e206d757374206265206f6620446044820152727261676f6e2043617264204e4654207479706560681b60648201526084016105cc565b60008281526008602052604090205460ff161561095c5760405162461bcd60e51b815260206004820152603460248201527f54726561737572793a20546865206361726427732072657761726420686173206044820152731899595b88185b1c9958591e4818db185a5b595960621b60648201526084016105cc565b600082815260086020526040808220805460ff19166001179055600480549151638462357360e01b81526001600160a01b03909216916384623573916109c9917f37a3c4a2a635dedf6a4912ec5757511a1f2fa87cb349543d4751fc18c65e4273918891600a9101611959565b60006040518083038186803b1580156109e157600080fd5b505afa1580156109f5573d6000803e3d6000fd5b505050506040513d6000823e601f3d908101601f19168201604052610a1d9190810190611b04565b6080015115610a2e57506003610aee565b60048054604051638462357360e01b81526001600160a01b0390911691638462357391610a82917f37a3c4a2a635dedf6a4912ec5757511a1f2fa87cb349543d4751fc18c65e427391889160099101611959565b60006040518083038186803b158015610a9a57600080fd5b505afa158015610aae573d6000803e3d6000fd5b505050506040513d6000823e601f3d908101601f19168201604052610ad69190810190611b04565b602001516004811115610aeb57610aeb611bb8565b90505b600060076000836004811115610b0657610b06611bb8565b6004811115610b1757610b17611bb8565b81526020019081526020016000205490506000811115610c2357600080846001600160a01b03168360405160006040518083038185875af1925050503d8060008114610b7f576040519150601f19603f3d011682016040523d82523d6000602084013e610b84565b606091505b509150915081610bd65760405162461bcd60e51b815260206004820152601d60248201527f54726561737572793a204661696c656420746f20636c61696d20424e4200000060448201526064016105cc565b604080516001600160a01b0387168152602081018890529081018490527f987d620f307ff6b94d58743cb7a7509f24071586a77759b77c2d4e29f75a2f9a9060600160405180910390a150505b50505050565b6000546001600160a01b03163314610c535760405162461bcd60e51b81526004016105cc90611bce565b610c5d6000611327565b565b6000546001600160a01b03163314610c895760405162461bcd60e51b81526004016105cc90611bce565b8060076000846004811115610ca057610ca0611bb8565b6004811115610cb157610cb1611bb8565b81526020810191909152604001600020555050565b6000546001600160a01b03163314610cf05760405162461bcd60e51b81526004016105cc90611bce565b600580546001600160a01b0319166001600160a01b0383169081179091556040805163091a7f8b60e41b815290516391a7f8b091600480820192600092909190829003018186803b158015610d4457600080fd5b505afa158015610d58573d6000803e3d6000fd5b505050506040513d6000823e601f3d908101601f19168201604052610d809190810190611c03565b8051610d9491600991602090910190611711565b506005546040516001600160a01b0390911681527f8eabd18158736228e0bcd01444e967ae9262cdb0e8a88fb154542a13f701bf7b906020015b60405180910390a150565b6000828152600260205260408120610df19083611377565b9392505050565b60009182526001602090815260408084206001600160a01b0393909316845291905290205460ff1690565b6000546001600160a01b03163314610e4d5760405162461bcd60e51b81526004016105cc90611bce565b600380546001600160a01b0319166001600160a01b0383169081179091556040805163d539139360e01b8152905163d539139391600480820192602092909190829003018186803b158015610ea157600080fd5b505afa158015610eb5573d6000803e3d6000fd5b505050506040513d601f19601f82011682018060405250810190610ed991906118e8565b6006556003546040516001600160a01b0390911681527f7869e3c19f5ec29481a8433791a06441db7b22cd85336da47df97fd7b686ba2a90602001610dce565b600060076000836004811115610f3157610f31611bb8565b6004811115610f4257610f42611bb8565b8152602001908152602001600020549050919050565b600081815260026020526040812061052e90611383565b60008281526001602081905260409091200154610f8c813361127f565b61055b8383611305565b6000546001600160a01b03163314610fc05760405162461bcd60e51b81526004016105cc90611bce565b600480546001600160a01b0319166001600160a01b0383169081179091556040519081527f6a18b90af8b2ae0add67d0ae89a6972d279fd5888cd58c820f581fa70f2d54bd90602001610dce565b6000546001600160a01b031633146110385760405162461bcd60e51b81526004016105cc90611bce565b6001600160a01b03811661109d5760405162461bcd60e51b815260206004820152602660248201527f4f776e61626c653a206e6577206f776e657220697320746865207a65726f206160448201526564647265737360d01b60648201526084016105cc565b6110a681611327565b50565b6000546001600160a01b031633146110d35760405162461bcd60e51b81526004016105cc90611bce565b600080836001600160a01b03168360405160006040518083038185875af1925050503d8060008114611121576040519150601f19603f3d011682016040523d82523d6000602084013e611126565b606091505b5091509150816111785760405162461bcd60e51b815260206004820181905260248201527f54726561737572793a204661696c656420746f20776974686472617720424e4260448201526064016105cc565b604080516001600160a01b0386168152602081018590527f884edad9ce6fa2440d8a54cc123490eb96d2768479d49ff9c7366125a9424364910160405180910390a150505050565b6105df82826112e3565b6111d48282610df8565b6105df5760008281526001602081815260408084206001600160a01b0386168086529252808420805460ff19169093179092559051339285917f2f8788117e7eff1d82e926ec794901d17c78024a50270940304540a733656f0d9190a45050565b6000610df1836001600160a01b03841661138d565b60006001600160e01b03198216637965db0b60e01b148061052e57506301ffc9a760e01b6001600160e01b031983161461052e565b6112898282610df8565b6105df576112a1816001600160a01b031660146113dc565b6112ac8360206113dc565b6040516020016112bd929190611c40565b60408051601f198184030181529082905262461bcd60e51b82526105cc91600401611cb5565b6112ed82826111ca565b600082815260026020526040902061055b9082611235565b61130f8282611578565b600082815260026020526040902061055b90826115df565b600080546001600160a01b038381166001600160a01b0319831681178455604051919092169283917f8be0079c531659141344cd1fd0a4f28419497f9722a3daafe3b4186f6b6457e09190a35050565b6000610df183836115f4565b600061052e825490565b60008181526001830160205260408120546113d45750815460018181018455600084815260208082209093018490558454848252828601909352604090209190915561052e565b50600061052e565b606060006113eb836002611cfe565b6113f6906002611d1d565b67ffffffffffffffff81111561140e5761140e611a11565b6040519080825280601f01601f191660200182016040528015611438576020820181803683370190505b509050600360fc1b8160008151811061145357611453611d35565b60200101906001600160f81b031916908160001a905350600f60fb1b8160018151811061148257611482611d35565b60200101906001600160f81b031916908160001a90535060006114a6846002611cfe565b6114b1906001611d1d565b90505b6001811115611529576f181899199a1a9b1b9c1cb0b131b232b360811b85600f16601081106114e5576114e5611d35565b1a60f81b8282815181106114fb576114fb611d35565b60200101906001600160f81b031916908160001a90535060049490941c9361152281611d4b565b90506114b4565b508315610df15760405162461bcd60e51b815260206004820181905260248201527f537472696e67733a20686578206c656e67746820696e73756666696369656e7460448201526064016105cc565b6115828282610df8565b156105df5760008281526001602090815260408083206001600160a01b0385168085529252808320805460ff1916905551339285917ff6391f5c32d9c69d2a47ea670b442974b53935d1edc7fd64eb21e047a839171b9190a45050565b6000610df1836001600160a01b03841661161e565b600082600001828154811061160b5761160b611d35565b9060005260206000200154905092915050565b60008181526001830160205260408120548015611707576000611642600183611d62565b855490915060009061165690600190611d62565b90508181146116bb57600086600001828154811061167657611676611d35565b906000526020600020015490508087600001848154811061169957611699611d35565b6000918252602080832090910192909255918252600188019052604090208390555b85548690806116cc576116cc611d79565b60019003818190600052602060002001600090559055856001016000868152602001908152602001600020600090556001935050505061052e565b600091505061052e565b82805461171d9061191e565b90600052602060002090601f01602090048101928261173f5760008555611785565b82601f1061175857805160ff1916838001178555611785565b82800160010185558215611785579182015b8281111561178557825182559160200191906001019061176a565b50611791929150611795565b5090565b5b808211156117915760008155600101611796565b8035600581106117b957600080fd5b919050565b6000602082840312156117d057600080fd5b610df1826117aa565b6000602082840312156117eb57600080fd5b81356001600160e01b031981168114610df157600080fd5b60006020828403121561181557600080fd5b5035919050565b6001600160a01b03811681146110a657600080fd5b6000806040838503121561184457600080fd5b8235915060208301356118568161181c565b809150509250929050565b6000806040838503121561187457600080fd5b61187d836117aa565b946020939093013593505050565b60006020828403121561189d57600080fd5b8135610df18161181c565b600080604083850312156118bb57600080fd5b50508035926020909101359150565b600080604083850312156118dd57600080fd5b823561187d8161181c565b6000602082840312156118fa57600080fd5b5051919050565b60006020828403121561191357600080fd5b8151610df18161181c565b600181811c9082168061193257607f821691505b6020821081141561195357634e487b7160e01b600052602260045260246000fd5b50919050565b838152600060208481840152606060408401526000845481600182811c91508083168061198757607f831692505b8583108114156119a557634e487b7160e01b85526022600452602485fd5b60608801839052608088018180156119c457600181146119d557611a00565b60ff19861682528782019650611a00565b60008b81526020902060005b868110156119fa578154848201529085019089016119e1565b83019750505b50949b9a5050505050505050505050565b634e487b7160e01b600052604160045260246000fd5b60405160a0810167ffffffffffffffff81118282101715611a4a57611a4a611a11565b60405290565b60005b83811015611a6b578181015183820152602001611a53565b83811115610c235750506000910152565b600082601f830112611a8d57600080fd5b815167ffffffffffffffff80821115611aa857611aa8611a11565b604051601f8301601f19908116603f01168101908282118183101715611ad057611ad0611a11565b81604052838152866020858801011115611ae957600080fd5b611afa846020830160208901611a50565b9695505050505050565b600060208284031215611b1657600080fd5b815167ffffffffffffffff80821115611b2e57600080fd5b9083019060a08286031215611b4257600080fd5b611b4a611a27565b825160048110611b5957600080fd5b815260208381015190820152604083015182811115611b7757600080fd5b611b8387828601611a7c565b60408301525060608301516060820152608083015192508215158314611ba857600080fd5b6080810192909252509392505050565b634e487b7160e01b600052602160045260246000fd5b6020808252818101527f4f776e61626c653a2063616c6c6572206973206e6f7420746865206f776e6572604082015260600190565b600060208284031215611c1557600080fd5b815167ffffffffffffffff811115611c2c57600080fd5b611c3884828501611a7c565b949350505050565b7f416363657373436f6e74726f6c3a206163636f756e7420000000000000000000815260008351611c78816017850160208801611a50565b7001034b99036b4b9b9b4b733903937b6329607d1b6017918401918201528351611ca9816028840160208801611a50565b01602801949350505050565b6020815260008251806020840152611cd4816040850160208701611a50565b601f01601f19169190910160400192915050565b634e487b7160e01b600052601160045260246000fd5b6000816000190483118215151615611d1857611d18611ce8565b500290565b60008219821115611d3057611d30611ce8565b500190565b634e487b7160e01b600052603260045260246000fd5b600081611d5a57611d5a611ce8565b506000190190565b600082821015611d7457611d74611ce8565b500390565b634e487b7160e01b600052603160045260246000fdfea2646970667358221220c906f750324017139221171dfd7bdaef4724b5718f7c15554bcd86508a7a38fc64736f6c63430008090033",
  "immutableReferences": {},
  "source": "// SPDX-License-Identifier: MIT\npragma solidity ^0.8;\n\nimport \"@openzeppelin/contracts/access/Ownable.sol\";\nimport \"./FireZardNFT.sol\";\nimport \"./StatsView.sol\";\nimport \"./DragonStats.sol\";\nimport {Util} from \"./Util.sol\";\n\ncontract Treasury is Ownable, AccessControlEnumerable {\n    address public\tnft;\n    address public\tviewer;\n    address public\tstats;\n\n    bytes32 public MINTER_ROLE;\n\n    mapping(Util.CardRarity => uint256)\tpublic\treward_table;\n\n    mapping(uint256 => bool)\t\tpublic\tclaims;\n\n    string rarity_str;\n    string rarity_override_str;\n\n    modifier onlyMinter() {\n\trequire(hasRole(MINTER_ROLE, _msgSender()), \"Treasury: must have minter role to claim rewards\");\n\t_;\n    }\n\n    constructor(address _nft, address _viewer, address _stats) {\n\tnft = _nft;\n\tviewer = _viewer;\n\tstats = _stats;\n\trarity_str  = DragonStats(stats).RARITY_STR();\n\trarity_override_str  = DragonStats(stats).RARITY_OVERRIDE_STR();\n\tMINTER_ROLE = FireZardNFT(nft).MINTER_ROLE();\n\n\tsuper._setupRole(DEFAULT_ADMIN_ROLE,msg.sender);\n    }\n\n    /**\n     * @notice Sets link to ERC1155 NFT smart contract\n    **/\n    function linkNFT(address _nft) public virtual onlyOwner {\n        nft = _nft;\n\tMINTER_ROLE = FireZardNFT(nft).MINTER_ROLE();\n        emit NFTLink(nft);\n    }\n\n    /**\n     * @notice Sets link to Tag Storage smart contract\n    **/\n    function linkViewer(address _viewer) public virtual onlyOwner {\n        viewer = _viewer;\n        emit ViewLink(viewer);\n    }\n\n    /**\n     * @notice Sets link to the Stats deriving library\n    **/\n    function linkStatsLib(address _stats) public virtual onlyOwner {\n        stats = _stats;\n\trarity_str  = DragonStats(stats).RARITY_STR();\n        emit StatsLibLink(stats);\n    }\n\n    // Deposit funds\n    fallback() external payable {\n\temit Deposit(msg.sender, msg.value);\n    }\n\n    function withdraw(address recipient, uint256 amount) external onlyOwner {\n\t(bool _res, bytes memory _data) = recipient.call{value: amount}(\"\");\n\trequire(_res, \"Treasury: Failed to withdraw BNB\");\n\temit Withdraw(recipient, amount);\n    }\n\n    function claim(uint256 token_id) external {\n\trequire(FireZardNFT(nft).totalSupply(token_id) == 1, \"Treasury: The token must be present in single quantity\");\n\n\taddress to = FireZardNFT(nft).ownerOf(token_id);\n\tif(to != _msgSender())\n\t    if(!hasRole(MINTER_ROLE, _msgSender()))\n\t\trevert(\"Treasury: The reward must be claimed to the token owner\");\n\n\trequire(FireZardNFT(nft).typeOf(token_id) == Util.DRAGON_CARD_TYPE_CODE, \"Treasury: The token must be of Dragon Card NFT type\");\n\trequire(!claims[token_id], \"Treasury: The card's reward has been already claimed\");\n\n\tclaims[token_id] = true;\n\tUtil.CardRarity card_rarity;\n\tif(StatsView(viewer).getStat(Util.DRAGON_CARD_TYPE_CODE, token_id, rarity_override_str).bool_val)\n\t    card_rarity = Util.CardRarity.Uncommon;\n\telse\n\t    card_rarity = Util.CardRarity(StatsView(viewer).getStat(Util.DRAGON_CARD_TYPE_CODE, token_id, rarity_str).int_val);\n\tuint256 reward_value = reward_table[card_rarity];\n\tif(reward_value>0){\n\t    (bool _res, bytes memory _data) = to.call{value: reward_value}(\"\");\n\t    require(_res, \"Treasury: Failed to claim BNB\");\n\t    emit Claimed(to, token_id, reward_value);\n\t}\n    }\n\n    function setReward(Util.CardRarity _rarity, uint256 _reward) external onlyOwner {\n\treward_table[_rarity] = _reward;\n    }\n\n    function getRewardValue(Util.CardRarity _rarity) external view returns (uint256) {\n\treturn reward_table[_rarity];\n    }\n\n    event NFTLink(address contract_addr);\n    event ViewLink(address contract_addr);\n    event StatsLibLink(address contract_addr);\n    event Deposit(address sender, uint256 amount);\n    event Withdraw(address sender, uint256 amount);\n    event Claimed(address sender, uint256 token_id, uint256 value);\n}\n",
  "sourcePath": "/home/vrogojin/Projects/FireZard/nft/contracts/Treasury.sol",
  "compiler": {
    "name": "solc",
    "version": "0.8.9+commit.e5eed63a.Emscripten.clang"
  },
  "schemaVersion": "3.4.3",
  "updatedAt": "2022-01-25T01:09:40.421Z",
  "networkType": "ethereum",
  "devdoc": {
    "kind": "dev",
    "methods": {
      "getRoleAdmin(bytes32)": {
        "details": "Returns the admin role that controls `role`. See {grantRole} and {revokeRole}. To change a role's admin, use {_setRoleAdmin}."
      },
      "getRoleMember(bytes32,uint256)": {
        "details": "Returns one of the accounts that have `role`. `index` must be a value between 0 and {getRoleMemberCount}, non-inclusive. Role bearers are not sorted in any particular way, and their ordering may change at any point. WARNING: When using {getRoleMember} and {getRoleMemberCount}, make sure you perform all queries on the same block. See the following https://forum.openzeppelin.com/t/iterating-over-elements-on-enumerableset-in-openzeppelin-contracts/2296[forum post] for more information."
      },
      "getRoleMemberCount(bytes32)": {
        "details": "Returns the number of accounts that have `role`. Can be used together with {getRoleMember} to enumerate all bearers of a role."
      },
      "grantRole(bytes32,address)": {
        "details": "Grants `role` to `account`. If `account` had not been already granted `role`, emits a {RoleGranted} event. Requirements: - the caller must have ``role``'s admin role."
      },
      "hasRole(bytes32,address)": {
        "details": "Returns `true` if `account` has been granted `role`."
      },
      "owner()": {
        "details": "Returns the address of the current owner."
      },
      "renounceOwnership()": {
        "details": "Leaves the contract without owner. It will not be possible to call `onlyOwner` functions anymore. Can only be called by the current owner. NOTE: Renouncing ownership will leave the contract without an owner, thereby removing any functionality that is only available to the owner."
      },
      "renounceRole(bytes32,address)": {
        "details": "Revokes `role` from the calling account. Roles are often managed via {grantRole} and {revokeRole}: this function's purpose is to provide a mechanism for accounts to lose their privileges if they are compromised (such as when a trusted device is misplaced). If the calling account had been revoked `role`, emits a {RoleRevoked} event. Requirements: - the caller must be `account`."
      },
      "revokeRole(bytes32,address)": {
        "details": "Revokes `role` from `account`. If `account` had been granted `role`, emits a {RoleRevoked} event. Requirements: - the caller must have ``role``'s admin role."
      },
      "supportsInterface(bytes4)": {
        "details": "See {IERC165-supportsInterface}."
      },
      "transferOwnership(address)": {
        "details": "Transfers ownership of the contract to a new account (`newOwner`). Can only be called by the current owner."
      }
    },
    "version": 1
  },
  "userdoc": {
    "kind": "user",
    "methods": {
      "linkNFT(address)": {
        "notice": "Sets link to ERC1155 NFT smart contract*"
      },
      "linkStatsLib(address)": {
        "notice": "Sets link to the Stats deriving library*"
      },
      "linkViewer(address)": {
        "notice": "Sets link to Tag Storage smart contract*"
      }
    },
    "version": 1
  }
}