{
  "contractName": "Treasury",
  "abi": [
    {
      "anonymous": false,
      "inputs": [
        {
          "indexed": false,
          "internalType": "address",
          "name": "sender",
          "type": "address"
        },
        {
          "indexed": false,
          "internalType": "uint256",
          "name": "token_id",
          "type": "uint256"
        },
        {
          "indexed": false,
          "internalType": "uint256",
          "name": "value",
          "type": "uint256"
        }
      ],
      "name": "Claimed",
      "type": "event"
    },
    {
      "anonymous": false,
      "inputs": [
        {
          "indexed": false,
          "internalType": "address",
          "name": "_manager",
          "type": "address"
        }
      ],
      "name": "ContractAdded",
      "type": "event"
    },
    {
      "anonymous": false,
      "inputs": [
        {
          "indexed": false,
          "internalType": "address",
          "name": "newManager",
          "type": "address"
        }
      ],
      "name": "ContractManagerSwitch",
      "type": "event"
    },
    {
      "anonymous": false,
      "inputs": [
        {
          "indexed": false,
          "internalType": "address",
          "name": "newOwner",
          "type": "address"
        }
      ],
      "name": "ContractOwnershipUpdate",
      "type": "event"
    },
    {
      "anonymous": false,
      "inputs": [],
      "name": "ContractRemoved",
      "type": "event"
    },
    {
      "anonymous": false,
      "inputs": [
        {
          "indexed": false,
          "internalType": "address",
          "name": "contractInstance",
          "type": "address"
        }
      ],
      "name": "ContractReplaced",
      "type": "event"
    },
    {
      "anonymous": false,
      "inputs": [
        {
          "indexed": false,
          "internalType": "address",
          "name": "oldInstance",
          "type": "address"
        },
        {
          "indexed": false,
          "internalType": "address",
          "name": "_manager",
          "type": "address"
        }
      ],
      "name": "ContractUpdated",
      "type": "event"
    },
    {
      "anonymous": false,
      "inputs": [
        {
          "indexed": false,
          "internalType": "address",
          "name": "sender",
          "type": "address"
        },
        {
          "indexed": false,
          "internalType": "uint256",
          "name": "amount",
          "type": "uint256"
        }
      ],
      "name": "Deposit",
      "type": "event"
    },
    {
      "anonymous": false,
      "inputs": [
        {
          "indexed": false,
          "internalType": "address",
          "name": "contract_addr",
          "type": "address"
        }
      ],
      "name": "NFTLink",
      "type": "event"
    },
    {
      "anonymous": false,
      "inputs": [
        {
          "indexed": true,
          "internalType": "address",
          "name": "previousOwner",
          "type": "address"
        },
        {
          "indexed": true,
          "internalType": "address",
          "name": "newOwner",
          "type": "address"
        }
      ],
      "name": "OwnershipTransferred",
      "type": "event"
    },
    {
      "anonymous": false,
      "inputs": [
        {
          "indexed": true,
          "internalType": "bytes32",
          "name": "role",
          "type": "bytes32"
        },
        {
          "indexed": true,
          "internalType": "bytes32",
          "name": "previousAdminRole",
          "type": "bytes32"
        },
        {
          "indexed": true,
          "internalType": "bytes32",
          "name": "newAdminRole",
          "type": "bytes32"
        }
      ],
      "name": "RoleAdminChanged",
      "type": "event"
    },
    {
      "anonymous": false,
      "inputs": [
        {
          "indexed": true,
          "internalType": "bytes32",
          "name": "role",
          "type": "bytes32"
        },
        {
          "indexed": true,
          "internalType": "address",
          "name": "account",
          "type": "address"
        },
        {
          "indexed": true,
          "internalType": "address",
          "name": "sender",
          "type": "address"
        }
      ],
      "name": "RoleGranted",
      "type": "event"
    },
    {
      "anonymous": false,
      "inputs": [
        {
          "indexed": true,
          "internalType": "bytes32",
          "name": "role",
          "type": "bytes32"
        },
        {
          "indexed": true,
          "internalType": "address",
          "name": "account",
          "type": "address"
        },
        {
          "indexed": true,
          "internalType": "address",
          "name": "sender",
          "type": "address"
        }
      ],
      "name": "RoleRevoked",
      "type": "event"
    },
    {
      "anonymous": false,
      "inputs": [
        {
          "indexed": false,
          "internalType": "address",
          "name": "contract_addr",
          "type": "address"
        }
      ],
      "name": "StatsLibLink",
      "type": "event"
    },
    {
      "anonymous": false,
      "inputs": [
        {
          "indexed": false,
          "internalType": "address",
          "name": "contract_addr",
          "type": "address"
        }
      ],
      "name": "ViewLink",
      "type": "event"
    },
    {
      "anonymous": false,
      "inputs": [
        {
          "indexed": false,
          "internalType": "address",
          "name": "sender",
          "type": "address"
        },
        {
          "indexed": false,
          "internalType": "uint256",
          "name": "amount",
          "type": "uint256"
        }
      ],
      "name": "Withdraw",
      "type": "event"
    },
    {
      "stateMutability": "payable",
      "type": "fallback"
    },
    {
      "inputs": [],
      "name": "DEFAULT_ADMIN_ROLE",
      "outputs": [
        {
          "internalType": "bytes32",
          "name": "",
          "type": "bytes32"
        }
      ],
      "stateMutability": "view",
      "type": "function"
    },
    {
      "inputs": [],
      "name": "MANAGER_ROLE",
      "outputs": [
        {
          "internalType": "bytes32",
          "name": "",
          "type": "bytes32"
        }
      ],
      "stateMutability": "view",
      "type": "function"
    },
    {
      "inputs": [],
      "name": "MINTER_ROLE",
      "outputs": [
        {
          "internalType": "bytes32",
          "name": "",
          "type": "bytes32"
        }
      ],
      "stateMutability": "view",
      "type": "function"
    },
    {
      "inputs": [
        {
          "internalType": "uint256",
          "name": "",
          "type": "uint256"
        }
      ],
      "name": "claims",
      "outputs": [
        {
          "internalType": "bool",
          "name": "",
          "type": "bool"
        }
      ],
      "stateMutability": "view",
      "type": "function"
    },
    {
      "inputs": [],
      "name": "contract_id",
      "outputs": [
        {
          "internalType": "bytes32",
          "name": "",
          "type": "bytes32"
        }
      ],
      "stateMutability": "view",
      "type": "function"
    },
    {
      "inputs": [],
      "name": "contract_name",
      "outputs": [
        {
          "internalType": "string",
          "name": "",
          "type": "string"
        }
      ],
      "stateMutability": "view",
      "type": "function"
    },
    {
      "inputs": [
        {
          "internalType": "bytes32",
          "name": "role",
          "type": "bytes32"
        }
      ],
      "name": "getRoleAdmin",
      "outputs": [
        {
          "internalType": "bytes32",
          "name": "",
          "type": "bytes32"
        }
      ],
      "stateMutability": "view",
      "type": "function"
    },
    {
      "inputs": [
        {
          "internalType": "bytes32",
          "name": "role",
          "type": "bytes32"
        },
        {
          "internalType": "uint256",
          "name": "index",
          "type": "uint256"
        }
      ],
      "name": "getRoleMember",
      "outputs": [
        {
          "internalType": "address",
          "name": "",
          "type": "address"
        }
      ],
      "stateMutability": "view",
      "type": "function"
    },
    {
      "inputs": [
        {
          "internalType": "bytes32",
          "name": "role",
          "type": "bytes32"
        }
      ],
      "name": "getRoleMemberCount",
      "outputs": [
        {
          "internalType": "uint256",
          "name": "",
          "type": "uint256"
        }
      ],
      "stateMutability": "view",
      "type": "function"
    },
    {
      "inputs": [
        {
          "internalType": "bytes32",
          "name": "role",
          "type": "bytes32"
        },
        {
          "internalType": "address",
          "name": "account",
          "type": "address"
        }
      ],
      "name": "grantRole",
      "outputs": [],
      "stateMutability": "nonpayable",
      "type": "function"
    },
    {
      "inputs": [
        {
          "internalType": "bytes32",
          "name": "role",
          "type": "bytes32"
        },
        {
          "internalType": "address",
          "name": "account",
          "type": "address"
        }
      ],
      "name": "hasRole",
      "outputs": [
        {
          "internalType": "bool",
          "name": "",
          "type": "bool"
        }
      ],
      "stateMutability": "view",
      "type": "function"
    },
    {
      "inputs": [],
      "name": "manager",
      "outputs": [
        {
          "internalType": "address",
          "name": "",
          "type": "address"
        }
      ],
      "stateMutability": "view",
      "type": "function"
    },
    {
      "inputs": [],
      "name": "nft",
      "outputs": [
        {
          "internalType": "address",
          "name": "",
          "type": "address"
        }
      ],
      "stateMutability": "view",
      "type": "function"
    },
    {
      "inputs": [
        {
          "internalType": "address",
          "name": "_manager",
          "type": "address"
        }
      ],
      "name": "onAdd",
      "outputs": [],
      "stateMutability": "nonpayable",
      "type": "function"
    },
    {
      "inputs": [],
      "name": "onRemoved",
      "outputs": [],
      "stateMutability": "nonpayable",
      "type": "function"
    },
    {
      "inputs": [
        {
          "internalType": "address",
          "name": "newInstance",
          "type": "address"
        }
      ],
      "name": "onReplaced",
      "outputs": [],
      "stateMutability": "nonpayable",
      "type": "function"
    },
    {
      "inputs": [
        {
          "internalType": "address",
          "name": "oldInstance",
          "type": "address"
        },
        {
          "internalType": "address",
          "name": "_manager",
          "type": "address"
        }
      ],
      "name": "onUpdate",
      "outputs": [],
      "stateMutability": "nonpayable",
      "type": "function"
    },
    {
      "inputs": [],
      "name": "owner",
      "outputs": [
        {
          "internalType": "address",
          "name": "",
          "type": "address"
        }
      ],
      "stateMutability": "view",
      "type": "function"
    },
    {
      "inputs": [],
      "name": "renounceOwnership",
      "outputs": [],
      "stateMutability": "nonpayable",
      "type": "function"
    },
    {
      "inputs": [
        {
          "internalType": "bytes32",
          "name": "role",
          "type": "bytes32"
        },
        {
          "internalType": "address",
          "name": "account",
          "type": "address"
        }
      ],
      "name": "renounceRole",
      "outputs": [],
      "stateMutability": "nonpayable",
      "type": "function"
    },
    {
      "inputs": [
        {
          "internalType": "bytes32",
          "name": "role",
          "type": "bytes32"
        },
        {
          "internalType": "address",
          "name": "account",
          "type": "address"
        }
      ],
      "name": "revokeRole",
      "outputs": [],
      "stateMutability": "nonpayable",
      "type": "function"
    },
    {
      "inputs": [
        {
          "internalType": "enum Util.CardRarity",
          "name": "",
          "type": "uint8"
        }
      ],
      "name": "reward_table",
      "outputs": [
        {
          "internalType": "uint256",
          "name": "",
          "type": "uint256"
        }
      ],
      "stateMutability": "view",
      "type": "function"
    },
    {
      "inputs": [],
      "name": "stats",
      "outputs": [
        {
          "internalType": "address",
          "name": "",
          "type": "address"
        }
      ],
      "stateMutability": "view",
      "type": "function"
    },
    {
      "inputs": [
        {
          "internalType": "bytes4",
          "name": "interfaceId",
          "type": "bytes4"
        }
      ],
      "name": "supportsInterface",
      "outputs": [
        {
          "internalType": "bool",
          "name": "",
          "type": "bool"
        }
      ],
      "stateMutability": "view",
      "type": "function"
    },
    {
      "inputs": [
        {
          "internalType": "address",
          "name": "newManager",
          "type": "address"
        }
      ],
      "name": "switchManager",
      "outputs": [],
      "stateMutability": "nonpayable",
      "type": "function"
    },
    {
      "inputs": [
        {
          "internalType": "address",
          "name": "newOwner",
          "type": "address"
        }
      ],
      "name": "transferOwnership",
      "outputs": [],
      "stateMutability": "nonpayable",
      "type": "function"
    },
    {
      "inputs": [
        {
          "internalType": "address",
          "name": "newOwner",
          "type": "address"
        }
      ],
      "name": "updateOwnership",
      "outputs": [],
      "stateMutability": "nonpayable",
      "type": "function"
    },
    {
      "inputs": [],
      "name": "viewer",
      "outputs": [
        {
          "internalType": "address",
          "name": "",
          "type": "address"
        }
      ],
      "stateMutability": "view",
      "type": "function"
    },
    {
      "inputs": [],
      "name": "getName",
      "outputs": [
        {
          "internalType": "string",
          "name": "",
          "type": "string"
        }
      ],
      "stateMutability": "pure",
      "type": "function"
    },
    {
      "inputs": [],
      "name": "getId",
      "outputs": [
        {
          "internalType": "bytes32",
          "name": "",
          "type": "bytes32"
        }
      ],
      "stateMutability": "pure",
      "type": "function"
    },
    {
      "inputs": [
        {
          "internalType": "bytes32",
          "name": "hname",
          "type": "bytes32"
        },
        {
          "internalType": "address",
          "name": "contractInstance",
          "type": "address"
        },
        {
          "internalType": "bool",
          "name": "isNew",
          "type": "bool"
        }
      ],
      "name": "onListenAdded",
      "outputs": [],
      "stateMutability": "nonpayable",
      "type": "function"
    },
    {
      "inputs": [
        {
          "internalType": "bytes32",
          "name": "hname",
          "type": "bytes32"
        }
      ],
      "name": "onListenRemoved",
      "outputs": [],
      "stateMutability": "nonpayable",
      "type": "function"
    },
    {
      "inputs": [
        {
          "internalType": "address",
          "name": "_nft",
          "type": "address"
        }
      ],
      "name": "linkNFT",
      "outputs": [],
      "stateMutability": "nonpayable",
      "type": "function"
    },
    {
      "inputs": [
        {
          "internalType": "address",
          "name": "_viewer",
          "type": "address"
        }
      ],
      "name": "linkViewer",
      "outputs": [],
      "stateMutability": "nonpayable",
      "type": "function"
    },
    {
      "inputs": [
        {
          "internalType": "address",
          "name": "_stats",
          "type": "address"
        }
      ],
      "name": "linkStatsLib",
      "outputs": [],
      "stateMutability": "nonpayable",
      "type": "function"
    },
    {
      "inputs": [
        {
          "internalType": "address",
          "name": "recipient",
          "type": "address"
        },
        {
          "internalType": "uint256",
          "name": "amount",
          "type": "uint256"
        }
      ],
      "name": "withdraw",
      "outputs": [],
      "stateMutability": "nonpayable",
      "type": "function"
    },
    {
      "inputs": [
        {
          "internalType": "uint256",
          "name": "token_id",
          "type": "uint256"
        }
      ],
      "name": "claim",
      "outputs": [],
      "stateMutability": "nonpayable",
      "type": "function"
    },
    {
      "inputs": [
        {
          "internalType": "enum Util.CardRarity",
          "name": "_rarity",
          "type": "uint8"
        },
        {
          "internalType": "uint256",
          "name": "_reward",
          "type": "uint256"
        }
      ],
      "name": "setReward",
      "outputs": [],
      "stateMutability": "nonpayable",
      "type": "function"
    },
    {
      "inputs": [
        {
          "internalType": "enum Util.CardRarity",
          "name": "_rarity",
          "type": "uint8"
        }
      ],
      "name": "getRewardValue",
      "outputs": [
        {
          "internalType": "uint256",
          "name": "",
          "type": "uint256"
        }
      ],
      "stateMutability": "view",
      "type": "function"
    }
  ],
  "bytecode": "0x60806040523480156200001157600080fd5b506200001d3362000030565b6200002a60003362000080565b620001be565b600080546001600160a01b038381166001600160a01b0319831681178455604051919092169283917f8be0079c531659141344cd1fd0a4f28419497f9722a3daafe3b4186f6b6457e09190a35050565b620000978282620000c360201b620014a91760201c565b6000828152600260209081526040909120620000be918390620015146200014c821b17901c565b505050565b60008281526001602090815260408083206001600160a01b038516845290915290205460ff16620001485760008281526001602081815260408084206001600160a01b0386168086529252808420805460ff19169093179092559051339285917f2f8788117e7eff1d82e926ec794901d17c78024a50270940304540a733656f0d9190a45b5050565b600062000163836001600160a01b0384166200016c565b90505b92915050565b6000818152600183016020526040812054620001b55750815460018181018455600084815260208082209093018490558454848252828601909352604090209190915562000166565b50600062000166565b6127a980620001ce6000396000f3fe6080604052600436106102305760003560e01c806388971bf51161012e578063d4697a47116100ab578063ec87621c1161006f578063ec87621c146106fe578063ecc1d93b14610720578063f2fde38b14610740578063f30878c114610760578063f3fef3a31461078057610230565b8063d4697a4714610656578063d539139314610674578063d547741f1461068a578063d80528ae146106aa578063d9479692146106ca57610230565b8063a888c2cd116100f2578063a888c2cd146105a6578063aadd0488146105d6578063affed659146105f6578063c69c957914610616578063ca15c8731461063657610230565b806388971bf5146105135780638da5cb5b146105335780639010d07c1461055157806391d1485414610571578063a217fddf1461059157610230565b8063379607f5116101bc5780635df11291116101805780635df112911461047e5780636b2bf27f1461049e578063715018a6146104be57806380033daf146104d35780638840891e146104f357610230565b8063379607f5146103dc5780633ad32d16146103fc57806347ccca0214610411578063481c6a75146104495780635d1ca6311461046957610230565b806317d7de7c1161020357806317d7de7c1461031c5780631a6f04f314610356578063248a9ca31461036b5780632f2ff15d1461039c57806336568abe146103bc57610230565b8063012f88861461026a57806301ffc9a7146102aa5780630447a2cd146102da57806316f28d24146102fc575b604080513381523460208201527fe1fffcc4923d04b559f4d29a8bfc6cda04eb5b0d3c460751c2402c5c5cc9109c910160405180910390a1005b34801561027657600080fd5b50610297610285366004612090565b60086020526000908152604090205481565b6040519081526020015b60405180910390f35b3480156102b657600080fd5b506102ca6102c53660046120ab565b6107a0565b60405190151581526020016102a1565b3480156102e657600080fd5b506102fa6102f53660046120ea565b6107cb565b005b34801561030857600080fd5b506102fa610317366004612131565b6107d9565b34801561032857600080fd5b50604080518082019091526008815267547265617375727960c01b60208201525b6040516102a1919061219f565b34801561036257600080fd5b506102fa61094e565b34801561037757600080fd5b506102976103863660046121d2565b6000908152600160208190526040909120015490565b3480156103a857600080fd5b506102fa6103b73660046121eb565b610958565b3480156103c857600080fd5b506102fa6103d73660046121eb565b61097f565b3480156103e857600080fd5b506102fa6103f73660046121d2565b6109f9565b34801561040857600080fd5b50610297611043565b34801561041d57600080fd5b50600454610431906001600160a01b031681565b6040516001600160a01b0390911681526020016102a1565b34801561045557600080fd5b50600354610431906001600160a01b031681565b34801561047557600080fd5b5061029761108d565b34801561048a57600080fd5b506102fa610499366004612210565b6110db565b3480156104aa57600080fd5b506102fa6104b9366004612210565b6110e4565b3480156104ca57600080fd5b506102fa6110ed565b3480156104df57600080fd5b506102fa6104ee36600461222d565b611121565b3480156104ff57600080fd5b506102fa61050e366004612210565b611188565b34801561051f57600080fd5b506102fa61052e366004612210565b611191565b34801561053f57600080fd5b506000546001600160a01b0316610431565b34801561055d57600080fd5b5061043161056c366004612257565b6111c4565b34801561057d57600080fd5b506102ca61058c3660046121eb565b6111e3565b34801561059d57600080fd5b50610297600081565b3480156105b257600080fd5b506102ca6105c13660046121d2565b60096020526000908152604090205460ff1681565b3480156105e257600080fd5b506102fa6105f1366004612210565b61120e565b34801561060257600080fd5b50610297610611366004612090565b611241565b34801561062257600080fd5b506102fa610631366004612210565b611280565b34801561064257600080fd5b506102976106513660046121d2565b611289565b34801561066257600080fd5b506102fa6106713660046121d2565b50565b34801561068057600080fd5b5061029760075481565b34801561069657600080fd5b506102fa6106a53660046121eb565b6112a0565b3480156106b657600080fd5b50600654610431906001600160a01b031681565b3480156106d657600080fd5b5061034960405180604001604052806008815260200167547265617375727960c01b81525081565b34801561070a57600080fd5b5061029760008051602061275483398151915281565b34801561072c57600080fd5b506102fa61073b366004612210565b6112c7565b34801561074c57600080fd5b506102fa61075b366004612210565b6112fa565b34801561076c57600080fd5b50600554610431906001600160a01b031681565b34801561078c57600080fd5b506102fa61079b366004612279565b611392565b60006001600160e01b0319821663ee7ed59960e01b14806107c557506107c582611529565b92915050565b6107d5828261154e565b5050565b6107f1600080516020612754833981519152336111e3565b6108165760405162461bcd60e51b815260040161080d90612297565b60405180910390fd5b7fc227f98e618597415dca1f5035d597d1e75936952bfd5d741271dd85ba110d9083141561084c57610847826115e1565b505050565b816001600160a01b0316633ad32d166040518163ffffffff1660e01b815260040160206040518083038186803b15801561088557600080fd5b505afa158015610899573d6000803e3d6000fd5b505050506040513d601f19601f820116820180604052508101906108bd91906122f4565b8314156108cd57610847826116b1565b816001600160a01b0316633ad32d166040518163ffffffff1660e01b815260040160206040518083038186803b15801561090657600080fd5b505afa15801561091a573d6000803e3d6000fd5b505050506040513d601f19601f8201168201806040525081019061093e91906122f4565b8314156108475761084782611832565b610956611880565b565b6000828152600160208190526040909120015461097581336118ef565b6108478383611953565b6001600160a01b03811633146109ef5760405162461bcd60e51b815260206004820152602f60248201527f416363657373436f6e74726f6c3a2063616e206f6e6c792072656e6f756e636560448201526e103937b632b9903337b91039b2b63360891b606482015260840161080d565b6107d58282611975565b6004805460405163bd85b03960e01b81529182018390526001600160a01b03169063bd85b0399060240160206040518083038186803b158015610a3b57600080fd5b505afa158015610a4f573d6000803e3d6000fd5b505050506040513d601f19601f82011682018060405250810190610a7391906122f4565b600114610ae15760405162461bcd60e51b815260206004820152603660248201527f54726561737572793a2054686520746f6b656e206d7573742062652070726573604482015275656e7420696e2073696e676c65207175616e7469747960501b606482015260840161080d565b600480546040516331a9108f60e11b81529182018390526000916001600160a01b0390911690636352211e9060240160206040518083038186803b158015610b2857600080fd5b505afa158015610b3c573d6000803e3d6000fd5b505050506040513d601f19601f82011682018060405250810190610b60919061230d565b90506001600160a01b0381163314610bf157610b7f60075461058c3390565b610bf15760405162461bcd60e51b815260206004820152603760248201527f54726561737572793a2054686520726577617264206d75737420626520636c6160448201527f696d656420746f2074686520746f6b656e206f776e6572000000000000000000606482015260840161080d565b6004805460405163c588ff8b60e01b81529182018490527f37a3c4a2a635dedf6a4912ec5757511a1f2fa87cb349543d4751fc18c65e4273916001600160a01b039091169063c588ff8b9060240160206040518083038186803b158015610c5757600080fd5b505afa158015610c6b573d6000803e3d6000fd5b505050506040513d601f19601f82011682018060405250810190610c8f91906122f4565b14610cf85760405162461bcd60e51b815260206004820152603360248201527f54726561737572793a2054686520746f6b656e206d757374206265206f6620446044820152727261676f6e2043617264204e4654207479706560681b606482015260840161080d565b60008281526009602052604090205460ff1615610d745760405162461bcd60e51b815260206004820152603460248201527f54726561737572793a20546865206361726427732072657761726420686173206044820152731899595b88185b1c9958591e4818db185a5b595960621b606482015260840161080d565b600082815260096020526040808220805460ff191660011790556005549051638462357360e01b81526001600160a01b0390911690638462357390610de2907f37a3c4a2a635dedf6a4912ec5757511a1f2fa87cb349543d4751fc18c65e4273908790600b90600401612365565b60006040518083038186803b158015610dfa57600080fd5b505afa158015610e0e573d6000803e3d6000fd5b505050506040513d6000823e601f3d908101601f19168201604052610e3691908101906124e4565b6080015115610e4757506003610f08565b600554604051638462357360e01b81526001600160a01b0390911690638462357390610e9c907f37a3c4a2a635dedf6a4912ec5757511a1f2fa87cb349543d4751fc18c65e4273908790600a90600401612365565b60006040518083038186803b158015610eb457600080fd5b505afa158015610ec8573d6000803e3d6000fd5b505050506040513d6000823e601f3d908101601f19168201604052610ef091908101906124e4565b602001516004811115610f0557610f05612593565b90505b600060086000836004811115610f2057610f20612593565b6004811115610f3157610f31612593565b8152602001908152602001600020549050600081111561103d57600080846001600160a01b03168360405160006040518083038185875af1925050503d8060008114610f99576040519150601f19603f3d011682016040523d82523d6000602084013e610f9e565b606091505b509150915081610ff05760405162461bcd60e51b815260206004820152601d60248201527f54726561737572793a204661696c656420746f20636c61696d20424e42000000604482015260640161080d565b604080516001600160a01b0387168152602081018890529081018490527f987d620f307ff6b94d58743cb7a7509f24071586a77759b77c2d4e29f75a2f9a9060600160405180910390a150505b50505050565b60405180604001604052806008815260200167547265617375727960c01b81525060405160200161107491906125a9565b6040516020818303038152906040528051906020012081565b600060405180604001604052806008815260200167547265617375727960c01b8152506040516020016110c091906125a9565b60405160208183030381529060405280519060200120905090565b61067181611997565b61067181611a4f565b6000546001600160a01b031633146111175760405162461bcd60e51b815260040161080d906125c5565b6109566000611ac5565b6000546001600160a01b0316331461114b5760405162461bcd60e51b815260040161080d906125c5565b806008600084600481111561116257611162612593565b600481111561117357611173612593565b81526020810191909152604001600020555050565b61067181611b15565b6000546001600160a01b031633146111bb5760405162461bcd60e51b815260040161080d906125c5565b610671816116b1565b60008281526002602052604081206111dc9083611b97565b9392505050565b60009182526001602090815260408084206001600160a01b0393909316845291905290205460ff1690565b6000546001600160a01b031633146112385760405162461bcd60e51b815260040161080d906125c5565b610671816115e1565b60006008600083600481111561125957611259612593565b600481111561126a5761126a612593565b8152602001908152602001600020549050919050565b61067181611ba3565b60008181526002602052604081206107c590611c20565b600082815260016020819052604090912001546112bd81336118ef565b6108478383611975565b6000546001600160a01b031633146112f15760405162461bcd60e51b815260040161080d906125c5565b61067181611832565b6000546001600160a01b031633146113245760405162461bcd60e51b815260040161080d906125c5565b6001600160a01b0381166113895760405162461bcd60e51b815260206004820152602660248201527f4f776e61626c653a206e6577206f776e657220697320746865207a65726f206160448201526564647265737360d01b606482015260840161080d565b61067181611ac5565b6000546001600160a01b031633146113bc5760405162461bcd60e51b815260040161080d906125c5565b600080836001600160a01b03168360405160006040518083038185875af1925050503d806000811461140a576040519150601f19603f3d011682016040523d82523d6000602084013e61140f565b606091505b5091509150816114615760405162461bcd60e51b815260206004820181905260248201527f54726561737572793a204661696c656420746f20776974686472617720424e42604482015260640161080d565b604080516001600160a01b0386168152602081018590527f884edad9ce6fa2440d8a54cc123490eb96d2768479d49ff9c7366125a9424364910160405180910390a150505050565b6114b382826111e3565b6107d55760008281526001602081815260408084206001600160a01b0386168086529252808420805460ff19169093179092559051339285917f2f8788117e7eff1d82e926ec794901d17c78024a50270940304540a733656f0d9190a45050565b60006111dc836001600160a01b038416611c2a565b60006001600160e01b03198216635a05180f60e01b14806107c557506107c582611c79565b611566600080516020612754833981519152336111e3565b6115825760405162461bcd60e51b815260040161080d90612297565b600380546001600160a01b0319166001600160a01b0383811691821790925560408051928516835260208301919091527ff6515f2a6d531f16723c1e578303b7d74152bf8c0fa3bee828700a3d4706da8d910160405180910390a15050565b600480546001600160a01b0319166001600160a01b03831690811782556040805163d539139360e01b81529051919263d5391393928282019260209290829003018186803b15801561163257600080fd5b505afa158015611646573d6000803e3d6000fd5b505050506040513d601f19601f8201168201806040525081019061166a91906122f4565b6007556004546040516001600160a01b0390911681527f7869e3c19f5ec29481a8433791a06441db7b22cd85336da47df97fd7b686ba2a906020015b60405180910390a150565b600680546001600160a01b0319166001600160a01b0383169081179091556040805163091a7f8b60e41b815290516391a7f8b091600480820192600092909190829003018186803b15801561170557600080fd5b505afa158015611719573d6000803e3d6000fd5b505050506040513d6000823e601f3d908101601f1916820160405261174191908101906125fa565b805161175591600a91602090910190611fe3565b50600660009054906101000a90046001600160a01b03166001600160a01b03166319cd4c3d6040518163ffffffff1660e01b815260040160006040518083038186803b1580156117a457600080fd5b505afa1580156117b8573d6000803e3d6000fd5b505050506040513d6000823e601f3d908101601f191682016040526117e091908101906125fa565b80516117f491600b91602090910190611fe3565b506006546040516001600160a01b0390911681527f8eabd18158736228e0bcd01444e967ae9262cdb0e8a88fb154542a13f701bf7b906020016116a6565b600580546001600160a01b0319166001600160a01b0383169081179091556040519081527f6a18b90af8b2ae0add67d0ae89a6972d279fd5888cd58c820f581fa70f2d54bd906020016116a6565b611898600080516020612754833981519152336111e3565b6118b45760405162461bcd60e51b815260040161080d90612297565b600380546001600160a01b03191690556040517f9a9a74cf290a994f69a718e8557deb1dd65135268f40e660cecddf675f5dd51490600090a1565b6118f982826111e3565b6107d557611911816001600160a01b03166014611cae565b61191c836020611cae565b60405160200161192d929190612637565b60408051601f198184030181529082905262461bcd60e51b825261080d9160040161219f565b61195d82826114a9565b60008281526002602052604090206108479082611514565b61197f8282611e4a565b60008281526002602052604090206108479082611eb1565b6119af600080516020612754833981519152336111e3565b6119cb5760405162461bcd60e51b815260040161080d90612297565b600380546001600160a01b0319166001600160a01b0383161790556119fe60008051602061275483398151915282610958565b611a16600080516020612754833981519152336112a0565b6040516001600160a01b03821681527f8eb47098f9568be754f51d21a870c8091ee0242cf97418db00927326d0e6ffcf906020016116a6565b611a67600080516020612754833981519152336111e3565b611a835760405162461bcd60e51b815260040161080d90612297565b611a8c816112fa565b6040516001600160a01b03821681527ff2addf7f813887cf0fdd82b58fcc379ab2301e95c90b41a8cf2e5401914689c9906020016116a6565b600080546001600160a01b038381166001600160a01b0319831681178455604051919092169283917f8be0079c531659141344cd1fd0a4f28419497f9722a3daafe3b4186f6b6457e09190a35050565b611b2d600080516020612754833981519152336111e3565b611b495760405162461bcd60e51b815260040161080d90612297565b600380546001600160a01b0319166001600160a01b0383169081179091556040519081527f89c66952b48f3e96bf1d8ba1b63189520fd988a6979b8b740bd5c5d8dc53e205906020016116a6565b60006111dc8383611ec6565b611bbb600080516020612754833981519152336111e3565b611bd75760405162461bcd60e51b815260040161080d90612297565b600380546001600160a01b03191690556040516001600160a01b03821681527f85a56ff958486f55dd742819603a46ba6233d3b24e6715f9cd5fd2ef6425d680906020016116a6565b60006107c5825490565b6000818152600183016020526040812054611c71575081546001818101845560008481526020808220909301849055845484825282860190935260409020919091556107c5565b5060006107c5565b60006001600160e01b03198216637965db0b60e01b14806107c557506301ffc9a760e01b6001600160e01b03198316146107c5565b60606000611cbd8360026126c2565b611cc89060026126e1565b67ffffffffffffffff811115611ce057611ce061241d565b6040519080825280601f01601f191660200182016040528015611d0a576020820181803683370190505b509050600360fc1b81600081518110611d2557611d256126f9565b60200101906001600160f81b031916908160001a905350600f60fb1b81600181518110611d5457611d546126f9565b60200101906001600160f81b031916908160001a9053506000611d788460026126c2565b611d839060016126e1565b90505b6001811115611dfb576f181899199a1a9b1b9c1cb0b131b232b360811b85600f1660108110611db757611db76126f9565b1a60f81b828281518110611dcd57611dcd6126f9565b60200101906001600160f81b031916908160001a90535060049490941c93611df48161270f565b9050611d86565b5083156111dc5760405162461bcd60e51b815260206004820181905260248201527f537472696e67733a20686578206c656e67746820696e73756666696369656e74604482015260640161080d565b611e5482826111e3565b156107d55760008281526001602090815260408083206001600160a01b0385168085529252808320805460ff1916905551339285917ff6391f5c32d9c69d2a47ea670b442974b53935d1edc7fd64eb21e047a839171b9190a45050565b60006111dc836001600160a01b038416611ef0565b6000826000018281548110611edd57611edd6126f9565b9060005260206000200154905092915050565b60008181526001830160205260408120548015611fd9576000611f14600183612726565b8554909150600090611f2890600190612726565b9050818114611f8d576000866000018281548110611f4857611f486126f9565b9060005260206000200154905080876000018481548110611f6b57611f6b6126f9565b6000918252602080832090910192909255918252600188019052604090208390555b8554869080611f9e57611f9e61273d565b6001900381819060005260206000200160009055905585600101600086815260200190815260200160002060009055600193505050506107c5565b60009150506107c5565b828054611fef9061232a565b90600052602060002090601f0160209004810192826120115760008555612057565b82601f1061202a57805160ff1916838001178555612057565b82800160010185558215612057579182015b8281111561205757825182559160200191906001019061203c565b50612063929150612067565b5090565b5b808211156120635760008155600101612068565b80356005811061208b57600080fd5b919050565b6000602082840312156120a257600080fd5b6111dc8261207c565b6000602082840312156120bd57600080fd5b81356001600160e01b0319811681146111dc57600080fd5b6001600160a01b038116811461067157600080fd5b600080604083850312156120fd57600080fd5b8235612108816120d5565b91506020830135612118816120d5565b809150509250929050565b801515811461067157600080fd5b60008060006060848603121561214657600080fd5b833592506020840135612158816120d5565b9150604084013561216881612123565b809150509250925092565b60005b8381101561218e578181015183820152602001612176565b8381111561103d5750506000910152565b60208152600082518060208401526121be816040850160208701612173565b601f01601f19169190910160400192915050565b6000602082840312156121e457600080fd5b5035919050565b600080604083850312156121fe57600080fd5b823591506020830135612118816120d5565b60006020828403121561222257600080fd5b81356111dc816120d5565b6000806040838503121561224057600080fd5b6122498361207c565b946020939093013593505050565b6000806040838503121561226a57600080fd5b50508035926020909101359150565b6000806040838503121561228c57600080fd5b8235612249816120d5565b6020808252603b908201527f43726f7373436f6e74726163744d616e4c697374656e65723a2074686520636160408201527f6c6c6572206d7573742068617665204d414e414745525f524f4c450000000000606082015260800190565b60006020828403121561230657600080fd5b5051919050565b60006020828403121561231f57600080fd5b81516111dc816120d5565b600181811c9082168061233e57607f821691505b6020821081141561235f57634e487b7160e01b600052602260045260246000fd5b50919050565b838152600060208481840152606060408401526000845481600182811c91508083168061239357607f831692505b8583108114156123b157634e487b7160e01b85526022600452602485fd5b60608801839052608088018180156123d057600181146123e15761240c565b60ff1986168252878201965061240c565b60008b81526020902060005b86811015612406578154848201529085019089016123ed565b83019750505b50949b9a5050505050505050505050565b634e487b7160e01b600052604160045260246000fd5b60405160a0810167ffffffffffffffff811182821017156124565761245661241d565b60405290565b600082601f83011261246d57600080fd5b815167ffffffffffffffff808211156124885761248861241d565b604051601f8301601f19908116603f011681019082821181831017156124b0576124b061241d565b816040528381528660208588010111156124c957600080fd5b6124da846020830160208901612173565b9695505050505050565b6000602082840312156124f657600080fd5b815167ffffffffffffffff8082111561250e57600080fd5b9083019060a0828603121561252257600080fd5b61252a612433565b82516004811061253957600080fd5b81526020838101519082015260408301518281111561255757600080fd5b6125638782860161245c565b604083015250606083015160608201526080830151925061258383612123565b6080810192909252509392505050565b634e487b7160e01b600052602160045260246000fd5b600082516125bb818460208701612173565b9190910192915050565b6020808252818101527f4f776e61626c653a2063616c6c6572206973206e6f7420746865206f776e6572604082015260600190565b60006020828403121561260c57600080fd5b815167ffffffffffffffff81111561262357600080fd5b61262f8482850161245c565b949350505050565b7f416363657373436f6e74726f6c3a206163636f756e742000000000000000000081526000835161266f816017850160208801612173565b7001034b99036b4b9b9b4b733903937b6329607d1b60179184019182015283516126a0816028840160208801612173565b01602801949350505050565b634e487b7160e01b600052601160045260246000fd5b60008160001904831182151516156126dc576126dc6126ac565b500290565b600082198211156126f4576126f46126ac565b500190565b634e487b7160e01b600052603260045260246000fd5b60008161271e5761271e6126ac565b506000190190565b600082821015612738576127386126ac565b500390565b634e487b7160e01b600052603160045260246000fdfe241ecf16d79d0f8dbfb92cbc07fe17840425976cf0667f022fe9877caa831b08a2646970667358221220a2c117f2b537ea90009848348960d625d186f6e448c8b3e707024711cdacafe064736f6c63430008090033",
  "immutableReferences": {},
  "source": "// SPDX-License-Identifier: MIT\npragma solidity ^0.8;\n\nimport \"@openzeppelin/contracts/access/Ownable.sol\";\nimport \"./FireZardNFT.sol\";\nimport \"./StatsView.sol\";\nimport \"./DragonStats.sol\";\nimport \"./CrossContractManListener.sol\";\nimport {Util} from \"./Util.sol\";\n\ncontract Treasury is CrossContractManListener {\n    string  public constant contract_name = 'Treasury';\n    bytes32 public constant contract_id = keccak256(abi.encodePacked(contract_name));\n\n    address public\tnft;\n    address public\tviewer;\n    address public\tstats;\n\n    bytes32 public MINTER_ROLE;\n\n    mapping(Util.CardRarity => uint256)\tpublic\treward_table;\n\n    mapping(uint256 => bool)\t\tpublic\tclaims;\n\n    string rarity_str;\n    string rarity_override_str;\n\n    modifier onlyMinter() {\n\trequire(hasRole(MINTER_ROLE, _msgSender()), \"Treasury: must have minter role to claim rewards\");\n\t_;\n    }\n\n/*    constructor(address _nft, address _viewer, address _stats) {\n\tnft = _nft;\n\tviewer = _viewer;\n\tstats = _stats;\n\trarity_str  = DragonStats(stats).RARITY_STR();\n\trarity_override_str  = DragonStats(stats).RARITY_OVERRIDE_STR();\n\tMINTER_ROLE = FireZardNFT(nft).MINTER_ROLE();\n\n\tsuper._setupRole(DEFAULT_ADMIN_ROLE,msg.sender);\n    }*/\n\n    function getName() pure external returns(string memory) {\n\treturn contract_name;\n    }\n\n    function getId() pure external returns(bytes32) {\n\treturn contract_id;\n    }\n\n    function onListenAdded(bytes32 hname, address contractInstance, bool isNew) external onlyManager {\n\tif(hname == Util.NFT_CONTRACT_ID){\n\t    _linkNFT(contractInstance);\n\t    return;\n\t}\n\tif(hname == DragonStats(contractInstance).contract_id()){\n\t    _linkStatsLib(contractInstance);\n\t    return;\n\t}\n\tif(hname == StatsView(contractInstance).contract_id()){\n\t    _linkViewer(contractInstance);\n\t    return;\n\t}\n    }\n\n    function onListenRemoved(bytes32 hname) external {}\n\n    /**\n     * @notice Sets link to ERC1155 NFT smart contract\n    **/\n    function _linkNFT(address _nft) internal {\n        nft = _nft;\n\tMINTER_ROLE = FireZardNFT(nft).MINTER_ROLE();\n        emit NFTLink(nft);\n    }\n\n    /**\n     * @notice Sets link to Tag Storage smart contract\n    **/\n    function _linkViewer(address _viewer) internal {\n        viewer = _viewer;\n        emit ViewLink(viewer);\n    }\n\n    /**\n     * @notice Sets link to the Stats deriving library\n    **/\n    function _linkStatsLib(address _stats) internal {\n        stats = _stats;\n\trarity_str  = DragonStats(stats).RARITY_STR();\n\trarity_override_str  = DragonStats(stats).RARITY_OVERRIDE_STR();\n        emit StatsLibLink(stats);\n    }\n\n    /**\n     * @notice Sets link to ERC1155 NFT smart contract\n    **/\n    function linkNFT(address _nft) public virtual onlyOwner {\n        _linkNFT(_nft);\n    }\n\n    /**\n     * @notice Sets link to Tag Storage smart contract\n    **/\n    function linkViewer(address _viewer) public virtual onlyOwner {\n\t_linkViewer(_viewer);\n    }\n\n    /**\n     * @notice Sets link to the Stats deriving library\n    **/\n    function linkStatsLib(address _stats) public virtual onlyOwner {\n\t_linkStatsLib(_stats);\n    }\n\n    // Deposit funds\n    fallback() external payable {\n\temit Deposit(msg.sender, msg.value);\n    }\n\n    function withdraw(address recipient, uint256 amount) external onlyOwner {\n\t(bool _res, bytes memory _data) = recipient.call{value: amount}(\"\");\n\trequire(_res, \"Treasury: Failed to withdraw BNB\");\n\temit Withdraw(recipient, amount);\n    }\n\n    function claim(uint256 token_id) external {\n\trequire(FireZardNFT(nft).totalSupply(token_id) == 1, \"Treasury: The token must be present in single quantity\");\n\n\taddress to = FireZardNFT(nft).ownerOf(token_id);\n\tif(to != _msgSender())\n\t    if(!hasRole(MINTER_ROLE, _msgSender()))\n\t\trevert(\"Treasury: The reward must be claimed to the token owner\");\n\n\trequire(FireZardNFT(nft).typeOf(token_id) == Util.DRAGON_CARD_TYPE_CODE, \"Treasury: The token must be of Dragon Card NFT type\");\n\trequire(!claims[token_id], \"Treasury: The card's reward has been already claimed\");\n\n\tclaims[token_id] = true;\n\tUtil.CardRarity card_rarity;\n\tif(StatsView(viewer).getStat(Util.DRAGON_CARD_TYPE_CODE, token_id, rarity_override_str).bool_val)\n\t    card_rarity = Util.CardRarity.Uncommon;\n\telse\n\t    card_rarity = Util.CardRarity(StatsView(viewer).getStat(Util.DRAGON_CARD_TYPE_CODE, token_id, rarity_str).int_val);\n\tuint256 reward_value = reward_table[card_rarity];\n\tif(reward_value>0){\n\t    (bool _res, bytes memory _data) = to.call{value: reward_value}(\"\");\n\t    require(_res, \"Treasury: Failed to claim BNB\");\n\t    emit Claimed(to, token_id, reward_value);\n\t}\n    }\n\n    function setReward(Util.CardRarity _rarity, uint256 _reward) external onlyOwner {\n\treward_table[_rarity] = _reward;\n    }\n\n    function getRewardValue(Util.CardRarity _rarity) external view returns (uint256) {\n\treturn reward_table[_rarity];\n    }\n\n    event NFTLink(address contract_addr);\n    event ViewLink(address contract_addr);\n    event StatsLibLink(address contract_addr);\n    event Deposit(address sender, uint256 amount);\n    event Withdraw(address sender, uint256 amount);\n    event Claimed(address sender, uint256 token_id, uint256 value);\n}\n",
  "sourcePath": "/home/vrogojin/Projects/FireZard/nft/contracts/Treasury.sol",
  "compiler": {
    "name": "solc",
    "version": "0.8.9+commit.e5eed63a.Emscripten.clang"
  },
  "schemaVersion": "3.4.3",
  "updatedAt": "2022-02-07T18:32:07.993Z",
  "devdoc": {
    "kind": "dev",
    "methods": {
      "getRoleAdmin(bytes32)": {
        "details": "Returns the admin role that controls `role`. See {grantRole} and {revokeRole}. To change a role's admin, use {_setRoleAdmin}."
      },
      "getRoleMember(bytes32,uint256)": {
        "details": "Returns one of the accounts that have `role`. `index` must be a value between 0 and {getRoleMemberCount}, non-inclusive. Role bearers are not sorted in any particular way, and their ordering may change at any point. WARNING: When using {getRoleMember} and {getRoleMemberCount}, make sure you perform all queries on the same block. See the following https://forum.openzeppelin.com/t/iterating-over-elements-on-enumerableset-in-openzeppelin-contracts/2296[forum post] for more information."
      },
      "getRoleMemberCount(bytes32)": {
        "details": "Returns the number of accounts that have `role`. Can be used together with {getRoleMember} to enumerate all bearers of a role."
      },
      "grantRole(bytes32,address)": {
        "details": "Grants `role` to `account`. If `account` had not been already granted `role`, emits a {RoleGranted} event. Requirements: - the caller must have ``role``'s admin role."
      },
      "hasRole(bytes32,address)": {
        "details": "Returns `true` if `account` has been granted `role`."
      },
      "owner()": {
        "details": "Returns the address of the current owner."
      },
      "renounceOwnership()": {
        "details": "Leaves the contract without owner. It will not be possible to call `onlyOwner` functions anymore. Can only be called by the current owner. NOTE: Renouncing ownership will leave the contract without an owner, thereby removing any functionality that is only available to the owner."
      },
      "renounceRole(bytes32,address)": {
        "details": "Revokes `role` from the calling account. Roles are often managed via {grantRole} and {revokeRole}: this function's purpose is to provide a mechanism for accounts to lose their privileges if they are compromised (such as when a trusted device is misplaced). If the calling account had been revoked `role`, emits a {RoleRevoked} event. Requirements: - the caller must be `account`."
      },
      "revokeRole(bytes32,address)": {
        "details": "Revokes `role` from `account`. If `account` had been granted `role`, emits a {RoleRevoked} event. Requirements: - the caller must have ``role``'s admin role."
      },
      "supportsInterface(bytes4)": {
        "details": "See {IERC165-supportsInterface}."
      },
      "transferOwnership(address)": {
        "details": "Transfers ownership of the contract to a new account (`newOwner`). Can only be called by the current owner."
      }
    },
    "version": 1
  },
  "userdoc": {
    "kind": "user",
    "methods": {
      "linkNFT(address)": {
        "notice": "Sets link to ERC1155 NFT smart contract*"
      },
      "linkStatsLib(address)": {
        "notice": "Sets link to the Stats deriving library*"
      },
      "linkViewer(address)": {
        "notice": "Sets link to Tag Storage smart contract*"
      }
    },
    "version": 1
  }
}