{
  "contractName": "Util",
  "abi": [
    {
      "inputs": [],
      "name": "DRAGON_CARD_TYPE_CODE",
      "outputs": [
        {
          "internalType": "bytes32",
          "name": "",
          "type": "bytes32"
        }
      ],
      "stateMutability": "view",
      "type": "function"
    },
    {
      "inputs": [],
      "name": "MAX_UINT",
      "outputs": [
        {
          "internalType": "uint256",
          "name": "",
          "type": "uint256"
        }
      ],
      "stateMutability": "view",
      "type": "function"
    },
    {
      "inputs": [
        {
          "internalType": "uint256",
          "name": "nft_id",
          "type": "uint256"
        },
        {
          "internalType": "string",
          "name": "name",
          "type": "string"
        }
      ],
      "name": "getTagKey",
      "outputs": [
        {
          "internalType": "bytes32",
          "name": "",
          "type": "bytes32"
        }
      ],
      "stateMutability": "pure",
      "type": "function"
    },
    {
      "inputs": [
        {
          "internalType": "uint256",
          "name": "rvalue",
          "type": "uint256"
        },
        {
          "internalType": "uint256[]",
          "name": "distribution",
          "type": "uint256[]"
        },
        {
          "internalType": "uint256",
          "name": "size",
          "type": "uint256"
        }
      ],
      "name": "getRandomItem",
      "outputs": [
        {
          "internalType": "uint256",
          "name": "",
          "type": "uint256"
        }
      ],
      "stateMutability": "pure",
      "type": "function"
    },
    {
      "inputs": [
        {
          "internalType": "bytes32",
          "name": "entropy",
          "type": "bytes32"
        }
      ],
      "name": "deriveCommitment",
      "outputs": [
        {
          "internalType": "bytes32",
          "name": "",
          "type": "bytes32"
        }
      ],
      "stateMutability": "pure",
      "type": "function"
    }
  ],
  "bytecode": "0x61040561003a600b82828239805160001a60731461002d57634e487b7160e01b600052600060045260246000fd5b30600052607381538281f3fe73000000000000000000000000000000000000000030146080604052600436106100615760003560e01c80630e44f1a01461006657806361cc28d41461008b57806375233c27146100b2578063dfbd4a05146100c5578063e5b5019a146100d8575b600080fd5b6100796100743660046101e4565b6100e0565b60405190815260200160405180910390f35b6100797f37a3c4a2a635dedf6a4912ec5757511a1f2fa87cb349543d4751fc18c65e427381565b6100796100c03660046101fd565b610112565b6100796100d3366004610282565b61019e565b6100796101d4565b6000816040516020016100f591815260200190565b604051602081830303815290604052805190602001209050919050565b600080826101236001600019610314565b61012d919061032b565b90506000805b8581101561018f5786868281811061014d5761014d61034d565b905060200201358361015f9190610363565b6101699083610382565b91508188101561017d579250610196915050565b806101878161039a565b915050610133565b5084925050505b949350505050565b60008383836040516020016101b5939291906103b5565b6040516020818303038152906040528051906020012090509392505050565b6101e16001600019610314565b81565b6000602082840312156101f657600080fd5b5035919050565b6000806000806060858703121561021357600080fd5b84359350602085013567ffffffffffffffff8082111561023257600080fd5b818701915087601f83011261024657600080fd5b81358181111561025557600080fd5b8860208260051b850101111561026a57600080fd5b95986020929092019750949560400135945092505050565b60008060006040848603121561029757600080fd5b83359250602084013567ffffffffffffffff808211156102b657600080fd5b818601915086601f8301126102ca57600080fd5b8135818111156102d957600080fd5b8760208285010111156102eb57600080fd5b6020830194508093505050509250925092565b634e487b7160e01b600052601160045260246000fd5b600082821015610326576103266102fe565b500390565b60008261034857634e487b7160e01b600052601260045260246000fd5b500490565b634e487b7160e01b600052603260045260246000fd5b600081600019048311821515161561037d5761037d6102fe565b500290565b60008219821115610395576103956102fe565b500190565b60006000198214156103ae576103ae6102fe565b5060010190565b83815281836020830137600091016020019081529291505056fea2646970667358221220fa651923a8afc0457a9ae7900dee2e940429c1f0d32fec059e386aad81679cd864736f6c634300080a0033",
  "immutableReferences": {},
  "source": "/**\n * FireZard utilities lib\n */\n\npragma solidity ^0.8.0;\n\n//import \"./TagStorage.sol\";\n\nlibrary Util {\n    uint256 public constant MAX_UINT = (~uint256(0)-1);\n//    bytes32 public constant DRAGON_CARD_TYPE_CODE = abi.encodePacked(keccak256('DRAGON_CARD'));\n    bytes32 public constant DRAGON_CARD_TYPE_CODE = keccak256('DRAGON_CARD');\n\n    enum CardRarity{ Common, Uncommon, Rare, Super_Rare, Ultra_Rare }\n    enum CardType{ Fire, Ice, Grass, Electric, Water }\n    enum StatType{ Integer, String, ByteArray, Boolean }\n\n    struct Stat{\n\tstring name;\n\tStatType statType;\n\tbool is_mutable;\n    }\n\n    function getTagKey(uint256 nft_id, string calldata name) public pure returns(bytes32) {\n\treturn keccak256(abi.encodePacked(nft_id, name));\n    }\n\n    function getRandomItem(uint256 rvalue, uint256[] calldata distribution, uint256 size) public pure returns(uint256) {\n\tuint256 ratio = MAX_UINT/size;\n\tuint256 svalue = 0;\n\tfor(uint256 i=0;i<distribution.length;i++){\n\t    svalue+=ratio*distribution[i];\n\t    if(rvalue < svalue)\n\t\treturn i;\n\t}\n\treturn distribution.length;\n    }\n\n      function deriveCommitment(bytes32 entropy) public pure returns (bytes32){\n        return keccak256(abi.encodePacked(entropy));\n    }\n\n}\n",
  "sourcePath": "/home/vrogojin/Projects/firezard_nft/contracts/Util.sol",
  "compiler": {
    "name": "solc",
    "version": "0.8.10+commit.fc410830.Emscripten.clang"
  },
  "schemaVersion": "3.4.3",
  "updatedAt": "2021-12-05T14:08:39.989Z",
  "devdoc": {
    "kind": "dev",
    "methods": {},
    "version": 1
  },
  "userdoc": {
    "kind": "user",
    "methods": {},
    "version": 1
  }
}