{
  "contractName": "Util",
  "abi": [
    {
      "inputs": [],
      "name": "DRAGON_CARD_TYPE_CODE",
      "outputs": [
        {
          "internalType": "bytes32",
          "name": "",
          "type": "bytes32"
        }
      ],
      "stateMutability": "view",
      "type": "function",
      "constant": true
    },
    {
      "inputs": [],
      "name": "DRAGON_CARD_VIEW_CONTRACT_ID",
      "outputs": [
        {
          "internalType": "bytes32",
          "name": "",
          "type": "bytes32"
        }
      ],
      "stateMutability": "view",
      "type": "function",
      "constant": true
    },
    {
      "inputs": [],
      "name": "DRAGON_CARD_VIEW_CONTRACT_NAME",
      "outputs": [
        {
          "internalType": "string",
          "name": "",
          "type": "string"
        }
      ],
      "stateMutability": "view",
      "type": "function",
      "constant": true
    },
    {
      "inputs": [],
      "name": "DRAGON_MINTER_CONTRACT_ID",
      "outputs": [
        {
          "internalType": "bytes32",
          "name": "",
          "type": "bytes32"
        }
      ],
      "stateMutability": "view",
      "type": "function",
      "constant": true
    },
    {
      "inputs": [],
      "name": "DRAGON_MINTER_CONTRACT_NAME",
      "outputs": [
        {
          "internalType": "string",
          "name": "",
          "type": "string"
        }
      ],
      "stateMutability": "view",
      "type": "function",
      "constant": true
    },
    {
      "inputs": [],
      "name": "DRAGON_STATS_CONTRACT_ID",
      "outputs": [
        {
          "internalType": "bytes32",
          "name": "",
          "type": "bytes32"
        }
      ],
      "stateMutability": "view",
      "type": "function",
      "constant": true
    },
    {
      "inputs": [],
      "name": "DRAGON_STATS_CONTRACT_NAME",
      "outputs": [
        {
          "internalType": "string",
          "name": "",
          "type": "string"
        }
      ],
      "stateMutability": "view",
      "type": "function",
      "constant": true
    },
    {
      "inputs": [],
      "name": "FLAME_CONTRACT_ID",
      "outputs": [
        {
          "internalType": "bytes32",
          "name": "",
          "type": "bytes32"
        }
      ],
      "stateMutability": "view",
      "type": "function",
      "constant": true
    },
    {
      "inputs": [],
      "name": "MAX_UINT",
      "outputs": [
        {
          "internalType": "uint256",
          "name": "",
          "type": "uint256"
        }
      ],
      "stateMutability": "view",
      "type": "function",
      "constant": true
    },
    {
      "inputs": [],
      "name": "NFT_CONTRACT_ID",
      "outputs": [
        {
          "internalType": "bytes32",
          "name": "",
          "type": "bytes32"
        }
      ],
      "stateMutability": "view",
      "type": "function",
      "constant": true
    },
    {
      "inputs": [],
      "name": "RNG_CONTRACT_ID",
      "outputs": [
        {
          "internalType": "bytes32",
          "name": "",
          "type": "bytes32"
        }
      ],
      "stateMutability": "view",
      "type": "function",
      "constant": true
    },
    {
      "inputs": [],
      "name": "RNG_CONTRACT_NAME",
      "outputs": [
        {
          "internalType": "string",
          "name": "",
          "type": "string"
        }
      ],
      "stateMutability": "view",
      "type": "function",
      "constant": true
    },
    {
      "inputs": [],
      "name": "STATS_DISTRIB_CONTRACT_ID",
      "outputs": [
        {
          "internalType": "bytes32",
          "name": "",
          "type": "bytes32"
        }
      ],
      "stateMutability": "view",
      "type": "function",
      "constant": true
    },
    {
      "inputs": [],
      "name": "STATS_DISTRIB_CONTRACT_NAME",
      "outputs": [
        {
          "internalType": "string",
          "name": "",
          "type": "string"
        }
      ],
      "stateMutability": "view",
      "type": "function",
      "constant": true
    },
    {
      "inputs": [],
      "name": "STATS_VIEW_CONTRACT_ID",
      "outputs": [
        {
          "internalType": "bytes32",
          "name": "",
          "type": "bytes32"
        }
      ],
      "stateMutability": "view",
      "type": "function",
      "constant": true
    },
    {
      "inputs": [],
      "name": "STATS_VIEW_CONTRACT_NAME",
      "outputs": [
        {
          "internalType": "string",
          "name": "",
          "type": "string"
        }
      ],
      "stateMutability": "view",
      "type": "function",
      "constant": true
    },
    {
      "inputs": [],
      "name": "TAG_STORAGE_CONTRACT_ID",
      "outputs": [
        {
          "internalType": "bytes32",
          "name": "",
          "type": "bytes32"
        }
      ],
      "stateMutability": "view",
      "type": "function",
      "constant": true
    },
    {
      "inputs": [],
      "name": "TREASURY_CONTRACT_ID",
      "outputs": [
        {
          "internalType": "bytes32",
          "name": "",
          "type": "bytes32"
        }
      ],
      "stateMutability": "view",
      "type": "function",
      "constant": true
    },
    {
      "inputs": [],
      "name": "TREASURY_CONTRACT_NAME",
      "outputs": [
        {
          "internalType": "string",
          "name": "",
          "type": "string"
        }
      ],
      "stateMutability": "view",
      "type": "function",
      "constant": true
    },
    {
      "inputs": [
        {
          "internalType": "uint256",
          "name": "nft_id",
          "type": "uint256"
        },
        {
          "internalType": "string",
          "name": "name",
          "type": "string"
        }
      ],
      "name": "getTagKey",
      "outputs": [
        {
          "internalType": "bytes32",
          "name": "",
          "type": "bytes32"
        }
      ],
      "stateMutability": "pure",
      "type": "function",
      "constant": true
    },
    {
      "inputs": [
        {
          "internalType": "uint256",
          "name": "rvalue",
          "type": "uint256"
        },
        {
          "internalType": "uint256[]",
          "name": "distribution",
          "type": "uint256[]"
        },
        {
          "internalType": "uint256",
          "name": "size",
          "type": "uint256"
        }
      ],
      "name": "getRandomItem",
      "outputs": [
        {
          "internalType": "uint256",
          "name": "",
          "type": "uint256"
        }
      ],
      "stateMutability": "pure",
      "type": "function",
      "constant": true
    },
    {
      "inputs": [
        {
          "internalType": "bytes32",
          "name": "entropy",
          "type": "bytes32"
        }
      ],
      "name": "deriveCommitment",
      "outputs": [
        {
          "internalType": "bytes32",
          "name": "",
          "type": "bytes32"
        }
      ],
      "stateMutability": "pure",
      "type": "function",
      "constant": true
    }
  ],
  "bytecode": "0x6108c861003a600b82828239805160001a60731461002d57634e487b7160e01b600052600060045260246000fd5b30600052607381538281f3fe730000000000000000000000000000000000000000301460806040526004361061014b5760003560e01c80636e090c8a116100c2578063b83cc61d11610086578063b83cc61d1461032e578063b84c68df14610355578063d0dfc1841461037c578063dfbd4a0514610384578063e5b5019a14610397578063ffa46b181461039f57600080fd5b80636e090c8a1461027d57806375233c271461029f5780637559ace6146102b257806383de2cee146102da57806397bd29ec1461030157600080fd5b80634306385a116101145780634306385a146101ec57806346f776a31461021757806349cf0f991461021f5780635046a6c91461024657806361cc28d41461024e5780636586788e1461027557600080fd5b8062f7af28146101505780630e44f1a014610191578063219ef0af146101b25780632b391286146101ba57806342a25bf7146101e4575b600080fd5b61017b6040518060400160405280600c81526020016b29ba30ba39a234b9ba3934b160a11b81525081565b6040516101889190610658565b60405180910390f35b6101a461019f36600461068b565b6103a7565b604051908152602001610188565b6101a46103d9565b61017b6040518060400160405280600b81526020016a447261676f6e537461747360a81b81525081565b6101a4610423565b61017b6040518060400160405280600c81526020016b223930b3b7b726b4b73a32b960a11b81525081565b6101a4610457565b6101a47fdfa926e49ecb76ef0407533073c674d3e6a6fb4a00d7941099f34757f314c42e81565b6101a4610489565b6101a47f37a3c4a2a635dedf6a4912ec5757511a1f2fa87cb349543d4751fc18c65e427381565b6101a46104c0565b61017b60405180604001604052806003815260200162524e4760e81b81525081565b6101a46102ad3660046106a4565b6104ec565b61017b6040518060400160405280600981526020016853746174735669657760b81b81525081565b6101a47feb9cbd77d805ba9b0c4bf1b12c07e59c028821bd6b4866e90c098f77c69821e581565b61017b6040518060400160405280600e81526020016d447261676f6e436172645669657760901b81525081565b61017b60405180604001604052806008815260200167547265617375727960c01b81525081565b6101a47fc227f98e618597415dca1f5035d597d1e75936952bfd5d741271dd85ba110d9081565b6101a4610578565b6101a4610392366004610729565b6105ad565b6101a46105e3565b6101a46105f3565b6000816040516020016103bc91815260200190565b604051602081830303815290604052805190602001209050919050565b60405180604001604052806008815260200167547265617375727960c01b81525060405160200161040a91906107a5565b6040516020818303038152906040528051906020012081565b6040518060400160405280600b81526020016a447261676f6e537461747360a81b81525060405160200161040a91906107a5565b6040518060400160405280600981526020016853746174735669657760b81b81525060405160200161040a91906107a5565b6040518060400160405280600e81526020016d447261676f6e436172645669657760901b81525060405160200161040a91906107a5565b60405180604001604052806003815260200162524e4760e81b81525060405160200161040a91906107a5565b600080826104fd60016000196107d7565b61050791906107ee565b90506000805b858110156105695786868281811061052757610527610810565b90506020020135836105399190610826565b6105439083610845565b915081881015610557579250610570915050565b806105618161085d565b91505061050d565b5084925050505b949350505050565b6040518060400160405280600c81526020016b223930b3b7b726b4b73a32b960a11b81525060405160200161040a91906107a5565b60008383836040516020016105c493929190610878565b6040516020818303038152906040528051906020012090509392505050565b6105f060016000196107d7565b81565b6040518060400160405280600c81526020016b29ba30ba39a234b9ba3934b160a11b81525060405160200161040a91906107a5565b60005b8381101561064357818101518382015260200161062b565b83811115610652576000848401525b50505050565b6020815260008251806020840152610677816040850160208701610628565b601f01601f19169190910160400192915050565b60006020828403121561069d57600080fd5b5035919050565b600080600080606085870312156106ba57600080fd5b84359350602085013567ffffffffffffffff808211156106d957600080fd5b818701915087601f8301126106ed57600080fd5b8135818111156106fc57600080fd5b8860208260051b850101111561071157600080fd5b95986020929092019750949560400135945092505050565b60008060006040848603121561073e57600080fd5b83359250602084013567ffffffffffffffff8082111561075d57600080fd5b818601915086601f83011261077157600080fd5b81358181111561078057600080fd5b87602082850101111561079257600080fd5b6020830194508093505050509250925092565b600082516107b7818460208701610628565b9190910192915050565b634e487b7160e01b600052601160045260246000fd5b6000828210156107e9576107e96107c1565b500390565b60008261080b57634e487b7160e01b600052601260045260246000fd5b500490565b634e487b7160e01b600052603260045260246000fd5b6000816000190483118215151615610840576108406107c1565b500290565b60008219821115610858576108586107c1565b500190565b6000600019821415610871576108716107c1565b5060010190565b83815281836020830137600091016020019081529291505056fea26469706673582212203a798a7b0e8fff09a09b49d5d0ac550356e7c5adad202278691b45845360f10164736f6c63430008090033",
  "immutableReferences": {},
  "source": "// SPDX-License-Identifier: MIT\n/**\n * FireZard utilities lib\n */\n\npragma solidity ^0.8.0;\n\n//import \"./TagStorage.sol\";\n\nlibrary Util {\n    uint256 public constant MAX_UINT = (~uint256(0)-1);\n\n    string public constant DRAGON_CARD_VIEW_CONTRACT_NAME = 'DragonCardView';\n    string public constant DRAGON_MINTER_CONTRACT_NAME    = 'DragonMinter';\n    string public constant DRAGON_STATS_CONTRACT_NAME     = 'DragonStats';\n    string public constant RNG_CONTRACT_NAME              = 'RNG';\n    string public constant STATS_DISTRIB_CONTRACT_NAME    = 'StatsDistrib';\n    string public constant STATS_VIEW_CONTRACT_NAME       = 'StatsView';\n    string public constant TREASURY_CONTRACT_NAME         = 'Treasury';\n\n    bytes32 public constant NFT_CONTRACT_ID = keccak256('FireZardNFT');\n    bytes32 public constant TAG_STORAGE_CONTRACT_ID = keccak256('TagStorage');\n    bytes32 public constant FLAME_CONTRACT_ID = keccak256('FLAME');\n    \n    bytes32 public constant DRAGON_CARD_VIEW_CONTRACT_ID = keccak256(abi.encodePacked(DRAGON_CARD_VIEW_CONTRACT_NAME));\n    bytes32 public constant DRAGON_MINTER_CONTRACT_ID    = keccak256(abi.encodePacked(DRAGON_MINTER_CONTRACT_NAME));\n    bytes32 public constant DRAGON_STATS_CONTRACT_ID     = keccak256(abi.encodePacked(DRAGON_STATS_CONTRACT_NAME));\n    bytes32 public constant RNG_CONTRACT_ID              = keccak256(abi.encodePacked(RNG_CONTRACT_NAME));\n    bytes32 public constant STATS_DISTRIB_CONTRACT_ID    = keccak256(abi.encodePacked(STATS_DISTRIB_CONTRACT_NAME));\n    bytes32 public constant STATS_VIEW_CONTRACT_ID       = keccak256(abi.encodePacked(STATS_VIEW_CONTRACT_NAME));\n    bytes32 public constant TREASURY_CONTRACT_ID         = keccak256(abi.encodePacked(TREASURY_CONTRACT_NAME));\n\n\n//    bytes32 public constant DRAGON_CARD_TYPE_CODE = abi.encodePacked(keccak256('DRAGON_CARD'));\n    bytes32 public constant DRAGON_CARD_TYPE_CODE = keccak256('DRAGON_CARD');\n\n    enum CardRarity{ Ultra_Rare, Super_Rare, Rare, Uncommon, Common }\n    enum CardType{ Fire, Ice, Plant, Electric, Water }\n    enum StatType{ Integer, String, ByteArray, Boolean }\n\n    struct Stat{\n\tstring name;\n\tStatType statType;\n\tbool is_mutable;\n    }\n\n    struct StatValue{\n\tStatType statType;\n\tuint256  int_val;\n\tstring   str_val;\n\tbytes32  bta_val;\n\tbool     bool_val;\n    }\n\n    function getTagKey(uint256 nft_id, string calldata name) public pure returns(bytes32) {\n\treturn keccak256(abi.encodePacked(nft_id, name));\n    }\n\n    function getRandomItem(uint256 rvalue, uint256[] calldata distribution, uint256 size) public pure returns(uint256) {\n\tuint256 ratio = MAX_UINT/size;\n\tuint256 svalue = 0;\n\tfor(uint256 i=0;i<distribution.length;i++){\n\t    svalue+=ratio*distribution[i];\n\t    if(rvalue < svalue)\n\t\treturn i;\n\t}\n\treturn distribution.length;\n    }\n\n      function deriveCommitment(bytes32 entropy) public pure returns (bytes32){\n        return keccak256(abi.encodePacked(entropy));\n    }\n\n}\n",
  "sourcePath": "/home/vrogojin/Projects/FireZard/nft/contracts/Util.sol",
  "compiler": {
    "name": "solc",
    "version": "0.8.9+commit.e5eed63a.Emscripten.clang"
  },
  "schemaVersion": "3.4.3",
  "updatedAt": "2022-02-10T10:24:15.119Z",
  "networkType": "ethereum",
  "devdoc": {
    "kind": "dev",
    "methods": {},
    "version": 1
  },
  "userdoc": {
    "kind": "user",
    "methods": {},
    "version": 1
  }
}