{
  "contractName": "Util",
  "abi": [
    {
      "inputs": [],
      "name": "DRAGON_CARD_TYPE_CODE",
      "outputs": [
        {
          "internalType": "bytes32",
          "name": "",
          "type": "bytes32"
        }
      ],
      "stateMutability": "view",
      "type": "function"
    },
    {
      "inputs": [],
      "name": "FLAME_CONTRACT_ID",
      "outputs": [
        {
          "internalType": "bytes32",
          "name": "",
          "type": "bytes32"
        }
      ],
      "stateMutability": "view",
      "type": "function"
    },
    {
      "inputs": [],
      "name": "MAX_UINT",
      "outputs": [
        {
          "internalType": "uint256",
          "name": "",
          "type": "uint256"
        }
      ],
      "stateMutability": "view",
      "type": "function"
    },
    {
      "inputs": [],
      "name": "NFT_CONTRACT_ID",
      "outputs": [
        {
          "internalType": "bytes32",
          "name": "",
          "type": "bytes32"
        }
      ],
      "stateMutability": "view",
      "type": "function"
    },
    {
      "inputs": [],
      "name": "TAG_STORAGE_CONTRACT_ID",
      "outputs": [
        {
          "internalType": "bytes32",
          "name": "",
          "type": "bytes32"
        }
      ],
      "stateMutability": "view",
      "type": "function"
    },
    {
      "inputs": [
        {
          "internalType": "uint256",
          "name": "nft_id",
          "type": "uint256"
        },
        {
          "internalType": "string",
          "name": "name",
          "type": "string"
        }
      ],
      "name": "getTagKey",
      "outputs": [
        {
          "internalType": "bytes32",
          "name": "",
          "type": "bytes32"
        }
      ],
      "stateMutability": "pure",
      "type": "function"
    },
    {
      "inputs": [
        {
          "internalType": "uint256",
          "name": "rvalue",
          "type": "uint256"
        },
        {
          "internalType": "uint256[]",
          "name": "distribution",
          "type": "uint256[]"
        },
        {
          "internalType": "uint256",
          "name": "size",
          "type": "uint256"
        }
      ],
      "name": "getRandomItem",
      "outputs": [
        {
          "internalType": "uint256",
          "name": "",
          "type": "uint256"
        }
      ],
      "stateMutability": "pure",
      "type": "function"
    },
    {
      "inputs": [
        {
          "internalType": "bytes32",
          "name": "entropy",
          "type": "bytes32"
        }
      ],
      "name": "deriveCommitment",
      "outputs": [
        {
          "internalType": "bytes32",
          "name": "",
          "type": "bytes32"
        }
      ],
      "stateMutability": "pure",
      "type": "function"
    }
  ],
  "bytecode": "0x6104ab61003a600b82828239805160001a60731461002d57634e487b7160e01b600052600060045260246000fd5b30600052607381538281f3fe73000000000000000000000000000000000000000030146080604052600436106100925760003560e01c806383de2cee1161006557806383de2cee1461011d578063b84c68df14610144578063dfbd4a051461016b578063e5b5019a1461017e57600080fd5b80630e44f1a01461009757806349cf0f99146100bc57806361cc28d4146100e357806375233c271461010a575b600080fd5b6100aa6100a536600461028a565b610186565b60405190815260200160405180910390f35b6100aa7fdfa926e49ecb76ef0407533073c674d3e6a6fb4a00d7941099f34757f314c42e81565b6100aa7f37a3c4a2a635dedf6a4912ec5757511a1f2fa87cb349543d4751fc18c65e427381565b6100aa6101183660046102a3565b6101b8565b6100aa7feb9cbd77d805ba9b0c4bf1b12c07e59c028821bd6b4866e90c098f77c69821e581565b6100aa7fc227f98e618597415dca1f5035d597d1e75936952bfd5d741271dd85ba110d9081565b6100aa610179366004610328565b610244565b6100aa61027a565b60008160405160200161019b91815260200190565b604051602081830303815290604052805190602001209050919050565b600080826101c960016000196103ba565b6101d391906103d1565b90506000805b85811015610235578686828181106101f3576101f36103f3565b90506020020135836102059190610409565b61020f9083610428565b91508188101561022357925061023c915050565b8061022d81610440565b9150506101d9565b5084925050505b949350505050565b600083838360405160200161025b9392919061045b565b6040516020818303038152906040528051906020012090509392505050565b61028760016000196103ba565b81565b60006020828403121561029c57600080fd5b5035919050565b600080600080606085870312156102b957600080fd5b84359350602085013567ffffffffffffffff808211156102d857600080fd5b818701915087601f8301126102ec57600080fd5b8135818111156102fb57600080fd5b8860208260051b850101111561031057600080fd5b95986020929092019750949560400135945092505050565b60008060006040848603121561033d57600080fd5b83359250602084013567ffffffffffffffff8082111561035c57600080fd5b818601915086601f83011261037057600080fd5b81358181111561037f57600080fd5b87602082850101111561039157600080fd5b6020830194508093505050509250925092565b634e487b7160e01b600052601160045260246000fd5b6000828210156103cc576103cc6103a4565b500390565b6000826103ee57634e487b7160e01b600052601260045260246000fd5b500490565b634e487b7160e01b600052603260045260246000fd5b6000816000190483118215151615610423576104236103a4565b500290565b6000821982111561043b5761043b6103a4565b500190565b6000600019821415610454576104546103a4565b5060010190565b83815281836020830137600091016020019081529291505056fea2646970667358221220afd21b3f28d179c01fcba4d86e9f96608ec8ecaebf1602ba7c4022e2b0ae509764736f6c63430008090033",
  "immutableReferences": {},
  "source": "// SPDX-License-Identifier: MIT\n/**\n * FireZard utilities lib\n */\n\npragma solidity ^0.8.0;\n\n//import \"./TagStorage.sol\";\n\nlibrary Util {\n    uint256 public constant MAX_UINT = (~uint256(0)-1);\n\n    bytes32 public constant NFT_CONTRACT_ID = keccak256('FireZardNFT');\n    bytes32 public constant TAG_STORAGE_CONTRACT_ID = keccak256('TagStorage');\n    bytes32 public constant FLAME_CONTRACT_ID = keccak256('FLAME');\n\n//    bytes32 public constant DRAGON_CARD_TYPE_CODE = abi.encodePacked(keccak256('DRAGON_CARD'));\n    bytes32 public constant DRAGON_CARD_TYPE_CODE = keccak256('DRAGON_CARD');\n\n    enum CardRarity{ Ultra_Rare, Super_Rare, Rare, Uncommon, Common }\n    enum CardType{ Fire, Ice, Plant, Electric, Water }\n    enum StatType{ Integer, String, ByteArray, Boolean }\n\n    struct Stat{\n\tstring name;\n\tStatType statType;\n\tbool is_mutable;\n    }\n\n    struct StatValue{\n\tStatType statType;\n\tuint256  int_val;\n\tstring   str_val;\n\tbytes32  bta_val;\n\tbool     bool_val;\n    }\n\n    function getTagKey(uint256 nft_id, string calldata name) public pure returns(bytes32) {\n\treturn keccak256(abi.encodePacked(nft_id, name));\n    }\n\n    function getRandomItem(uint256 rvalue, uint256[] calldata distribution, uint256 size) public pure returns(uint256) {\n\tuint256 ratio = MAX_UINT/size;\n\tuint256 svalue = 0;\n\tfor(uint256 i=0;i<distribution.length;i++){\n\t    svalue+=ratio*distribution[i];\n\t    if(rvalue < svalue)\n\t\treturn i;\n\t}\n\treturn distribution.length;\n    }\n\n      function deriveCommitment(bytes32 entropy) public pure returns (bytes32){\n        return keccak256(abi.encodePacked(entropy));\n    }\n\n}\n",
  "sourcePath": "/home/vrogojin/Projects/FireZard/nft/contracts/Util.sol",
  "compiler": {
    "name": "solc",
    "version": "0.8.9+commit.e5eed63a.Emscripten.clang"
  },
  "schemaVersion": "3.4.3",
  "updatedAt": "2022-02-07T12:16:08.854Z",
  "devdoc": {
    "kind": "dev",
    "methods": {},
    "version": 1
  },
  "userdoc": {
    "kind": "user",
    "methods": {},
    "version": 1
  }
}