{
  "contractName": "DragonMinter",
  "abi": [
    {
      "inputs": [
        {
          "internalType": "address",
          "name": "rng_contract",
          "type": "address"
        },
        {
          "internalType": "address",
          "name": "tag_storage",
          "type": "address"
        },
        {
          "internalType": "address",
          "name": "nft_container",
          "type": "address"
        },
        {
          "internalType": "address",
          "name": "stats_lib",
          "type": "address"
        }
      ],
      "stateMutability": "nonpayable",
      "type": "constructor"
    },
    {
      "anonymous": false,
      "inputs": [
        {
          "indexed": false,
          "internalType": "address",
          "name": "nft_container",
          "type": "address"
        }
      ],
      "name": "NFTLink",
      "type": "event"
    },
    {
      "anonymous": false,
      "inputs": [
        {
          "indexed": true,
          "internalType": "address",
          "name": "previousOwner",
          "type": "address"
        },
        {
          "indexed": true,
          "internalType": "address",
          "name": "newOwner",
          "type": "address"
        }
      ],
      "name": "OwnershipTransferred",
      "type": "event"
    },
    {
      "anonymous": false,
      "inputs": [
        {
          "indexed": false,
          "internalType": "address",
          "name": "rng_contract",
          "type": "address"
        }
      ],
      "name": "RNGLink",
      "type": "event"
    },
    {
      "anonymous": false,
      "inputs": [
        {
          "indexed": true,
          "internalType": "bytes32",
          "name": "role",
          "type": "bytes32"
        },
        {
          "indexed": true,
          "internalType": "bytes32",
          "name": "previousAdminRole",
          "type": "bytes32"
        },
        {
          "indexed": true,
          "internalType": "bytes32",
          "name": "newAdminRole",
          "type": "bytes32"
        }
      ],
      "name": "RoleAdminChanged",
      "type": "event"
    },
    {
      "anonymous": false,
      "inputs": [
        {
          "indexed": true,
          "internalType": "bytes32",
          "name": "role",
          "type": "bytes32"
        },
        {
          "indexed": true,
          "internalType": "address",
          "name": "account",
          "type": "address"
        },
        {
          "indexed": true,
          "internalType": "address",
          "name": "sender",
          "type": "address"
        }
      ],
      "name": "RoleGranted",
      "type": "event"
    },
    {
      "anonymous": false,
      "inputs": [
        {
          "indexed": true,
          "internalType": "bytes32",
          "name": "role",
          "type": "bytes32"
        },
        {
          "indexed": true,
          "internalType": "address",
          "name": "account",
          "type": "address"
        },
        {
          "indexed": true,
          "internalType": "address",
          "name": "sender",
          "type": "address"
        }
      ],
      "name": "RoleRevoked",
      "type": "event"
    },
    {
      "anonymous": false,
      "inputs": [
        {
          "indexed": false,
          "internalType": "address",
          "name": "stats_lib",
          "type": "address"
        }
      ],
      "name": "StatsLibLink",
      "type": "event"
    },
    {
      "anonymous": false,
      "inputs": [
        {
          "indexed": false,
          "internalType": "uint8",
          "name": "group_id",
          "type": "uint8"
        }
      ],
      "name": "TAGGroupID",
      "type": "event"
    },
    {
      "anonymous": false,
      "inputs": [
        {
          "indexed": false,
          "internalType": "address",
          "name": "tag_storage",
          "type": "address"
        }
      ],
      "name": "TAGLink",
      "type": "event"
    },
    {
      "inputs": [],
      "name": "DEFAULT_ADMIN_ROLE",
      "outputs": [
        {
          "internalType": "bytes32",
          "name": "",
          "type": "bytes32"
        }
      ],
      "stateMutability": "view",
      "type": "function"
    },
    {
      "inputs": [],
      "name": "MINTER_ROLE",
      "outputs": [
        {
          "internalType": "bytes32",
          "name": "",
          "type": "bytes32"
        }
      ],
      "stateMutability": "view",
      "type": "function"
    },
    {
      "inputs": [],
      "name": "NFT_addr",
      "outputs": [
        {
          "internalType": "address",
          "name": "",
          "type": "address"
        }
      ],
      "stateMutability": "view",
      "type": "function"
    },
    {
      "inputs": [],
      "name": "RNG_addr",
      "outputs": [
        {
          "internalType": "address",
          "name": "",
          "type": "address"
        }
      ],
      "stateMutability": "view",
      "type": "function"
    },
    {
      "inputs": [],
      "name": "TAG_addr",
      "outputs": [
        {
          "internalType": "address",
          "name": "",
          "type": "address"
        }
      ],
      "stateMutability": "view",
      "type": "function"
    },
    {
      "inputs": [
        {
          "internalType": "bytes32",
          "name": "role",
          "type": "bytes32"
        }
      ],
      "name": "getRoleAdmin",
      "outputs": [
        {
          "internalType": "bytes32",
          "name": "",
          "type": "bytes32"
        }
      ],
      "stateMutability": "view",
      "type": "function"
    },
    {
      "inputs": [
        {
          "internalType": "bytes32",
          "name": "role",
          "type": "bytes32"
        },
        {
          "internalType": "uint256",
          "name": "index",
          "type": "uint256"
        }
      ],
      "name": "getRoleMember",
      "outputs": [
        {
          "internalType": "address",
          "name": "",
          "type": "address"
        }
      ],
      "stateMutability": "view",
      "type": "function"
    },
    {
      "inputs": [
        {
          "internalType": "bytes32",
          "name": "role",
          "type": "bytes32"
        }
      ],
      "name": "getRoleMemberCount",
      "outputs": [
        {
          "internalType": "uint256",
          "name": "",
          "type": "uint256"
        }
      ],
      "stateMutability": "view",
      "type": "function"
    },
    {
      "inputs": [
        {
          "internalType": "bytes32",
          "name": "role",
          "type": "bytes32"
        },
        {
          "internalType": "address",
          "name": "account",
          "type": "address"
        }
      ],
      "name": "grantRole",
      "outputs": [],
      "stateMutability": "nonpayable",
      "type": "function"
    },
    {
      "inputs": [],
      "name": "group_id",
      "outputs": [
        {
          "internalType": "uint8",
          "name": "",
          "type": "uint8"
        }
      ],
      "stateMutability": "view",
      "type": "function"
    },
    {
      "inputs": [
        {
          "internalType": "bytes32",
          "name": "role",
          "type": "bytes32"
        },
        {
          "internalType": "address",
          "name": "account",
          "type": "address"
        }
      ],
      "name": "hasRole",
      "outputs": [
        {
          "internalType": "bool",
          "name": "",
          "type": "bool"
        }
      ],
      "stateMutability": "view",
      "type": "function"
    },
    {
      "inputs": [],
      "name": "owner",
      "outputs": [
        {
          "internalType": "address",
          "name": "",
          "type": "address"
        }
      ],
      "stateMutability": "view",
      "type": "function"
    },
    {
      "inputs": [],
      "name": "renounceOwnership",
      "outputs": [],
      "stateMutability": "nonpayable",
      "type": "function"
    },
    {
      "inputs": [
        {
          "internalType": "bytes32",
          "name": "role",
          "type": "bytes32"
        },
        {
          "internalType": "address",
          "name": "account",
          "type": "address"
        }
      ],
      "name": "renounceRole",
      "outputs": [],
      "stateMutability": "nonpayable",
      "type": "function"
    },
    {
      "inputs": [
        {
          "internalType": "bytes32",
          "name": "role",
          "type": "bytes32"
        },
        {
          "internalType": "address",
          "name": "account",
          "type": "address"
        }
      ],
      "name": "revokeRole",
      "outputs": [],
      "stateMutability": "nonpayable",
      "type": "function"
    },
    {
      "inputs": [
        {
          "internalType": "uint256",
          "name": "",
          "type": "uint256"
        }
      ],
      "name": "stats",
      "outputs": [
        {
          "internalType": "string",
          "name": "name",
          "type": "string"
        },
        {
          "internalType": "enum Util.StatType",
          "name": "statType",
          "type": "uint8"
        },
        {
          "internalType": "bool",
          "name": "is_mutable",
          "type": "bool"
        }
      ],
      "stateMutability": "view",
      "type": "function"
    },
    {
      "inputs": [],
      "name": "stats_length",
      "outputs": [
        {
          "internalType": "uint256",
          "name": "",
          "type": "uint256"
        }
      ],
      "stateMutability": "view",
      "type": "function"
    },
    {
      "inputs": [],
      "name": "stats_lib_addr",
      "outputs": [
        {
          "internalType": "address",
          "name": "",
          "type": "address"
        }
      ],
      "stateMutability": "view",
      "type": "function"
    },
    {
      "inputs": [
        {
          "internalType": "bytes4",
          "name": "interfaceId",
          "type": "bytes4"
        }
      ],
      "name": "supportsInterface",
      "outputs": [
        {
          "internalType": "bool",
          "name": "",
          "type": "bool"
        }
      ],
      "stateMutability": "view",
      "type": "function"
    },
    {
      "inputs": [
        {
          "internalType": "address",
          "name": "newOwner",
          "type": "address"
        }
      ],
      "name": "transferOwnership",
      "outputs": [],
      "stateMutability": "nonpayable",
      "type": "function"
    },
    {
      "inputs": [
        {
          "internalType": "address",
          "name": "rng_contract",
          "type": "address"
        }
      ],
      "name": "linkRNG",
      "outputs": [],
      "stateMutability": "nonpayable",
      "type": "function"
    },
    {
      "inputs": [
        {
          "internalType": "address",
          "name": "tag_storage",
          "type": "address"
        }
      ],
      "name": "linkTAG",
      "outputs": [],
      "stateMutability": "nonpayable",
      "type": "function"
    },
    {
      "inputs": [
        {
          "internalType": "address",
          "name": "nft_container",
          "type": "address"
        }
      ],
      "name": "linkNFT",
      "outputs": [],
      "stateMutability": "nonpayable",
      "type": "function"
    },
    {
      "inputs": [
        {
          "internalType": "address",
          "name": "stats_lib",
          "type": "address"
        }
      ],
      "name": "linkStatsLib",
      "outputs": [],
      "stateMutability": "nonpayable",
      "type": "function"
    },
    {
      "inputs": [
        {
          "internalType": "uint8",
          "name": "_group_id",
          "type": "uint8"
        }
      ],
      "name": "setTagGroupId",
      "outputs": [],
      "stateMutability": "nonpayable",
      "type": "function"
    },
    {
      "inputs": [
        {
          "internalType": "address",
          "name": "entity",
          "type": "address"
        }
      ],
      "name": "addMinter",
      "outputs": [],
      "stateMutability": "nonpayable",
      "type": "function"
    },
    {
      "inputs": [
        {
          "internalType": "address",
          "name": "entity",
          "type": "address"
        }
      ],
      "name": "removeMinter",
      "outputs": [],
      "stateMutability": "nonpayable",
      "type": "function"
    },
    {
      "inputs": [
        {
          "internalType": "bytes32[]",
          "name": "commitment",
          "type": "bytes32[]"
        }
      ],
      "name": "initPackage",
      "outputs": [],
      "stateMutability": "nonpayable",
      "type": "function"
    },
    {
      "inputs": [
        {
          "internalType": "bytes32[]",
          "name": "entropy",
          "type": "bytes32[]"
        }
      ],
      "name": "lockPackage",
      "outputs": [],
      "stateMutability": "nonpayable",
      "type": "function"
    },
    {
      "inputs": [
        {
          "internalType": "address",
          "name": "recipient",
          "type": "address"
        },
        {
          "internalType": "bytes32[]",
          "name": "commitment",
          "type": "bytes32[]"
        }
      ],
      "name": "mintPackage",
      "outputs": [],
      "stateMutability": "nonpayable",
      "type": "function"
    }
  ],
  "bytecode": "0x60806040523480156200001157600080fd5b50604051620029b6380380620029b6833981016040819052620000349162000336565b6200003f3362000149565b600380546001600160a01b038681166001600160a01b0319928316179092556004805486841690831617905560058054858416908316179055600680549284169290911682179055604080517f37a3c4a2a635dedf6a4912ec5757511a1f2fa87cb349543d4751fc18c65e427360208201526000929163cf0f694491016040516020818303038152906040526040518263ffffffff1660e01b8152600401620000e99190620003c6565b600060405180830381865afa15801562000107573d6000803e3d6000fd5b505050506040513d6000823e601f3d908101601f1916820160405262000131919081019062000490565b90506200013e8162000199565b5050505050620006b0565b600080546001600160a01b038381166001600160a01b0319831681178455604051919092169283917f8be0079c531659141344cd1fd0a4f28419497f9722a3daafe3b4186f6b6457e09190a35050565b60005b81518110156200026c57818181518110620001bb57620001bb6200061d565b602002602001015160078281548110620001d957620001d96200061d565b906000526020600020906002020160008201518160000190805190602001906200020592919062000273565b50602082015160018083018054909160ff199091169083600381111562000230576200023062000633565b021790555060409190910151600190910180549115156101000261ff001990921691909117905580620002638162000649565b9150506200019c565b5051600855565b828054620002819062000673565b90600052602060002090601f016020900481019282620002a55760008555620002f0565b82601f10620002c057805160ff1916838001178555620002f0565b82800160010185558215620002f0579182015b82811115620002f0578251825591602001919060010190620002d3565b50620002fe92915062000302565b5090565b5b80821115620002fe576000815560010162000303565b80516001600160a01b03811681146200033157600080fd5b919050565b600080600080608085870312156200034d57600080fd5b620003588562000319565b9350620003686020860162000319565b9250620003786040860162000319565b9150620003886060860162000319565b905092959194509250565b60005b83811015620003b057818101518382015260200162000396565b83811115620003c0576000848401525b50505050565b6020815260008251806020840152620003e781604085016020870162000393565b601f01601f19169190910160400192915050565b634e487b7160e01b600052604160045260246000fd5b604051606081016001600160401b0381118282101715620004365762000436620003fb565b60405290565b604051601f8201601f191681016001600160401b0381118282101715620004675762000467620003fb565b604052919050565b8051600481106200033157600080fd5b805180151581146200033157600080fd5b60006020808385031215620004a457600080fd5b82516001600160401b0380821115620004bc57600080fd5b818501915085601f830112620004d157600080fd5b815181811115620004e657620004e6620003fb565b8060051b620004f78582016200043c565b91825283810185019185810190898411156200051257600080fd5b86860192505b838310156200061057825185811115620005325760008081fd5b86016060601f19828d0381018213156200054c5760008081fd5b6200055662000411565b8a84015189811115620005695760008081fd5b8401603f81018f136200057c5760008081fd5b8b8101518a811115620005935762000593620003fb565b620005a58d85601f840116016200043c565b93508084528f8d8e83850101011115620005bf5760008081fd5b620005d1818e86016040850162000393565b5050908152604090620005e68483016200046f565b8b820152620005f78385016200047f565b9181019190915284525050918601919086019062000518565b9998505050505050505050565b634e487b7160e01b600052603260045260246000fd5b634e487b7160e01b600052602160045260246000fd5b60006000198214156200066c57634e487b7160e01b600052601160045260246000fd5b5060010190565b600181811c908216806200068857607f821691505b60208210811415620006aa57634e487b7160e01b600052602260045260246000fd5b50919050565b6122f680620006c06000396000f3fe608060405234801561001057600080fd5b50600436106101da5760003560e01c80639010d07c11610104578063ad217ae5116100a2578063d547741f11610071578063d547741f1461042f578063dbedb77a14610442578063f2fde38b14610455578063fc4f93671461046857600080fd5b8063ad217ae5146103c0578063c17f0cb1146103e2578063ca15c873146103f5578063d53913931461040857600080fd5b8063a217fddf116100de578063a217fddf14610389578063a83993b714610391578063aa5a5135146103a4578063aadd0488146103ad57600080fd5b80639010d07c1461035057806391d1485414610363578063983b2d561461037657600080fd5b806339b7de651161017c57806382bad2ca1161014b57806382bad2ca146102f357806388971bf5146103195780638da5cb5b1461032c5780638e0f500b1461033d57600080fd5b806339b7de651461029a57806350b978a8146102c55780636025e1f1146102d8578063715018a6146102eb57600080fd5b80632b021dce116101b85780632b021dce1461024e5780632f2ff15d146102615780633092afd51461027457806336568abe1461028757600080fd5b806301ffc9a7146101df5780632418e9e814610207578063248a9ca31461021c575b600080fd5b6101f26101ed366004611aa7565b61047b565b60405190151581526020015b60405180910390f35b61021a610215366004611ad1565b6104a6565b005b61024061022a366004611af4565b6000908152600160208190526040909120015490565b6040519081526020016101fe565b61021a61025c366004611b59565b61052e565b61021a61026f366004611bb7565b6105cb565b61021a610282366004611be3565b6105ed565b61021a610295366004611bb7565b610644565b6006546102ad906001600160a01b031681565b6040516001600160a01b0390911681526020016101fe565b6005546102ad906001600160a01b031681565b61021a6102e6366004611be3565b610666565b61021a6106de565b60065461030790600160a01b900460ff1681565b60405160ff90911681526020016101fe565b61021a610327366004611be3565b610714565b6000546001600160a01b03166102ad565b61021a61034b366004611be3565b61083a565b6102ad61035e366004611bfe565b6108b2565b6101f2610371366004611bb7565b6108d1565b61021a610384366004611be3565b6108fc565b610240600081565b6004546102ad906001600160a01b031681565b61024060085481565b61021a6103bb366004611be3565b610950565b6103d36103ce366004611af4565b6109c8565b6040516101fe93929190611c8e565b6003546102ad906001600160a01b031681565b610240610403366004611af4565b610a90565b6102407f9f2df0fed2c77648de5860a4cc508cd0818c85b8b8a1ab4ceeef8d981c8956a681565b61021a61043d366004611bb7565b610aa7565b61021a610450366004611cd7565b610ab1565b61021a610463366004611be3565b611230565b61021a610476366004611b59565b6112c8565b60006001600160e01b03198216635a05180f60e01b14806104a057506104a082611360565b92915050565b6000546001600160a01b031633146104d95760405162461bcd60e51b81526004016104d090611d2a565b60405180910390fd5b6006805460ff60a01b1916600160a01b60ff8416908102919091179091556040519081527f41782dd890df0a3491b1bc75084dd76333411510ccf98930ead07069649bf2a9906020015b60405180910390a150565b60005b818110156105c6576003546001600160a01b03166301670ba984848481811061055c5761055c611d5f565b905060200201356040518263ffffffff1660e01b815260040161058191815260200190565b600060405180830381600087803b15801561059b57600080fd5b505af11580156105af573d6000803e3d6000fd5b5050505080806105be90611d8b565b915050610531565b505050565b6105d58282611395565b60008281526002602052604090206105c690826113bc565b6000546001600160a01b031633146106175760405162461bcd60e51b81526004016104d090611d2a565b6106417f9f2df0fed2c77648de5860a4cc508cd0818c85b8b8a1ab4ceeef8d981c8956a682610aa7565b50565b61064e82826113d1565b60008281526002602052604090206105c6908261144f565b6000546001600160a01b031633146106905760405162461bcd60e51b81526004016104d090611d2a565b600480546001600160a01b0319166001600160a01b0383169081179091556040519081527fd6bd8455a554480b643ff6104fea79e1a7c1b27d210a7e7911a3b6a3c64b707990602001610523565b6000546001600160a01b031633146107085760405162461bcd60e51b81526004016104d090611d2a565b6107126000611464565b565b6000546001600160a01b0316331461073e5760405162461bcd60e51b81526004016104d090611d2a565b600680546001600160a01b0319166001600160a01b038316908117909155604080516000805160206122a183398151915260208201526000929163cf0f694491016040516020818303038152906040526040518263ffffffff1660e01b81526004016107aa9190611da6565b600060405180830381865afa1580156107c7573d6000803e3d6000fd5b505050506040513d6000823e601f3d908101601f191682016040526107ef9190810190611ea5565b90506107fa816114b4565b6040516001600160a01b03831681527f8eabd18158736228e0bcd01444e967ae9262cdb0e8a88fb154542a13f701bf7b9060200160405180910390a15050565b6000546001600160a01b031633146108645760405162461bcd60e51b81526004016104d090611d2a565b600380546001600160a01b0319166001600160a01b0383169081179091556040519081527fdbc0b62a2eda1281b7091c1fc7f8105f99775c93b143930dd077ba6d4b32c87e90602001610523565b60008281526002602052604081206108ca908361157f565b9392505050565b60009182526001602090815260408084206001600160a01b0393909316845291905290205460ff1690565b6000546001600160a01b031633146109265760405162461bcd60e51b81526004016104d090611d2a565b6106417f9f2df0fed2c77648de5860a4cc508cd0818c85b8b8a1ab4ceeef8d981c8956a68261158b565b6000546001600160a01b0316331461097a5760405162461bcd60e51b81526004016104d090611d2a565b600580546001600160a01b0319166001600160a01b0383169081179091556040519081527f7869e3c19f5ec29481a8433791a06441db7b22cd85336da47df97fd7b686ba2a90602001610523565b600781815481106109d857600080fd5b90600052602060002090600202016000915090508060000180546109fb90611fc5565b80601f0160208091040260200160405190810160405280929190818152602001828054610a2790611fc5565b8015610a745780601f10610a4957610100808354040283529160200191610a74565b820191906000526020600020905b815481529060010190602001808311610a5757829003601f168201915b5050506001909301549192505060ff8082169161010090041683565b60008181526002602052604081206104a090611595565b61064e828261159f565b60005b8181101561122a576003546000906001600160a01b03166361da1439858585818110610ae257610ae2611d5f565b905060200201356040518263ffffffff1660e01b8152600401610b0791815260200190565b602060405180830381865afa158015610b24573d6000803e3d6000fd5b505050506040513d601f19601f82011682018060405250810190610b489190612000565b600554604080516000805160206122a183398151915260208201529293506001600160a01b039091169163731133e99188918591600191016040516020818303038152906040526040518563ffffffff1660e01b8152600401610bae9493929190612019565b600060405180830381600087803b158015610bc857600080fd5b505af1158015610bdc573d6000803e3d6000fd5b5050505060005b6007548110156112155760078181548110610c0057610c00611d5f565b906000526020600020906002020160010160019054906101000a900460ff16610c2857611203565b600073__Util__________________________________63dfbd4a058460078581548110610c5857610c58611d5f565b90600052602060002090600202016000016040518363ffffffff1660e01b8152600401610c869291906120f1565b602060405180830381865af4158015610ca3573d6000803e3d6000fd5b505050506040513d601f19601f82011682018060405250810190610cc79190612000565b9050600060078381548110610cde57610cde611d5f565b6000918252602082206001600290920201015460ff169150816003811115610d0857610d08611c78565b1415610e5557600654604080516000805160206122a183398151915260208201526000926001600160a01b03169163c8e5042e91016040516020818303038152906040528760078881548110610d6057610d60611d5f565b90600052602060002090600202016000016040518463ffffffff1660e01b8152600401610d8f9392919061210a565b602060405180830381865afa158015610dac573d6000803e3d6000fd5b505050506040513d601f19601f82011682018060405250810190610dd09190612000565b60048054600654604051636cc09e7160e01b8152600160a01b90910460ff169281019290925260248201869052604482018390529192506001600160a01b0390911690636cc09e71906064015b600060405180830381600087803b158015610e3757600080fd5b505af1158015610e4b573d6000803e3d6000fd5b5050505050611200565b6001816003811115610e6957610e69611c78565b1415610f7657600654604080516000805160206122a183398151915260208201526000926001600160a01b0316916331ca2b0891016040516020818303038152906040528760078881548110610ec157610ec1611d5f565b90600052602060002090600202016000016040518463ffffffff1660e01b8152600401610ef09392919061210a565b600060405180830381865afa158015610f0d573d6000803e3d6000fd5b505050506040513d6000823e601f3d908101601f19168201604052610f359190810190612135565b6004805460065460405162c9fed560e21b81529394506001600160a01b0390911692630327fb5492610e1d92600160a01b900460ff1691889187910161216a565b6002816003811115610f8a57610f8a611c78565b14156110a357600654604080516000805160206122a183398151915260208201526000926001600160a01b03169163750bba5f91016040516020818303038152906040528760078881548110610fe257610fe2611d5f565b90600052602060002090600202016000016040518463ffffffff1660e01b81526004016110119392919061210a565b602060405180830381865afa15801561102e573d6000803e3d6000fd5b505050506040513d601f19601f820116820180604052508101906110529190612000565b60048054600654604051636609288f60e01b8152600160a01b90910460ff169281019290925260248201869052604482018390529192506001600160a01b0390911690636609288f90606401610e1d565b60038160038111156110b7576110b7611c78565b141561120057600654604080516000805160206122a183398151915260208201526000926001600160a01b03169163c6ee7fe69101604051602081830303815290604052876007888154811061110f5761110f611d5f565b90600052602060002090600202016000016040518463ffffffff1660e01b815260040161113e9392919061210a565b602060405180830381865afa15801561115b573d6000803e3d6000fd5b505050506040513d601f19601f8201168201806040525081019061117f9190612195565b6004805460065460405163d713085b60e01b8152600160a01b90910460ff16928101929092526024820186905282151560448301529192506001600160a01b039091169063d713085b90606401600060405180830381600087803b1580156111e657600080fd5b505af11580156111fa573d6000803e3d6000fd5b50505050505b50505b8061120d81611d8b565b915050610be3565b5050808061122290611d8b565b915050610ab4565b50505050565b6000546001600160a01b0316331461125a5760405162461bcd60e51b81526004016104d090611d2a565b6001600160a01b0381166112bf5760405162461bcd60e51b815260206004820152602660248201527f4f776e61626c653a206e6577206f776e657220697320746865207a65726f206160448201526564647265737360d01b60648201526084016104d0565b61064181611464565b60005b818110156105c6576003546001600160a01b031663f14fcbc88484848181106112f6576112f6611d5f565b905060200201356040518263ffffffff1660e01b815260040161131b91815260200190565b600060405180830381600087803b15801561133557600080fd5b505af1158015611349573d6000803e3d6000fd5b50505050808061135890611d8b565b9150506112cb565b60006001600160e01b03198216637965db0b60e01b14806104a057506301ffc9a760e01b6001600160e01b03198316146104a0565b600082815260016020819052604090912001546113b281336115c6565b6105c6838361162a565b60006108ca836001600160a01b038416611695565b6001600160a01b03811633146114415760405162461bcd60e51b815260206004820152602f60248201527f416363657373436f6e74726f6c3a2063616e206f6e6c792072656e6f756e636560448201526e103937b632b9903337b91039b2b63360891b60648201526084016104d0565b61144b82826116e4565b5050565b60006108ca836001600160a01b03841661174b565b600080546001600160a01b038381166001600160a01b0319831681178455604051919092169283917f8be0079c531659141344cd1fd0a4f28419497f9722a3daafe3b4186f6b6457e09190a35050565b60005b8151811015611578578181815181106114d2576114d2611d5f565b6020026020010151600782815481106114ed576114ed611d5f565b90600052602060002090600202016000820151816000019080519060200190611517929190611a0e565b50602082015160018083018054909160ff199091169083600381111561153f5761153f611c78565b021790555060409190910151600190910180549115156101000261ff00199092169190911790558061157081611d8b565b9150506114b7565b5051600855565b60006108ca838361183e565b6105d58282611868565b60006104a0825490565b600082815260016020819052604090912001546115bc81336115c6565b6105c683836116e4565b6115d082826108d1565b61144b576115e8816001600160a01b03166014611872565b6115f3836020611872565b6040516020016116049291906121b0565b60408051601f198184030181529082905262461bcd60e51b82526104d091600401611da6565b61163482826108d1565b61144b5760008281526001602081815260408084206001600160a01b0386168086529252808420805460ff19169093179092559051339285917f2f8788117e7eff1d82e926ec794901d17c78024a50270940304540a733656f0d9190a45050565b60008181526001830160205260408120546116dc575081546001818101845560008481526020808220909301849055845484825282860190935260409020919091556104a0565b5060006104a0565b6116ee82826108d1565b1561144b5760008281526001602090815260408083206001600160a01b0385168085529252808320805460ff1916905551339285917ff6391f5c32d9c69d2a47ea670b442974b53935d1edc7fd64eb21e047a839171b9190a45050565b6000818152600183016020526040812054801561183457600061176f600183612225565b855490915060009061178390600190612225565b90508181146117e85760008660000182815481106117a3576117a3611d5f565b90600052602060002001549050808760000184815481106117c6576117c6611d5f565b6000918252602080832090910192909255918252600188019052604090208390555b85548690806117f9576117f961223c565b6001900381819060005260206000200160009055905585600101600086815260200190815260200160002060009055600193505050506104a0565b60009150506104a0565b600082600001828154811061185557611855611d5f565b9060005260206000200154905092915050565b61144b828261162a565b60606000611881836002612252565b61188c906002612271565b67ffffffffffffffff8111156118a4576118a4611db9565b6040519080825280601f01601f1916602001820160405280156118ce576020820181803683370190505b509050600360fc1b816000815181106118e9576118e9611d5f565b60200101906001600160f81b031916908160001a905350600f60fb1b8160018151811061191857611918611d5f565b60200101906001600160f81b031916908160001a905350600061193c846002612252565b611947906001612271565b90505b60018111156119bf576f181899199a1a9b1b9c1cb0b131b232b360811b85600f166010811061197b5761197b611d5f565b1a60f81b82828151811061199157611991611d5f565b60200101906001600160f81b031916908160001a90535060049490941c936119b881612289565b905061194a565b5083156108ca5760405162461bcd60e51b815260206004820181905260248201527f537472696e67733a20686578206c656e67746820696e73756666696369656e7460448201526064016104d0565b828054611a1a90611fc5565b90600052602060002090601f016020900481019282611a3c5760008555611a82565b82601f10611a5557805160ff1916838001178555611a82565b82800160010185558215611a82579182015b82811115611a82578251825591602001919060010190611a67565b50611a8e929150611a92565b5090565b5b80821115611a8e5760008155600101611a93565b600060208284031215611ab957600080fd5b81356001600160e01b0319811681146108ca57600080fd5b600060208284031215611ae357600080fd5b813560ff811681146108ca57600080fd5b600060208284031215611b0657600080fd5b5035919050565b60008083601f840112611b1f57600080fd5b50813567ffffffffffffffff811115611b3757600080fd5b6020830191508360208260051b8501011115611b5257600080fd5b9250929050565b60008060208385031215611b6c57600080fd5b823567ffffffffffffffff811115611b8357600080fd5b611b8f85828601611b0d565b90969095509350505050565b80356001600160a01b0381168114611bb257600080fd5b919050565b60008060408385031215611bca57600080fd5b82359150611bda60208401611b9b565b90509250929050565b600060208284031215611bf557600080fd5b6108ca82611b9b565b60008060408385031215611c1157600080fd5b50508035926020909101359150565b60005b83811015611c3b578181015183820152602001611c23565b8381111561122a5750506000910152565b60008151808452611c64816020860160208601611c20565b601f01601f19169290920160200192915050565b634e487b7160e01b600052602160045260246000fd5b606081526000611ca16060830186611c4c565b905060048410611cc157634e487b7160e01b600052602160045260246000fd5b8360208301528215156040830152949350505050565b600080600060408486031215611cec57600080fd5b611cf584611b9b565b9250602084013567ffffffffffffffff811115611d1157600080fd5b611d1d86828701611b0d565b9497909650939450505050565b6020808252818101527f4f776e61626c653a2063616c6c6572206973206e6f7420746865206f776e6572604082015260600190565b634e487b7160e01b600052603260045260246000fd5b634e487b7160e01b600052601160045260246000fd5b6000600019821415611d9f57611d9f611d75565b5060010190565b6020815260006108ca6020830184611c4c565b634e487b7160e01b600052604160045260246000fd5b6040516060810167ffffffffffffffff81118282101715611df257611df2611db9565b60405290565b604051601f8201601f1916810167ffffffffffffffff81118282101715611e2157611e21611db9565b604052919050565b600082601f830112611e3a57600080fd5b815167ffffffffffffffff811115611e5457611e54611db9565b611e67601f8201601f1916602001611df8565b818152846020838601011115611e7c57600080fd5b611e8d826020830160208701611c20565b949350505050565b80518015158114611bb257600080fd5b60006020808385031215611eb857600080fd5b825167ffffffffffffffff80821115611ed057600080fd5b818501915085601f830112611ee457600080fd5b815181811115611ef657611ef6611db9565b8060051b611f05858201611df8565b9182528381018501918581019089841115611f1f57600080fd5b86860192505b83831015611fb857825185811115611f3d5760008081fd5b86016060818c03601f1901811315611f555760008081fd5b611f5d611dcf565b8983015188811115611f6f5760008081fd5b611f7d8e8c83870101611e29565b82525060408084015160048110611f945760008081fd5b828c0152611fa3848401611e95565b90820152845250509186019190860190611f25565b9998505050505050505050565b600181811c90821680611fd957607f821691505b60208210811415611ffa57634e487b7160e01b600052602260045260246000fd5b50919050565b60006020828403121561201257600080fd5b5051919050565b60018060a01b03851681528360208201528260408201526080606082015260006120466080830184611c4c565b9695505050505050565b8054600090600181811c908083168061206a57607f831692505b602080841082141561208c57634e487b7160e01b600052602260045260246000fd5b8388528180156120a357600181146120b7576120e5565b60ff198616898301526040890196506120e5565b876000528160002060005b868110156120dd5781548b82018501529085019083016120c2565b8a0183019750505b50505050505092915050565b828152604060208201526000611e8d6040830184612050565b60608152600061211d6060830186611c4c565b84602084015282810360408401526120468185612050565b60006020828403121561214757600080fd5b815167ffffffffffffffff81111561215e57600080fd5b611e8d84828501611e29565b60ff8416815282602082015260606040820152600061218c6060830184611c4c565b95945050505050565b6000602082840312156121a757600080fd5b6108ca82611e95565b7f416363657373436f6e74726f6c3a206163636f756e74200000000000000000008152600083516121e8816017850160208801611c20565b7001034b99036b4b9b9b4b733903937b6329607d1b6017918401918201528351612219816028840160208801611c20565b01602801949350505050565b60008282101561223757612237611d75565b500390565b634e487b7160e01b600052603160045260246000fd5b600081600019048311821515161561226c5761226c611d75565b500290565b6000821982111561228457612284611d75565b500190565b60008161229857612298611d75565b50600019019056fe37a3c4a2a635dedf6a4912ec5757511a1f2fa87cb349543d4751fc18c65e4273a264697066735822122070aa4ec1fd92e3d28821a6394cb6c829f60cec372ee07c90ee82897c6a4a47b564736f6c634300080a0033",
  "immutableReferences": {},
  "source": "/**\n * Dragon card minter logic. Creates Unique dragon NFTs with unique IDs and all necessary data tags\n * SPDX-License-Identifier: MIT\n * @title Dragon Cards Minter\n * @author CryptoHog\n * @notice This smart contract implements core dragon cards minting logic.\n * @dev The smart contract performs the following functions\n *  - accepts orders to create a given number of new dragon cards\n *  - talks to RNG to generate unique card IDs\n *  - derives from card ID its static and iniotial dynamic stats\n *  - talks to the NFT1155 to create card's NFT\n *  - talks to the Tag Storage to store the dynamic stats\n**/\n\npragma solidity ^0.8.0;\n\nimport \"@openzeppelin/contracts/access/AccessControlEnumerable.sol\";\nimport \"@openzeppelin/contracts/utils/Context.sol\";\nimport \"@openzeppelin/contracts/access/Ownable.sol\";\nimport \"./FireZardNFT.sol\";\nimport \"./IRNG.sol\";\nimport \"./IStatsDerive.sol\";\nimport \"./TagStorage.sol\";\nimport {Util} from \"./Util.sol\";\n\ncontract DragonMinter is Context, Ownable, AccessControlEnumerable {\n    bytes32 public constant MINTER_ROLE = keccak256('MINTER_ROLE');\n\n    address public      RNG_addr;\n    address public\tTAG_addr;\n    address public\tNFT_addr;\n    address public\tstats_lib_addr;\n\n    uint8 public \tgroup_id;\n    Util.Stat[] public stats;\n    uint256 public\tstats_length;\n\n    modifier isMinter() {\n\t_;\n    }\n\n    /**\n     * @notice Initializes the Dragon Cards minter.\n     * @dev    Needs RNG smart contract address.\n     * The constructor will link the dragon minter to the given RNG smart contract.\n     * The onwer can relink the dragon minter to a different RNG smart contract later on.\n     *\n     * @param rng_contract  The address of the RNG contract implementing IRNG interface.\n     * @param tag_storage   The address of the Tag Storage\n     * @param nft_container The address of the NFT ERC1155 smart contract\n     * @param stats_lib     The address of the library with the methods deriving stats from the token UUID by name\n    **/\n    constructor(address rng_contract, address tag_storage, address nft_container, address stats_lib) {\n\tRNG_addr = rng_contract;\n\tTAG_addr = tag_storage;\n\tNFT_addr = nft_container;\n\tstats_lib_addr = stats_lib;\n\tUtil.Stat[] memory _stats = IStatsDerive(stats_lib_addr).stats(Util.DRAGON_CARD_TYPE_CODE);\n\tsaveStats(_stats);\n//\t_setupRole(MINTER_ROLE, _msgSender());\n    }\n\n    function saveStats(Util.Stat[] memory _stats) internal {\n\tfor(uint256 i=0;i<_stats.length;i++){\n\t    stats[i] = _stats[i];\n\t}\n\tstats_length = _stats.length;\n    }\n\n    /**\n     * @notice Sets link to RNG smart contract\n    **/\n    function linkRNG(address rng_contract) public virtual onlyOwner {\n\tRNG_addr = rng_contract;\n\temit RNGLink(rng_contract);\n    }\n\n    /**\n     * @notice Sets link to Tag Storage smart contract\n    **/\n    function linkTAG(address tag_storage) public virtual onlyOwner {\n\tTAG_addr = tag_storage;\n\temit TAGLink(tag_storage);\n    }\n\n    /**\n     * @notice Sets link to ERC1155 NFT smart contract\n    **/\n    function linkNFT(address nft_container) public virtual onlyOwner {\n\tNFT_addr = nft_container;\n\temit NFTLink(nft_container);\n    }\n\n    /**\n     * @notice Sets link to the Stats deriving library\n    **/\n    function linkStatsLib(address stats_lib) public virtual onlyOwner {\n\tstats_lib_addr = stats_lib;\n\tUtil.Stat[] memory _stats = IStatsDerive(stats_lib_addr).stats(Util.DRAGON_CARD_TYPE_CODE);\n\tsaveStats(_stats);\n\temit StatsLibLink(stats_lib);\n    }\n\n    /**\n     * @notice Sets group ID for the Dragon card minter within Tag Storage\n    **/\n    function setTagGroupId(uint8 _group_id) public virtual onlyOwner {\n\tgroup_id = _group_id;\n\temit TAGGroupID(_group_id);\n    }\n\n    /**\n     * @notice Adds minter's role\n     * \n     * @param entity An address of a contract or external\n    **/\n    function addMinter(address entity) public virtual onlyOwner {\n\t_setupRole(MINTER_ROLE, entity);\n    }\n\n    /**\n     * @notice Removes minter's role\n     * \n     * @param entity An address of a contract or external\n    **/\n    function removeMinter(address entity) public virtual onlyOwner {\n\trevokeRole(MINTER_ROLE, entity);\n    }\n\n    /**\n     * @notice Initializes RNG with an array of entropy's commitments from user's side.\n     * This should be called before revealing the cards.\n     * The size of the array equals the number of cards to create. Cards are not revealed so far.\n     * At this point the cards are hidden. It is only known how many cards will be revealed/created.\n     * The cards can be revealed after certain amount of time specific to the RNG.\n     * @dev    Calls RNG's init procedure for every card. Read more about generating randomness in IRNG.sol\n     *\n     * @param commitment Array of commitments of user's entropy for all new cards to create.\n    **/\n    function initPackage(bytes32[] calldata commitment) external virtual {\n\tfor(uint i=0;i<commitment.length;i++)\n\t    IRNG(RNG_addr).commit(commitment[i]);\n    }\n\n    /**\n     * @notice Lock an array of client's entropies that have been commited earlier\n     *\n     * @param entropy The array of client's entropies\n    **/\n    function lockPackage(bytes32[] calldata entropy) external virtual {\n\tfor(uint i=0;i<entropy.length;i++){\n\t    IRNG(RNG_addr).lock(entropy[i]);\n\t}\n    }\n\n    /**\n     * @notice Reveales new dragon cards unique IDs basing on the entropy's commitments from user's side.\n     * Mints respective NFT ERC1155 tokens, derives the cards' stats and stores them into the Tag Storage\n     * @dev See IRNG.sol for details on how random unique IDs are generated from the user's entropy commitments\n     *\n     * @param commitment Array of commitments of user's entropy for all new cards to create.\n    **/\n    function mintPackage(address recipient, bytes32[] calldata commitment) external virtual isMinter {\n\tfor(uint i=0;i<commitment.length;i++){\n\t    uint256 nft_id=IRNG(RNG_addr).read(commitment[i]);\n\t    FireZardNFT(NFT_addr).mint(\n\t\trecipient,\n\t\tnft_id,\n\t\t1,\n\t\tUtil.DRAGON_CARD_TYPE_CODE\n\t    );\n\t    for(uint j=0;j<stats.length;j++){\n\t\tif(!stats[j].is_mutable)continue;\n\t\tbytes32 tag_key = Util.getTagKey(nft_id,stats[j].name);\n\t\tUtil.StatType statType = stats[j].statType;\n\t\tif(statType == Util.StatType.Integer){\n\t\t    uint256 tag_value = IStatsDerive(stats_lib_addr).getStatInt(Util.DRAGON_CARD_TYPE_CODE, nft_id, stats[j].name);\n\t\t    TagStorage(TAG_addr).setTag(group_id, tag_key, tag_value);\n\t\t}else if(statType == Util.StatType.String){\n\t\t    string memory tag_value = IStatsDerive(stats_lib_addr).getStatString(Util.DRAGON_CARD_TYPE_CODE, nft_id, stats[j].name);\n\t\t    TagStorage(TAG_addr).setTag(group_id, tag_key, tag_value);\n\t\t}else if(statType == Util.StatType.ByteArray){\n\t\t    bytes32 tag_value = IStatsDerive(stats_lib_addr).getStatByte32(Util.DRAGON_CARD_TYPE_CODE, nft_id, stats[j].name);\n\t\t    TagStorage(TAG_addr).setTag(group_id, tag_key, tag_value);\n\t\t}else if(statType == Util.StatType.Boolean){\n\t\t    bool tag_value = IStatsDerive(stats_lib_addr).getStatBool(Util.DRAGON_CARD_TYPE_CODE, nft_id, stats[j].name);\n\t\t    TagStorage(TAG_addr).setTag(group_id, tag_key, tag_value);\n\t\t}\n\t    }\n\t}\n    }\n\n    event RNGLink(address rng_contract);\n    event StatsLibLink(address stats_lib);\n    event TAGGroupID(uint8 group_id);\n    event TAGLink(address tag_storage);\n    event NFTLink(address nft_container);\n}\n",
  "sourcePath": "/home/vrogojin/Projects/firezard_nft/contracts/DragonMinter.sol",
  "compiler": {
    "name": "solc",
    "version": "0.8.10+commit.fc410830.Emscripten.clang"
  },
  "schemaVersion": "3.4.3",
  "updatedAt": "2021-12-04T20:18:40.626Z",
  "devdoc": {
    "kind": "dev",
    "methods": {
      "addMinter(address)": {
        "params": {
          "entity": "An address of a contract or external*"
        }
      },
      "constructor": {
        "details": "Needs RNG smart contract address. The constructor will link the dragon minter to the given RNG smart contract. The onwer can relink the dragon minter to a different RNG smart contract later on.",
        "params": {
          "nft_container": "The address of the NFT ERC1155 smart contract",
          "rng_contract": "The address of the RNG contract implementing IRNG interface.",
          "stats_lib": "The address of the library with the methods deriving stats from the token UUID by name*",
          "tag_storage": "The address of the Tag Storage"
        }
      },
      "getRoleAdmin(bytes32)": {
        "details": "Returns the admin role that controls `role`. See {grantRole} and {revokeRole}. To change a role's admin, use {_setRoleAdmin}."
      },
      "getRoleMember(bytes32,uint256)": {
        "details": "Returns one of the accounts that have `role`. `index` must be a value between 0 and {getRoleMemberCount}, non-inclusive. Role bearers are not sorted in any particular way, and their ordering may change at any point. WARNING: When using {getRoleMember} and {getRoleMemberCount}, make sure you perform all queries on the same block. See the following https://forum.openzeppelin.com/t/iterating-over-elements-on-enumerableset-in-openzeppelin-contracts/2296[forum post] for more information."
      },
      "getRoleMemberCount(bytes32)": {
        "details": "Returns the number of accounts that have `role`. Can be used together with {getRoleMember} to enumerate all bearers of a role."
      },
      "grantRole(bytes32,address)": {
        "details": "Overload {grantRole} to track enumerable memberships"
      },
      "hasRole(bytes32,address)": {
        "details": "Returns `true` if `account` has been granted `role`."
      },
      "initPackage(bytes32[])": {
        "details": "Calls RNG's init procedure for every card. Read more about generating randomness in IRNG.sol",
        "params": {
          "commitment": "Array of commitments of user's entropy for all new cards to create.*"
        }
      },
      "lockPackage(bytes32[])": {
        "params": {
          "entropy": "The array of client's entropies*"
        }
      },
      "mintPackage(address,bytes32[])": {
        "details": "See IRNG.sol for details on how random unique IDs are generated from the user's entropy commitments",
        "params": {
          "commitment": "Array of commitments of user's entropy for all new cards to create.*"
        }
      },
      "owner()": {
        "details": "Returns the address of the current owner."
      },
      "removeMinter(address)": {
        "params": {
          "entity": "An address of a contract or external*"
        }
      },
      "renounceOwnership()": {
        "details": "Leaves the contract without owner. It will not be possible to call `onlyOwner` functions anymore. Can only be called by the current owner. NOTE: Renouncing ownership will leave the contract without an owner, thereby removing any functionality that is only available to the owner."
      },
      "renounceRole(bytes32,address)": {
        "details": "Overload {renounceRole} to track enumerable memberships"
      },
      "revokeRole(bytes32,address)": {
        "details": "Overload {revokeRole} to track enumerable memberships"
      },
      "supportsInterface(bytes4)": {
        "details": "See {IERC165-supportsInterface}."
      },
      "transferOwnership(address)": {
        "details": "Transfers ownership of the contract to a new account (`newOwner`). Can only be called by the current owner."
      }
    },
    "version": 1
  },
  "userdoc": {
    "kind": "user",
    "methods": {
      "addMinter(address)": {
        "notice": "Adds minter's role "
      },
      "constructor": {
        "notice": "Initializes the Dragon Cards minter."
      },
      "initPackage(bytes32[])": {
        "notice": "Initializes RNG with an array of entropy's commitments from user's side. This should be called before revealing the cards. The size of the array equals the number of cards to create. Cards are not revealed so far. At this point the cards are hidden. It is only known how many cards will be revealed/created. The cards can be revealed after certain amount of time specific to the RNG."
      },
      "linkNFT(address)": {
        "notice": "Sets link to ERC1155 NFT smart contract*"
      },
      "linkRNG(address)": {
        "notice": "Sets link to RNG smart contract*"
      },
      "linkStatsLib(address)": {
        "notice": "Sets link to the Stats deriving library*"
      },
      "linkTAG(address)": {
        "notice": "Sets link to Tag Storage smart contract*"
      },
      "lockPackage(bytes32[])": {
        "notice": "Lock an array of client's entropies that have been commited earlier"
      },
      "mintPackage(address,bytes32[])": {
        "notice": "Reveales new dragon cards unique IDs basing on the entropy's commitments from user's side. Mints respective NFT ERC1155 tokens, derives the cards' stats and stores them into the Tag Storage"
      },
      "removeMinter(address)": {
        "notice": "Removes minter's role "
      },
      "setTagGroupId(uint8)": {
        "notice": "Sets group ID for the Dragon card minter within Tag Storage*"
      }
    },
    "version": 1
  }
}