{
  "contractName": "DragonMinter",
  "abi": [
    {
      "inputs": [
        {
          "internalType": "address",
          "name": "rng_contract",
          "type": "address"
        },
        {
          "internalType": "address",
          "name": "tag_storage",
          "type": "address"
        },
        {
          "internalType": "address",
          "name": "nft_container",
          "type": "address"
        },
        {
          "internalType": "address",
          "name": "stats_lib",
          "type": "address"
        }
      ],
      "stateMutability": "nonpayable",
      "type": "constructor"
    },
    {
      "anonymous": false,
      "inputs": [
        {
          "indexed": false,
          "internalType": "address",
          "name": "nft_container",
          "type": "address"
        }
      ],
      "name": "NFTChange",
      "type": "event"
    },
    {
      "anonymous": false,
      "inputs": [
        {
          "indexed": true,
          "internalType": "address",
          "name": "previousOwner",
          "type": "address"
        },
        {
          "indexed": true,
          "internalType": "address",
          "name": "newOwner",
          "type": "address"
        }
      ],
      "name": "OwnershipTransferred",
      "type": "event"
    },
    {
      "anonymous": false,
      "inputs": [
        {
          "indexed": false,
          "internalType": "address",
          "name": "rng_contract",
          "type": "address"
        }
      ],
      "name": "RNGChange",
      "type": "event"
    },
    {
      "anonymous": false,
      "inputs": [
        {
          "indexed": true,
          "internalType": "bytes32",
          "name": "role",
          "type": "bytes32"
        },
        {
          "indexed": true,
          "internalType": "bytes32",
          "name": "previousAdminRole",
          "type": "bytes32"
        },
        {
          "indexed": true,
          "internalType": "bytes32",
          "name": "newAdminRole",
          "type": "bytes32"
        }
      ],
      "name": "RoleAdminChanged",
      "type": "event"
    },
    {
      "anonymous": false,
      "inputs": [
        {
          "indexed": true,
          "internalType": "bytes32",
          "name": "role",
          "type": "bytes32"
        },
        {
          "indexed": true,
          "internalType": "address",
          "name": "account",
          "type": "address"
        },
        {
          "indexed": true,
          "internalType": "address",
          "name": "sender",
          "type": "address"
        }
      ],
      "name": "RoleGranted",
      "type": "event"
    },
    {
      "anonymous": false,
      "inputs": [
        {
          "indexed": true,
          "internalType": "bytes32",
          "name": "role",
          "type": "bytes32"
        },
        {
          "indexed": true,
          "internalType": "address",
          "name": "account",
          "type": "address"
        },
        {
          "indexed": true,
          "internalType": "address",
          "name": "sender",
          "type": "address"
        }
      ],
      "name": "RoleRevoked",
      "type": "event"
    },
    {
      "anonymous": false,
      "inputs": [
        {
          "indexed": false,
          "internalType": "address",
          "name": "stats_lib",
          "type": "address"
        }
      ],
      "name": "StatsLibChange",
      "type": "event"
    },
    {
      "anonymous": false,
      "inputs": [
        {
          "indexed": false,
          "internalType": "address",
          "name": "tag_storage",
          "type": "address"
        }
      ],
      "name": "TAGChange",
      "type": "event"
    },
    {
      "anonymous": false,
      "inputs": [
        {
          "indexed": false,
          "internalType": "uint8",
          "name": "group_id",
          "type": "uint8"
        }
      ],
      "name": "TAGGroupID",
      "type": "event"
    },
    {
      "inputs": [],
      "name": "DEFAULT_ADMIN_ROLE",
      "outputs": [
        {
          "internalType": "bytes32",
          "name": "",
          "type": "bytes32"
        }
      ],
      "stateMutability": "view",
      "type": "function"
    },
    {
      "inputs": [],
      "name": "MINTER_ROLE",
      "outputs": [
        {
          "internalType": "bytes32",
          "name": "",
          "type": "bytes32"
        }
      ],
      "stateMutability": "view",
      "type": "function"
    },
    {
      "inputs": [],
      "name": "NFT_addr",
      "outputs": [
        {
          "internalType": "address",
          "name": "",
          "type": "address"
        }
      ],
      "stateMutability": "view",
      "type": "function"
    },
    {
      "inputs": [],
      "name": "RNG_addr",
      "outputs": [
        {
          "internalType": "address",
          "name": "",
          "type": "address"
        }
      ],
      "stateMutability": "view",
      "type": "function"
    },
    {
      "inputs": [],
      "name": "TAG_addr",
      "outputs": [
        {
          "internalType": "address",
          "name": "",
          "type": "address"
        }
      ],
      "stateMutability": "view",
      "type": "function"
    },
    {
      "inputs": [
        {
          "internalType": "bytes32",
          "name": "role",
          "type": "bytes32"
        }
      ],
      "name": "getRoleAdmin",
      "outputs": [
        {
          "internalType": "bytes32",
          "name": "",
          "type": "bytes32"
        }
      ],
      "stateMutability": "view",
      "type": "function"
    },
    {
      "inputs": [
        {
          "internalType": "bytes32",
          "name": "role",
          "type": "bytes32"
        },
        {
          "internalType": "uint256",
          "name": "index",
          "type": "uint256"
        }
      ],
      "name": "getRoleMember",
      "outputs": [
        {
          "internalType": "address",
          "name": "",
          "type": "address"
        }
      ],
      "stateMutability": "view",
      "type": "function"
    },
    {
      "inputs": [
        {
          "internalType": "bytes32",
          "name": "role",
          "type": "bytes32"
        }
      ],
      "name": "getRoleMemberCount",
      "outputs": [
        {
          "internalType": "uint256",
          "name": "",
          "type": "uint256"
        }
      ],
      "stateMutability": "view",
      "type": "function"
    },
    {
      "inputs": [
        {
          "internalType": "bytes32",
          "name": "role",
          "type": "bytes32"
        },
        {
          "internalType": "address",
          "name": "account",
          "type": "address"
        }
      ],
      "name": "grantRole",
      "outputs": [],
      "stateMutability": "nonpayable",
      "type": "function"
    },
    {
      "inputs": [],
      "name": "group_id",
      "outputs": [
        {
          "internalType": "uint8",
          "name": "",
          "type": "uint8"
        }
      ],
      "stateMutability": "view",
      "type": "function"
    },
    {
      "inputs": [
        {
          "internalType": "bytes32",
          "name": "role",
          "type": "bytes32"
        },
        {
          "internalType": "address",
          "name": "account",
          "type": "address"
        }
      ],
      "name": "hasRole",
      "outputs": [
        {
          "internalType": "bool",
          "name": "",
          "type": "bool"
        }
      ],
      "stateMutability": "view",
      "type": "function"
    },
    {
      "inputs": [],
      "name": "owner",
      "outputs": [
        {
          "internalType": "address",
          "name": "",
          "type": "address"
        }
      ],
      "stateMutability": "view",
      "type": "function"
    },
    {
      "inputs": [],
      "name": "renounceOwnership",
      "outputs": [],
      "stateMutability": "nonpayable",
      "type": "function"
    },
    {
      "inputs": [
        {
          "internalType": "bytes32",
          "name": "role",
          "type": "bytes32"
        },
        {
          "internalType": "address",
          "name": "account",
          "type": "address"
        }
      ],
      "name": "renounceRole",
      "outputs": [],
      "stateMutability": "nonpayable",
      "type": "function"
    },
    {
      "inputs": [
        {
          "internalType": "bytes32",
          "name": "role",
          "type": "bytes32"
        },
        {
          "internalType": "address",
          "name": "account",
          "type": "address"
        }
      ],
      "name": "revokeRole",
      "outputs": [],
      "stateMutability": "nonpayable",
      "type": "function"
    },
    {
      "inputs": [
        {
          "internalType": "uint256",
          "name": "",
          "type": "uint256"
        }
      ],
      "name": "stats",
      "outputs": [
        {
          "internalType": "string",
          "name": "name",
          "type": "string"
        },
        {
          "internalType": "enum FireZardUtil.StatType",
          "name": "statType",
          "type": "uint8"
        },
        {
          "internalType": "bool",
          "name": "is_mutable",
          "type": "bool"
        }
      ],
      "stateMutability": "view",
      "type": "function"
    },
    {
      "inputs": [],
      "name": "stats_length",
      "outputs": [
        {
          "internalType": "uint256",
          "name": "",
          "type": "uint256"
        }
      ],
      "stateMutability": "view",
      "type": "function"
    },
    {
      "inputs": [],
      "name": "stats_lib_addr",
      "outputs": [
        {
          "internalType": "address",
          "name": "",
          "type": "address"
        }
      ],
      "stateMutability": "view",
      "type": "function"
    },
    {
      "inputs": [
        {
          "internalType": "bytes4",
          "name": "interfaceId",
          "type": "bytes4"
        }
      ],
      "name": "supportsInterface",
      "outputs": [
        {
          "internalType": "bool",
          "name": "",
          "type": "bool"
        }
      ],
      "stateMutability": "view",
      "type": "function"
    },
    {
      "inputs": [
        {
          "internalType": "address",
          "name": "newOwner",
          "type": "address"
        }
      ],
      "name": "transferOwnership",
      "outputs": [],
      "stateMutability": "nonpayable",
      "type": "function"
    },
    {
      "inputs": [
        {
          "internalType": "address",
          "name": "rng_contract",
          "type": "address"
        }
      ],
      "name": "changeRNG",
      "outputs": [],
      "stateMutability": "nonpayable",
      "type": "function"
    },
    {
      "inputs": [
        {
          "internalType": "address",
          "name": "tag_storage",
          "type": "address"
        }
      ],
      "name": "changeTAG",
      "outputs": [],
      "stateMutability": "nonpayable",
      "type": "function"
    },
    {
      "inputs": [
        {
          "internalType": "address",
          "name": "nft_container",
          "type": "address"
        }
      ],
      "name": "changeNFT",
      "outputs": [],
      "stateMutability": "nonpayable",
      "type": "function"
    },
    {
      "inputs": [
        {
          "internalType": "address",
          "name": "stats_lib",
          "type": "address"
        }
      ],
      "name": "changeStatsLib",
      "outputs": [],
      "stateMutability": "nonpayable",
      "type": "function"
    },
    {
      "inputs": [
        {
          "internalType": "uint8",
          "name": "_group_id",
          "type": "uint8"
        }
      ],
      "name": "setTagGroupId",
      "outputs": [],
      "stateMutability": "nonpayable",
      "type": "function"
    },
    {
      "inputs": [
        {
          "internalType": "address",
          "name": "entity",
          "type": "address"
        }
      ],
      "name": "addMinter",
      "outputs": [],
      "stateMutability": "nonpayable",
      "type": "function"
    },
    {
      "inputs": [
        {
          "internalType": "address",
          "name": "entity",
          "type": "address"
        }
      ],
      "name": "removeMinter",
      "outputs": [],
      "stateMutability": "nonpayable",
      "type": "function"
    },
    {
      "inputs": [
        {
          "internalType": "bytes32[]",
          "name": "commitment",
          "type": "bytes32[]"
        }
      ],
      "name": "initPackage",
      "outputs": [],
      "stateMutability": "nonpayable",
      "type": "function"
    },
    {
      "inputs": [
        {
          "internalType": "address",
          "name": "recipient",
          "type": "address"
        },
        {
          "internalType": "bytes32[]",
          "name": "commitment",
          "type": "bytes32[]"
        },
        {
          "internalType": "uint256[]",
          "name": "user_entropy",
          "type": "uint256[]"
        }
      ],
      "name": "mintPackage",
      "outputs": [],
      "stateMutability": "nonpayable",
      "type": "function"
    }
  ],
  "bytecode": "0x60806040523480156200001157600080fd5b50604051620029d0380380620029d0833981016040819052620000349162000336565b6200003f3362000149565b600380546001600160a01b038681166001600160a01b0319928316179092556004805486841690831617905560058054858416908316179055600680549284169290911682179055604080517f37a3c4a2a635dedf6a4912ec5757511a1f2fa87cb349543d4751fc18c65e427360208201526000929163cf0f694491016040516020818303038152906040526040518263ffffffff1660e01b8152600401620000e99190620003c6565b600060405180830381865afa15801562000107573d6000803e3d6000fd5b505050506040513d6000823e601f3d908101601f1916820160405262000131919081019062000490565b90506200013e8162000199565b5050505050620006b0565b600080546001600160a01b038381166001600160a01b0319831681178455604051919092169283917f8be0079c531659141344cd1fd0a4f28419497f9722a3daafe3b4186f6b6457e09190a35050565b60005b81518110156200026c57818181518110620001bb57620001bb6200061d565b602002602001015160078281548110620001d957620001d96200061d565b906000526020600020906002020160008201518160000190805190602001906200020592919062000273565b50602082015160018083018054909160ff199091169083600381111562000230576200023062000633565b021790555060409190910151600190910180549115156101000261ff001990921691909117905580620002638162000649565b9150506200019c565b5051600855565b828054620002819062000673565b90600052602060002090601f016020900481019282620002a55760008555620002f0565b82601f10620002c057805160ff1916838001178555620002f0565b82800160010185558215620002f0579182015b82811115620002f0578251825591602001919060010190620002d3565b50620002fe92915062000302565b5090565b5b80821115620002fe576000815560010162000303565b80516001600160a01b03811681146200033157600080fd5b919050565b600080600080608085870312156200034d57600080fd5b620003588562000319565b9350620003686020860162000319565b9250620003786040860162000319565b9150620003886060860162000319565b905092959194509250565b60005b83811015620003b057818101518382015260200162000396565b83811115620003c0576000848401525b50505050565b6020815260008251806020840152620003e781604085016020870162000393565b601f01601f19169190910160400192915050565b634e487b7160e01b600052604160045260246000fd5b604051606081016001600160401b0381118282101715620004365762000436620003fb565b60405290565b604051601f8201601f191681016001600160401b0381118282101715620004675762000467620003fb565b604052919050565b8051600481106200033157600080fd5b805180151581146200033157600080fd5b60006020808385031215620004a457600080fd5b82516001600160401b0380821115620004bc57600080fd5b818501915085601f830112620004d157600080fd5b815181811115620004e657620004e6620003fb565b8060051b620004f78582016200043c565b91825283810185019185810190898411156200051257600080fd5b86860192505b838310156200061057825185811115620005325760008081fd5b86016060601f19828d0381018213156200054c5760008081fd5b6200055662000411565b8a84015189811115620005695760008081fd5b8401603f81018f136200057c5760008081fd5b8b8101518a811115620005935762000593620003fb565b620005a58d85601f840116016200043c565b93508084528f8d8e83850101011115620005bf5760008081fd5b620005d1818e86016040850162000393565b5050908152604090620005e68483016200046f565b8b820152620005f78385016200047f565b9181019190915284525050918601919086019062000518565b9998505050505050505050565b634e487b7160e01b600052603260045260246000fd5b634e487b7160e01b600052602160045260246000fd5b60006000198214156200066c57634e487b7160e01b600052601160045260246000fd5b5060010190565b600181811c908216806200068857607f821691505b60208210811415620006aa57634e487b7160e01b600052602260045260246000fd5b50919050565b61231080620006c06000396000f3fe608060405234801561001057600080fd5b50600436106101cf5760003560e01c806391d1485411610104578063bd3cb47b116100a2578063d539139311610071578063d5391393146103fd578063d547741f14610424578063f2fde38b14610437578063fc4f93671461044a57600080fd5b8063bd3cb47b146103b1578063c17f0cb1146103c4578063c562a684146103d7578063ca15c873146103ea57600080fd5b8063a83993b7116100de578063a83993b714610360578063a907dded14610373578063aa5a513514610386578063ad217ae51461038f57600080fd5b806391d1485414610332578063983b2d5614610345578063a217fddf1461035857600080fd5b80633b2101f411610171578063715018a61161014b578063715018a6146102e057806382bad2ca146102e85780638da5cb5b1461030e5780639010d07c1461031f57600080fd5b80633b2101f4146102a75780634979cbfa146102ba57806350b978a8146102cd57600080fd5b80632f2ff15d116101ad5780632f2ff15d146102435780633092afd51461025657806336568abe1461026957806339b7de651461027c57600080fd5b806301ffc9a7146101d45780632418e9e8146101fc578063248a9ca314610211575b600080fd5b6101e76101e2366004611a8f565b61045d565b60405190151581526020015b60405180910390f35b61020f61020a366004611ab9565b610488565b005b61023561021f366004611adc565b6000908152600160208190526040909120015490565b6040519081526020016101f3565b61020f610251366004611b11565b610510565b61020f610264366004611b3d565b610537565b61020f610277366004611b11565b61058e565b60065461028f906001600160a01b031681565b6040516001600160a01b0390911681526020016101f3565b61020f6102b5366004611ba4565b6105b0565b61020f6102c8366004611b3d565b610dcd565b60055461028f906001600160a01b031681565b61020f610ef3565b6006546102fc90600160a01b900460ff1681565b60405160ff90911681526020016101f3565b6000546001600160a01b031661028f565b61028f61032d366004611c25565b610f29565b6101e7610340366004611b11565b610f48565b61020f610353366004611b3d565b610f73565b610235600081565b60045461028f906001600160a01b031681565b61020f610381366004611b3d565b610fc7565b61023560085481565b6103a261039d366004611adc565b61103f565b6040516101f393929190611cb9565b61020f6103bf366004611b3d565b611107565b60035461028f906001600160a01b031681565b61020f6103e5366004611b3d565b61117f565b6102356103f8366004611adc565b6111f7565b6102357f9f2df0fed2c77648de5860a4cc508cd0818c85b8b8a1ab4ceeef8d981c8956a681565b61020f610432366004611b11565b61120e565b61020f610445366004611b3d565b611218565b61020f610458366004611d02565b6112b0565b60006001600160e01b03198216635a05180f60e01b1480610482575061048282611348565b92915050565b6000546001600160a01b031633146104bb5760405162461bcd60e51b81526004016104b290611d44565b60405180910390fd5b6006805460ff60a01b1916600160a01b60ff8416908102919091179091556040519081527f41782dd890df0a3491b1bc75084dd76333411510ccf98930ead07069649bf2a9906020015b60405180910390a150565b61051a828261137d565b600082815260026020526040902061053290826113a4565b505050565b6000546001600160a01b031633146105615760405162461bcd60e51b81526004016104b290611d44565b61058b7f9f2df0fed2c77648de5860a4cc508cd0818c85b8b8a1ab4ceeef8d981c8956a68261120e565b50565b61059882826113b9565b60008281526002602052604090206105329082611437565b60005b83811015610dc5576003546001600160a01b031663d3b3f73a8686848181106105de576105de611d79565b905060200201356040518263ffffffff1660e01b815260040161060391815260200190565b600060405180830381600087803b15801561061d57600080fd5b505af1158015610631573d6000803e3d6000fd5b5050600354600092506001600160a01b0316905063bf820b2187878581811061065c5761065c611d79565b9050602002013586868681811061067557610675611d79565b905060200201356040518363ffffffff1660e01b81526004016106a2929190918252602082015260400190565b602060405180830381865afa1580156106bf573d6000803e3d6000fd5b505050506040513d601f19601f820116820180604052508101906106e39190611d8f565b600554604080516000805160206122bb83398151915260208201529293506001600160a01b039091169163731133e9918a918591600191016040516020818303038152906040526040518563ffffffff1660e01b81526004016107499493929190611da8565b600060405180830381600087803b15801561076357600080fd5b505af1158015610777573d6000803e3d6000fd5b5050505060005b600754811015610db0576007818154811061079b5761079b611d79565b906000526020600020906002020160010160019054906101000a900460ff166107c357610d9e565b600073__FireZardUtil__________________________63dfbd4a0584600785815481106107f3576107f3611d79565b90600052602060002090600202016000016040518363ffffffff1660e01b8152600401610821929190611ebb565b602060405180830381865af415801561083e573d6000803e3d6000fd5b505050506040513d601f19601f820116820180604052508101906108629190611d8f565b905060006007838154811061087957610879611d79565b6000918252602082206001600290920201015460ff1691508160038111156108a3576108a3611ca3565b14156109f057600654604080516000805160206122bb83398151915260208201526000926001600160a01b03169163c8e5042e910160405160208183030381529060405287600788815481106108fb576108fb611d79565b90600052602060002090600202016000016040518463ffffffff1660e01b815260040161092a93929190611edc565b602060405180830381865afa158015610947573d6000803e3d6000fd5b505050506040513d601f19601f8201168201806040525081019061096b9190611d8f565b60048054600654604051636cc09e7160e01b8152600160a01b90910460ff169281019290925260248201869052604482018390529192506001600160a01b0390911690636cc09e71906064015b600060405180830381600087803b1580156109d257600080fd5b505af11580156109e6573d6000803e3d6000fd5b5050505050610d9b565b6001816003811115610a0457610a04611ca3565b1415610b1157600654604080516000805160206122bb83398151915260208201526000926001600160a01b0316916331ca2b0891016040516020818303038152906040528760078881548110610a5c57610a5c611d79565b90600052602060002090600202016000016040518463ffffffff1660e01b8152600401610a8b93929190611edc565b600060405180830381865afa158015610aa8573d6000803e3d6000fd5b505050506040513d6000823e601f3d908101601f19168201604052610ad09190810190611fdb565b6004805460065460405162c9fed560e21b81529394506001600160a01b0390911692630327fb54926109b892600160a01b900460ff16918891879101612010565b6002816003811115610b2557610b25611ca3565b1415610c3e57600654604080516000805160206122bb83398151915260208201526000926001600160a01b03169163750bba5f91016040516020818303038152906040528760078881548110610b7d57610b7d611d79565b90600052602060002090600202016000016040518463ffffffff1660e01b8152600401610bac93929190611edc565b602060405180830381865afa158015610bc9573d6000803e3d6000fd5b505050506040513d601f19601f82011682018060405250810190610bed9190611d8f565b60048054600654604051636609288f60e01b8152600160a01b90910460ff169281019290925260248201869052604482018390529192506001600160a01b0390911690636609288f906064016109b8565b6003816003811115610c5257610c52611ca3565b1415610d9b57600654604080516000805160206122bb83398151915260208201526000926001600160a01b03169163c6ee7fe691016040516020818303038152906040528760078881548110610caa57610caa611d79565b90600052602060002090600202016000016040518463ffffffff1660e01b8152600401610cd993929190611edc565b602060405180830381865afa158015610cf6573d6000803e3d6000fd5b505050506040513d601f19601f82011682018060405250810190610d1a919061204b565b6004805460065460405163d713085b60e01b8152600160a01b90910460ff16928101929092526024820186905282151560448301529192506001600160a01b039091169063d713085b90606401600060405180830381600087803b158015610d8157600080fd5b505af1158015610d95573d6000803e3d6000fd5b50505050505b50505b80610da88161207c565b91505061077e565b50508080610dbd9061207c565b9150506105b3565b505050505050565b6000546001600160a01b03163314610df75760405162461bcd60e51b81526004016104b290611d44565b600680546001600160a01b0319166001600160a01b038316908117909155604080516000805160206122bb83398151915260208201526000929163cf0f694491016040516020818303038152906040526040518263ffffffff1660e01b8152600401610e639190612097565b600060405180830381865afa158015610e80573d6000803e3d6000fd5b505050506040513d6000823e601f3d908101601f19168201604052610ea891908101906120aa565b9050610eb38161144c565b6040516001600160a01b03831681527f2dbdedbe2aae92457143eec557d8f8658aa3a157ddccb5e6d63afb89d6d3b55d9060200160405180910390a15050565b6000546001600160a01b03163314610f1d5760405162461bcd60e51b81526004016104b290611d44565b610f276000611517565b565b6000828152600260205260408120610f419083611567565b9392505050565b60009182526001602090815260408084206001600160a01b0393909316845291905290205460ff1690565b6000546001600160a01b03163314610f9d5760405162461bcd60e51b81526004016104b290611d44565b61058b7f9f2df0fed2c77648de5860a4cc508cd0818c85b8b8a1ab4ceeef8d981c8956a682611573565b6000546001600160a01b03163314610ff15760405162461bcd60e51b81526004016104b290611d44565b600580546001600160a01b0319166001600160a01b0383169081179091556040519081527f8f5922d659aa68e7c941d0c880911ccab35f50a35f6d2248b25bf5aff221244090602001610505565b6007818154811061104f57600080fd5b906000526020600020906002020160009150905080600001805461107290611ddf565b80601f016020809104026020016040519081016040528092919081815260200182805461109e90611ddf565b80156110eb5780601f106110c0576101008083540402835291602001916110eb565b820191906000526020600020905b8154815290600101906020018083116110ce57829003601f168201915b5050506001909301549192505060ff8082169161010090041683565b6000546001600160a01b031633146111315760405162461bcd60e51b81526004016104b290611d44565b600480546001600160a01b0319166001600160a01b0383169081179091556040519081527fd2011acb66f6bac4f0757bc7f6cd1cbb134d7ae3db20884aa50ff944a953fa4690602001610505565b6000546001600160a01b031633146111a95760405162461bcd60e51b81526004016104b290611d44565b600380546001600160a01b0319166001600160a01b0383169081179091556040519081527f253d14cc0a931b0cdf83db47061fbb1d72fd193eb61af34fd19388e36638c9b590602001610505565b60008181526002602052604081206104829061157d565b6105988282611587565b6000546001600160a01b031633146112425760405162461bcd60e51b81526004016104b290611d44565b6001600160a01b0381166112a75760405162461bcd60e51b815260206004820152602660248201527f4f776e61626c653a206e6577206f776e657220697320746865207a65726f206160448201526564647265737360d01b60648201526084016104b2565b61058b81611517565b60005b81811015610532576003546001600160a01b0316633b6631958484848181106112de576112de611d79565b905060200201356040518263ffffffff1660e01b815260040161130391815260200190565b600060405180830381600087803b15801561131d57600080fd5b505af1158015611331573d6000803e3d6000fd5b5050505080806113409061207c565b9150506112b3565b60006001600160e01b03198216637965db0b60e01b148061048257506301ffc9a760e01b6001600160e01b0319831614610482565b6000828152600160208190526040909120015461139a81336115ae565b6105328383611612565b6000610f41836001600160a01b03841661167d565b6001600160a01b03811633146114295760405162461bcd60e51b815260206004820152602f60248201527f416363657373436f6e74726f6c3a2063616e206f6e6c792072656e6f756e636560448201526e103937b632b9903337b91039b2b63360891b60648201526084016104b2565b61143382826116cc565b5050565b6000610f41836001600160a01b038416611733565b60005b81518110156115105781818151811061146a5761146a611d79565b60200260200101516007828154811061148557611485611d79565b906000526020600020906002020160008201518160000190805190602001906114af9291906119f6565b50602082015160018083018054909160ff19909116908360038111156114d7576114d7611ca3565b021790555060409190910151600190910180549115156101000261ff0019909216919091179055806115088161207c565b91505061144f565b5051600855565b600080546001600160a01b038381166001600160a01b0319831681178455604051919092169283917f8be0079c531659141344cd1fd0a4f28419497f9722a3daafe3b4186f6b6457e09190a35050565b6000610f418383611826565b61051a8282611850565b6000610482825490565b600082815260016020819052604090912001546115a481336115ae565b61053283836116cc565b6115b88282610f48565b611433576115d0816001600160a01b0316601461185a565b6115db83602061185a565b6040516020016115ec9291906121ca565b60408051601f198184030181529082905262461bcd60e51b82526104b291600401612097565b61161c8282610f48565b6114335760008281526001602081815260408084206001600160a01b0386168086529252808420805460ff19169093179092559051339285917f2f8788117e7eff1d82e926ec794901d17c78024a50270940304540a733656f0d9190a45050565b60008181526001830160205260408120546116c457508154600181810184556000848152602080822090930184905584548482528286019093526040902091909155610482565b506000610482565b6116d68282610f48565b156114335760008281526001602090815260408083206001600160a01b0385168085529252808320805460ff1916905551339285917ff6391f5c32d9c69d2a47ea670b442974b53935d1edc7fd64eb21e047a839171b9190a45050565b6000818152600183016020526040812054801561181c57600061175760018361223f565b855490915060009061176b9060019061223f565b90508181146117d057600086600001828154811061178b5761178b611d79565b90600052602060002001549050808760000184815481106117ae576117ae611d79565b6000918252602080832090910192909255918252600188019052604090208390555b85548690806117e1576117e1612256565b600190038181906000526020600020016000905590558560010160008681526020019081526020016000206000905560019350505050610482565b6000915050610482565b600082600001828154811061183d5761183d611d79565b9060005260206000200154905092915050565b6114338282611612565b6060600061186983600261226c565b61187490600261228b565b67ffffffffffffffff81111561188c5761188c611f07565b6040519080825280601f01601f1916602001820160405280156118b6576020820181803683370190505b509050600360fc1b816000815181106118d1576118d1611d79565b60200101906001600160f81b031916908160001a905350600f60fb1b8160018151811061190057611900611d79565b60200101906001600160f81b031916908160001a905350600061192484600261226c565b61192f90600161228b565b90505b60018111156119a7576f181899199a1a9b1b9c1cb0b131b232b360811b85600f166010811061196357611963611d79565b1a60f81b82828151811061197957611979611d79565b60200101906001600160f81b031916908160001a90535060049490941c936119a0816122a3565b9050611932565b508315610f415760405162461bcd60e51b815260206004820181905260248201527f537472696e67733a20686578206c656e67746820696e73756666696369656e7460448201526064016104b2565b828054611a0290611ddf565b90600052602060002090601f016020900481019282611a245760008555611a6a565b82601f10611a3d57805160ff1916838001178555611a6a565b82800160010185558215611a6a579182015b82811115611a6a578251825591602001919060010190611a4f565b50611a76929150611a7a565b5090565b5b80821115611a765760008155600101611a7b565b600060208284031215611aa157600080fd5b81356001600160e01b031981168114610f4157600080fd5b600060208284031215611acb57600080fd5b813560ff81168114610f4157600080fd5b600060208284031215611aee57600080fd5b5035919050565b80356001600160a01b0381168114611b0c57600080fd5b919050565b60008060408385031215611b2457600080fd5b82359150611b3460208401611af5565b90509250929050565b600060208284031215611b4f57600080fd5b610f4182611af5565b60008083601f840112611b6a57600080fd5b50813567ffffffffffffffff811115611b8257600080fd5b6020830191508360208260051b8501011115611b9d57600080fd5b9250929050565b600080600080600060608688031215611bbc57600080fd5b611bc586611af5565b9450602086013567ffffffffffffffff80821115611be257600080fd5b611bee89838a01611b58565b90965094506040880135915080821115611c0757600080fd5b50611c1488828901611b58565b969995985093965092949392505050565b60008060408385031215611c3857600080fd5b50508035926020909101359150565b60005b83811015611c62578181015183820152602001611c4a565b83811115611c71576000848401525b50505050565b60008151808452611c8f816020860160208601611c47565b601f01601f19169290920160200192915050565b634e487b7160e01b600052602160045260246000fd5b606081526000611ccc6060830186611c77565b905060048410611cec57634e487b7160e01b600052602160045260246000fd5b8360208301528215156040830152949350505050565b60008060208385031215611d1557600080fd5b823567ffffffffffffffff811115611d2c57600080fd5b611d3885828601611b58565b90969095509350505050565b6020808252818101527f4f776e61626c653a2063616c6c6572206973206e6f7420746865206f776e6572604082015260600190565b634e487b7160e01b600052603260045260246000fd5b600060208284031215611da157600080fd5b5051919050565b60018060a01b0385168152836020820152826040820152608060608201526000611dd56080830184611c77565b9695505050505050565b600181811c90821680611df357607f821691505b60208210811415611e1457634e487b7160e01b600052602260045260246000fd5b50919050565b8054600090600181811c9080831680611e3457607f831692505b6020808410821415611e5657634e487b7160e01b600052602260045260246000fd5b838852818015611e6d5760018114611e8157611eaf565b60ff19861689830152604089019650611eaf565b876000528160002060005b86811015611ea75781548b8201850152908501908301611e8c565b8a0183019750505b50505050505092915050565b828152604060208201526000611ed46040830184611e1a565b949350505050565b606081526000611eef6060830186611c77565b8460208401528281036040840152611dd58185611e1a565b634e487b7160e01b600052604160045260246000fd5b6040516060810167ffffffffffffffff81118282101715611f4057611f40611f07565b60405290565b604051601f8201601f1916810167ffffffffffffffff81118282101715611f6f57611f6f611f07565b604052919050565b600082601f830112611f8857600080fd5b815167ffffffffffffffff811115611fa257611fa2611f07565b611fb5601f8201601f1916602001611f46565b818152846020838601011115611fca57600080fd5b611ed4826020830160208701611c47565b600060208284031215611fed57600080fd5b815167ffffffffffffffff81111561200457600080fd5b611ed484828501611f77565b60ff841681528260208201526060604082015260006120326060830184611c77565b95945050505050565b80518015158114611b0c57600080fd5b60006020828403121561205d57600080fd5b610f418261203b565b634e487b7160e01b600052601160045260246000fd5b600060001982141561209057612090612066565b5060010190565b602081526000610f416020830184611c77565b600060208083850312156120bd57600080fd5b825167ffffffffffffffff808211156120d557600080fd5b818501915085601f8301126120e957600080fd5b8151818111156120fb576120fb611f07565b8060051b61210a858201611f46565b918252838101850191858101908984111561212457600080fd5b86860192505b838310156121bd578251858111156121425760008081fd5b86016060818c03601f190181131561215a5760008081fd5b612162611f1d565b89830151888111156121745760008081fd5b6121828e8c83870101611f77565b825250604080840151600481106121995760008081fd5b828c01526121a884840161203b565b9082015284525050918601919086019061212a565b9998505050505050505050565b7f416363657373436f6e74726f6c3a206163636f756e7420000000000000000000815260008351612202816017850160208801611c47565b7001034b99036b4b9b9b4b733903937b6329607d1b6017918401918201528351612233816028840160208801611c47565b01602801949350505050565b60008282101561225157612251612066565b500390565b634e487b7160e01b600052603160045260246000fd5b600081600019048311821515161561228657612286612066565b500290565b6000821982111561229e5761229e612066565b500190565b6000816122b2576122b2612066565b50600019019056fe37a3c4a2a635dedf6a4912ec5757511a1f2fa87cb349543d4751fc18c65e4273a2646970667358221220d40e9b9dcf6c721b457ad574c45877cb6c9fcf85652f5b2e23bc1beab54b040464736f6c634300080a0033",
  "immutableReferences": {},
  "source": "/**\n * Dragon card minter logic. Creates Unique dragon NFTs with unique IDs and all necessary data tags\n * SPDX-License-Identifier: MIT\n * @title Dragon Cards Minter\n * @author CryptoHog\n * @notice This smart contract implements core dragon cards minting logic.\n * @dev The smart contract performs the following functions\n *  - accepts orders to create a given number of new dragon cards\n *  - talks to RNG to generate unique card IDs\n *  - derives from card ID its static and iniotial dynamic stats\n *  - talks to the NFT1155 to create card's NFT\n *  - talks to the Tag Storage to store the dynamic stats\n**/\n\npragma solidity ^0.8.0;\n\nimport \"@openzeppelin/contracts/access/AccessControlEnumerable.sol\";\nimport \"@openzeppelin/contracts/utils/Context.sol\";\nimport \"@openzeppelin/contracts/access/Ownable.sol\";\nimport \"./FireZardNFT.sol\";\nimport \"./IRNG.sol\";\nimport \"./IStatsDerive.sol\";\nimport {FireZardUtil} from \"./FireZardUtil.sol\";\n\ncontract DragonMinter is Context, Ownable, AccessControlEnumerable {\n    bytes32 public constant MINTER_ROLE = keccak256('MINTER_ROLE');\n\n    address public      RNG_addr;\n    address public\tTAG_addr;\n    address public\tNFT_addr;\n    address public\tstats_lib_addr;\n\n    uint8 public \tgroup_id;\n    FireZardUtil.Stat[] public stats;\n    uint256 public\tstats_length;\n\n    modifier isMinter() {\n\t_;\n    }\n\n    /**\n     * @notice Initializes the Dragon Cards minter.\n     * @dev    Needs RNG smart contract address.\n     * The constructor will link the dragon minter to the given RNG smart contract.\n     * The onwer can relink the dragon minter to a different RNG smart contract later on.\n     *\n     * @param rng_contract The address of the RNG contract implementing IRNG interface.\n    **/\n    constructor(address rng_contract, address tag_storage, address nft_container, address stats_lib) {\n\tRNG_addr = rng_contract;\n\tTAG_addr = tag_storage;\n\tNFT_addr = nft_container;\n\tstats_lib_addr = stats_lib;\n\tFireZardUtil.Stat[] memory _stats = IStatsDerive(stats_lib_addr).stats(FireZardUtil.DRAGON_CARD_TYPE_CODE);\n\tsaveStats(_stats);\n//\t_setupRole(MINTER_ROLE, _msgSender());\n    }\n\n    function saveStats(FireZardUtil.Stat[] memory _stats) internal {\n\tfor(uint256 i=0;i<_stats.length;i++){\n\t    stats[i] = _stats[i];\n\t}\n\tstats_length = _stats.length;\n    }\n\n    function changeRNG(address rng_contract) public virtual onlyOwner {\n\tRNG_addr = rng_contract;\n\temit RNGChange(rng_contract);\n    }\n\n    function changeTAG(address tag_storage) public virtual onlyOwner {\n\tTAG_addr = tag_storage;\n\temit TAGChange(tag_storage);\n    }\n\n    function changeNFT(address nft_container) public virtual onlyOwner {\n\tNFT_addr = nft_container;\n\temit NFTChange(nft_container);\n    }\n\n    function changeStatsLib(address stats_lib) public virtual onlyOwner {\n\tstats_lib_addr = stats_lib;\n\tFireZardUtil.Stat[] memory _stats = IStatsDerive(stats_lib_addr).stats(FireZardUtil.DRAGON_CARD_TYPE_CODE);\n\tsaveStats(_stats);\n\temit StatsLibChange(stats_lib);\n    }\n\n    function setTagGroupId(uint8 _group_id) public virtual onlyOwner {\n\tgroup_id = _group_id;\n\temit TAGGroupID(_group_id);\n    }\n\n    /**\n     * @notice Adds minter's role\n     * \n     * @param entity An address of a contract or external\n    **/\n    function addMinter(address entity) public virtual onlyOwner {\n\t_setupRole(MINTER_ROLE, entity);\n    }\n\n    /**\n     * @notice Removes minter's role\n     * \n     * @param entity An address of a contract or external\n    **/\n    function removeMinter(address entity) public virtual onlyOwner {\n\trevokeRole(MINTER_ROLE, entity);\n    }\n\n    /**\n     * @notice Initializes RNG with an array of entropy's commitments from user's side.\n     * This should be called before revealing the cards.\n     * The size of the array equals the number of cards to create. Cards are not revealed so far.\n     * At this point the cards are hidden. It is only known how many cards will be revealed/created.\n     * The cards can be revealed after certain amount of time specific to the RNG.\n     * @dev    Calls RNG's init procedure for every card. Read more about generating randomness in IRNG.sol\n     *\n     * @param commitment Array of commitments of user's entropy for all new cards to create.\n    **/\n    function initPackage(bytes32[] calldata commitment) external virtual {\n\tfor(uint i=0;i<commitment.length;i++)\n\t    IRNG(RNG_addr).init(commitment[i]);\n    }\n\n    /**\n     * @notice Reveales new dragon cards unique IDs basing on the entropy's commitments from user's side.\n     * Mints respective NFT ERC1155 tokens, derives the cards' stats and stores them into the Tag Storage\n     * @dev See IRNG.sol for details on how random unique IDs are generated from the user's entropy commitments\n     *\n     * @param commitment Array of commitments of user's entropy for all new cards to create.\n    **/\n    function mintPackage(address recipient, bytes32[] calldata commitment, uint256[] calldata user_entropy) external virtual isMinter {\n\tfor(uint i=0;i<commitment.length;i++){\n\t    IRNG(RNG_addr).open(commitment[i]);\n\t    uint256 nft_id=IRNG(RNG_addr).getRandomValue(commitment[i], user_entropy[i]);\n\t    FireZardNFT(NFT_addr).mint(\n\t\trecipient,\n\t\tnft_id,\n\t\t1,\n\t\tFireZardUtil.DRAGON_CARD_TYPE_CODE\n\t    );\n\t    for(uint j=0;j<stats.length;j++){\n\t\tif(!stats[j].is_mutable)continue;\n\t\tbytes32 tag_key = FireZardUtil.getTagKey(nft_id,stats[j].name);\n\t\tFireZardUtil.StatType statType = stats[j].statType;\n\t\tif(statType == FireZardUtil.StatType.Integer){\n\t\t    uint256 tag_value = IStatsDerive(stats_lib_addr).getStatInt(FireZardUtil.DRAGON_CARD_TYPE_CODE, nft_id, stats[j].name);\n\t\t    FireZardTagStorage(TAG_addr).setTag(group_id, tag_key, tag_value);\n\t\t}else if(statType == FireZardUtil.StatType.String){\n\t\t    string memory tag_value = IStatsDerive(stats_lib_addr).getStatString(FireZardUtil.DRAGON_CARD_TYPE_CODE, nft_id, stats[j].name);\n\t\t    FireZardTagStorage(TAG_addr).setTag(group_id, tag_key, tag_value);\n\t\t}else if(statType == FireZardUtil.StatType.ByteArray){\n\t\t    bytes32 tag_value = IStatsDerive(stats_lib_addr).getStatByte32(FireZardUtil.DRAGON_CARD_TYPE_CODE, nft_id, stats[j].name);\n\t\t    FireZardTagStorage(TAG_addr).setTag(group_id, tag_key, tag_value);\n\t\t}else if(statType == FireZardUtil.StatType.Boolean){\n\t\t    bool tag_value = IStatsDerive(stats_lib_addr).getStatBool(FireZardUtil.DRAGON_CARD_TYPE_CODE, nft_id, stats[j].name);\n\t\t    FireZardTagStorage(TAG_addr).setTag(group_id, tag_key, tag_value);\n\t\t}\n\t    }\n\t}\n    }\n\n    event RNGChange(address rng_contract);\n    event StatsLibChange(address stats_lib);\n    event TAGGroupID(uint8 group_id);\n    event TAGChange(address tag_storage);\n    event NFTChange(address nft_container);\n}",
  "sourcePath": "/home/vrogojin/Projects/firezard_nft/contracts/DragonMinter.sol",
  "compiler": {
    "name": "solc",
    "version": "0.8.10+commit.fc410830.Emscripten.clang"
  },
  "schemaVersion": "3.4.3",
  "updatedAt": "2021-11-15T23:22:15.048Z",
  "devdoc": {
    "kind": "dev",
    "methods": {
      "addMinter(address)": {
        "params": {
          "entity": "An address of a contract or external*"
        }
      },
      "constructor": {
        "details": "Needs RNG smart contract address. The constructor will link the dragon minter to the given RNG smart contract. The onwer can relink the dragon minter to a different RNG smart contract later on.",
        "params": {
          "rng_contract": "The address of the RNG contract implementing IRNG interface.*"
        }
      },
      "getRoleAdmin(bytes32)": {
        "details": "Returns the admin role that controls `role`. See {grantRole} and {revokeRole}. To change a role's admin, use {_setRoleAdmin}."
      },
      "getRoleMember(bytes32,uint256)": {
        "details": "Returns one of the accounts that have `role`. `index` must be a value between 0 and {getRoleMemberCount}, non-inclusive. Role bearers are not sorted in any particular way, and their ordering may change at any point. WARNING: When using {getRoleMember} and {getRoleMemberCount}, make sure you perform all queries on the same block. See the following https://forum.openzeppelin.com/t/iterating-over-elements-on-enumerableset-in-openzeppelin-contracts/2296[forum post] for more information."
      },
      "getRoleMemberCount(bytes32)": {
        "details": "Returns the number of accounts that have `role`. Can be used together with {getRoleMember} to enumerate all bearers of a role."
      },
      "grantRole(bytes32,address)": {
        "details": "Overload {grantRole} to track enumerable memberships"
      },
      "hasRole(bytes32,address)": {
        "details": "Returns `true` if `account` has been granted `role`."
      },
      "initPackage(bytes32[])": {
        "details": "Calls RNG's init procedure for every card. Read more about generating randomness in IRNG.sol",
        "params": {
          "commitment": "Array of commitments of user's entropy for all new cards to create.*"
        }
      },
      "mintPackage(address,bytes32[],uint256[])": {
        "details": "See IRNG.sol for details on how random unique IDs are generated from the user's entropy commitments",
        "params": {
          "commitment": "Array of commitments of user's entropy for all new cards to create.*"
        }
      },
      "owner()": {
        "details": "Returns the address of the current owner."
      },
      "removeMinter(address)": {
        "params": {
          "entity": "An address of a contract or external*"
        }
      },
      "renounceOwnership()": {
        "details": "Leaves the contract without owner. It will not be possible to call `onlyOwner` functions anymore. Can only be called by the current owner. NOTE: Renouncing ownership will leave the contract without an owner, thereby removing any functionality that is only available to the owner."
      },
      "renounceRole(bytes32,address)": {
        "details": "Overload {renounceRole} to track enumerable memberships"
      },
      "revokeRole(bytes32,address)": {
        "details": "Overload {revokeRole} to track enumerable memberships"
      },
      "supportsInterface(bytes4)": {
        "details": "See {IERC165-supportsInterface}."
      },
      "transferOwnership(address)": {
        "details": "Transfers ownership of the contract to a new account (`newOwner`). Can only be called by the current owner."
      }
    },
    "version": 1
  },
  "userdoc": {
    "kind": "user",
    "methods": {
      "addMinter(address)": {
        "notice": "Adds minter's role "
      },
      "constructor": {
        "notice": "Initializes the Dragon Cards minter."
      },
      "initPackage(bytes32[])": {
        "notice": "Initializes RNG with an array of entropy's commitments from user's side. This should be called before revealing the cards. The size of the array equals the number of cards to create. Cards are not revealed so far. At this point the cards are hidden. It is only known how many cards will be revealed/created. The cards can be revealed after certain amount of time specific to the RNG."
      },
      "mintPackage(address,bytes32[],uint256[])": {
        "notice": "Reveales new dragon cards unique IDs basing on the entropy's commitments from user's side. Mints respective NFT ERC1155 tokens, derives the cards' stats and stores them into the Tag Storage"
      },
      "removeMinter(address)": {
        "notice": "Removes minter's role "
      }
    },
    "version": 1
  }
}