{
  "contractName": "DragonStats",
  "abi": [
    {
      "inputs": [
        {
          "internalType": "address",
          "name": "_statsDistrib",
          "type": "address"
        }
      ],
      "stateMutability": "nonpayable",
      "type": "constructor"
    },
    {
      "anonymous": false,
      "inputs": [
        {
          "indexed": false,
          "internalType": "address",
          "name": "_statsDistrib",
          "type": "address"
        }
      ],
      "name": "StatsDistribLink",
      "type": "event"
    },
    {
      "inputs": [],
      "name": "HEALTH_STR",
      "outputs": [
        {
          "internalType": "string",
          "name": "",
          "type": "string"
        }
      ],
      "stateMutability": "view",
      "type": "function"
    },
    {
      "inputs": [],
      "name": "H_HEALTH_STR",
      "outputs": [
        {
          "internalType": "bytes32",
          "name": "",
          "type": "bytes32"
        }
      ],
      "stateMutability": "view",
      "type": "function"
    },
    {
      "inputs": [],
      "name": "H_RARITY_STR",
      "outputs": [
        {
          "internalType": "bytes32",
          "name": "",
          "type": "bytes32"
        }
      ],
      "stateMutability": "view",
      "type": "function"
    },
    {
      "inputs": [],
      "name": "H_TYPE_STR",
      "outputs": [
        {
          "internalType": "bytes32",
          "name": "",
          "type": "bytes32"
        }
      ],
      "stateMutability": "view",
      "type": "function"
    },
    {
      "inputs": [],
      "name": "RARITY_STR",
      "outputs": [
        {
          "internalType": "string",
          "name": "",
          "type": "string"
        }
      ],
      "stateMutability": "view",
      "type": "function"
    },
    {
      "inputs": [],
      "name": "TYPE_STR",
      "outputs": [
        {
          "internalType": "string",
          "name": "",
          "type": "string"
        }
      ],
      "stateMutability": "view",
      "type": "function"
    },
    {
      "inputs": [],
      "name": "statsDistrib",
      "outputs": [
        {
          "internalType": "address",
          "name": "",
          "type": "address"
        }
      ],
      "stateMutability": "view",
      "type": "function"
    },
    {
      "inputs": [
        {
          "internalType": "address",
          "name": "_statsDistrib",
          "type": "address"
        }
      ],
      "name": "linkStatsDistrib",
      "outputs": [],
      "stateMutability": "nonpayable",
      "type": "function"
    },
    {
      "inputs": [
        {
          "internalType": "bytes32",
          "name": "nft_type",
          "type": "bytes32"
        },
        {
          "internalType": "uint256",
          "name": "id",
          "type": "uint256"
        },
        {
          "internalType": "string",
          "name": "name",
          "type": "string"
        }
      ],
      "name": "getStatInt",
      "outputs": [
        {
          "internalType": "uint256",
          "name": "",
          "type": "uint256"
        }
      ],
      "stateMutability": "view",
      "type": "function"
    },
    {
      "inputs": [
        {
          "internalType": "bytes32",
          "name": "nft_type",
          "type": "bytes32"
        },
        {
          "internalType": "uint256",
          "name": "id",
          "type": "uint256"
        },
        {
          "internalType": "string",
          "name": "name",
          "type": "string"
        }
      ],
      "name": "getStatString",
      "outputs": [
        {
          "internalType": "string",
          "name": "",
          "type": "string"
        }
      ],
      "stateMutability": "view",
      "type": "function"
    },
    {
      "inputs": [
        {
          "internalType": "bytes32",
          "name": "nft_type",
          "type": "bytes32"
        },
        {
          "internalType": "uint256",
          "name": "id",
          "type": "uint256"
        },
        {
          "internalType": "string",
          "name": "name",
          "type": "string"
        }
      ],
      "name": "getStatByte32",
      "outputs": [
        {
          "internalType": "bytes32",
          "name": "",
          "type": "bytes32"
        }
      ],
      "stateMutability": "view",
      "type": "function"
    },
    {
      "inputs": [
        {
          "internalType": "bytes32",
          "name": "nft_type",
          "type": "bytes32"
        },
        {
          "internalType": "uint256",
          "name": "id",
          "type": "uint256"
        },
        {
          "internalType": "string",
          "name": "name",
          "type": "string"
        }
      ],
      "name": "getStatBool",
      "outputs": [
        {
          "internalType": "bool",
          "name": "",
          "type": "bool"
        }
      ],
      "stateMutability": "view",
      "type": "function"
    },
    {
      "inputs": [
        {
          "internalType": "bytes32",
          "name": "nft_type",
          "type": "bytes32"
        }
      ],
      "name": "stats",
      "outputs": [
        {
          "components": [
            {
              "internalType": "string",
              "name": "name",
              "type": "string"
            },
            {
              "internalType": "enum Util.StatType",
              "name": "statType",
              "type": "uint8"
            },
            {
              "internalType": "bool",
              "name": "is_mutable",
              "type": "bool"
            }
          ],
          "internalType": "struct Util.Stat[]",
          "name": "",
          "type": "tuple[]"
        }
      ],
      "stateMutability": "view",
      "type": "function"
    }
  ],
  "bytecode": "0x608060405234801561001057600080fd5b50604051610e8b380380610e8b83398101604081905261002f91610092565b6100388161003e565b506100c2565b600080546001600160a01b0319166001600160a01b0383169081179091556040519081527fd6ebeed44b8b1f3dea0f0065729e759c6e0a54fff5e3457d639ab0cb4b1643079060200160405180910390a150565b6000602082840312156100a457600080fd5b81516001600160a01b03811681146100bb57600080fd5b9392505050565b610dba806100d16000396000f3fe608060405234801561001057600080fd5b50600436106100cf5760003560e01c806391a7f8b01161008c578063ae97568c11610066578063ae97568c146101ce578063d9fb28fc146101ee578063f170b6c014610211578063fa97af901461021957600080fd5b806391a7f8b01461018c57806392040706146101be578063a1b05aa2146101c657600080fd5b80632d3e5030146100d457806330044d4214610104578063450a52d0146101255780635f560e83146101485780637ec4483b1461016957806382913d821461017e575b600080fd5b6000546100e7906001600160a01b031681565b6040516001600160a01b0390911681526020015b60405180910390f35b61011761011236600461097e565b61023e565b6040519081526020016100fb565b61013861013336600461097e565b610413565b60405190151581526020016100fb565b61015b61015636600461097e565b61042d565b6040516100fb9291906109fe565b61017c610177366004610a2d565b610448565b005b61011761013336600461097e565b6101b16040518060400160405280600681526020016572617269747960d01b81525081565b6040516100fb9190610ab2565b61011761049c565b6101176104e2565b6101e16101dc366004610ac5565b610511565b6040516100fb9190610af4565b6101b1604051806040016040528060048152602001637479706560e01b81525081565b610117610666565b6101b1604051806040016040528060068152602001650d0cac2d8e8d60d31b81525081565b60007f37a3c4a2a635dedf6a4912ec5757511a1f2fa87cb349543d4751fc18c65e427385146102b45760405162461bcd60e51b815260206004820152601f60248201527f4e4654206d757374206265206f6620447261676f6e204361726420747970650060448201526064015b60405180910390fd5b600083836040516020016102c9929190610b96565b60408051601f1981840301815282825280516020918201208383018352600684526572617269747960d01b848301529151919350610308929101610ba6565b604051602081830303815290604052805190602001208114156103475761032e85610695565b600481111561033f5761033f610ade565b91505061040b565b604051806040016040528060048152602001637479706560e01b8152506040516020016103749190610ba6565b6040516020818303038152906040528051906020012081141561039a5761032e85610858565b604051806040016040528060068152602001650d0cac2d8e8d60d31b8152506040516020016103c99190610ba6565b604051602081830303815290604052805190602001208114156103f35761033f6001600019610bc2565b60405162461bcd60e51b81526004016102ab90610be7565b949350505050565b600060405162461bcd60e51b81526004016102ab90610be7565b36600060405162461bcd60e51b81526004016102ab90610be7565b600080546001600160a01b0319166001600160a01b0383169081179091556040519081527fd6ebeed44b8b1f3dea0f0065729e759c6e0a54fff5e3457d639ab0cb4b1643079060200160405180910390a150565b604051806040016040528060048152602001637479706560e01b8152506040516020016104c99190610ba6565b6040516020818303038152906040528051906020012081565b604051806040016040528060068152602001650d0cac2d8e8d60d31b8152506040516020016104c99190610ba6565b6040805160038082526080820190925260609160009190816020015b604080516060808201835281526000602080830182905292820152825260001990920191018161052d579050506040805160a081019091526006606082019081526572617269747960d01b60808301528152909150602081016000815260200160011515815250816000815181106105a7576105a7610c27565b6020908102919091018101919091526040805160a08101909152600660608201908152650d0cac2d8e8d60d31b608083015281529081016000815260200160001515815250816001815181106105ff576105ff610c27565b6020908102919091018101919091526040805160a08101909152600460608201908152637479706560e01b6080830152815290810160008152602001600115158152508160028151811061065557610655610c27565b602090810291909101015292915050565b6040518060400160405280600681526020016572617269747960d01b8152506040516020016104c99190610ba6565b600080826040518060400160405280600681526020016572617269747960d01b8152506040516020016106c9929190610c3d565b60408051601f1981840301815282825280516020909101206000805463153cf21960e31b8552925191945073__Util__________________________________936375233c279386936001600160a01b039091169263a9e790c892600480820193918290030181865afa158015610744573d6000803e3d6000fd5b505050506040513d6000823e601f3d908101601f1916820160405261076c9190810190610c56565b60008054906101000a90046001600160a01b03166001600160a01b0316639f1349ed6040518163ffffffff1660e01b8152600401602060405180830381865afa1580156107bd573d6000803e3d6000fd5b505050506040513d601f19601f820116820180604052508101906107e19190610d14565b6040518463ffffffff1660e01b81526004016107ff93929190610d2d565b602060405180830381865af415801561081c573d6000803e3d6000fd5b505050506040513d601f19601f820116820180604052508101906108409190610d14565b600481111561085157610851610ade565b9392505050565b60008082604051806040016040528060048152602001637479706560e01b81525060405160200161088a929190610c3d565b60408051601f198184030181528282528051602090910120600080546304439f1f60e31b8552925191945073__Util__________________________________936375233c279386936001600160a01b039091169263221cf8f892600480820193918290030181865afa158015610905573d6000803e3d6000fd5b505050506040513d6000823e601f3d908101601f1916820160405261092d9190810190610c56565b60008054906101000a90046001600160a01b03166001600160a01b031663d710216e6040518163ffffffff1660e01b8152600401602060405180830381865afa1580156107bd573d6000803e3d6000fd5b6000806000806060858703121561099457600080fd5b8435935060208501359250604085013567ffffffffffffffff808211156109ba57600080fd5b818701915087601f8301126109ce57600080fd5b8135818111156109dd57600080fd5b8860208285010111156109ef57600080fd5b95989497505060200194505050565b60208152816020820152818360408301376000818301604090810191909152601f909201601f19160101919050565b600060208284031215610a3f57600080fd5b81356001600160a01b038116811461085157600080fd5b60005b83811015610a71578181015183820152602001610a59565b83811115610a80576000848401525b50505050565b60008151808452610a9e816020860160208601610a56565b601f01601f19169290920160200192915050565b6020815260006108516020830184610a86565b600060208284031215610ad757600080fd5b5035919050565b634e487b7160e01b600052602160045260246000fd5b60006020808301818452808551808352604092508286019150828160051b8701018488016000805b84811015610b8757603f198a8503018652825160608151818752610b4282880182610a86565b915050898201516004808210610b6557634e487b7160e01b865260218152602486fd5b50868b0152908801511515948801949094529487019491870191600101610b1c565b50919998505050505050505050565b8183823760009101908152919050565b60008251610bb8818460208701610a56565b9190910192915050565b600082821015610be257634e487b7160e01b600052601160045260246000fd5b500390565b60208082526010908201526f155b9cdd5c1c1bdc9d1959081cdd185d60821b604082015260600190565b634e487b7160e01b600052604160045260246000fd5b634e487b7160e01b600052603260045260246000fd5b82815260406020820152600061040b6040830184610a86565b60006020808385031215610c6957600080fd5b825167ffffffffffffffff80821115610c8157600080fd5b818501915085601f830112610c9557600080fd5b815181811115610ca757610ca7610c11565b8060051b604051601f19603f83011681018181108582111715610ccc57610ccc610c11565b604052918252848201925083810185019188831115610cea57600080fd5b938501935b82851015610d0857845184529385019392850192610cef565b98975050505050505050565b600060208284031215610d2657600080fd5b5051919050565b6000606082018583526020606081850152818651808452608086019150828801935060005b81811015610d6e57845183529383019391830191600101610d52565b505080935050505082604083015294935050505056fea2646970667358221220dc2b4508177aeb94d2bb1e8c580eb51d0ea494fb2b3128753c8dcd9fcfb9863d64736f6c634300080a0033",
  "immutableReferences": {},
  "source": "/**\n * Derives dragon card stats from card ID\n * @title  Deriving dragon card stats from its ID\n * @author CryptoHog\n * @notice Defines an interface for a contract deriving the stats from a randomly generated ID\n */\n\npragma solidity ^0.8.0;\n\nimport \"./Util.sol\";\nimport \"./IStatsDerive.sol\";\nimport \"./StatsDistrib.sol\";\n\ncontract DragonStats is IStatsDerive {\n    string public constant RARITY_STR = 'rarity';\n    string public constant HEALTH_STR = 'health';\n    string public constant TYPE_STR   = 'type';\n    bytes32 public constant H_RARITY_STR = keccak256(abi.encodePacked(RARITY_STR));\n    bytes32 public constant H_HEALTH_STR = keccak256(abi.encodePacked(HEALTH_STR));\n    bytes32 public constant H_TYPE_STR = keccak256(abi.encodePacked(TYPE_STR));\n\n    address public\tstatsDistrib;\n\n    constructor(address _statsDistrib){\n\tlinkStatsDistrib(_statsDistrib);\n    }\n\n    function linkStatsDistrib(address _statsDistrib) public {\n\tstatsDistrib = _statsDistrib;\n\temit StatsDistribLink(statsDistrib);\n    }\n\n    function deriveRarity(uint256 id) internal view returns (Util.CardRarity) {\n\tuint256 rvalue = uint256(keccak256(abi.encode(id,RARITY_STR)));\n\treturn Util.CardRarity(Util.getRandomItem(rvalue, StatsDistrib(statsDistrib).getDragonCardRarities(), StatsDistrib(statsDistrib).dragonCardRarityPopulationSize()));\n    }\n\n    function deriveType(uint256 id) internal view returns (Util.CardType) {\n\tuint256 rvalue = uint256(keccak256(abi.encode(id,TYPE_STR)));\n\treturn Util.CardType(Util.getRandomItem(rvalue, StatsDistrib(statsDistrib).getDragonCardTypes(), StatsDistrib(statsDistrib).dragonCardTypePopulationSize()));\n    }\n\n    /**\n     * @notice Derive an integer stat from the card's ID by the stats' name\n     *\n     * @param id An id generated by an RNG\n     * @param name The stats' name\n     * @return The stats' value\n    **/\n    function getStatInt(bytes32 nft_type, uint256 id, string calldata name) external view returns (uint256){\n\trequire(nft_type == Util.DRAGON_CARD_TYPE_CODE, \"NFT must be of Dragon Card type\");\n\tbytes32 h_name = keccak256(abi.encodePacked(name));\n\tif(h_name == H_RARITY_STR)\n\t    return uint256(deriveRarity(id));\n\tif(h_name == H_TYPE_STR)\n\t    return uint256(deriveType(id));\n\tif(h_name == H_HEALTH_STR)\n\t    return Util.MAX_UINT;\n\trevert(\"Unsupported stat\");\n    }\n\n    /**\n     * @notice Derive a string stat from the card's ID by the stats' name\n     *\n     * @param id An id generated by an RNG\n     * @param name The stats' name\n     * @return The stats' value\n    **/\n    function getStatString(bytes32 nft_type, uint256 id, string calldata name) external view returns (string calldata){\n\trevert(\"Unsupported stat\");\n    }\n\n    /**\n     * @notice Derive a 32 byte array stat from the card's ID by the stats' name\n     *\n     * @param id An id generated by an RNG\n     * @param name The stats' name\n     * @return The stats' value\n    **/\n    function getStatByte32(bytes32 nft_type, uint256 id, string calldata name) external view returns (bytes32){\n\trevert(\"Unsupported stat\");\n    }\n\n    /**\n     * @notice Derive a boolean stat from the card's ID by the stats' name\n     *\n     * @param id An id generated by an RNG\n     * @param name The stats' name\n     * @return The stats' value\n    **/\n    function getStatBool(bytes32 nft_type, uint256 id, string calldata name) external view returns (bool){\n\trevert(\"Unsupported stat\");\n    }\n\n    /**\n     * @notice Defines a set of stats that can be derived\n     *\n     * @return An enumerable set (actually, an array) of stats that can be derived by the interface implementation\n    **/\n    function stats(bytes32 nft_type) external view returns (Util.Stat[] memory) {\n\tUtil.Stat[] memory stats_list = new Util.Stat[](3);\n\tstats_list[0] = Util.Stat(\"rarity\", Util.StatType.Integer, true);\n\tstats_list[1] = Util.Stat(\"health\", Util.StatType.Integer, false);\n\tstats_list[2] = Util.Stat(\"type\", Util.StatType.Integer, true);\n\treturn stats_list;\n    }\n\n    event StatsDistribLink(address _statsDistrib);\n}\n",
  "sourcePath": "/home/vrogojin/Projects/firezard_nft/contracts/DragonStats.sol",
  "compiler": {
    "name": "solc",
    "version": "0.8.10+commit.fc410830.Emscripten.clang"
  },
  "schemaVersion": "3.4.3",
  "updatedAt": "2021-12-05T14:08:39.954Z",
  "devdoc": {
    "kind": "dev",
    "methods": {
      "getStatBool(bytes32,uint256,string)": {
        "params": {
          "id": "An id generated by an RNG",
          "name": "The stats' name"
        },
        "returns": {
          "_0": "The stats' value*"
        }
      },
      "getStatByte32(bytes32,uint256,string)": {
        "params": {
          "id": "An id generated by an RNG",
          "name": "The stats' name"
        },
        "returns": {
          "_0": "The stats' value*"
        }
      },
      "getStatInt(bytes32,uint256,string)": {
        "params": {
          "id": "An id generated by an RNG",
          "name": "The stats' name"
        },
        "returns": {
          "_0": "The stats' value*"
        }
      },
      "getStatString(bytes32,uint256,string)": {
        "params": {
          "id": "An id generated by an RNG",
          "name": "The stats' name"
        },
        "returns": {
          "_0": "The stats' value*"
        }
      },
      "stats(bytes32)": {
        "returns": {
          "_0": "An enumerable set (actually, an array) of stats that can be derived by the interface implementation*"
        }
      }
    },
    "version": 1
  },
  "userdoc": {
    "kind": "user",
    "methods": {
      "getStatBool(bytes32,uint256,string)": {
        "notice": "Derive a boolean stat from the card's ID by the stats' name"
      },
      "getStatByte32(bytes32,uint256,string)": {
        "notice": "Derive a 32 byte array stat from the card's ID by the stats' name"
      },
      "getStatInt(bytes32,uint256,string)": {
        "notice": "Derive an integer stat from the card's ID by the stats' name"
      },
      "getStatString(bytes32,uint256,string)": {
        "notice": "Derive a string stat from the card's ID by the stats' name"
      },
      "stats(bytes32)": {
        "notice": "Defines a set of stats that can be derived"
      }
    },
    "version": 1
  }
}