{
  "contractName": "FireZardUtil",
  "abi": [
    {
      "inputs": [],
      "name": "DRAGON_CARD_TYPE_CODE",
      "outputs": [
        {
          "internalType": "bytes",
          "name": "",
          "type": "bytes"
        }
      ],
      "stateMutability": "view",
      "type": "function"
    },
    {
      "inputs": [
        {
          "internalType": "uint256",
          "name": "nft_id",
          "type": "uint256"
        },
        {
          "internalType": "string",
          "name": "name",
          "type": "string"
        }
      ],
      "name": "getTagKey",
      "outputs": [
        {
          "internalType": "bytes32",
          "name": "",
          "type": "bytes32"
        }
      ],
      "stateMutability": "pure",
      "type": "function"
    },
    {
      "inputs": [
        {
          "internalType": "uint256",
          "name": "rvalue",
          "type": "uint256"
        },
        {
          "internalType": "uint256[]",
          "name": "distribution",
          "type": "uint256[]"
        },
        {
          "internalType": "uint256",
          "name": "size",
          "type": "uint256"
        }
      ],
      "name": "getRandomItem",
      "outputs": [
        {
          "internalType": "uint256",
          "name": "",
          "type": "uint256"
        }
      ],
      "stateMutability": "pure",
      "type": "function"
    }
  ],
  "bytecode": "0x6103f961003a600b82828239805160001a60731461002d57634e487b7160e01b600052600060045260246000fd5b30600052607381538281f3fe730000000000000000000000000000000000000000301460806040526004361061004b5760003560e01c806361cc28d41461005057806375233c27146100a6578063dfbd4a05146100c7575b600080fd5b610090604080517f37a3c4a2a635dedf6a4912ec5757511a1f2fa87cb349543d4751fc18c65e427360208201520160405160208183030381529060405281565b60405161009d919061019c565b60405180910390f35b6100b96100b43660046101f1565b6100da565b60405190815260200161009d565b6100b96100d5366004610276565b610166565b600080826100eb6001600019610308565b6100f5919061031f565b90506000805b858110156101575786868281811061011557610115610341565b90506020020135836101279190610357565b6101319083610376565b91508188101561014557925061015e915050565b8061014f8161038e565b9150506100fb565b5084925050505b949350505050565b600083838360405160200161017d939291906103a9565b6040516020818303038152906040528051906020012090509392505050565b600060208083528351808285015260005b818110156101c9578581018301518582016040015282016101ad565b818111156101db576000604083870101525b50601f01601f1916929092016040019392505050565b6000806000806060858703121561020757600080fd5b84359350602085013567ffffffffffffffff8082111561022657600080fd5b818701915087601f83011261023a57600080fd5b81358181111561024957600080fd5b8860208260051b850101111561025e57600080fd5b95986020929092019750949560400135945092505050565b60008060006040848603121561028b57600080fd5b83359250602084013567ffffffffffffffff808211156102aa57600080fd5b818601915086601f8301126102be57600080fd5b8135818111156102cd57600080fd5b8760208285010111156102df57600080fd5b6020830194508093505050509250925092565b634e487b7160e01b600052601160045260246000fd5b60008282101561031a5761031a6102f2565b500390565b60008261033c57634e487b7160e01b600052601260045260246000fd5b500490565b634e487b7160e01b600052603260045260246000fd5b6000816000190483118215151615610371576103716102f2565b500290565b60008219821115610389576103896102f2565b500190565b60006000198214156103a2576103a26102f2565b5060010190565b83815281836020830137600091016020019081529291505056fea2646970667358221220583f7f67e5ea169e969f695ccf3ef4098744f56bdc90ed85330ed8b2a521559b64736f6c634300080a0033",
  "immutableReferences": {},
  "source": "/**\n * FireZard utilities lib\n */\n\npragma solidity ^0.8.0;\n\nimport \"./FireZardTagStorage.sol\";\n\nlibrary FireZardUtil {\n    bytes public constant DRAGON_CARD_TYPE_CODE = abi.encodePacked(keccak256('DRAGON_CARD'));\n\n    enum CardRarity{ Common, Uncommon, Rare, Super_Rare, Ultra_Rare }\n    enum StatType{ Integer, String, ByteArray, Boolean }\n\n    struct Stat{\n\tstring name;\n\tStatType statType;\n\tbool is_mutable;\n    }\n\n    function getTagKey(uint256 nft_id, string calldata name) public pure returns(bytes32) {\n\treturn keccak256(abi.encodePacked(nft_id, name));\n    }\n\n    function getRandomItem(uint256 rvalue, uint256[] calldata distribution, uint256 size) public pure returns(uint256) {\n\tuint256 ratio = (~uint256(0)-1)/size;\n\tuint256 svalue = 0;\n\tfor(uint256 i=0;i<distribution.length;i++){\n\t    svalue+=ratio*distribution[i];\n\t    if(rvalue < svalue)\n\t\treturn i;\n\t}\n\treturn distribution.length;\n    }\n}\n",
  "sourcePath": "/home/vrogojin/Projects/firezard_nft/contracts/FireZardUtil.sol",
  "compiler": {
    "name": "solc",
    "version": "0.8.10+commit.fc410830.Emscripten.clang"
  },
  "schemaVersion": "3.4.3",
  "updatedAt": "2021-11-16T22:36:46.862Z",
  "devdoc": {
    "kind": "dev",
    "methods": {},
    "version": 1
  },
  "userdoc": {
    "kind": "user",
    "methods": {},
    "version": 1
  }
}