{
  "contractName": "FireZardTagStorage",
  "abi": [
    {
      "inputs": [],
      "stateMutability": "nonpayable",
      "type": "constructor"
    },
    {
      "anonymous": false,
      "inputs": [
        {
          "indexed": true,
          "internalType": "address",
          "name": "previousOwner",
          "type": "address"
        },
        {
          "indexed": true,
          "internalType": "address",
          "name": "newOwner",
          "type": "address"
        }
      ],
      "name": "OwnershipTransferred",
      "type": "event"
    },
    {
      "anonymous": false,
      "inputs": [
        {
          "indexed": true,
          "internalType": "bytes32",
          "name": "role",
          "type": "bytes32"
        },
        {
          "indexed": true,
          "internalType": "bytes32",
          "name": "previousAdminRole",
          "type": "bytes32"
        },
        {
          "indexed": true,
          "internalType": "bytes32",
          "name": "newAdminRole",
          "type": "bytes32"
        }
      ],
      "name": "RoleAdminChanged",
      "type": "event"
    },
    {
      "anonymous": false,
      "inputs": [
        {
          "indexed": true,
          "internalType": "bytes32",
          "name": "role",
          "type": "bytes32"
        },
        {
          "indexed": true,
          "internalType": "address",
          "name": "account",
          "type": "address"
        },
        {
          "indexed": true,
          "internalType": "address",
          "name": "sender",
          "type": "address"
        }
      ],
      "name": "RoleGranted",
      "type": "event"
    },
    {
      "anonymous": false,
      "inputs": [
        {
          "indexed": true,
          "internalType": "bytes32",
          "name": "role",
          "type": "bytes32"
        },
        {
          "indexed": true,
          "internalType": "address",
          "name": "account",
          "type": "address"
        },
        {
          "indexed": true,
          "internalType": "address",
          "name": "sender",
          "type": "address"
        }
      ],
      "name": "RoleRevoked",
      "type": "event"
    },
    {
      "inputs": [],
      "name": "ADDER_ROLE",
      "outputs": [
        {
          "internalType": "bytes32",
          "name": "",
          "type": "bytes32"
        }
      ],
      "stateMutability": "view",
      "type": "function"
    },
    {
      "inputs": [],
      "name": "DEFAULT_ADMIN_ROLE",
      "outputs": [
        {
          "internalType": "bytes32",
          "name": "",
          "type": "bytes32"
        }
      ],
      "stateMutability": "view",
      "type": "function"
    },
    {
      "inputs": [
        {
          "internalType": "bytes32",
          "name": "role",
          "type": "bytes32"
        }
      ],
      "name": "getRoleAdmin",
      "outputs": [
        {
          "internalType": "bytes32",
          "name": "",
          "type": "bytes32"
        }
      ],
      "stateMutability": "view",
      "type": "function"
    },
    {
      "inputs": [
        {
          "internalType": "bytes32",
          "name": "role",
          "type": "bytes32"
        },
        {
          "internalType": "uint256",
          "name": "index",
          "type": "uint256"
        }
      ],
      "name": "getRoleMember",
      "outputs": [
        {
          "internalType": "address",
          "name": "",
          "type": "address"
        }
      ],
      "stateMutability": "view",
      "type": "function"
    },
    {
      "inputs": [
        {
          "internalType": "bytes32",
          "name": "role",
          "type": "bytes32"
        }
      ],
      "name": "getRoleMemberCount",
      "outputs": [
        {
          "internalType": "uint256",
          "name": "",
          "type": "uint256"
        }
      ],
      "stateMutability": "view",
      "type": "function"
    },
    {
      "inputs": [
        {
          "internalType": "bytes32",
          "name": "role",
          "type": "bytes32"
        },
        {
          "internalType": "address",
          "name": "account",
          "type": "address"
        }
      ],
      "name": "grantRole",
      "outputs": [],
      "stateMutability": "nonpayable",
      "type": "function"
    },
    {
      "inputs": [
        {
          "internalType": "bytes32",
          "name": "role",
          "type": "bytes32"
        },
        {
          "internalType": "address",
          "name": "account",
          "type": "address"
        }
      ],
      "name": "hasRole",
      "outputs": [
        {
          "internalType": "bool",
          "name": "",
          "type": "bool"
        }
      ],
      "stateMutability": "view",
      "type": "function"
    },
    {
      "inputs": [],
      "name": "owner",
      "outputs": [
        {
          "internalType": "address",
          "name": "",
          "type": "address"
        }
      ],
      "stateMutability": "view",
      "type": "function"
    },
    {
      "inputs": [],
      "name": "renounceOwnership",
      "outputs": [],
      "stateMutability": "nonpayable",
      "type": "function"
    },
    {
      "inputs": [
        {
          "internalType": "bytes32",
          "name": "role",
          "type": "bytes32"
        },
        {
          "internalType": "address",
          "name": "account",
          "type": "address"
        }
      ],
      "name": "renounceRole",
      "outputs": [],
      "stateMutability": "nonpayable",
      "type": "function"
    },
    {
      "inputs": [
        {
          "internalType": "bytes32",
          "name": "role",
          "type": "bytes32"
        },
        {
          "internalType": "address",
          "name": "account",
          "type": "address"
        }
      ],
      "name": "revokeRole",
      "outputs": [],
      "stateMutability": "nonpayable",
      "type": "function"
    },
    {
      "inputs": [
        {
          "internalType": "bytes4",
          "name": "interfaceId",
          "type": "bytes4"
        }
      ],
      "name": "supportsInterface",
      "outputs": [
        {
          "internalType": "bool",
          "name": "",
          "type": "bool"
        }
      ],
      "stateMutability": "view",
      "type": "function"
    },
    {
      "inputs": [
        {
          "internalType": "address",
          "name": "newOwner",
          "type": "address"
        }
      ],
      "name": "transferOwnership",
      "outputs": [],
      "stateMutability": "nonpayable",
      "type": "function"
    },
    {
      "inputs": [
        {
          "internalType": "address",
          "name": "entity",
          "type": "address"
        },
        {
          "internalType": "uint8",
          "name": "groupID",
          "type": "uint8"
        }
      ],
      "name": "addEditor2Group",
      "outputs": [],
      "stateMutability": "nonpayable",
      "type": "function"
    },
    {
      "inputs": [
        {
          "internalType": "address",
          "name": "entity",
          "type": "address"
        },
        {
          "internalType": "uint8",
          "name": "groupID",
          "type": "uint8"
        }
      ],
      "name": "removeEditorFromGroup",
      "outputs": [],
      "stateMutability": "nonpayable",
      "type": "function"
    },
    {
      "inputs": [
        {
          "internalType": "uint8",
          "name": "groupID",
          "type": "uint8"
        },
        {
          "internalType": "bytes32",
          "name": "key",
          "type": "bytes32"
        },
        {
          "internalType": "string",
          "name": "value",
          "type": "string"
        }
      ],
      "name": "setTag",
      "outputs": [],
      "stateMutability": "nonpayable",
      "type": "function"
    },
    {
      "inputs": [
        {
          "internalType": "uint8",
          "name": "groupID",
          "type": "uint8"
        },
        {
          "internalType": "bytes32",
          "name": "key",
          "type": "bytes32"
        },
        {
          "internalType": "bytes32",
          "name": "value",
          "type": "bytes32"
        }
      ],
      "name": "setTag",
      "outputs": [],
      "stateMutability": "nonpayable",
      "type": "function"
    },
    {
      "inputs": [
        {
          "internalType": "uint8",
          "name": "groupID",
          "type": "uint8"
        },
        {
          "internalType": "bytes32",
          "name": "key",
          "type": "bytes32"
        },
        {
          "internalType": "uint256",
          "name": "value",
          "type": "uint256"
        }
      ],
      "name": "setTag",
      "outputs": [],
      "stateMutability": "nonpayable",
      "type": "function"
    },
    {
      "inputs": [
        {
          "internalType": "uint8",
          "name": "groupID",
          "type": "uint8"
        },
        {
          "internalType": "bytes32",
          "name": "key",
          "type": "bytes32"
        },
        {
          "internalType": "bool",
          "name": "value",
          "type": "bool"
        }
      ],
      "name": "setTag",
      "outputs": [],
      "stateMutability": "nonpayable",
      "type": "function"
    },
    {
      "inputs": [
        {
          "internalType": "bytes32",
          "name": "key",
          "type": "bytes32"
        }
      ],
      "name": "getTagType",
      "outputs": [
        {
          "internalType": "enum FireZardUtil.StatType",
          "name": "",
          "type": "uint8"
        }
      ],
      "stateMutability": "view",
      "type": "function"
    },
    {
      "inputs": [
        {
          "internalType": "bytes32",
          "name": "key",
          "type": "bytes32"
        }
      ],
      "name": "getByte32Value",
      "outputs": [
        {
          "internalType": "bytes32",
          "name": "",
          "type": "bytes32"
        }
      ],
      "stateMutability": "view",
      "type": "function"
    },
    {
      "inputs": [
        {
          "internalType": "bytes32",
          "name": "key",
          "type": "bytes32"
        }
      ],
      "name": "getStringValue",
      "outputs": [
        {
          "internalType": "string",
          "name": "",
          "type": "string"
        }
      ],
      "stateMutability": "view",
      "type": "function"
    },
    {
      "inputs": [
        {
          "internalType": "bytes32",
          "name": "key",
          "type": "bytes32"
        }
      ],
      "name": "getIntValue",
      "outputs": [
        {
          "internalType": "uint256",
          "name": "",
          "type": "uint256"
        }
      ],
      "stateMutability": "view",
      "type": "function"
    },
    {
      "inputs": [
        {
          "internalType": "bytes32",
          "name": "key",
          "type": "bytes32"
        }
      ],
      "name": "getBooleanValue",
      "outputs": [
        {
          "internalType": "bool",
          "name": "",
          "type": "bool"
        }
      ],
      "stateMutability": "view",
      "type": "function"
    },
    {
      "inputs": [
        {
          "internalType": "bytes32",
          "name": "key",
          "type": "bytes32"
        }
      ],
      "name": "getTagGroup",
      "outputs": [
        {
          "internalType": "uint8",
          "name": "",
          "type": "uint8"
        }
      ],
      "stateMutability": "view",
      "type": "function"
    }
  ],
  "bytecode": "0x608060405234801561001057600080fd5b5061001a3361001f565b61006f565b600080546001600160a01b038381166001600160a01b0319831681178455604051919092169283917f8be0079c531659141344cd1fd0a4f28419497f9722a3daafe3b4186f6b6457e09190a35050565b6118eb8061007e6000396000f3fe608060405234801561001057600080fd5b50600436106101735760003560e01c80636cc09e71116100de578063a209a29c11610097578063d547741f11610071578063d547741f14610387578063d713085b1461039a578063f2fde38b146103ad578063f8655143146103c057600080fd5b8063a209a29c1461034c578063a217fddf1461036c578063ca15c8731461037457600080fd5b80636cc09e71146102d3578063715018a6146102e65780638da5cb5b146102ee5780639007127b146103135780639010d07c1461032657806391d148541461033957600080fd5b8063348643a811610130578063348643a81461022257806336568abe14610235578063434a93d3146102485780635479e5711461027857806357e48ada1461028b5780636609288f146102c057600080fd5b806301ffc9a7146101785780630327fb54146101a05780630960d46c146101b557806317e7dd22146101d8578063248a9ca3146101eb5780632f2ff15d1461020f575b600080fd5b61018b6101863660046113bb565b6103d3565b60405190151581526020015b60405180910390f35b6101b36101ae3660046113fb565b6103fe565b005b6101ca60008051602061189683398151915281565b604051908152602001610197565b61018b6101e6366004611482565b61051a565b6101ca6101f9366004611482565b6000908152600160208190526040909120015490565b6101b361021d3660046114b2565b6105aa565b6101ca610230366004611482565b6105d1565b6101b36102433660046114b2565b61065a565b61026b610256366004611482565b60009081526008602052604090205460ff1690565b60405161019791906114f4565b6101b361028636600461151c565b61067c565b6102ae610299366004611482565b60009081526003602052604090205460ff1690565b60405160ff9091168152602001610197565b6101b36102ce366004611546565b6106ec565b6101b36102e1366004611546565b6107f2565b6101b36108f5565b6000546001600160a01b03165b6040516001600160a01b039091168152602001610197565b6101ca610321366004611482565b61092b565b6102fb610334366004611579565b6109b3565b61018b6103473660046114b2565b6109d2565b61035f61035a366004611482565b6109fd565b60405161019791906115cb565b6101ca600081565b6101ca610382366004611482565b610b11565b6101b36103953660046114b2565b610b28565b6101b36103a83660046115fe565b610b32565b6101b36103bb366004611643565b610c45565b6101b36103ce36600461151c565b610ce0565b60006001600160e01b03198216635a05180f60e01b14806103f857506103f882610d53565b92915050565b610416600080516020611896833981519152336109d2565b61043b5760405162461bcd60e51b81526004016104329061165e565b60405180910390fd5b6000838152600360205260409020548490849060ff16156104c757600081815260036020908152604080832054905161047a92339260ff1691016116a6565b60408051601f1981840301815291815281516020928301206000818152600990935291205490915060ff166104c15760405162461bcd60e51b8152600401610432906116c2565b506104e3565b6000818152600360205260409020805460ff191660ff84161790555b6000858152600860209081526040808320805460ff1916600117905560059091529020610511908585611322565b50505050505050565b600081600360008281526008602052604090205460ff166003811115610542576105426114de565b1461058f5760405162461bcd60e51b815260206004820152601960248201527f54686520746167206d757374206265206120626f6f6c65616e000000000000006044820152606401610432565b60008381526007602052604090205460ff1691505b50919050565b6105b48282610d88565b60008281526002602052604090206105cc9082610daf565b505050565b600081600260008281526008602052604090205460ff1660038111156105f9576105f96114de565b146106465760405162461bcd60e51b815260206004820152601c60248201527f54686520746167206d75737420626520612062797465206172726179000000006044820152606401610432565b505060009081526004602052604090205490565b6106648282610dc4565b60008281526002602052604090206105cc9082610e42565b6000546001600160a01b031633146106a65760405162461bcd60e51b8152600401610432906116f9565b600082826040516020016106bb9291906116a6565b60408051601f198184030181529181528151602092830120600090815260099092529020805460ff19169055505050565b610704600080516020611896833981519152336109d2565b6107205760405162461bcd60e51b81526004016104329061165e565b6000828152600360205260409020548390839060ff16156107ac57600081815260036020908152604080832054905161075f92339260ff1691016116a6565b60408051601f1981840301815291815281516020928301206000818152600990935291205490915060ff166107a65760405162461bcd60e51b8152600401610432906116c2565b506107c8565b6000818152600360205260409020805460ff191660ff84161790555b50506000918252600860209081526040808420805460ff1916600217905560049091529091205550565b61080a600080516020611896833981519152336109d2565b6108265760405162461bcd60e51b81526004016104329061165e565b6000828152600360205260409020548390839060ff16156108b257600081815260036020908152604080832054905161086592339260ff1691016116a6565b60408051601f1981840301815291815281516020928301206000818152600990935291205490915060ff166108ac5760405162461bcd60e51b8152600401610432906116c2565b506108ce565b6000818152600360205260409020805460ff191660ff84161790555b50506000918252600860209081526040808420805460ff1916905560069091529091205550565b6000546001600160a01b0316331461091f5760405162461bcd60e51b8152600401610432906116f9565b6109296000610e57565b565b6000818160008281526008602052604090205460ff166003811115610952576109526114de565b1461099f5760405162461bcd60e51b815260206004820152601a60248201527f54686520746167206d75737420626520616e20696e74656765720000000000006044820152606401610432565b505060009081526006602052604090205490565b60008281526002602052604081206109cb9083610ea7565b9392505050565b60009182526001602090815260408084206001600160a01b0393909316845291905290205460ff1690565b606081600160008281526008602052604090205460ff166003811115610a2557610a256114de565b14610a725760405162461bcd60e51b815260206004820152601860248201527f54686520746167206d757374206265206120737472696e6700000000000000006044820152606401610432565b60008381526005602052604090208054610a8b9061172e565b80601f0160208091040260200160405190810160405280929190818152602001828054610ab79061172e565b8015610b045780601f10610ad957610100808354040283529160200191610b04565b820191906000526020600020905b815481529060010190602001808311610ae757829003601f168201915b5050505050915050919050565b60008181526002602052604081206103f890610eb3565b6106648282610ebd565b610b4a600080516020611896833981519152336109d2565b610b665760405162461bcd60e51b81526004016104329061165e565b6000828152600360205260409020548390839060ff1615610bf2576000818152600360209081526040808320549051610ba592339260ff1691016116a6565b60408051601f1981840301815291815281516020928301206000818152600990935291205490915060ff16610bec5760405162461bcd60e51b8152600401610432906116c2565b50610c0e565b6000818152600360205260409020805460ff191660ff84161790555b505060009182526008602090815260408084208054600360ff19918216179091556007909252909220805490921690151517905550565b6000546001600160a01b03163314610c6f5760405162461bcd60e51b8152600401610432906116f9565b6001600160a01b038116610cd45760405162461bcd60e51b815260206004820152602660248201527f4f776e61626c653a206e6577206f776e657220697320746865207a65726f206160448201526564647265737360d01b6064820152608401610432565b610cdd81610e57565b50565b6000546001600160a01b03163314610d0a5760405162461bcd60e51b8152600401610432906116f9565b60008282604051602001610d1f9291906116a6565b60408051601f198184030181529181528151602092830120600090815260099092529020805460ff19166001179055505050565b60006001600160e01b03198216637965db0b60e01b14806103f857506301ffc9a760e01b6001600160e01b03198316146103f8565b60008281526001602081905260409091200154610da58133610ee4565b6105cc8383610f48565b60006109cb836001600160a01b038416610fb3565b6001600160a01b0381163314610e345760405162461bcd60e51b815260206004820152602f60248201527f416363657373436f6e74726f6c3a2063616e206f6e6c792072656e6f756e636560448201526e103937b632b9903337b91039b2b63360891b6064820152608401610432565b610e3e8282611002565b5050565b60006109cb836001600160a01b038416611069565b600080546001600160a01b038381166001600160a01b0319831681178455604051919092169283917f8be0079c531659141344cd1fd0a4f28419497f9722a3daafe3b4186f6b6457e09190a35050565b60006109cb838361115c565b60006103f8825490565b60008281526001602081905260409091200154610eda8133610ee4565b6105cc8383611002565b610eee82826109d2565b610e3e57610f06816001600160a01b03166014611186565b610f11836020611186565b604051602001610f22929190611763565b60408051601f198184030181529082905262461bcd60e51b8252610432916004016115cb565b610f5282826109d2565b610e3e5760008281526001602081815260408084206001600160a01b0386168086529252808420805460ff19169093179092559051339285917f2f8788117e7eff1d82e926ec794901d17c78024a50270940304540a733656f0d9190a45050565b6000818152600183016020526040812054610ffa575081546001818101845560008481526020808220909301849055845484825282860190935260409020919091556103f8565b5060006103f8565b61100c82826109d2565b15610e3e5760008281526001602090815260408083206001600160a01b0385168085529252808320805460ff1916905551339285917ff6391f5c32d9c69d2a47ea670b442974b53935d1edc7fd64eb21e047a839171b9190a45050565b6000818152600183016020526040812054801561115257600061108d6001836117ee565b85549091506000906110a1906001906117ee565b90508181146111065760008660000182815481106110c1576110c1611805565b90600052602060002001549050808760000184815481106110e4576110e4611805565b6000918252602080832090910192909255918252600188019052604090208390555b85548690806111175761111761181b565b6001900381819060005260206000200160009055905585600101600086815260200190815260200160002060009055600193505050506103f8565b60009150506103f8565b600082600001828154811061117357611173611805565b9060005260206000200154905092915050565b60606000611195836002611831565b6111a0906002611850565b67ffffffffffffffff8111156111b8576111b8611868565b6040519080825280601f01601f1916602001820160405280156111e2576020820181803683370190505b509050600360fc1b816000815181106111fd576111fd611805565b60200101906001600160f81b031916908160001a905350600f60fb1b8160018151811061122c5761122c611805565b60200101906001600160f81b031916908160001a9053506000611250846002611831565b61125b906001611850565b90505b60018111156112d3576f181899199a1a9b1b9c1cb0b131b232b360811b85600f166010811061128f5761128f611805565b1a60f81b8282815181106112a5576112a5611805565b60200101906001600160f81b031916908160001a90535060049490941c936112cc8161187e565b905061125e565b5083156109cb5760405162461bcd60e51b815260206004820181905260248201527f537472696e67733a20686578206c656e67746820696e73756666696369656e746044820152606401610432565b82805461132e9061172e565b90600052602060002090601f0160209004810192826113505760008555611396565b82601f106113695782800160ff19823516178555611396565b82800160010185558215611396579182015b8281111561139657823582559160200191906001019061137b565b506113a29291506113a6565b5090565b5b808211156113a257600081556001016113a7565b6000602082840312156113cd57600080fd5b81356001600160e01b0319811681146109cb57600080fd5b803560ff811681146113f657600080fd5b919050565b6000806000806060858703121561141157600080fd5b61141a856113e5565b935060208501359250604085013567ffffffffffffffff8082111561143e57600080fd5b818701915087601f83011261145257600080fd5b81358181111561146157600080fd5b88602082850101111561147357600080fd5b95989497505060200194505050565b60006020828403121561149457600080fd5b5035919050565b80356001600160a01b03811681146113f657600080fd5b600080604083850312156114c557600080fd5b823591506114d56020840161149b565b90509250929050565b634e487b7160e01b600052602160045260246000fd5b602081016004831061151657634e487b7160e01b600052602160045260246000fd5b91905290565b6000806040838503121561152f57600080fd5b6115388361149b565b91506114d5602084016113e5565b60008060006060848603121561155b57600080fd5b611564846113e5565b95602085013595506040909401359392505050565b6000806040838503121561158c57600080fd5b50508035926020909101359150565b60005b838110156115b657818101518382015260200161159e565b838111156115c5576000848401525b50505050565b60208152600082518060208401526115ea81604085016020870161159b565b601f01601f19169190910160400192915050565b60008060006060848603121561161357600080fd5b61161c846113e5565b9250602084013591506040840135801515811461163857600080fd5b809150509250925092565b60006020828403121561165557600080fd5b6109cb8261149b565b60208082526028908201527f5468652063616c6c6572206d757374206861766520616464657227732070726960408201526776696c656467657360c01b606082015260800190565b6001600160a01b0392909216825260ff16602082015260400190565b6020808252601d908201527f4e65656420746f2062652074616727732067726f7570206d656d626572000000604082015260600190565b6020808252818101527f4f776e61626c653a2063616c6c6572206973206e6f7420746865206f776e6572604082015260600190565b600181811c9082168061174257607f821691505b602082108114156105a457634e487b7160e01b600052602260045260246000fd5b7f416363657373436f6e74726f6c3a206163636f756e742000000000000000000081526000835161179b81601785016020880161159b565b7001034b99036b4b9b9b4b733903937b6329607d1b60179184019182015283516117cc81602884016020880161159b565b01602801949350505050565b634e487b7160e01b600052601160045260246000fd5b600082821015611800576118006117d8565b500390565b634e487b7160e01b600052603260045260246000fd5b634e487b7160e01b600052603160045260246000fd5b600081600019048311821515161561184b5761184b6117d8565b500290565b60008219821115611863576118636117d8565b500190565b634e487b7160e01b600052604160045260246000fd5b60008161188d5761188d6117d8565b50600019019056fe4598756f5316ec314da789a2239a8526acb3bbace52df2278d3c211ccdcc48a9a264697066735822122051b177ffcf934c5efa044fc1489d3caafaefd25901f3a5555e96dda223d6a91964736f6c63430008090033",
  "immutableReferences": {},
  "source": "/**\n * @notice Stores FireZard tokens tags related to game mechanics\n * @title FireZard Tag generic storage\n * @notice Stores tags (key-value) pairs of byte32, string, uint256 and boolean types.\n * The storage is agnostic to what contract (editor) and what data are being stored. Tags are formed by \n * the editor contracts. The storage provides authentication for adding/modifying tags.\n * \n * Each tag is assigned an editors' group. An editor (contract or user) can be added to one or more groups.\n * An editor can add/modify only those tags that are assigned to a group which the editor belongs to.\n */\n\npragma solidity ^0.8.0;\n\nimport \"@openzeppelin/contracts/access/AccessControlEnumerable.sol\";\nimport \"@openzeppelin/contracts/utils/Context.sol\";\nimport \"@openzeppelin/contracts/access/Ownable.sol\";\nimport {FireZardUtil} from \"./FireZardUtil.sol\";\n\n\ncontract FireZardTagStorage is Context, Ownable, AccessControlEnumerable {\n    bytes32 public constant ADDER_ROLE = keccak256('ADDER_ROLE');\n\n    mapping (bytes32 => uint8) tagGroup;\n    mapping (bytes32 => bytes32) tagByte32Value;\n    mapping (bytes32 => string) tagStringValue;\n    mapping (bytes32 => uint256) tagIntValue;\n    mapping (bytes32 => bool) tagBooleanValue;\n    mapping (bytes32 => FireZardUtil.StatType) tagType;\n    mapping (bytes32 => bool) groupMember;\n\n    modifier isAdder() {\n\trequire(hasRole(ADDER_ROLE, msg.sender),\"The caller must have adder's priviledges\");\n\t_;\n    }\n\n    modifier authorizeEdit(uint8 groupID, bytes32 key) {\n\tif(tagGroup[key]>0){\n\t    bytes32 groupMemberKey = keccak256(abi.encode(msg.sender,tagGroup[key]));\n\t    require(groupMember[groupMemberKey],\"Need to be tag's group member\");\n\t}\n\telse\n\t    tagGroup[key] = groupID;\n\t_;\n    }\n\n    modifier isByte32Tag(bytes32 key) {\n\trequire((tagType[key] == FireZardUtil.StatType.ByteArray), \"The tag must be a byte array\");\n\t_;\n    }\n\n    modifier isStringTag(bytes32 key) {\n\trequire((tagType[key] == FireZardUtil.StatType.String), \"The tag must be a string\");\n\t_;\n    }\n\n    modifier isIntTag(bytes32 key) {\n\trequire((tagType[key] == FireZardUtil.StatType.Integer), \"The tag must be an integer\");\n\t_;\n    }\n\n    modifier isBooleanTag(bytes32 key) {\n\trequire((tagType[key] == FireZardUtil.StatType.Boolean), \"The tag must be a boolean\");\n\t_;\n    }\n\n    constructor() {\n//\tsuper._setupRole(ADDER_ROLE,msg.sender);\n    }\n\n    /**\n     * @notice Add editor to a group\n     * \n     * @param entity  Editor's address. It can be contract or user\n     * @param groupID The id of the group where to add the entity\n    **/\n    function addEditor2Group(address entity,uint8 groupID) public virtual onlyOwner {\n\tbytes32 groupMemberKey = keccak256(abi.encode(entity,groupID));\n\tgroupMember[groupMemberKey] = true;\n    }\n\n    /**\n     * @notice Remove editor from the group\n     * \n     * @param entity  Editor's address. It can be contract or user\n     * @param groupID The id of the group from where to remove the entity\n    **/\n    function removeEditorFromGroup(address entity,uint8 groupID) public virtual onlyOwner {\n\tbytes32 groupMemberKey = keccak256(abi.encode(entity,groupID));\n\tgroupMember[groupMemberKey] = false;\n    }\n\n    /**\n     * @notice Set a byte array tag. The caller must have an adder role. \n     * The caller with the adder role can create new tag and assign it to any group id.\n     * The caller may modify existing tag and assign it to a new group id if the caller belongs to the group currently associated to the tag.\n     *\n     * @param groupID The ID of the group for the tag\n     * @param key     The key of the tag\n     * @param value   The value (type byte32) of the tag\n    **/\n    function setTag(uint8 groupID, bytes32 key, bytes32 value) public virtual isAdder() authorizeEdit(groupID, key) {\n\ttagType[key] = FireZardUtil.StatType.ByteArray;\n\ttagByte32Value[key] = value;\n    }\n\n    /**\n     * @notice Set a string tag. The caller must have an adder role.\n     * The caller with the adder role can create new tag and assign it to any group id.\n     * The caller may modify existing tag and assign it to a new group id if the caller belongs to the group currently associated to the tag.\n     *\n     * @param groupID The ID of the group for the tag\n     * @param key     The key of the tag\n     * @param value   The value (type string) of the tag\n    **/\n    function setTag(uint8 groupID, bytes32 key, string calldata value) public virtual isAdder() authorizeEdit(groupID, key) {\n\ttagType[key] = FireZardUtil.StatType.String;\n\ttagStringValue[key] = value;\n    }\n\n    /**\n     * @notice Set an integer tag. The caller must have an adder role.\n     * The caller with the adder role can create new tag and assign it to any group id.\n     * The caller may modify existing tag and assign it to a new group id if the caller belongs to the group currently associated to the tag.\n     *\n     * @param groupID The ID of the group for the tag\n     * @param key     The key of the tag\n     * @param value   The value (type uint256) of the tag\n    **/\n    function setTag(uint8 groupID, bytes32 key, uint256 value) public virtual isAdder() authorizeEdit(groupID, key) {\n\ttagType[key] = FireZardUtil.StatType.Integer;\n\ttagIntValue[key] = value;\n    }\n\n    /**\n     * @notice Set a boolean tag. The caller must have an adder role.\n     * The caller with the adder role can create new tag and assign it to any group id.\n     * The caller may modify existing tag and assign it to a new group id if the caller belongs to the group currently associated to the tag.\n     *\n     * @param groupID The ID of the group for the tag\n     * @param key     The key of the tag\n     * @param value   The value (type boolean) of the tag\n    **/\n    function setTag(uint8 groupID, bytes32 key, bool value) public virtual isAdder() authorizeEdit(groupID, key) {\n\ttagType[key] = FireZardUtil.StatType.Boolean;\n\ttagBooleanValue[key] = value;\n    }\n\n    /**\n     * @notice Gets data type of the tag.\n     *\n     * @param  key The tag's key\n     * @return The tag's value data type\n    **/\n    function getTagType(bytes32 key) public view returns (FireZardUtil.StatType) {\n\treturn tagType[key];\n    }\n\n    /**\n     * @notice Gets tag's value of byte array type.\n     *\n     * @param key The tag's key\n     * @return The tag's value of type bytes32\n    **/\n    function getByte32Value(bytes32 key) public view isByte32Tag(key) returns (bytes32) {\n\treturn tagByte32Value[key];\n    }\n\n    /**\n     * @notice Gets tag's value of string type.\n     *\n     * @param key The tag's key\n     * @return The tag's value of type string\n    **/\n    function getStringValue(bytes32 key) public view isStringTag(key) returns (string memory) {\n\treturn tagStringValue[key];\n    }\n\n    /**\n     * @notice Gets tag's value of integer type.\n     *\n     * @param key The tag's key\n     * @return The tag's value of type uint256\n    **/\n    function getIntValue(bytes32 key) public view isIntTag(key) returns (uint256) {\n\treturn tagIntValue[key];\n    }\n\n    /**\n     * @notice Gets tag's value of boolean type.\n     *\n     * @param key The tag's key\n     * @return The tag's value of type boolean\n    **/\n    function getBooleanValue(bytes32 key) public view isBooleanTag(key) returns (bool) {\n\treturn tagBooleanValue[key];\n    }\n\n    /**\n     * @notice Gets tag's associated group\n     *\n     * @param key The tag's key\n     * @return Id of the groupt to which the tag is currently associated\n    **/\n    function getTagGroup(bytes32 key) public view returns (uint8) {\n\treturn tagGroup[key];\n    }\n\n}\n",
  "sourcePath": "/home/vrogojin/Projects/firezard_nft/contracts/FireZardTagStorage.sol",
  "compiler": {
    "name": "solc",
    "version": "0.8.9+commit.e5eed63a.Emscripten.clang"
  },
  "schemaVersion": "3.4.3",
  "updatedAt": "2021-11-03T14:12:11.408Z",
  "devdoc": {
    "kind": "dev",
    "methods": {
      "addEditor2Group(address,uint8)": {
        "params": {
          "entity": "Editor's address. It can be contract or user",
          "groupID": "The id of the group where to add the entity*"
        }
      },
      "getBooleanValue(bytes32)": {
        "params": {
          "key": "The tag's key"
        },
        "returns": {
          "_0": "The tag's value of type boolean*"
        }
      },
      "getByte32Value(bytes32)": {
        "params": {
          "key": "The tag's key"
        },
        "returns": {
          "_0": "The tag's value of type bytes32*"
        }
      },
      "getIntValue(bytes32)": {
        "params": {
          "key": "The tag's key"
        },
        "returns": {
          "_0": "The tag's value of type uint256*"
        }
      },
      "getRoleAdmin(bytes32)": {
        "details": "Returns the admin role that controls `role`. See {grantRole} and {revokeRole}. To change a role's admin, use {_setRoleAdmin}."
      },
      "getRoleMember(bytes32,uint256)": {
        "details": "Returns one of the accounts that have `role`. `index` must be a value between 0 and {getRoleMemberCount}, non-inclusive. Role bearers are not sorted in any particular way, and their ordering may change at any point. WARNING: When using {getRoleMember} and {getRoleMemberCount}, make sure you perform all queries on the same block. See the following https://forum.openzeppelin.com/t/iterating-over-elements-on-enumerableset-in-openzeppelin-contracts/2296[forum post] for more information."
      },
      "getRoleMemberCount(bytes32)": {
        "details": "Returns the number of accounts that have `role`. Can be used together with {getRoleMember} to enumerate all bearers of a role."
      },
      "getStringValue(bytes32)": {
        "params": {
          "key": "The tag's key"
        },
        "returns": {
          "_0": "The tag's value of type string*"
        }
      },
      "getTagGroup(bytes32)": {
        "params": {
          "key": "The tag's key"
        },
        "returns": {
          "_0": "Id of the groupt to which the tag is currently associated*"
        }
      },
      "getTagType(bytes32)": {
        "params": {
          "key": "The tag's key"
        },
        "returns": {
          "_0": "The tag's value data type*"
        }
      },
      "grantRole(bytes32,address)": {
        "details": "Overload {grantRole} to track enumerable memberships"
      },
      "hasRole(bytes32,address)": {
        "details": "Returns `true` if `account` has been granted `role`."
      },
      "owner()": {
        "details": "Returns the address of the current owner."
      },
      "removeEditorFromGroup(address,uint8)": {
        "params": {
          "entity": "Editor's address. It can be contract or user",
          "groupID": "The id of the group from where to remove the entity*"
        }
      },
      "renounceOwnership()": {
        "details": "Leaves the contract without owner. It will not be possible to call `onlyOwner` functions anymore. Can only be called by the current owner. NOTE: Renouncing ownership will leave the contract without an owner, thereby removing any functionality that is only available to the owner."
      },
      "renounceRole(bytes32,address)": {
        "details": "Overload {renounceRole} to track enumerable memberships"
      },
      "revokeRole(bytes32,address)": {
        "details": "Overload {revokeRole} to track enumerable memberships"
      },
      "setTag(uint8,bytes32,bool)": {
        "params": {
          "groupID": "The ID of the group for the tag",
          "key": "The key of the tag",
          "value": "The value (type boolean) of the tag*"
        }
      },
      "setTag(uint8,bytes32,bytes32)": {
        "params": {
          "groupID": "The ID of the group for the tag",
          "key": "The key of the tag",
          "value": "The value (type byte32) of the tag*"
        }
      },
      "setTag(uint8,bytes32,string)": {
        "params": {
          "groupID": "The ID of the group for the tag",
          "key": "The key of the tag",
          "value": "The value (type string) of the tag*"
        }
      },
      "setTag(uint8,bytes32,uint256)": {
        "params": {
          "groupID": "The ID of the group for the tag",
          "key": "The key of the tag",
          "value": "The value (type uint256) of the tag*"
        }
      },
      "supportsInterface(bytes4)": {
        "details": "See {IERC165-supportsInterface}."
      },
      "transferOwnership(address)": {
        "details": "Transfers ownership of the contract to a new account (`newOwner`). Can only be called by the current owner."
      }
    },
    "version": 1
  },
  "userdoc": {
    "kind": "user",
    "methods": {
      "addEditor2Group(address,uint8)": {
        "notice": "Add editor to a group "
      },
      "getBooleanValue(bytes32)": {
        "notice": "Gets tag's value of boolean type."
      },
      "getByte32Value(bytes32)": {
        "notice": "Gets tag's value of byte array type."
      },
      "getIntValue(bytes32)": {
        "notice": "Gets tag's value of integer type."
      },
      "getStringValue(bytes32)": {
        "notice": "Gets tag's value of string type."
      },
      "getTagGroup(bytes32)": {
        "notice": "Gets tag's associated group"
      },
      "getTagType(bytes32)": {
        "notice": "Gets data type of the tag."
      },
      "removeEditorFromGroup(address,uint8)": {
        "notice": "Remove editor from the group "
      },
      "setTag(uint8,bytes32,bool)": {
        "notice": "Set a boolean tag. The caller must have an adder role. The caller with the adder role can create new tag and assign it to any group id. The caller may modify existing tag and assign it to a new group id if the caller belongs to the group currently associated to the tag."
      },
      "setTag(uint8,bytes32,bytes32)": {
        "notice": "Set a byte array tag. The caller must have an adder role.  The caller with the adder role can create new tag and assign it to any group id. The caller may modify existing tag and assign it to a new group id if the caller belongs to the group currently associated to the tag."
      },
      "setTag(uint8,bytes32,string)": {
        "notice": "Set a string tag. The caller must have an adder role. The caller with the adder role can create new tag and assign it to any group id. The caller may modify existing tag and assign it to a new group id if the caller belongs to the group currently associated to the tag."
      },
      "setTag(uint8,bytes32,uint256)": {
        "notice": "Set an integer tag. The caller must have an adder role. The caller with the adder role can create new tag and assign it to any group id. The caller may modify existing tag and assign it to a new group id if the caller belongs to the group currently associated to the tag."
      }
    },
    "version": 1
  }
}