{
  "contractName": "FireZardUtil",
  "abi": [
    {
      "inputs": [],
      "name": "DRAGON_CARD_TYPE_CODE",
      "outputs": [
        {
          "internalType": "bytes",
          "name": "",
          "type": "bytes"
        }
      ],
      "stateMutability": "view",
      "type": "function"
    },
    {
      "inputs": [
        {
          "internalType": "uint256",
          "name": "nft_id",
          "type": "uint256"
        },
        {
          "internalType": "string",
          "name": "name",
          "type": "string"
        }
      ],
      "name": "getTagKey",
      "outputs": [
        {
          "internalType": "bytes32",
          "name": "",
          "type": "bytes32"
        }
      ],
      "stateMutability": "pure",
      "type": "function"
    }
  ],
  "bytecode": "0x61021361003a600b82828239805160001a60731461002d57634e487b7160e01b600052600060045260246000fd5b30600052607381538281f3fe73000000000000000000000000000000000000000030146080604052600436106100405760003560e01c806361cc28d414610045578063dfbd4a051461009b575b600080fd5b610085604080517f37a3c4a2a635dedf6a4912ec5757511a1f2fa87cb349543d4751fc18c65e427360208201520160405160208183030381529060405281565b60405161009291906100f2565b60405180910390f35b6100ae6100a9366004610147565b6100bc565b604051908152602001610092565b60008383836040516020016100d3939291906101c3565b6040516020818303038152906040528051906020012090509392505050565b600060208083528351808285015260005b8181101561011f57858101830151858201604001528201610103565b81811115610131576000604083870101525b50601f01601f1916929092016040019392505050565b60008060006040848603121561015c57600080fd5b83359250602084013567ffffffffffffffff8082111561017b57600080fd5b818601915086601f83011261018f57600080fd5b81358181111561019e57600080fd5b8760208285010111156101b057600080fd5b6020830194508093505050509250925092565b83815281836020830137600091016020019081529291505056fea2646970667358221220d4dea86d24116dcf7280f0798937d1213746848969d67eb5743f4c70a43e802b64736f6c634300080a0033",
  "immutableReferences": {},
  "source": "/**\n * FireZard utilities lib\n */\n\npragma solidity ^0.8.0;\n\nimport \"./FireZardTagStorage.sol\";\n\nlibrary FireZardUtil {\n    bytes public constant DRAGON_CARD_TYPE_CODE = abi.encodePacked(keccak256('DRAGON_CARD'));\n\n    enum CardRarity{ Common, Uncommon, Rare, Super_Rare, Ultra_Rare }\n    enum StatType{ Integer, String, ByteArray, Boolean }\n\n    struct Stat{\n\tstring name;\n\tStatType statType;\n\tbool is_mutable;\n    }\n\n    function getTagKey(uint256 nft_id, string calldata name) public pure returns(bytes32) {\n\treturn keccak256(abi.encodePacked(nft_id, name));\n    }\n/*    function saveStat(address tagStorage, Stat calldata stat, string calldata name) external {\n\tbyte32 tag_key = keccak256(name);\n\t\n    }*/\n}",
  "sourcePath": "/home/vrogojin/Projects/firezard_nft/contracts/FireZardUtil.sol",
  "compiler": {
    "name": "solc",
    "version": "0.8.10+commit.fc410830.Emscripten.clang"
  },
  "schemaVersion": "3.4.3",
  "updatedAt": "2021-11-15T23:22:15.073Z",
  "devdoc": {
    "kind": "dev",
    "methods": {},
    "version": 1
  },
  "userdoc": {
    "kind": "user",
    "methods": {},
    "version": 1
  }
}