{
  "contractName": "FireZardUtil",
  "abi": [
    {
      "inputs": [],
      "name": "DRAGON_CARD_TYPE_CODE",
      "outputs": [
        {
          "internalType": "bytes",
          "name": "",
          "type": "bytes"
        }
      ],
      "stateMutability": "view",
      "type": "function",
      "constant": true
    },
    {
      "inputs": [
        {
          "internalType": "uint256",
          "name": "nft_id",
          "type": "uint256"
        },
        {
          "internalType": "string",
          "name": "name",
          "type": "string"
        }
      ],
      "name": "getTagKey",
      "outputs": [
        {
          "internalType": "bytes32",
          "name": "",
          "type": "bytes32"
        }
      ],
      "stateMutability": "pure",
      "type": "function",
      "constant": true
    },
    {
      "inputs": [
        {
          "internalType": "uint256",
          "name": "rvalue",
          "type": "uint256"
        },
        {
          "internalType": "uint256[]",
          "name": "distribution",
          "type": "uint256[]"
        },
        {
          "internalType": "uint256",
          "name": "size",
          "type": "uint256"
        }
      ],
      "name": "getRandomItem",
      "outputs": [
        {
          "internalType": "uint256",
          "name": "",
          "type": "uint256"
        }
      ],
      "stateMutability": "pure",
      "type": "function",
      "constant": true
    },
    {
      "inputs": [
        {
          "internalType": "bytes32",
          "name": "entropy",
          "type": "bytes32"
        }
      ],
      "name": "deriveCommitment",
      "outputs": [
        {
          "internalType": "bytes32",
          "name": "",
          "type": "bytes32"
        }
      ],
      "stateMutability": "pure",
      "type": "function",
      "constant": true
    }
  ],
  "bytecode": "0x61045e61003a600b82828239805160001a60731461002d57634e487b7160e01b600052600060045260246000fd5b30600052607381538281f3fe73000000000000000000000000000000000000000030146080604052600436106100565760003560e01c80630e44f1a01461005b57806361cc28d41461008157806375233c27146100ce578063dfbd4a05146100e1575b600080fd5b61006e6100693660046101e8565b6100f4565b6040519081526020015b60405180910390f35b6100c1604080517f37a3c4a2a635dedf6a4912ec5757511a1f2fa87cb349543d4751fc18c65e427360208201520160405160208183030381529060405281565b6040516100789190610201565b61006e6100dc366004610256565b610126565b61006e6100ef3660046102db565b6101b2565b60008160405160200161010991815260200190565b604051602081830303815290604052805190602001209050919050565b60008082610137600160001961036d565b6101419190610384565b90506000805b858110156101a357868682818110610161576101616103a6565b905060200201358361017391906103bc565b61017d90836103db565b9150818810156101915792506101aa915050565b8061019b816103f3565b915050610147565b5084925050505b949350505050565b60008383836040516020016101c99392919061040e565b6040516020818303038152906040528051906020012090509392505050565b6000602082840312156101fa57600080fd5b5035919050565b600060208083528351808285015260005b8181101561022e57858101830151858201604001528201610212565b81811115610240576000604083870101525b50601f01601f1916929092016040019392505050565b6000806000806060858703121561026c57600080fd5b84359350602085013567ffffffffffffffff8082111561028b57600080fd5b818701915087601f83011261029f57600080fd5b8135818111156102ae57600080fd5b8860208260051b85010111156102c357600080fd5b95986020929092019750949560400135945092505050565b6000806000604084860312156102f057600080fd5b83359250602084013567ffffffffffffffff8082111561030f57600080fd5b818601915086601f83011261032357600080fd5b81358181111561033257600080fd5b87602082850101111561034457600080fd5b6020830194508093505050509250925092565b634e487b7160e01b600052601160045260246000fd5b60008282101561037f5761037f610357565b500390565b6000826103a157634e487b7160e01b600052601260045260246000fd5b500490565b634e487b7160e01b600052603260045260246000fd5b60008160001904831182151516156103d6576103d6610357565b500290565b600082198211156103ee576103ee610357565b500190565b600060001982141561040757610407610357565b5060010190565b83815281836020830137600091016020019081529291505056fea2646970667358221220f4433d032cf05d614dfa6a0c277b948471afd94a47da8922ff901842f1cb574e64736f6c634300080a0033",
  "immutableReferences": {},
  "source": "/**\n * FireZard utilities lib\n */\n\npragma solidity ^0.8.0;\n\nimport \"./FireZardTagStorage.sol\";\n\nlibrary FireZardUtil {\n    bytes public constant DRAGON_CARD_TYPE_CODE = abi.encodePacked(keccak256('DRAGON_CARD'));\n\n    enum CardRarity{ Common, Uncommon, Rare, Super_Rare, Ultra_Rare }\n    enum StatType{ Integer, String, ByteArray, Boolean }\n\n    struct Stat{\n\tstring name;\n\tStatType statType;\n\tbool is_mutable;\n    }\n\n    function getTagKey(uint256 nft_id, string calldata name) public pure returns(bytes32) {\n\treturn keccak256(abi.encodePacked(nft_id, name));\n    }\n\n    function getRandomItem(uint256 rvalue, uint256[] calldata distribution, uint256 size) public pure returns(uint256) {\n\tuint256 ratio = (~uint256(0)-1)/size;\n\tuint256 svalue = 0;\n\tfor(uint256 i=0;i<distribution.length;i++){\n\t    svalue+=ratio*distribution[i];\n\t    if(rvalue < svalue)\n\t\treturn i;\n\t}\n\treturn distribution.length;\n    }\n\n      function deriveCommitment(bytes32 entropy) public pure returns (bytes32){\n        return keccak256(abi.encodePacked(entropy));\n    }\n\n}\n",
  "sourcePath": "/home/vrogojin/Projects/firezard_nft/contracts/FireZardUtil.sol",
  "compiler": {
    "name": "solc",
    "version": "0.8.10+commit.fc410830.Emscripten.clang"
  },
  "schemaVersion": "3.4.3",
  "updatedAt": "2021-11-27T17:10:14.615Z",
  "networkType": "ethereum",
  "devdoc": {
    "kind": "dev",
    "methods": {},
    "version": 1
  },
  "userdoc": {
    "kind": "user",
    "methods": {},
    "version": 1
  }
}