{
  "contractName": "RNG",
  "abi": [
    {
      "inputs": [
        {
          "internalType": "bool",
          "name": "_test_mode",
          "type": "bool"
        }
      ],
      "stateMutability": "nonpayable",
      "type": "constructor"
    },
    {
      "anonymous": false,
      "inputs": [
        {
          "indexed": false,
          "internalType": "bytes32",
          "name": "commitment",
          "type": "bytes32"
        }
      ],
      "name": "Commit",
      "type": "event"
    },
    {
      "anonymous": false,
      "inputs": [
        {
          "indexed": false,
          "internalType": "uint256",
          "name": "cap",
          "type": "uint256"
        }
      ],
      "name": "ConfirmationCap",
      "type": "event"
    },
    {
      "anonymous": false,
      "inputs": [
        {
          "indexed": false,
          "internalType": "bytes32",
          "name": "commitment",
          "type": "bytes32"
        }
      ],
      "name": "EntropyLock",
      "type": "event"
    },
    {
      "anonymous": false,
      "inputs": [
        {
          "indexed": true,
          "internalType": "address",
          "name": "previousOwner",
          "type": "address"
        },
        {
          "indexed": true,
          "internalType": "address",
          "name": "newOwner",
          "type": "address"
        }
      ],
      "name": "OwnershipTransferred",
      "type": "event"
    },
    {
      "anonymous": false,
      "inputs": [
        {
          "indexed": false,
          "internalType": "bytes32",
          "name": "commitment",
          "type": "bytes32"
        }
      ],
      "name": "ResetCommitment",
      "type": "event"
    },
    {
      "inputs": [],
      "name": "commitment_confirmation_cap",
      "outputs": [
        {
          "internalType": "uint256",
          "name": "",
          "type": "uint256"
        }
      ],
      "stateMutability": "view",
      "type": "function",
      "constant": true
    },
    {
      "inputs": [],
      "name": "owner",
      "outputs": [
        {
          "internalType": "address",
          "name": "",
          "type": "address"
        }
      ],
      "stateMutability": "view",
      "type": "function",
      "constant": true
    },
    {
      "inputs": [],
      "name": "renounceOwnership",
      "outputs": [],
      "stateMutability": "nonpayable",
      "type": "function"
    },
    {
      "inputs": [],
      "name": "test_mode",
      "outputs": [
        {
          "internalType": "bool",
          "name": "",
          "type": "bool"
        }
      ],
      "stateMutability": "view",
      "type": "function",
      "constant": true
    },
    {
      "inputs": [
        {
          "internalType": "address",
          "name": "newOwner",
          "type": "address"
        }
      ],
      "name": "transferOwnership",
      "outputs": [],
      "stateMutability": "nonpayable",
      "type": "function"
    },
    {
      "inputs": [
        {
          "internalType": "uint256",
          "name": "cap",
          "type": "uint256"
        }
      ],
      "name": "setCommitmentConfirmationCap",
      "outputs": [],
      "stateMutability": "nonpayable",
      "type": "function"
    },
    {
      "inputs": [
        {
          "internalType": "bytes32",
          "name": "commitment",
          "type": "bytes32"
        }
      ],
      "name": "commit",
      "outputs": [],
      "stateMutability": "nonpayable",
      "type": "function"
    },
    {
      "inputs": [
        {
          "internalType": "bytes32",
          "name": "commitment",
          "type": "bytes32"
        }
      ],
      "name": "resetCommitment",
      "outputs": [],
      "stateMutability": "nonpayable",
      "type": "function"
    },
    {
      "inputs": [
        {
          "internalType": "bytes32",
          "name": "entropy",
          "type": "bytes32"
        }
      ],
      "name": "lock",
      "outputs": [],
      "stateMutability": "nonpayable",
      "type": "function"
    },
    {
      "inputs": [
        {
          "internalType": "bytes32",
          "name": "commitment",
          "type": "bytes32"
        }
      ],
      "name": "read",
      "outputs": [
        {
          "internalType": "uint256",
          "name": "",
          "type": "uint256"
        }
      ],
      "stateMutability": "view",
      "type": "function",
      "constant": true
    }
  ],
  "bytecode": "0x60806040526001805534801561001457600080fd5b5060405161091d38038061091d833981016040819052610033916100a2565b61003c33610052565b6002805460ff19169115159190911790556100cb565b600080546001600160a01b038381166001600160a01b0319831681178455604051919092169283917f8be0079c531659141344cd1fd0a4f28419497f9722a3daafe3b4186f6b6457e09190a35050565b6000602082840312156100b457600080fd5b815180151581146100c457600080fd5b9392505050565b610843806100da6000396000f3fe608060405234801561001057600080fd5b506004361061009e5760003560e01c8063927e8c4211610066578063927e8c4214610121578063c2000d591461012a578063f14fcbc814610147578063f2fde38b1461015a578063fb570bc81461016d57600080fd5b806301670ba9146100a357806361da1439146100b8578063715018a6146100eb578063758c3d5b146100f35780638da5cb5b14610106575b600080fd5b6100b66100b1366004610731565b610180565b005b6100d86100c6366004610731565b60009081526004602052604090205490565b6040519081526020015b60405180910390f35b6100b6610336565b6100b6610101366004610731565b61036c565b6000546040516001600160a01b0390911681526020016100e2565b6100d860015481565b6002546101379060ff1681565b60405190151581526020016100e2565b6100b6610155366004610731565b6103d2565b6100b661016836600461074a565b61048a565b6100b661017b366004610731565b610525565b6040516272278d60e51b81526004810182905260009073__FireZardUtil__________________________90630e44f1a090602401602060405180830381865af41580156101d2573d6000803e3d6000fd5b505050506040513d601f19601f820116820180604052508101906101f6919061077a565b600081815260046020526040902054909150156102715760405162461bcd60e51b815260206004820152602e60248201527f54686520656e74726f70792073686f756c64206e6f742068617665206265656e60448201526d206c6f636b6564206265666f726560901b60648201526084015b60405180910390fd5b600081815260036020526040902054806102e25760405162461bcd60e51b815260206004820152602c60248201527f54686520656e74726f7079206d7573742068617665206265656e20636f6d6d6960448201526b3a3a32b21032b0b93634b2b960a11b6064820152608401610268565b6102ec81846105f9565b60008381526004602090815260409182902092909255518381527ffcd44fe2414c570f1af4666197b149197ea4a4e0074e764e7e2e2772e3661a1d910160405180910390a1505050565b6000546001600160a01b031633146103605760405162461bcd60e51b815260040161026890610793565b61036a60006106e1565b565b6000546001600160a01b031633146103965760405162461bcd60e51b815260040161026890610793565b60018190556040518181527fb6d78f6de320575c58204be457b06337e60feb5ad743168491402255688638c3906020015b60405180910390a150565b600081815260036020526040902054156104475760405162461bcd60e51b815260206004820152603060248201527f54686520656e74726f70792073686f756c64206e6f742068617665206265656e60448201526f20636f6d6d69746564206265666f726560801b6064820152608401610268565b60008181526003602052604090819020439055517f9e8a51bb6b34b9d5d18c14fd753ee3bf44e2256512665a4577281ffcc91943ff906103c79083815260200190565b6000546001600160a01b031633146104b45760405162461bcd60e51b815260040161026890610793565b6001600160a01b0381166105195760405162461bcd60e51b815260206004820152602660248201527f4f776e61626c653a206e6577206f776e657220697320746865207a65726f206160448201526564647265737360d01b6064820152608401610268565b610522816106e1565b50565b6000546001600160a01b0316331461054f5760405162461bcd60e51b815260040161026890610793565b60025460ff166105ad5760405162461bcd60e51b815260206004820152602360248201527f54686973206d6574686f6420776f726b7320696e2074657374206d6f6465206f6044820152626e6c7960e81b6064820152608401610268565b6000818152600360209081526040808320839055600482528083209290925590518281527fac68f90975f9410b216667788d897499268d6d22966a128552c0f7efc72fc33291016103c7565b60015460009061060984436107de565b116106a25760405162461bcd60e51b815260206004820152605c60248201527f54686520656e74726f7079206d7573742068617665206265656e20636f6d6d6960448201527f74746564206174206c656173742074686520636f6d6d69746d656e745f636f6e60648201527f6669726d6174696f6e5f63617020626c6f636b73206561726c69657200000000608482015260a401610268565b6001546106af90846107f5565b6040805191406020830152810183905260600160408051601f1981840301815291905280516020909101209392505050565b600080546001600160a01b038381166001600160a01b0319831681178455604051919092169283917f8be0079c531659141344cd1fd0a4f28419497f9722a3daafe3b4186f6b6457e09190a35050565b60006020828403121561074357600080fd5b5035919050565b60006020828403121561075c57600080fd5b81356001600160a01b038116811461077357600080fd5b9392505050565b60006020828403121561078c57600080fd5b5051919050565b6020808252818101527f4f776e61626c653a2063616c6c6572206973206e6f7420746865206f776e6572604082015260600190565b634e487b7160e01b600052601160045260246000fd5b6000828210156107f0576107f06107c8565b500390565b60008219821115610808576108086107c8565b50019056fea2646970667358221220ea50170e258511f0d0cb235bcc460a2c40c79fc957d3da50a2e568b2691fe7a164736f6c634300080a0033",
  "immutableReferences": {},
  "source": "\npragma solidity ^0.8.0;\n\nimport \"@openzeppelin/contracts/access/Ownable.sol\";\n\nimport \"./FireZardUtil.sol\";\n\nimport \"./IRNG.sol\";\n\ncontract RNG is IRNG, Ownable {\n    uint256 public commitment_confirmation_cap = 1;\n    bool public test_mode;\n\n    mapping(bytes32 => uint256) commitments;\n    mapping(bytes32 => uint256) rvalues;\n\n/*    constructor(){\n\ttest_mode = false;\n    }*/\n\n    constructor(bool _test_mode){\n\ttest_mode = _test_mode;\n    }\n\n    function setCommitmentConfirmationCap(uint256 cap) external onlyOwner {\n\tcommitment_confirmation_cap = cap;\n\n\temit ConfirmationCap(cap);\n    }\n\n    function commit(bytes32 commitment) external {\n\trequire((commitments[commitment] == 0),\"The entropy should not have been commited before\");\n\tcommitments[commitment] = block.number;\n\n\temit Commit(commitment);\n    }\n\n    function resetCommitment(bytes32 commitment) external onlyOwner {\n\trequire(test_mode, \"This method works in test mode only\");\n\tcommitments[commitment] = 0;\n\trvalues[commitment] = 0;\n\n\temit ResetCommitment(commitment);\n    }\n\n    function _getRandomValue(uint256 block_num, bytes32 user_entropy) internal view returns (uint256) {\n\trequire((block.number - block_num  > commitment_confirmation_cap),\"The entropy must have been committed at least the commitment_confirmation_cap blocks earlier\");\n\treturn uint256(keccak256(abi.encodePacked(blockhash(block_num+commitment_confirmation_cap),user_entropy)));\n    }\n\n/*    function _deriveCommitment(uint256 user_entropy) internal pure returns (bytes32){\n\treturn keccak256(abi.encodePacked(user_entropy));\n    }*/\n\n    function lock(bytes32 entropy) external{\n\tbytes32 commitment = FireZardUtil.deriveCommitment(entropy);\n\trequire(rvalues[commitment] == 0, \"The entropy should not have been locked before\");\n\tuint256 block_num = commitments[commitment];\n\trequire(block_num > 0, \"The entropy must have been committed earlier\");\n\trvalues[commitment] = _getRandomValue(block_num,entropy);\n\n\temit EntropyLock(commitment);\n    }\n\n    function read(bytes32 commitment) external view returns (uint256){\n\treturn rvalues[commitment];\n    }\n\n    event ConfirmationCap(uint256 cap);\n    event ResetCommitment(bytes32 commitment);\n    event EntropyLock(bytes32 commitment);\n    event Commit(bytes32 commitment);\n}\n",
  "sourcePath": "/home/vrogojin/Projects/firezard_nft/contracts/RNG.sol",
  "compiler": {
    "name": "solc",
    "version": "0.8.10+commit.fc410830.Emscripten.clang"
  },
  "schemaVersion": "3.4.3",
  "updatedAt": "2021-11-27T17:10:13.110Z",
  "networkType": "ethereum",
  "devdoc": {
    "kind": "dev",
    "methods": {
      "owner()": {
        "details": "Returns the address of the current owner."
      },
      "renounceOwnership()": {
        "details": "Leaves the contract without owner. It will not be possible to call `onlyOwner` functions anymore. Can only be called by the current owner. NOTE: Renouncing ownership will leave the contract without an owner, thereby removing any functionality that is only available to the owner."
      },
      "transferOwnership(address)": {
        "details": "Transfers ownership of the contract to a new account (`newOwner`). Can only be called by the current owner."
      }
    },
    "version": 1
  },
  "userdoc": {
    "kind": "user",
    "methods": {},
    "version": 1
  }
}