{
  "contractName": "RNG",
  "abi": [
    {
      "inputs": [
        {
          "internalType": "bool",
          "name": "_test_mode",
          "type": "bool"
        }
      ],
      "stateMutability": "nonpayable",
      "type": "constructor"
    },
    {
      "anonymous": false,
      "inputs": [
        {
          "indexed": false,
          "internalType": "uint256",
          "name": "cap",
          "type": "uint256"
        }
      ],
      "name": "ConfirmationCap",
      "type": "event"
    },
    {
      "anonymous": false,
      "inputs": [
        {
          "indexed": true,
          "internalType": "address",
          "name": "previousOwner",
          "type": "address"
        },
        {
          "indexed": true,
          "internalType": "address",
          "name": "newOwner",
          "type": "address"
        }
      ],
      "name": "OwnershipTransferred",
      "type": "event"
    },
    {
      "anonymous": false,
      "inputs": [
        {
          "indexed": false,
          "internalType": "bytes32",
          "name": "commitment",
          "type": "bytes32"
        }
      ],
      "name": "ResetCommitment",
      "type": "event"
    },
    {
      "inputs": [],
      "name": "commitment_confirmation_cap",
      "outputs": [
        {
          "internalType": "uint256",
          "name": "",
          "type": "uint256"
        }
      ],
      "stateMutability": "view",
      "type": "function"
    },
    {
      "inputs": [],
      "name": "owner",
      "outputs": [
        {
          "internalType": "address",
          "name": "",
          "type": "address"
        }
      ],
      "stateMutability": "view",
      "type": "function"
    },
    {
      "inputs": [],
      "name": "renounceOwnership",
      "outputs": [],
      "stateMutability": "nonpayable",
      "type": "function"
    },
    {
      "inputs": [],
      "name": "test_mode",
      "outputs": [
        {
          "internalType": "bool",
          "name": "",
          "type": "bool"
        }
      ],
      "stateMutability": "view",
      "type": "function"
    },
    {
      "inputs": [
        {
          "internalType": "address",
          "name": "newOwner",
          "type": "address"
        }
      ],
      "name": "transferOwnership",
      "outputs": [],
      "stateMutability": "nonpayable",
      "type": "function"
    },
    {
      "inputs": [
        {
          "internalType": "uint256",
          "name": "cap",
          "type": "uint256"
        }
      ],
      "name": "setCommitmentConfirmationCap",
      "outputs": [],
      "stateMutability": "nonpayable",
      "type": "function"
    },
    {
      "inputs": [
        {
          "internalType": "bytes32",
          "name": "commitment",
          "type": "bytes32"
        }
      ],
      "name": "init",
      "outputs": [],
      "stateMutability": "nonpayable",
      "type": "function"
    },
    {
      "inputs": [
        {
          "internalType": "bytes32",
          "name": "commitment",
          "type": "bytes32"
        }
      ],
      "name": "resetCommitment",
      "outputs": [],
      "stateMutability": "nonpayable",
      "type": "function"
    },
    {
      "inputs": [
        {
          "internalType": "uint256",
          "name": "user_entropy",
          "type": "uint256"
        }
      ],
      "name": "getRandomValue",
      "outputs": [
        {
          "internalType": "uint256",
          "name": "",
          "type": "uint256"
        }
      ],
      "stateMutability": "view",
      "type": "function"
    }
  ],
  "bytecode": "0x6080604052600a60015534801561001557600080fd5b50604051610711380380610711833981016040819052610034916100a3565b61003d33610053565b6002805460ff19169115159190911790556100cc565b600080546001600160a01b038381166001600160a01b0319831681178455604051919092169283917f8be0079c531659141344cd1fd0a4f28419497f9722a3daafe3b4186f6b6457e09190a35050565b6000602082840312156100b557600080fd5b815180151581146100c557600080fd5b9392505050565b610636806100db6000396000f3fe608060405234801561001057600080fd5b50600436106100935760003560e01c80638da5cb5b116100665780638da5cb5b146100ee578063927e8c4214610109578063c2000d5914610112578063f2fde38b1461012f578063fb570bc81461014257600080fd5b806325e41da1146100985780633b663195146100be578063715018a6146100d3578063758c3d5b146100db575b600080fd5b6100ab6100a636600461055d565b610155565b6040519081526020015b60405180910390f35b6100d16100cc36600461055d565b61027d565b005b6100d161030b565b6100d16100e936600461055d565b610341565b6000546040516001600160a01b0390911681526020016100b5565b6100ab60015481565b60025461011f9060ff1681565b60405190151581526020016100b5565b6100d161013d366004610576565b6103a7565b6100d161015036600461055d565b610442565b6000808260405160200161016b91815260200190565b60408051601f19818403018152918152815160209283012060008181526003909352912054600154919250906101a182436105a6565b1161023f5760405162461bcd60e51b815260206004820152605c60248201527f54686520656e74726f7079206d7573742068617665206265656e20636f6d6d6960448201527f74746564206174206c656173742074686520636f6d6d69746d656e745f636f6e60648201527f6669726d6174696f6e5f63617020626c6f636b73206561726c69657200000000608482015260a4015b60405180910390fd5b60015460405161025d91834091602001918252602082015260400190565b60408051601f198184030181529190528051602090910120949350505050565b600081815260036020526040902054156102f85760405162461bcd60e51b815260206004820152603660248201527f54686520636f6d6d69746d656e742073686f756c64206e6f742068617665206260448201527565656e20696e697469616c697a6564206265666f726560501b6064820152608401610236565b6000908152600360205260409020439055565b6000546001600160a01b031633146103355760405162461bcd60e51b8152600401610236906105cb565b61033f600061050d565b565b6000546001600160a01b0316331461036b5760405162461bcd60e51b8152600401610236906105cb565b60018190556040518181527fb6d78f6de320575c58204be457b06337e60feb5ad743168491402255688638c3906020015b60405180910390a150565b6000546001600160a01b031633146103d15760405162461bcd60e51b8152600401610236906105cb565b6001600160a01b0381166104365760405162461bcd60e51b815260206004820152602660248201527f4f776e61626c653a206e6577206f776e657220697320746865207a65726f206160448201526564647265737360d01b6064820152608401610236565b61043f8161050d565b50565b6000546001600160a01b0316331461046c5760405162461bcd60e51b8152600401610236906105cb565b60025460ff166104ca5760405162461bcd60e51b815260206004820152602360248201527f54686973206d6574686f6420776f726b7320696e2074657374206d6f6465206f6044820152626e6c7960e81b6064820152608401610236565b60008181526003602052604080822091909155517fac68f90975f9410b216667788d897499268d6d22966a128552c0f7efc72fc3329061039c9083815260200190565b600080546001600160a01b038381166001600160a01b0319831681178455604051919092169283917f8be0079c531659141344cd1fd0a4f28419497f9722a3daafe3b4186f6b6457e09190a35050565b60006020828403121561056f57600080fd5b5035919050565b60006020828403121561058857600080fd5b81356001600160a01b038116811461059f57600080fd5b9392505050565b6000828210156105c657634e487b7160e01b600052601160045260246000fd5b500390565b6020808252818101527f4f776e61626c653a2063616c6c6572206973206e6f7420746865206f776e657260408201526060019056fea26469706673582212208dfb52ec9575a3f188df3fa37ee60a8898ce3a87fbb281327208396a3d71dd6264736f6c634300080a0033",
  "immutableReferences": {},
  "source": "\npragma solidity ^0.8.0;\n\nimport \"@openzeppelin/contracts/access/Ownable.sol\";\nimport \"./IRNG.sol\";\n\ncontract RNG is IRNG, Ownable {\n    uint256 public commitment_confirmation_cap = 10;\n    bool public test_mode;\n\n    mapping(bytes32 => uint256) commitments;\n//    mapping(bytes32 => uint256) rvalues;\n\n/*    constructor(){\n\ttest_mode = false;\n    }*/\n\n    constructor(bool _test_mode){\n\ttest_mode = _test_mode;\n    }\n\n    function setCommitmentConfirmationCap(uint256 cap) external onlyOwner {\n\tcommitment_confirmation_cap = cap;\n\n\temit ConfirmationCap(cap);\n    }\n\n    function init(bytes32 commitment) external {\n\trequire((commitments[commitment] == 0),\"The commitment should not have been initialized before\");\n\tcommitments[commitment] = block.number;\n    }\n\n    function resetCommitment(bytes32 commitment) external onlyOwner {\n\trequire(test_mode, \"This method works in test mode only\");\n\tcommitments[commitment] = 0;\n//\trvalues[commitment] = 0;\n\n\temit ResetCommitment(commitment);\n    }\n\n    function getRandomValue(uint256 user_entropy) external view returns (uint256) {\n\tbytes32 commitment = keccak256(abi.encodePacked(user_entropy));\n/*\tuint256 rvalue = rvalues[commitment];\n\tif(rvalue != 0)\n\t    return rvalue;*/\n\tuint256 block_num  = commitments[commitment];\n\trequire((block.number - block_num  > commitment_confirmation_cap),\"The entropy must have been committed at least the commitment_confirmation_cap blocks earlier\");\n\treturn uint256(keccak256(abi.encodePacked(blockhash(block_num),commitment_confirmation_cap)));\n//\trvalues[commitment] = rvalue;\n//\treturn rvalue;\n    }\n\n    event ConfirmationCap(uint256 cap);\n    event ResetCommitment(bytes32 commitment);\n}",
  "sourcePath": "/home/vrogojin/Projects/firezard_nft/contracts/RNG.sol",
  "compiler": {
    "name": "solc",
    "version": "0.8.10+commit.fc410830.Emscripten.clang"
  },
  "schemaVersion": "3.4.3",
  "updatedAt": "2021-11-16T22:36:46.867Z",
  "devdoc": {
    "kind": "dev",
    "methods": {
      "owner()": {
        "details": "Returns the address of the current owner."
      },
      "renounceOwnership()": {
        "details": "Leaves the contract without owner. It will not be possible to call `onlyOwner` functions anymore. Can only be called by the current owner. NOTE: Renouncing ownership will leave the contract without an owner, thereby removing any functionality that is only available to the owner."
      },
      "transferOwnership(address)": {
        "details": "Transfers ownership of the contract to a new account (`newOwner`). Can only be called by the current owner."
      }
    },
    "version": 1
  },
  "userdoc": {
    "kind": "user",
    "methods": {},
    "version": 1
  }
}