{
  "contractName": "TestRNG",
  "abi": [
    {
      "inputs": [
        {
          "internalType": "uint256",
          "name": "rvalue",
          "type": "uint256"
        }
      ],
      "name": "tossCoin",
      "outputs": [
        {
          "internalType": "uint256",
          "name": "",
          "type": "uint256"
        }
      ],
      "stateMutability": "pure",
      "type": "function"
    }
  ],
  "bytecode": "0x608060405234801561001057600080fd5b506101d2806100206000396000f3fe608060405234801561001057600080fd5b506004361061002b5760003560e01c8063326d10dd14610030575b600080fd5b61004361003e3660046100fd565b610055565b60405190815260200160405180910390f35b6000606060018160008151811061006e5761006e610116565b60209081029190910101526040516375233c2760e01b815273__FireZardUtil__________________________906375233c27906100b5908690859060029060040161012c565b602060405180830381865af41580156100d2573d6000803e3d6000fd5b505050506040513d601f19601f820116820180604052508101906100f69190610183565b9392505050565b60006020828403121561010f57600080fd5b5035919050565b634e487b7160e01b600052603260045260246000fd5b6000606082018583526020606081850152818651808452608086019150828801935060005b8181101561016d57845183529383019391830191600101610151565b5050809350505050826040830152949350505050565b60006020828403121561019557600080fd5b505191905056fea2646970667358221220fdf0ef631fff347a5f91307ca9a14d0fb09f936c735cfd33ddd00c53b6fa345864736f6c634300080a0033",
  "immutableReferences": {},
  "source": "\npragma solidity ^0.8.0;\n\nimport \"./FireZardUtil.sol\";\n\ncontract TestRNG {\n\n    function tossCoin(uint256 rvalue) public pure returns(uint256){\n\tuint256[] memory distrib;\n\tdistrib[0] = 1;\n\treturn FireZardUtil.getRandomItem(rvalue, distrib, 2);\n    }\n\n}",
  "sourcePath": "/home/vrogojin/Projects/firezard_nft/contracts/TestRNG.sol",
  "compiler": {
    "name": "solc",
    "version": "0.8.10+commit.fc410830.Emscripten.clang"
  },
  "schemaVersion": "3.4.3",
  "updatedAt": "2021-11-17T21:51:27.653Z",
  "devdoc": {
    "kind": "dev",
    "methods": {},
    "version": 1
  },
  "userdoc": {
    "kind": "user",
    "methods": {},
    "version": 1
  }
}